{
	"data": {
		"bytecode": {
			"linkReferences": {},
			"object": "60a06040523461042c576158d46020813803918261001c81610430565b93849283398101031261042c57516001600160401b0381169081900361042c576009546001600160a01b0316906100536040610430565b91600f83526e13541308141b185e595c8810d85c99608a1b602084015261007a6040610430565b60058152644d504c504360d81b602082015283519092906001600160401b038111610335575f54600181811c91168015610422575b602082101461031757601f81116103b5575b50602094601f8211600114610354579481929394955f92610349575b50508160011b915f199060031b1c1916175f555b82516001600160401b03811161033557600154600181811c9116801561032b575b602082101461031757601f81116102a9575b506020601f821160011461024657819293945f9261023b575b50508160011b915f199060031b1c1916176001555b33156102285760078054336001600160a01b0319821681179092556040519391906001600160a01b03167f8be0079c531659141344cd1fd0a4f28419497f9722a3daafe3b4186f6b6457e05f80a3608052600980546001600160a01b03191673b83e47c2bc239b3bf370bc41e1459a34b41238d01790557f66756e2d657468657265756d2d7365706f6c69612d3100000000000000000000600a5562015180600e55600b80546001600160401b03191691909117905542600d5561547e908161045682396080518181816107ee01526145680152f35b631e4fbdf760e01b5f525f60045260245ffd5b015190505f8061013d565b601f1982169060015f52805f20915f5b81811061029157509583600195969710610279575b505050811b01600155610152565b01515f1960f88460031b161c191690555f808061026b565b9192602060018192868b015181550194019201610256565b818111156101245760015f52601f820160051c7fb10e2d527612073b26eecdfd717e6a320cf44b4afac2b0732d9fcbe2b7fa0cf66020841061030f575b81601f9101920160051c03905f5b828110610302575050610124565b5f828201556001016102f4565b5f91506102e6565b634e487b7160e01b5f52602260045260245ffd5b90607f1690610112565b634e487b7160e01b5f52604160045260245ffd5b015190505f806100dd565b601f198216955f8052805f20915f5b88811061039d57508360019596979810610385575b505050811b015f556100f1565b01515f1960f88460031b161c191690555f8080610378565b91926020600181928685015181550194019201610363565b818111156100c1575f8052601f820160051c7f290decd9548b62a8d60345a988386fc84ba6bc95484008f6362f93160ef3e5636020841061041a575b81601f9101920160051c03905f5b82811061040d5750506100c1565b5f828201556001016103ff565b5f91506103f1565b90607f16906100af565b5f80fd5b6040519190601f01601f191682016001600160401b038111838210176103355760405256fe60806040526004361015610011575f80fd5b5f3560e01c8062b467671461025357806301ffc9a71461024e57806306fdde0314610249578063081812fc14610244578063095ea7b31461023f57806309c1ba2e1461023a5780630ca761751461023557806313c601771461023057806318160ddd1461022b57806320457fb61461022657806322e817e21461022157806323b872dd1461021c5780632839b78f146102175780633f3b3b271461021257806342842e0e1461020d5780634585e33b146102085780635c2adf6a146102035780636352211e146101fe57806368015a4b146101f95780636dcee4ca146101f45780636e04ff0d146101ef57806370a08231146101ea578063715018a6146101e55780638da5cb5b146101e0578063947a36fb146101db57806394881476146101d657806395d89b41146101d1578063a22cb465146101cc578063b4cfae44146101c7578063b88d4fde146101c2578063c26b265f146101bd578063c87b56dd146101b8578063e049d709146101b3578063e985e9c5146101ae578063eca81d42146101a95763f2fde38b146101a4575f80fd5b6117ed565b61172d565b6116d1565b6116b5565b61156a565b61152c565b6114d8565b61143b565b61136d565b6112c8565b6112ab565b61128e565b611266565b61120b565b6111ba565b611157565b611138565b61110e565b6110de565b610fef565b610f35565b610eb1565b610e94565b610e4e565b610e37565b610d4e565b610d1f565b610d02565b610cd3565b61079a565b610774565b61066d565b610605565b61052e565b61046d565b610346565b634e487b7160e01b5f52604160045260245ffd5b60c081019081106001600160401b0382111761028757604052565b610258565b60e081019081106001600160401b0382111761028757604052565b604081019081106001600160401b0382111761028757604052565b90601f801991011681019081106001600160401b0382111761028757604052565b6001600160401b03811161028757601f01601f191660200190565b81601f8201121561034257602081359101610318826102e3565b9261032660405194856102c2565b8284528282011161034257815f92602092838601378301015290565b5f80fd5b34610342576020366003190112610342576004356001600160401b038111610342576103769036906004016102fe565b61037e612533565b80516001600160401b038111610287576103a28161039d600c54610b46565b611873565b602091601f82116001146103e0576103d0925f91836103d5575b50508160011b915f199060031b1c19161790565b600c55005b015190505f806103bc565b600c5f52601f198216927fdf6966c971051c3d54ec59162606531493a51404a002842f56009d7e5cf4a8c7915f5b8581106104435750836001951061042b575b505050811b01600c55005b01515f1960f88460031b161c191690555f8080610420565b9192602060018192868501518155019401920161040e565b6001600160e01b031981160361034257565b346103425760203660031901126103425760043561048a8161045b565b63ffffffff60e01b16632483248360e11b81149081156104b3575b506040519015158152602090f35b6380ac58cd60e01b8114915081156104e5575b81156104d4575b505f6104a5565b6301ffc9a760e01b1490505f6104cd565b635b5e139f60e01b811491506104c6565b805180835260209291819084018484015e5f828201840152601f01601f1916010190565b90602061052b9281815201906104f6565b90565b34610342575f366003190112610342576040515f5f5461054d81610b46565b80845290600181169081156105e15750600114610585575b61058183610575818503826102c2565b6040519182918261051a565b0390f35b5f8080527f290decd9548b62a8d60345a988386fc84ba6bc95484008f6362f93160ef3e563939250905b8082106105c757509091508101602001610575610565565b9192600181602092548385880101520191019092916105af565b60ff191660208086019190915291151560051b840190910191506105759050610565565b34610342576020366003190112610342576004356106228161255a565b505f526004602052602060018060a01b0360405f205416604051908152f35b600435906001600160a01b038216820361034257565b602435906001600160a01b038216820361034257565b3461034257604036600319011261034257610686610641565b602435906106938261255a565b33151580610761575b80610723575b6107105761070e926106ef9181906001600160a01b0385811691167f8c5be1e5ebec7d5bd14f71427d1e84f3dd0314c0f7b2291e5b200ac8c7c3b9255f80a45f52600460205260405f2090565b80546001600160a01b0319166001600160a01b03909216919091179055565b005b63a9fbf51f60e01b5f523360045260245ffd5b5060ff610759336107448460018060a01b03165f52600560205260405f2090565b9060018060a01b03165f5260205260405f2090565b5416156106a2565b506001600160a01b03811633141561069c565b34610342575f3660031901126103425760206001600160401b03600b5416604051908152f35b34610342576060366003190112610342576004356024356001600160401b038111610342576107cd9036906004016102fe565b6044356001600160401b038111610342576107ec9036906004016102fe565b7f00000000000000000000000000000000000000000000000000000000000000006001600160a01b03163303610b375761083f61083b610834855f52601260205260405f2090565b5460ff1690565b1590565b610b23578051610b02575061099d61096d6108ce610879610868865f52601160205260405f2090565b54946020808251830101910161258e565b6108be6001600160401b038216600261089a885f52601060205260405f2090565b0180546001600160c01b031660c09290921b6001600160c01b031916919091179055565b61091a6108da6108ce8360401c90565b6001600160401b031690565b60026108ee885f52601060205260405f2090565b01805467ffffffffffffffff60801b191660809290921b67ffffffffffffffff60801b16919091179055565b61096761092a6108ce8360801c90565b600261093e885f52601060205260405f2090565b019067ffffffffffffffff60401b82549160401b169067ffffffffffffffff60401b1916179055565b60c01c90565b6002610981845f52601060205260405f2090565b01906001600160401b03166001600160401b0319825416179055565b6109bc6109b2835f52601260205260405f2090565b805460ff19169055565b5f828152601160205260408120556109e46109df825f52601060205260405f2090565b611b91565b6080810180516001600160401b031680610afc57506001905b60608301908151610a14906001600160401b031690565b6001600160401b03169260a08501938451610a35906001600160401b031690565b6001600160401b0316610a4791611c0d565b610a5090611c1a565b906001600160401b0316610a6391611c5e565b610a6c9061288b565b60409485015192519151935185516001600160401b0394851681529284166020840152938316948201949094529116606082015260ff90911660808201524260a08201527f65b31b33bdd99bea0cc76b844ac2161d84f706e84c7aaa3ad9467f2bc5670ad39060c090a27f85e1543bf2f84fe80c6badbce3648c8539ad1df4d2b3d822938ca0538be727e65f80a2005b906109fd565b604051631de77ff960e11b8152908190610b1f906004830161051a565b0390fd5b63f6a8d1c960e01b5f52600483905260245ffd5b63c6829f8360e01b5f5260045ffd5b90600182811c92168015610b74575b6020831014610b6057565b634e487b7160e01b5f52602260045260245ffd5b91607f1691610b55565b604051905f82600c5491610b9183610b46565b8083529260018116908115610c165750600114610bb7575b610bb5925003836102c2565b565b50600c5f90815290917fdf6966c971051c3d54ec59162606531493a51404a002842f56009d7e5cf4a8c75b818310610bfa575050906020610bb592820101610ba9565b6020919350806001915483858901015201910190918492610be2565b60209250610bb594915060ff191682840152151560051b820101610ba9565b9060405191825f825492610c4884610b46565b8084529360018116908115610cb15750600114610c6d575b50610bb5925003836102c2565b90505f9291925260205f20905f915b818310610c95575050906020610bb5928201015f610c60565b6020919350806001915483858901015201910190918492610c7c565b905060209250610bb594915060ff191682840152151560051b8201015f610c60565b34610342575f36600319011261034257610581610cee610b7e565b6040519182916020835260208301906104f6565b34610342575f366003190112610342576020600854604051908152f35b34610342576020366003190112610342576004355f526012602052602060ff60405f2054166040519015158152f35b3461034257604036600319011261034257600435602435610d6d612533565b610e108210610de457600854918215610dd557610dac7f64586acd58623513aac74e3f48f97302b3e5020b31c103c3254eb9ea68bc49f29383106119ef565b80600e5581600f55610dd06040519283928360209093929193604081019481520152565b0390a1005b63d31b331d60e01b5f5260045ffd5b506304d5a70960e41b5f52600452610e1060245260445ffd5b6060906003190112610342576004356001600160a01b038116810361034257906024356001600160a01b0381168103610342579060443590565b346103425761070e610e4836610dfd565b91611a32565b346103425760203660031901126103425761070e600435610e6d612533565b610e7a60085482106119ef565b805f526010602052610e8e60405f20610c35565b90612611565b34610342575f366003190112610342576020600d54604051908152f35b346103425761070e610ec236610dfd565b9060405192610ed26020856102c2565b5f8452610ee0838383611a32565b33613e7f565b906020600319830112610342576004356001600160401b0381116103425782602382011215610342578060040135926001600160401b0384116103425760248483010111610342576024019190565b3461034257610f4336610ee6565b5050600d544203428111610f7f57600e5410610f5b57005b42600d5561070e600f54610e8e610f7a825f52601060205260405f2090565b610c35565b611b60565b6020815260c06001600160401b0360a0610fc2610fac865185602088015260e08701906104f6565b6020870151868203601f190160408801526104f6565b94826040820151166060860152826060820151166080860152826080820151168286015201511691015290565b34610342576020366003190112610342576004355f60a06040516110128161026c565b6060815260606020820152826040820152826060820152826080820152015261103e60085482106119ef565b5f52601060205261058160405f206110d26110c26002604051936110618561026c565b61106a81610c35565b855261107860018201610c35565b602086015201546001600160401b03811660408501526001600160401b038160401c1660608501526109676001600160401b038260801c1660808601906001600160401b03169052565b6001600160401b031660a0830152565b60405191829182610f84565b346103425760203660031901126103425760206110fc60043561255a565b6040516001600160a01b039091168152f35b34610342576020366003190112610342576004355f526011602052602060405f2054604051908152f35b3461034257602036600319011261034257610581610cee600435611db6565b346103425761116536610ee6565b5050600d544203428111610f7f57600e5410806111ad575b6040519061118c6020836102c2565b5f8252610581604051928392151583526040602084015260408301906104f6565b50600f546008541161117d565b34610342576020366003190112610342576001600160a01b036111db610641565b1680156111f8575f526003602052602060405f2054604051908152f35b6322718ad960e21b5f525f60045260245ffd5b34610342575f36600319011261034257611223612533565b600780546001600160a01b031981169091555f906001600160a01b03167f8be0079c531659141344cd1fd0a4f28419497f9722a3daafe3b4186f6b6457e08280a3005b34610342575f366003190112610342576007546040516001600160a01b039091168152602090f35b34610342575f366003190112610342576020600e54604051908152f35b34610342575f366003190112610342576020600f54604051908152f35b34610342575f366003190112610342576040515f6001546112e881610b46565b80845290600181169081156105e1575060011461130f5761058183610575818503826102c2565b60015f9081527fb10e2d527612073b26eecdfd717e6a320cf44b4afac2b0732d9fcbe2b7fa0cf6939250905b80821061135357509091508101602001610575610565565b91926001816020925483858801015201910190929161133b565b3461034257604036600319011261034257611386610641565b6024358015158103610342573315611428576001600160a01b03821691821561141557816113d26113e392335f52600560205260405f209060018060a01b03165f5260205260405f2090565b9060ff801983541691151516179055565b604051901515815233907f17307eab39ab6107e8899845ad3d59bd9653f200f220920489ca2b5937696c3190602090a3005b82630b61174360e31b5f5260045260245ffd5b63a9fbf51f60e01b5f525f60045260245ffd5b34610342576020366003190112610342576004355f52601060205261149860405f2061146681610c35565b906001600160401b036114a6600261148060018501610c35565b9301549260405195869560c0875260c08701906104f6565b9085820360208701526104f6565b918180821616604085015281808260401c1616606085015281808260801c1616608085015260c01c1660a08301520390f35b34610342576080366003190112610342576114f1610641565b6114f9610657565b90604435606435926001600160401b0384116103425761152061070e9436906004016102fe565b92610ee0838383611a32565b346103425760203660031901126103425760ff61058161154d600435611ed7565b6040929192519384931683526040602084015260408301906104f6565b3461034257602036600319011261034257600435805f52601060205260405f2090604051916115988361026c565b6115a181610c35565b83526115af60018201610c35565b90602084019182526002015460408401906001600160401b0381168252606085018160401c6001600160401b0316815260808601918060801c6001600160401b03166116049084906001600160401b03169052565b60c01c60a087019081529261161886611ed7565b91905061162487611db6565b61162d90614bc2565b9661163790612735565b97519551905161164f906001600160401b0316612735565b9251611663906001600160401b0316612735565b9351611677906001600160401b0316612735565b945161168b906001600160401b0316612735565b9561169598611fd2565b61169e90614bc2565b6116a79061231a565b60405161058181928261051a565b34610342575f366003190112610342576020604051610e108152f35b3461034257604036600319011261034257602060ff6117216116f1610641565b6116f9610657565b6001600160a01b039182165f9081526005865260408082209290931681526020919091522090565b54166040519015158152f35b3461034257606036600319011261034257611746610641565b6024356001600160401b038111610342576117659036906004016102fe565b604435916001600160401b038311610342576117d561178b6117da9436906004016102fe565b92611794612533565b60085493604051916117a58361026c565b825260208201525f60408201525f60608201525f60808201525f60a0820152835f52601060205260405f20612358565b61400a565b61070e6117e8600854612525565b600855565b3461034257602036600319011261034257611806610641565b61180e612533565b6001600160a01b0316801561186057600780546001600160a01b0319811683179091556001600160a01b03167f8be0079c531659141344cd1fd0a4f28419497f9722a3daafe3b4186f6b6457e05f80a3005b631e4fbdf760e01b5f525f60045260245ffd5b90601f8211611880575050565b80821161188b575050565b600c5f5260205f206020601f830160051c92106118ca575b81601f9101920160051c03905f5b8281106118bd57505050565b5f828201556001016118b1565b5f91506118a3565b919091601f83116118e3575b505050565b8183116118ef57505050565b5f5260205f206020601f830160051c9210611928575b81601f9101920160051c03905f5b828110156118de575f82820155600101611913565b5f9150611905565b91909182516001600160401b03811161028757611957816119518454610b46565b846118d2565b6020601f821160011461198a5781906119869394955f926103d55750508160011b915f199060031b1c19161790565b9055565b601f1982169061199d845f5260205f2090565b915f5b8181106119d7575095836001959697106119bf575b505050811b019055565b01515f1960f88460031b161c191690555f80806119b5565b9192602060018192868b0151815501940192016119a0565b156119f657565b60405162461bcd60e51b8152602060048201526014602482015273151bdad95b881251081d1a59185ac81d985b1a5960621b6044820152606490fd5b9091906001600160a01b0383168015611b39575f8381526002602052604090205483906001600160a01b03169133611b29575b6001600160a01b03831695611aaa9087611afd575b6001600160a01b0381165f908152600360205260409020600181540190556106ef845f52600260205260405f2090565b857fddf252ad1be2c89b69c2b068fc378daa952ba7f163c4a11628f55a4df523b3ef5f80a4506001600160a01b0316808303611ae557505050565b6364283d7b60e01b5f5260045260245260445260645ffd5b611b06846140f7565b6001600160a01b0385165f90815260036020526040902080545f19019055611a7a565b611b34823385614119565b611a65565b633250574960e11b5f525f60045260245ffd5b60405190611b5b6020836102c2565b5f8252565b634e487b7160e01b5f52601160045260245ffd5b601f19810191908211610f7f57565b5f19810191908211610f7f57565b90604051611b9e8161026c565b60a06001600160401b0360028395611bb581610c35565b8552611bc360018201610c35565b602086015201548181166040850152818160401c166060850152818160801c16608085015260c01c16910152565b9060028201809211610f7f57565b9060208201809211610f7f57565b91908201809211610f7f57565b90606482029180830460641490151715610f7f57565b600281901b91906001600160fe1b03811603610f7f57565b908160011b9180830460021490151715610f7f57565b8115611c68570490565b634e487b7160e01b5f52601260045260245ffd5b805191908290602001825e015f815290565b610bb590611cba611cac949360016040519687946020860190611c7c565b601760f91b81520190611c7c565b03601f1981018452836102c2565b600690611d9b611d849594611d95610bb5956004604051998a967f3c7376672077696474683d2233323022206865696768743d223430302220766960208901527f6577426f783d2230203020333230203430302220786d6c6e733d22687474703a60408901527f2f2f7777772e77332e6f72672f323030302f737667223e00000000000000000060608901527f3c672073686170652d72656e646572696e673d2263726973704564676573223e60778901526097880190611c7c565b631e17b39f60e11b81520190611c7c565b90611c7c565b651e17b9bb339f60d11b8152036019198101855201836102c2565b611dce6109df61052b925f52601060205260405f2090565b6080810190611de482516001600160401b031690565b6001600160401b038116611ece5750611ec860015b6060830192611e50611e156108ce86516001600160401b031690565b926001600160401b03611e48611e4360a0860196611e3d6108ce89516001600160401b031690565b90611c0d565b611c1a565b911690611c5e565b90611e7b611e75611e6360648504612735565b611e6f60648606612735565b90611c8e565b9261288b565b92611e8584612f16565b96611e8e61300f565b96835193611ec2611eb4611eb4611eb4604060208601519501516001600160401b031690565b94516001600160401b031690565b94613c80565b91611cc8565b611ec890611df9565b5f526010602052611fb5611fb060405f206001600160401b03611e48611e43600260405194611f058661026c565b611f0e81610c35565b8652611f1c60018201610c35565b60208701520154938385166040820152611f7e6060820195858160401c168752611f7160a0611f6160808601936109678a8260801c1686906001600160401b03169052565b6001600160401b03169401938452565b516001600160401b031690565b808516611fbf5750611e3d6108ce611fa26108ce600198516001600160401b031690565b92516001600160401b031690565b61288b565b9061052b82613f87565b6108ce611fa26108ce611e3d9398611f71565b969492909897959391604051998a9860208a0161200e907f7b226e616d65223a20224b617274752050656d61696e204d504c2049442023009052565b603f8a0161201b91611c7c565b6201116160ed1b81527f226465736372697074696f6e223a20224b6172747520644e4654204d504c204960038201527f6e646f6e657369612e2053746174697374696b2064616e2074616d70696c616e60238201527f206b617274752064697065726261727569206f746f6d6174697320766961204360438201527503430b4b73634b73590233ab731ba34b7b739971116160551b60638201526079016e2261747472696275746573223a205b60881b81527f7b2274726169745f74797065223a20224e69636b6e616d65222c202276616c75600f8201526432911d101160d91b602f82015260340161210d91611c7c565b62089f4b60ea1b81527f7b2274726169745f74797065223a20224c616e65222c202276616c7565223a206003820152601160f91b602382015260240161215291611c7c565b62089f4b60ea1b81527f7b2274726169745f74797065223a202254696572222c202276616c7565223a206003820152601160f91b602382015260240161219791611c7c565b62089f4b60ea1b81527f7b2274726169745f74797065223a202247616d6573222c202276616c7565223a6003820152600160fd1b60238201526024016121dc91611c7c565b611f4b60f21b81527f7b2274726169745f74797065223a20224b696c6c73222c202276616c7565223a6002820152600160fd1b602282015260230161222091611c7c565b611f4b60f21b81527f7b2274726169745f74797065223a2022446561746873222c202276616c75652260028201526101d160f51b602282015260240161226591611c7c565b611f4b60f21b81527f7b2274726169745f74797065223a202241737369737473222c202276616c75656002820152620111d160ed1b60228201526025016122ab91611c7c565b607d60f81b81526202e96160ed1b60018201527f22696d616765223a2022646174613a696d6167652f7376672b786d6c3b626173600482015263194d8d0b60e21b60248201526028016122fd91611c7c565b61227d60f01b815203601d1981018352600201610bb590836102c2565b90610bb5611cba926040519384917f646174613a6170706c69636174696f6e2f6a736f6e3b6261736536342c0000006020840152603d830190611c7c565b919080519283516001600160401b0381116102875761237b816119518454610b46565b6020601f82116001146124b057612490926123b58360a094600294610bb5999a5f926103d55750508160011b915f199060031b1c19161790565b81555b6123c9602086015160018301611930565b01926123ff6123e260408301516001600160401b031690565b855467ffffffffffffffff19166001600160401b03909116178555565b61244361241660608301516001600160401b031690565b85546fffffffffffffffff0000000000000000191660409190911b67ffffffffffffffff60401b16178555565b61248261245a60808301516001600160401b031690565b855467ffffffffffffffff60801b191660809190911b67ffffffffffffffff60801b16178555565b01516001600160401b031690565b81546001600160c01b031660c09190911b6001600160c01b031916179055565b601f198216956124c3845f5260205f2090565b965f5b81811061250d575083610bb59798600294612490979460a097600195106124f5575b505050811b0181556123b8565b01515f1960f88460031b161c191690555f80806124e8565b838301518955600190980197602093840193016124c6565b5f198114610f7f5760010190565b6007546001600160a01b0316330361254757565b63118cdaa760e01b5f523360045260245ffd5b5f818152600260205260409020546001600160a01b031690811561257c575090565b637e27328960e01b5f5260045260245ffd5b90816020910312610342575190565b604080519091906125ae83826102c2565b6001815291601f1901825f5b8281106125c657505050565b8060606020809385010152016125ba565b634e487b7160e01b5f52603260045260245ffd5b8051156125f85760200190565b6125d7565b80518210156125f85760209160051b010190565b906126fe92917f36c447ad99df7457c4f3d38dad77da717d67a685e3ed93297fefc4601d9beb256126c56126b060405161264a8161028c565b5f81525f60208201525f604082015260608082015260606080820152606060a0820152606060c082015261268561267f610b7e565b82614ce1565b6126ab61269061259d565b8761269a826125eb565b526126a4816125eb565b50826141f1565b614349565b600b546001600160401b0316600a5491614512565b948593836126db865f52601160205260405f2090565b556105756126f1865f52601260205260405f2090565b805460ff19166001179055565b0390a3565b9061270d826102e3565b61271a60405191826102c2565b828152809261272b601f19916102e3565b0190602036910137565b805f9172184f03e93ff9f4daa797ed6e38ed64bf6a1f0160401b821015612868575b806d04ee2d6d415b85acef8100000000600a92101561284c575b662386f26fc10000811015612837575b6305f5e100811015612825575b612710811015612815575b6064811015612806575b10156127fb575b6127e660216127bb60018501612703565b938401015b5f1901916f181899199a1a9b1b9c1cb0b131b232b360811b600a82061a8353600a900490565b80156127f6576127e690916127c0565b505090565b6001909101906127aa565b600290606490049301926127a3565b6004906127109004930192612799565b6008906305f5e100900493019261278e565b601090662386f26fc100009004930192612781565b6020906d04ee2d6d415b85acef81000000009004930192612771565b506040915072184f03e93ff9f4daa797ed6e38ed64bf6a1f0160401b8104612757565b6105dc8110156128c6576103e88110156128c0576101f48110156128ba57606411156128b5575f90565b600190565b50600290565b50600390565b50600490565b604051906128db6040836102c2565b60078252662331353135313560c81b6020830152565b604051906129006040836102c2565b600782526611981919331a9960c91b6020830152565b604051906129256040836102c2565b60078252662365636630663160c81b6020830152565b6040519061294a6040836102c2565b60078252662335353535353560c81b6020830152565b6040519061296f6040836102c2565b60078252660233161306530360cc1b6020830152565b604051906129946040836102c2565b60078252660233261313830360cc1b6020830152565b604051906129b96040836102c2565b600782526611b1b21bb3199960c91b6020830152565b604051906129de6040836102c2565b60078252662361303632326160c81b6020830152565b60405190612a036040836102c2565b60078252662331613161316160c81b6020830152565b60405190612a286040836102c2565b60078252662332613261326160c81b6020830152565b60405190612a4d6040836102c2565b60078252660236330633063360cc1b6020830152565b60405190612a726040836102c2565b600782526608d84e184e585960ca1b6020830152565b60405190612a976040836102c2565b60078252660233161313430360cc1b6020830152565b60405190612abc6040836102c2565b60078252660233261323030360cc1b6020830152565b60405190612ae16040836102c2565b60078252660236666643730360cc1b6020830152565b60405190612b066040836102c2565b60078252660236338613630360cc1b6020830152565b60405190612b2b6040836102c2565b60078252660233161303033360cc1b6020830152565b60405190612b506040836102c2565b60078252660233264303035360cc1b6020830152565b60405190612b756040836102c2565b600782526611b1331bb3333360c91b6020830152565b60405190612b9a6040836102c2565b60078252660236130323066360cc1b6020830152565b94929096959391604051978896602088017f3c7265637420783d22302220793d2230222077696474683d223332302220686590527034b3b43a1e911a181811103334b6361e9160791b604089015260518801612c0b91611c7c565b6211179f60e91b81527f3c7265637420783d22382220793d2238222077696474683d223330342220686560038201527034b3b43a1e91199c1a11103334b6361e9160791b6023820152612c6391603490910190611c7c565b6211179f60e91b81527f3c7265637420783d22382220793d2238222077696474683d223330342220686560038201527f696768743d22333834222066696c6c3d226e6f6e6522207374726f6b653d22006023820152604201612cc491611c7c565b7f22207374726f6b652d77696474683d22312e35222072783d2232222f3e00000081527f3c7465787420783d223136302220793d223336222066696c6c3d220000000000601d820152603801612d1991611c7c565b7f2220666f6e742d73697a653d2231362220746578742d616e63686f723d226d6981527f64646c652220666f6e742d7765696768743d22626f6c642220666f6e742d666160208201527f6d696c793d226d6f6e6f7370616365223e504c4159455220434152443c2f74656040820152623c3a1f60e91b60608201526063017f3c6c696e652078313d223230222079313d223530222078323d2233303022207981526e191e911a98111039ba3937b5b29e9160891b6020820152602f01612dde91611c7c565b73111039ba3937b5b296bbb4b23a341e911911179f60611b81527f3c7265637420783d223233302220793d22333535222077696474683d2237382260148201527f206865696768743d223232222072783d2234222066696c6c3d220000000000006034820152604e01612e5091611c7c565b6211179f60e91b81527f3c7465787420783d223236392220793d22333730222066696c6c3d222366666660038201527f6666662220666f6e742d73697a653d2231312220746578742d616e63686f723d60238201527f226d6964646c652220666f6e742d7765696768743d22626f6c642220666f6e7460438201527316b330b6b4b63c9e9136b7b737b9b830b1b2911f60611b6063820152607701612ef491611c7c565b661e17ba32bc3a1f60c91b81520360181981018352600701610bb590836102c2565b61052b9060ff811660048103612f5a5750612f2f612b1c565b90612f38612b41565b612f40612b66565b808092612f54612f4e612b8b565b95613f87565b95612bb0565b60038103612f8a5750612f6b612a88565b90612f74612aad565b612f7c612ad2565b808092612f54612f4e612af7565b60028103612fba5750612f9b6129f4565b90612fa4612a19565b612fac612a3e565b808092612f54612f4e612a63565b600103612fe857612fc9612960565b90612fd2612985565b612fda6129aa565b808092612f54612f4e6129cf565b612ff06128cc565b90612ff96128f1565b613001612916565b808092612f54612f4e61293b565b6040519061301f6108c0836102c2565b61089482527f3c73766720783d2231302220793d223330222077696474683d2231343022206860208301527f65696768743d22333830222076696577426f783d22302030203332203332222060408301527f73686170652d72656e646572696e673d2263726973704564676573223e3c672060608301527f7472616e73666f726d3d227472616e736c6174652833322c203029207363616c60808301527f65282d312c203129223e3c706174682066696c6c3d222330303030303022206460a08301527f3d224d3131203268313076314831317a204d3920336832763148397a204d323160c08301527f2033683276314832317a204d3820346831763148387a204d323320346831763160e08301527f4832337a204d3820356831763148387a204d32342035683176314832347a204d6101008301527f3820366831763148387a204d32342036683176314832347a204d3820376831766101208301527f3148387a204d32342037683176314832347a204d3820386831763148387a204d6101408301527f32342038683176314832347a204d3920396831763148397a204d3234203968316101608301527f76314832347a204d392031306831763148397a204d32332031306831763148326101808301527f337a204d392031316831763148397a204d3132203131683276314831327a204d6101a08301527f3138203131683276314831387a204d3233203131683176314832337a204d39206101c08301527f31326831763148397a204d3233203132683176314832337a204d3130203133686101e08301527f3176314831307a204d3232203133683176314832327a204d31302031346831766102008301527f314831307a204d3232203134683176314832327a204d313020313568317631486102208301527f31307a204d3232203135683176314832327a204d3131203136683176314831316102408301527f7a204d3231203136683176314832317a204d3131203137683176314831317a206102608301527f4d3231203137683176314832317a204d3132203138683176314831327a204d326102808301527f30203138683176314832307a204d3132203139683176314831327a204d3230206102a08301527f3139683176314832307a204d3131203230683176314831317a204d32312032306102c08301527f683176314832317a204d392032316832763148397a204d3232203231683276316102e08301527f4832327a204d372032326832763148377a204d3234203232683276314832347a6103008301527f204d362032336831763148367a204d3236203233683176314832367a204d35206103208301527f32346831763148357a204d3237203234683176314832377a204d3420323568316103408301527f763148347a204d3238203235683176314832387a204d332032366831763148336103608301527f7a204d3239203236683176314832397a204d332032376831763148337a204d326103808301527f39203237683176314832397a204d332032386831763148337a204d32392032386103a08301527f683176314832397a204d332032396831763148337a204d3239203239683176316103c08301527f4832397a204d332033306831763148337a204d3239203330683176314832397a6103e08301527f204d33203331683237763148337a22202f3e3c706174682066696c6c3d2223306104008301527f30303030302220643d224d3131203368313076314831317a204d3920346831346104208301527f763148397a204d392035683135763148397a204d392036683135763148397a206104408301527f4d392037683135763148397a204d3920386833763148397a204d3230203868346104608301527f76314832307a204d31302039683276314831307a204d323220396832763148326104808301527f327a204d3130203130683176314831307a204d3232203130683176314832327a6104a08301527f22202f3e3c706174682066696c6c3d22236534623539302220643d224d3132206104c08301527f38683876314831327a204d3132203968313076314831327a204d3131203130686104e08301527f313176314831317a204d3130203131683276314831307a204d313420313168346105008301527f76314831347a204d3230203131683376314832307a204d3130203132683133766105208301527f314831307a204d3131203133683476314831317a204d313720313368357631486105408301527f31377a204d313120313468313176314831317a204d31312031356833763148316105608301527f317a204d3138203135683476314831387a204d3132203136683976314831327a6105808301527f204d3132203137683976314831327a204d3133203138683776314831337a22206105a08301527f2f3e3c706174682066696c6c3d22236335393437332220643d224d31352031336105c08301527f683276314831357a204d3133203139683776314831337a204d313420323068356105e08301527f76314831347a22202f3e3c706174682066696c6c3d22236264366134662220646106008301527f3d224d3134203135683476314831347a22202f3e3c706174682066696c6c3d226106208301527f236666666666662220643d224d3132203230683276314831327a204d313920326106408301527f30683276314831397a204d3131203231683376314831317a204d3139203231686106608301527f3376314831397a204d392032326834763148397a204d323020323268347631486106808301527f32307a204d372032336835763148377a204d3231203233683576314832317a206106a08301527f4d362032346835763148367a204d3232203234683576314832327a204d3520326106c08301527f356835763148357a204d3133203235683276314831337a204d313620323568326106e08301527f76314831367a204d3139203235683276314831397a204d3233203235683576316107008301527f4832337a204d342032366835763148347a204d3234203236683576314832347a6107208301527f204d342032376834763148347a204d3235203237683476314832357a204d34206107408301527f32386834763148347a204d3235203238683476314832357a204d3420323968346107608301527f763148347a204d3235203239683476314832357a204d362033306832763148366107808301527f7a204d3235203330683276314832357a22202f3e3c706174682066696c6c3d226107a08301527f236566383131352220643d224d3134203231683576314831347a204d313320326107c08301527f32683776314831337a204d3132203233683976314831327a204d3131203234686107e08301527f313176314831317a204d3130203235683376314831307a204d313520323568316108008301527f76314831357a204d3138203235683176314831387a204d3231203235683276316108208301527f4832317a204d39203236683135763148397a204d38203237683137763148387a6108408301527f204d38203238683137763148387a204d38203239683137763148387a204d34206108608301527f33306832763148347a204d38203330683137763148387a204d32372033306832610880830152733b18a4191bbd1110179f1e17b39f1e17b9bb339f60611b6108a0830152565b600490613c67613b349594611d956007613be3610bb597609a6040519b8c987f3c67207472616e73666f726d3d227472616e736c617465283138302c2039352960208b01527f222073686170652d72656e646572696e673d2263726973704564676573223e0060408b01527f3c7465787420783d222d33302220793d223230222066696c6c3d220000000000605f8b0152607a8a0190611c7c565b5f5160206154295f395f51905f5281527f6e6f7370616365223e504c41594552204e414d453a3c2f746578743e0000000060208201527f3c7465787420783d222d33302220793d223436222066696c6c3d222365636630603c8201527f66312220666f6e742d73697a653d2232302220666f6e742d7765696768743d22605c8201527f626f6c642220666f6e742d66616d696c793d226d6f6e6f7370616365223e0000607c8201520190611c7c565b661e17ba32bc3a1f60c91b815201605f907f3c6c696e652078313d222d3235222079313d223638222078323d22313230222081527f79323d22363822207374726f6b653d222335353522207374726f6b652d77696460208201527f74683d223322207374726f6b652d6461736861727261793d22382c36222f3e0060408201520190565b631e17b39f60e11b815203601b198101855201836102c2565b94909293613cad9460ff61052b9998949816600481145f14613cb35750613ca5612b66565b9788956145fd565b91613a99565b60038103613cc45750613ca5612ad2565b60028103613cd55750613ca5612a3e565b600103613ce457613ca56129aa565b604051613cf26040826102c2565b600781526611999a1c9c323160c91b60208201529788956145fd565b90816020910312610342575161052b8161045b565b6001600160a01b03918216815291166020820152604081019190915260806060820181905261052b929101906104f6565b6040513d5f823e3d90fd5b3d15613d89573d90613d70826102e3565b91613d7e60405193846102c2565b82523d5f602084013e565b606090565b9092833b613d9d575b50505050565b604051630a85bd0160e11b81529260209284928392613dc1925f9060048601613d23565b03815f6001600160a01b0387165af15f9181613e4e575b50613e125750613de6613d5f565b8051919082613e0b57633250574960e11b5f526001600160a01b03821660045260245ffd5b6020915001fd5b6001600160e01b03191663757a42ff60e11b01613e3357505f808080613d97565b633250574960e11b5f526001600160a01b031660045260245ffd5b613e7191925060203d602011613e78575b613e6981836102c2565b810190613d0e565b905f613dd8565b503d613e5f565b939193843b613e90575b5050505050565b613eb16020936040519586948594630a85bd0160e11b865260048601613d23565b03815f6001600160a01b0387165af15f9181613ef8575b50613ed65750613de6613d5f565b6001600160e01b03191663757a42ff60e11b01613e3357505f80808080613e89565b613f1291925060203d602011613e7857613e6981836102c2565b905f613ec8565b60405190613f286040836102c2565b600682526529a4a62b22a960d11b6020830152565b60405190613f4c6040836102c2565b600682526542524f4e5a4560d01b6020830152565b60405190613f706040836102c2565b6008825267155394905392d15160c21b6020830152565b60ff1660048114613fe55760038114613fc25760028114613fb957600114613fb15761052b613f61565b61052b613f3d565b5061052b613f19565b50604051613fd16040826102c2565b600481526311d3d31160e21b602082015290565b50604051613ff46040826102c2565b6006815265131151d1539160d21b602082015290565b906040519061401a6020836102c2565b5f82526001600160a01b0383168015611b39575f828152600260205260409020546001600160a01b0316801515918390836140cb575b6001600160a01b0387165f90815260036020526040902060018154019055614084876106ef845f52600260205260405f2090565b827fddf252ad1be2c89b69c2b068fc378daa952ba7f163c4a11628f55a4df523b3ef5f80a4506140b857610bb59233613d8e565b6339e3563760e11b5f525f60045260245ffd5b6140d4826140f7565b6001600160a01b0383165f90815260036020526040902080545f19019055614050565b614109905f52600460205260405f2090565b80546001600160a01b0319169055565b9091906141376001600160a01b038416801515908161417f57501590565b61414057505050565b6001600160a01b031661415f57637e27328960e01b5f5260045260245ffd5b63177e802f60e01b5f526001600160a01b0390911660045260245260445ffd5b6001600160a01b038416808214925082156141bf575b5081156141a157501590565b5f858152600460205260409020546001600160a01b03161415919050565b9091505f52600560205260ff6141e88660405f209060018060a01b03165f5260205260405f2090565b5416905f614195565b8151156141fe5760a00152565b63fe936cb760e01b5f5260045ffd5b6040519061421c6040836102c2565b600c82526b31b7b232a637b1b0ba34b7b760a11b6020830152565b634e487b7160e01b5f52602160045260245ffd5b6003111561425557565b614237565b604051906142696040836102c2565b60088252676c616e677561676560c01b6020830152565b6001111561425557565b604051906142996040836102c2565b6006825265736f7572636560d01b6020830152565b604051906142bd6040836102c2565b60048252636172677360e01b6020830152565b604051906142df6040836102c2565b600f82526e39b2b1b932ba39a637b1b0ba34b7b760891b6020830152565b6040519061430c6040836102c2565b60078252667365637265747360c81b6020830152565b604051906143316040836102c2565b600982526862797465734172677360b81b6020830152565b614351614d1f565b9061436361435d61420d565b83614d4f565b61438081516143718161424b565b61437a8161424b565b83614e38565b61438b61435d61425a565b6143a5604082015161439c81614280565b61437a81614280565b6143b061435d61428a565b6143be606082015183614d4f565b60a081018051516144ba575b50608081019081515161443d575b60c09150018051516143eb575b50515190565b916143f761435d614322565b61440082614e65565b5f5b8351805182101561442a579061442461441d826001946125fd565b5185614ea9565b01614402565b5050915061443781614e87565b5f6143e5565b60208101805161444c8161424b565b6144558161424b565b156144ab5760c09261448e6144a69261447561446f6142d0565b88614d4f565b5161447f8161424b565b6144888161424b565b86614e38565b61449f6144996142fd565b86614d4f565b5184614ea9565b6143d8565b63a80d31f760e01b5f5260045ffd5b926144cc6144c66142ae565b84614d4f565b6144d583614e65565b5f5b845180518210156144ff57906144f96144f2826001946125fd565b5186614d4f565b016144d7565b5050925061450c82614e87565b5f6143ca565b916020916001600160401b039161454b604051958694859463230e93b160e11b865216600485015260a0602485015260a48401906104f6565b60016044840152620493e06064840152608483019190915203815f7f00000000000000000000000000000000000000000000000000000000000000006001600160a01b03165af19081156145f8575f916145c9575b50807f1131472297a800fee664d1d89cfa8f7676ff07189ecc53f80bbb5f4969099db85f80a290565b6145eb915060203d6020116145f1575b6145e381836102c2565b81019061258e565b5f6145a0565b503d6145d9565b613d54565b9493906001600160401b0390969392961661461790612735565b956001600160401b031661462a90612735565b916001600160401b031661463d90612735565b906001600160401b031661465090612735565b9160405196879660208801614684907f3c7465787420783d222d33302220793d22393222202066696c6c3d22000000009052565b614691603c890187611c7c565b5f5160206154295f395f51905f5281527f6e6f7370616365223e4c414e452020203a3c2f746578743e000000000000000060208201526038017f3c7465787420783d223132302220793d22393222202066696c6c3d222365636681525f5160206154095f395f51905f5260208201525f5160206153e95f395f51905f526040820152605e0161471f91611c7c565b661e17ba32bc3a1f60c91b81527f3c7465787420783d222d33302220793d22313136222066696c6c3d2200000000600782015260230161475f9086611c7c565b5f5160206154295f395f51905f5281527f6e6f7370616365223e47414d455320203a3c2f746578743e000000000000000060208201526038017f3c7465787420783d223132302220793d22313136222066696c6c3d222365636681525f5160206154095f395f51905f5260208201525f5160206153e95f395f51905f526040820152605e016147ed91611c7c565b661e17ba32bc3a1f60c91b81527f3c7465787420783d222d33302220793d22313430222066696c6c3d2200000000600782015260230161482d9085611c7c565b5f5160206154295f395f51905f5281527f6e6f7370616365223e4b494c4c5320203a3c2f746578743e000000000000000060208201526038017f3c7465787420783d223132302220793d22313430222066696c6c3d222365636681525f5160206154095f395f51905f5260208201525f5160206153e95f395f51905f526040820152605e016148bb91611c7c565b661e17ba32bc3a1f60c91b81527f3c7465787420783d222d33302220793d22313634222066696c6c3d220000000060078201526023016148fb9084611c7c565b5f5160206154295f395f51905f5281527f6e6f7370616365223e444541544853203a3c2f746578743e000000000000000060208201526038017f3c7465787420783d223132302220793d22313634222066696c6c3d222365636681525f5160206154095f395f51905f5260208201525f5160206153e95f395f51905f526040820152605e0161498991611c7c565b661e17ba32bc3a1f60c91b81527f3c7465787420783d222d33302220793d22313838222066696c6c3d220000000060078201526023016149c99083611c7c565b5f5160206154295f395f51905f5281527f6e6f7370616365223e415353495354533a3c2f746578743e000000000000000060208201526038017f3c7465787420783d223132302220793d22313838222066696c6c3d222365636681525f5160206154095f395f51905f5260208201525f5160206153e95f395f51905f526040820152605e01614a5791611c7c565b661e17ba32bc3a1f60c91b81527f3c7465787420783d222d33302220793d22323132222066696c6c3d22000000006007820152602301614a9691611c7c565b5f5160206154295f395f51905f5281527f6e6f7370616365223e4b4441202020203a3c2f746578743e000000000000000060208201526038017f3c7465787420783d223132302220793d22323132222066696c6c3d222365636681525f5160206154095f395f51905f5260208201525f5160206153e95f395f51905f526040820152605e01614b2491611c7c565b661e17ba32bc3a1f60c91b81527f3c6c696e652078313d222d3330222079313d22323238222078323d223132302260078201527f2079323d2232323822207374726f6b653d222335353522207374726f6b652d7760278201527f696474683d223322207374726f6b652d6461736861727261793d22382c36222f6047820152601f60f91b606782015260680103601f198101825261052b90826102c2565b90815115614cd757614be6614be1614bda8451611bf1565b6003900490565b611c30565b90604051917f4142434445464748494a4b4c4d4e4f505152535455565758595a616263646566601f527f6768696a6b6c6d6e6f707172737475767778797a303132333435363738392b2f603f52602083018480518101602081018051915f82525b808910614c9b5750602095969750906003929152510680600114614c8657600214614c79575b50808452830101604052565b603d905f1901535f614c6d565b50603d90815f1982015360011901535f614c6d565b939760036004910198603f8a51818160121c165183538181600c1c16516001840153818160061c16516002840153165160038201530193614c47565b905061052b611b4c565b815115614cf7575f808252604082015260600152565b6322ce3edd60e01b5f5260045ffd5b60405190614d13826102a7565b5f602083606081520152565b604051614d2b816102a7565b5f614d34614d06565b808352614d4a6101006020850192848452614f42565b505290565b8151614da09291906001600160401b031660178111614da3578151614d8b91614d8590614d7e60605b60ff1690565b1760ff1690565b906150c2565b505b5190614d97614d06565b5080519161532c565b50565b60ff8111614dd0578151614dca9190614dc290601860605b17906150c2565b5082516152ac565b50614d8d565b61ffff8111614df5578151614dca9190614ded9060196060614dbb565b508251615233565b63ffffffff8111614e1c578151614dca9190614e1490601a6060614dbb565b5082516151ba565b8151614dca9190614e3090601b6060614dbb565b50825161513c565b90610bb591614e478151615052565b5060405191602083015260208252614e606040836102c2565b614ea9565b602090614e74609f82516150c2565b500180519060018201809211610f7f5752565b602090614e9660ff82516150c2565b500180515f19810191908211610f7f5752565b8151614da09291906001600160401b031660178111614ed6578151614d8b91614d8590614d7e6040614d78565b60ff8111614ef2578151614dca9190614dc29060186040614dbb565b61ffff8111614f0f578151614dca9190614ded9060196040614dbb565b63ffffffff8111614f2e578151614dca9190614e1490601a6040614dbb565b8151614dca9190614e3090601b6040614dbb565b90614f4b614d06565b50601f811680614f79575b50806020830152604051908183525f825281016020019081106103425760405290565b60200360208111610f7f578101809111610f7f575f614f56565b90614f9c614d06565b508051614fa7614d06565b50614fb58251821115615325565b82515191614fc38284611c0d565b906020850151821161503b575b602091855183815196820101958211615033575b505001905b602081101561500d575f19906020036101000a019081199051169082511617905290565b909161502861502261502e9285518152611bff565b93611bff565b91611b74565b614fe9565b525f80614fe4565b61504d61504783611c48565b866153d1565b614fd0565b61505a614d06565b508051516001810190818111610f7f576020830151811015615093575b60c26020845192830101538051821161508f57505090565b5290565b8160011b82810460021483151715610f7f576150bc906150b585519186614f42565b5084614f93565b50615077565b906150cb614d06565b508151516001810191828211610f7f5760208401518210156150fe575b6020845192830101538051821161508f57505090565b8260011b83810460021484151715610f7f576151279061512086519187614f42565b5085614f93565b506150e8565b601f8111610f7f576101000a90565b90615145614d06565b50815151806008019182600811610f7f5760208401518311615192575b61517461516f600861512d565b611b83565b90600885519384010191198251161790528051821161508f57505090565b8260011b83810460021484151715610f7f576151b49061512086519187614f42565b50615162565b906151c3614d06565b50815151806004019182600411610f7f576020840151831161520b575b6151ed61516f600461512d565b90600485519384010191198251161790528051821161508f57505090565b8260011b83810460021484151715610f7f5761522d9061512086519187614f42565b506151e0565b9061523c614d06565b50815151806002019182600211610f7f5760208401518311615284575b61526661516f600261512d565b90600285519384010191198251161790528051821161508f57505090565b8260011b83810460021484151715610f7f576152a69061512086519187614f42565b50615259565b906152b5614d06565b50815151806001019182600111610f7f57602084015183116152fd575b6152df61516f600161512d565b90600185519384010191198251161790528051821161508f57505090565b8260011b83810460021484151715610f7f5761531f9061512086519187614f42565b506152d2565b1561034257565b91615335614d06565b506153438251821115615325565b6020835151926153538385611c0d565b8286015181116153ba575b8551838151968201019582116153b2575b505001905b6020811015615398575f19906020036101000a019081199051169082511617905290565b90916150286150226153ad9285518152611bff565b615374565b525f8061536f565b6153cc6153c682611c48565b876153d1565b61535e565b90614da0916153e281519282614f42565b50614f9356fe22656e642220666f6e742d66616d696c793d226d6f6e6f7370616365223e00003066312220666f6e742d73697a653d2231332220746578742d616e63686f723d2220666f6e742d73697a653d2231332220666f6e742d66616d696c793d226d6fa2646970667358221220830d018244116dca73e6a567bbcb9ad0e08826cec68efdba26cd44bf69b1d0fd64736f6c63430008220033",
			"opcodes": "PUSH1 0xA0 PUSH1 0x40 MSTORE CALLVALUE PUSH2 0x42C JUMPI PUSH2 0x58D4 PUSH1 0x20 DUP2 CODESIZE SUB SWAP2 DUP3 PUSH2 0x1C DUP2 PUSH2 0x430 JUMP JUMPDEST SWAP4 DUP5 SWAP3 DUP4 CODECOPY DUP2 ADD SUB SLT PUSH2 0x42C JUMPI MLOAD PUSH1 0x1 PUSH1 0x1 PUSH1 0x40 SHL SUB DUP2 AND SWAP1 DUP2 SWAP1 SUB PUSH2 0x42C JUMPI PUSH1 0x9 SLOAD PUSH1 0x1 PUSH1 0x1 PUSH1 0xA0 SHL SUB AND SWAP1 PUSH2 0x53 PUSH1 0x40 PUSH2 0x430 JUMP JUMPDEST SWAP2 PUSH1 0xF DUP4 MSTORE PUSH15 0x13541308141B185E595C8810D85C99 PUSH1 0x8A SHL PUSH1 0x20 DUP5 ADD MSTORE PUSH2 0x7A PUSH1 0x40 PUSH2 0x430 JUMP JUMPDEST PUSH1 0x5 DUP2 MSTORE PUSH5 0x4D504C5043 PUSH1 0xD8 SHL PUSH1 0x20 DUP3 ADD MSTORE DUP4 MLOAD SWAP1 SWAP3 SWAP1 PUSH1 0x1 PUSH1 0x1 PUSH1 0x40 SHL SUB DUP2 GT PUSH2 0x335 JUMPI PUSH0 SLOAD PUSH1 0x1 DUP2 DUP2 SHR SWAP2 AND DUP1 ISZERO PUSH2 0x422 JUMPI JUMPDEST PUSH1 0x20 DUP3 LT EQ PUSH2 0x317 JUMPI PUSH1 0x1F DUP2 GT PUSH2 0x3B5 JUMPI JUMPDEST POP PUSH1 0x20 SWAP5 PUSH1 0x1F DUP3 GT PUSH1 0x1 EQ PUSH2 0x354 JUMPI SWAP5 DUP2 SWAP3 SWAP4 SWAP5 SWAP6 PUSH0 SWAP3 PUSH2 0x349 JUMPI JUMPDEST POP POP DUP2 PUSH1 0x1 SHL SWAP2 PUSH0 NOT SWAP1 PUSH1 0x3 SHL SHR NOT AND OR PUSH0 SSTORE JUMPDEST DUP3 MLOAD PUSH1 0x1 PUSH1 0x1 PUSH1 0x40 SHL SUB DUP2 GT PUSH2 0x335 JUMPI PUSH1 0x1 SLOAD PUSH1 0x1 DUP2 DUP2 SHR SWAP2 AND DUP1 ISZERO PUSH2 0x32B JUMPI JUMPDEST PUSH1 0x20 DUP3 LT EQ PUSH2 0x317 JUMPI PUSH1 0x1F DUP2 GT PUSH2 0x2A9 JUMPI JUMPDEST POP PUSH1 0x20 PUSH1 0x1F DUP3 GT PUSH1 0x1 EQ PUSH2 0x246 JUMPI DUP2 SWAP3 SWAP4 SWAP5 PUSH0 SWAP3 PUSH2 0x23B JUMPI JUMPDEST POP POP DUP2 PUSH1 0x1 SHL SWAP2 PUSH0 NOT SWAP1 PUSH1 0x3 SHL SHR NOT AND OR PUSH1 0x1 SSTORE JUMPDEST CALLER ISZERO PUSH2 0x228 JUMPI PUSH1 0x7 DUP1 SLOAD CALLER PUSH1 0x1 PUSH1 0x1 PUSH1 0xA0 SHL SUB NOT DUP3 AND DUP2 OR SWAP1 SWAP3 SSTORE PUSH1 0x40 MLOAD SWAP4 SWAP2 SWAP1 PUSH1 0x1 PUSH1 0x1 PUSH1 0xA0 SHL SUB AND PUSH32 0x8BE0079C531659141344CD1FD0A4F28419497F9722A3DAAFE3B4186F6B6457E0 PUSH0 DUP1 LOG3 PUSH1 0x80 MSTORE PUSH1 0x9 DUP1 SLOAD PUSH1 0x1 PUSH1 0x1 PUSH1 0xA0 SHL SUB NOT AND PUSH20 0xB83E47C2BC239B3BF370BC41E1459A34B41238D0 OR SWAP1 SSTORE PUSH32 0x66756E2D657468657265756D2D7365706F6C69612D3100000000000000000000 PUSH1 0xA SSTORE PUSH3 0x15180 PUSH1 0xE SSTORE PUSH1 0xB DUP1 SLOAD PUSH1 0x1 PUSH1 0x1 PUSH1 0x40 SHL SUB NOT AND SWAP2 SWAP1 SWAP2 OR SWAP1 SSTORE TIMESTAMP PUSH1 0xD SSTORE PUSH2 0x547E SWAP1 DUP2 PUSH2 0x456 DUP3 CODECOPY PUSH1 0x80 MLOAD DUP2 DUP2 DUP2 PUSH2 0x7EE ADD MSTORE PUSH2 0x4568 ADD MSTORE RETURN JUMPDEST PUSH4 0x1E4FBDF7 PUSH1 0xE0 SHL PUSH0 MSTORE PUSH0 PUSH1 0x4 MSTORE PUSH1 0x24 PUSH0 REVERT JUMPDEST ADD MLOAD SWAP1 POP PUSH0 DUP1 PUSH2 0x13D JUMP JUMPDEST PUSH1 0x1F NOT DUP3 AND SWAP1 PUSH1 0x1 PUSH0 MSTORE DUP1 PUSH0 KECCAK256 SWAP2 PUSH0 JUMPDEST DUP2 DUP2 LT PUSH2 0x291 JUMPI POP SWAP6 DUP4 PUSH1 0x1 SWAP6 SWAP7 SWAP8 LT PUSH2 0x279 JUMPI JUMPDEST POP POP POP DUP2 SHL ADD PUSH1 0x1 SSTORE PUSH2 0x152 JUMP JUMPDEST ADD MLOAD PUSH0 NOT PUSH1 0xF8 DUP5 PUSH1 0x3 SHL AND SHR NOT AND SWAP1 SSTORE PUSH0 DUP1 DUP1 PUSH2 0x26B JUMP JUMPDEST SWAP2 SWAP3 PUSH1 0x20 PUSH1 0x1 DUP2 SWAP3 DUP7 DUP12 ADD MLOAD DUP2 SSTORE ADD SWAP5 ADD SWAP3 ADD PUSH2 0x256 JUMP JUMPDEST DUP2 DUP2 GT ISZERO PUSH2 0x124 JUMPI PUSH1 0x1 PUSH0 MSTORE PUSH1 0x1F DUP3 ADD PUSH1 0x5 SHR PUSH32 0xB10E2D527612073B26EECDFD717E6A320CF44B4AFAC2B0732D9FCBE2B7FA0CF6 PUSH1 0x20 DUP5 LT PUSH2 0x30F JUMPI JUMPDEST DUP2 PUSH1 0x1F SWAP2 ADD SWAP3 ADD PUSH1 0x5 SHR SUB SWAP1 PUSH0 JUMPDEST DUP3 DUP2 LT PUSH2 0x302 JUMPI POP POP PUSH2 0x124 JUMP JUMPDEST PUSH0 DUP3 DUP3 ADD SSTORE PUSH1 0x1 ADD PUSH2 0x2F4 JUMP JUMPDEST PUSH0 SWAP2 POP PUSH2 0x2E6 JUMP JUMPDEST PUSH4 0x4E487B71 PUSH1 0xE0 SHL PUSH0 MSTORE PUSH1 0x22 PUSH1 0x4 MSTORE PUSH1 0x24 PUSH0 REVERT JUMPDEST SWAP1 PUSH1 0x7F AND SWAP1 PUSH2 0x112 JUMP JUMPDEST PUSH4 0x4E487B71 PUSH1 0xE0 SHL PUSH0 MSTORE PUSH1 0x41 PUSH1 0x4 MSTORE PUSH1 0x24 PUSH0 REVERT JUMPDEST ADD MLOAD SWAP1 POP PUSH0 DUP1 PUSH2 0xDD JUMP JUMPDEST PUSH1 0x1F NOT DUP3 AND SWAP6 PUSH0 DUP1 MSTORE DUP1 PUSH0 KECCAK256 SWAP2 PUSH0 JUMPDEST DUP9 DUP2 LT PUSH2 0x39D JUMPI POP DUP4 PUSH1 0x1 SWAP6 SWAP7 SWAP8 SWAP9 LT PUSH2 0x385 JUMPI JUMPDEST POP POP POP DUP2 SHL ADD PUSH0 SSTORE PUSH2 0xF1 JUMP JUMPDEST ADD MLOAD PUSH0 NOT PUSH1 0xF8 DUP5 PUSH1 0x3 SHL AND SHR NOT AND SWAP1 SSTORE PUSH0 DUP1 DUP1 PUSH2 0x378 JUMP JUMPDEST SWAP2 SWAP3 PUSH1 0x20 PUSH1 0x1 DUP2 SWAP3 DUP7 DUP6 ADD MLOAD DUP2 SSTORE ADD SWAP5 ADD SWAP3 ADD PUSH2 0x363 JUMP JUMPDEST DUP2 DUP2 GT ISZERO PUSH2 0xC1 JUMPI PUSH0 DUP1 MSTORE PUSH1 0x1F DUP3 ADD PUSH1 0x5 SHR PUSH32 0x290DECD9548B62A8D60345A988386FC84BA6BC95484008F6362F93160EF3E563 PUSH1 0x20 DUP5 LT PUSH2 0x41A JUMPI JUMPDEST DUP2 PUSH1 0x1F SWAP2 ADD SWAP3 ADD PUSH1 0x5 SHR SUB SWAP1 PUSH0 JUMPDEST DUP3 DUP2 LT PUSH2 0x40D JUMPI POP POP PUSH2 0xC1 JUMP JUMPDEST PUSH0 DUP3 DUP3 ADD SSTORE PUSH1 0x1 ADD PUSH2 0x3FF JUMP JUMPDEST PUSH0 SWAP2 POP PUSH2 0x3F1 JUMP JUMPDEST SWAP1 PUSH1 0x7F AND SWAP1 PUSH2 0xAF JUMP JUMPDEST PUSH0 DUP1 REVERT JUMPDEST PUSH1 0x40 MLOAD SWAP2 SWAP1 PUSH1 0x1F ADD PUSH1 0x1F NOT AND DUP3 ADD PUSH1 0x1 PUSH1 0x1 PUSH1 0x40 SHL SUB DUP2 GT DUP4 DUP3 LT OR PUSH2 0x335 JUMPI PUSH1 0x40 MSTORE JUMP INVALID PUSH1 0x80 PUSH1 0x40 MSTORE PUSH1 0x4 CALLDATASIZE LT ISZERO PUSH2 0x11 JUMPI PUSH0 DUP1 REVERT JUMPDEST PUSH0 CALLDATALOAD PUSH1 0xE0 SHR DUP1 PUSH3 0xB46767 EQ PUSH2 0x253 JUMPI DUP1 PUSH4 0x1FFC9A7 EQ PUSH2 0x24E JUMPI DUP1 PUSH4 0x6FDDE03 EQ PUSH2 0x249 JUMPI DUP1 PUSH4 0x81812FC EQ PUSH2 0x244 JUMPI DUP1 PUSH4 0x95EA7B3 EQ PUSH2 0x23F JUMPI DUP1 PUSH4 0x9C1BA2E EQ PUSH2 0x23A JUMPI DUP1 PUSH4 0xCA76175 EQ PUSH2 0x235 JUMPI DUP1 PUSH4 0x13C60177 EQ PUSH2 0x230 JUMPI DUP1 PUSH4 0x18160DDD EQ PUSH2 0x22B JUMPI DUP1 PUSH4 0x20457FB6 EQ PUSH2 0x226 JUMPI DUP1 PUSH4 0x22E817E2 EQ PUSH2 0x221 JUMPI DUP1 PUSH4 0x23B872DD EQ PUSH2 0x21C JUMPI DUP1 PUSH4 0x2839B78F EQ PUSH2 0x217 JUMPI DUP1 PUSH4 0x3F3B3B27 EQ PUSH2 0x212 JUMPI DUP1 PUSH4 0x42842E0E EQ PUSH2 0x20D JUMPI DUP1 PUSH4 0x4585E33B EQ PUSH2 0x208 JUMPI DUP1 PUSH4 0x5C2ADF6A EQ PUSH2 0x203 JUMPI DUP1 PUSH4 0x6352211E EQ PUSH2 0x1FE JUMPI DUP1 PUSH4 0x68015A4B EQ PUSH2 0x1F9 JUMPI DUP1 PUSH4 0x6DCEE4CA EQ PUSH2 0x1F4 JUMPI DUP1 PUSH4 0x6E04FF0D EQ PUSH2 0x1EF JUMPI DUP1 PUSH4 0x70A08231 EQ PUSH2 0x1EA JUMPI DUP1 PUSH4 0x715018A6 EQ PUSH2 0x1E5 JUMPI DUP1 PUSH4 0x8DA5CB5B EQ PUSH2 0x1E0 JUMPI DUP1 PUSH4 0x947A36FB EQ PUSH2 0x1DB JUMPI DUP1 PUSH4 0x94881476 EQ PUSH2 0x1D6 JUMPI DUP1 PUSH4 0x95D89B41 EQ PUSH2 0x1D1 JUMPI DUP1 PUSH4 0xA22CB465 EQ PUSH2 0x1CC JUMPI DUP1 PUSH4 0xB4CFAE44 EQ PUSH2 0x1C7 JUMPI DUP1 PUSH4 0xB88D4FDE EQ PUSH2 0x1C2 JUMPI DUP1 PUSH4 0xC26B265F EQ PUSH2 0x1BD JUMPI DUP1 PUSH4 0xC87B56DD EQ PUSH2 0x1B8 JUMPI DUP1 PUSH4 0xE049D709 EQ PUSH2 0x1B3 JUMPI DUP1 PUSH4 0xE985E9C5 EQ PUSH2 0x1AE JUMPI DUP1 PUSH4 0xECA81D42 EQ PUSH2 0x1A9 JUMPI PUSH4 0xF2FDE38B EQ PUSH2 0x1A4 JUMPI PUSH0 DUP1 REVERT JUMPDEST PUSH2 0x17ED JUMP JUMPDEST PUSH2 0x172D JUMP JUMPDEST PUSH2 0x16D1 JUMP JUMPDEST PUSH2 0x16B5 JUMP JUMPDEST PUSH2 0x156A JUMP JUMPDEST PUSH2 0x152C JUMP JUMPDEST PUSH2 0x14D8 JUMP JUMPDEST PUSH2 0x143B JUMP JUMPDEST PUSH2 0x136D JUMP JUMPDEST PUSH2 0x12C8 JUMP JUMPDEST PUSH2 0x12AB JUMP JUMPDEST PUSH2 0x128E JUMP JUMPDEST PUSH2 0x1266 JUMP JUMPDEST PUSH2 0x120B JUMP JUMPDEST PUSH2 0x11BA JUMP JUMPDEST PUSH2 0x1157 JUMP JUMPDEST PUSH2 0x1138 JUMP JUMPDEST PUSH2 0x110E JUMP JUMPDEST PUSH2 0x10DE JUMP JUMPDEST PUSH2 0xFEF JUMP JUMPDEST PUSH2 0xF35 JUMP JUMPDEST PUSH2 0xEB1 JUMP JUMPDEST PUSH2 0xE94 JUMP JUMPDEST PUSH2 0xE4E JUMP JUMPDEST PUSH2 0xE37 JUMP JUMPDEST PUSH2 0xD4E JUMP JUMPDEST PUSH2 0xD1F JUMP JUMPDEST PUSH2 0xD02 JUMP JUMPDEST PUSH2 0xCD3 JUMP JUMPDEST PUSH2 0x79A JUMP JUMPDEST PUSH2 0x774 JUMP JUMPDEST PUSH2 0x66D JUMP JUMPDEST PUSH2 0x605 JUMP JUMPDEST PUSH2 0x52E JUMP JUMPDEST PUSH2 0x46D JUMP JUMPDEST PUSH2 0x346 JUMP JUMPDEST PUSH4 0x4E487B71 PUSH1 0xE0 SHL PUSH0 MSTORE PUSH1 0x41 PUSH1 0x4 MSTORE PUSH1 0x24 PUSH0 REVERT JUMPDEST PUSH1 0xC0 DUP2 ADD SWAP1 DUP2 LT PUSH1 0x1 PUSH1 0x1 PUSH1 0x40 SHL SUB DUP3 GT OR PUSH2 0x287 JUMPI PUSH1 0x40 MSTORE JUMP JUMPDEST PUSH2 0x258 JUMP JUMPDEST PUSH1 0xE0 DUP2 ADD SWAP1 DUP2 LT PUSH1 0x1 PUSH1 0x1 PUSH1 0x40 SHL SUB DUP3 GT OR PUSH2 0x287 JUMPI PUSH1 0x40 MSTORE JUMP JUMPDEST PUSH1 0x40 DUP2 ADD SWAP1 DUP2 LT PUSH1 0x1 PUSH1 0x1 PUSH1 0x40 SHL SUB DUP3 GT OR PUSH2 0x287 JUMPI PUSH1 0x40 MSTORE JUMP JUMPDEST SWAP1 PUSH1 0x1F DUP1 NOT SWAP2 ADD AND DUP2 ADD SWAP1 DUP2 LT PUSH1 0x1 PUSH1 0x1 PUSH1 0x40 SHL SUB DUP3 GT OR PUSH2 0x287 JUMPI PUSH1 0x40 MSTORE JUMP JUMPDEST PUSH1 0x1 PUSH1 0x1 PUSH1 0x40 SHL SUB DUP2 GT PUSH2 0x287 JUMPI PUSH1 0x1F ADD PUSH1 0x1F NOT AND PUSH1 0x20 ADD SWAP1 JUMP JUMPDEST DUP2 PUSH1 0x1F DUP3 ADD SLT ISZERO PUSH2 0x342 JUMPI PUSH1 0x20 DUP2 CALLDATALOAD SWAP2 ADD PUSH2 0x318 DUP3 PUSH2 0x2E3 JUMP JUMPDEST SWAP3 PUSH2 0x326 PUSH1 0x40 MLOAD SWAP5 DUP6 PUSH2 0x2C2 JUMP JUMPDEST DUP3 DUP5 MSTORE DUP3 DUP3 ADD GT PUSH2 0x342 JUMPI DUP2 PUSH0 SWAP3 PUSH1 0x20 SWAP3 DUP4 DUP7 ADD CALLDATACOPY DUP4 ADD ADD MSTORE SWAP1 JUMP JUMPDEST PUSH0 DUP1 REVERT JUMPDEST CALLVALUE PUSH2 0x342 JUMPI PUSH1 0x20 CALLDATASIZE PUSH1 0x3 NOT ADD SLT PUSH2 0x342 JUMPI PUSH1 0x4 CALLDATALOAD PUSH1 0x1 PUSH1 0x1 PUSH1 0x40 SHL SUB DUP2 GT PUSH2 0x342 JUMPI PUSH2 0x376 SWAP1 CALLDATASIZE SWAP1 PUSH1 0x4 ADD PUSH2 0x2FE JUMP JUMPDEST PUSH2 0x37E PUSH2 0x2533 JUMP JUMPDEST DUP1 MLOAD PUSH1 0x1 PUSH1 0x1 PUSH1 0x40 SHL SUB DUP2 GT PUSH2 0x287 JUMPI PUSH2 0x3A2 DUP2 PUSH2 0x39D PUSH1 0xC SLOAD PUSH2 0xB46 JUMP JUMPDEST PUSH2 0x1873 JUMP JUMPDEST PUSH1 0x20 SWAP2 PUSH1 0x1F DUP3 GT PUSH1 0x1 EQ PUSH2 0x3E0 JUMPI PUSH2 0x3D0 SWAP3 PUSH0 SWAP2 DUP4 PUSH2 0x3D5 JUMPI JUMPDEST POP POP DUP2 PUSH1 0x1 SHL SWAP2 PUSH0 NOT SWAP1 PUSH1 0x3 SHL SHR NOT AND OR SWAP1 JUMP JUMPDEST PUSH1 0xC SSTORE STOP JUMPDEST ADD MLOAD SWAP1 POP PUSH0 DUP1 PUSH2 0x3BC JUMP JUMPDEST PUSH1 0xC PUSH0 MSTORE PUSH1 0x1F NOT DUP3 AND SWAP3 PUSH32 0xDF6966C971051C3D54EC59162606531493A51404A002842F56009D7E5CF4A8C7 SWAP2 PUSH0 JUMPDEST DUP6 DUP2 LT PUSH2 0x443 JUMPI POP DUP4 PUSH1 0x1 SWAP6 LT PUSH2 0x42B JUMPI JUMPDEST POP POP POP DUP2 SHL ADD PUSH1 0xC SSTORE STOP JUMPDEST ADD MLOAD PUSH0 NOT PUSH1 0xF8 DUP5 PUSH1 0x3 SHL AND SHR NOT AND SWAP1 SSTORE PUSH0 DUP1 DUP1 PUSH2 0x420 JUMP JUMPDEST SWAP2 SWAP3 PUSH1 0x20 PUSH1 0x1 DUP2 SWAP3 DUP7 DUP6 ADD MLOAD DUP2 SSTORE ADD SWAP5 ADD SWAP3 ADD PUSH2 0x40E JUMP JUMPDEST PUSH1 0x1 PUSH1 0x1 PUSH1 0xE0 SHL SUB NOT DUP2 AND SUB PUSH2 0x342 JUMPI JUMP JUMPDEST CALLVALUE PUSH2 0x342 JUMPI PUSH1 0x20 CALLDATASIZE PUSH1 0x3 NOT ADD SLT PUSH2 0x342 JUMPI PUSH1 0x4 CALLDATALOAD PUSH2 0x48A DUP2 PUSH2 0x45B JUMP JUMPDEST PUSH4 0xFFFFFFFF PUSH1 0xE0 SHL AND PUSH4 0x24832483 PUSH1 0xE1 SHL DUP2 EQ SWAP1 DUP2 ISZERO PUSH2 0x4B3 JUMPI JUMPDEST POP PUSH1 0x40 MLOAD SWAP1 ISZERO ISZERO DUP2 MSTORE PUSH1 0x20 SWAP1 RETURN JUMPDEST PUSH4 0x80AC58CD PUSH1 0xE0 SHL DUP2 EQ SWAP2 POP DUP2 ISZERO PUSH2 0x4E5 JUMPI JUMPDEST DUP2 ISZERO PUSH2 0x4D4 JUMPI JUMPDEST POP PUSH0 PUSH2 0x4A5 JUMP JUMPDEST PUSH4 0x1FFC9A7 PUSH1 0xE0 SHL EQ SWAP1 POP PUSH0 PUSH2 0x4CD JUMP JUMPDEST PUSH4 0x5B5E139F PUSH1 0xE0 SHL DUP2 EQ SWAP2 POP PUSH2 0x4C6 JUMP JUMPDEST DUP1 MLOAD DUP1 DUP4 MSTORE PUSH1 0x20 SWAP3 SWAP2 DUP2 SWAP1 DUP5 ADD DUP5 DUP5 ADD MCOPY PUSH0 DUP3 DUP3 ADD DUP5 ADD MSTORE PUSH1 0x1F ADD PUSH1 0x1F NOT AND ADD ADD SWAP1 JUMP JUMPDEST SWAP1 PUSH1 0x20 PUSH2 0x52B SWAP3 DUP2 DUP2 MSTORE ADD SWAP1 PUSH2 0x4F6 JUMP JUMPDEST SWAP1 JUMP JUMPDEST CALLVALUE PUSH2 0x342 JUMPI PUSH0 CALLDATASIZE PUSH1 0x3 NOT ADD SLT PUSH2 0x342 JUMPI PUSH1 0x40 MLOAD PUSH0 PUSH0 SLOAD PUSH2 0x54D DUP2 PUSH2 0xB46 JUMP JUMPDEST DUP1 DUP5 MSTORE SWAP1 PUSH1 0x1 DUP2 AND SWAP1 DUP2 ISZERO PUSH2 0x5E1 JUMPI POP PUSH1 0x1 EQ PUSH2 0x585 JUMPI JUMPDEST PUSH2 0x581 DUP4 PUSH2 0x575 DUP2 DUP6 SUB DUP3 PUSH2 0x2C2 JUMP JUMPDEST PUSH1 0x40 MLOAD SWAP2 DUP3 SWAP2 DUP3 PUSH2 0x51A JUMP JUMPDEST SUB SWAP1 RETURN JUMPDEST PUSH0 DUP1 DUP1 MSTORE PUSH32 0x290DECD9548B62A8D60345A988386FC84BA6BC95484008F6362F93160EF3E563 SWAP4 SWAP3 POP SWAP1 JUMPDEST DUP1 DUP3 LT PUSH2 0x5C7 JUMPI POP SWAP1 SWAP2 POP DUP2 ADD PUSH1 0x20 ADD PUSH2 0x575 PUSH2 0x565 JUMP JUMPDEST SWAP2 SWAP3 PUSH1 0x1 DUP2 PUSH1 0x20 SWAP3 SLOAD DUP4 DUP6 DUP9 ADD ADD MSTORE ADD SWAP2 ADD SWAP1 SWAP3 SWAP2 PUSH2 0x5AF JUMP JUMPDEST PUSH1 0xFF NOT AND PUSH1 0x20 DUP1 DUP7 ADD SWAP2 SWAP1 SWAP2 MSTORE SWAP2 ISZERO ISZERO PUSH1 0x5 SHL DUP5 ADD SWAP1 SWAP2 ADD SWAP2 POP PUSH2 0x575 SWAP1 POP PUSH2 0x565 JUMP JUMPDEST CALLVALUE PUSH2 0x342 JUMPI PUSH1 0x20 CALLDATASIZE PUSH1 0x3 NOT ADD SLT PUSH2 0x342 JUMPI PUSH1 0x4 CALLDATALOAD PUSH2 0x622 DUP2 PUSH2 0x255A JUMP JUMPDEST POP PUSH0 MSTORE PUSH1 0x4 PUSH1 0x20 MSTORE PUSH1 0x20 PUSH1 0x1 DUP1 PUSH1 0xA0 SHL SUB PUSH1 0x40 PUSH0 KECCAK256 SLOAD AND PUSH1 0x40 MLOAD SWAP1 DUP2 MSTORE RETURN JUMPDEST PUSH1 0x4 CALLDATALOAD SWAP1 PUSH1 0x1 PUSH1 0x1 PUSH1 0xA0 SHL SUB DUP3 AND DUP3 SUB PUSH2 0x342 JUMPI JUMP JUMPDEST PUSH1 0x24 CALLDATALOAD SWAP1 PUSH1 0x1 PUSH1 0x1 PUSH1 0xA0 SHL SUB DUP3 AND DUP3 SUB PUSH2 0x342 JUMPI JUMP JUMPDEST CALLVALUE PUSH2 0x342 JUMPI PUSH1 0x40 CALLDATASIZE PUSH1 0x3 NOT ADD SLT PUSH2 0x342 JUMPI PUSH2 0x686 PUSH2 0x641 JUMP JUMPDEST PUSH1 0x24 CALLDATALOAD SWAP1 PUSH2 0x693 DUP3 PUSH2 0x255A JUMP JUMPDEST CALLER ISZERO ISZERO DUP1 PUSH2 0x761 JUMPI JUMPDEST DUP1 PUSH2 0x723 JUMPI JUMPDEST PUSH2 0x710 JUMPI PUSH2 0x70E SWAP3 PUSH2 0x6EF SWAP2 DUP2 SWAP1 PUSH1 0x1 PUSH1 0x1 PUSH1 0xA0 SHL SUB DUP6 DUP2 AND SWAP2 AND PUSH32 0x8C5BE1E5EBEC7D5BD14F71427D1E84F3DD0314C0F7B2291E5B200AC8C7C3B925 PUSH0 DUP1 LOG4 PUSH0 MSTORE PUSH1 0x4 PUSH1 0x20 MSTORE PUSH1 0x40 PUSH0 KECCAK256 SWAP1 JUMP JUMPDEST DUP1 SLOAD PUSH1 0x1 PUSH1 0x1 PUSH1 0xA0 SHL SUB NOT AND PUSH1 0x1 PUSH1 0x1 PUSH1 0xA0 SHL SUB SWAP1 SWAP3 AND SWAP2 SWAP1 SWAP2 OR SWAP1 SSTORE JUMP JUMPDEST STOP JUMPDEST PUSH4 0xA9FBF51F PUSH1 0xE0 SHL PUSH0 MSTORE CALLER PUSH1 0x4 MSTORE PUSH1 0x24 PUSH0 REVERT JUMPDEST POP PUSH1 0xFF PUSH2 0x759 CALLER PUSH2 0x744 DUP5 PUSH1 0x1 DUP1 PUSH1 0xA0 SHL SUB AND PUSH0 MSTORE PUSH1 0x5 PUSH1 0x20 MSTORE PUSH1 0x40 PUSH0 KECCAK256 SWAP1 JUMP JUMPDEST SWAP1 PUSH1 0x1 DUP1 PUSH1 0xA0 SHL SUB AND PUSH0 MSTORE PUSH1 0x20 MSTORE PUSH1 0x40 PUSH0 KECCAK256 SWAP1 JUMP JUMPDEST SLOAD AND ISZERO PUSH2 0x6A2 JUMP JUMPDEST POP PUSH1 0x1 PUSH1 0x1 PUSH1 0xA0 SHL SUB DUP2 AND CALLER EQ ISZERO PUSH2 0x69C JUMP JUMPDEST CALLVALUE PUSH2 0x342 JUMPI PUSH0 CALLDATASIZE PUSH1 0x3 NOT ADD SLT PUSH2 0x342 JUMPI PUSH1 0x20 PUSH1 0x1 PUSH1 0x1 PUSH1 0x40 SHL SUB PUSH1 0xB SLOAD AND PUSH1 0x40 MLOAD SWAP1 DUP2 MSTORE RETURN JUMPDEST CALLVALUE PUSH2 0x342 JUMPI PUSH1 0x60 CALLDATASIZE PUSH1 0x3 NOT ADD SLT PUSH2 0x342 JUMPI PUSH1 0x4 CALLDATALOAD PUSH1 0x24 CALLDATALOAD PUSH1 0x1 PUSH1 0x1 PUSH1 0x40 SHL SUB DUP2 GT PUSH2 0x342 JUMPI PUSH2 0x7CD SWAP1 CALLDATASIZE SWAP1 PUSH1 0x4 ADD PUSH2 0x2FE JUMP JUMPDEST PUSH1 0x44 CALLDATALOAD PUSH1 0x1 PUSH1 0x1 PUSH1 0x40 SHL SUB DUP2 GT PUSH2 0x342 JUMPI PUSH2 0x7EC SWAP1 CALLDATASIZE SWAP1 PUSH1 0x4 ADD PUSH2 0x2FE JUMP JUMPDEST PUSH32 0x0 PUSH1 0x1 PUSH1 0x1 PUSH1 0xA0 SHL SUB AND CALLER SUB PUSH2 0xB37 JUMPI PUSH2 0x83F PUSH2 0x83B PUSH2 0x834 DUP6 PUSH0 MSTORE PUSH1 0x12 PUSH1 0x20 MSTORE PUSH1 0x40 PUSH0 KECCAK256 SWAP1 JUMP JUMPDEST SLOAD PUSH1 0xFF AND SWAP1 JUMP JUMPDEST ISZERO SWAP1 JUMP JUMPDEST PUSH2 0xB23 JUMPI DUP1 MLOAD PUSH2 0xB02 JUMPI POP PUSH2 0x99D PUSH2 0x96D PUSH2 0x8CE PUSH2 0x879 PUSH2 0x868 DUP7 PUSH0 MSTORE PUSH1 0x11 PUSH1 0x20 MSTORE PUSH1 0x40 PUSH0 KECCAK256 SWAP1 JUMP JUMPDEST SLOAD SWAP5 PUSH1 0x20 DUP1 DUP3 MLOAD DUP4 ADD ADD SWAP2 ADD PUSH2 0x258E JUMP JUMPDEST PUSH2 0x8BE PUSH1 0x1 PUSH1 0x1 PUSH1 0x40 SHL SUB DUP3 AND PUSH1 0x2 PUSH2 0x89A DUP9 PUSH0 MSTORE PUSH1 0x10 PUSH1 0x20 MSTORE PUSH1 0x40 PUSH0 KECCAK256 SWAP1 JUMP JUMPDEST ADD DUP1 SLOAD PUSH1 0x1 PUSH1 0x1 PUSH1 0xC0 SHL SUB AND PUSH1 0xC0 SWAP3 SWAP1 SWAP3 SHL PUSH1 0x1 PUSH1 0x1 PUSH1 0xC0 SHL SUB NOT AND SWAP2 SWAP1 SWAP2 OR SWAP1 SSTORE JUMP JUMPDEST PUSH2 0x91A PUSH2 0x8DA PUSH2 0x8CE DUP4 PUSH1 0x40 SHR SWAP1 JUMP JUMPDEST PUSH1 0x1 PUSH1 0x1 PUSH1 0x40 SHL SUB AND SWAP1 JUMP JUMPDEST PUSH1 0x2 PUSH2 0x8EE DUP9 PUSH0 MSTORE PUSH1 0x10 PUSH1 0x20 MSTORE PUSH1 0x40 PUSH0 KECCAK256 SWAP1 JUMP JUMPDEST ADD DUP1 SLOAD PUSH8 0xFFFFFFFFFFFFFFFF PUSH1 0x80 SHL NOT AND PUSH1 0x80 SWAP3 SWAP1 SWAP3 SHL PUSH8 0xFFFFFFFFFFFFFFFF PUSH1 0x80 SHL AND SWAP2 SWAP1 SWAP2 OR SWAP1 SSTORE JUMP JUMPDEST PUSH2 0x967 PUSH2 0x92A PUSH2 0x8CE DUP4 PUSH1 0x80 SHR SWAP1 JUMP JUMPDEST PUSH1 0x2 PUSH2 0x93E DUP9 PUSH0 MSTORE PUSH1 0x10 PUSH1 0x20 MSTORE PUSH1 0x40 PUSH0 KECCAK256 SWAP1 JUMP JUMPDEST ADD SWAP1 PUSH8 0xFFFFFFFFFFFFFFFF PUSH1 0x40 SHL DUP3 SLOAD SWAP2 PUSH1 0x40 SHL AND SWAP1 PUSH8 0xFFFFFFFFFFFFFFFF PUSH1 0x40 SHL NOT AND OR SWAP1 SSTORE JUMP JUMPDEST PUSH1 0xC0 SHR SWAP1 JUMP JUMPDEST PUSH1 0x2 PUSH2 0x981 DUP5 PUSH0 MSTORE PUSH1 0x10 PUSH1 0x20 MSTORE PUSH1 0x40 PUSH0 KECCAK256 SWAP1 JUMP JUMPDEST ADD SWAP1 PUSH1 0x1 PUSH1 0x1 PUSH1 0x40 SHL SUB AND PUSH1 0x1 PUSH1 0x1 PUSH1 0x40 SHL SUB NOT DUP3 SLOAD AND OR SWAP1 SSTORE JUMP JUMPDEST PUSH2 0x9BC PUSH2 0x9B2 DUP4 PUSH0 MSTORE PUSH1 0x12 PUSH1 0x20 MSTORE PUSH1 0x40 PUSH0 KECCAK256 SWAP1 JUMP JUMPDEST DUP1 SLOAD PUSH1 0xFF NOT AND SWAP1 SSTORE JUMP JUMPDEST PUSH0 DUP3 DUP2 MSTORE PUSH1 0x11 PUSH1 0x20 MSTORE PUSH1 0x40 DUP2 KECCAK256 SSTORE PUSH2 0x9E4 PUSH2 0x9DF DUP3 PUSH0 MSTORE PUSH1 0x10 PUSH1 0x20 MSTORE PUSH1 0x40 PUSH0 KECCAK256 SWAP1 JUMP JUMPDEST PUSH2 0x1B91 JUMP JUMPDEST PUSH1 0x80 DUP2 ADD DUP1 MLOAD PUSH1 0x1 PUSH1 0x1 PUSH1 0x40 SHL SUB AND DUP1 PUSH2 0xAFC JUMPI POP PUSH1 0x1 SWAP1 JUMPDEST PUSH1 0x60 DUP4 ADD SWAP1 DUP2 MLOAD PUSH2 0xA14 SWAP1 PUSH1 0x1 PUSH1 0x1 PUSH1 0x40 SHL SUB AND SWAP1 JUMP JUMPDEST PUSH1 0x1 PUSH1 0x1 PUSH1 0x40 SHL SUB AND SWAP3 PUSH1 0xA0 DUP6 ADD SWAP4 DUP5 MLOAD PUSH2 0xA35 SWAP1 PUSH1 0x1 PUSH1 0x1 PUSH1 0x40 SHL SUB AND SWAP1 JUMP JUMPDEST PUSH1 0x1 PUSH1 0x1 PUSH1 0x40 SHL SUB AND PUSH2 0xA47 SWAP2 PUSH2 0x1C0D JUMP JUMPDEST PUSH2 0xA50 SWAP1 PUSH2 0x1C1A JUMP JUMPDEST SWAP1 PUSH1 0x1 PUSH1 0x1 PUSH1 0x40 SHL SUB AND PUSH2 0xA63 SWAP2 PUSH2 0x1C5E JUMP JUMPDEST PUSH2 0xA6C SWAP1 PUSH2 0x288B JUMP JUMPDEST PUSH1 0x40 SWAP5 DUP6 ADD MLOAD SWAP3 MLOAD SWAP2 MLOAD SWAP4 MLOAD DUP6 MLOAD PUSH1 0x1 PUSH1 0x1 PUSH1 0x40 SHL SUB SWAP5 DUP6 AND DUP2 MSTORE SWAP3 DUP5 AND PUSH1 0x20 DUP5 ADD MSTORE SWAP4 DUP4 AND SWAP5 DUP3 ADD SWAP5 SWAP1 SWAP5 MSTORE SWAP2 AND PUSH1 0x60 DUP3 ADD MSTORE PUSH1 0xFF SWAP1 SWAP2 AND PUSH1 0x80 DUP3 ADD MSTORE TIMESTAMP PUSH1 0xA0 DUP3 ADD MSTORE PUSH32 0x65B31B33BDD99BEA0CC76B844AC2161D84F706E84C7AAA3AD9467F2BC5670AD3 SWAP1 PUSH1 0xC0 SWAP1 LOG2 PUSH32 0x85E1543BF2F84FE80C6BADBCE3648C8539AD1DF4D2B3D822938CA0538BE727E6 PUSH0 DUP1 LOG2 STOP JUMPDEST SWAP1 PUSH2 0x9FD JUMP JUMPDEST PUSH1 0x40 MLOAD PUSH4 0x1DE77FF9 PUSH1 0xE1 SHL DUP2 MSTORE SWAP1 DUP2 SWAP1 PUSH2 0xB1F SWAP1 PUSH1 0x4 DUP4 ADD PUSH2 0x51A JUMP JUMPDEST SUB SWAP1 REVERT JUMPDEST PUSH4 0xF6A8D1C9 PUSH1 0xE0 SHL PUSH0 MSTORE PUSH1 0x4 DUP4 SWAP1 MSTORE PUSH1 0x24 PUSH0 REVERT JUMPDEST PUSH4 0xC6829F83 PUSH1 0xE0 SHL PUSH0 MSTORE PUSH1 0x4 PUSH0 REVERT JUMPDEST SWAP1 PUSH1 0x1 DUP3 DUP2 SHR SWAP3 AND DUP1 ISZERO PUSH2 0xB74 JUMPI JUMPDEST PUSH1 0x20 DUP4 LT EQ PUSH2 0xB60 JUMPI JUMP JUMPDEST PUSH4 0x4E487B71 PUSH1 0xE0 SHL PUSH0 MSTORE PUSH1 0x22 PUSH1 0x4 MSTORE PUSH1 0x24 PUSH0 REVERT JUMPDEST SWAP2 PUSH1 0x7F AND SWAP2 PUSH2 0xB55 JUMP JUMPDEST PUSH1 0x40 MLOAD SWAP1 PUSH0 DUP3 PUSH1 0xC SLOAD SWAP2 PUSH2 0xB91 DUP4 PUSH2 0xB46 JUMP JUMPDEST DUP1 DUP4 MSTORE SWAP3 PUSH1 0x1 DUP2 AND SWAP1 DUP2 ISZERO PUSH2 0xC16 JUMPI POP PUSH1 0x1 EQ PUSH2 0xBB7 JUMPI JUMPDEST PUSH2 0xBB5 SWAP3 POP SUB DUP4 PUSH2 0x2C2 JUMP JUMPDEST JUMP JUMPDEST POP PUSH1 0xC PUSH0 SWAP1 DUP2 MSTORE SWAP1 SWAP2 PUSH32 0xDF6966C971051C3D54EC59162606531493A51404A002842F56009D7E5CF4A8C7 JUMPDEST DUP2 DUP4 LT PUSH2 0xBFA JUMPI POP POP SWAP1 PUSH1 0x20 PUSH2 0xBB5 SWAP3 DUP3 ADD ADD PUSH2 0xBA9 JUMP JUMPDEST PUSH1 0x20 SWAP2 SWAP4 POP DUP1 PUSH1 0x1 SWAP2 SLOAD DUP4 DUP6 DUP10 ADD ADD MSTORE ADD SWAP2 ADD SWAP1 SWAP2 DUP5 SWAP3 PUSH2 0xBE2 JUMP JUMPDEST PUSH1 0x20 SWAP3 POP PUSH2 0xBB5 SWAP5 SWAP2 POP PUSH1 0xFF NOT AND DUP3 DUP5 ADD MSTORE ISZERO ISZERO PUSH1 0x5 SHL DUP3 ADD ADD PUSH2 0xBA9 JUMP JUMPDEST SWAP1 PUSH1 0x40 MLOAD SWAP2 DUP3 PUSH0 DUP3 SLOAD SWAP3 PUSH2 0xC48 DUP5 PUSH2 0xB46 JUMP JUMPDEST DUP1 DUP5 MSTORE SWAP4 PUSH1 0x1 DUP2 AND SWAP1 DUP2 ISZERO PUSH2 0xCB1 JUMPI POP PUSH1 0x1 EQ PUSH2 0xC6D JUMPI JUMPDEST POP PUSH2 0xBB5 SWAP3 POP SUB DUP4 PUSH2 0x2C2 JUMP JUMPDEST SWAP1 POP PUSH0 SWAP3 SWAP2 SWAP3 MSTORE PUSH1 0x20 PUSH0 KECCAK256 SWAP1 PUSH0 SWAP2 JUMPDEST DUP2 DUP4 LT PUSH2 0xC95 JUMPI POP POP SWAP1 PUSH1 0x20 PUSH2 0xBB5 SWAP3 DUP3 ADD ADD PUSH0 PUSH2 0xC60 JUMP JUMPDEST PUSH1 0x20 SWAP2 SWAP4 POP DUP1 PUSH1 0x1 SWAP2 SLOAD DUP4 DUP6 DUP10 ADD ADD MSTORE ADD SWAP2 ADD SWAP1 SWAP2 DUP5 SWAP3 PUSH2 0xC7C JUMP JUMPDEST SWAP1 POP PUSH1 0x20 SWAP3 POP PUSH2 0xBB5 SWAP5 SWAP2 POP PUSH1 0xFF NOT AND DUP3 DUP5 ADD MSTORE ISZERO ISZERO PUSH1 0x5 SHL DUP3 ADD ADD PUSH0 PUSH2 0xC60 JUMP JUMPDEST CALLVALUE PUSH2 0x342 JUMPI PUSH0 CALLDATASIZE PUSH1 0x3 NOT ADD SLT PUSH2 0x342 JUMPI PUSH2 0x581 PUSH2 0xCEE PUSH2 0xB7E JUMP JUMPDEST PUSH1 0x40 MLOAD SWAP2 DUP3 SWAP2 PUSH1 0x20 DUP4 MSTORE PUSH1 0x20 DUP4 ADD SWAP1 PUSH2 0x4F6 JUMP JUMPDEST CALLVALUE PUSH2 0x342 JUMPI PUSH0 CALLDATASIZE PUSH1 0x3 NOT ADD SLT PUSH2 0x342 JUMPI PUSH1 0x20 PUSH1 0x8 SLOAD PUSH1 0x40 MLOAD SWAP1 DUP2 MSTORE RETURN JUMPDEST CALLVALUE PUSH2 0x342 JUMPI PUSH1 0x20 CALLDATASIZE PUSH1 0x3 NOT ADD SLT PUSH2 0x342 JUMPI PUSH1 0x4 CALLDATALOAD PUSH0 MSTORE PUSH1 0x12 PUSH1 0x20 MSTORE PUSH1 0x20 PUSH1 0xFF PUSH1 0x40 PUSH0 KECCAK256 SLOAD AND PUSH1 0x40 MLOAD SWAP1 ISZERO ISZERO DUP2 MSTORE RETURN JUMPDEST CALLVALUE PUSH2 0x342 JUMPI PUSH1 0x40 CALLDATASIZE PUSH1 0x3 NOT ADD SLT PUSH2 0x342 JUMPI PUSH1 0x4 CALLDATALOAD PUSH1 0x24 CALLDATALOAD PUSH2 0xD6D PUSH2 0x2533 JUMP JUMPDEST PUSH2 0xE10 DUP3 LT PUSH2 0xDE4 JUMPI PUSH1 0x8 SLOAD SWAP2 DUP3 ISZERO PUSH2 0xDD5 JUMPI PUSH2 0xDAC PUSH32 0x64586ACD58623513AAC74E3F48F97302B3E5020B31C103C3254EB9EA68BC49F2 SWAP4 DUP4 LT PUSH2 0x19EF JUMP JUMPDEST DUP1 PUSH1 0xE SSTORE DUP2 PUSH1 0xF SSTORE PUSH2 0xDD0 PUSH1 0x40 MLOAD SWAP3 DUP4 SWAP3 DUP4 PUSH1 0x20 SWAP1 SWAP4 SWAP3 SWAP2 SWAP4 PUSH1 0x40 DUP2 ADD SWAP5 DUP2 MSTORE ADD MSTORE JUMP JUMPDEST SUB SWAP1 LOG1 STOP JUMPDEST PUSH4 0xD31B331D PUSH1 0xE0 SHL PUSH0 MSTORE PUSH1 0x4 PUSH0 REVERT JUMPDEST POP PUSH4 0x4D5A709 PUSH1 0xE4 SHL PUSH0 MSTORE PUSH1 0x4 MSTORE PUSH2 0xE10 PUSH1 0x24 MSTORE PUSH1 0x44 PUSH0 REVERT JUMPDEST PUSH1 0x60 SWAP1 PUSH1 0x3 NOT ADD SLT PUSH2 0x342 JUMPI PUSH1 0x4 CALLDATALOAD PUSH1 0x1 PUSH1 0x1 PUSH1 0xA0 SHL SUB DUP2 AND DUP2 SUB PUSH2 0x342 JUMPI SWAP1 PUSH1 0x24 CALLDATALOAD PUSH1 0x1 PUSH1 0x1 PUSH1 0xA0 SHL SUB DUP2 AND DUP2 SUB PUSH2 0x342 JUMPI SWAP1 PUSH1 0x44 CALLDATALOAD SWAP1 JUMP JUMPDEST CALLVALUE PUSH2 0x342 JUMPI PUSH2 0x70E PUSH2 0xE48 CALLDATASIZE PUSH2 0xDFD JUMP JUMPDEST SWAP2 PUSH2 0x1A32 JUMP JUMPDEST CALLVALUE PUSH2 0x342 JUMPI PUSH1 0x20 CALLDATASIZE PUSH1 0x3 NOT ADD SLT PUSH2 0x342 JUMPI PUSH2 0x70E PUSH1 0x4 CALLDATALOAD PUSH2 0xE6D PUSH2 0x2533 JUMP JUMPDEST PUSH2 0xE7A PUSH1 0x8 SLOAD DUP3 LT PUSH2 0x19EF JUMP JUMPDEST DUP1 PUSH0 MSTORE PUSH1 0x10 PUSH1 0x20 MSTORE PUSH2 0xE8E PUSH1 0x40 PUSH0 KECCAK256 PUSH2 0xC35 JUMP JUMPDEST SWAP1 PUSH2 0x2611 JUMP JUMPDEST CALLVALUE PUSH2 0x342 JUMPI PUSH0 CALLDATASIZE PUSH1 0x3 NOT ADD SLT PUSH2 0x342 JUMPI PUSH1 0x20 PUSH1 0xD SLOAD PUSH1 0x40 MLOAD SWAP1 DUP2 MSTORE RETURN JUMPDEST CALLVALUE PUSH2 0x342 JUMPI PUSH2 0x70E PUSH2 0xEC2 CALLDATASIZE PUSH2 0xDFD JUMP JUMPDEST SWAP1 PUSH1 0x40 MLOAD SWAP3 PUSH2 0xED2 PUSH1 0x20 DUP6 PUSH2 0x2C2 JUMP JUMPDEST PUSH0 DUP5 MSTORE PUSH2 0xEE0 DUP4 DUP4 DUP4 PUSH2 0x1A32 JUMP JUMPDEST CALLER PUSH2 0x3E7F JUMP JUMPDEST SWAP1 PUSH1 0x20 PUSH1 0x3 NOT DUP4 ADD SLT PUSH2 0x342 JUMPI PUSH1 0x4 CALLDATALOAD PUSH1 0x1 PUSH1 0x1 PUSH1 0x40 SHL SUB DUP2 GT PUSH2 0x342 JUMPI DUP3 PUSH1 0x23 DUP3 ADD SLT ISZERO PUSH2 0x342 JUMPI DUP1 PUSH1 0x4 ADD CALLDATALOAD SWAP3 PUSH1 0x1 PUSH1 0x1 PUSH1 0x40 SHL SUB DUP5 GT PUSH2 0x342 JUMPI PUSH1 0x24 DUP5 DUP4 ADD ADD GT PUSH2 0x342 JUMPI PUSH1 0x24 ADD SWAP2 SWAP1 JUMP JUMPDEST CALLVALUE PUSH2 0x342 JUMPI PUSH2 0xF43 CALLDATASIZE PUSH2 0xEE6 JUMP JUMPDEST POP POP PUSH1 0xD SLOAD TIMESTAMP SUB TIMESTAMP DUP2 GT PUSH2 0xF7F JUMPI PUSH1 0xE SLOAD LT PUSH2 0xF5B JUMPI STOP JUMPDEST TIMESTAMP PUSH1 0xD SSTORE PUSH2 0x70E PUSH1 0xF SLOAD PUSH2 0xE8E PUSH2 0xF7A DUP3 PUSH0 MSTORE PUSH1 0x10 PUSH1 0x20 MSTORE PUSH1 0x40 PUSH0 KECCAK256 SWAP1 JUMP JUMPDEST PUSH2 0xC35 JUMP JUMPDEST PUSH2 0x1B60 JUMP JUMPDEST PUSH1 0x20 DUP2 MSTORE PUSH1 0xC0 PUSH1 0x1 PUSH1 0x1 PUSH1 0x40 SHL SUB PUSH1 0xA0 PUSH2 0xFC2 PUSH2 0xFAC DUP7 MLOAD DUP6 PUSH1 0x20 DUP9 ADD MSTORE PUSH1 0xE0 DUP8 ADD SWAP1 PUSH2 0x4F6 JUMP JUMPDEST PUSH1 0x20 DUP8 ADD MLOAD DUP7 DUP3 SUB PUSH1 0x1F NOT ADD PUSH1 0x40 DUP9 ADD MSTORE PUSH2 0x4F6 JUMP JUMPDEST SWAP5 DUP3 PUSH1 0x40 DUP3 ADD MLOAD AND PUSH1 0x60 DUP7 ADD MSTORE DUP3 PUSH1 0x60 DUP3 ADD MLOAD AND PUSH1 0x80 DUP7 ADD MSTORE DUP3 PUSH1 0x80 DUP3 ADD MLOAD AND DUP3 DUP7 ADD MSTORE ADD MLOAD AND SWAP2 ADD MSTORE SWAP1 JUMP JUMPDEST CALLVALUE PUSH2 0x342 JUMPI PUSH1 0x20 CALLDATASIZE PUSH1 0x3 NOT ADD SLT PUSH2 0x342 JUMPI PUSH1 0x4 CALLDATALOAD PUSH0 PUSH1 0xA0 PUSH1 0x40 MLOAD PUSH2 0x1012 DUP2 PUSH2 0x26C JUMP JUMPDEST PUSH1 0x60 DUP2 MSTORE PUSH1 0x60 PUSH1 0x20 DUP3 ADD MSTORE DUP3 PUSH1 0x40 DUP3 ADD MSTORE DUP3 PUSH1 0x60 DUP3 ADD MSTORE DUP3 PUSH1 0x80 DUP3 ADD MSTORE ADD MSTORE PUSH2 0x103E PUSH1 0x8 SLOAD DUP3 LT PUSH2 0x19EF JUMP JUMPDEST PUSH0 MSTORE PUSH1 0x10 PUSH1 0x20 MSTORE PUSH2 0x581 PUSH1 0x40 PUSH0 KECCAK256 PUSH2 0x10D2 PUSH2 0x10C2 PUSH1 0x2 PUSH1 0x40 MLOAD SWAP4 PUSH2 0x1061 DUP6 PUSH2 0x26C JUMP JUMPDEST PUSH2 0x106A DUP2 PUSH2 0xC35 JUMP JUMPDEST DUP6 MSTORE PUSH2 0x1078 PUSH1 0x1 DUP3 ADD PUSH2 0xC35 JUMP JUMPDEST PUSH1 0x20 DUP7 ADD MSTORE ADD SLOAD PUSH1 0x1 PUSH1 0x1 PUSH1 0x40 SHL SUB DUP2 AND PUSH1 0x40 DUP6 ADD MSTORE PUSH1 0x1 PUSH1 0x1 PUSH1 0x40 SHL SUB DUP2 PUSH1 0x40 SHR AND PUSH1 0x60 DUP6 ADD MSTORE PUSH2 0x967 PUSH1 0x1 PUSH1 0x1 PUSH1 0x40 SHL SUB DUP3 PUSH1 0x80 SHR AND PUSH1 0x80 DUP7 ADD SWAP1 PUSH1 0x1 PUSH1 0x1 PUSH1 0x40 SHL SUB AND SWAP1 MSTORE JUMP JUMPDEST PUSH1 0x1 PUSH1 0x1 PUSH1 0x40 SHL SUB AND PUSH1 0xA0 DUP4 ADD MSTORE JUMP JUMPDEST PUSH1 0x40 MLOAD SWAP2 DUP3 SWAP2 DUP3 PUSH2 0xF84 JUMP JUMPDEST CALLVALUE PUSH2 0x342 JUMPI PUSH1 0x20 CALLDATASIZE PUSH1 0x3 NOT ADD SLT PUSH2 0x342 JUMPI PUSH1 0x20 PUSH2 0x10FC PUSH1 0x4 CALLDATALOAD PUSH2 0x255A JUMP JUMPDEST PUSH1 0x40 MLOAD PUSH1 0x1 PUSH1 0x1 PUSH1 0xA0 SHL SUB SWAP1 SWAP2 AND DUP2 MSTORE RETURN JUMPDEST CALLVALUE PUSH2 0x342 JUMPI PUSH1 0x20 CALLDATASIZE PUSH1 0x3 NOT ADD SLT PUSH2 0x342 JUMPI PUSH1 0x4 CALLDATALOAD PUSH0 MSTORE PUSH1 0x11 PUSH1 0x20 MSTORE PUSH1 0x20 PUSH1 0x40 PUSH0 KECCAK256 SLOAD PUSH1 0x40 MLOAD SWAP1 DUP2 MSTORE RETURN JUMPDEST CALLVALUE PUSH2 0x342 JUMPI PUSH1 0x20 CALLDATASIZE PUSH1 0x3 NOT ADD SLT PUSH2 0x342 JUMPI PUSH2 0x581 PUSH2 0xCEE PUSH1 0x4 CALLDATALOAD PUSH2 0x1DB6 JUMP JUMPDEST CALLVALUE PUSH2 0x342 JUMPI PUSH2 0x1165 CALLDATASIZE PUSH2 0xEE6 JUMP JUMPDEST POP POP PUSH1 0xD SLOAD TIMESTAMP SUB TIMESTAMP DUP2 GT PUSH2 0xF7F JUMPI PUSH1 0xE SLOAD LT DUP1 PUSH2 0x11AD JUMPI JUMPDEST PUSH1 0x40 MLOAD SWAP1 PUSH2 0x118C PUSH1 0x20 DUP4 PUSH2 0x2C2 JUMP JUMPDEST PUSH0 DUP3 MSTORE PUSH2 0x581 PUSH1 0x40 MLOAD SWAP3 DUP4 SWAP3 ISZERO ISZERO DUP4 MSTORE PUSH1 0x40 PUSH1 0x20 DUP5 ADD MSTORE PUSH1 0x40 DUP4 ADD SWAP1 PUSH2 0x4F6 JUMP JUMPDEST POP PUSH1 0xF SLOAD PUSH1 0x8 SLOAD GT PUSH2 0x117D JUMP JUMPDEST CALLVALUE PUSH2 0x342 JUMPI PUSH1 0x20 CALLDATASIZE PUSH1 0x3 NOT ADD SLT PUSH2 0x342 JUMPI PUSH1 0x1 PUSH1 0x1 PUSH1 0xA0 SHL SUB PUSH2 0x11DB PUSH2 0x641 JUMP JUMPDEST AND DUP1 ISZERO PUSH2 0x11F8 JUMPI PUSH0 MSTORE PUSH1 0x3 PUSH1 0x20 MSTORE PUSH1 0x20 PUSH1 0x40 PUSH0 KECCAK256 SLOAD PUSH1 0x40 MLOAD SWAP1 DUP2 MSTORE RETURN JUMPDEST PUSH4 0x22718AD9 PUSH1 0xE2 SHL PUSH0 MSTORE PUSH0 PUSH1 0x4 MSTORE PUSH1 0x24 PUSH0 REVERT JUMPDEST CALLVALUE PUSH2 0x342 JUMPI PUSH0 CALLDATASIZE PUSH1 0x3 NOT ADD SLT PUSH2 0x342 JUMPI PUSH2 0x1223 PUSH2 0x2533 JUMP JUMPDEST PUSH1 0x7 DUP1 SLOAD PUSH1 0x1 PUSH1 0x1 PUSH1 0xA0 SHL SUB NOT DUP2 AND SWAP1 SWAP2 SSTORE PUSH0 SWAP1 PUSH1 0x1 PUSH1 0x1 PUSH1 0xA0 SHL SUB AND PUSH32 0x8BE0079C531659141344CD1FD0A4F28419497F9722A3DAAFE3B4186F6B6457E0 DUP3 DUP1 LOG3 STOP JUMPDEST CALLVALUE PUSH2 0x342 JUMPI PUSH0 CALLDATASIZE PUSH1 0x3 NOT ADD SLT PUSH2 0x342 JUMPI PUSH1 0x7 SLOAD PUSH1 0x40 MLOAD PUSH1 0x1 PUSH1 0x1 PUSH1 0xA0 SHL SUB SWAP1 SWAP2 AND DUP2 MSTORE PUSH1 0x20 SWAP1 RETURN JUMPDEST CALLVALUE PUSH2 0x342 JUMPI PUSH0 CALLDATASIZE PUSH1 0x3 NOT ADD SLT PUSH2 0x342 JUMPI PUSH1 0x20 PUSH1 0xE SLOAD PUSH1 0x40 MLOAD SWAP1 DUP2 MSTORE RETURN JUMPDEST CALLVALUE PUSH2 0x342 JUMPI PUSH0 CALLDATASIZE PUSH1 0x3 NOT ADD SLT PUSH2 0x342 JUMPI PUSH1 0x20 PUSH1 0xF SLOAD PUSH1 0x40 MLOAD SWAP1 DUP2 MSTORE RETURN JUMPDEST CALLVALUE PUSH2 0x342 JUMPI PUSH0 CALLDATASIZE PUSH1 0x3 NOT ADD SLT PUSH2 0x342 JUMPI PUSH1 0x40 MLOAD PUSH0 PUSH1 0x1 SLOAD PUSH2 0x12E8 DUP2 PUSH2 0xB46 JUMP JUMPDEST DUP1 DUP5 MSTORE SWAP1 PUSH1 0x1 DUP2 AND SWAP1 DUP2 ISZERO PUSH2 0x5E1 JUMPI POP PUSH1 0x1 EQ PUSH2 0x130F JUMPI PUSH2 0x581 DUP4 PUSH2 0x575 DUP2 DUP6 SUB DUP3 PUSH2 0x2C2 JUMP JUMPDEST PUSH1 0x1 PUSH0 SWAP1 DUP2 MSTORE PUSH32 0xB10E2D527612073B26EECDFD717E6A320CF44B4AFAC2B0732D9FCBE2B7FA0CF6 SWAP4 SWAP3 POP SWAP1 JUMPDEST DUP1 DUP3 LT PUSH2 0x1353 JUMPI POP SWAP1 SWAP2 POP DUP2 ADD PUSH1 0x20 ADD PUSH2 0x575 PUSH2 0x565 JUMP JUMPDEST SWAP2 SWAP3 PUSH1 0x1 DUP2 PUSH1 0x20 SWAP3 SLOAD DUP4 DUP6 DUP9 ADD ADD MSTORE ADD SWAP2 ADD SWAP1 SWAP3 SWAP2 PUSH2 0x133B JUMP JUMPDEST CALLVALUE PUSH2 0x342 JUMPI PUSH1 0x40 CALLDATASIZE PUSH1 0x3 NOT ADD SLT PUSH2 0x342 JUMPI PUSH2 0x1386 PUSH2 0x641 JUMP JUMPDEST PUSH1 0x24 CALLDATALOAD DUP1 ISZERO ISZERO DUP2 SUB PUSH2 0x342 JUMPI CALLER ISZERO PUSH2 0x1428 JUMPI PUSH1 0x1 PUSH1 0x1 PUSH1 0xA0 SHL SUB DUP3 AND SWAP2 DUP3 ISZERO PUSH2 0x1415 JUMPI DUP2 PUSH2 0x13D2 PUSH2 0x13E3 SWAP3 CALLER PUSH0 MSTORE PUSH1 0x5 PUSH1 0x20 MSTORE PUSH1 0x40 PUSH0 KECCAK256 SWAP1 PUSH1 0x1 DUP1 PUSH1 0xA0 SHL SUB AND PUSH0 MSTORE PUSH1 0x20 MSTORE PUSH1 0x40 PUSH0 KECCAK256 SWAP1 JUMP JUMPDEST SWAP1 PUSH1 0xFF DUP1 NOT DUP4 SLOAD AND SWAP2 ISZERO ISZERO AND OR SWAP1 SSTORE JUMP JUMPDEST PUSH1 0x40 MLOAD SWAP1 ISZERO ISZERO DUP2 MSTORE CALLER SWAP1 PUSH32 0x17307EAB39AB6107E8899845AD3D59BD9653F200F220920489CA2B5937696C31 SWAP1 PUSH1 0x20 SWAP1 LOG3 STOP JUMPDEST DUP3 PUSH4 0xB611743 PUSH1 0xE3 SHL PUSH0 MSTORE PUSH1 0x4 MSTORE PUSH1 0x24 PUSH0 REVERT JUMPDEST PUSH4 0xA9FBF51F PUSH1 0xE0 SHL PUSH0 MSTORE PUSH0 PUSH1 0x4 MSTORE PUSH1 0x24 PUSH0 REVERT JUMPDEST CALLVALUE PUSH2 0x342 JUMPI PUSH1 0x20 CALLDATASIZE PUSH1 0x3 NOT ADD SLT PUSH2 0x342 JUMPI PUSH1 0x4 CALLDATALOAD PUSH0 MSTORE PUSH1 0x10 PUSH1 0x20 MSTORE PUSH2 0x1498 PUSH1 0x40 PUSH0 KECCAK256 PUSH2 0x1466 DUP2 PUSH2 0xC35 JUMP JUMPDEST SWAP1 PUSH1 0x1 PUSH1 0x1 PUSH1 0x40 SHL SUB PUSH2 0x14A6 PUSH1 0x2 PUSH2 0x1480 PUSH1 0x1 DUP6 ADD PUSH2 0xC35 JUMP JUMPDEST SWAP4 ADD SLOAD SWAP3 PUSH1 0x40 MLOAD SWAP6 DUP7 SWAP6 PUSH1 0xC0 DUP8 MSTORE PUSH1 0xC0 DUP8 ADD SWAP1 PUSH2 0x4F6 JUMP JUMPDEST SWAP1 DUP6 DUP3 SUB PUSH1 0x20 DUP8 ADD MSTORE PUSH2 0x4F6 JUMP JUMPDEST SWAP2 DUP2 DUP1 DUP3 AND AND PUSH1 0x40 DUP6 ADD MSTORE DUP2 DUP1 DUP3 PUSH1 0x40 SHR AND AND PUSH1 0x60 DUP6 ADD MSTORE DUP2 DUP1 DUP3 PUSH1 0x80 SHR AND AND PUSH1 0x80 DUP6 ADD MSTORE PUSH1 0xC0 SHR AND PUSH1 0xA0 DUP4 ADD MSTORE SUB SWAP1 RETURN JUMPDEST CALLVALUE PUSH2 0x342 JUMPI PUSH1 0x80 CALLDATASIZE PUSH1 0x3 NOT ADD SLT PUSH2 0x342 JUMPI PUSH2 0x14F1 PUSH2 0x641 JUMP JUMPDEST PUSH2 0x14F9 PUSH2 0x657 JUMP JUMPDEST SWAP1 PUSH1 0x44 CALLDATALOAD PUSH1 0x64 CALLDATALOAD SWAP3 PUSH1 0x1 PUSH1 0x1 PUSH1 0x40 SHL SUB DUP5 GT PUSH2 0x342 JUMPI PUSH2 0x1520 PUSH2 0x70E SWAP5 CALLDATASIZE SWAP1 PUSH1 0x4 ADD PUSH2 0x2FE JUMP JUMPDEST SWAP3 PUSH2 0xEE0 DUP4 DUP4 DUP4 PUSH2 0x1A32 JUMP JUMPDEST CALLVALUE PUSH2 0x342 JUMPI PUSH1 0x20 CALLDATASIZE PUSH1 0x3 NOT ADD SLT PUSH2 0x342 JUMPI PUSH1 0xFF PUSH2 0x581 PUSH2 0x154D PUSH1 0x4 CALLDATALOAD PUSH2 0x1ED7 JUMP JUMPDEST PUSH1 0x40 SWAP3 SWAP2 SWAP3 MLOAD SWAP4 DUP5 SWAP4 AND DUP4 MSTORE PUSH1 0x40 PUSH1 0x20 DUP5 ADD MSTORE PUSH1 0x40 DUP4 ADD SWAP1 PUSH2 0x4F6 JUMP JUMPDEST CALLVALUE PUSH2 0x342 JUMPI PUSH1 0x20 CALLDATASIZE PUSH1 0x3 NOT ADD SLT PUSH2 0x342 JUMPI PUSH1 0x4 CALLDATALOAD DUP1 PUSH0 MSTORE PUSH1 0x10 PUSH1 0x20 MSTORE PUSH1 0x40 PUSH0 KECCAK256 SWAP1 PUSH1 0x40 MLOAD SWAP2 PUSH2 0x1598 DUP4 PUSH2 0x26C JUMP JUMPDEST PUSH2 0x15A1 DUP2 PUSH2 0xC35 JUMP JUMPDEST DUP4 MSTORE PUSH2 0x15AF PUSH1 0x1 DUP3 ADD PUSH2 0xC35 JUMP JUMPDEST SWAP1 PUSH1 0x20 DUP5 ADD SWAP2 DUP3 MSTORE PUSH1 0x2 ADD SLOAD PUSH1 0x40 DUP5 ADD SWAP1 PUSH1 0x1 PUSH1 0x1 PUSH1 0x40 SHL SUB DUP2 AND DUP3 MSTORE PUSH1 0x60 DUP6 ADD DUP2 PUSH1 0x40 SHR PUSH1 0x1 PUSH1 0x1 PUSH1 0x40 SHL SUB AND DUP2 MSTORE PUSH1 0x80 DUP7 ADD SWAP2 DUP1 PUSH1 0x80 SHR PUSH1 0x1 PUSH1 0x1 PUSH1 0x40 SHL SUB AND PUSH2 0x1604 SWAP1 DUP5 SWAP1 PUSH1 0x1 PUSH1 0x1 PUSH1 0x40 SHL SUB AND SWAP1 MSTORE JUMP JUMPDEST PUSH1 0xC0 SHR PUSH1 0xA0 DUP8 ADD SWAP1 DUP2 MSTORE SWAP3 PUSH2 0x1618 DUP7 PUSH2 0x1ED7 JUMP JUMPDEST SWAP2 SWAP1 POP PUSH2 0x1624 DUP8 PUSH2 0x1DB6 JUMP JUMPDEST PUSH2 0x162D SWAP1 PUSH2 0x4BC2 JUMP JUMPDEST SWAP7 PUSH2 0x1637 SWAP1 PUSH2 0x2735 JUMP JUMPDEST SWAP8 MLOAD SWAP6 MLOAD SWAP1 MLOAD PUSH2 0x164F SWAP1 PUSH1 0x1 PUSH1 0x1 PUSH1 0x40 SHL SUB AND PUSH2 0x2735 JUMP JUMPDEST SWAP3 MLOAD PUSH2 0x1663 SWAP1 PUSH1 0x1 PUSH1 0x1 PUSH1 0x40 SHL SUB AND PUSH2 0x2735 JUMP JUMPDEST SWAP4 MLOAD PUSH2 0x1677 SWAP1 PUSH1 0x1 PUSH1 0x1 PUSH1 0x40 SHL SUB AND PUSH2 0x2735 JUMP JUMPDEST SWAP5 MLOAD PUSH2 0x168B SWAP1 PUSH1 0x1 PUSH1 0x1 PUSH1 0x40 SHL SUB AND PUSH2 0x2735 JUMP JUMPDEST SWAP6 PUSH2 0x1695 SWAP9 PUSH2 0x1FD2 JUMP JUMPDEST PUSH2 0x169E SWAP1 PUSH2 0x4BC2 JUMP JUMPDEST PUSH2 0x16A7 SWAP1 PUSH2 0x231A JUMP JUMPDEST PUSH1 0x40 MLOAD PUSH2 0x581 DUP2 SWAP3 DUP3 PUSH2 0x51A JUMP JUMPDEST CALLVALUE PUSH2 0x342 JUMPI PUSH0 CALLDATASIZE PUSH1 0x3 NOT ADD SLT PUSH2 0x342 JUMPI PUSH1 0x20 PUSH1 0x40 MLOAD PUSH2 0xE10 DUP2 MSTORE RETURN JUMPDEST CALLVALUE PUSH2 0x342 JUMPI PUSH1 0x40 CALLDATASIZE PUSH1 0x3 NOT ADD SLT PUSH2 0x342 JUMPI PUSH1 0x20 PUSH1 0xFF PUSH2 0x1721 PUSH2 0x16F1 PUSH2 0x641 JUMP JUMPDEST PUSH2 0x16F9 PUSH2 0x657 JUMP JUMPDEST PUSH1 0x1 PUSH1 0x1 PUSH1 0xA0 SHL SUB SWAP2 DUP3 AND PUSH0 SWAP1 DUP2 MSTORE PUSH1 0x5 DUP7 MSTORE PUSH1 0x40 DUP1 DUP3 KECCAK256 SWAP3 SWAP1 SWAP4 AND DUP2 MSTORE PUSH1 0x20 SWAP2 SWAP1 SWAP2 MSTORE KECCAK256 SWAP1 JUMP JUMPDEST SLOAD AND PUSH1 0x40 MLOAD SWAP1 ISZERO ISZERO DUP2 MSTORE RETURN JUMPDEST CALLVALUE PUSH2 0x342 JUMPI PUSH1 0x60 CALLDATASIZE PUSH1 0x3 NOT ADD SLT PUSH2 0x342 JUMPI PUSH2 0x1746 PUSH2 0x641 JUMP JUMPDEST PUSH1 0x24 CALLDATALOAD PUSH1 0x1 PUSH1 0x1 PUSH1 0x40 SHL SUB DUP2 GT PUSH2 0x342 JUMPI PUSH2 0x1765 SWAP1 CALLDATASIZE SWAP1 PUSH1 0x4 ADD PUSH2 0x2FE JUMP JUMPDEST PUSH1 0x44 CALLDATALOAD SWAP2 PUSH1 0x1 PUSH1 0x1 PUSH1 0x40 SHL SUB DUP4 GT PUSH2 0x342 JUMPI PUSH2 0x17D5 PUSH2 0x178B PUSH2 0x17DA SWAP5 CALLDATASIZE SWAP1 PUSH1 0x4 ADD PUSH2 0x2FE JUMP JUMPDEST SWAP3 PUSH2 0x1794 PUSH2 0x2533 JUMP JUMPDEST PUSH1 0x8 SLOAD SWAP4 PUSH1 0x40 MLOAD SWAP2 PUSH2 0x17A5 DUP4 PUSH2 0x26C JUMP JUMPDEST DUP3 MSTORE PUSH1 0x20 DUP3 ADD MSTORE PUSH0 PUSH1 0x40 DUP3 ADD MSTORE PUSH0 PUSH1 0x60 DUP3 ADD MSTORE PUSH0 PUSH1 0x80 DUP3 ADD MSTORE PUSH0 PUSH1 0xA0 DUP3 ADD MSTORE DUP4 PUSH0 MSTORE PUSH1 0x10 PUSH1 0x20 MSTORE PUSH1 0x40 PUSH0 KECCAK256 PUSH2 0x2358 JUMP JUMPDEST PUSH2 0x400A JUMP JUMPDEST PUSH2 0x70E PUSH2 0x17E8 PUSH1 0x8 SLOAD PUSH2 0x2525 JUMP JUMPDEST PUSH1 0x8 SSTORE JUMP JUMPDEST CALLVALUE PUSH2 0x342 JUMPI PUSH1 0x20 CALLDATASIZE PUSH1 0x3 NOT ADD SLT PUSH2 0x342 JUMPI PUSH2 0x1806 PUSH2 0x641 JUMP JUMPDEST PUSH2 0x180E PUSH2 0x2533 JUMP JUMPDEST PUSH1 0x1 PUSH1 0x1 PUSH1 0xA0 SHL SUB AND DUP1 ISZERO PUSH2 0x1860 JUMPI PUSH1 0x7 DUP1 SLOAD PUSH1 0x1 PUSH1 0x1 PUSH1 0xA0 SHL SUB NOT DUP2 AND DUP4 OR SWAP1 SWAP2 SSTORE PUSH1 0x1 PUSH1 0x1 PUSH1 0xA0 SHL SUB AND PUSH32 0x8BE0079C531659141344CD1FD0A4F28419497F9722A3DAAFE3B4186F6B6457E0 PUSH0 DUP1 LOG3 STOP JUMPDEST PUSH4 0x1E4FBDF7 PUSH1 0xE0 SHL PUSH0 MSTORE PUSH0 PUSH1 0x4 MSTORE PUSH1 0x24 PUSH0 REVERT JUMPDEST SWAP1 PUSH1 0x1F DUP3 GT PUSH2 0x1880 JUMPI POP POP JUMP JUMPDEST DUP1 DUP3 GT PUSH2 0x188B JUMPI POP POP JUMP JUMPDEST PUSH1 0xC PUSH0 MSTORE PUSH1 0x20 PUSH0 KECCAK256 PUSH1 0x20 PUSH1 0x1F DUP4 ADD PUSH1 0x5 SHR SWAP3 LT PUSH2 0x18CA JUMPI JUMPDEST DUP2 PUSH1 0x1F SWAP2 ADD SWAP3 ADD PUSH1 0x5 SHR SUB SWAP1 PUSH0 JUMPDEST DUP3 DUP2 LT PUSH2 0x18BD JUMPI POP POP POP JUMP JUMPDEST PUSH0 DUP3 DUP3 ADD SSTORE PUSH1 0x1 ADD PUSH2 0x18B1 JUMP JUMPDEST PUSH0 SWAP2 POP PUSH2 0x18A3 JUMP JUMPDEST SWAP2 SWAP1 SWAP2 PUSH1 0x1F DUP4 GT PUSH2 0x18E3 JUMPI JUMPDEST POP POP POP JUMP JUMPDEST DUP2 DUP4 GT PUSH2 0x18EF JUMPI POP POP POP JUMP JUMPDEST PUSH0 MSTORE PUSH1 0x20 PUSH0 KECCAK256 PUSH1 0x20 PUSH1 0x1F DUP4 ADD PUSH1 0x5 SHR SWAP3 LT PUSH2 0x1928 JUMPI JUMPDEST DUP2 PUSH1 0x1F SWAP2 ADD SWAP3 ADD PUSH1 0x5 SHR SUB SWAP1 PUSH0 JUMPDEST DUP3 DUP2 LT ISZERO PUSH2 0x18DE JUMPI PUSH0 DUP3 DUP3 ADD SSTORE PUSH1 0x1 ADD PUSH2 0x1913 JUMP JUMPDEST PUSH0 SWAP2 POP PUSH2 0x1905 JUMP JUMPDEST SWAP2 SWAP1 SWAP2 DUP3 MLOAD PUSH1 0x1 PUSH1 0x1 PUSH1 0x40 SHL SUB DUP2 GT PUSH2 0x287 JUMPI PUSH2 0x1957 DUP2 PUSH2 0x1951 DUP5 SLOAD PUSH2 0xB46 JUMP JUMPDEST DUP5 PUSH2 0x18D2 JUMP JUMPDEST PUSH1 0x20 PUSH1 0x1F DUP3 GT PUSH1 0x1 EQ PUSH2 0x198A JUMPI DUP2 SWAP1 PUSH2 0x1986 SWAP4 SWAP5 SWAP6 PUSH0 SWAP3 PUSH2 0x3D5 JUMPI POP POP DUP2 PUSH1 0x1 SHL SWAP2 PUSH0 NOT SWAP1 PUSH1 0x3 SHL SHR NOT AND OR SWAP1 JUMP JUMPDEST SWAP1 SSTORE JUMP JUMPDEST PUSH1 0x1F NOT DUP3 AND SWAP1 PUSH2 0x199D DUP5 PUSH0 MSTORE PUSH1 0x20 PUSH0 KECCAK256 SWAP1 JUMP JUMPDEST SWAP2 PUSH0 JUMPDEST DUP2 DUP2 LT PUSH2 0x19D7 JUMPI POP SWAP6 DUP4 PUSH1 0x1 SWAP6 SWAP7 SWAP8 LT PUSH2 0x19BF JUMPI JUMPDEST POP POP POP DUP2 SHL ADD SWAP1 SSTORE JUMP JUMPDEST ADD MLOAD PUSH0 NOT PUSH1 0xF8 DUP5 PUSH1 0x3 SHL AND SHR NOT AND SWAP1 SSTORE PUSH0 DUP1 DUP1 PUSH2 0x19B5 JUMP JUMPDEST SWAP2 SWAP3 PUSH1 0x20 PUSH1 0x1 DUP2 SWAP3 DUP7 DUP12 ADD MLOAD DUP2 SSTORE ADD SWAP5 ADD SWAP3 ADD PUSH2 0x19A0 JUMP JUMPDEST ISZERO PUSH2 0x19F6 JUMPI JUMP JUMPDEST PUSH1 0x40 MLOAD PUSH3 0x461BCD PUSH1 0xE5 SHL DUP2 MSTORE PUSH1 0x20 PUSH1 0x4 DUP3 ADD MSTORE PUSH1 0x14 PUSH1 0x24 DUP3 ADD MSTORE PUSH20 0x151BDAD95B881251081D1A59185AC81D985B1A59 PUSH1 0x62 SHL PUSH1 0x44 DUP3 ADD MSTORE PUSH1 0x64 SWAP1 REVERT JUMPDEST SWAP1 SWAP2 SWAP1 PUSH1 0x1 PUSH1 0x1 PUSH1 0xA0 SHL SUB DUP4 AND DUP1 ISZERO PUSH2 0x1B39 JUMPI PUSH0 DUP4 DUP2 MSTORE PUSH1 0x2 PUSH1 0x20 MSTORE PUSH1 0x40 SWAP1 KECCAK256 SLOAD DUP4 SWAP1 PUSH1 0x1 PUSH1 0x1 PUSH1 0xA0 SHL SUB AND SWAP2 CALLER PUSH2 0x1B29 JUMPI JUMPDEST PUSH1 0x1 PUSH1 0x1 PUSH1 0xA0 SHL SUB DUP4 AND SWAP6 PUSH2 0x1AAA SWAP1 DUP8 PUSH2 0x1AFD JUMPI JUMPDEST PUSH1 0x1 PUSH1 0x1 PUSH1 0xA0 SHL SUB DUP2 AND PUSH0 SWAP1 DUP2 MSTORE PUSH1 0x3 PUSH1 0x20 MSTORE PUSH1 0x40 SWAP1 KECCAK256 PUSH1 0x1 DUP2 SLOAD ADD SWAP1 SSTORE PUSH2 0x6EF DUP5 PUSH0 MSTORE PUSH1 0x2 PUSH1 0x20 MSTORE PUSH1 0x40 PUSH0 KECCAK256 SWAP1 JUMP JUMPDEST DUP6 PUSH32 0xDDF252AD1BE2C89B69C2B068FC378DAA952BA7F163C4A11628F55A4DF523B3EF PUSH0 DUP1 LOG4 POP PUSH1 0x1 PUSH1 0x1 PUSH1 0xA0 SHL SUB AND DUP1 DUP4 SUB PUSH2 0x1AE5 JUMPI POP POP POP JUMP JUMPDEST PUSH4 0x64283D7B PUSH1 0xE0 SHL PUSH0 MSTORE PUSH1 0x4 MSTORE PUSH1 0x24 MSTORE PUSH1 0x44 MSTORE PUSH1 0x64 PUSH0 REVERT JUMPDEST PUSH2 0x1B06 DUP5 PUSH2 0x40F7 JUMP JUMPDEST PUSH1 0x1 PUSH1 0x1 PUSH1 0xA0 SHL SUB DUP6 AND PUSH0 SWAP1 DUP2 MSTORE PUSH1 0x3 PUSH1 0x20 MSTORE PUSH1 0x40 SWAP1 KECCAK256 DUP1 SLOAD PUSH0 NOT ADD SWAP1 SSTORE PUSH2 0x1A7A JUMP JUMPDEST PUSH2 0x1B34 DUP3 CALLER DUP6 PUSH2 0x4119 JUMP JUMPDEST PUSH2 0x1A65 JUMP JUMPDEST PUSH4 0x32505749 PUSH1 0xE1 SHL PUSH0 MSTORE PUSH0 PUSH1 0x4 MSTORE PUSH1 0x24 PUSH0 REVERT JUMPDEST PUSH1 0x40 MLOAD SWAP1 PUSH2 0x1B5B PUSH1 0x20 DUP4 PUSH2 0x2C2 JUMP JUMPDEST PUSH0 DUP3 MSTORE JUMP JUMPDEST PUSH4 0x4E487B71 PUSH1 0xE0 SHL PUSH0 MSTORE PUSH1 0x11 PUSH1 0x4 MSTORE PUSH1 0x24 PUSH0 REVERT JUMPDEST PUSH1 0x1F NOT DUP2 ADD SWAP2 SWAP1 DUP3 GT PUSH2 0xF7F JUMPI JUMP JUMPDEST PUSH0 NOT DUP2 ADD SWAP2 SWAP1 DUP3 GT PUSH2 0xF7F JUMPI JUMP JUMPDEST SWAP1 PUSH1 0x40 MLOAD PUSH2 0x1B9E DUP2 PUSH2 0x26C JUMP JUMPDEST PUSH1 0xA0 PUSH1 0x1 PUSH1 0x1 PUSH1 0x40 SHL SUB PUSH1 0x2 DUP4 SWAP6 PUSH2 0x1BB5 DUP2 PUSH2 0xC35 JUMP JUMPDEST DUP6 MSTORE PUSH2 0x1BC3 PUSH1 0x1 DUP3 ADD PUSH2 0xC35 JUMP JUMPDEST PUSH1 0x20 DUP7 ADD MSTORE ADD SLOAD DUP2 DUP2 AND PUSH1 0x40 DUP6 ADD MSTORE DUP2 DUP2 PUSH1 0x40 SHR AND PUSH1 0x60 DUP6 ADD MSTORE DUP2 DUP2 PUSH1 0x80 SHR AND PUSH1 0x80 DUP6 ADD MSTORE PUSH1 0xC0 SHR AND SWAP2 ADD MSTORE JUMP JUMPDEST SWAP1 PUSH1 0x2 DUP3 ADD DUP1 SWAP3 GT PUSH2 0xF7F JUMPI JUMP JUMPDEST SWAP1 PUSH1 0x20 DUP3 ADD DUP1 SWAP3 GT PUSH2 0xF7F JUMPI JUMP JUMPDEST SWAP2 SWAP1 DUP3 ADD DUP1 SWAP3 GT PUSH2 0xF7F JUMPI JUMP JUMPDEST SWAP1 PUSH1 0x64 DUP3 MUL SWAP2 DUP1 DUP4 DIV PUSH1 0x64 EQ SWAP1 ISZERO OR ISZERO PUSH2 0xF7F JUMPI JUMP JUMPDEST PUSH1 0x2 DUP2 SWAP1 SHL SWAP2 SWAP1 PUSH1 0x1 PUSH1 0x1 PUSH1 0xFE SHL SUB DUP2 AND SUB PUSH2 0xF7F JUMPI JUMP JUMPDEST SWAP1 DUP2 PUSH1 0x1 SHL SWAP2 DUP1 DUP4 DIV PUSH1 0x2 EQ SWAP1 ISZERO OR ISZERO PUSH2 0xF7F JUMPI JUMP JUMPDEST DUP2 ISZERO PUSH2 0x1C68 JUMPI DIV SWAP1 JUMP JUMPDEST PUSH4 0x4E487B71 PUSH1 0xE0 SHL PUSH0 MSTORE PUSH1 0x12 PUSH1 0x4 MSTORE PUSH1 0x24 PUSH0 REVERT JUMPDEST DUP1 MLOAD SWAP2 SWAP1 DUP3 SWAP1 PUSH1 0x20 ADD DUP3 MCOPY ADD PUSH0 DUP2 MSTORE SWAP1 JUMP JUMPDEST PUSH2 0xBB5 SWAP1 PUSH2 0x1CBA PUSH2 0x1CAC SWAP5 SWAP4 PUSH1 0x1 PUSH1 0x40 MLOAD SWAP7 DUP8 SWAP5 PUSH1 0x20 DUP7 ADD SWAP1 PUSH2 0x1C7C JUMP JUMPDEST PUSH1 0x17 PUSH1 0xF9 SHL DUP2 MSTORE ADD SWAP1 PUSH2 0x1C7C JUMP JUMPDEST SUB PUSH1 0x1F NOT DUP2 ADD DUP5 MSTORE DUP4 PUSH2 0x2C2 JUMP JUMPDEST PUSH1 0x6 SWAP1 PUSH2 0x1D9B PUSH2 0x1D84 SWAP6 SWAP5 PUSH2 0x1D95 PUSH2 0xBB5 SWAP6 PUSH1 0x4 PUSH1 0x40 MLOAD SWAP10 DUP11 SWAP7 PUSH32 0x3C7376672077696474683D2233323022206865696768743D2234303022207669 PUSH1 0x20 DUP10 ADD MSTORE PUSH32 0x6577426F783D2230203020333230203430302220786D6C6E733D22687474703A PUSH1 0x40 DUP10 ADD MSTORE PUSH32 0x2F2F7777772E77332E6F72672F323030302F737667223E000000000000000000 PUSH1 0x60 DUP10 ADD MSTORE PUSH32 0x3C672073686170652D72656E646572696E673D2263726973704564676573223E PUSH1 0x77 DUP10 ADD MSTORE PUSH1 0x97 DUP9 ADD SWAP1 PUSH2 0x1C7C JUMP JUMPDEST PUSH4 0x1E17B39F PUSH1 0xE1 SHL DUP2 MSTORE ADD SWAP1 PUSH2 0x1C7C JUMP JUMPDEST SWAP1 PUSH2 0x1C7C JUMP JUMPDEST PUSH6 0x1E17B9BB339F PUSH1 0xD1 SHL DUP2 MSTORE SUB PUSH1 0x19 NOT DUP2 ADD DUP6 MSTORE ADD DUP4 PUSH2 0x2C2 JUMP JUMPDEST PUSH2 0x1DCE PUSH2 0x9DF PUSH2 0x52B SWAP3 PUSH0 MSTORE PUSH1 0x10 PUSH1 0x20 MSTORE PUSH1 0x40 PUSH0 KECCAK256 SWAP1 JUMP JUMPDEST PUSH1 0x80 DUP2 ADD SWAP1 PUSH2 0x1DE4 DUP3 MLOAD PUSH1 0x1 PUSH1 0x1 PUSH1 0x40 SHL SUB AND SWAP1 JUMP JUMPDEST PUSH1 0x1 PUSH1 0x1 PUSH1 0x40 SHL SUB DUP2 AND PUSH2 0x1ECE JUMPI POP PUSH2 0x1EC8 PUSH1 0x1 JUMPDEST PUSH1 0x60 DUP4 ADD SWAP3 PUSH2 0x1E50 PUSH2 0x1E15 PUSH2 0x8CE DUP7 MLOAD PUSH1 0x1 PUSH1 0x1 PUSH1 0x40 SHL SUB AND SWAP1 JUMP JUMPDEST SWAP3 PUSH1 0x1 PUSH1 0x1 PUSH1 0x40 SHL SUB PUSH2 0x1E48 PUSH2 0x1E43 PUSH1 0xA0 DUP7 ADD SWAP7 PUSH2 0x1E3D PUSH2 0x8CE DUP10 MLOAD PUSH1 0x1 PUSH1 0x1 PUSH1 0x40 SHL SUB AND SWAP1 JUMP JUMPDEST SWAP1 PUSH2 0x1C0D JUMP JUMPDEST PUSH2 0x1C1A JUMP JUMPDEST SWAP2 AND SWAP1 PUSH2 0x1C5E JUMP JUMPDEST SWAP1 PUSH2 0x1E7B PUSH2 0x1E75 PUSH2 0x1E63 PUSH1 0x64 DUP6 DIV PUSH2 0x2735 JUMP JUMPDEST PUSH2 0x1E6F PUSH1 0x64 DUP7 MOD PUSH2 0x2735 JUMP JUMPDEST SWAP1 PUSH2 0x1C8E JUMP JUMPDEST SWAP3 PUSH2 0x288B JUMP JUMPDEST SWAP3 PUSH2 0x1E85 DUP5 PUSH2 0x2F16 JUMP JUMPDEST SWAP7 PUSH2 0x1E8E PUSH2 0x300F JUMP JUMPDEST SWAP7 DUP4 MLOAD SWAP4 PUSH2 0x1EC2 PUSH2 0x1EB4 PUSH2 0x1EB4 PUSH2 0x1EB4 PUSH1 0x40 PUSH1 0x20 DUP7 ADD MLOAD SWAP6 ADD MLOAD PUSH1 0x1 PUSH1 0x1 PUSH1 0x40 SHL SUB AND SWAP1 JUMP JUMPDEST SWAP5 MLOAD PUSH1 0x1 PUSH1 0x1 PUSH1 0x40 SHL SUB AND SWAP1 JUMP JUMPDEST SWAP5 PUSH2 0x3C80 JUMP JUMPDEST SWAP2 PUSH2 0x1CC8 JUMP JUMPDEST PUSH2 0x1EC8 SWAP1 PUSH2 0x1DF9 JUMP JUMPDEST PUSH0 MSTORE PUSH1 0x10 PUSH1 0x20 MSTORE PUSH2 0x1FB5 PUSH2 0x1FB0 PUSH1 0x40 PUSH0 KECCAK256 PUSH1 0x1 PUSH1 0x1 PUSH1 0x40 SHL SUB PUSH2 0x1E48 PUSH2 0x1E43 PUSH1 0x2 PUSH1 0x40 MLOAD SWAP5 PUSH2 0x1F05 DUP7 PUSH2 0x26C JUMP JUMPDEST PUSH2 0x1F0E DUP2 PUSH2 0xC35 JUMP JUMPDEST DUP7 MSTORE PUSH2 0x1F1C PUSH1 0x1 DUP3 ADD PUSH2 0xC35 JUMP JUMPDEST PUSH1 0x20 DUP8 ADD MSTORE ADD SLOAD SWAP4 DUP4 DUP6 AND PUSH1 0x40 DUP3 ADD MSTORE PUSH2 0x1F7E PUSH1 0x60 DUP3 ADD SWAP6 DUP6 DUP2 PUSH1 0x40 SHR AND DUP8 MSTORE PUSH2 0x1F71 PUSH1 0xA0 PUSH2 0x1F61 PUSH1 0x80 DUP7 ADD SWAP4 PUSH2 0x967 DUP11 DUP3 PUSH1 0x80 SHR AND DUP7 SWAP1 PUSH1 0x1 PUSH1 0x1 PUSH1 0x40 SHL SUB AND SWAP1 MSTORE JUMP JUMPDEST PUSH1 0x1 PUSH1 0x1 PUSH1 0x40 SHL SUB AND SWAP5 ADD SWAP4 DUP5 MSTORE JUMP JUMPDEST MLOAD PUSH1 0x1 PUSH1 0x1 PUSH1 0x40 SHL SUB AND SWAP1 JUMP JUMPDEST DUP1 DUP6 AND PUSH2 0x1FBF JUMPI POP PUSH2 0x1E3D PUSH2 0x8CE PUSH2 0x1FA2 PUSH2 0x8CE PUSH1 0x1 SWAP9 MLOAD PUSH1 0x1 PUSH1 0x1 PUSH1 0x40 SHL SUB AND SWAP1 JUMP JUMPDEST SWAP3 MLOAD PUSH1 0x1 PUSH1 0x1 PUSH1 0x40 SHL SUB AND SWAP1 JUMP JUMPDEST PUSH2 0x288B JUMP JUMPDEST SWAP1 PUSH2 0x52B DUP3 PUSH2 0x3F87 JUMP JUMPDEST PUSH2 0x8CE PUSH2 0x1FA2 PUSH2 0x8CE PUSH2 0x1E3D SWAP4 SWAP9 PUSH2 0x1F71 JUMP JUMPDEST SWAP7 SWAP5 SWAP3 SWAP1 SWAP9 SWAP8 SWAP6 SWAP4 SWAP2 PUSH1 0x40 MLOAD SWAP10 DUP11 SWAP9 PUSH1 0x20 DUP11 ADD PUSH2 0x200E SWAP1 PUSH32 0x7B226E616D65223A20224B617274752050656D61696E204D504C204944202300 SWAP1 MSTORE JUMP JUMPDEST PUSH1 0x3F DUP11 ADD PUSH2 0x201B SWAP2 PUSH2 0x1C7C JUMP JUMPDEST PUSH3 0x11161 PUSH1 0xED SHL DUP2 MSTORE PUSH32 0x226465736372697074696F6E223A20224B6172747520644E4654204D504C2049 PUSH1 0x3 DUP3 ADD MSTORE PUSH32 0x6E646F6E657369612E2053746174697374696B2064616E2074616D70696C616E PUSH1 0x23 DUP3 ADD MSTORE PUSH32 0x206B617274752064697065726261727569206F746F6D61746973207669612043 PUSH1 0x43 DUP3 ADD MSTORE PUSH22 0x3430B4B73634B73590233AB731BA34B7B7399711161 PUSH1 0x55 SHL PUSH1 0x63 DUP3 ADD MSTORE PUSH1 0x79 ADD PUSH15 0x2261747472696275746573223A205B PUSH1 0x88 SHL DUP2 MSTORE PUSH32 0x7B2274726169745F74797065223A20224E69636B6E616D65222C202276616C75 PUSH1 0xF DUP3 ADD MSTORE PUSH5 0x32911D1011 PUSH1 0xD9 SHL PUSH1 0x2F DUP3 ADD MSTORE PUSH1 0x34 ADD PUSH2 0x210D SWAP2 PUSH2 0x1C7C JUMP JUMPDEST PUSH3 0x89F4B PUSH1 0xEA SHL DUP2 MSTORE PUSH32 0x7B2274726169745F74797065223A20224C616E65222C202276616C7565223A20 PUSH1 0x3 DUP3 ADD MSTORE PUSH1 0x11 PUSH1 0xF9 SHL PUSH1 0x23 DUP3 ADD MSTORE PUSH1 0x24 ADD PUSH2 0x2152 SWAP2 PUSH2 0x1C7C JUMP JUMPDEST PUSH3 0x89F4B PUSH1 0xEA SHL DUP2 MSTORE PUSH32 0x7B2274726169745F74797065223A202254696572222C202276616C7565223A20 PUSH1 0x3 DUP3 ADD MSTORE PUSH1 0x11 PUSH1 0xF9 SHL PUSH1 0x23 DUP3 ADD MSTORE PUSH1 0x24 ADD PUSH2 0x2197 SWAP2 PUSH2 0x1C7C JUMP JUMPDEST PUSH3 0x89F4B PUSH1 0xEA SHL DUP2 MSTORE PUSH32 0x7B2274726169745F74797065223A202247616D6573222C202276616C7565223A PUSH1 0x3 DUP3 ADD MSTORE PUSH1 0x1 PUSH1 0xFD SHL PUSH1 0x23 DUP3 ADD MSTORE PUSH1 0x24 ADD PUSH2 0x21DC SWAP2 PUSH2 0x1C7C JUMP JUMPDEST PUSH2 0x1F4B PUSH1 0xF2 SHL DUP2 MSTORE PUSH32 0x7B2274726169745F74797065223A20224B696C6C73222C202276616C7565223A PUSH1 0x2 DUP3 ADD MSTORE PUSH1 0x1 PUSH1 0xFD SHL PUSH1 0x22 DUP3 ADD MSTORE PUSH1 0x23 ADD PUSH2 0x2220 SWAP2 PUSH2 0x1C7C JUMP JUMPDEST PUSH2 0x1F4B PUSH1 0xF2 SHL DUP2 MSTORE PUSH32 0x7B2274726169745F74797065223A2022446561746873222C202276616C756522 PUSH1 0x2 DUP3 ADD MSTORE PUSH2 0x1D1 PUSH1 0xF5 SHL PUSH1 0x22 DUP3 ADD MSTORE PUSH1 0x24 ADD PUSH2 0x2265 SWAP2 PUSH2 0x1C7C JUMP JUMPDEST PUSH2 0x1F4B PUSH1 0xF2 SHL DUP2 MSTORE PUSH32 0x7B2274726169745F74797065223A202241737369737473222C202276616C7565 PUSH1 0x2 DUP3 ADD MSTORE PUSH3 0x111D1 PUSH1 0xED SHL PUSH1 0x22 DUP3 ADD MSTORE PUSH1 0x25 ADD PUSH2 0x22AB SWAP2 PUSH2 0x1C7C JUMP JUMPDEST PUSH1 0x7D PUSH1 0xF8 SHL DUP2 MSTORE PUSH3 0x2E961 PUSH1 0xED SHL PUSH1 0x1 DUP3 ADD MSTORE PUSH32 0x22696D616765223A2022646174613A696D6167652F7376672B786D6C3B626173 PUSH1 0x4 DUP3 ADD MSTORE PUSH4 0x194D8D0B PUSH1 0xE2 SHL PUSH1 0x24 DUP3 ADD MSTORE PUSH1 0x28 ADD PUSH2 0x22FD SWAP2 PUSH2 0x1C7C JUMP JUMPDEST PUSH2 0x227D PUSH1 0xF0 SHL DUP2 MSTORE SUB PUSH1 0x1D NOT DUP2 ADD DUP4 MSTORE PUSH1 0x2 ADD PUSH2 0xBB5 SWAP1 DUP4 PUSH2 0x2C2 JUMP JUMPDEST SWAP1 PUSH2 0xBB5 PUSH2 0x1CBA SWAP3 PUSH1 0x40 MLOAD SWAP4 DUP5 SWAP2 PUSH32 0x646174613A6170706C69636174696F6E2F6A736F6E3B6261736536342C000000 PUSH1 0x20 DUP5 ADD MSTORE PUSH1 0x3D DUP4 ADD SWAP1 PUSH2 0x1C7C JUMP JUMPDEST SWAP2 SWAP1 DUP1 MLOAD SWAP3 DUP4 MLOAD PUSH1 0x1 PUSH1 0x1 PUSH1 0x40 SHL SUB DUP2 GT PUSH2 0x287 JUMPI PUSH2 0x237B DUP2 PUSH2 0x1951 DUP5 SLOAD PUSH2 0xB46 JUMP JUMPDEST PUSH1 0x20 PUSH1 0x1F DUP3 GT PUSH1 0x1 EQ PUSH2 0x24B0 JUMPI PUSH2 0x2490 SWAP3 PUSH2 0x23B5 DUP4 PUSH1 0xA0 SWAP5 PUSH1 0x2 SWAP5 PUSH2 0xBB5 SWAP10 SWAP11 PUSH0 SWAP3 PUSH2 0x3D5 JUMPI POP POP DUP2 PUSH1 0x1 SHL SWAP2 PUSH0 NOT SWAP1 PUSH1 0x3 SHL SHR NOT AND OR SWAP1 JUMP JUMPDEST DUP2 SSTORE JUMPDEST PUSH2 0x23C9 PUSH1 0x20 DUP7 ADD MLOAD PUSH1 0x1 DUP4 ADD PUSH2 0x1930 JUMP JUMPDEST ADD SWAP3 PUSH2 0x23FF PUSH2 0x23E2 PUSH1 0x40 DUP4 ADD MLOAD PUSH1 0x1 PUSH1 0x1 PUSH1 0x40 SHL SUB AND SWAP1 JUMP JUMPDEST DUP6 SLOAD PUSH8 0xFFFFFFFFFFFFFFFF NOT AND PUSH1 0x1 PUSH1 0x1 PUSH1 0x40 SHL SUB SWAP1 SWAP2 AND OR DUP6 SSTORE JUMP JUMPDEST PUSH2 0x2443 PUSH2 0x2416 PUSH1 0x60 DUP4 ADD MLOAD PUSH1 0x1 PUSH1 0x1 PUSH1 0x40 SHL SUB AND SWAP1 JUMP JUMPDEST DUP6 SLOAD PUSH16 0xFFFFFFFFFFFFFFFF0000000000000000 NOT AND PUSH1 0x40 SWAP2 SWAP1 SWAP2 SHL PUSH8 0xFFFFFFFFFFFFFFFF PUSH1 0x40 SHL AND OR DUP6 SSTORE JUMP JUMPDEST PUSH2 0x2482 PUSH2 0x245A PUSH1 0x80 DUP4 ADD MLOAD PUSH1 0x1 PUSH1 0x1 PUSH1 0x40 SHL SUB AND SWAP1 JUMP JUMPDEST DUP6 SLOAD PUSH8 0xFFFFFFFFFFFFFFFF PUSH1 0x80 SHL NOT AND PUSH1 0x80 SWAP2 SWAP1 SWAP2 SHL PUSH8 0xFFFFFFFFFFFFFFFF PUSH1 0x80 SHL AND OR DUP6 SSTORE JUMP JUMPDEST ADD MLOAD PUSH1 0x1 PUSH1 0x1 PUSH1 0x40 SHL SUB AND SWAP1 JUMP JUMPDEST DUP2 SLOAD PUSH1 0x1 PUSH1 0x1 PUSH1 0xC0 SHL SUB AND PUSH1 0xC0 SWAP2 SWAP1 SWAP2 SHL PUSH1 0x1 PUSH1 0x1 PUSH1 0xC0 SHL SUB NOT AND OR SWAP1 SSTORE JUMP JUMPDEST PUSH1 0x1F NOT DUP3 AND SWAP6 PUSH2 0x24C3 DUP5 PUSH0 MSTORE PUSH1 0x20 PUSH0 KECCAK256 SWAP1 JUMP JUMPDEST SWAP7 PUSH0 JUMPDEST DUP2 DUP2 LT PUSH2 0x250D JUMPI POP DUP4 PUSH2 0xBB5 SWAP8 SWAP9 PUSH1 0x2 SWAP5 PUSH2 0x2490 SWAP8 SWAP5 PUSH1 0xA0 SWAP8 PUSH1 0x1 SWAP6 LT PUSH2 0x24F5 JUMPI JUMPDEST POP POP POP DUP2 SHL ADD DUP2 SSTORE PUSH2 0x23B8 JUMP JUMPDEST ADD MLOAD PUSH0 NOT PUSH1 0xF8 DUP5 PUSH1 0x3 SHL AND SHR NOT AND SWAP1 SSTORE PUSH0 DUP1 DUP1 PUSH2 0x24E8 JUMP JUMPDEST DUP4 DUP4 ADD MLOAD DUP10 SSTORE PUSH1 0x1 SWAP1 SWAP9 ADD SWAP8 PUSH1 0x20 SWAP4 DUP5 ADD SWAP4 ADD PUSH2 0x24C6 JUMP JUMPDEST PUSH0 NOT DUP2 EQ PUSH2 0xF7F JUMPI PUSH1 0x1 ADD SWAP1 JUMP JUMPDEST PUSH1 0x7 SLOAD PUSH1 0x1 PUSH1 0x1 PUSH1 0xA0 SHL SUB AND CALLER SUB PUSH2 0x2547 JUMPI JUMP JUMPDEST PUSH4 0x118CDAA7 PUSH1 0xE0 SHL PUSH0 MSTORE CALLER PUSH1 0x4 MSTORE PUSH1 0x24 PUSH0 REVERT JUMPDEST PUSH0 DUP2 DUP2 MSTORE PUSH1 0x2 PUSH1 0x20 MSTORE PUSH1 0x40 SWAP1 KECCAK256 SLOAD PUSH1 0x1 PUSH1 0x1 PUSH1 0xA0 SHL SUB AND SWAP1 DUP2 ISZERO PUSH2 0x257C JUMPI POP SWAP1 JUMP JUMPDEST PUSH4 0x7E273289 PUSH1 0xE0 SHL PUSH0 MSTORE PUSH1 0x4 MSTORE PUSH1 0x24 PUSH0 REVERT JUMPDEST SWAP1 DUP2 PUSH1 0x20 SWAP2 SUB SLT PUSH2 0x342 JUMPI MLOAD SWAP1 JUMP JUMPDEST PUSH1 0x40 DUP1 MLOAD SWAP1 SWAP2 SWAP1 PUSH2 0x25AE DUP4 DUP3 PUSH2 0x2C2 JUMP JUMPDEST PUSH1 0x1 DUP2 MSTORE SWAP2 PUSH1 0x1F NOT ADD DUP3 PUSH0 JUMPDEST DUP3 DUP2 LT PUSH2 0x25C6 JUMPI POP POP POP JUMP JUMPDEST DUP1 PUSH1 0x60 PUSH1 0x20 DUP1 SWAP4 DUP6 ADD ADD MSTORE ADD PUSH2 0x25BA JUMP JUMPDEST PUSH4 0x4E487B71 PUSH1 0xE0 SHL PUSH0 MSTORE PUSH1 0x32 PUSH1 0x4 MSTORE PUSH1 0x24 PUSH0 REVERT JUMPDEST DUP1 MLOAD ISZERO PUSH2 0x25F8 JUMPI PUSH1 0x20 ADD SWAP1 JUMP JUMPDEST PUSH2 0x25D7 JUMP JUMPDEST DUP1 MLOAD DUP3 LT ISZERO PUSH2 0x25F8 JUMPI PUSH1 0x20 SWAP2 PUSH1 0x5 SHL ADD ADD SWAP1 JUMP JUMPDEST SWAP1 PUSH2 0x26FE SWAP3 SWAP2 PUSH32 0x36C447AD99DF7457C4F3D38DAD77DA717D67A685E3ED93297FEFC4601D9BEB25 PUSH2 0x26C5 PUSH2 0x26B0 PUSH1 0x40 MLOAD PUSH2 0x264A DUP2 PUSH2 0x28C JUMP JUMPDEST PUSH0 DUP2 MSTORE PUSH0 PUSH1 0x20 DUP3 ADD MSTORE PUSH0 PUSH1 0x40 DUP3 ADD MSTORE PUSH1 0x60 DUP1 DUP3 ADD MSTORE PUSH1 0x60 PUSH1 0x80 DUP3 ADD MSTORE PUSH1 0x60 PUSH1 0xA0 DUP3 ADD MSTORE PUSH1 0x60 PUSH1 0xC0 DUP3 ADD MSTORE PUSH2 0x2685 PUSH2 0x267F PUSH2 0xB7E JUMP JUMPDEST DUP3 PUSH2 0x4CE1 JUMP JUMPDEST PUSH2 0x26AB PUSH2 0x2690 PUSH2 0x259D JUMP JUMPDEST DUP8 PUSH2 0x269A DUP3 PUSH2 0x25EB JUMP JUMPDEST MSTORE PUSH2 0x26A4 DUP2 PUSH2 0x25EB JUMP JUMPDEST POP DUP3 PUSH2 0x41F1 JUMP JUMPDEST PUSH2 0x4349 JUMP JUMPDEST PUSH1 0xB SLOAD PUSH1 0x1 PUSH1 0x1 PUSH1 0x40 SHL SUB AND PUSH1 0xA SLOAD SWAP2 PUSH2 0x4512 JUMP JUMPDEST SWAP5 DUP6 SWAP4 DUP4 PUSH2 0x26DB DUP7 PUSH0 MSTORE PUSH1 0x11 PUSH1 0x20 MSTORE PUSH1 0x40 PUSH0 KECCAK256 SWAP1 JUMP JUMPDEST SSTORE PUSH2 0x575 PUSH2 0x26F1 DUP7 PUSH0 MSTORE PUSH1 0x12 PUSH1 0x20 MSTORE PUSH1 0x40 PUSH0 KECCAK256 SWAP1 JUMP JUMPDEST DUP1 SLOAD PUSH1 0xFF NOT AND PUSH1 0x1 OR SWAP1 SSTORE JUMP JUMPDEST SUB SWAP1 LOG3 JUMP JUMPDEST SWAP1 PUSH2 0x270D DUP3 PUSH2 0x2E3 JUMP JUMPDEST PUSH2 0x271A PUSH1 0x40 MLOAD SWAP2 DUP3 PUSH2 0x2C2 JUMP JUMPDEST DUP3 DUP2 MSTORE DUP1 SWAP3 PUSH2 0x272B PUSH1 0x1F NOT SWAP2 PUSH2 0x2E3 JUMP JUMPDEST ADD SWAP1 PUSH1 0x20 CALLDATASIZE SWAP2 ADD CALLDATACOPY JUMP JUMPDEST DUP1 PUSH0 SWAP2 PUSH19 0x184F03E93FF9F4DAA797ED6E38ED64BF6A1F01 PUSH1 0x40 SHL DUP3 LT ISZERO PUSH2 0x2868 JUMPI JUMPDEST DUP1 PUSH14 0x4EE2D6D415B85ACEF8100000000 PUSH1 0xA SWAP3 LT ISZERO PUSH2 0x284C JUMPI JUMPDEST PUSH7 0x2386F26FC10000 DUP2 LT ISZERO PUSH2 0x2837 JUMPI JUMPDEST PUSH4 0x5F5E100 DUP2 LT ISZERO PUSH2 0x2825 JUMPI JUMPDEST PUSH2 0x2710 DUP2 LT ISZERO PUSH2 0x2815 JUMPI JUMPDEST PUSH1 0x64 DUP2 LT ISZERO PUSH2 0x2806 JUMPI JUMPDEST LT ISZERO PUSH2 0x27FB JUMPI JUMPDEST PUSH2 0x27E6 PUSH1 0x21 PUSH2 0x27BB PUSH1 0x1 DUP6 ADD PUSH2 0x2703 JUMP JUMPDEST SWAP4 DUP5 ADD ADD JUMPDEST PUSH0 NOT ADD SWAP2 PUSH16 0x181899199A1A9B1B9C1CB0B131B232B3 PUSH1 0x81 SHL PUSH1 0xA DUP3 MOD BYTE DUP4 MSTORE8 PUSH1 0xA SWAP1 DIV SWAP1 JUMP JUMPDEST DUP1 ISZERO PUSH2 0x27F6 JUMPI PUSH2 0x27E6 SWAP1 SWAP2 PUSH2 0x27C0 JUMP JUMPDEST POP POP SWAP1 JUMP JUMPDEST PUSH1 0x1 SWAP1 SWAP2 ADD SWAP1 PUSH2 0x27AA JUMP JUMPDEST PUSH1 0x2 SWAP1 PUSH1 0x64 SWAP1 DIV SWAP4 ADD SWAP3 PUSH2 0x27A3 JUMP JUMPDEST PUSH1 0x4 SWAP1 PUSH2 0x2710 SWAP1 DIV SWAP4 ADD SWAP3 PUSH2 0x2799 JUMP JUMPDEST PUSH1 0x8 SWAP1 PUSH4 0x5F5E100 SWAP1 DIV SWAP4 ADD SWAP3 PUSH2 0x278E JUMP JUMPDEST PUSH1 0x10 SWAP1 PUSH7 0x2386F26FC10000 SWAP1 DIV SWAP4 ADD SWAP3 PUSH2 0x2781 JUMP JUMPDEST PUSH1 0x20 SWAP1 PUSH14 0x4EE2D6D415B85ACEF8100000000 SWAP1 DIV SWAP4 ADD SWAP3 PUSH2 0x2771 JUMP JUMPDEST POP PUSH1 0x40 SWAP2 POP PUSH19 0x184F03E93FF9F4DAA797ED6E38ED64BF6A1F01 PUSH1 0x40 SHL DUP2 DIV PUSH2 0x2757 JUMP JUMPDEST PUSH2 0x5DC DUP2 LT ISZERO PUSH2 0x28C6 JUMPI PUSH2 0x3E8 DUP2 LT ISZERO PUSH2 0x28C0 JUMPI PUSH2 0x1F4 DUP2 LT ISZERO PUSH2 0x28BA JUMPI PUSH1 0x64 GT ISZERO PUSH2 0x28B5 JUMPI PUSH0 SWAP1 JUMP JUMPDEST PUSH1 0x1 SWAP1 JUMP JUMPDEST POP PUSH1 0x2 SWAP1 JUMP JUMPDEST POP PUSH1 0x3 SWAP1 JUMP JUMPDEST POP PUSH1 0x4 SWAP1 JUMP JUMPDEST PUSH1 0x40 MLOAD SWAP1 PUSH2 0x28DB PUSH1 0x40 DUP4 PUSH2 0x2C2 JUMP JUMPDEST PUSH1 0x7 DUP3 MSTORE PUSH7 0x23313531353135 PUSH1 0xC8 SHL PUSH1 0x20 DUP4 ADD MSTORE JUMP JUMPDEST PUSH1 0x40 MLOAD SWAP1 PUSH2 0x2900 PUSH1 0x40 DUP4 PUSH2 0x2C2 JUMP JUMPDEST PUSH1 0x7 DUP3 MSTORE PUSH7 0x11981919331A99 PUSH1 0xC9 SHL PUSH1 0x20 DUP4 ADD MSTORE JUMP JUMPDEST PUSH1 0x40 MLOAD SWAP1 PUSH2 0x2925 PUSH1 0x40 DUP4 PUSH2 0x2C2 JUMP JUMPDEST PUSH1 0x7 DUP3 MSTORE PUSH7 0x23656366306631 PUSH1 0xC8 SHL PUSH1 0x20 DUP4 ADD MSTORE JUMP JUMPDEST PUSH1 0x40 MLOAD SWAP1 PUSH2 0x294A PUSH1 0x40 DUP4 PUSH2 0x2C2 JUMP JUMPDEST PUSH1 0x7 DUP3 MSTORE PUSH7 0x23353535353535 PUSH1 0xC8 SHL PUSH1 0x20 DUP4 ADD MSTORE JUMP JUMPDEST PUSH1 0x40 MLOAD SWAP1 PUSH2 0x296F PUSH1 0x40 DUP4 PUSH2 0x2C2 JUMP JUMPDEST PUSH1 0x7 DUP3 MSTORE PUSH7 0x2331613065303 PUSH1 0xCC SHL PUSH1 0x20 DUP4 ADD MSTORE JUMP JUMPDEST PUSH1 0x40 MLOAD SWAP1 PUSH2 0x2994 PUSH1 0x40 DUP4 PUSH2 0x2C2 JUMP JUMPDEST PUSH1 0x7 DUP3 MSTORE PUSH7 0x2332613138303 PUSH1 0xCC SHL PUSH1 0x20 DUP4 ADD MSTORE JUMP JUMPDEST PUSH1 0x40 MLOAD SWAP1 PUSH2 0x29B9 PUSH1 0x40 DUP4 PUSH2 0x2C2 JUMP JUMPDEST PUSH1 0x7 DUP3 MSTORE PUSH7 0x11B1B21BB31999 PUSH1 0xC9 SHL PUSH1 0x20 DUP4 ADD MSTORE JUMP JUMPDEST PUSH1 0x40 MLOAD SWAP1 PUSH2 0x29DE PUSH1 0x40 DUP4 PUSH2 0x2C2 JUMP JUMPDEST PUSH1 0x7 DUP3 MSTORE PUSH7 0x23613036323261 PUSH1 0xC8 SHL PUSH1 0x20 DUP4 ADD MSTORE JUMP JUMPDEST PUSH1 0x40 MLOAD SWAP1 PUSH2 0x2A03 PUSH1 0x40 DUP4 PUSH2 0x2C2 JUMP JUMPDEST PUSH1 0x7 DUP3 MSTORE PUSH7 0x23316131613161 PUSH1 0xC8 SHL PUSH1 0x20 DUP4 ADD MSTORE JUMP JUMPDEST PUSH1 0x40 MLOAD SWAP1 PUSH2 0x2A28 PUSH1 0x40 DUP4 PUSH2 0x2C2 JUMP JUMPDEST PUSH1 0x7 DUP3 MSTORE PUSH7 0x23326132613261 PUSH1 0xC8 SHL PUSH1 0x20 DUP4 ADD MSTORE JUMP JUMPDEST PUSH1 0x40 MLOAD SWAP1 PUSH2 0x2A4D PUSH1 0x40 DUP4 PUSH2 0x2C2 JUMP JUMPDEST PUSH1 0x7 DUP3 MSTORE PUSH7 0x2363306330633 PUSH1 0xCC SHL PUSH1 0x20 DUP4 ADD MSTORE JUMP JUMPDEST PUSH1 0x40 MLOAD SWAP1 PUSH2 0x2A72 PUSH1 0x40 DUP4 PUSH2 0x2C2 JUMP JUMPDEST PUSH1 0x7 DUP3 MSTORE PUSH7 0x8D84E184E5859 PUSH1 0xCA SHL PUSH1 0x20 DUP4 ADD MSTORE JUMP JUMPDEST PUSH1 0x40 MLOAD SWAP1 PUSH2 0x2A97 PUSH1 0x40 DUP4 PUSH2 0x2C2 JUMP JUMPDEST PUSH1 0x7 DUP3 MSTORE PUSH7 0x2331613134303 PUSH1 0xCC SHL PUSH1 0x20 DUP4 ADD MSTORE JUMP JUMPDEST PUSH1 0x40 MLOAD SWAP1 PUSH2 0x2ABC PUSH1 0x40 DUP4 PUSH2 0x2C2 JUMP JUMPDEST PUSH1 0x7 DUP3 MSTORE PUSH7 0x2332613230303 PUSH1 0xCC SHL PUSH1 0x20 DUP4 ADD MSTORE JUMP JUMPDEST PUSH1 0x40 MLOAD SWAP1 PUSH2 0x2AE1 PUSH1 0x40 DUP4 PUSH2 0x2C2 JUMP JUMPDEST PUSH1 0x7 DUP3 MSTORE PUSH7 0x2366666437303 PUSH1 0xCC SHL PUSH1 0x20 DUP4 ADD MSTORE JUMP JUMPDEST PUSH1 0x40 MLOAD SWAP1 PUSH2 0x2B06 PUSH1 0x40 DUP4 PUSH2 0x2C2 JUMP JUMPDEST PUSH1 0x7 DUP3 MSTORE PUSH7 0x2363386136303 PUSH1 0xCC SHL PUSH1 0x20 DUP4 ADD MSTORE JUMP JUMPDEST PUSH1 0x40 MLOAD SWAP1 PUSH2 0x2B2B PUSH1 0x40 DUP4 PUSH2 0x2C2 JUMP JUMPDEST PUSH1 0x7 DUP3 MSTORE PUSH7 0x2331613030333 PUSH1 0xCC SHL PUSH1 0x20 DUP4 ADD MSTORE JUMP JUMPDEST PUSH1 0x40 MLOAD SWAP1 PUSH2 0x2B50 PUSH1 0x40 DUP4 PUSH2 0x2C2 JUMP JUMPDEST PUSH1 0x7 DUP3 MSTORE PUSH7 0x2332643030353 PUSH1 0xCC SHL PUSH1 0x20 DUP4 ADD MSTORE JUMP JUMPDEST PUSH1 0x40 MLOAD SWAP1 PUSH2 0x2B75 PUSH1 0x40 DUP4 PUSH2 0x2C2 JUMP JUMPDEST PUSH1 0x7 DUP3 MSTORE PUSH7 0x11B1331BB33333 PUSH1 0xC9 SHL PUSH1 0x20 DUP4 ADD MSTORE JUMP JUMPDEST PUSH1 0x40 MLOAD SWAP1 PUSH2 0x2B9A PUSH1 0x40 DUP4 PUSH2 0x2C2 JUMP JUMPDEST PUSH1 0x7 DUP3 MSTORE PUSH7 0x2361303230663 PUSH1 0xCC SHL PUSH1 0x20 DUP4 ADD MSTORE JUMP JUMPDEST SWAP5 SWAP3 SWAP1 SWAP7 SWAP6 SWAP4 SWAP2 PUSH1 0x40 MLOAD SWAP8 DUP9 SWAP7 PUSH1 0x20 DUP9 ADD PUSH32 0x3C7265637420783D22302220793D2230222077696474683D2233323022206865 SWAP1 MSTORE PUSH17 0x34B3B43A1E911A181811103334B6361E91 PUSH1 0x79 SHL PUSH1 0x40 DUP10 ADD MSTORE PUSH1 0x51 DUP9 ADD PUSH2 0x2C0B SWAP2 PUSH2 0x1C7C JUMP JUMPDEST PUSH3 0x11179F PUSH1 0xE9 SHL DUP2 MSTORE PUSH32 0x3C7265637420783D22382220793D2238222077696474683D2233303422206865 PUSH1 0x3 DUP3 ADD MSTORE PUSH17 0x34B3B43A1E91199C1A11103334B6361E91 PUSH1 0x79 SHL PUSH1 0x23 DUP3 ADD MSTORE PUSH2 0x2C63 SWAP2 PUSH1 0x34 SWAP1 SWAP2 ADD SWAP1 PUSH2 0x1C7C JUMP JUMPDEST PUSH3 0x11179F PUSH1 0xE9 SHL DUP2 MSTORE PUSH32 0x3C7265637420783D22382220793D2238222077696474683D2233303422206865 PUSH1 0x3 DUP3 ADD MSTORE PUSH32 0x696768743D22333834222066696C6C3D226E6F6E6522207374726F6B653D2200 PUSH1 0x23 DUP3 ADD MSTORE PUSH1 0x42 ADD PUSH2 0x2CC4 SWAP2 PUSH2 0x1C7C JUMP JUMPDEST PUSH32 0x22207374726F6B652D77696474683D22312E35222072783D2232222F3E000000 DUP2 MSTORE PUSH32 0x3C7465787420783D223136302220793D223336222066696C6C3D220000000000 PUSH1 0x1D DUP3 ADD MSTORE PUSH1 0x38 ADD PUSH2 0x2D19 SWAP2 PUSH2 0x1C7C JUMP JUMPDEST PUSH32 0x2220666F6E742D73697A653D2231362220746578742D616E63686F723D226D69 DUP2 MSTORE PUSH32 0x64646C652220666F6E742D7765696768743D22626F6C642220666F6E742D6661 PUSH1 0x20 DUP3 ADD MSTORE PUSH32 0x6D696C793D226D6F6E6F7370616365223E504C4159455220434152443C2F7465 PUSH1 0x40 DUP3 ADD MSTORE PUSH3 0x3C3A1F PUSH1 0xE9 SHL PUSH1 0x60 DUP3 ADD MSTORE PUSH1 0x63 ADD PUSH32 0x3C6C696E652078313D223230222079313D223530222078323D22333030222079 DUP2 MSTORE PUSH15 0x191E911A98111039BA3937B5B29E91 PUSH1 0x89 SHL PUSH1 0x20 DUP3 ADD MSTORE PUSH1 0x2F ADD PUSH2 0x2DDE SWAP2 PUSH2 0x1C7C JUMP JUMPDEST PUSH20 0x111039BA3937B5B296BBB4B23A341E911911179F PUSH1 0x61 SHL DUP2 MSTORE PUSH32 0x3C7265637420783D223233302220793D22333535222077696474683D22373822 PUSH1 0x14 DUP3 ADD MSTORE PUSH32 0x206865696768743D223232222072783D2234222066696C6C3D22000000000000 PUSH1 0x34 DUP3 ADD MSTORE PUSH1 0x4E ADD PUSH2 0x2E50 SWAP2 PUSH2 0x1C7C JUMP JUMPDEST PUSH3 0x11179F PUSH1 0xE9 SHL DUP2 MSTORE PUSH32 0x3C7465787420783D223236392220793D22333730222066696C6C3D2223666666 PUSH1 0x3 DUP3 ADD MSTORE PUSH32 0x6666662220666F6E742D73697A653D2231312220746578742D616E63686F723D PUSH1 0x23 DUP3 ADD MSTORE PUSH32 0x226D6964646C652220666F6E742D7765696768743D22626F6C642220666F6E74 PUSH1 0x43 DUP3 ADD MSTORE PUSH20 0x16B330B6B4B63C9E9136B7B737B9B830B1B2911F PUSH1 0x61 SHL PUSH1 0x63 DUP3 ADD MSTORE PUSH1 0x77 ADD PUSH2 0x2EF4 SWAP2 PUSH2 0x1C7C JUMP JUMPDEST PUSH7 0x1E17BA32BC3A1F PUSH1 0xC9 SHL DUP2 MSTORE SUB PUSH1 0x18 NOT DUP2 ADD DUP4 MSTORE PUSH1 0x7 ADD PUSH2 0xBB5 SWAP1 DUP4 PUSH2 0x2C2 JUMP JUMPDEST PUSH2 0x52B SWAP1 PUSH1 0xFF DUP2 AND PUSH1 0x4 DUP2 SUB PUSH2 0x2F5A JUMPI POP PUSH2 0x2F2F PUSH2 0x2B1C JUMP JUMPDEST SWAP1 PUSH2 0x2F38 PUSH2 0x2B41 JUMP JUMPDEST PUSH2 0x2F40 PUSH2 0x2B66 JUMP JUMPDEST DUP1 DUP1 SWAP3 PUSH2 0x2F54 PUSH2 0x2F4E PUSH2 0x2B8B JUMP JUMPDEST SWAP6 PUSH2 0x3F87 JUMP JUMPDEST SWAP6 PUSH2 0x2BB0 JUMP JUMPDEST PUSH1 0x3 DUP2 SUB PUSH2 0x2F8A JUMPI POP PUSH2 0x2F6B PUSH2 0x2A88 JUMP JUMPDEST SWAP1 PUSH2 0x2F74 PUSH2 0x2AAD JUMP JUMPDEST PUSH2 0x2F7C PUSH2 0x2AD2 JUMP JUMPDEST DUP1 DUP1 SWAP3 PUSH2 0x2F54 PUSH2 0x2F4E PUSH2 0x2AF7 JUMP JUMPDEST PUSH1 0x2 DUP2 SUB PUSH2 0x2FBA JUMPI POP PUSH2 0x2F9B PUSH2 0x29F4 JUMP JUMPDEST SWAP1 PUSH2 0x2FA4 PUSH2 0x2A19 JUMP JUMPDEST PUSH2 0x2FAC PUSH2 0x2A3E JUMP JUMPDEST DUP1 DUP1 SWAP3 PUSH2 0x2F54 PUSH2 0x2F4E PUSH2 0x2A63 JUMP JUMPDEST PUSH1 0x1 SUB PUSH2 0x2FE8 JUMPI PUSH2 0x2FC9 PUSH2 0x2960 JUMP JUMPDEST SWAP1 PUSH2 0x2FD2 PUSH2 0x2985 JUMP JUMPDEST PUSH2 0x2FDA PUSH2 0x29AA JUMP JUMPDEST DUP1 DUP1 SWAP3 PUSH2 0x2F54 PUSH2 0x2F4E PUSH2 0x29CF JUMP JUMPDEST PUSH2 0x2FF0 PUSH2 0x28CC JUMP JUMPDEST SWAP1 PUSH2 0x2FF9 PUSH2 0x28F1 JUMP JUMPDEST PUSH2 0x3001 PUSH2 0x2916 JUMP JUMPDEST DUP1 DUP1 SWAP3 PUSH2 0x2F54 PUSH2 0x2F4E PUSH2 0x293B JUMP JUMPDEST PUSH1 0x40 MLOAD SWAP1 PUSH2 0x301F PUSH2 0x8C0 DUP4 PUSH2 0x2C2 JUMP JUMPDEST PUSH2 0x894 DUP3 MSTORE PUSH32 0x3C73766720783D2231302220793D223330222077696474683D22313430222068 PUSH1 0x20 DUP4 ADD MSTORE PUSH32 0x65696768743D22333830222076696577426F783D223020302033322033322220 PUSH1 0x40 DUP4 ADD MSTORE PUSH32 0x73686170652D72656E646572696E673D2263726973704564676573223E3C6720 PUSH1 0x60 DUP4 ADD MSTORE PUSH32 0x7472616E73666F726D3D227472616E736C6174652833322C203029207363616C PUSH1 0x80 DUP4 ADD MSTORE PUSH32 0x65282D312C203129223E3C706174682066696C6C3D2223303030303030222064 PUSH1 0xA0 DUP4 ADD MSTORE PUSH32 0x3D224D3131203268313076314831317A204D3920336832763148397A204D3231 PUSH1 0xC0 DUP4 ADD MSTORE PUSH32 0x2033683276314832317A204D3820346831763148387A204D3233203468317631 PUSH1 0xE0 DUP4 ADD MSTORE PUSH32 0x4832337A204D3820356831763148387A204D32342035683176314832347A204D PUSH2 0x100 DUP4 ADD MSTORE PUSH32 0x3820366831763148387A204D32342036683176314832347A204D382037683176 PUSH2 0x120 DUP4 ADD MSTORE PUSH32 0x3148387A204D32342037683176314832347A204D3820386831763148387A204D PUSH2 0x140 DUP4 ADD MSTORE PUSH32 0x32342038683176314832347A204D3920396831763148397A204D323420396831 PUSH2 0x160 DUP4 ADD MSTORE PUSH32 0x76314832347A204D392031306831763148397A204D3233203130683176314832 PUSH2 0x180 DUP4 ADD MSTORE PUSH32 0x337A204D392031316831763148397A204D3132203131683276314831327A204D PUSH2 0x1A0 DUP4 ADD MSTORE PUSH32 0x3138203131683276314831387A204D3233203131683176314832337A204D3920 PUSH2 0x1C0 DUP4 ADD MSTORE PUSH32 0x31326831763148397A204D3233203132683176314832337A204D313020313368 PUSH2 0x1E0 DUP4 ADD MSTORE PUSH32 0x3176314831307A204D3232203133683176314832327A204D3130203134683176 PUSH2 0x200 DUP4 ADD MSTORE PUSH32 0x314831307A204D3232203134683176314832327A204D31302031356831763148 PUSH2 0x220 DUP4 ADD MSTORE PUSH32 0x31307A204D3232203135683176314832327A204D313120313668317631483131 PUSH2 0x240 DUP4 ADD MSTORE PUSH32 0x7A204D3231203136683176314832317A204D3131203137683176314831317A20 PUSH2 0x260 DUP4 ADD MSTORE PUSH32 0x4D3231203137683176314832317A204D3132203138683176314831327A204D32 PUSH2 0x280 DUP4 ADD MSTORE PUSH32 0x30203138683176314832307A204D3132203139683176314831327A204D323020 PUSH2 0x2A0 DUP4 ADD MSTORE PUSH32 0x3139683176314832307A204D3131203230683176314831317A204D3231203230 PUSH2 0x2C0 DUP4 ADD MSTORE PUSH32 0x683176314832317A204D392032316832763148397A204D323220323168327631 PUSH2 0x2E0 DUP4 ADD MSTORE PUSH32 0x4832327A204D372032326832763148377A204D3234203232683276314832347A PUSH2 0x300 DUP4 ADD MSTORE PUSH32 0x204D362032336831763148367A204D3236203233683176314832367A204D3520 PUSH2 0x320 DUP4 ADD MSTORE PUSH32 0x32346831763148357A204D3237203234683176314832377A204D342032356831 PUSH2 0x340 DUP4 ADD MSTORE PUSH32 0x763148347A204D3238203235683176314832387A204D33203236683176314833 PUSH2 0x360 DUP4 ADD MSTORE PUSH32 0x7A204D3239203236683176314832397A204D332032376831763148337A204D32 PUSH2 0x380 DUP4 ADD MSTORE PUSH32 0x39203237683176314832397A204D332032386831763148337A204D3239203238 PUSH2 0x3A0 DUP4 ADD MSTORE PUSH32 0x683176314832397A204D332032396831763148337A204D323920323968317631 PUSH2 0x3C0 DUP4 ADD MSTORE PUSH32 0x4832397A204D332033306831763148337A204D3239203330683176314832397A PUSH2 0x3E0 DUP4 ADD MSTORE PUSH32 0x204D33203331683237763148337A22202F3E3C706174682066696C6C3D222330 PUSH2 0x400 DUP4 ADD MSTORE PUSH32 0x30303030302220643D224D3131203368313076314831317A204D392034683134 PUSH2 0x420 DUP4 ADD MSTORE PUSH32 0x763148397A204D392035683135763148397A204D392036683135763148397A20 PUSH2 0x440 DUP4 ADD MSTORE PUSH32 0x4D392037683135763148397A204D3920386833763148397A204D323020386834 PUSH2 0x460 DUP4 ADD MSTORE PUSH32 0x76314832307A204D31302039683276314831307A204D32322039683276314832 PUSH2 0x480 DUP4 ADD MSTORE PUSH32 0x327A204D3130203130683176314831307A204D3232203130683176314832327A PUSH2 0x4A0 DUP4 ADD MSTORE PUSH32 0x22202F3E3C706174682066696C6C3D22236534623539302220643D224D313220 PUSH2 0x4C0 DUP4 ADD MSTORE PUSH32 0x38683876314831327A204D3132203968313076314831327A204D313120313068 PUSH2 0x4E0 DUP4 ADD MSTORE PUSH32 0x313176314831317A204D3130203131683276314831307A204D31342031316834 PUSH2 0x500 DUP4 ADD MSTORE PUSH32 0x76314831347A204D3230203131683376314832307A204D313020313268313376 PUSH2 0x520 DUP4 ADD MSTORE PUSH32 0x314831307A204D3131203133683476314831317A204D31372031336835763148 PUSH2 0x540 DUP4 ADD MSTORE PUSH32 0x31377A204D313120313468313176314831317A204D3131203135683376314831 PUSH2 0x560 DUP4 ADD MSTORE PUSH32 0x317A204D3138203135683476314831387A204D3132203136683976314831327A PUSH2 0x580 DUP4 ADD MSTORE PUSH32 0x204D3132203137683976314831327A204D3133203138683776314831337A2220 PUSH2 0x5A0 DUP4 ADD MSTORE PUSH32 0x2F3E3C706174682066696C6C3D22236335393437332220643D224D3135203133 PUSH2 0x5C0 DUP4 ADD MSTORE PUSH32 0x683276314831357A204D3133203139683776314831337A204D31342032306835 PUSH2 0x5E0 DUP4 ADD MSTORE PUSH32 0x76314831347A22202F3E3C706174682066696C6C3D2223626436613466222064 PUSH2 0x600 DUP4 ADD MSTORE PUSH32 0x3D224D3134203135683476314831347A22202F3E3C706174682066696C6C3D22 PUSH2 0x620 DUP4 ADD MSTORE PUSH32 0x236666666666662220643D224D3132203230683276314831327A204D31392032 PUSH2 0x640 DUP4 ADD MSTORE PUSH32 0x30683276314831397A204D3131203231683376314831317A204D313920323168 PUSH2 0x660 DUP4 ADD MSTORE PUSH32 0x3376314831397A204D392032326834763148397A204D32302032326834763148 PUSH2 0x680 DUP4 ADD MSTORE PUSH32 0x32307A204D372032336835763148377A204D3231203233683576314832317A20 PUSH2 0x6A0 DUP4 ADD MSTORE PUSH32 0x4D362032346835763148367A204D3232203234683576314832327A204D352032 PUSH2 0x6C0 DUP4 ADD MSTORE PUSH32 0x356835763148357A204D3133203235683276314831337A204D31362032356832 PUSH2 0x6E0 DUP4 ADD MSTORE PUSH32 0x76314831367A204D3139203235683276314831397A204D323320323568357631 PUSH2 0x700 DUP4 ADD MSTORE PUSH32 0x4832337A204D342032366835763148347A204D3234203236683576314832347A PUSH2 0x720 DUP4 ADD MSTORE PUSH32 0x204D342032376834763148347A204D3235203237683476314832357A204D3420 PUSH2 0x740 DUP4 ADD MSTORE PUSH32 0x32386834763148347A204D3235203238683476314832357A204D342032396834 PUSH2 0x760 DUP4 ADD MSTORE PUSH32 0x763148347A204D3235203239683476314832357A204D36203330683276314836 PUSH2 0x780 DUP4 ADD MSTORE PUSH32 0x7A204D3235203330683276314832357A22202F3E3C706174682066696C6C3D22 PUSH2 0x7A0 DUP4 ADD MSTORE PUSH32 0x236566383131352220643D224D3134203231683576314831347A204D31332032 PUSH2 0x7C0 DUP4 ADD MSTORE PUSH32 0x32683776314831337A204D3132203233683976314831327A204D313120323468 PUSH2 0x7E0 DUP4 ADD MSTORE PUSH32 0x313176314831317A204D3130203235683376314831307A204D31352032356831 PUSH2 0x800 DUP4 ADD MSTORE PUSH32 0x76314831357A204D3138203235683176314831387A204D323120323568327631 PUSH2 0x820 DUP4 ADD MSTORE PUSH32 0x4832317A204D39203236683135763148397A204D38203237683137763148387A PUSH2 0x840 DUP4 ADD MSTORE PUSH32 0x204D38203238683137763148387A204D38203239683137763148387A204D3420 PUSH2 0x860 DUP4 ADD MSTORE PUSH32 0x33306832763148347A204D38203330683137763148387A204D32372033306832 PUSH2 0x880 DUP4 ADD MSTORE PUSH20 0x3B18A4191BBD1110179F1E17B39F1E17B9BB339F PUSH1 0x61 SHL PUSH2 0x8A0 DUP4 ADD MSTORE JUMP JUMPDEST PUSH1 0x4 SWAP1 PUSH2 0x3C67 PUSH2 0x3B34 SWAP6 SWAP5 PUSH2 0x1D95 PUSH1 0x7 PUSH2 0x3BE3 PUSH2 0xBB5 SWAP8 PUSH1 0x9A PUSH1 0x40 MLOAD SWAP12 DUP13 SWAP9 PUSH32 0x3C67207472616E73666F726D3D227472616E736C617465283138302C20393529 PUSH1 0x20 DUP12 ADD MSTORE PUSH32 0x222073686170652D72656E646572696E673D2263726973704564676573223E00 PUSH1 0x40 DUP12 ADD MSTORE PUSH32 0x3C7465787420783D222D33302220793D223230222066696C6C3D220000000000 PUSH1 0x5F DUP12 ADD MSTORE PUSH1 0x7A DUP11 ADD SWAP1 PUSH2 0x1C7C JUMP JUMPDEST PUSH0 MLOAD PUSH1 0x20 PUSH2 0x5429 PUSH0 CODECOPY PUSH0 MLOAD SWAP1 PUSH0 MSTORE DUP2 MSTORE PUSH32 0x6E6F7370616365223E504C41594552204E414D453A3C2F746578743E00000000 PUSH1 0x20 DUP3 ADD MSTORE PUSH32 0x3C7465787420783D222D33302220793D223436222066696C6C3D222365636630 PUSH1 0x3C DUP3 ADD MSTORE PUSH32 0x66312220666F6E742D73697A653D2232302220666F6E742D7765696768743D22 PUSH1 0x5C DUP3 ADD MSTORE PUSH32 0x626F6C642220666F6E742D66616D696C793D226D6F6E6F7370616365223E0000 PUSH1 0x7C DUP3 ADD MSTORE ADD SWAP1 PUSH2 0x1C7C JUMP JUMPDEST PUSH7 0x1E17BA32BC3A1F PUSH1 0xC9 SHL DUP2 MSTORE ADD PUSH1 0x5F SWAP1 PUSH32 0x3C6C696E652078313D222D3235222079313D223638222078323D223132302220 DUP2 MSTORE PUSH32 0x79323D22363822207374726F6B653D222335353522207374726F6B652D776964 PUSH1 0x20 DUP3 ADD MSTORE PUSH32 0x74683D223322207374726F6B652D6461736861727261793D22382C36222F3E00 PUSH1 0x40 DUP3 ADD MSTORE ADD SWAP1 JUMP JUMPDEST PUSH4 0x1E17B39F PUSH1 0xE1 SHL DUP2 MSTORE SUB PUSH1 0x1B NOT DUP2 ADD DUP6 MSTORE ADD DUP4 PUSH2 0x2C2 JUMP JUMPDEST SWAP5 SWAP1 SWAP3 SWAP4 PUSH2 0x3CAD SWAP5 PUSH1 0xFF PUSH2 0x52B SWAP10 SWAP9 SWAP5 SWAP9 AND PUSH1 0x4 DUP2 EQ PUSH0 EQ PUSH2 0x3CB3 JUMPI POP PUSH2 0x3CA5 PUSH2 0x2B66 JUMP JUMPDEST SWAP8 DUP9 SWAP6 PUSH2 0x45FD JUMP JUMPDEST SWAP2 PUSH2 0x3A99 JUMP JUMPDEST PUSH1 0x3 DUP2 SUB PUSH2 0x3CC4 JUMPI POP PUSH2 0x3CA5 PUSH2 0x2AD2 JUMP JUMPDEST PUSH1 0x2 DUP2 SUB PUSH2 0x3CD5 JUMPI POP PUSH2 0x3CA5 PUSH2 0x2A3E JUMP JUMPDEST PUSH1 0x1 SUB PUSH2 0x3CE4 JUMPI PUSH2 0x3CA5 PUSH2 0x29AA JUMP JUMPDEST PUSH1 0x40 MLOAD PUSH2 0x3CF2 PUSH1 0x40 DUP3 PUSH2 0x2C2 JUMP JUMPDEST PUSH1 0x7 DUP2 MSTORE PUSH7 0x11999A1C9C3231 PUSH1 0xC9 SHL PUSH1 0x20 DUP3 ADD MSTORE SWAP8 DUP9 SWAP6 PUSH2 0x45FD JUMP JUMPDEST SWAP1 DUP2 PUSH1 0x20 SWAP2 SUB SLT PUSH2 0x342 JUMPI MLOAD PUSH2 0x52B DUP2 PUSH2 0x45B JUMP JUMPDEST PUSH1 0x1 PUSH1 0x1 PUSH1 0xA0 SHL SUB SWAP2 DUP3 AND DUP2 MSTORE SWAP2 AND PUSH1 0x20 DUP3 ADD MSTORE PUSH1 0x40 DUP2 ADD SWAP2 SWAP1 SWAP2 MSTORE PUSH1 0x80 PUSH1 0x60 DUP3 ADD DUP2 SWAP1 MSTORE PUSH2 0x52B SWAP3 SWAP2 ADD SWAP1 PUSH2 0x4F6 JUMP JUMPDEST PUSH1 0x40 MLOAD RETURNDATASIZE PUSH0 DUP3 RETURNDATACOPY RETURNDATASIZE SWAP1 REVERT JUMPDEST RETURNDATASIZE ISZERO PUSH2 0x3D89 JUMPI RETURNDATASIZE SWAP1 PUSH2 0x3D70 DUP3 PUSH2 0x2E3 JUMP JUMPDEST SWAP2 PUSH2 0x3D7E PUSH1 0x40 MLOAD SWAP4 DUP5 PUSH2 0x2C2 JUMP JUMPDEST DUP3 MSTORE RETURNDATASIZE PUSH0 PUSH1 0x20 DUP5 ADD RETURNDATACOPY JUMP JUMPDEST PUSH1 0x60 SWAP1 JUMP JUMPDEST SWAP1 SWAP3 DUP4 EXTCODESIZE PUSH2 0x3D9D JUMPI JUMPDEST POP POP POP POP JUMP JUMPDEST PUSH1 0x40 MLOAD PUSH4 0xA85BD01 PUSH1 0xE1 SHL DUP2 MSTORE SWAP3 PUSH1 0x20 SWAP3 DUP5 SWAP3 DUP4 SWAP3 PUSH2 0x3DC1 SWAP3 PUSH0 SWAP1 PUSH1 0x4 DUP7 ADD PUSH2 0x3D23 JUMP JUMPDEST SUB DUP2 PUSH0 PUSH1 0x1 PUSH1 0x1 PUSH1 0xA0 SHL SUB DUP8 AND GAS CALL PUSH0 SWAP2 DUP2 PUSH2 0x3E4E JUMPI JUMPDEST POP PUSH2 0x3E12 JUMPI POP PUSH2 0x3DE6 PUSH2 0x3D5F JUMP JUMPDEST DUP1 MLOAD SWAP2 SWAP1 DUP3 PUSH2 0x3E0B JUMPI PUSH4 0x32505749 PUSH1 0xE1 SHL PUSH0 MSTORE PUSH1 0x1 PUSH1 0x1 PUSH1 0xA0 SHL SUB DUP3 AND PUSH1 0x4 MSTORE PUSH1 0x24 PUSH0 REVERT JUMPDEST PUSH1 0x20 SWAP2 POP ADD REVERT JUMPDEST PUSH1 0x1 PUSH1 0x1 PUSH1 0xE0 SHL SUB NOT AND PUSH4 0x757A42FF PUSH1 0xE1 SHL ADD PUSH2 0x3E33 JUMPI POP PUSH0 DUP1 DUP1 DUP1 PUSH2 0x3D97 JUMP JUMPDEST PUSH4 0x32505749 PUSH1 0xE1 SHL PUSH0 MSTORE PUSH1 0x1 PUSH1 0x1 PUSH1 0xA0 SHL SUB AND PUSH1 0x4 MSTORE PUSH1 0x24 PUSH0 REVERT JUMPDEST PUSH2 0x3E71 SWAP2 SWAP3 POP PUSH1 0x20 RETURNDATASIZE PUSH1 0x20 GT PUSH2 0x3E78 JUMPI JUMPDEST PUSH2 0x3E69 DUP2 DUP4 PUSH2 0x2C2 JUMP JUMPDEST DUP2 ADD SWAP1 PUSH2 0x3D0E JUMP JUMPDEST SWAP1 PUSH0 PUSH2 0x3DD8 JUMP JUMPDEST POP RETURNDATASIZE PUSH2 0x3E5F JUMP JUMPDEST SWAP4 SWAP2 SWAP4 DUP5 EXTCODESIZE PUSH2 0x3E90 JUMPI JUMPDEST POP POP POP POP POP JUMP JUMPDEST PUSH2 0x3EB1 PUSH1 0x20 SWAP4 PUSH1 0x40 MLOAD SWAP6 DUP7 SWAP5 DUP6 SWAP5 PUSH4 0xA85BD01 PUSH1 0xE1 SHL DUP7 MSTORE PUSH1 0x4 DUP7 ADD PUSH2 0x3D23 JUMP JUMPDEST SUB DUP2 PUSH0 PUSH1 0x1 PUSH1 0x1 PUSH1 0xA0 SHL SUB DUP8 AND GAS CALL PUSH0 SWAP2 DUP2 PUSH2 0x3EF8 JUMPI JUMPDEST POP PUSH2 0x3ED6 JUMPI POP PUSH2 0x3DE6 PUSH2 0x3D5F JUMP JUMPDEST PUSH1 0x1 PUSH1 0x1 PUSH1 0xE0 SHL SUB NOT AND PUSH4 0x757A42FF PUSH1 0xE1 SHL ADD PUSH2 0x3E33 JUMPI POP PUSH0 DUP1 DUP1 DUP1 DUP1 PUSH2 0x3E89 JUMP JUMPDEST PUSH2 0x3F12 SWAP2 SWAP3 POP PUSH1 0x20 RETURNDATASIZE PUSH1 0x20 GT PUSH2 0x3E78 JUMPI PUSH2 0x3E69 DUP2 DUP4 PUSH2 0x2C2 JUMP JUMPDEST SWAP1 PUSH0 PUSH2 0x3EC8 JUMP JUMPDEST PUSH1 0x40 MLOAD SWAP1 PUSH2 0x3F28 PUSH1 0x40 DUP4 PUSH2 0x2C2 JUMP JUMPDEST PUSH1 0x6 DUP3 MSTORE PUSH6 0x29A4A62B22A9 PUSH1 0xD1 SHL PUSH1 0x20 DUP4 ADD MSTORE JUMP JUMPDEST PUSH1 0x40 MLOAD SWAP1 PUSH2 0x3F4C PUSH1 0x40 DUP4 PUSH2 0x2C2 JUMP JUMPDEST PUSH1 0x6 DUP3 MSTORE PUSH6 0x42524F4E5A45 PUSH1 0xD0 SHL PUSH1 0x20 DUP4 ADD MSTORE JUMP JUMPDEST PUSH1 0x40 MLOAD SWAP1 PUSH2 0x3F70 PUSH1 0x40 DUP4 PUSH2 0x2C2 JUMP JUMPDEST PUSH1 0x8 DUP3 MSTORE PUSH8 0x155394905392D151 PUSH1 0xC2 SHL PUSH1 0x20 DUP4 ADD MSTORE JUMP JUMPDEST PUSH1 0xFF AND PUSH1 0x4 DUP2 EQ PUSH2 0x3FE5 JUMPI PUSH1 0x3 DUP2 EQ PUSH2 0x3FC2 JUMPI PUSH1 0x2 DUP2 EQ PUSH2 0x3FB9 JUMPI PUSH1 0x1 EQ PUSH2 0x3FB1 JUMPI PUSH2 0x52B PUSH2 0x3F61 JUMP JUMPDEST PUSH2 0x52B PUSH2 0x3F3D JUMP JUMPDEST POP PUSH2 0x52B PUSH2 0x3F19 JUMP JUMPDEST POP PUSH1 0x40 MLOAD PUSH2 0x3FD1 PUSH1 0x40 DUP3 PUSH2 0x2C2 JUMP JUMPDEST PUSH1 0x4 DUP2 MSTORE PUSH4 0x11D3D311 PUSH1 0xE2 SHL PUSH1 0x20 DUP3 ADD MSTORE SWAP1 JUMP JUMPDEST POP PUSH1 0x40 MLOAD PUSH2 0x3FF4 PUSH1 0x40 DUP3 PUSH2 0x2C2 JUMP JUMPDEST PUSH1 0x6 DUP2 MSTORE PUSH6 0x131151D15391 PUSH1 0xD2 SHL PUSH1 0x20 DUP3 ADD MSTORE SWAP1 JUMP JUMPDEST SWAP1 PUSH1 0x40 MLOAD SWAP1 PUSH2 0x401A PUSH1 0x20 DUP4 PUSH2 0x2C2 JUMP JUMPDEST PUSH0 DUP3 MSTORE PUSH1 0x1 PUSH1 0x1 PUSH1 0xA0 SHL SUB DUP4 AND DUP1 ISZERO PUSH2 0x1B39 JUMPI PUSH0 DUP3 DUP2 MSTORE PUSH1 0x2 PUSH1 0x20 MSTORE PUSH1 0x40 SWAP1 KECCAK256 SLOAD PUSH1 0x1 PUSH1 0x1 PUSH1 0xA0 SHL SUB AND DUP1 ISZERO ISZERO SWAP2 DUP4 SWAP1 DUP4 PUSH2 0x40CB JUMPI JUMPDEST PUSH1 0x1 PUSH1 0x1 PUSH1 0xA0 SHL SUB DUP8 AND PUSH0 SWAP1 DUP2 MSTORE PUSH1 0x3 PUSH1 0x20 MSTORE PUSH1 0x40 SWAP1 KECCAK256 PUSH1 0x1 DUP2 SLOAD ADD SWAP1 SSTORE PUSH2 0x4084 DUP8 PUSH2 0x6EF DUP5 PUSH0 MSTORE PUSH1 0x2 PUSH1 0x20 MSTORE PUSH1 0x40 PUSH0 KECCAK256 SWAP1 JUMP JUMPDEST DUP3 PUSH32 0xDDF252AD1BE2C89B69C2B068FC378DAA952BA7F163C4A11628F55A4DF523B3EF PUSH0 DUP1 LOG4 POP PUSH2 0x40B8 JUMPI PUSH2 0xBB5 SWAP3 CALLER PUSH2 0x3D8E JUMP JUMPDEST PUSH4 0x39E35637 PUSH1 0xE1 SHL PUSH0 MSTORE PUSH0 PUSH1 0x4 MSTORE PUSH1 0x24 PUSH0 REVERT JUMPDEST PUSH2 0x40D4 DUP3 PUSH2 0x40F7 JUMP JUMPDEST PUSH1 0x1 PUSH1 0x1 PUSH1 0xA0 SHL SUB DUP4 AND PUSH0 SWAP1 DUP2 MSTORE PUSH1 0x3 PUSH1 0x20 MSTORE PUSH1 0x40 SWAP1 KECCAK256 DUP1 SLOAD PUSH0 NOT ADD SWAP1 SSTORE PUSH2 0x4050 JUMP JUMPDEST PUSH2 0x4109 SWAP1 PUSH0 MSTORE PUSH1 0x4 PUSH1 0x20 MSTORE PUSH1 0x40 PUSH0 KECCAK256 SWAP1 JUMP JUMPDEST DUP1 SLOAD PUSH1 0x1 PUSH1 0x1 PUSH1 0xA0 SHL SUB NOT AND SWAP1 SSTORE JUMP JUMPDEST SWAP1 SWAP2 SWAP1 PUSH2 0x4137 PUSH1 0x1 PUSH1 0x1 PUSH1 0xA0 SHL SUB DUP5 AND DUP1 ISZERO ISZERO SWAP1 DUP2 PUSH2 0x417F JUMPI POP ISZERO SWAP1 JUMP JUMPDEST PUSH2 0x4140 JUMPI POP POP POP JUMP JUMPDEST PUSH1 0x1 PUSH1 0x1 PUSH1 0xA0 SHL SUB AND PUSH2 0x415F JUMPI PUSH4 0x7E273289 PUSH1 0xE0 SHL PUSH0 MSTORE PUSH1 0x4 MSTORE PUSH1 0x24 PUSH0 REVERT JUMPDEST PUSH4 0x177E802F PUSH1 0xE0 SHL PUSH0 MSTORE PUSH1 0x1 PUSH1 0x1 PUSH1 0xA0 SHL SUB SWAP1 SWAP2 AND PUSH1 0x4 MSTORE PUSH1 0x24 MSTORE PUSH1 0x44 PUSH0 REVERT JUMPDEST PUSH1 0x1 PUSH1 0x1 PUSH1 0xA0 SHL SUB DUP5 AND DUP1 DUP3 EQ SWAP3 POP DUP3 ISZERO PUSH2 0x41BF JUMPI JUMPDEST POP DUP2 ISZERO PUSH2 0x41A1 JUMPI POP ISZERO SWAP1 JUMP JUMPDEST PUSH0 DUP6 DUP2 MSTORE PUSH1 0x4 PUSH1 0x20 MSTORE PUSH1 0x40 SWAP1 KECCAK256 SLOAD PUSH1 0x1 PUSH1 0x1 PUSH1 0xA0 SHL SUB AND EQ ISZERO SWAP2 SWAP1 POP JUMP JUMPDEST SWAP1 SWAP2 POP PUSH0 MSTORE PUSH1 0x5 PUSH1 0x20 MSTORE PUSH1 0xFF PUSH2 0x41E8 DUP7 PUSH1 0x40 PUSH0 KECCAK256 SWAP1 PUSH1 0x1 DUP1 PUSH1 0xA0 SHL SUB AND PUSH0 MSTORE PUSH1 0x20 MSTORE PUSH1 0x40 PUSH0 KECCAK256 SWAP1 JUMP JUMPDEST SLOAD AND SWAP1 PUSH0 PUSH2 0x4195 JUMP JUMPDEST DUP2 MLOAD ISZERO PUSH2 0x41FE JUMPI PUSH1 0xA0 ADD MSTORE JUMP JUMPDEST PUSH4 0xFE936CB7 PUSH1 0xE0 SHL PUSH0 MSTORE PUSH1 0x4 PUSH0 REVERT JUMPDEST PUSH1 0x40 MLOAD SWAP1 PUSH2 0x421C PUSH1 0x40 DUP4 PUSH2 0x2C2 JUMP JUMPDEST PUSH1 0xC DUP3 MSTORE PUSH12 0x31B7B232A637B1B0BA34B7B7 PUSH1 0xA1 SHL PUSH1 0x20 DUP4 ADD MSTORE JUMP JUMPDEST PUSH4 0x4E487B71 PUSH1 0xE0 SHL PUSH0 MSTORE PUSH1 0x21 PUSH1 0x4 MSTORE PUSH1 0x24 PUSH0 REVERT JUMPDEST PUSH1 0x3 GT ISZERO PUSH2 0x4255 JUMPI JUMP JUMPDEST PUSH2 0x4237 JUMP JUMPDEST PUSH1 0x40 MLOAD SWAP1 PUSH2 0x4269 PUSH1 0x40 DUP4 PUSH2 0x2C2 JUMP JUMPDEST PUSH1 0x8 DUP3 MSTORE PUSH8 0x6C616E6775616765 PUSH1 0xC0 SHL PUSH1 0x20 DUP4 ADD MSTORE JUMP JUMPDEST PUSH1 0x1 GT ISZERO PUSH2 0x4255 JUMPI JUMP JUMPDEST PUSH1 0x40 MLOAD SWAP1 PUSH2 0x4299 PUSH1 0x40 DUP4 PUSH2 0x2C2 JUMP JUMPDEST PUSH1 0x6 DUP3 MSTORE PUSH6 0x736F75726365 PUSH1 0xD0 SHL PUSH1 0x20 DUP4 ADD MSTORE JUMP JUMPDEST PUSH1 0x40 MLOAD SWAP1 PUSH2 0x42BD PUSH1 0x40 DUP4 PUSH2 0x2C2 JUMP JUMPDEST PUSH1 0x4 DUP3 MSTORE PUSH4 0x61726773 PUSH1 0xE0 SHL PUSH1 0x20 DUP4 ADD MSTORE JUMP JUMPDEST PUSH1 0x40 MLOAD SWAP1 PUSH2 0x42DF PUSH1 0x40 DUP4 PUSH2 0x2C2 JUMP JUMPDEST PUSH1 0xF DUP3 MSTORE PUSH15 0x39B2B1B932BA39A637B1B0BA34B7B7 PUSH1 0x89 SHL PUSH1 0x20 DUP4 ADD MSTORE JUMP JUMPDEST PUSH1 0x40 MLOAD SWAP1 PUSH2 0x430C PUSH1 0x40 DUP4 PUSH2 0x2C2 JUMP JUMPDEST PUSH1 0x7 DUP3 MSTORE PUSH7 0x73656372657473 PUSH1 0xC8 SHL PUSH1 0x20 DUP4 ADD MSTORE JUMP JUMPDEST PUSH1 0x40 MLOAD SWAP1 PUSH2 0x4331 PUSH1 0x40 DUP4 PUSH2 0x2C2 JUMP JUMPDEST PUSH1 0x9 DUP3 MSTORE PUSH9 0x627974657341726773 PUSH1 0xB8 SHL PUSH1 0x20 DUP4 ADD MSTORE JUMP JUMPDEST PUSH2 0x4351 PUSH2 0x4D1F JUMP JUMPDEST SWAP1 PUSH2 0x4363 PUSH2 0x435D PUSH2 0x420D JUMP JUMPDEST DUP4 PUSH2 0x4D4F JUMP JUMPDEST PUSH2 0x4380 DUP2 MLOAD PUSH2 0x4371 DUP2 PUSH2 0x424B JUMP JUMPDEST PUSH2 0x437A DUP2 PUSH2 0x424B JUMP JUMPDEST DUP4 PUSH2 0x4E38 JUMP JUMPDEST PUSH2 0x438B PUSH2 0x435D PUSH2 0x425A JUMP JUMPDEST PUSH2 0x43A5 PUSH1 0x40 DUP3 ADD MLOAD PUSH2 0x439C DUP2 PUSH2 0x4280 JUMP JUMPDEST PUSH2 0x437A DUP2 PUSH2 0x4280 JUMP JUMPDEST PUSH2 0x43B0 PUSH2 0x435D PUSH2 0x428A JUMP JUMPDEST PUSH2 0x43BE PUSH1 0x60 DUP3 ADD MLOAD DUP4 PUSH2 0x4D4F JUMP JUMPDEST PUSH1 0xA0 DUP2 ADD DUP1 MLOAD MLOAD PUSH2 0x44BA JUMPI JUMPDEST POP PUSH1 0x80 DUP2 ADD SWAP1 DUP2 MLOAD MLOAD PUSH2 0x443D JUMPI JUMPDEST PUSH1 0xC0 SWAP2 POP ADD DUP1 MLOAD MLOAD PUSH2 0x43EB JUMPI JUMPDEST POP MLOAD MLOAD SWAP1 JUMP JUMPDEST SWAP2 PUSH2 0x43F7 PUSH2 0x435D PUSH2 0x4322 JUMP JUMPDEST PUSH2 0x4400 DUP3 PUSH2 0x4E65 JUMP JUMPDEST PUSH0 JUMPDEST DUP4 MLOAD DUP1 MLOAD DUP3 LT ISZERO PUSH2 0x442A JUMPI SWAP1 PUSH2 0x4424 PUSH2 0x441D DUP3 PUSH1 0x1 SWAP5 PUSH2 0x25FD JUMP JUMPDEST MLOAD DUP6 PUSH2 0x4EA9 JUMP JUMPDEST ADD PUSH2 0x4402 JUMP JUMPDEST POP POP SWAP2 POP PUSH2 0x4437 DUP2 PUSH2 0x4E87 JUMP JUMPDEST PUSH0 PUSH2 0x43E5 JUMP JUMPDEST PUSH1 0x20 DUP2 ADD DUP1 MLOAD PUSH2 0x444C DUP2 PUSH2 0x424B JUMP JUMPDEST PUSH2 0x4455 DUP2 PUSH2 0x424B JUMP JUMPDEST ISZERO PUSH2 0x44AB JUMPI PUSH1 0xC0 SWAP3 PUSH2 0x448E PUSH2 0x44A6 SWAP3 PUSH2 0x4475 PUSH2 0x446F PUSH2 0x42D0 JUMP JUMPDEST DUP9 PUSH2 0x4D4F JUMP JUMPDEST MLOAD PUSH2 0x447F DUP2 PUSH2 0x424B JUMP JUMPDEST PUSH2 0x4488 DUP2 PUSH2 0x424B JUMP JUMPDEST DUP7 PUSH2 0x4E38 JUMP JUMPDEST PUSH2 0x449F PUSH2 0x4499 PUSH2 0x42FD JUMP JUMPDEST DUP7 PUSH2 0x4D4F JUMP JUMPDEST MLOAD DUP5 PUSH2 0x4EA9 JUMP JUMPDEST PUSH2 0x43D8 JUMP JUMPDEST PUSH4 0xA80D31F7 PUSH1 0xE0 SHL PUSH0 MSTORE PUSH1 0x4 PUSH0 REVERT JUMPDEST SWAP3 PUSH2 0x44CC PUSH2 0x44C6 PUSH2 0x42AE JUMP JUMPDEST DUP5 PUSH2 0x4D4F JUMP JUMPDEST PUSH2 0x44D5 DUP4 PUSH2 0x4E65 JUMP JUMPDEST PUSH0 JUMPDEST DUP5 MLOAD DUP1 MLOAD DUP3 LT ISZERO PUSH2 0x44FF JUMPI SWAP1 PUSH2 0x44F9 PUSH2 0x44F2 DUP3 PUSH1 0x1 SWAP5 PUSH2 0x25FD JUMP JUMPDEST MLOAD DUP7 PUSH2 0x4D4F JUMP JUMPDEST ADD PUSH2 0x44D7 JUMP JUMPDEST POP POP SWAP3 POP PUSH2 0x450C DUP3 PUSH2 0x4E87 JUMP JUMPDEST PUSH0 PUSH2 0x43CA JUMP JUMPDEST SWAP2 PUSH1 0x20 SWAP2 PUSH1 0x1 PUSH1 0x1 PUSH1 0x40 SHL SUB SWAP2 PUSH2 0x454B PUSH1 0x40 MLOAD SWAP6 DUP7 SWAP5 DUP6 SWAP5 PUSH4 0x230E93B1 PUSH1 0xE1 SHL DUP7 MSTORE AND PUSH1 0x4 DUP6 ADD MSTORE PUSH1 0xA0 PUSH1 0x24 DUP6 ADD MSTORE PUSH1 0xA4 DUP5 ADD SWAP1 PUSH2 0x4F6 JUMP JUMPDEST PUSH1 0x1 PUSH1 0x44 DUP5 ADD MSTORE PUSH3 0x493E0 PUSH1 0x64 DUP5 ADD MSTORE PUSH1 0x84 DUP4 ADD SWAP2 SWAP1 SWAP2 MSTORE SUB DUP2 PUSH0 PUSH32 0x0 PUSH1 0x1 PUSH1 0x1 PUSH1 0xA0 SHL SUB AND GAS CALL SWAP1 DUP2 ISZERO PUSH2 0x45F8 JUMPI PUSH0 SWAP2 PUSH2 0x45C9 JUMPI JUMPDEST POP DUP1 PUSH32 0x1131472297A800FEE664D1D89CFA8F7676FF07189ECC53F80BBB5F4969099DB8 PUSH0 DUP1 LOG2 SWAP1 JUMP JUMPDEST PUSH2 0x45EB SWAP2 POP PUSH1 0x20 RETURNDATASIZE PUSH1 0x20 GT PUSH2 0x45F1 JUMPI JUMPDEST PUSH2 0x45E3 DUP2 DUP4 PUSH2 0x2C2 JUMP JUMPDEST DUP2 ADD SWAP1 PUSH2 0x258E JUMP JUMPDEST PUSH0 PUSH2 0x45A0 JUMP JUMPDEST POP RETURNDATASIZE PUSH2 0x45D9 JUMP JUMPDEST PUSH2 0x3D54 JUMP JUMPDEST SWAP5 SWAP4 SWAP1 PUSH1 0x1 PUSH1 0x1 PUSH1 0x40 SHL SUB SWAP1 SWAP7 SWAP4 SWAP3 SWAP7 AND PUSH2 0x4617 SWAP1 PUSH2 0x2735 JUMP JUMPDEST SWAP6 PUSH1 0x1 PUSH1 0x1 PUSH1 0x40 SHL SUB AND PUSH2 0x462A SWAP1 PUSH2 0x2735 JUMP JUMPDEST SWAP2 PUSH1 0x1 PUSH1 0x1 PUSH1 0x40 SHL SUB AND PUSH2 0x463D SWAP1 PUSH2 0x2735 JUMP JUMPDEST SWAP1 PUSH1 0x1 PUSH1 0x1 PUSH1 0x40 SHL SUB AND PUSH2 0x4650 SWAP1 PUSH2 0x2735 JUMP JUMPDEST SWAP2 PUSH1 0x40 MLOAD SWAP7 DUP8 SWAP7 PUSH1 0x20 DUP9 ADD PUSH2 0x4684 SWAP1 PUSH32 0x3C7465787420783D222D33302220793D22393222202066696C6C3D2200000000 SWAP1 MSTORE JUMP JUMPDEST PUSH2 0x4691 PUSH1 0x3C DUP10 ADD DUP8 PUSH2 0x1C7C JUMP JUMPDEST PUSH0 MLOAD PUSH1 0x20 PUSH2 0x5429 PUSH0 CODECOPY PUSH0 MLOAD SWAP1 PUSH0 MSTORE DUP2 MSTORE PUSH32 0x6E6F7370616365223E4C414E452020203A3C2F746578743E0000000000000000 PUSH1 0x20 DUP3 ADD MSTORE PUSH1 0x38 ADD PUSH32 0x3C7465787420783D223132302220793D22393222202066696C6C3D2223656366 DUP2 MSTORE PUSH0 MLOAD PUSH1 0x20 PUSH2 0x5409 PUSH0 CODECOPY PUSH0 MLOAD SWAP1 PUSH0 MSTORE PUSH1 0x20 DUP3 ADD MSTORE PUSH0 MLOAD PUSH1 0x20 PUSH2 0x53E9 PUSH0 CODECOPY PUSH0 MLOAD SWAP1 PUSH0 MSTORE PUSH1 0x40 DUP3 ADD MSTORE PUSH1 0x5E ADD PUSH2 0x471F SWAP2 PUSH2 0x1C7C JUMP JUMPDEST PUSH7 0x1E17BA32BC3A1F PUSH1 0xC9 SHL DUP2 MSTORE PUSH32 0x3C7465787420783D222D33302220793D22313136222066696C6C3D2200000000 PUSH1 0x7 DUP3 ADD MSTORE PUSH1 0x23 ADD PUSH2 0x475F SWAP1 DUP7 PUSH2 0x1C7C JUMP JUMPDEST PUSH0 MLOAD PUSH1 0x20 PUSH2 0x5429 PUSH0 CODECOPY PUSH0 MLOAD SWAP1 PUSH0 MSTORE DUP2 MSTORE PUSH32 0x6E6F7370616365223E47414D455320203A3C2F746578743E0000000000000000 PUSH1 0x20 DUP3 ADD MSTORE PUSH1 0x38 ADD PUSH32 0x3C7465787420783D223132302220793D22313136222066696C6C3D2223656366 DUP2 MSTORE PUSH0 MLOAD PUSH1 0x20 PUSH2 0x5409 PUSH0 CODECOPY PUSH0 MLOAD SWAP1 PUSH0 MSTORE PUSH1 0x20 DUP3 ADD MSTORE PUSH0 MLOAD PUSH1 0x20 PUSH2 0x53E9 PUSH0 CODECOPY PUSH0 MLOAD SWAP1 PUSH0 MSTORE PUSH1 0x40 DUP3 ADD MSTORE PUSH1 0x5E ADD PUSH2 0x47ED SWAP2 PUSH2 0x1C7C JUMP JUMPDEST PUSH7 0x1E17BA32BC3A1F PUSH1 0xC9 SHL DUP2 MSTORE PUSH32 0x3C7465787420783D222D33302220793D22313430222066696C6C3D2200000000 PUSH1 0x7 DUP3 ADD MSTORE PUSH1 0x23 ADD PUSH2 0x482D SWAP1 DUP6 PUSH2 0x1C7C JUMP JUMPDEST PUSH0 MLOAD PUSH1 0x20 PUSH2 0x5429 PUSH0 CODECOPY PUSH0 MLOAD SWAP1 PUSH0 MSTORE DUP2 MSTORE PUSH32 0x6E6F7370616365223E4B494C4C5320203A3C2F746578743E0000000000000000 PUSH1 0x20 DUP3 ADD MSTORE PUSH1 0x38 ADD PUSH32 0x3C7465787420783D223132302220793D22313430222066696C6C3D2223656366 DUP2 MSTORE PUSH0 MLOAD PUSH1 0x20 PUSH2 0x5409 PUSH0 CODECOPY PUSH0 MLOAD SWAP1 PUSH0 MSTORE PUSH1 0x20 DUP3 ADD MSTORE PUSH0 MLOAD PUSH1 0x20 PUSH2 0x53E9 PUSH0 CODECOPY PUSH0 MLOAD SWAP1 PUSH0 MSTORE PUSH1 0x40 DUP3 ADD MSTORE PUSH1 0x5E ADD PUSH2 0x48BB SWAP2 PUSH2 0x1C7C JUMP JUMPDEST PUSH7 0x1E17BA32BC3A1F PUSH1 0xC9 SHL DUP2 MSTORE PUSH32 0x3C7465787420783D222D33302220793D22313634222066696C6C3D2200000000 PUSH1 0x7 DUP3 ADD MSTORE PUSH1 0x23 ADD PUSH2 0x48FB SWAP1 DUP5 PUSH2 0x1C7C JUMP JUMPDEST PUSH0 MLOAD PUSH1 0x20 PUSH2 0x5429 PUSH0 CODECOPY PUSH0 MLOAD SWAP1 PUSH0 MSTORE DUP2 MSTORE PUSH32 0x6E6F7370616365223E444541544853203A3C2F746578743E0000000000000000 PUSH1 0x20 DUP3 ADD MSTORE PUSH1 0x38 ADD PUSH32 0x3C7465787420783D223132302220793D22313634222066696C6C3D2223656366 DUP2 MSTORE PUSH0 MLOAD PUSH1 0x20 PUSH2 0x5409 PUSH0 CODECOPY PUSH0 MLOAD SWAP1 PUSH0 MSTORE PUSH1 0x20 DUP3 ADD MSTORE PUSH0 MLOAD PUSH1 0x20 PUSH2 0x53E9 PUSH0 CODECOPY PUSH0 MLOAD SWAP1 PUSH0 MSTORE PUSH1 0x40 DUP3 ADD MSTORE PUSH1 0x5E ADD PUSH2 0x4989 SWAP2 PUSH2 0x1C7C JUMP JUMPDEST PUSH7 0x1E17BA32BC3A1F PUSH1 0xC9 SHL DUP2 MSTORE PUSH32 0x3C7465787420783D222D33302220793D22313838222066696C6C3D2200000000 PUSH1 0x7 DUP3 ADD MSTORE PUSH1 0x23 ADD PUSH2 0x49C9 SWAP1 DUP4 PUSH2 0x1C7C JUMP JUMPDEST PUSH0 MLOAD PUSH1 0x20 PUSH2 0x5429 PUSH0 CODECOPY PUSH0 MLOAD SWAP1 PUSH0 MSTORE DUP2 MSTORE PUSH32 0x6E6F7370616365223E415353495354533A3C2F746578743E0000000000000000 PUSH1 0x20 DUP3 ADD MSTORE PUSH1 0x38 ADD PUSH32 0x3C7465787420783D223132302220793D22313838222066696C6C3D2223656366 DUP2 MSTORE PUSH0 MLOAD PUSH1 0x20 PUSH2 0x5409 PUSH0 CODECOPY PUSH0 MLOAD SWAP1 PUSH0 MSTORE PUSH1 0x20 DUP3 ADD MSTORE PUSH0 MLOAD PUSH1 0x20 PUSH2 0x53E9 PUSH0 CODECOPY PUSH0 MLOAD SWAP1 PUSH0 MSTORE PUSH1 0x40 DUP3 ADD MSTORE PUSH1 0x5E ADD PUSH2 0x4A57 SWAP2 PUSH2 0x1C7C JUMP JUMPDEST PUSH7 0x1E17BA32BC3A1F PUSH1 0xC9 SHL DUP2 MSTORE PUSH32 0x3C7465787420783D222D33302220793D22323132222066696C6C3D2200000000 PUSH1 0x7 DUP3 ADD MSTORE PUSH1 0x23 ADD PUSH2 0x4A96 SWAP2 PUSH2 0x1C7C JUMP JUMPDEST PUSH0 MLOAD PUSH1 0x20 PUSH2 0x5429 PUSH0 CODECOPY PUSH0 MLOAD SWAP1 PUSH0 MSTORE DUP2 MSTORE PUSH32 0x6E6F7370616365223E4B4441202020203A3C2F746578743E0000000000000000 PUSH1 0x20 DUP3 ADD MSTORE PUSH1 0x38 ADD PUSH32 0x3C7465787420783D223132302220793D22323132222066696C6C3D2223656366 DUP2 MSTORE PUSH0 MLOAD PUSH1 0x20 PUSH2 0x5409 PUSH0 CODECOPY PUSH0 MLOAD SWAP1 PUSH0 MSTORE PUSH1 0x20 DUP3 ADD MSTORE PUSH0 MLOAD PUSH1 0x20 PUSH2 0x53E9 PUSH0 CODECOPY PUSH0 MLOAD SWAP1 PUSH0 MSTORE PUSH1 0x40 DUP3 ADD MSTORE PUSH1 0x5E ADD PUSH2 0x4B24 SWAP2 PUSH2 0x1C7C JUMP JUMPDEST PUSH7 0x1E17BA32BC3A1F PUSH1 0xC9 SHL DUP2 MSTORE PUSH32 0x3C6C696E652078313D222D3330222079313D22323238222078323D2231323022 PUSH1 0x7 DUP3 ADD MSTORE PUSH32 0x2079323D2232323822207374726F6B653D222335353522207374726F6B652D77 PUSH1 0x27 DUP3 ADD MSTORE PUSH32 0x696474683D223322207374726F6B652D6461736861727261793D22382C36222F PUSH1 0x47 DUP3 ADD MSTORE PUSH1 0x1F PUSH1 0xF9 SHL PUSH1 0x67 DUP3 ADD MSTORE PUSH1 0x68 ADD SUB PUSH1 0x1F NOT DUP2 ADD DUP3 MSTORE PUSH2 0x52B SWAP1 DUP3 PUSH2 0x2C2 JUMP JUMPDEST SWAP1 DUP2 MLOAD ISZERO PUSH2 0x4CD7 JUMPI PUSH2 0x4BE6 PUSH2 0x4BE1 PUSH2 0x4BDA DUP5 MLOAD PUSH2 0x1BF1 JUMP JUMPDEST PUSH1 0x3 SWAP1 DIV SWAP1 JUMP JUMPDEST PUSH2 0x1C30 JUMP JUMPDEST SWAP1 PUSH1 0x40 MLOAD SWAP2 PUSH32 0x4142434445464748494A4B4C4D4E4F505152535455565758595A616263646566 PUSH1 0x1F MSTORE PUSH32 0x6768696A6B6C6D6E6F707172737475767778797A303132333435363738392B2F PUSH1 0x3F MSTORE PUSH1 0x20 DUP4 ADD DUP5 DUP1 MLOAD DUP2 ADD PUSH1 0x20 DUP2 ADD DUP1 MLOAD SWAP2 PUSH0 DUP3 MSTORE JUMPDEST DUP1 DUP10 LT PUSH2 0x4C9B JUMPI POP PUSH1 0x20 SWAP6 SWAP7 SWAP8 POP SWAP1 PUSH1 0x3 SWAP3 SWAP2 MSTORE MLOAD MOD DUP1 PUSH1 0x1 EQ PUSH2 0x4C86 JUMPI PUSH1 0x2 EQ PUSH2 0x4C79 JUMPI JUMPDEST POP DUP1 DUP5 MSTORE DUP4 ADD ADD PUSH1 0x40 MSTORE JUMP JUMPDEST PUSH1 0x3D SWAP1 PUSH0 NOT ADD MSTORE8 PUSH0 PUSH2 0x4C6D JUMP JUMPDEST POP PUSH1 0x3D SWAP1 DUP2 PUSH0 NOT DUP3 ADD MSTORE8 PUSH1 0x1 NOT ADD MSTORE8 PUSH0 PUSH2 0x4C6D JUMP JUMPDEST SWAP4 SWAP8 PUSH1 0x3 PUSH1 0x4 SWAP2 ADD SWAP9 PUSH1 0x3F DUP11 MLOAD DUP2 DUP2 PUSH1 0x12 SHR AND MLOAD DUP4 MSTORE8 DUP2 DUP2 PUSH1 0xC SHR AND MLOAD PUSH1 0x1 DUP5 ADD MSTORE8 DUP2 DUP2 PUSH1 0x6 SHR AND MLOAD PUSH1 0x2 DUP5 ADD MSTORE8 AND MLOAD PUSH1 0x3 DUP3 ADD MSTORE8 ADD SWAP4 PUSH2 0x4C47 JUMP JUMPDEST SWAP1 POP PUSH2 0x52B PUSH2 0x1B4C JUMP JUMPDEST DUP2 MLOAD ISZERO PUSH2 0x4CF7 JUMPI PUSH0 DUP1 DUP3 MSTORE PUSH1 0x40 DUP3 ADD MSTORE PUSH1 0x60 ADD MSTORE JUMP JUMPDEST PUSH4 0x22CE3EDD PUSH1 0xE0 SHL PUSH0 MSTORE PUSH1 0x4 PUSH0 REVERT JUMPDEST PUSH1 0x40 MLOAD SWAP1 PUSH2 0x4D13 DUP3 PUSH2 0x2A7 JUMP JUMPDEST PUSH0 PUSH1 0x20 DUP4 PUSH1 0x60 DUP2 MSTORE ADD MSTORE JUMP JUMPDEST PUSH1 0x40 MLOAD PUSH2 0x4D2B DUP2 PUSH2 0x2A7 JUMP JUMPDEST PUSH0 PUSH2 0x4D34 PUSH2 0x4D06 JUMP JUMPDEST DUP1 DUP4 MSTORE PUSH2 0x4D4A PUSH2 0x100 PUSH1 0x20 DUP6 ADD SWAP3 DUP5 DUP5 MSTORE PUSH2 0x4F42 JUMP JUMPDEST POP MSTORE SWAP1 JUMP JUMPDEST DUP2 MLOAD PUSH2 0x4DA0 SWAP3 SWAP2 SWAP1 PUSH1 0x1 PUSH1 0x1 PUSH1 0x40 SHL SUB AND PUSH1 0x17 DUP2 GT PUSH2 0x4DA3 JUMPI DUP2 MLOAD PUSH2 0x4D8B SWAP2 PUSH2 0x4D85 SWAP1 PUSH2 0x4D7E PUSH1 0x60 JUMPDEST PUSH1 0xFF AND SWAP1 JUMP JUMPDEST OR PUSH1 0xFF AND SWAP1 JUMP JUMPDEST SWAP1 PUSH2 0x50C2 JUMP JUMPDEST POP JUMPDEST MLOAD SWAP1 PUSH2 0x4D97 PUSH2 0x4D06 JUMP JUMPDEST POP DUP1 MLOAD SWAP2 PUSH2 0x532C JUMP JUMPDEST POP JUMP JUMPDEST PUSH1 0xFF DUP2 GT PUSH2 0x4DD0 JUMPI DUP2 MLOAD PUSH2 0x4DCA SWAP2 SWAP1 PUSH2 0x4DC2 SWAP1 PUSH1 0x18 PUSH1 0x60 JUMPDEST OR SWAP1 PUSH2 0x50C2 JUMP JUMPDEST POP DUP3 MLOAD PUSH2 0x52AC JUMP JUMPDEST POP PUSH2 0x4D8D JUMP JUMPDEST PUSH2 0xFFFF DUP2 GT PUSH2 0x4DF5 JUMPI DUP2 MLOAD PUSH2 0x4DCA SWAP2 SWAP1 PUSH2 0x4DED SWAP1 PUSH1 0x19 PUSH1 0x60 PUSH2 0x4DBB JUMP JUMPDEST POP DUP3 MLOAD PUSH2 0x5233 JUMP JUMPDEST PUSH4 0xFFFFFFFF DUP2 GT PUSH2 0x4E1C JUMPI DUP2 MLOAD PUSH2 0x4DCA SWAP2 SWAP1 PUSH2 0x4E14 SWAP1 PUSH1 0x1A PUSH1 0x60 PUSH2 0x4DBB JUMP JUMPDEST POP DUP3 MLOAD PUSH2 0x51BA JUMP JUMPDEST DUP2 MLOAD PUSH2 0x4DCA SWAP2 SWAP1 PUSH2 0x4E30 SWAP1 PUSH1 0x1B PUSH1 0x60 PUSH2 0x4DBB JUMP JUMPDEST POP DUP3 MLOAD PUSH2 0x513C JUMP JUMPDEST SWAP1 PUSH2 0xBB5 SWAP2 PUSH2 0x4E47 DUP2 MLOAD PUSH2 0x5052 JUMP JUMPDEST POP PUSH1 0x40 MLOAD SWAP2 PUSH1 0x20 DUP4 ADD MSTORE PUSH1 0x20 DUP3 MSTORE PUSH2 0x4E60 PUSH1 0x40 DUP4 PUSH2 0x2C2 JUMP JUMPDEST PUSH2 0x4EA9 JUMP JUMPDEST PUSH1 0x20 SWAP1 PUSH2 0x4E74 PUSH1 0x9F DUP3 MLOAD PUSH2 0x50C2 JUMP JUMPDEST POP ADD DUP1 MLOAD SWAP1 PUSH1 0x1 DUP3 ADD DUP1 SWAP3 GT PUSH2 0xF7F JUMPI MSTORE JUMP JUMPDEST PUSH1 0x20 SWAP1 PUSH2 0x4E96 PUSH1 0xFF DUP3 MLOAD PUSH2 0x50C2 JUMP JUMPDEST POP ADD DUP1 MLOAD PUSH0 NOT DUP2 ADD SWAP2 SWAP1 DUP3 GT PUSH2 0xF7F JUMPI MSTORE JUMP JUMPDEST DUP2 MLOAD PUSH2 0x4DA0 SWAP3 SWAP2 SWAP1 PUSH1 0x1 PUSH1 0x1 PUSH1 0x40 SHL SUB AND PUSH1 0x17 DUP2 GT PUSH2 0x4ED6 JUMPI DUP2 MLOAD PUSH2 0x4D8B SWAP2 PUSH2 0x4D85 SWAP1 PUSH2 0x4D7E PUSH1 0x40 PUSH2 0x4D78 JUMP JUMPDEST PUSH1 0xFF DUP2 GT PUSH2 0x4EF2 JUMPI DUP2 MLOAD PUSH2 0x4DCA SWAP2 SWAP1 PUSH2 0x4DC2 SWAP1 PUSH1 0x18 PUSH1 0x40 PUSH2 0x4DBB JUMP JUMPDEST PUSH2 0xFFFF DUP2 GT PUSH2 0x4F0F JUMPI DUP2 MLOAD PUSH2 0x4DCA SWAP2 SWAP1 PUSH2 0x4DED SWAP1 PUSH1 0x19 PUSH1 0x40 PUSH2 0x4DBB JUMP JUMPDEST PUSH4 0xFFFFFFFF DUP2 GT PUSH2 0x4F2E JUMPI DUP2 MLOAD PUSH2 0x4DCA SWAP2 SWAP1 PUSH2 0x4E14 SWAP1 PUSH1 0x1A PUSH1 0x40 PUSH2 0x4DBB JUMP JUMPDEST DUP2 MLOAD PUSH2 0x4DCA SWAP2 SWAP1 PUSH2 0x4E30 SWAP1 PUSH1 0x1B PUSH1 0x40 PUSH2 0x4DBB JUMP JUMPDEST SWAP1 PUSH2 0x4F4B PUSH2 0x4D06 JUMP JUMPDEST POP PUSH1 0x1F DUP2 AND DUP1 PUSH2 0x4F79 JUMPI JUMPDEST POP DUP1 PUSH1 0x20 DUP4 ADD MSTORE PUSH1 0x40 MLOAD SWAP1 DUP2 DUP4 MSTORE PUSH0 DUP3 MSTORE DUP2 ADD PUSH1 0x20 ADD SWAP1 DUP2 LT PUSH2 0x342 JUMPI PUSH1 0x40 MSTORE SWAP1 JUMP JUMPDEST PUSH1 0x20 SUB PUSH1 0x20 DUP2 GT PUSH2 0xF7F JUMPI DUP2 ADD DUP1 SWAP2 GT PUSH2 0xF7F JUMPI PUSH0 PUSH2 0x4F56 JUMP JUMPDEST SWAP1 PUSH2 0x4F9C PUSH2 0x4D06 JUMP JUMPDEST POP DUP1 MLOAD PUSH2 0x4FA7 PUSH2 0x4D06 JUMP JUMPDEST POP PUSH2 0x4FB5 DUP3 MLOAD DUP3 GT ISZERO PUSH2 0x5325 JUMP JUMPDEST DUP3 MLOAD MLOAD SWAP2 PUSH2 0x4FC3 DUP3 DUP5 PUSH2 0x1C0D JUMP JUMPDEST SWAP1 PUSH1 0x20 DUP6 ADD MLOAD DUP3 GT PUSH2 0x503B JUMPI JUMPDEST PUSH1 0x20 SWAP2 DUP6 MLOAD DUP4 DUP2 MLOAD SWAP7 DUP3 ADD ADD SWAP6 DUP3 GT PUSH2 0x5033 JUMPI JUMPDEST POP POP ADD SWAP1 JUMPDEST PUSH1 0x20 DUP2 LT ISZERO PUSH2 0x500D JUMPI PUSH0 NOT SWAP1 PUSH1 0x20 SUB PUSH2 0x100 EXP ADD SWAP1 DUP2 NOT SWAP1 MLOAD AND SWAP1 DUP3 MLOAD AND OR SWAP1 MSTORE SWAP1 JUMP JUMPDEST SWAP1 SWAP2 PUSH2 0x5028 PUSH2 0x5022 PUSH2 0x502E SWAP3 DUP6 MLOAD DUP2 MSTORE PUSH2 0x1BFF JUMP JUMPDEST SWAP4 PUSH2 0x1BFF JUMP JUMPDEST SWAP2 PUSH2 0x1B74 JUMP JUMPDEST PUSH2 0x4FE9 JUMP JUMPDEST MSTORE PUSH0 DUP1 PUSH2 0x4FE4 JUMP JUMPDEST PUSH2 0x504D PUSH2 0x5047 DUP4 PUSH2 0x1C48 JUMP JUMPDEST DUP7 PUSH2 0x53D1 JUMP JUMPDEST PUSH2 0x4FD0 JUMP JUMPDEST PUSH2 0x505A PUSH2 0x4D06 JUMP JUMPDEST POP DUP1 MLOAD MLOAD PUSH1 0x1 DUP2 ADD SWAP1 DUP2 DUP2 GT PUSH2 0xF7F JUMPI PUSH1 0x20 DUP4 ADD MLOAD DUP2 LT ISZERO PUSH2 0x5093 JUMPI JUMPDEST PUSH1 0xC2 PUSH1 0x20 DUP5 MLOAD SWAP3 DUP4 ADD ADD MSTORE8 DUP1 MLOAD DUP3 GT PUSH2 0x508F JUMPI POP POP SWAP1 JUMP JUMPDEST MSTORE SWAP1 JUMP JUMPDEST DUP2 PUSH1 0x1 SHL DUP3 DUP2 DIV PUSH1 0x2 EQ DUP4 ISZERO OR ISZERO PUSH2 0xF7F JUMPI PUSH2 0x50BC SWAP1 PUSH2 0x50B5 DUP6 MLOAD SWAP2 DUP7 PUSH2 0x4F42 JUMP JUMPDEST POP DUP5 PUSH2 0x4F93 JUMP JUMPDEST POP PUSH2 0x5077 JUMP JUMPDEST SWAP1 PUSH2 0x50CB PUSH2 0x4D06 JUMP JUMPDEST POP DUP2 MLOAD MLOAD PUSH1 0x1 DUP2 ADD SWAP2 DUP3 DUP3 GT PUSH2 0xF7F JUMPI PUSH1 0x20 DUP5 ADD MLOAD DUP3 LT ISZERO PUSH2 0x50FE JUMPI JUMPDEST PUSH1 0x20 DUP5 MLOAD SWAP3 DUP4 ADD ADD MSTORE8 DUP1 MLOAD DUP3 GT PUSH2 0x508F JUMPI POP POP SWAP1 JUMP JUMPDEST DUP3 PUSH1 0x1 SHL DUP4 DUP2 DIV PUSH1 0x2 EQ DUP5 ISZERO OR ISZERO PUSH2 0xF7F JUMPI PUSH2 0x5127 SWAP1 PUSH2 0x5120 DUP7 MLOAD SWAP2 DUP8 PUSH2 0x4F42 JUMP JUMPDEST POP DUP6 PUSH2 0x4F93 JUMP JUMPDEST POP PUSH2 0x50E8 JUMP JUMPDEST PUSH1 0x1F DUP2 GT PUSH2 0xF7F JUMPI PUSH2 0x100 EXP SWAP1 JUMP JUMPDEST SWAP1 PUSH2 0x5145 PUSH2 0x4D06 JUMP JUMPDEST POP DUP2 MLOAD MLOAD DUP1 PUSH1 0x8 ADD SWAP2 DUP3 PUSH1 0x8 GT PUSH2 0xF7F JUMPI PUSH1 0x20 DUP5 ADD MLOAD DUP4 GT PUSH2 0x5192 JUMPI JUMPDEST PUSH2 0x5174 PUSH2 0x516F PUSH1 0x8 PUSH2 0x512D JUMP JUMPDEST PUSH2 0x1B83 JUMP JUMPDEST SWAP1 PUSH1 0x8 DUP6 MLOAD SWAP4 DUP5 ADD ADD SWAP2 NOT DUP3 MLOAD AND OR SWAP1 MSTORE DUP1 MLOAD DUP3 GT PUSH2 0x508F JUMPI POP POP SWAP1 JUMP JUMPDEST DUP3 PUSH1 0x1 SHL DUP4 DUP2 DIV PUSH1 0x2 EQ DUP5 ISZERO OR ISZERO PUSH2 0xF7F JUMPI PUSH2 0x51B4 SWAP1 PUSH2 0x5120 DUP7 MLOAD SWAP2 DUP8 PUSH2 0x4F42 JUMP JUMPDEST POP PUSH2 0x5162 JUMP JUMPDEST SWAP1 PUSH2 0x51C3 PUSH2 0x4D06 JUMP JUMPDEST POP DUP2 MLOAD MLOAD DUP1 PUSH1 0x4 ADD SWAP2 DUP3 PUSH1 0x4 GT PUSH2 0xF7F JUMPI PUSH1 0x20 DUP5 ADD MLOAD DUP4 GT PUSH2 0x520B JUMPI JUMPDEST PUSH2 0x51ED PUSH2 0x516F PUSH1 0x4 PUSH2 0x512D JUMP JUMPDEST SWAP1 PUSH1 0x4 DUP6 MLOAD SWAP4 DUP5 ADD ADD SWAP2 NOT DUP3 MLOAD AND OR SWAP1 MSTORE DUP1 MLOAD DUP3 GT PUSH2 0x508F JUMPI POP POP SWAP1 JUMP JUMPDEST DUP3 PUSH1 0x1 SHL DUP4 DUP2 DIV PUSH1 0x2 EQ DUP5 ISZERO OR ISZERO PUSH2 0xF7F JUMPI PUSH2 0x522D SWAP1 PUSH2 0x5120 DUP7 MLOAD SWAP2 DUP8 PUSH2 0x4F42 JUMP JUMPDEST POP PUSH2 0x51E0 JUMP JUMPDEST SWAP1 PUSH2 0x523C PUSH2 0x4D06 JUMP JUMPDEST POP DUP2 MLOAD MLOAD DUP1 PUSH1 0x2 ADD SWAP2 DUP3 PUSH1 0x2 GT PUSH2 0xF7F JUMPI PUSH1 0x20 DUP5 ADD MLOAD DUP4 GT PUSH2 0x5284 JUMPI JUMPDEST PUSH2 0x5266 PUSH2 0x516F PUSH1 0x2 PUSH2 0x512D JUMP JUMPDEST SWAP1 PUSH1 0x2 DUP6 MLOAD SWAP4 DUP5 ADD ADD SWAP2 NOT DUP3 MLOAD AND OR SWAP1 MSTORE DUP1 MLOAD DUP3 GT PUSH2 0x508F JUMPI POP POP SWAP1 JUMP JUMPDEST DUP3 PUSH1 0x1 SHL DUP4 DUP2 DIV PUSH1 0x2 EQ DUP5 ISZERO OR ISZERO PUSH2 0xF7F JUMPI PUSH2 0x52A6 SWAP1 PUSH2 0x5120 DUP7 MLOAD SWAP2 DUP8 PUSH2 0x4F42 JUMP JUMPDEST POP PUSH2 0x5259 JUMP JUMPDEST SWAP1 PUSH2 0x52B5 PUSH2 0x4D06 JUMP JUMPDEST POP DUP2 MLOAD MLOAD DUP1 PUSH1 0x1 ADD SWAP2 DUP3 PUSH1 0x1 GT PUSH2 0xF7F JUMPI PUSH1 0x20 DUP5 ADD MLOAD DUP4 GT PUSH2 0x52FD JUMPI JUMPDEST PUSH2 0x52DF PUSH2 0x516F PUSH1 0x1 PUSH2 0x512D JUMP JUMPDEST SWAP1 PUSH1 0x1 DUP6 MLOAD SWAP4 DUP5 ADD ADD SWAP2 NOT DUP3 MLOAD AND OR SWAP1 MSTORE DUP1 MLOAD DUP3 GT PUSH2 0x508F JUMPI POP POP SWAP1 JUMP JUMPDEST DUP3 PUSH1 0x1 SHL DUP4 DUP2 DIV PUSH1 0x2 EQ DUP5 ISZERO OR ISZERO PUSH2 0xF7F JUMPI PUSH2 0x531F SWAP1 PUSH2 0x5120 DUP7 MLOAD SWAP2 DUP8 PUSH2 0x4F42 JUMP JUMPDEST POP PUSH2 0x52D2 JUMP JUMPDEST ISZERO PUSH2 0x342 JUMPI JUMP JUMPDEST SWAP2 PUSH2 0x5335 PUSH2 0x4D06 JUMP JUMPDEST POP PUSH2 0x5343 DUP3 MLOAD DUP3 GT ISZERO PUSH2 0x5325 JUMP JUMPDEST PUSH1 0x20 DUP4 MLOAD MLOAD SWAP3 PUSH2 0x5353 DUP4 DUP6 PUSH2 0x1C0D JUMP JUMPDEST DUP3 DUP7 ADD MLOAD DUP2 GT PUSH2 0x53BA JUMPI JUMPDEST DUP6 MLOAD DUP4 DUP2 MLOAD SWAP7 DUP3 ADD ADD SWAP6 DUP3 GT PUSH2 0x53B2 JUMPI JUMPDEST POP POP ADD SWAP1 JUMPDEST PUSH1 0x20 DUP2 LT ISZERO PUSH2 0x5398 JUMPI PUSH0 NOT SWAP1 PUSH1 0x20 SUB PUSH2 0x100 EXP ADD SWAP1 DUP2 NOT SWAP1 MLOAD AND SWAP1 DUP3 MLOAD AND OR SWAP1 MSTORE SWAP1 JUMP JUMPDEST SWAP1 SWAP2 PUSH2 0x5028 PUSH2 0x5022 PUSH2 0x53AD SWAP3 DUP6 MLOAD DUP2 MSTORE PUSH2 0x1BFF JUMP JUMPDEST PUSH2 0x5374 JUMP JUMPDEST MSTORE PUSH0 DUP1 PUSH2 0x536F JUMP JUMPDEST PUSH2 0x53CC PUSH2 0x53C6 DUP3 PUSH2 0x1C48 JUMP JUMPDEST DUP8 PUSH2 0x53D1 JUMP JUMPDEST PUSH2 0x535E JUMP JUMPDEST SWAP1 PUSH2 0x4DA0 SWAP2 PUSH2 0x53E2 DUP2 MLOAD SWAP3 DUP3 PUSH2 0x4F42 JUMP JUMPDEST POP PUSH2 0x4F93 JUMP INVALID 0x22 PUSH6 0x6E642220666F PUSH15 0x742D66616D696C793D226D6F6E6F73 PUSH17 0x616365223E00003066312220666F6E742D PUSH20 0x697A653D2231332220746578742D616E63686F72 RETURNDATASIZE 0x22 KECCAK256 PUSH7 0x6F6E742D73697A PUSH6 0x3D2231332220 PUSH7 0x6F6E742D66616D PUSH10 0x6C793D226D6FA2646970 PUSH7 0x7358221220830D ADD DUP3 PREVRANDAO GT PUSH14 0xCA73E6A567BBCB9AD0E08826CEC6 DUP15 REVERT 0xBA 0x26 0xCD PREVRANDAO 0xBF PUSH10 0xB1D0FD64736F6C634300 ADDMOD 0x22 STOP CALLER "
		},
		"gasEstimates": {
			"creation": {
				"codeDepositCost": "4326000",
				"executionCost": "infinite",
				"totalCost": "infinite"
			},
			"external": {
				"MINIMUM_INTERVAL()": "861",
				"approve(address,uint256)": "31234",
				"balanceOf(address)": "2891",
				"checkUpkeep(bytes)": "9566",
				"generateSVG(uint256)": "infinite",
				"getApproved(uint256)": "4651",
				"getPlayerData(uint256)": "infinite",
				"getTokenTier(uint256)": "infinite",
				"handleOracleFulfillment(bytes32,bytes,bytes)": "infinite",
				"interval()": "2788",
				"isApprovedForAll(address,address)": "3327",
				"lastTimeStamp()": "2546",
				"name()": "infinite",
				"owner()": "2790",
				"ownerOf(uint256)": "2796",
				"performUpkeep(bytes)": "infinite",
				"renounceOwnership()": "28548",
				"requestStatsUpdate(uint256)": "infinite",
				"s_playerData(uint256)": "infinite",
				"s_requestExists(bytes32)": "2535",
				"s_requestToTokenId(bytes32)": "2721",
				"safeMint(address,string,string)": "infinite",
				"safeTransferFrom(address,address,uint256)": "infinite",
				"safeTransferFrom(address,address,uint256,bytes)": "infinite",
				"setApprovalForAll(address,bool)": "27107",
				"setAutomationSettings(uint256,uint256)": "50289",
				"setSourceCode(string)": "infinite",
				"sourceCode()": "infinite",
				"subscriptionId()": "2388",
				"supportsInterface(bytes4)": "453",
				"symbol()": "infinite",
				"targetTokenIdToUpdate()": "2810",
				"tokenURI(uint256)": "infinite",
				"totalSupply()": "2436",
				"transferFrom(address,address,uint256)": "106804",
				"transferOwnership(address)": "28942"
			},
			"internal": {
				"_requestStatsInternal(uint256,string memory)": "infinite",
				"fulfillRequest(bytes32,bytes memory,bytes memory)": "infinite"
			}
		},
		"methodIdentifiers": {
			"MINIMUM_INTERVAL()": "e049d709",
			"approve(address,uint256)": "095ea7b3",
			"balanceOf(address)": "70a08231",
			"checkUpkeep(bytes)": "6e04ff0d",
			"generateSVG(uint256)": "6dcee4ca",
			"getApproved(uint256)": "081812fc",
			"getPlayerData(uint256)": "5c2adf6a",
			"getTokenTier(uint256)": "c26b265f",
			"handleOracleFulfillment(bytes32,bytes,bytes)": "0ca76175",
			"interval()": "947a36fb",
			"isApprovedForAll(address,address)": "e985e9c5",
			"lastTimeStamp()": "3f3b3b27",
			"name()": "06fdde03",
			"owner()": "8da5cb5b",
			"ownerOf(uint256)": "6352211e",
			"performUpkeep(bytes)": "4585e33b",
			"renounceOwnership()": "715018a6",
			"requestStatsUpdate(uint256)": "2839b78f",
			"s_playerData(uint256)": "b4cfae44",
			"s_requestExists(bytes32)": "20457fb6",
			"s_requestToTokenId(bytes32)": "68015a4b",
			"safeMint(address,string,string)": "eca81d42",
			"safeTransferFrom(address,address,uint256)": "42842e0e",
			"safeTransferFrom(address,address,uint256,bytes)": "b88d4fde",
			"setApprovalForAll(address,bool)": "a22cb465",
			"setAutomationSettings(uint256,uint256)": "22e817e2",
			"setSourceCode(string)": "00b46767",
			"sourceCode()": "13c60177",
			"subscriptionId()": "09c1ba2e",
			"supportsInterface(bytes4)": "01ffc9a7",
			"symbol()": "95d89b41",
			"targetTokenIdToUpdate()": "94881476",
			"tokenURI(uint256)": "c87b56dd",
			"totalSupply()": "18160ddd",
			"transferFrom(address,address,uint256)": "23b872dd",
			"transferOwnership(address)": "f2fde38b"
		}
	},
	"abi": [
		{
			"inputs": [
				{
					"internalType": "uint64",
					"name": "_subscriptionId",
					"type": "uint64"
				}
			],
			"stateMutability": "nonpayable",
			"type": "constructor"
		},
		{
			"inputs": [
				{
					"internalType": "address",
					"name": "sender",
					"type": "address"
				},
				{
					"internalType": "uint256",
					"name": "tokenId",
					"type": "uint256"
				},
				{
					"internalType": "address",
					"name": "owner",
					"type": "address"
				}
			],
			"name": "ERC721IncorrectOwner",
			"type": "error"
		},
		{
			"inputs": [
				{
					"internalType": "address",
					"name": "operator",
					"type": "address"
				},
				{
					"internalType": "uint256",
					"name": "tokenId",
					"type": "uint256"
				}
			],
			"name": "ERC721InsufficientApproval",
			"type": "error"
		},
		{
			"inputs": [
				{
					"internalType": "address",
					"name": "approver",
					"type": "address"
				}
			],
			"name": "ERC721InvalidApprover",
			"type": "error"
		},
		{
			"inputs": [
				{
					"internalType": "address",
					"name": "operator",
					"type": "address"
				}
			],
			"name": "ERC721InvalidOperator",
			"type": "error"
		},
		{
			"inputs": [
				{
					"internalType": "address",
					"name": "owner",
					"type": "address"
				}
			],
			"name": "ERC721InvalidOwner",
			"type": "error"
		},
		{
			"inputs": [
				{
					"internalType": "address",
					"name": "receiver",
					"type": "address"
				}
			],
			"name": "ERC721InvalidReceiver",
			"type": "error"
		},
		{
			"inputs": [
				{
					"internalType": "address",
					"name": "sender",
					"type": "address"
				}
			],
			"name": "ERC721InvalidSender",
			"type": "error"
		},
		{
			"inputs": [
				{
					"internalType": "uint256",
					"name": "tokenId",
					"type": "uint256"
				}
			],
			"name": "ERC721NonexistentToken",
			"type": "error"
		},
		{
			"inputs": [],
			"name": "EmptyArgs",
			"type": "error"
		},
		{
			"inputs": [],
			"name": "EmptySource",
			"type": "error"
		},
		{
			"inputs": [
				{
					"internalType": "uint256",
					"name": "provided",
					"type": "uint256"
				},
				{
					"internalType": "uint256",
					"name": "minimum",
					"type": "uint256"
				}
			],
			"name": "IntervalTooShort",
			"type": "error"
		},
		{
			"inputs": [],
			"name": "NoInlineSecrets",
			"type": "error"
		},
		{
			"inputs": [],
			"name": "NoTokensMinted",
			"type": "error"
		},
		{
			"inputs": [],
			"name": "OnlyRouterCanFulfill",
			"type": "error"
		},
		{
			"inputs": [
				{
					"internalType": "bytes",
					"name": "err",
					"type": "bytes"
				}
			],
			"name": "OracleError",
			"type": "error"
		},
		{
			"inputs": [
				{
					"internalType": "address",
					"name": "owner",
					"type": "address"
				}
			],
			"name": "OwnableInvalidOwner",
			"type": "error"
		},
		{
			"inputs": [
				{
					"internalType": "address",
					"name": "account",
					"type": "address"
				}
			],
			"name": "OwnableUnauthorizedAccount",
			"type": "error"
		},
		{
			"inputs": [
				{
					"internalType": "bytes32",
					"name": "requestId",
					"type": "bytes32"
				}
			],
			"name": "UnknownRequestId",
			"type": "error"
		},
		{
			"anonymous": false,
			"inputs": [
				{
					"indexed": true,
					"internalType": "address",
					"name": "owner",
					"type": "address"
				},
				{
					"indexed": true,
					"internalType": "address",
					"name": "approved",
					"type": "address"
				},
				{
					"indexed": true,
					"internalType": "uint256",
					"name": "tokenId",
					"type": "uint256"
				}
			],
			"name": "Approval",
			"type": "event"
		},
		{
			"anonymous": false,
			"inputs": [
				{
					"indexed": true,
					"internalType": "address",
					"name": "owner",
					"type": "address"
				},
				{
					"indexed": true,
					"internalType": "address",
					"name": "operator",
					"type": "address"
				},
				{
					"indexed": false,
					"internalType": "bool",
					"name": "approved",
					"type": "bool"
				}
			],
			"name": "ApprovalForAll",
			"type": "event"
		},
		{
			"anonymous": false,
			"inputs": [
				{
					"indexed": false,
					"internalType": "uint256",
					"name": "newInterval",
					"type": "uint256"
				},
				{
					"indexed": false,
					"internalType": "uint256",
					"name": "newTargetTokenId",
					"type": "uint256"
				}
			],
			"name": "AutomationSettingsChanged",
			"type": "event"
		},
		{
			"anonymous": false,
			"inputs": [
				{
					"indexed": false,
					"internalType": "uint256",
					"name": "_fromTokenId",
					"type": "uint256"
				},
				{
					"indexed": false,
					"internalType": "uint256",
					"name": "_toTokenId",
					"type": "uint256"
				}
			],
			"name": "BatchMetadataUpdate",
			"type": "event"
		},
		{
			"anonymous": false,
			"inputs": [
				{
					"indexed": false,
					"internalType": "uint256",
					"name": "_tokenId",
					"type": "uint256"
				}
			],
			"name": "MetadataUpdate",
			"type": "event"
		},
		{
			"anonymous": false,
			"inputs": [
				{
					"indexed": true,
					"internalType": "address",
					"name": "previousOwner",
					"type": "address"
				},
				{
					"indexed": true,
					"internalType": "address",
					"name": "newOwner",
					"type": "address"
				}
			],
			"name": "OwnershipTransferred",
			"type": "event"
		},
		{
			"anonymous": false,
			"inputs": [
				{
					"indexed": true,
					"internalType": "uint256",
					"name": "tokenId",
					"type": "uint256"
				},
				{
					"indexed": false,
					"internalType": "uint64",
					"name": "games",
					"type": "uint64"
				},
				{
					"indexed": false,
					"internalType": "uint64",
					"name": "kills",
					"type": "uint64"
				},
				{
					"indexed": false,
					"internalType": "uint64",
					"name": "deaths",
					"type": "uint64"
				},
				{
					"indexed": false,
					"internalType": "uint64",
					"name": "assists",
					"type": "uint64"
				},
				{
					"indexed": false,
					"internalType": "uint8",
					"name": "tierIndex",
					"type": "uint8"
				},
				{
					"indexed": false,
					"internalType": "uint256",
					"name": "timestamp",
					"type": "uint256"
				}
			],
			"name": "PlayerStatsUpdated",
			"type": "event"
		},
		{
			"anonymous": false,
			"inputs": [
				{
					"indexed": true,
					"internalType": "bytes32",
					"name": "id",
					"type": "bytes32"
				}
			],
			"name": "RequestFulfilled",
			"type": "event"
		},
		{
			"anonymous": false,
			"inputs": [
				{
					"indexed": true,
					"internalType": "bytes32",
					"name": "id",
					"type": "bytes32"
				}
			],
			"name": "RequestSent",
			"type": "event"
		},
		{
			"anonymous": false,
			"inputs": [
				{
					"indexed": true,
					"internalType": "uint256",
					"name": "tokenId",
					"type": "uint256"
				},
				{
					"indexed": true,
					"internalType": "bytes32",
					"name": "requestId",
					"type": "bytes32"
				},
				{
					"indexed": false,
					"internalType": "string",
					"name": "nickname",
					"type": "string"
				}
			],
			"name": "StatsRequested",
			"type": "event"
		},
		{
			"anonymous": false,
			"inputs": [
				{
					"indexed": true,
					"internalType": "address",
					"name": "from",
					"type": "address"
				},
				{
					"indexed": true,
					"internalType": "address",
					"name": "to",
					"type": "address"
				},
				{
					"indexed": true,
					"internalType": "uint256",
					"name": "tokenId",
					"type": "uint256"
				}
			],
			"name": "Transfer",
			"type": "event"
		},
		{
			"inputs": [],
			"name": "MINIMUM_INTERVAL",
			"outputs": [
				{
					"internalType": "uint256",
					"name": "",
					"type": "uint256"
				}
			],
			"stateMutability": "view",
			"type": "function"
		},
		{
			"inputs": [
				{
					"internalType": "address",
					"name": "to",
					"type": "address"
				},
				{
					"internalType": "uint256",
					"name": "tokenId",
					"type": "uint256"
				}
			],
			"name": "approve",
			"outputs": [],
			"stateMutability": "nonpayable",
			"type": "function"
		},
		{
			"inputs": [
				{
					"internalType": "address",
					"name": "owner",
					"type": "address"
				}
			],
			"name": "balanceOf",
			"outputs": [
				{
					"internalType": "uint256",
					"name": "",
					"type": "uint256"
				}
			],
			"stateMutability": "view",
			"type": "function"
		},
		{
			"inputs": [
				{
					"internalType": "bytes",
					"name": "",
					"type": "bytes"
				}
			],
			"name": "checkUpkeep",
			"outputs": [
				{
					"internalType": "bool",
					"name": "upkeepNeeded",
					"type": "bool"
				},
				{
					"internalType": "bytes",
					"name": "performData",
					"type": "bytes"
				}
			],
			"stateMutability": "view",
			"type": "function"
		},
		{
			"inputs": [
				{
					"internalType": "uint256",
					"name": "tokenId",
					"type": "uint256"
				}
			],
			"name": "generateSVG",
			"outputs": [
				{
					"internalType": "string",
					"name": "",
					"type": "string"
				}
			],
			"stateMutability": "view",
			"type": "function"
		},
		{
			"inputs": [
				{
					"internalType": "uint256",
					"name": "tokenId",
					"type": "uint256"
				}
			],
			"name": "getApproved",
			"outputs": [
				{
					"internalType": "address",
					"name": "",
					"type": "address"
				}
			],
			"stateMutability": "view",
			"type": "function"
		},
		{
			"inputs": [
				{
					"internalType": "uint256",
					"name": "tokenId",
					"type": "uint256"
				}
			],
			"name": "getPlayerData",
			"outputs": [
				{
					"components": [
						{
							"internalType": "string",
							"name": "nickname",
							"type": "string"
						},
						{
							"internalType": "string",
							"name": "lane",
							"type": "string"
						},
						{
							"internalType": "uint64",
							"name": "games",
							"type": "uint64"
						},
						{
							"internalType": "uint64",
							"name": "kills",
							"type": "uint64"
						},
						{
							"internalType": "uint64",
							"name": "deaths",
							"type": "uint64"
						},
						{
							"internalType": "uint64",
							"name": "assists",
							"type": "uint64"
						}
					],
					"internalType": "struct MplPlayerCard_A.PlayerData",
					"name": "",
					"type": "tuple"
				}
			],
			"stateMutability": "view",
			"type": "function"
		},
		{
			"inputs": [
				{
					"internalType": "uint256",
					"name": "tokenId",
					"type": "uint256"
				}
			],
			"name": "getTokenTier",
			"outputs": [
				{
					"internalType": "uint8",
					"name": "tierIndex",
					"type": "uint8"
				},
				{
					"internalType": "string",
					"name": "tierName",
					"type": "string"
				}
			],
			"stateMutability": "view",
			"type": "function"
		},
		{
			"inputs": [
				{
					"internalType": "bytes32",
					"name": "requestId",
					"type": "bytes32"
				},
				{
					"internalType": "bytes",
					"name": "response",
					"type": "bytes"
				},
				{
					"internalType": "bytes",
					"name": "err",
					"type": "bytes"
				}
			],
			"name": "handleOracleFulfillment",
			"outputs": [],
			"stateMutability": "nonpayable",
			"type": "function"
		},
		{
			"inputs": [],
			"name": "interval",
			"outputs": [
				{
					"internalType": "uint256",
					"name": "",
					"type": "uint256"
				}
			],
			"stateMutability": "view",
			"type": "function"
		},
		{
			"inputs": [
				{
					"internalType": "address",
					"name": "owner",
					"type": "address"
				},
				{
					"internalType": "address",
					"name": "operator",
					"type": "address"
				}
			],
			"name": "isApprovedForAll",
			"outputs": [
				{
					"internalType": "bool",
					"name": "",
					"type": "bool"
				}
			],
			"stateMutability": "view",
			"type": "function"
		},
		{
			"inputs": [],
			"name": "lastTimeStamp",
			"outputs": [
				{
					"internalType": "uint256",
					"name": "",
					"type": "uint256"
				}
			],
			"stateMutability": "view",
			"type": "function"
		},
		{
			"inputs": [],
			"name": "name",
			"outputs": [
				{
					"internalType": "string",
					"name": "",
					"type": "string"
				}
			],
			"stateMutability": "view",
			"type": "function"
		},
		{
			"inputs": [],
			"name": "owner",
			"outputs": [
				{
					"internalType": "address",
					"name": "",
					"type": "address"
				}
			],
			"stateMutability": "view",
			"type": "function"
		},
		{
			"inputs": [
				{
					"internalType": "uint256",
					"name": "tokenId",
					"type": "uint256"
				}
			],
			"name": "ownerOf",
			"outputs": [
				{
					"internalType": "address",
					"name": "",
					"type": "address"
				}
			],
			"stateMutability": "view",
			"type": "function"
		},
		{
			"inputs": [
				{
					"internalType": "bytes",
					"name": "",
					"type": "bytes"
				}
			],
			"name": "performUpkeep",
			"outputs": [],
			"stateMutability": "nonpayable",
			"type": "function"
		},
		{
			"inputs": [],
			"name": "renounceOwnership",
			"outputs": [],
			"stateMutability": "nonpayable",
			"type": "function"
		},
		{
			"inputs": [
				{
					"internalType": "uint256",
					"name": "tokenId",
					"type": "uint256"
				}
			],
			"name": "requestStatsUpdate",
			"outputs": [],
			"stateMutability": "nonpayable",
			"type": "function"
		},
		{
			"inputs": [
				{
					"internalType": "uint256",
					"name": "",
					"type": "uint256"
				}
			],
			"name": "s_playerData",
			"outputs": [
				{
					"internalType": "string",
					"name": "nickname",
					"type": "string"
				},
				{
					"internalType": "string",
					"name": "lane",
					"type": "string"
				},
				{
					"internalType": "uint64",
					"name": "games",
					"type": "uint64"
				},
				{
					"internalType": "uint64",
					"name": "kills",
					"type": "uint64"
				},
				{
					"internalType": "uint64",
					"name": "deaths",
					"type": "uint64"
				},
				{
					"internalType": "uint64",
					"name": "assists",
					"type": "uint64"
				}
			],
			"stateMutability": "view",
			"type": "function"
		},
		{
			"inputs": [
				{
					"internalType": "bytes32",
					"name": "",
					"type": "bytes32"
				}
			],
			"name": "s_requestExists",
			"outputs": [
				{
					"internalType": "bool",
					"name": "",
					"type": "bool"
				}
			],
			"stateMutability": "view",
			"type": "function"
		},
		{
			"inputs": [
				{
					"internalType": "bytes32",
					"name": "",
					"type": "bytes32"
				}
			],
			"name": "s_requestToTokenId",
			"outputs": [
				{
					"internalType": "uint256",
					"name": "",
					"type": "uint256"
				}
			],
			"stateMutability": "view",
			"type": "function"
		},
		{
			"inputs": [
				{
					"internalType": "address",
					"name": "to",
					"type": "address"
				},
				{
					"internalType": "string",
					"name": "_nickname",
					"type": "string"
				},
				{
					"internalType": "string",
					"name": "_lane",
					"type": "string"
				}
			],
			"name": "safeMint",
			"outputs": [],
			"stateMutability": "nonpayable",
			"type": "function"
		},
		{
			"inputs": [
				{
					"internalType": "address",
					"name": "from",
					"type": "address"
				},
				{
					"internalType": "address",
					"name": "to",
					"type": "address"
				},
				{
					"internalType": "uint256",
					"name": "tokenId",
					"type": "uint256"
				}
			],
			"name": "safeTransferFrom",
			"outputs": [],
			"stateMutability": "nonpayable",
			"type": "function"
		},
		{
			"inputs": [
				{
					"internalType": "address",
					"name": "from",
					"type": "address"
				},
				{
					"internalType": "address",
					"name": "to",
					"type": "address"
				},
				{
					"internalType": "uint256",
					"name": "tokenId",
					"type": "uint256"
				},
				{
					"internalType": "bytes",
					"name": "data",
					"type": "bytes"
				}
			],
			"name": "safeTransferFrom",
			"outputs": [],
			"stateMutability": "nonpayable",
			"type": "function"
		},
		{
			"inputs": [
				{
					"internalType": "address",
					"name": "operator",
					"type": "address"
				},
				{
					"internalType": "bool",
					"name": "approved",
					"type": "bool"
				}
			],
			"name": "setApprovalForAll",
			"outputs": [],
			"stateMutability": "nonpayable",
			"type": "function"
		},
		{
			"inputs": [
				{
					"internalType": "uint256",
					"name": "_intervalSeconds",
					"type": "uint256"
				},
				{
					"internalType": "uint256",
					"name": "_targetTokenId",
					"type": "uint256"
				}
			],
			"name": "setAutomationSettings",
			"outputs": [],
			"stateMutability": "nonpayable",
			"type": "function"
		},
		{
			"inputs": [
				{
					"internalType": "string",
					"name": "_sourceCode",
					"type": "string"
				}
			],
			"name": "setSourceCode",
			"outputs": [],
			"stateMutability": "nonpayable",
			"type": "function"
		},
		{
			"inputs": [],
			"name": "sourceCode",
			"outputs": [
				{
					"internalType": "string",
					"name": "",
					"type": "string"
				}
			],
			"stateMutability": "view",
			"type": "function"
		},
		{
			"inputs": [],
			"name": "subscriptionId",
			"outputs": [
				{
					"internalType": "uint64",
					"name": "",
					"type": "uint64"
				}
			],
			"stateMutability": "view",
			"type": "function"
		},
		{
			"inputs": [
				{
					"internalType": "bytes4",
					"name": "interfaceId",
					"type": "bytes4"
				}
			],
			"name": "supportsInterface",
			"outputs": [
				{
					"internalType": "bool",
					"name": "",
					"type": "bool"
				}
			],
			"stateMutability": "view",
			"type": "function"
		},
		{
			"inputs": [],
			"name": "symbol",
			"outputs": [
				{
					"internalType": "string",
					"name": "",
					"type": "string"
				}
			],
			"stateMutability": "view",
			"type": "function"
		},
		{
			"inputs": [],
			"name": "targetTokenIdToUpdate",
			"outputs": [
				{
					"internalType": "uint256",
					"name": "",
					"type": "uint256"
				}
			],
			"stateMutability": "view",
			"type": "function"
		},
		{
			"inputs": [
				{
					"internalType": "uint256",
					"name": "tokenId",
					"type": "uint256"
				}
			],
			"name": "tokenURI",
			"outputs": [
				{
					"internalType": "string",
					"name": "",
					"type": "string"
				}
			],
			"stateMutability": "view",
			"type": "function"
		},
		{
			"inputs": [],
			"name": "totalSupply",
			"outputs": [
				{
					"internalType": "uint256",
					"name": "",
					"type": "uint256"
				}
			],
			"stateMutability": "view",
			"type": "function"
		},
		{
			"inputs": [
				{
					"internalType": "address",
					"name": "from",
					"type": "address"
				},
				{
					"internalType": "address",
					"name": "to",
					"type": "address"
				},
				{
					"internalType": "uint256",
					"name": "tokenId",
					"type": "uint256"
				}
			],
			"name": "transferFrom",
			"outputs": [],
			"stateMutability": "nonpayable",
			"type": "function"
		},
		{
			"inputs": [
				{
					"internalType": "address",
					"name": "newOwner",
					"type": "address"
				}
			],
			"name": "transferOwnership",
			"outputs": [],
			"stateMutability": "nonpayable",
			"type": "function"
		}
	]
}