{
	"data": {
		"bytecode": {
			"linkReferences": {},
			"object": "60a0604052600980546001600160a01b03191673b83e47c2bc239b3bf370bc41e1459a34b41238d01790557f66756e2d657468657265756d2d7365706f6c69612d3100000000000000000000600a5562015180600e55348015610060575f5ffd5b506040516145a03803806145a083398101604081905261007f916101a9565b600954604080518082018252600e81526d26a8261026b7b232b61020902b1960911b6020808301919091528251808401909352600583526426a826209960d91b908301526001600160a01b039092169133915f6100dc8382610279565b5060016100e98282610279565b5050506001600160a01b03811661011957604051631e4fbdf760e01b81525f600482015260240160405180910390fd5b61012281610158565b506001600160a01b0316608052600b80546001600160401b0319166001600160401b039290921691909117905542600d55610337565b600780546001600160a01b038381166001600160a01b0319831681179093556040519116919082907f8be0079c531659141344cd1fd0a4f28419497f9722a3daafe3b4186f6b6457e0905f90a35050565b5f602082840312156101b9575f5ffd5b81516001600160401b03811681146101cf575f5ffd5b9392505050565b634e487b7160e01b5f52604160045260245ffd5b600181811c908216806101fe57607f821691505b60208210810361021c57634e487b7160e01b5f52602260045260245ffd5b50919050565b601f821115610274578282111561027457805f5260205f20601f840160051c602085101561024d57505f5b90810190601f840160051c035f5b81811015610270575f8382015560010161025b565b5050505b505050565b81516001600160401b03811115610292576102926101d6565b6102a6816102a084546101ea565b84610222565b6020601f8211600181146102d8575f83156102c15750848201515b5f19600385901b1c1916600184901b178455610330565b5f84815260208120601f198516915b8281101561030757878501518255602094850194600190920191016102e7565b508482101561032457868401515f19600387901b60f8161c191681555b505060018360011b0184555b5050505050565b60805161424a6103565f395f81816105410152611c12015261424a5ff3fe608060405234801561000f575f5ffd5b50600436106101c5575f3560e01c806368015a4b116100fe57806395d89b411161009e578063c87b56dd1161006e578063c87b56dd146103e7578063e985e9c5146103fa578063eca81d421461040d578063f2fde38b14610420575f5ffd5b806395d89b4114610393578063a22cb4651461039b578063b4cfae44146103ae578063b88d4fde146103d4575f5ffd5b8063715018a6116100d9578063715018a6146103685780638da5cb5b14610370578063947a36fb14610381578063948814761461038a575f5ffd5b806368015a4b146103155780636e04ff0d1461033457806370a0823114610355575f5ffd5b806313c60177116101695780633f3b3b27116101445780633f3b3b27146102c557806342842e0e146102dc5780634585e33b146102ef5780636352211e14610302575f5ffd5b806313c601771461029757806322e817e21461029f57806323b872dd146102b2575f5ffd5b8063081812fc116101a4578063081812fc1461021b578063095ea7b31461024657806309c1ba2e146102595780630ca7617514610284575f5ffd5b8062b46767146101c957806301ffc9a7146101de57806306fdde0314610206575b5f5ffd5b6101dc6101d73660046125b8565b610433565b005b6101f16101ec3660046125fe565b61044b565b60405190151581526020015b60405180910390f35b61020e610475565b6040516101fd9190612647565b61022e610229366004612659565b610504565b6040516001600160a01b0390911681526020016101fd565b6101dc61025436600461268b565b61052b565b600b5461026c906001600160401b031681565b6040516001600160401b0390911681526020016101fd565b6101dc6102923660046126b3565b610536565b61020e6105b9565b6101dc6102ad36600461271e565b610645565b6101dc6102c036600461273e565b610658565b6102ce600d5481565b6040519081526020016101fd565b6101dc6102ea36600461273e565b6106e6565b6101dc6102fd366004612778565b610705565b61022e610310366004612659565b6107c1565b6102ce610323366004612659565b60116020525f908152604090205481565b610347610342366004612778565b6107cb565b6040516101fd9291906127e4565b6102ce6103633660046127fe565b610809565b6101dc61084e565b6007546001600160a01b031661022e565b6102ce600e5481565b6102ce600f5481565b61020e610861565b6101dc6103a9366004612817565b610870565b6103c16103bc366004612659565b61087b565b6040516101fd9796959493929190612850565b6101dc6103e23660046128d2565b610a60565b61020e6103f5366004612659565b610a78565b6101f1610408366004612935565b610b81565b6101dc61041b366004612966565b610bae565b6101dc61042e3660046127fe565b610cff565b61043b610d3c565b600c6104478282612a21565b5050565b5f6001600160e01b03198216632483248360e11b148061046f575061046f82610d69565b92915050565b60605f80546104839061299b565b80601f01602080910402602001604051908101604052809291908181526020018280546104af9061299b565b80156104fa5780601f106104d1576101008083540402835291602001916104fa565b820191905f5260205f20905b8154815290600101906020018083116104dd57829003601f168201915b5050505050905090565b5f61050e82610db8565b505f828152600460205260409020546001600160a01b031661046f565b610447828233610df0565b336001600160a01b037f0000000000000000000000000000000000000000000000000000000000000000161461057f5760405163c6829f8360e01b815260040160405180910390fd5b61058a838383610dfd565b60405183907f85e1543bf2f84fe80c6badbce3648c8539ad1df4d2b3d822938ca0538be727e6905f90a2505050565b600c80546105c69061299b565b80601f01602080910402602001604051908101604052809291908181526020018280546105f29061299b565b801561063d5780601f106106145761010080835404028352916020019161063d565b820191905f5260205f20905b81548152906001019060200180831161062057829003601f168201915b505050505081565b61064d610d3c565b600e91909155600f55565b6001600160a01b03821661068657604051633250574960e11b81525f60048201526024015b60405180910390fd5b5f610692838333610f1d565b9050836001600160a01b0316816001600160a01b0316146106e0576040516364283d7b60e01b81526001600160a01b038086166004830152602482018490528216604482015260640161067d565b50505050565b61070083838360405180602001604052805f815250610a60565b505050565b600e54600d546107159042612aef565b11156104475742600d55600f545f81815260106020526040902080546107009291906107409061299b565b80601f016020809104026020016040519081016040528092919081815260200182805461076c9061299b565b80156107b75780601f1061078e576101008083540402835291602001916107b7565b820191905f5260205f20905b81548152906001019060200180831161079a57829003601f168201915b505050505061100f565b5f61046f82610db8565b5f6060600e54600d54426107df9190612aef565b1180156107ef5750600854600f54105b915060405180602001604052805f81525090509250929050565b5f6001600160a01b038216610833576040516322718ad960e21b81525f600482015260240161067d565b506001600160a01b03165f9081526003602052604090205490565b610856610d3c565b61085f5f611180565b565b6060600180546104839061299b565b6104473383836111d1565b60106020525f90815260409020805481906108959061299b565b80601f01602080910402602001604051908101604052809291908181526020018280546108c19061299b565b801561090c5780601f106108e35761010080835404028352916020019161090c565b820191905f5260205f20905b8154815290600101906020018083116108ef57829003601f168201915b5050505050908060010180546109219061299b565b80601f016020809104026020016040519081016040528092919081815260200182805461094d9061299b565b80156109985780601f1061096f57610100808354040283529160200191610998565b820191905f5260205f20905b81548152906001019060200180831161097b57829003601f168201915b50505050600283015460038401805493946001600160401b0380841695600160401b850482169550600160801b8504821694600160c01b900490911692906109df9061299b565b80601f0160208091040260200160405190810160405280929190818152602001828054610a0b9061299b565b8015610a565780601f10610a2d57610100808354040283529160200191610a56565b820191905f5260205f20905b815481529060010190602001808311610a3957829003601f168201915b5050505050905087565b610a6b848484610658565b6106e03385858585611298565b5f81815260106020526040812060030180546060929190610a989061299b565b80601f0160208091040260200160405190810160405280929190818152602001828054610ac49061299b565b8015610b0f5780601f10610ae657610100808354040283529160200191610b0f565b820191905f5260205f20905b815481529060010190602001808311610af257829003601f168201915b505050505090505f610b20826113c0565b90505f610b55610b2f866113cc565b83604051602001610b41929190612b19565b6040516020818303038152906040526113c0565b905080604051602001610b689190612c34565b6040516020818303038152906040529350505050919050565b6001600160a01b039182165f90815260056020908152604080832093909416825291909152205460ff1690565b610bb6610d3c565b6008546040805160e08101825284815260208082018590525f828401819052606083018190526080830181905260a083018190528351808301855281815260c084015284815260109091529190912081518190610c139082612a21565b5060208201516001820190610c289082612a21565b5060408201516002820180546060850151608086015160a08701516001600160401b03908116600160c01b026001600160c01b03928216600160801b02929092166001600160801b03938216600160401b026001600160801b0319909516919096161792909217169290921791909117905560c08201516003820190610cae9082612a21565b50905050610cbf815f5f5f5f61145b565b5f82815260106020526040902060030190610cda9082612a21565b50610ce58482611794565b60088054905f610cf483612c65565b919050555050505050565b610d07610d3c565b6001600160a01b038116610d3057604051631e4fbdf760e01b81525f600482015260240161067d565b610d3981611180565b50565b6007546001600160a01b0316331461085f5760405163118cdaa760e01b815233600482015260240161067d565b5f6001600160e01b031982166380ac58cd60e01b1480610d9957506001600160e01b03198216635b5e139f60e01b145b8061046f57506301ffc9a760e01b6001600160e01b031983161461046f565b5f818152600260205260408120546001600160a01b03168061046f57604051637e27328960e01b81526004810184905260240161067d565b61070083838360016117ad565b805115610e3b5760405162461bcd60e51b815260206004820152600c60248201526b27b930b1b6329022b93937b960a11b604482015260640161067d565b5f8381526011602090815260408220548451909291610e609186018101908601612c7d565b5f8381526010602052604090819020600201805460c084901c6001600160801b03909116600160c01b6001600160401b038681169190910267ffffffffffffffff60801b191691909117600160801b9486901c80831695909502176001600160801b031916600160401b608087901c9283160267ffffffffffffffff19161782179092559293508392610ef6868284868861145b565b5f87815260106020526040902060030190610f119082612a21565b50505050505050505050565b5f828152600260205260408120546001600160a01b0390811690831615610f4957610f498184866118b1565b6001600160a01b03811615610f8357610f645f855f5f6117ad565b6001600160a01b0381165f90815260036020526040902080545f190190555b6001600160a01b03851615610fb1576001600160a01b0385165f908152600360205260409020805460010190555b5f8481526002602052604080822080546001600160a01b0319166001600160a01b0389811691821790925591518793918516917fddf252ad1be2c89b69c2b068fc378daa952ba7f163c4a11628f55a4df523b3ef91a4949350505050565b5f61104e6040805160e08101909152805f81526020015f81526020015f8152602001606081526020016060815260200160608152602001606081525090565b6110e9600c805461105e9061299b565b80601f016020809104026020016040519081016040528092919081815260200182805461108a9061299b565b80156110d55780601f106110ac576101008083540402835291602001916110d5565b820191905f5260205f20905b8154815290600101906020018083116110b857829003601f168201915b50505050508261191590919063ffffffff16565b6040805160018082528183019092525f91816020015b60608152602001906001900390816110ff57905050905083815f8151811061112957611129612c94565b602090810291909101015261113e8282611921565b61116661114a8361194a565b600b54600a546001600160401b0390911690620493e090611c0e565b5f8181526011602052604090209590955550929392505050565b600780546001600160a01b038381166001600160a01b0319831681179093556040519116919082907f8be0079c531659141344cd1fd0a4f28419497f9722a3daafe3b4186f6b6457e0905f90a35050565b6001600160a01b0383166111fa5760405163a9fbf51f60e01b81525f600482015260240161067d565b6001600160a01b03821661122c57604051630b61174360e31b81526001600160a01b038316600482015260240161067d565b6001600160a01b038381165f81815260056020908152604080832094871680845294825291829020805460ff191686151590811790915591519182527f17307eab39ab6107e8899845ad3d59bd9653f200f220920489ca2b5937696c31910160405180910390a3505050565b6001600160a01b0383163b156113b957604051630a85bd0160e11b81526001600160a01b0384169063150b7a02906112da908890889087908790600401612ca8565b6020604051808303815f875af1925050508015611314575060408051601f3d908101601f1916820190925261131191810190612ce4565b60015b61137b573d808015611341576040519150601f19603f3d011682016040523d82523d5f602084013e611346565b606091505b5080515f0361137357604051633250574960e11b81526001600160a01b038516600482015260240161067d565b805160208201fd5b6001600160e01b03198116630a85bd0160e11b146113b757604051633250574960e11b81526001600160a01b038516600482015260240161067d565b505b5050505050565b606061046f825f611cdb565b60605f6113d883611e5a565b60010190505f816001600160401b038111156113f6576113f6612515565b6040519080825280601f01601f191660200182016040528015611420576020820181803683370190505b5090508181016020015b5f19016f181899199a1a9b1b9c1cb0b131b232b360811b600a86061a8153600a850494508461142a57509392505050565b60605f60105f8881526020019081526020015f206040518060e00160405290815f820180546114899061299b565b80601f01602080910402602001604051908101604052809291908181526020018280546114b59061299b565b80156115005780601f106114d757610100808354040283529160200191611500565b820191905f5260205f20905b8154815290600101906020018083116114e357829003601f168201915b505050505081526020016001820180546115199061299b565b80601f01602080910402602001604051908101604052809291908181526020018280546115459061299b565b80156115905780601f1061156757610100808354040283529160200191611590565b820191905f5260205f20905b81548152906001019060200180831161157357829003601f168201915b505050918352505060028201546001600160401b038082166020840152600160401b820481166040840152600160801b820481166060840152600160c01b90910416608082015260038201805460a0909201916115ec9061299b565b80601f01602080910402602001604051908101604052809291908181526020018280546116189061299b565b80156116635780601f1061163a57610100808354040283529160200191611663565b820191905f5260205f20905b81548152906001019060200180831161164657829003601f168201915b50505050508152505090505f846001600160401b03165f146116855784611688565b60015b90505f816001600160401b0316856001600160401b0316886001600160401b03166116b39190612d13565b6116be906064612d26565b6116c89190612d3d565b90505f6116de6116d9606484612d3d565b6113cc565b6116ec6116d9606485612d50565b6040516020016116fd929190612d63565b6040516020818303038152906040529050835f015184602001516117298b6001600160401b03166113cc565b61173b8b6001600160401b03166113cc565b61174d8b6001600160401b03166113cc565b61175f8b6001600160401b03166113cc565b866040516020016117769796959493929190612d8b565b60405160208183030381529060405294505050505095945050505050565b610447828260405180602001604052805f815250611f31565b80806117c157506001600160a01b03821615155b15611882575f6117d084610db8565b90506001600160a01b038316158015906117fc5750826001600160a01b0316816001600160a01b031614155b801561180f575061180d8184610b81565b155b156118385760405163a9fbf51f60e01b81526001600160a01b038416600482015260240161067d565b81156118805783856001600160a01b0316826001600160a01b03167f8c5be1e5ebec7d5bd14f71427d1e84f3dd0314c0f7b2291e5b200ac8c7c3b92560405160405180910390a45b505b50505f90815260046020526040902080546001600160a01b0319166001600160a01b0392909216919091179055565b6118bc838383611f48565b610700576001600160a01b0383166118ea57604051637e27328960e01b81526004810182905260240161067d565b60405163177e802f60e01b81526001600160a01b03831660048201526024810182905260440161067d565b610447825f5f84611fac565b80515f036119425760405163fe936cb760e01b815260040160405180910390fd5b60a090910152565b60605f611958610100612029565b90506119916040518060400160405280600c81526020016b31b7b232a637b1b0ba34b7b760a11b8152508261204990919063ffffffff16565b82516119af9060028111156119a8576119a86140ca565b8290612062565b6040805180820190915260088152676c616e677561676560c01b60208201526119d9908290612049565b60408301516119f09080156119a8576119a86140ca565b604080518082019091526006815265736f7572636560d01b6020820152611a18908290612049565b6060830151611a28908290612049565b60a08301515115611ab3576040805180820190915260048152636172677360e01b6020820152611a59908290612049565b611a628161209b565b5f5b8360a0015151811015611aa957611aa18460a001518281518110611a8a57611a8a612c94565b60200260200101518361204990919063ffffffff16565b600101611a64565b50611ab3816120bf565b60808301515115611b76575f83602001516002811115611ad557611ad56140ca565b03611af35760405163a80d31f760e01b815260040160405180910390fd5b60408051808201909152600f81526e39b2b1b932ba39a637b1b0ba34b7b760891b6020820152611b24908290612049565b611b3d836020015160028111156119a8576119a86140ca565b6040805180820190915260078152667365637265747360c81b6020820152611b66908290612049565b6080830151611b769082906120dd565b60c08301515115611c065760408051808201909152600981526862797465734172677360b81b6020820152611bac908290612049565b611bb58161209b565b5f5b8360c0015151811015611bfc57611bf48460c001518281518110611bdd57611bdd612c94565b6020026020010151836120dd90919063ffffffff16565b600101611bb7565b50611c06816120bf565b515192915050565b5f5f7f00000000000000000000000000000000000000000000000000000000000000006001600160a01b031663461d27628688600188886040518663ffffffff1660e01b8152600401611c659594939291906140de565b6020604051808303815f875af1158015611c81573d5f5f3e3d5ffd5b505050506040513d601f19601f82011682018060405250810190611ca59190612c7d565b60405190915081907f1131472297a800fee664d1d89cfa8f7676ff07189ecc53f80bbb5f4969099db8905f90a295945050505050565b606082515f03611cf9575060408051602081019091525f815261046f565b5f82611d2957600384516002611d0f9190612d13565b611d199190612d3d565b611d24906004612d26565b611d4e565b600384516004611d399190612d26565b611d44906002612d13565b611d4e9190612d3d565b905060405191507f4142434445464748494a4b4c4d4e4f505152535455565758595a616263646566601f5261067083027f6768696a6b6c6d6e6f707172737475767778797a303132333435363738392b2f18603f526020820181810185865187016020810180515f82525b82841015611e0c576003840193508351603f8160121c16518753600187019650603f81600c1c16518753600187019650603f8160061c16518753600187019650603f811651875350600186019550611db9565b905250859050611e4d57600386510660018114611e305760028114611e4357611e4b565b603d6001840353603d6002840353611e4b565b603d60018403535b505b9183525060405292915050565b5f8072184f03e93ff9f4daa797ed6e38ed64bf6a1f0160401b8310611e985772184f03e93ff9f4daa797ed6e38ed64bf6a1f0160401b830492506040015b6d04ee2d6d415b85acef81000000008310611ec4576d04ee2d6d415b85acef8100000000830492506020015b662386f26fc100008310611ee257662386f26fc10000830492506010015b6305f5e1008310611efa576305f5e100830492506008015b6127108310611f0e57612710830492506004015b60648310611f20576064830492506002015b600a831061046f5760010192915050565b611f3b83836120ea565b610700335f858585611298565b5f6001600160a01b03831615801590611fa45750826001600160a01b0316846001600160a01b03161480611f815750611f818484610b81565b80611fa457505f828152600460205260409020546001600160a01b038481169116145b949350505050565b80515f03611fcd576040516322ce3edd60e01b815260040160405180910390fd5b83836002811115611fe057611fe06140ca565b90816002811115611ff357611ff36140ca565b90525060408401828015612009576120096140ca565b90818015612019576120196140ca565b9052506060909301929092525050565b6120316124e2565b805161203d908361214b565b505f6020820152919050565b61205682600383516121bf565b815161070090826122d8565b815161206f9060c26122ff565b50610447828260405160200161208791815260200190565b6040516020818303038152906040526120dd565b6120a6816004612366565b6001816020018181516120b99190612d13565b90525050565b6120ca816007612366565b6001816020018181516120b99190612aef565b61205682600283516121bf565b6001600160a01b03821661211357604051633250574960e11b81525f600482015260240161067d565b5f61211f83835f610f1d565b90506001600160a01b03811615610700576040516339e3563760e11b81525f600482015260240161067d565b60408051808201909152606081525f602082015261216a602083612d50565b156121925761217a602083612d50565b612185906020612aef565b61218f9083612d13565b91505b60208084018390526040518085525f81529081840101818110156121b4575f5ffd5b604052509192915050565b6017816001600160401b0316116121e55782516106e09060e0600585901b1683176122ff565b60ff816001600160401b03161161222557825161220d906018611fe0600586901b16176122ff565b5082516106e0906001600160401b038316600161237d565b61ffff816001600160401b03161161226657825161224e906019611fe0600586901b16176122ff565b5082516106e0906001600160401b038316600261237d565b63ffffffff816001600160401b0316116122a957825161229190601a611fe0600586901b16176122ff565b5082516106e0906001600160401b038316600461237d565b82516122c090601b611fe0600586901b16176122ff565b5082516106e0906001600160401b038316600861237d565b60408051808201909152606081525f60208201526122f8838384516123ff565b9392505050565b60408051808201909152606081525f60208201528251515f612322826001612d13565b905084602001518210612343576123438561233e836002612d26565b6124cb565b845160208382010185815350805182111561235c578181525b5093949350505050565b815161070090601f611fe0600585901b16176122ff565b60408051808201909152606081525f60208201528351515f61239f8285612d13565b905085602001518111156123bc576123bc8661233e836002612d26565b5f60016123cb86610100614209565b6123d59190612aef565b905086518281018783198251161781525080518311156123f3578281525b50959695505050505050565b60408051808201909152606081525f60208201528251821115612420575f5ffd5b8351515f61242e8483612d13565b9050856020015181111561244b5761244b8661233e836002612d26565b85518051838201602001915f9180851115612464578482525b505050602086015b602086106124a45780518252612483602083612d13565b9150612490602082612d13565b905061249d602087612aef565b955061246c565b5181515f1960208890036101000a0190811690199190911617905250849150509392505050565b81516124d7838361214b565b506106e083826122d8565b60405180604001604052806125096040518060400160405280606081526020015f81525090565b81526020015f81525090565b634e487b7160e01b5f52604160045260245ffd5b5f82601f830112612538575f5ffd5b8135602083015f5f6001600160401b0384111561255757612557612515565b50604051601f19601f85018116603f011681018181106001600160401b038211171561258557612585612515565b60405283815290508082840187101561259c575f5ffd5b838360208301375f602085830101528094505050505092915050565b5f602082840312156125c8575f5ffd5b81356001600160401b038111156125dd575f5ffd5b611fa484828501612529565b6001600160e01b031981168114610d39575f5ffd5b5f6020828403121561260e575f5ffd5b81356122f8816125e9565b5f81518084528060208401602086015e5f602082860101526020601f19601f83011685010191505092915050565b602081525f6122f86020830184612619565b5f60208284031215612669575f5ffd5b5035919050565b80356001600160a01b0381168114612686575f5ffd5b919050565b5f5f6040838503121561269c575f5ffd5b6126a583612670565b946020939093013593505050565b5f5f5f606084860312156126c5575f5ffd5b8335925060208401356001600160401b038111156126e1575f5ffd5b6126ed86828701612529565b92505060408401356001600160401b03811115612708575f5ffd5b61271486828701612529565b9150509250925092565b5f5f6040838503121561272f575f5ffd5b50508035926020909101359150565b5f5f5f60608486031215612750575f5ffd5b61275984612670565b925061276760208501612670565b929592945050506040919091013590565b5f5f60208385031215612789575f5ffd5b82356001600160401b0381111561279e575f5ffd5b8301601f810185136127ae575f5ffd5b80356001600160401b038111156127c3575f5ffd5b8560208284010111156127d4575f5ffd5b6020919091019590945092505050565b8215158152604060208201525f611fa46040830184612619565b5f6020828403121561280e575f5ffd5b6122f882612670565b5f5f60408385031215612828575f5ffd5b61283183612670565b915060208301358015158114612845575f5ffd5b809150509250929050565b60e081525f61286260e083018a612619565b8281036020840152612874818a612619565b90506001600160401b03881660408401526001600160401b03871660608401526001600160401b03861660808401526001600160401b03851660a084015282810360c08401526128c48185612619565b9a9950505050505050505050565b5f5f5f5f608085870312156128e5575f5ffd5b6128ee85612670565b93506128fc60208601612670565b92506040850135915060608501356001600160401b0381111561291d575f5ffd5b61292987828801612529565b91505092959194509250565b5f5f60408385031215612946575f5ffd5b61294f83612670565b915061295d60208401612670565b90509250929050565b5f5f5f60608486031215612978575f5ffd5b61298184612670565b925060208401356001600160401b038111156126e1575f5ffd5b600181811c908216806129af57607f821691505b6020821081036129cd57634e487b7160e01b5f52602260045260245ffd5b50919050565b601f821115610700578282111561070057805f5260205f20601f840160051c60208510156129fe57505f5b90810190601f840160051c035f5b818110156113b7575f83820155600101612a0c565b81516001600160401b03811115612a3a57612a3a612515565b612a4e81612a48845461299b565b846129d3565b6020601f821160018114612a80575f8315612a695750848201515b5f19600385901b1c1916600184901b1784556113b9565b5f84815260208120601f198516915b82811015612aaf5787850151825560209485019460019092019101612a8f565b5084821015612acc57868401515f19600387901b60f8161c191681555b50505050600190811b01905550565b634e487b7160e01b5f52601160045260245ffd5b8181038181111561046f5761046f612adb565b5f81518060208401855e5f93019283525090919050565b7f7b226e616d65223a20224b61727475204e6f6e2d4f7074696d697a656420230081525f612b4a601f830185612b02565b6201116160ed1b81527f226465736372697074696f6e223a20224b6172747520644e4654204d504c202860038201527f4d6f64656c2041292e204d656e6767756e616b616e206d656d6f72692053746160238201527f74652053746f72616765207365636172612070656e756820756e74756b207065604382015271036b13ab5ba34b0b7103934b9b2ba171116160751b60638201527f22696d616765223a2022646174613a696d6167652f7376672b786d6c3b626173607582015263194d8d0b60e21b6095820152612c206099820185612b02565b61227d60f01b815260020195945050505050565b7f646174613a6170706c69636174696f6e2f6a736f6e3b6261736536342c00000081525f6122f8601d830184612b02565b5f60018201612c7657612c76612adb565b5060010190565b5f60208284031215612c8d575f5ffd5b5051919050565b634e487b7160e01b5f52603260045260245ffd5b6001600160a01b03858116825284166020820152604081018390526080606082018190525f90612cda90830184612619565b9695505050505050565b5f60208284031215612cf4575f5ffd5b81516122f8816125e9565b634e487b7160e01b5f52601260045260245ffd5b8082018082111561046f5761046f612adb565b808202811582820484141761046f5761046f612adb565b5f82612d4b57612d4b612cff565b500490565b5f82612d5e57612d5e612cff565b500690565b5f612d6e8285612b02565b601760f91b8152612d826001820185612b02565b95945050505050565b7f3c7376672077696474683d2233323022206865696768743d223430302220766981527f6577426f783d2230203020333230203430302220786d6c6e733d22687474703a60208201527f2f2f7777772e77332e6f72672f323030302f737667223e00000000000000000060408201527f3c672073686170652d72656e646572696e673d2263726973704564676573223e60578201527f3c7265637420783d22302220793d2230222077696474683d223332302220686560778201527f696768743d22343030222066696c6c3d2223313531353135222f3e3c7265637460978201527f20783d22382220793d2238222077696474683d2233303422206865696768743d60b78201527f22333834222066696c6c3d2223303232663532222f3e3c7465787420783d223160d78201527f36302220793d223430222066696c6c3d22236563663066312220666f6e742d7360f78201527f697a653d2232302220746578742d616e63686f723d226d6964646c652220666f6101178201527f6e742d7765696768743d22626f6c64223e504c4159455220434152443c2f74656101378201527f78743e3c6c696e652078313d223230222079313d223535222078323d223330306101578201527f222079323d22353522207374726f6b653d222365636630663122207374726f6b610177820152703296bbb4b23a341e911a11179f1e17b39f60791b6101978201527f3c73766720783d2231302220793d223330222077696474683d223134302220686101a88201527f65696768743d22333830222076696577426f783d2230203020333220333222206101c88201527f73686170652d72656e646572696e673d2263726973704564676573223e3c67206101e88201527f7472616e73666f726d3d227472616e736c6174652833322c203029207363616c6102088201527f65282d312c203129223e3c706174682066696c6c3d22233030303030302220646102288201527f3d224d3131203268313076314831317a204d3920336832763148397a204d32316102488201527f2033683276314832317a204d3820346831763148387a204d32332034683176316102688201527f4832337a204d3820356831763148387a204d32342035683176314832347a204d6102888201527f3820366831763148387a204d32342036683176314832347a204d3820376831766102a88201527f3148387a204d32342037683176314832347a204d3820386831763148387a204d6102c88201527f32342038683176314832347a204d3920396831763148397a204d3234203968316102e88201527f76314832347a204d392031306831763148397a204d32332031306831763148326103088201527f337a204d392031316831763148397a204d3132203131683276314831327a204d6103288201527f3138203131683276314831387a204d3233203131683176314832337a204d39206103488201527f31326831763148397a204d3233203132683176314832337a204d3130203133686103688201527f3176314831307a204d3232203133683176314832327a204d31302031346831766103888201527f314831307a204d3232203134683176314832327a204d313020313568317631486103a88201527f31307a204d3232203135683176314832327a204d3131203136683176314831316103c88201527f7a204d3231203136683176314832317a204d3131203137683176314831317a206103e88201527f4d3231203137683176314832317a204d3132203138683176314831327a204d326104088201527f30203138683176314832307a204d3132203139683176314831327a204d3230206104288201527f3139683176314832307a204d3131203230683176314831317a204d32312032306104488201527f683176314832317a204d392032316832763148397a204d3232203231683276316104688201527f4832327a204d372032326832763148377a204d3234203232683276314832347a6104888201527f204d362032336831763148367a204d3236203233683176314832367a204d35206104a88201527f32346831763148357a204d3237203234683176314832377a204d3420323568316104c88201527f763148347a204d3238203235683176314832387a204d332032366831763148336104e88201527f7a204d3239203236683176314832397a204d332032376831763148337a204d326105088201527f39203237683176314832397a204d332032386831763148337a204d32392032386105288201527f683176314832397a204d332032396831763148337a204d3239203239683176316105488201527f4832397a204d332033306831763148337a204d3239203330683176314832397a6105688201527f204d33203331683237763148337a22202f3e3c706174682066696c6c3d2223306105888201527f30303030302220643d224d3131203368313076314831317a204d3920346831346105a88201527f763148397a204d392035683135763148397a204d392036683135763148397a206105c88201527f4d392037683135763148397a204d3920386833763148397a204d3230203868346105e88201527f76314832307a204d31302039683276314831307a204d323220396832763148326106088201527f327a204d3130203130683176314831307a204d3232203130683176314832327a6106288201527f22202f3e3c706174682066696c6c3d22236534623539302220643d224d3132206106488201527f38683876314831327a204d3132203968313076314831327a204d3131203130686106688201527f313176314831317a204d3130203131683276314831307a204d313420313168346106888201527f76314831347a204d3230203131683376314832307a204d3130203132683133766106a88201527f314831307a204d3131203133683476314831317a204d313720313368357631486106c88201527f31377a204d313120313468313176314831317a204d31312031356833763148316106e88201527f317a204d3138203135683476314831387a204d3132203136683976314831327a6107088201527f204d3132203137683976314831327a204d3133203138683776314831337a22206107288201527f2f3e3c706174682066696c6c3d22236335393437332220643d224d31352031336107488201527f683276314831357a204d3133203139683776314831337a204d313420323068356107688201527f76314831347a22202f3e3c706174682066696c6c3d22236264366134662220646107888201527f3d224d3134203135683476314831347a22202f3e3c706174682066696c6c3d226107a88201527f236666666666662220643d224d3132203230683276314831327a204d313920326107c88201527f30683276314831397a204d3131203231683376314831317a204d3139203231686107e88201527f3376314831397a204d392032326834763148397a204d323020323268347631486108088201527f32307a204d372032336835763148377a204d3231203233683576314832317a206108288201527f4d362032346835763148367a204d3232203234683576314832327a204d3520326108488201527f356835763148357a204d3133203235683276314831337a204d313620323568326108688201527f76314831367a204d3139203235683276314831397a204d3233203235683576316108888201527f4832337a204d342032366835763148347a204d3234203236683576314832347a6108a88201527f204d342032376834763148347a204d3235203237683476314832357a204d34206108c88201527f32386834763148347a204d3235203238683476314832357a204d3420323968346108e88201527f763148347a204d3235203239683476314832357a204d362033306832763148366109088201527f7a204d3235203330683276314832357a22202f3e3c706174682066696c6c3d226109288201527f236566383131352220643d224d3134203231683576314831347a204d313320326109488201527f32683776314831337a204d3132203233683976314831327a204d3131203234686109688201527f313176314831317a204d3130203235683376314831307a204d313520323568316109888201527f76314831357a204d3138203235683176314831387a204d3231203235683276316109a88201527f4832317a204d39203236683135763148397a204d38203237683137763148387a6109c88201527f204d38203238683137763148387a204d38203239683137763148387a204d34206109e88201527f33306832763148347a204d38203330683137763148387a204d32372033306832610a08820152733b18a4191bbd1110179f1e17b39f1e17b9bb339f60611b610a288201527f3c67207472616e73666f726d3d227472616e736c617465283138302c20313030610a3c8201527f29222073686170652d72656e646572696e673d2263726973704564676573223e610a5c8201527f3c7465787420783d222d33302220793d223230222066696c6c3d222333343938610a7c8201527f64622220666f6e742d73697a653d223134223e504c41594552204e414d453a3c610a9c8201527f2f746578743e3c7465787420783d222d33302220793d223530222066696c6c3d610abc8201527f22236563663066312220666f6e742d73697a653d2232342220666f6e742d7765610adc8201526b34b3b43a1e913137b632111f60a11b610afc8201525f613c5b613c55613bab613b27610b0886018d612b02565b7f3c2f746578743e3c6c696e652078313d222d3235222079313d2237352220783281527f3d22313230222079323d22373522207374726f6b653d2223353535222073747260208201527f6f6b652d77696474683d223422207374726f6b652d6461736861727261793d226040820152651c161b11179f60d11b606082015260660190565b7f3c7465787420783d222d33302220793d22313030222066696c6c3d222365636681527f3066312220666f6e742d73697a653d223134223e4c414e453a3c2f746578743e60208201527f3c7465787420783d223132302220793d22313030222066696c6c3d222365636660408201527f3066312220666f6e742d73697a653d2231342220746578742d616e63686f723d6060820152651132b732111f60d11b608082015260860190565b89612b02565b661e17ba32bc3a1f60c91b81527f3c7465787420783d222d33302220793d22313235222066696c6c3d222365636660078201527f3066312220666f6e742d73697a653d223134223e47414d453a3c2f746578743e60278201527f3c7465787420783d223132302220793d22313235222066696c6c3d222365636660478201527f3066312220666f6e742d73697a653d2231342220746578742d616e63686f723d6067820152651132b732111f60d11b6087820152613d1b608d8201613c55565b661e17ba32bc3a1f60c91b815290507f3c7465787420783d222d33302220793d22313530222066696c6c3d222365636660078201527f3066312220666f6e742d73697a653d223134223e4b494c4c533a3c2f7465787460278201527f3e3c7465787420783d223132302220793d22313530222066696c6c3d2223656360478201527f663066312220666f6e742d73697a653d2231342220746578742d616e63686f726067820152661e9132b732111f60c91b6087820152613ddf608e820188612b02565b661e17ba32bc3a1f60c91b815290507f3c7465787420783d222d33302220793d22313735222066696c6c3d222365636660078201527f3066312220666f6e742d73697a653d223134223e4445415448533a3c2f74657860278201527f743e3c7465787420783d223132302220793d22313735222066696c6c3d22236560478201527f63663066312220666f6e742d73697a653d2231342220746578742d616e63686f606782015267391e9132b732111f60c11b6087820152613ea4608f820187612b02565b661e17ba32bc3a1f60c91b815290507f3c7465787420783d222d33302220793d22323030222066696c6c3d222365636660078201527f3066312220666f6e742d73697a653d223134223e415353495354533a3c2f746560278201527f78743e3c7465787420783d223132302220793d22323030222066696c6c3d222360478201527f6563663066312220666f6e742d73697a653d2231342220746578742d616e636860678201526837b91e9132b732111f60b91b6087820152613f6a6090820186612b02565b661e17ba32bc3a1f60c91b815290507f3c7465787420783d222d33302220793d22323235222066696c6c3d222365636660078201527f3066312220666f6e742d73697a653d223134223e4b44413a3c2f746578743e3c60278201527f7465787420783d223132302220793d22323235222066696c6c3d22236563663060478201527f66312220666f6e742d73697a653d2231342220746578742d616e63686f723d2260678201526432b732111f60d91b608782015261402c608c820185612b02565b661e17ba32bc3a1f60c91b815290507f3c6c696e652078313d222d3330222079313d22323430222078323d223132302260078201527f2079323d2232343022207374726f6b653d222335353522207374726f6b652d7760278201527f696474683d223422207374726f6b652d6461736861727261793d22382c36222f60478201526a1f1e17b39f1e17b9bb339f60a91b6067820152607281016128c4565b634e487b7160e01b5f52602160045260245ffd5b6001600160401b038616815260a060208201525f6140ff60a0830187612619565b61ffff9590951660408301525063ffffffff92909216606083015260809091015292915050565b6001815b60018411156141615780850481111561414557614145612adb565b600184161561415357908102905b60019390931c92800261412a565b935093915050565b5f826141775750600161046f565b8161418357505f61046f565b816001811461419957600281146141a3576141bf565b600191505061046f565b60ff8411156141b4576141b4612adb565b50506001821b61046f565b5060208310610133831016604e8410600b84101617156141e2575081810a61046f565b6141ee5f198484614126565b805f190482111561420157614201612adb565b029392505050565b5f6122f8838361416956fea26469706673582212201511ef30925d1b522e47fff7c8729ddf0fccc227884c1c4726f62bb9c508af6b64736f6c63430008220033",
			"opcodes": "PUSH1 0xA0 PUSH1 0x40 MSTORE PUSH1 0x9 DUP1 SLOAD PUSH1 0x1 PUSH1 0x1 PUSH1 0xA0 SHL SUB NOT AND PUSH20 0xB83E47C2BC239B3BF370BC41E1459A34B41238D0 OR SWAP1 SSTORE PUSH32 0x66756E2D657468657265756D2D7365706F6C69612D3100000000000000000000 PUSH1 0xA SSTORE PUSH3 0x15180 PUSH1 0xE SSTORE CALLVALUE DUP1 ISZERO PUSH2 0x60 JUMPI PUSH0 PUSH0 REVERT JUMPDEST POP PUSH1 0x40 MLOAD PUSH2 0x45A0 CODESIZE SUB DUP1 PUSH2 0x45A0 DUP4 CODECOPY DUP2 ADD PUSH1 0x40 DUP2 SWAP1 MSTORE PUSH2 0x7F SWAP2 PUSH2 0x1A9 JUMP JUMPDEST PUSH1 0x9 SLOAD PUSH1 0x40 DUP1 MLOAD DUP1 DUP3 ADD DUP3 MSTORE PUSH1 0xE DUP2 MSTORE PUSH14 0x26A8261026B7B232B61020902B19 PUSH1 0x91 SHL PUSH1 0x20 DUP1 DUP4 ADD SWAP2 SWAP1 SWAP2 MSTORE DUP3 MLOAD DUP1 DUP5 ADD SWAP1 SWAP4 MSTORE PUSH1 0x5 DUP4 MSTORE PUSH5 0x26A8262099 PUSH1 0xD9 SHL SWAP1 DUP4 ADD MSTORE PUSH1 0x1 PUSH1 0x1 PUSH1 0xA0 SHL SUB SWAP1 SWAP3 AND SWAP2 CALLER SWAP2 PUSH0 PUSH2 0xDC DUP4 DUP3 PUSH2 0x279 JUMP JUMPDEST POP PUSH1 0x1 PUSH2 0xE9 DUP3 DUP3 PUSH2 0x279 JUMP JUMPDEST POP POP POP PUSH1 0x1 PUSH1 0x1 PUSH1 0xA0 SHL SUB DUP2 AND PUSH2 0x119 JUMPI PUSH1 0x40 MLOAD PUSH4 0x1E4FBDF7 PUSH1 0xE0 SHL DUP2 MSTORE PUSH0 PUSH1 0x4 DUP3 ADD MSTORE PUSH1 0x24 ADD PUSH1 0x40 MLOAD DUP1 SWAP2 SUB SWAP1 REVERT JUMPDEST PUSH2 0x122 DUP2 PUSH2 0x158 JUMP JUMPDEST POP PUSH1 0x1 PUSH1 0x1 PUSH1 0xA0 SHL SUB AND PUSH1 0x80 MSTORE PUSH1 0xB DUP1 SLOAD PUSH1 0x1 PUSH1 0x1 PUSH1 0x40 SHL SUB NOT AND PUSH1 0x1 PUSH1 0x1 PUSH1 0x40 SHL SUB SWAP3 SWAP1 SWAP3 AND SWAP2 SWAP1 SWAP2 OR SWAP1 SSTORE TIMESTAMP PUSH1 0xD SSTORE PUSH2 0x337 JUMP JUMPDEST PUSH1 0x7 DUP1 SLOAD PUSH1 0x1 PUSH1 0x1 PUSH1 0xA0 SHL SUB DUP4 DUP2 AND PUSH1 0x1 PUSH1 0x1 PUSH1 0xA0 SHL SUB NOT DUP4 AND DUP2 OR SWAP1 SWAP4 SSTORE PUSH1 0x40 MLOAD SWAP2 AND SWAP2 SWAP1 DUP3 SWAP1 PUSH32 0x8BE0079C531659141344CD1FD0A4F28419497F9722A3DAAFE3B4186F6B6457E0 SWAP1 PUSH0 SWAP1 LOG3 POP POP JUMP JUMPDEST PUSH0 PUSH1 0x20 DUP3 DUP5 SUB SLT ISZERO PUSH2 0x1B9 JUMPI PUSH0 PUSH0 REVERT JUMPDEST DUP2 MLOAD PUSH1 0x1 PUSH1 0x1 PUSH1 0x40 SHL SUB DUP2 AND DUP2 EQ PUSH2 0x1CF JUMPI PUSH0 PUSH0 REVERT JUMPDEST SWAP4 SWAP3 POP POP POP JUMP JUMPDEST PUSH4 0x4E487B71 PUSH1 0xE0 SHL PUSH0 MSTORE PUSH1 0x41 PUSH1 0x4 MSTORE PUSH1 0x24 PUSH0 REVERT JUMPDEST PUSH1 0x1 DUP2 DUP2 SHR SWAP1 DUP3 AND DUP1 PUSH2 0x1FE JUMPI PUSH1 0x7F DUP3 AND SWAP2 POP JUMPDEST PUSH1 0x20 DUP3 LT DUP2 SUB PUSH2 0x21C JUMPI PUSH4 0x4E487B71 PUSH1 0xE0 SHL PUSH0 MSTORE PUSH1 0x22 PUSH1 0x4 MSTORE PUSH1 0x24 PUSH0 REVERT JUMPDEST POP SWAP2 SWAP1 POP JUMP JUMPDEST PUSH1 0x1F DUP3 GT ISZERO PUSH2 0x274 JUMPI DUP3 DUP3 GT ISZERO PUSH2 0x274 JUMPI DUP1 PUSH0 MSTORE PUSH1 0x20 PUSH0 KECCAK256 PUSH1 0x1F DUP5 ADD PUSH1 0x5 SHR PUSH1 0x20 DUP6 LT ISZERO PUSH2 0x24D JUMPI POP PUSH0 JUMPDEST SWAP1 DUP2 ADD SWAP1 PUSH1 0x1F DUP5 ADD PUSH1 0x5 SHR SUB PUSH0 JUMPDEST DUP2 DUP2 LT ISZERO PUSH2 0x270 JUMPI PUSH0 DUP4 DUP3 ADD SSTORE PUSH1 0x1 ADD PUSH2 0x25B JUMP JUMPDEST POP POP POP JUMPDEST POP POP POP JUMP JUMPDEST DUP2 MLOAD PUSH1 0x1 PUSH1 0x1 PUSH1 0x40 SHL SUB DUP2 GT ISZERO PUSH2 0x292 JUMPI PUSH2 0x292 PUSH2 0x1D6 JUMP JUMPDEST PUSH2 0x2A6 DUP2 PUSH2 0x2A0 DUP5 SLOAD PUSH2 0x1EA JUMP JUMPDEST DUP5 PUSH2 0x222 JUMP JUMPDEST PUSH1 0x20 PUSH1 0x1F DUP3 GT PUSH1 0x1 DUP2 EQ PUSH2 0x2D8 JUMPI PUSH0 DUP4 ISZERO PUSH2 0x2C1 JUMPI POP DUP5 DUP3 ADD MLOAD JUMPDEST PUSH0 NOT PUSH1 0x3 DUP6 SWAP1 SHL SHR NOT AND PUSH1 0x1 DUP5 SWAP1 SHL OR DUP5 SSTORE PUSH2 0x330 JUMP JUMPDEST PUSH0 DUP5 DUP2 MSTORE PUSH1 0x20 DUP2 KECCAK256 PUSH1 0x1F NOT DUP6 AND SWAP2 JUMPDEST DUP3 DUP2 LT ISZERO PUSH2 0x307 JUMPI DUP8 DUP6 ADD MLOAD DUP3 SSTORE PUSH1 0x20 SWAP5 DUP6 ADD SWAP5 PUSH1 0x1 SWAP1 SWAP3 ADD SWAP2 ADD PUSH2 0x2E7 JUMP JUMPDEST POP DUP5 DUP3 LT ISZERO PUSH2 0x324 JUMPI DUP7 DUP5 ADD MLOAD PUSH0 NOT PUSH1 0x3 DUP8 SWAP1 SHL PUSH1 0xF8 AND SHR NOT AND DUP2 SSTORE JUMPDEST POP POP PUSH1 0x1 DUP4 PUSH1 0x1 SHL ADD DUP5 SSTORE JUMPDEST POP POP POP POP POP JUMP JUMPDEST PUSH1 0x80 MLOAD PUSH2 0x424A PUSH2 0x356 PUSH0 CODECOPY PUSH0 DUP2 DUP2 PUSH2 0x541 ADD MSTORE PUSH2 0x1C12 ADD MSTORE PUSH2 0x424A PUSH0 RETURN INVALID PUSH1 0x80 PUSH1 0x40 MSTORE CALLVALUE DUP1 ISZERO PUSH2 0xF JUMPI PUSH0 PUSH0 REVERT JUMPDEST POP PUSH1 0x4 CALLDATASIZE LT PUSH2 0x1C5 JUMPI PUSH0 CALLDATALOAD PUSH1 0xE0 SHR DUP1 PUSH4 0x68015A4B GT PUSH2 0xFE JUMPI DUP1 PUSH4 0x95D89B41 GT PUSH2 0x9E JUMPI DUP1 PUSH4 0xC87B56DD GT PUSH2 0x6E JUMPI DUP1 PUSH4 0xC87B56DD EQ PUSH2 0x3E7 JUMPI DUP1 PUSH4 0xE985E9C5 EQ PUSH2 0x3FA JUMPI DUP1 PUSH4 0xECA81D42 EQ PUSH2 0x40D JUMPI DUP1 PUSH4 0xF2FDE38B EQ PUSH2 0x420 JUMPI PUSH0 PUSH0 REVERT JUMPDEST DUP1 PUSH4 0x95D89B41 EQ PUSH2 0x393 JUMPI DUP1 PUSH4 0xA22CB465 EQ PUSH2 0x39B JUMPI DUP1 PUSH4 0xB4CFAE44 EQ PUSH2 0x3AE JUMPI DUP1 PUSH4 0xB88D4FDE EQ PUSH2 0x3D4 JUMPI PUSH0 PUSH0 REVERT JUMPDEST DUP1 PUSH4 0x715018A6 GT PUSH2 0xD9 JUMPI DUP1 PUSH4 0x715018A6 EQ PUSH2 0x368 JUMPI DUP1 PUSH4 0x8DA5CB5B EQ PUSH2 0x370 JUMPI DUP1 PUSH4 0x947A36FB EQ PUSH2 0x381 JUMPI DUP1 PUSH4 0x94881476 EQ PUSH2 0x38A JUMPI PUSH0 PUSH0 REVERT JUMPDEST DUP1 PUSH4 0x68015A4B EQ PUSH2 0x315 JUMPI DUP1 PUSH4 0x6E04FF0D EQ PUSH2 0x334 JUMPI DUP1 PUSH4 0x70A08231 EQ PUSH2 0x355 JUMPI PUSH0 PUSH0 REVERT JUMPDEST DUP1 PUSH4 0x13C60177 GT PUSH2 0x169 JUMPI DUP1 PUSH4 0x3F3B3B27 GT PUSH2 0x144 JUMPI DUP1 PUSH4 0x3F3B3B27 EQ PUSH2 0x2C5 JUMPI DUP1 PUSH4 0x42842E0E EQ PUSH2 0x2DC JUMPI DUP1 PUSH4 0x4585E33B EQ PUSH2 0x2EF JUMPI DUP1 PUSH4 0x6352211E EQ PUSH2 0x302 JUMPI PUSH0 PUSH0 REVERT JUMPDEST DUP1 PUSH4 0x13C60177 EQ PUSH2 0x297 JUMPI DUP1 PUSH4 0x22E817E2 EQ PUSH2 0x29F JUMPI DUP1 PUSH4 0x23B872DD EQ PUSH2 0x2B2 JUMPI PUSH0 PUSH0 REVERT JUMPDEST DUP1 PUSH4 0x81812FC GT PUSH2 0x1A4 JUMPI DUP1 PUSH4 0x81812FC EQ PUSH2 0x21B JUMPI DUP1 PUSH4 0x95EA7B3 EQ PUSH2 0x246 JUMPI DUP1 PUSH4 0x9C1BA2E EQ PUSH2 0x259 JUMPI DUP1 PUSH4 0xCA76175 EQ PUSH2 0x284 JUMPI PUSH0 PUSH0 REVERT JUMPDEST DUP1 PUSH3 0xB46767 EQ PUSH2 0x1C9 JUMPI DUP1 PUSH4 0x1FFC9A7 EQ PUSH2 0x1DE JUMPI DUP1 PUSH4 0x6FDDE03 EQ PUSH2 0x206 JUMPI JUMPDEST PUSH0 PUSH0 REVERT JUMPDEST PUSH2 0x1DC PUSH2 0x1D7 CALLDATASIZE PUSH1 0x4 PUSH2 0x25B8 JUMP JUMPDEST PUSH2 0x433 JUMP JUMPDEST STOP JUMPDEST PUSH2 0x1F1 PUSH2 0x1EC CALLDATASIZE PUSH1 0x4 PUSH2 0x25FE JUMP JUMPDEST PUSH2 0x44B JUMP JUMPDEST PUSH1 0x40 MLOAD SWAP1 ISZERO ISZERO DUP2 MSTORE PUSH1 0x20 ADD JUMPDEST PUSH1 0x40 MLOAD DUP1 SWAP2 SUB SWAP1 RETURN JUMPDEST PUSH2 0x20E PUSH2 0x475 JUMP JUMPDEST PUSH1 0x40 MLOAD PUSH2 0x1FD SWAP2 SWAP1 PUSH2 0x2647 JUMP JUMPDEST PUSH2 0x22E PUSH2 0x229 CALLDATASIZE PUSH1 0x4 PUSH2 0x2659 JUMP JUMPDEST PUSH2 0x504 JUMP JUMPDEST PUSH1 0x40 MLOAD PUSH1 0x1 PUSH1 0x1 PUSH1 0xA0 SHL SUB SWAP1 SWAP2 AND DUP2 MSTORE PUSH1 0x20 ADD PUSH2 0x1FD JUMP JUMPDEST PUSH2 0x1DC PUSH2 0x254 CALLDATASIZE PUSH1 0x4 PUSH2 0x268B JUMP JUMPDEST PUSH2 0x52B JUMP JUMPDEST PUSH1 0xB SLOAD PUSH2 0x26C SWAP1 PUSH1 0x1 PUSH1 0x1 PUSH1 0x40 SHL SUB AND DUP2 JUMP JUMPDEST PUSH1 0x40 MLOAD PUSH1 0x1 PUSH1 0x1 PUSH1 0x40 SHL SUB SWAP1 SWAP2 AND DUP2 MSTORE PUSH1 0x20 ADD PUSH2 0x1FD JUMP JUMPDEST PUSH2 0x1DC PUSH2 0x292 CALLDATASIZE PUSH1 0x4 PUSH2 0x26B3 JUMP JUMPDEST PUSH2 0x536 JUMP JUMPDEST PUSH2 0x20E PUSH2 0x5B9 JUMP JUMPDEST PUSH2 0x1DC PUSH2 0x2AD CALLDATASIZE PUSH1 0x4 PUSH2 0x271E JUMP JUMPDEST PUSH2 0x645 JUMP JUMPDEST PUSH2 0x1DC PUSH2 0x2C0 CALLDATASIZE PUSH1 0x4 PUSH2 0x273E JUMP JUMPDEST PUSH2 0x658 JUMP JUMPDEST PUSH2 0x2CE PUSH1 0xD SLOAD DUP2 JUMP JUMPDEST PUSH1 0x40 MLOAD SWAP1 DUP2 MSTORE PUSH1 0x20 ADD PUSH2 0x1FD JUMP JUMPDEST PUSH2 0x1DC PUSH2 0x2EA CALLDATASIZE PUSH1 0x4 PUSH2 0x273E JUMP JUMPDEST PUSH2 0x6E6 JUMP JUMPDEST PUSH2 0x1DC PUSH2 0x2FD CALLDATASIZE PUSH1 0x4 PUSH2 0x2778 JUMP JUMPDEST PUSH2 0x705 JUMP JUMPDEST PUSH2 0x22E PUSH2 0x310 CALLDATASIZE PUSH1 0x4 PUSH2 0x2659 JUMP JUMPDEST PUSH2 0x7C1 JUMP JUMPDEST PUSH2 0x2CE PUSH2 0x323 CALLDATASIZE PUSH1 0x4 PUSH2 0x2659 JUMP JUMPDEST PUSH1 0x11 PUSH1 0x20 MSTORE PUSH0 SWAP1 DUP2 MSTORE PUSH1 0x40 SWAP1 KECCAK256 SLOAD DUP2 JUMP JUMPDEST PUSH2 0x347 PUSH2 0x342 CALLDATASIZE PUSH1 0x4 PUSH2 0x2778 JUMP JUMPDEST PUSH2 0x7CB JUMP JUMPDEST PUSH1 0x40 MLOAD PUSH2 0x1FD SWAP3 SWAP2 SWAP1 PUSH2 0x27E4 JUMP JUMPDEST PUSH2 0x2CE PUSH2 0x363 CALLDATASIZE PUSH1 0x4 PUSH2 0x27FE JUMP JUMPDEST PUSH2 0x809 JUMP JUMPDEST PUSH2 0x1DC PUSH2 0x84E JUMP JUMPDEST PUSH1 0x7 SLOAD PUSH1 0x1 PUSH1 0x1 PUSH1 0xA0 SHL SUB AND PUSH2 0x22E JUMP JUMPDEST PUSH2 0x2CE PUSH1 0xE SLOAD DUP2 JUMP JUMPDEST PUSH2 0x2CE PUSH1 0xF SLOAD DUP2 JUMP JUMPDEST PUSH2 0x20E PUSH2 0x861 JUMP JUMPDEST PUSH2 0x1DC PUSH2 0x3A9 CALLDATASIZE PUSH1 0x4 PUSH2 0x2817 JUMP JUMPDEST PUSH2 0x870 JUMP JUMPDEST PUSH2 0x3C1 PUSH2 0x3BC CALLDATASIZE PUSH1 0x4 PUSH2 0x2659 JUMP JUMPDEST PUSH2 0x87B JUMP JUMPDEST PUSH1 0x40 MLOAD PUSH2 0x1FD SWAP8 SWAP7 SWAP6 SWAP5 SWAP4 SWAP3 SWAP2 SWAP1 PUSH2 0x2850 JUMP JUMPDEST PUSH2 0x1DC PUSH2 0x3E2 CALLDATASIZE PUSH1 0x4 PUSH2 0x28D2 JUMP JUMPDEST PUSH2 0xA60 JUMP JUMPDEST PUSH2 0x20E PUSH2 0x3F5 CALLDATASIZE PUSH1 0x4 PUSH2 0x2659 JUMP JUMPDEST PUSH2 0xA78 JUMP JUMPDEST PUSH2 0x1F1 PUSH2 0x408 CALLDATASIZE PUSH1 0x4 PUSH2 0x2935 JUMP JUMPDEST PUSH2 0xB81 JUMP JUMPDEST PUSH2 0x1DC PUSH2 0x41B CALLDATASIZE PUSH1 0x4 PUSH2 0x2966 JUMP JUMPDEST PUSH2 0xBAE JUMP JUMPDEST PUSH2 0x1DC PUSH2 0x42E CALLDATASIZE PUSH1 0x4 PUSH2 0x27FE JUMP JUMPDEST PUSH2 0xCFF JUMP JUMPDEST PUSH2 0x43B PUSH2 0xD3C JUMP JUMPDEST PUSH1 0xC PUSH2 0x447 DUP3 DUP3 PUSH2 0x2A21 JUMP JUMPDEST POP POP JUMP JUMPDEST PUSH0 PUSH1 0x1 PUSH1 0x1 PUSH1 0xE0 SHL SUB NOT DUP3 AND PUSH4 0x24832483 PUSH1 0xE1 SHL EQ DUP1 PUSH2 0x46F JUMPI POP PUSH2 0x46F DUP3 PUSH2 0xD69 JUMP JUMPDEST SWAP3 SWAP2 POP POP JUMP JUMPDEST PUSH1 0x60 PUSH0 DUP1 SLOAD PUSH2 0x483 SWAP1 PUSH2 0x299B JUMP JUMPDEST DUP1 PUSH1 0x1F ADD PUSH1 0x20 DUP1 SWAP2 DIV MUL PUSH1 0x20 ADD PUSH1 0x40 MLOAD SWAP1 DUP2 ADD PUSH1 0x40 MSTORE DUP1 SWAP3 SWAP2 SWAP1 DUP2 DUP2 MSTORE PUSH1 0x20 ADD DUP3 DUP1 SLOAD PUSH2 0x4AF SWAP1 PUSH2 0x299B JUMP JUMPDEST DUP1 ISZERO PUSH2 0x4FA JUMPI DUP1 PUSH1 0x1F LT PUSH2 0x4D1 JUMPI PUSH2 0x100 DUP1 DUP4 SLOAD DIV MUL DUP4 MSTORE SWAP2 PUSH1 0x20 ADD SWAP2 PUSH2 0x4FA JUMP JUMPDEST DUP3 ADD SWAP2 SWAP1 PUSH0 MSTORE PUSH1 0x20 PUSH0 KECCAK256 SWAP1 JUMPDEST DUP2 SLOAD DUP2 MSTORE SWAP1 PUSH1 0x1 ADD SWAP1 PUSH1 0x20 ADD DUP1 DUP4 GT PUSH2 0x4DD JUMPI DUP3 SWAP1 SUB PUSH1 0x1F AND DUP3 ADD SWAP2 JUMPDEST POP POP POP POP POP SWAP1 POP SWAP1 JUMP JUMPDEST PUSH0 PUSH2 0x50E DUP3 PUSH2 0xDB8 JUMP JUMPDEST POP PUSH0 DUP3 DUP2 MSTORE PUSH1 0x4 PUSH1 0x20 MSTORE PUSH1 0x40 SWAP1 KECCAK256 SLOAD PUSH1 0x1 PUSH1 0x1 PUSH1 0xA0 SHL SUB AND PUSH2 0x46F JUMP JUMPDEST PUSH2 0x447 DUP3 DUP3 CALLER PUSH2 0xDF0 JUMP JUMPDEST CALLER PUSH1 0x1 PUSH1 0x1 PUSH1 0xA0 SHL SUB PUSH32 0x0 AND EQ PUSH2 0x57F JUMPI PUSH1 0x40 MLOAD PUSH4 0xC6829F83 PUSH1 0xE0 SHL DUP2 MSTORE PUSH1 0x4 ADD PUSH1 0x40 MLOAD DUP1 SWAP2 SUB SWAP1 REVERT JUMPDEST PUSH2 0x58A DUP4 DUP4 DUP4 PUSH2 0xDFD JUMP JUMPDEST PUSH1 0x40 MLOAD DUP4 SWAP1 PUSH32 0x85E1543BF2F84FE80C6BADBCE3648C8539AD1DF4D2B3D822938CA0538BE727E6 SWAP1 PUSH0 SWAP1 LOG2 POP POP POP JUMP JUMPDEST PUSH1 0xC DUP1 SLOAD PUSH2 0x5C6 SWAP1 PUSH2 0x299B JUMP JUMPDEST DUP1 PUSH1 0x1F ADD PUSH1 0x20 DUP1 SWAP2 DIV MUL PUSH1 0x20 ADD PUSH1 0x40 MLOAD SWAP1 DUP2 ADD PUSH1 0x40 MSTORE DUP1 SWAP3 SWAP2 SWAP1 DUP2 DUP2 MSTORE PUSH1 0x20 ADD DUP3 DUP1 SLOAD PUSH2 0x5F2 SWAP1 PUSH2 0x299B JUMP JUMPDEST DUP1 ISZERO PUSH2 0x63D JUMPI DUP1 PUSH1 0x1F LT PUSH2 0x614 JUMPI PUSH2 0x100 DUP1 DUP4 SLOAD DIV MUL DUP4 MSTORE SWAP2 PUSH1 0x20 ADD SWAP2 PUSH2 0x63D JUMP JUMPDEST DUP3 ADD SWAP2 SWAP1 PUSH0 MSTORE PUSH1 0x20 PUSH0 KECCAK256 SWAP1 JUMPDEST DUP2 SLOAD DUP2 MSTORE SWAP1 PUSH1 0x1 ADD SWAP1 PUSH1 0x20 ADD DUP1 DUP4 GT PUSH2 0x620 JUMPI DUP3 SWAP1 SUB PUSH1 0x1F AND DUP3 ADD SWAP2 JUMPDEST POP POP POP POP POP DUP2 JUMP JUMPDEST PUSH2 0x64D PUSH2 0xD3C JUMP JUMPDEST PUSH1 0xE SWAP2 SWAP1 SWAP2 SSTORE PUSH1 0xF SSTORE JUMP JUMPDEST PUSH1 0x1 PUSH1 0x1 PUSH1 0xA0 SHL SUB DUP3 AND PUSH2 0x686 JUMPI PUSH1 0x40 MLOAD PUSH4 0x32505749 PUSH1 0xE1 SHL DUP2 MSTORE PUSH0 PUSH1 0x4 DUP3 ADD MSTORE PUSH1 0x24 ADD JUMPDEST PUSH1 0x40 MLOAD DUP1 SWAP2 SUB SWAP1 REVERT JUMPDEST PUSH0 PUSH2 0x692 DUP4 DUP4 CALLER PUSH2 0xF1D JUMP JUMPDEST SWAP1 POP DUP4 PUSH1 0x1 PUSH1 0x1 PUSH1 0xA0 SHL SUB AND DUP2 PUSH1 0x1 PUSH1 0x1 PUSH1 0xA0 SHL SUB AND EQ PUSH2 0x6E0 JUMPI PUSH1 0x40 MLOAD PUSH4 0x64283D7B PUSH1 0xE0 SHL DUP2 MSTORE PUSH1 0x1 PUSH1 0x1 PUSH1 0xA0 SHL SUB DUP1 DUP7 AND PUSH1 0x4 DUP4 ADD MSTORE PUSH1 0x24 DUP3 ADD DUP5 SWAP1 MSTORE DUP3 AND PUSH1 0x44 DUP3 ADD MSTORE PUSH1 0x64 ADD PUSH2 0x67D JUMP JUMPDEST POP POP POP POP JUMP JUMPDEST PUSH2 0x700 DUP4 DUP4 DUP4 PUSH1 0x40 MLOAD DUP1 PUSH1 0x20 ADD PUSH1 0x40 MSTORE DUP1 PUSH0 DUP2 MSTORE POP PUSH2 0xA60 JUMP JUMPDEST POP POP POP JUMP JUMPDEST PUSH1 0xE SLOAD PUSH1 0xD SLOAD PUSH2 0x715 SWAP1 TIMESTAMP PUSH2 0x2AEF JUMP JUMPDEST GT ISZERO PUSH2 0x447 JUMPI TIMESTAMP PUSH1 0xD SSTORE PUSH1 0xF SLOAD PUSH0 DUP2 DUP2 MSTORE PUSH1 0x10 PUSH1 0x20 MSTORE PUSH1 0x40 SWAP1 KECCAK256 DUP1 SLOAD PUSH2 0x700 SWAP3 SWAP2 SWAP1 PUSH2 0x740 SWAP1 PUSH2 0x299B JUMP JUMPDEST DUP1 PUSH1 0x1F ADD PUSH1 0x20 DUP1 SWAP2 DIV MUL PUSH1 0x20 ADD PUSH1 0x40 MLOAD SWAP1 DUP2 ADD PUSH1 0x40 MSTORE DUP1 SWAP3 SWAP2 SWAP1 DUP2 DUP2 MSTORE PUSH1 0x20 ADD DUP3 DUP1 SLOAD PUSH2 0x76C SWAP1 PUSH2 0x299B JUMP JUMPDEST DUP1 ISZERO PUSH2 0x7B7 JUMPI DUP1 PUSH1 0x1F LT PUSH2 0x78E JUMPI PUSH2 0x100 DUP1 DUP4 SLOAD DIV MUL DUP4 MSTORE SWAP2 PUSH1 0x20 ADD SWAP2 PUSH2 0x7B7 JUMP JUMPDEST DUP3 ADD SWAP2 SWAP1 PUSH0 MSTORE PUSH1 0x20 PUSH0 KECCAK256 SWAP1 JUMPDEST DUP2 SLOAD DUP2 MSTORE SWAP1 PUSH1 0x1 ADD SWAP1 PUSH1 0x20 ADD DUP1 DUP4 GT PUSH2 0x79A JUMPI DUP3 SWAP1 SUB PUSH1 0x1F AND DUP3 ADD SWAP2 JUMPDEST POP POP POP POP POP PUSH2 0x100F JUMP JUMPDEST PUSH0 PUSH2 0x46F DUP3 PUSH2 0xDB8 JUMP JUMPDEST PUSH0 PUSH1 0x60 PUSH1 0xE SLOAD PUSH1 0xD SLOAD TIMESTAMP PUSH2 0x7DF SWAP2 SWAP1 PUSH2 0x2AEF JUMP JUMPDEST GT DUP1 ISZERO PUSH2 0x7EF JUMPI POP PUSH1 0x8 SLOAD PUSH1 0xF SLOAD LT JUMPDEST SWAP2 POP PUSH1 0x40 MLOAD DUP1 PUSH1 0x20 ADD PUSH1 0x40 MSTORE DUP1 PUSH0 DUP2 MSTORE POP SWAP1 POP SWAP3 POP SWAP3 SWAP1 POP JUMP JUMPDEST PUSH0 PUSH1 0x1 PUSH1 0x1 PUSH1 0xA0 SHL SUB DUP3 AND PUSH2 0x833 JUMPI PUSH1 0x40 MLOAD PUSH4 0x22718AD9 PUSH1 0xE2 SHL DUP2 MSTORE PUSH0 PUSH1 0x4 DUP3 ADD MSTORE PUSH1 0x24 ADD PUSH2 0x67D JUMP JUMPDEST POP PUSH1 0x1 PUSH1 0x1 PUSH1 0xA0 SHL SUB AND PUSH0 SWAP1 DUP2 MSTORE PUSH1 0x3 PUSH1 0x20 MSTORE PUSH1 0x40 SWAP1 KECCAK256 SLOAD SWAP1 JUMP JUMPDEST PUSH2 0x856 PUSH2 0xD3C JUMP JUMPDEST PUSH2 0x85F PUSH0 PUSH2 0x1180 JUMP JUMPDEST JUMP JUMPDEST PUSH1 0x60 PUSH1 0x1 DUP1 SLOAD PUSH2 0x483 SWAP1 PUSH2 0x299B JUMP JUMPDEST PUSH2 0x447 CALLER DUP4 DUP4 PUSH2 0x11D1 JUMP JUMPDEST PUSH1 0x10 PUSH1 0x20 MSTORE PUSH0 SWAP1 DUP2 MSTORE PUSH1 0x40 SWAP1 KECCAK256 DUP1 SLOAD DUP2 SWAP1 PUSH2 0x895 SWAP1 PUSH2 0x299B JUMP JUMPDEST DUP1 PUSH1 0x1F ADD PUSH1 0x20 DUP1 SWAP2 DIV MUL PUSH1 0x20 ADD PUSH1 0x40 MLOAD SWAP1 DUP2 ADD PUSH1 0x40 MSTORE DUP1 SWAP3 SWAP2 SWAP1 DUP2 DUP2 MSTORE PUSH1 0x20 ADD DUP3 DUP1 SLOAD PUSH2 0x8C1 SWAP1 PUSH2 0x299B JUMP JUMPDEST DUP1 ISZERO PUSH2 0x90C JUMPI DUP1 PUSH1 0x1F LT PUSH2 0x8E3 JUMPI PUSH2 0x100 DUP1 DUP4 SLOAD DIV MUL DUP4 MSTORE SWAP2 PUSH1 0x20 ADD SWAP2 PUSH2 0x90C JUMP JUMPDEST DUP3 ADD SWAP2 SWAP1 PUSH0 MSTORE PUSH1 0x20 PUSH0 KECCAK256 SWAP1 JUMPDEST DUP2 SLOAD DUP2 MSTORE SWAP1 PUSH1 0x1 ADD SWAP1 PUSH1 0x20 ADD DUP1 DUP4 GT PUSH2 0x8EF JUMPI DUP3 SWAP1 SUB PUSH1 0x1F AND DUP3 ADD SWAP2 JUMPDEST POP POP POP POP POP SWAP1 DUP1 PUSH1 0x1 ADD DUP1 SLOAD PUSH2 0x921 SWAP1 PUSH2 0x299B JUMP JUMPDEST DUP1 PUSH1 0x1F ADD PUSH1 0x20 DUP1 SWAP2 DIV MUL PUSH1 0x20 ADD PUSH1 0x40 MLOAD SWAP1 DUP2 ADD PUSH1 0x40 MSTORE DUP1 SWAP3 SWAP2 SWAP1 DUP2 DUP2 MSTORE PUSH1 0x20 ADD DUP3 DUP1 SLOAD PUSH2 0x94D SWAP1 PUSH2 0x299B JUMP JUMPDEST DUP1 ISZERO PUSH2 0x998 JUMPI DUP1 PUSH1 0x1F LT PUSH2 0x96F JUMPI PUSH2 0x100 DUP1 DUP4 SLOAD DIV MUL DUP4 MSTORE SWAP2 PUSH1 0x20 ADD SWAP2 PUSH2 0x998 JUMP JUMPDEST DUP3 ADD SWAP2 SWAP1 PUSH0 MSTORE PUSH1 0x20 PUSH0 KECCAK256 SWAP1 JUMPDEST DUP2 SLOAD DUP2 MSTORE SWAP1 PUSH1 0x1 ADD SWAP1 PUSH1 0x20 ADD DUP1 DUP4 GT PUSH2 0x97B JUMPI DUP3 SWAP1 SUB PUSH1 0x1F AND DUP3 ADD SWAP2 JUMPDEST POP POP POP POP PUSH1 0x2 DUP4 ADD SLOAD PUSH1 0x3 DUP5 ADD DUP1 SLOAD SWAP4 SWAP5 PUSH1 0x1 PUSH1 0x1 PUSH1 0x40 SHL SUB DUP1 DUP5 AND SWAP6 PUSH1 0x1 PUSH1 0x40 SHL DUP6 DIV DUP3 AND SWAP6 POP PUSH1 0x1 PUSH1 0x80 SHL DUP6 DIV DUP3 AND SWAP5 PUSH1 0x1 PUSH1 0xC0 SHL SWAP1 DIV SWAP1 SWAP2 AND SWAP3 SWAP1 PUSH2 0x9DF SWAP1 PUSH2 0x299B JUMP JUMPDEST DUP1 PUSH1 0x1F ADD PUSH1 0x20 DUP1 SWAP2 DIV MUL PUSH1 0x20 ADD PUSH1 0x40 MLOAD SWAP1 DUP2 ADD PUSH1 0x40 MSTORE DUP1 SWAP3 SWAP2 SWAP1 DUP2 DUP2 MSTORE PUSH1 0x20 ADD DUP3 DUP1 SLOAD PUSH2 0xA0B SWAP1 PUSH2 0x299B JUMP JUMPDEST DUP1 ISZERO PUSH2 0xA56 JUMPI DUP1 PUSH1 0x1F LT PUSH2 0xA2D JUMPI PUSH2 0x100 DUP1 DUP4 SLOAD DIV MUL DUP4 MSTORE SWAP2 PUSH1 0x20 ADD SWAP2 PUSH2 0xA56 JUMP JUMPDEST DUP3 ADD SWAP2 SWAP1 PUSH0 MSTORE PUSH1 0x20 PUSH0 KECCAK256 SWAP1 JUMPDEST DUP2 SLOAD DUP2 MSTORE SWAP1 PUSH1 0x1 ADD SWAP1 PUSH1 0x20 ADD DUP1 DUP4 GT PUSH2 0xA39 JUMPI DUP3 SWAP1 SUB PUSH1 0x1F AND DUP3 ADD SWAP2 JUMPDEST POP POP POP POP POP SWAP1 POP DUP8 JUMP JUMPDEST PUSH2 0xA6B DUP5 DUP5 DUP5 PUSH2 0x658 JUMP JUMPDEST PUSH2 0x6E0 CALLER DUP6 DUP6 DUP6 DUP6 PUSH2 0x1298 JUMP JUMPDEST PUSH0 DUP2 DUP2 MSTORE PUSH1 0x10 PUSH1 0x20 MSTORE PUSH1 0x40 DUP2 KECCAK256 PUSH1 0x3 ADD DUP1 SLOAD PUSH1 0x60 SWAP3 SWAP2 SWAP1 PUSH2 0xA98 SWAP1 PUSH2 0x299B JUMP JUMPDEST DUP1 PUSH1 0x1F ADD PUSH1 0x20 DUP1 SWAP2 DIV MUL PUSH1 0x20 ADD PUSH1 0x40 MLOAD SWAP1 DUP2 ADD PUSH1 0x40 MSTORE DUP1 SWAP3 SWAP2 SWAP1 DUP2 DUP2 MSTORE PUSH1 0x20 ADD DUP3 DUP1 SLOAD PUSH2 0xAC4 SWAP1 PUSH2 0x299B JUMP JUMPDEST DUP1 ISZERO PUSH2 0xB0F JUMPI DUP1 PUSH1 0x1F LT PUSH2 0xAE6 JUMPI PUSH2 0x100 DUP1 DUP4 SLOAD DIV MUL DUP4 MSTORE SWAP2 PUSH1 0x20 ADD SWAP2 PUSH2 0xB0F JUMP JUMPDEST DUP3 ADD SWAP2 SWAP1 PUSH0 MSTORE PUSH1 0x20 PUSH0 KECCAK256 SWAP1 JUMPDEST DUP2 SLOAD DUP2 MSTORE SWAP1 PUSH1 0x1 ADD SWAP1 PUSH1 0x20 ADD DUP1 DUP4 GT PUSH2 0xAF2 JUMPI DUP3 SWAP1 SUB PUSH1 0x1F AND DUP3 ADD SWAP2 JUMPDEST POP POP POP POP POP SWAP1 POP PUSH0 PUSH2 0xB20 DUP3 PUSH2 0x13C0 JUMP JUMPDEST SWAP1 POP PUSH0 PUSH2 0xB55 PUSH2 0xB2F DUP7 PUSH2 0x13CC JUMP JUMPDEST DUP4 PUSH1 0x40 MLOAD PUSH1 0x20 ADD PUSH2 0xB41 SWAP3 SWAP2 SWAP1 PUSH2 0x2B19 JUMP JUMPDEST PUSH1 0x40 MLOAD PUSH1 0x20 DUP2 DUP4 SUB SUB DUP2 MSTORE SWAP1 PUSH1 0x40 MSTORE PUSH2 0x13C0 JUMP JUMPDEST SWAP1 POP DUP1 PUSH1 0x40 MLOAD PUSH1 0x20 ADD PUSH2 0xB68 SWAP2 SWAP1 PUSH2 0x2C34 JUMP JUMPDEST PUSH1 0x40 MLOAD PUSH1 0x20 DUP2 DUP4 SUB SUB DUP2 MSTORE SWAP1 PUSH1 0x40 MSTORE SWAP4 POP POP POP POP SWAP2 SWAP1 POP JUMP JUMPDEST PUSH1 0x1 PUSH1 0x1 PUSH1 0xA0 SHL SUB SWAP2 DUP3 AND PUSH0 SWAP1 DUP2 MSTORE PUSH1 0x5 PUSH1 0x20 SWAP1 DUP2 MSTORE PUSH1 0x40 DUP1 DUP4 KECCAK256 SWAP4 SWAP1 SWAP5 AND DUP3 MSTORE SWAP2 SWAP1 SWAP2 MSTORE KECCAK256 SLOAD PUSH1 0xFF AND SWAP1 JUMP JUMPDEST PUSH2 0xBB6 PUSH2 0xD3C JUMP JUMPDEST PUSH1 0x8 SLOAD PUSH1 0x40 DUP1 MLOAD PUSH1 0xE0 DUP2 ADD DUP3 MSTORE DUP5 DUP2 MSTORE PUSH1 0x20 DUP1 DUP3 ADD DUP6 SWAP1 MSTORE PUSH0 DUP3 DUP5 ADD DUP2 SWAP1 MSTORE PUSH1 0x60 DUP4 ADD DUP2 SWAP1 MSTORE PUSH1 0x80 DUP4 ADD DUP2 SWAP1 MSTORE PUSH1 0xA0 DUP4 ADD DUP2 SWAP1 MSTORE DUP4 MLOAD DUP1 DUP4 ADD DUP6 MSTORE DUP2 DUP2 MSTORE PUSH1 0xC0 DUP5 ADD MSTORE DUP5 DUP2 MSTORE PUSH1 0x10 SWAP1 SWAP2 MSTORE SWAP2 SWAP1 SWAP2 KECCAK256 DUP2 MLOAD DUP2 SWAP1 PUSH2 0xC13 SWAP1 DUP3 PUSH2 0x2A21 JUMP JUMPDEST POP PUSH1 0x20 DUP3 ADD MLOAD PUSH1 0x1 DUP3 ADD SWAP1 PUSH2 0xC28 SWAP1 DUP3 PUSH2 0x2A21 JUMP JUMPDEST POP PUSH1 0x40 DUP3 ADD MLOAD PUSH1 0x2 DUP3 ADD DUP1 SLOAD PUSH1 0x60 DUP6 ADD MLOAD PUSH1 0x80 DUP7 ADD MLOAD PUSH1 0xA0 DUP8 ADD MLOAD PUSH1 0x1 PUSH1 0x1 PUSH1 0x40 SHL SUB SWAP1 DUP2 AND PUSH1 0x1 PUSH1 0xC0 SHL MUL PUSH1 0x1 PUSH1 0x1 PUSH1 0xC0 SHL SUB SWAP3 DUP3 AND PUSH1 0x1 PUSH1 0x80 SHL MUL SWAP3 SWAP1 SWAP3 AND PUSH1 0x1 PUSH1 0x1 PUSH1 0x80 SHL SUB SWAP4 DUP3 AND PUSH1 0x1 PUSH1 0x40 SHL MUL PUSH1 0x1 PUSH1 0x1 PUSH1 0x80 SHL SUB NOT SWAP1 SWAP6 AND SWAP2 SWAP1 SWAP7 AND OR SWAP3 SWAP1 SWAP3 OR AND SWAP3 SWAP1 SWAP3 OR SWAP2 SWAP1 SWAP2 OR SWAP1 SSTORE PUSH1 0xC0 DUP3 ADD MLOAD PUSH1 0x3 DUP3 ADD SWAP1 PUSH2 0xCAE SWAP1 DUP3 PUSH2 0x2A21 JUMP JUMPDEST POP SWAP1 POP POP PUSH2 0xCBF DUP2 PUSH0 PUSH0 PUSH0 PUSH0 PUSH2 0x145B JUMP JUMPDEST PUSH0 DUP3 DUP2 MSTORE PUSH1 0x10 PUSH1 0x20 MSTORE PUSH1 0x40 SWAP1 KECCAK256 PUSH1 0x3 ADD SWAP1 PUSH2 0xCDA SWAP1 DUP3 PUSH2 0x2A21 JUMP JUMPDEST POP PUSH2 0xCE5 DUP5 DUP3 PUSH2 0x1794 JUMP JUMPDEST PUSH1 0x8 DUP1 SLOAD SWAP1 PUSH0 PUSH2 0xCF4 DUP4 PUSH2 0x2C65 JUMP JUMPDEST SWAP2 SWAP1 POP SSTORE POP POP POP POP POP JUMP JUMPDEST PUSH2 0xD07 PUSH2 0xD3C JUMP JUMPDEST PUSH1 0x1 PUSH1 0x1 PUSH1 0xA0 SHL SUB DUP2 AND PUSH2 0xD30 JUMPI PUSH1 0x40 MLOAD PUSH4 0x1E4FBDF7 PUSH1 0xE0 SHL DUP2 MSTORE PUSH0 PUSH1 0x4 DUP3 ADD MSTORE PUSH1 0x24 ADD PUSH2 0x67D JUMP JUMPDEST PUSH2 0xD39 DUP2 PUSH2 0x1180 JUMP JUMPDEST POP JUMP JUMPDEST PUSH1 0x7 SLOAD PUSH1 0x1 PUSH1 0x1 PUSH1 0xA0 SHL SUB AND CALLER EQ PUSH2 0x85F JUMPI PUSH1 0x40 MLOAD PUSH4 0x118CDAA7 PUSH1 0xE0 SHL DUP2 MSTORE CALLER PUSH1 0x4 DUP3 ADD MSTORE PUSH1 0x24 ADD PUSH2 0x67D JUMP JUMPDEST PUSH0 PUSH1 0x1 PUSH1 0x1 PUSH1 0xE0 SHL SUB NOT DUP3 AND PUSH4 0x80AC58CD PUSH1 0xE0 SHL EQ DUP1 PUSH2 0xD99 JUMPI POP PUSH1 0x1 PUSH1 0x1 PUSH1 0xE0 SHL SUB NOT DUP3 AND PUSH4 0x5B5E139F PUSH1 0xE0 SHL EQ JUMPDEST DUP1 PUSH2 0x46F JUMPI POP PUSH4 0x1FFC9A7 PUSH1 0xE0 SHL PUSH1 0x1 PUSH1 0x1 PUSH1 0xE0 SHL SUB NOT DUP4 AND EQ PUSH2 0x46F JUMP JUMPDEST PUSH0 DUP2 DUP2 MSTORE PUSH1 0x2 PUSH1 0x20 MSTORE PUSH1 0x40 DUP2 KECCAK256 SLOAD PUSH1 0x1 PUSH1 0x1 PUSH1 0xA0 SHL SUB AND DUP1 PUSH2 0x46F JUMPI PUSH1 0x40 MLOAD PUSH4 0x7E273289 PUSH1 0xE0 SHL DUP2 MSTORE PUSH1 0x4 DUP2 ADD DUP5 SWAP1 MSTORE PUSH1 0x24 ADD PUSH2 0x67D JUMP JUMPDEST PUSH2 0x700 DUP4 DUP4 DUP4 PUSH1 0x1 PUSH2 0x17AD JUMP JUMPDEST DUP1 MLOAD ISZERO PUSH2 0xE3B JUMPI PUSH1 0x40 MLOAD PUSH3 0x461BCD PUSH1 0xE5 SHL DUP2 MSTORE PUSH1 0x20 PUSH1 0x4 DUP3 ADD MSTORE PUSH1 0xC PUSH1 0x24 DUP3 ADD MSTORE PUSH12 0x27B930B1B6329022B93937B9 PUSH1 0xA1 SHL PUSH1 0x44 DUP3 ADD MSTORE PUSH1 0x64 ADD PUSH2 0x67D JUMP JUMPDEST PUSH0 DUP4 DUP2 MSTORE PUSH1 0x11 PUSH1 0x20 SWAP1 DUP2 MSTORE PUSH1 0x40 DUP3 KECCAK256 SLOAD DUP5 MLOAD SWAP1 SWAP3 SWAP2 PUSH2 0xE60 SWAP2 DUP7 ADD DUP2 ADD SWAP1 DUP7 ADD PUSH2 0x2C7D JUMP JUMPDEST PUSH0 DUP4 DUP2 MSTORE PUSH1 0x10 PUSH1 0x20 MSTORE PUSH1 0x40 SWAP1 DUP2 SWAP1 KECCAK256 PUSH1 0x2 ADD DUP1 SLOAD PUSH1 0xC0 DUP5 SWAP1 SHR PUSH1 0x1 PUSH1 0x1 PUSH1 0x80 SHL SUB SWAP1 SWAP2 AND PUSH1 0x1 PUSH1 0xC0 SHL PUSH1 0x1 PUSH1 0x1 PUSH1 0x40 SHL SUB DUP7 DUP2 AND SWAP2 SWAP1 SWAP2 MUL PUSH8 0xFFFFFFFFFFFFFFFF PUSH1 0x80 SHL NOT AND SWAP2 SWAP1 SWAP2 OR PUSH1 0x1 PUSH1 0x80 SHL SWAP5 DUP7 SWAP1 SHR DUP1 DUP4 AND SWAP6 SWAP1 SWAP6 MUL OR PUSH1 0x1 PUSH1 0x1 PUSH1 0x80 SHL SUB NOT AND PUSH1 0x1 PUSH1 0x40 SHL PUSH1 0x80 DUP8 SWAP1 SHR SWAP3 DUP4 AND MUL PUSH8 0xFFFFFFFFFFFFFFFF NOT AND OR DUP3 OR SWAP1 SWAP3 SSTORE SWAP3 SWAP4 POP DUP4 SWAP3 PUSH2 0xEF6 DUP7 DUP3 DUP5 DUP7 DUP9 PUSH2 0x145B JUMP JUMPDEST PUSH0 DUP8 DUP2 MSTORE PUSH1 0x10 PUSH1 0x20 MSTORE PUSH1 0x40 SWAP1 KECCAK256 PUSH1 0x3 ADD SWAP1 PUSH2 0xF11 SWAP1 DUP3 PUSH2 0x2A21 JUMP JUMPDEST POP POP POP POP POP POP POP POP POP POP JUMP JUMPDEST PUSH0 DUP3 DUP2 MSTORE PUSH1 0x2 PUSH1 0x20 MSTORE PUSH1 0x40 DUP2 KECCAK256 SLOAD PUSH1 0x1 PUSH1 0x1 PUSH1 0xA0 SHL SUB SWAP1 DUP2 AND SWAP1 DUP4 AND ISZERO PUSH2 0xF49 JUMPI PUSH2 0xF49 DUP2 DUP5 DUP7 PUSH2 0x18B1 JUMP JUMPDEST PUSH1 0x1 PUSH1 0x1 PUSH1 0xA0 SHL SUB DUP2 AND ISZERO PUSH2 0xF83 JUMPI PUSH2 0xF64 PUSH0 DUP6 PUSH0 PUSH0 PUSH2 0x17AD JUMP JUMPDEST PUSH1 0x1 PUSH1 0x1 PUSH1 0xA0 SHL SUB DUP2 AND PUSH0 SWAP1 DUP2 MSTORE PUSH1 0x3 PUSH1 0x20 MSTORE PUSH1 0x40 SWAP1 KECCAK256 DUP1 SLOAD PUSH0 NOT ADD SWAP1 SSTORE JUMPDEST PUSH1 0x1 PUSH1 0x1 PUSH1 0xA0 SHL SUB DUP6 AND ISZERO PUSH2 0xFB1 JUMPI PUSH1 0x1 PUSH1 0x1 PUSH1 0xA0 SHL SUB DUP6 AND PUSH0 SWAP1 DUP2 MSTORE PUSH1 0x3 PUSH1 0x20 MSTORE PUSH1 0x40 SWAP1 KECCAK256 DUP1 SLOAD PUSH1 0x1 ADD SWAP1 SSTORE JUMPDEST PUSH0 DUP5 DUP2 MSTORE PUSH1 0x2 PUSH1 0x20 MSTORE PUSH1 0x40 DUP1 DUP3 KECCAK256 DUP1 SLOAD PUSH1 0x1 PUSH1 0x1 PUSH1 0xA0 SHL SUB NOT AND PUSH1 0x1 PUSH1 0x1 PUSH1 0xA0 SHL SUB DUP10 DUP2 AND SWAP2 DUP3 OR SWAP1 SWAP3 SSTORE SWAP2 MLOAD DUP8 SWAP4 SWAP2 DUP6 AND SWAP2 PUSH32 0xDDF252AD1BE2C89B69C2B068FC378DAA952BA7F163C4A11628F55A4DF523B3EF SWAP2 LOG4 SWAP5 SWAP4 POP POP POP POP JUMP JUMPDEST PUSH0 PUSH2 0x104E PUSH1 0x40 DUP1 MLOAD PUSH1 0xE0 DUP2 ADD SWAP1 SWAP2 MSTORE DUP1 PUSH0 DUP2 MSTORE PUSH1 0x20 ADD PUSH0 DUP2 MSTORE PUSH1 0x20 ADD PUSH0 DUP2 MSTORE PUSH1 0x20 ADD PUSH1 0x60 DUP2 MSTORE PUSH1 0x20 ADD PUSH1 0x60 DUP2 MSTORE PUSH1 0x20 ADD PUSH1 0x60 DUP2 MSTORE PUSH1 0x20 ADD PUSH1 0x60 DUP2 MSTORE POP SWAP1 JUMP JUMPDEST PUSH2 0x10E9 PUSH1 0xC DUP1 SLOAD PUSH2 0x105E SWAP1 PUSH2 0x299B JUMP JUMPDEST DUP1 PUSH1 0x1F ADD PUSH1 0x20 DUP1 SWAP2 DIV MUL PUSH1 0x20 ADD PUSH1 0x40 MLOAD SWAP1 DUP2 ADD PUSH1 0x40 MSTORE DUP1 SWAP3 SWAP2 SWAP1 DUP2 DUP2 MSTORE PUSH1 0x20 ADD DUP3 DUP1 SLOAD PUSH2 0x108A SWAP1 PUSH2 0x299B JUMP JUMPDEST DUP1 ISZERO PUSH2 0x10D5 JUMPI DUP1 PUSH1 0x1F LT PUSH2 0x10AC JUMPI PUSH2 0x100 DUP1 DUP4 SLOAD DIV MUL DUP4 MSTORE SWAP2 PUSH1 0x20 ADD SWAP2 PUSH2 0x10D5 JUMP JUMPDEST DUP3 ADD SWAP2 SWAP1 PUSH0 MSTORE PUSH1 0x20 PUSH0 KECCAK256 SWAP1 JUMPDEST DUP2 SLOAD DUP2 MSTORE SWAP1 PUSH1 0x1 ADD SWAP1 PUSH1 0x20 ADD DUP1 DUP4 GT PUSH2 0x10B8 JUMPI DUP3 SWAP1 SUB PUSH1 0x1F AND DUP3 ADD SWAP2 JUMPDEST POP POP POP POP POP DUP3 PUSH2 0x1915 SWAP1 SWAP2 SWAP1 PUSH4 0xFFFFFFFF AND JUMP JUMPDEST PUSH1 0x40 DUP1 MLOAD PUSH1 0x1 DUP1 DUP3 MSTORE DUP2 DUP4 ADD SWAP1 SWAP3 MSTORE PUSH0 SWAP2 DUP2 PUSH1 0x20 ADD JUMPDEST PUSH1 0x60 DUP2 MSTORE PUSH1 0x20 ADD SWAP1 PUSH1 0x1 SWAP1 SUB SWAP1 DUP2 PUSH2 0x10FF JUMPI SWAP1 POP POP SWAP1 POP DUP4 DUP2 PUSH0 DUP2 MLOAD DUP2 LT PUSH2 0x1129 JUMPI PUSH2 0x1129 PUSH2 0x2C94 JUMP JUMPDEST PUSH1 0x20 SWAP1 DUP2 MUL SWAP2 SWAP1 SWAP2 ADD ADD MSTORE PUSH2 0x113E DUP3 DUP3 PUSH2 0x1921 JUMP JUMPDEST PUSH2 0x1166 PUSH2 0x114A DUP4 PUSH2 0x194A JUMP JUMPDEST PUSH1 0xB SLOAD PUSH1 0xA SLOAD PUSH1 0x1 PUSH1 0x1 PUSH1 0x40 SHL SUB SWAP1 SWAP2 AND SWAP1 PUSH3 0x493E0 SWAP1 PUSH2 0x1C0E JUMP JUMPDEST PUSH0 DUP2 DUP2 MSTORE PUSH1 0x11 PUSH1 0x20 MSTORE PUSH1 0x40 SWAP1 KECCAK256 SWAP6 SWAP1 SWAP6 SSTORE POP SWAP3 SWAP4 SWAP3 POP POP POP JUMP JUMPDEST PUSH1 0x7 DUP1 SLOAD PUSH1 0x1 PUSH1 0x1 PUSH1 0xA0 SHL SUB DUP4 DUP2 AND PUSH1 0x1 PUSH1 0x1 PUSH1 0xA0 SHL SUB NOT DUP4 AND DUP2 OR SWAP1 SWAP4 SSTORE PUSH1 0x40 MLOAD SWAP2 AND SWAP2 SWAP1 DUP3 SWAP1 PUSH32 0x8BE0079C531659141344CD1FD0A4F28419497F9722A3DAAFE3B4186F6B6457E0 SWAP1 PUSH0 SWAP1 LOG3 POP POP JUMP JUMPDEST PUSH1 0x1 PUSH1 0x1 PUSH1 0xA0 SHL SUB DUP4 AND PUSH2 0x11FA JUMPI PUSH1 0x40 MLOAD PUSH4 0xA9FBF51F PUSH1 0xE0 SHL DUP2 MSTORE PUSH0 PUSH1 0x4 DUP3 ADD MSTORE PUSH1 0x24 ADD PUSH2 0x67D JUMP JUMPDEST PUSH1 0x1 PUSH1 0x1 PUSH1 0xA0 SHL SUB DUP3 AND PUSH2 0x122C JUMPI PUSH1 0x40 MLOAD PUSH4 0xB611743 PUSH1 0xE3 SHL DUP2 MSTORE PUSH1 0x1 PUSH1 0x1 PUSH1 0xA0 SHL SUB DUP4 AND PUSH1 0x4 DUP3 ADD MSTORE PUSH1 0x24 ADD PUSH2 0x67D JUMP JUMPDEST PUSH1 0x1 PUSH1 0x1 PUSH1 0xA0 SHL SUB DUP4 DUP2 AND PUSH0 DUP2 DUP2 MSTORE PUSH1 0x5 PUSH1 0x20 SWAP1 DUP2 MSTORE PUSH1 0x40 DUP1 DUP4 KECCAK256 SWAP5 DUP8 AND DUP1 DUP5 MSTORE SWAP5 DUP3 MSTORE SWAP2 DUP3 SWAP1 KECCAK256 DUP1 SLOAD PUSH1 0xFF NOT AND DUP7 ISZERO ISZERO SWAP1 DUP2 OR SWAP1 SWAP2 SSTORE SWAP2 MLOAD SWAP2 DUP3 MSTORE PUSH32 0x17307EAB39AB6107E8899845AD3D59BD9653F200F220920489CA2B5937696C31 SWAP2 ADD PUSH1 0x40 MLOAD DUP1 SWAP2 SUB SWAP1 LOG3 POP POP POP JUMP JUMPDEST PUSH1 0x1 PUSH1 0x1 PUSH1 0xA0 SHL SUB DUP4 AND EXTCODESIZE ISZERO PUSH2 0x13B9 JUMPI PUSH1 0x40 MLOAD PUSH4 0xA85BD01 PUSH1 0xE1 SHL DUP2 MSTORE PUSH1 0x1 PUSH1 0x1 PUSH1 0xA0 SHL SUB DUP5 AND SWAP1 PUSH4 0x150B7A02 SWAP1 PUSH2 0x12DA SWAP1 DUP9 SWAP1 DUP9 SWAP1 DUP8 SWAP1 DUP8 SWAP1 PUSH1 0x4 ADD PUSH2 0x2CA8 JUMP JUMPDEST PUSH1 0x20 PUSH1 0x40 MLOAD DUP1 DUP4 SUB DUP2 PUSH0 DUP8 GAS CALL SWAP3 POP POP POP DUP1 ISZERO PUSH2 0x1314 JUMPI POP PUSH1 0x40 DUP1 MLOAD PUSH1 0x1F RETURNDATASIZE SWAP1 DUP2 ADD PUSH1 0x1F NOT AND DUP3 ADD SWAP1 SWAP3 MSTORE PUSH2 0x1311 SWAP2 DUP2 ADD SWAP1 PUSH2 0x2CE4 JUMP JUMPDEST PUSH1 0x1 JUMPDEST PUSH2 0x137B JUMPI RETURNDATASIZE DUP1 DUP1 ISZERO PUSH2 0x1341 JUMPI PUSH1 0x40 MLOAD SWAP2 POP PUSH1 0x1F NOT PUSH1 0x3F RETURNDATASIZE ADD AND DUP3 ADD PUSH1 0x40 MSTORE RETURNDATASIZE DUP3 MSTORE RETURNDATASIZE PUSH0 PUSH1 0x20 DUP5 ADD RETURNDATACOPY PUSH2 0x1346 JUMP JUMPDEST PUSH1 0x60 SWAP2 POP JUMPDEST POP DUP1 MLOAD PUSH0 SUB PUSH2 0x1373 JUMPI PUSH1 0x40 MLOAD PUSH4 0x32505749 PUSH1 0xE1 SHL DUP2 MSTORE PUSH1 0x1 PUSH1 0x1 PUSH1 0xA0 SHL SUB DUP6 AND PUSH1 0x4 DUP3 ADD MSTORE PUSH1 0x24 ADD PUSH2 0x67D JUMP JUMPDEST DUP1 MLOAD PUSH1 0x20 DUP3 ADD REVERT JUMPDEST PUSH1 0x1 PUSH1 0x1 PUSH1 0xE0 SHL SUB NOT DUP2 AND PUSH4 0xA85BD01 PUSH1 0xE1 SHL EQ PUSH2 0x13B7 JUMPI PUSH1 0x40 MLOAD PUSH4 0x32505749 PUSH1 0xE1 SHL DUP2 MSTORE PUSH1 0x1 PUSH1 0x1 PUSH1 0xA0 SHL SUB DUP6 AND PUSH1 0x4 DUP3 ADD MSTORE PUSH1 0x24 ADD PUSH2 0x67D JUMP JUMPDEST POP JUMPDEST POP POP POP POP POP JUMP JUMPDEST PUSH1 0x60 PUSH2 0x46F DUP3 PUSH0 PUSH2 0x1CDB JUMP JUMPDEST PUSH1 0x60 PUSH0 PUSH2 0x13D8 DUP4 PUSH2 0x1E5A JUMP JUMPDEST PUSH1 0x1 ADD SWAP1 POP PUSH0 DUP2 PUSH1 0x1 PUSH1 0x1 PUSH1 0x40 SHL SUB DUP2 GT ISZERO PUSH2 0x13F6 JUMPI PUSH2 0x13F6 PUSH2 0x2515 JUMP JUMPDEST PUSH1 0x40 MLOAD SWAP1 DUP1 DUP3 MSTORE DUP1 PUSH1 0x1F ADD PUSH1 0x1F NOT AND PUSH1 0x20 ADD DUP3 ADD PUSH1 0x40 MSTORE DUP1 ISZERO PUSH2 0x1420 JUMPI PUSH1 0x20 DUP3 ADD DUP2 DUP1 CALLDATASIZE DUP4 CALLDATACOPY ADD SWAP1 POP JUMPDEST POP SWAP1 POP DUP2 DUP2 ADD PUSH1 0x20 ADD JUMPDEST PUSH0 NOT ADD PUSH16 0x181899199A1A9B1B9C1CB0B131B232B3 PUSH1 0x81 SHL PUSH1 0xA DUP7 MOD BYTE DUP2 MSTORE8 PUSH1 0xA DUP6 DIV SWAP5 POP DUP5 PUSH2 0x142A JUMPI POP SWAP4 SWAP3 POP POP POP JUMP JUMPDEST PUSH1 0x60 PUSH0 PUSH1 0x10 PUSH0 DUP9 DUP2 MSTORE PUSH1 0x20 ADD SWAP1 DUP2 MSTORE PUSH1 0x20 ADD PUSH0 KECCAK256 PUSH1 0x40 MLOAD DUP1 PUSH1 0xE0 ADD PUSH1 0x40 MSTORE SWAP1 DUP2 PUSH0 DUP3 ADD DUP1 SLOAD PUSH2 0x1489 SWAP1 PUSH2 0x299B JUMP JUMPDEST DUP1 PUSH1 0x1F ADD PUSH1 0x20 DUP1 SWAP2 DIV MUL PUSH1 0x20 ADD PUSH1 0x40 MLOAD SWAP1 DUP2 ADD PUSH1 0x40 MSTORE DUP1 SWAP3 SWAP2 SWAP1 DUP2 DUP2 MSTORE PUSH1 0x20 ADD DUP3 DUP1 SLOAD PUSH2 0x14B5 SWAP1 PUSH2 0x299B JUMP JUMPDEST DUP1 ISZERO PUSH2 0x1500 JUMPI DUP1 PUSH1 0x1F LT PUSH2 0x14D7 JUMPI PUSH2 0x100 DUP1 DUP4 SLOAD DIV MUL DUP4 MSTORE SWAP2 PUSH1 0x20 ADD SWAP2 PUSH2 0x1500 JUMP JUMPDEST DUP3 ADD SWAP2 SWAP1 PUSH0 MSTORE PUSH1 0x20 PUSH0 KECCAK256 SWAP1 JUMPDEST DUP2 SLOAD DUP2 MSTORE SWAP1 PUSH1 0x1 ADD SWAP1 PUSH1 0x20 ADD DUP1 DUP4 GT PUSH2 0x14E3 JUMPI DUP3 SWAP1 SUB PUSH1 0x1F AND DUP3 ADD SWAP2 JUMPDEST POP POP POP POP POP DUP2 MSTORE PUSH1 0x20 ADD PUSH1 0x1 DUP3 ADD DUP1 SLOAD PUSH2 0x1519 SWAP1 PUSH2 0x299B JUMP JUMPDEST DUP1 PUSH1 0x1F ADD PUSH1 0x20 DUP1 SWAP2 DIV MUL PUSH1 0x20 ADD PUSH1 0x40 MLOAD SWAP1 DUP2 ADD PUSH1 0x40 MSTORE DUP1 SWAP3 SWAP2 SWAP1 DUP2 DUP2 MSTORE PUSH1 0x20 ADD DUP3 DUP1 SLOAD PUSH2 0x1545 SWAP1 PUSH2 0x299B JUMP JUMPDEST DUP1 ISZERO PUSH2 0x1590 JUMPI DUP1 PUSH1 0x1F LT PUSH2 0x1567 JUMPI PUSH2 0x100 DUP1 DUP4 SLOAD DIV MUL DUP4 MSTORE SWAP2 PUSH1 0x20 ADD SWAP2 PUSH2 0x1590 JUMP JUMPDEST DUP3 ADD SWAP2 SWAP1 PUSH0 MSTORE PUSH1 0x20 PUSH0 KECCAK256 SWAP1 JUMPDEST DUP2 SLOAD DUP2 MSTORE SWAP1 PUSH1 0x1 ADD SWAP1 PUSH1 0x20 ADD DUP1 DUP4 GT PUSH2 0x1573 JUMPI DUP3 SWAP1 SUB PUSH1 0x1F AND DUP3 ADD SWAP2 JUMPDEST POP POP POP SWAP2 DUP4 MSTORE POP POP PUSH1 0x2 DUP3 ADD SLOAD PUSH1 0x1 PUSH1 0x1 PUSH1 0x40 SHL SUB DUP1 DUP3 AND PUSH1 0x20 DUP5 ADD MSTORE PUSH1 0x1 PUSH1 0x40 SHL DUP3 DIV DUP2 AND PUSH1 0x40 DUP5 ADD MSTORE PUSH1 0x1 PUSH1 0x80 SHL DUP3 DIV DUP2 AND PUSH1 0x60 DUP5 ADD MSTORE PUSH1 0x1 PUSH1 0xC0 SHL SWAP1 SWAP2 DIV AND PUSH1 0x80 DUP3 ADD MSTORE PUSH1 0x3 DUP3 ADD DUP1 SLOAD PUSH1 0xA0 SWAP1 SWAP3 ADD SWAP2 PUSH2 0x15EC SWAP1 PUSH2 0x299B JUMP JUMPDEST DUP1 PUSH1 0x1F ADD PUSH1 0x20 DUP1 SWAP2 DIV MUL PUSH1 0x20 ADD PUSH1 0x40 MLOAD SWAP1 DUP2 ADD PUSH1 0x40 MSTORE DUP1 SWAP3 SWAP2 SWAP1 DUP2 DUP2 MSTORE PUSH1 0x20 ADD DUP3 DUP1 SLOAD PUSH2 0x1618 SWAP1 PUSH2 0x299B JUMP JUMPDEST DUP1 ISZERO PUSH2 0x1663 JUMPI DUP1 PUSH1 0x1F LT PUSH2 0x163A JUMPI PUSH2 0x100 DUP1 DUP4 SLOAD DIV MUL DUP4 MSTORE SWAP2 PUSH1 0x20 ADD SWAP2 PUSH2 0x1663 JUMP JUMPDEST DUP3 ADD SWAP2 SWAP1 PUSH0 MSTORE PUSH1 0x20 PUSH0 KECCAK256 SWAP1 JUMPDEST DUP2 SLOAD DUP2 MSTORE SWAP1 PUSH1 0x1 ADD SWAP1 PUSH1 0x20 ADD DUP1 DUP4 GT PUSH2 0x1646 JUMPI DUP3 SWAP1 SUB PUSH1 0x1F AND DUP3 ADD SWAP2 JUMPDEST POP POP POP POP POP DUP2 MSTORE POP POP SWAP1 POP PUSH0 DUP5 PUSH1 0x1 PUSH1 0x1 PUSH1 0x40 SHL SUB AND PUSH0 EQ PUSH2 0x1685 JUMPI DUP5 PUSH2 0x1688 JUMP JUMPDEST PUSH1 0x1 JUMPDEST SWAP1 POP PUSH0 DUP2 PUSH1 0x1 PUSH1 0x1 PUSH1 0x40 SHL SUB AND DUP6 PUSH1 0x1 PUSH1 0x1 PUSH1 0x40 SHL SUB AND DUP9 PUSH1 0x1 PUSH1 0x1 PUSH1 0x40 SHL SUB AND PUSH2 0x16B3 SWAP2 SWAP1 PUSH2 0x2D13 JUMP JUMPDEST PUSH2 0x16BE SWAP1 PUSH1 0x64 PUSH2 0x2D26 JUMP JUMPDEST PUSH2 0x16C8 SWAP2 SWAP1 PUSH2 0x2D3D JUMP JUMPDEST SWAP1 POP PUSH0 PUSH2 0x16DE PUSH2 0x16D9 PUSH1 0x64 DUP5 PUSH2 0x2D3D JUMP JUMPDEST PUSH2 0x13CC JUMP JUMPDEST PUSH2 0x16EC PUSH2 0x16D9 PUSH1 0x64 DUP6 PUSH2 0x2D50 JUMP JUMPDEST PUSH1 0x40 MLOAD PUSH1 0x20 ADD PUSH2 0x16FD SWAP3 SWAP2 SWAP1 PUSH2 0x2D63 JUMP JUMPDEST PUSH1 0x40 MLOAD PUSH1 0x20 DUP2 DUP4 SUB SUB DUP2 MSTORE SWAP1 PUSH1 0x40 MSTORE SWAP1 POP DUP4 PUSH0 ADD MLOAD DUP5 PUSH1 0x20 ADD MLOAD PUSH2 0x1729 DUP12 PUSH1 0x1 PUSH1 0x1 PUSH1 0x40 SHL SUB AND PUSH2 0x13CC JUMP JUMPDEST PUSH2 0x173B DUP12 PUSH1 0x1 PUSH1 0x1 PUSH1 0x40 SHL SUB AND PUSH2 0x13CC JUMP JUMPDEST PUSH2 0x174D DUP12 PUSH1 0x1 PUSH1 0x1 PUSH1 0x40 SHL SUB AND PUSH2 0x13CC JUMP JUMPDEST PUSH2 0x175F DUP12 PUSH1 0x1 PUSH1 0x1 PUSH1 0x40 SHL SUB AND PUSH2 0x13CC JUMP JUMPDEST DUP7 PUSH1 0x40 MLOAD PUSH1 0x20 ADD PUSH2 0x1776 SWAP8 SWAP7 SWAP6 SWAP5 SWAP4 SWAP3 SWAP2 SWAP1 PUSH2 0x2D8B JUMP JUMPDEST PUSH1 0x40 MLOAD PUSH1 0x20 DUP2 DUP4 SUB SUB DUP2 MSTORE SWAP1 PUSH1 0x40 MSTORE SWAP5 POP POP POP POP POP SWAP6 SWAP5 POP POP POP POP POP JUMP JUMPDEST PUSH2 0x447 DUP3 DUP3 PUSH1 0x40 MLOAD DUP1 PUSH1 0x20 ADD PUSH1 0x40 MSTORE DUP1 PUSH0 DUP2 MSTORE POP PUSH2 0x1F31 JUMP JUMPDEST DUP1 DUP1 PUSH2 0x17C1 JUMPI POP PUSH1 0x1 PUSH1 0x1 PUSH1 0xA0 SHL SUB DUP3 AND ISZERO ISZERO JUMPDEST ISZERO PUSH2 0x1882 JUMPI PUSH0 PUSH2 0x17D0 DUP5 PUSH2 0xDB8 JUMP JUMPDEST SWAP1 POP PUSH1 0x1 PUSH1 0x1 PUSH1 0xA0 SHL SUB DUP4 AND ISZERO DUP1 ISZERO SWAP1 PUSH2 0x17FC JUMPI POP DUP3 PUSH1 0x1 PUSH1 0x1 PUSH1 0xA0 SHL SUB AND DUP2 PUSH1 0x1 PUSH1 0x1 PUSH1 0xA0 SHL SUB AND EQ ISZERO JUMPDEST DUP1 ISZERO PUSH2 0x180F JUMPI POP PUSH2 0x180D DUP2 DUP5 PUSH2 0xB81 JUMP JUMPDEST ISZERO JUMPDEST ISZERO PUSH2 0x1838 JUMPI PUSH1 0x40 MLOAD PUSH4 0xA9FBF51F PUSH1 0xE0 SHL DUP2 MSTORE PUSH1 0x1 PUSH1 0x1 PUSH1 0xA0 SHL SUB DUP5 AND PUSH1 0x4 DUP3 ADD MSTORE PUSH1 0x24 ADD PUSH2 0x67D JUMP JUMPDEST DUP2 ISZERO PUSH2 0x1880 JUMPI DUP4 DUP6 PUSH1 0x1 PUSH1 0x1 PUSH1 0xA0 SHL SUB AND DUP3 PUSH1 0x1 PUSH1 0x1 PUSH1 0xA0 SHL SUB AND PUSH32 0x8C5BE1E5EBEC7D5BD14F71427D1E84F3DD0314C0F7B2291E5B200AC8C7C3B925 PUSH1 0x40 MLOAD PUSH1 0x40 MLOAD DUP1 SWAP2 SUB SWAP1 LOG4 JUMPDEST POP JUMPDEST POP POP PUSH0 SWAP1 DUP2 MSTORE PUSH1 0x4 PUSH1 0x20 MSTORE PUSH1 0x40 SWAP1 KECCAK256 DUP1 SLOAD PUSH1 0x1 PUSH1 0x1 PUSH1 0xA0 SHL SUB NOT AND PUSH1 0x1 PUSH1 0x1 PUSH1 0xA0 SHL SUB SWAP3 SWAP1 SWAP3 AND SWAP2 SWAP1 SWAP2 OR SWAP1 SSTORE JUMP JUMPDEST PUSH2 0x18BC DUP4 DUP4 DUP4 PUSH2 0x1F48 JUMP JUMPDEST PUSH2 0x700 JUMPI PUSH1 0x1 PUSH1 0x1 PUSH1 0xA0 SHL SUB DUP4 AND PUSH2 0x18EA JUMPI PUSH1 0x40 MLOAD PUSH4 0x7E273289 PUSH1 0xE0 SHL DUP2 MSTORE PUSH1 0x4 DUP2 ADD DUP3 SWAP1 MSTORE PUSH1 0x24 ADD PUSH2 0x67D JUMP JUMPDEST PUSH1 0x40 MLOAD PUSH4 0x177E802F PUSH1 0xE0 SHL DUP2 MSTORE PUSH1 0x1 PUSH1 0x1 PUSH1 0xA0 SHL SUB DUP4 AND PUSH1 0x4 DUP3 ADD MSTORE PUSH1 0x24 DUP2 ADD DUP3 SWAP1 MSTORE PUSH1 0x44 ADD PUSH2 0x67D JUMP JUMPDEST PUSH2 0x447 DUP3 PUSH0 PUSH0 DUP5 PUSH2 0x1FAC JUMP JUMPDEST DUP1 MLOAD PUSH0 SUB PUSH2 0x1942 JUMPI PUSH1 0x40 MLOAD PUSH4 0xFE936CB7 PUSH1 0xE0 SHL DUP2 MSTORE PUSH1 0x4 ADD PUSH1 0x40 MLOAD DUP1 SWAP2 SUB SWAP1 REVERT JUMPDEST PUSH1 0xA0 SWAP1 SWAP2 ADD MSTORE JUMP JUMPDEST PUSH1 0x60 PUSH0 PUSH2 0x1958 PUSH2 0x100 PUSH2 0x2029 JUMP JUMPDEST SWAP1 POP PUSH2 0x1991 PUSH1 0x40 MLOAD DUP1 PUSH1 0x40 ADD PUSH1 0x40 MSTORE DUP1 PUSH1 0xC DUP2 MSTORE PUSH1 0x20 ADD PUSH12 0x31B7B232A637B1B0BA34B7B7 PUSH1 0xA1 SHL DUP2 MSTORE POP DUP3 PUSH2 0x2049 SWAP1 SWAP2 SWAP1 PUSH4 0xFFFFFFFF AND JUMP JUMPDEST DUP3 MLOAD PUSH2 0x19AF SWAP1 PUSH1 0x2 DUP2 GT ISZERO PUSH2 0x19A8 JUMPI PUSH2 0x19A8 PUSH2 0x40CA JUMP JUMPDEST DUP3 SWAP1 PUSH2 0x2062 JUMP JUMPDEST PUSH1 0x40 DUP1 MLOAD DUP1 DUP3 ADD SWAP1 SWAP2 MSTORE PUSH1 0x8 DUP2 MSTORE PUSH8 0x6C616E6775616765 PUSH1 0xC0 SHL PUSH1 0x20 DUP3 ADD MSTORE PUSH2 0x19D9 SWAP1 DUP3 SWAP1 PUSH2 0x2049 JUMP JUMPDEST PUSH1 0x40 DUP4 ADD MLOAD PUSH2 0x19F0 SWAP1 DUP1 ISZERO PUSH2 0x19A8 JUMPI PUSH2 0x19A8 PUSH2 0x40CA JUMP JUMPDEST PUSH1 0x40 DUP1 MLOAD DUP1 DUP3 ADD SWAP1 SWAP2 MSTORE PUSH1 0x6 DUP2 MSTORE PUSH6 0x736F75726365 PUSH1 0xD0 SHL PUSH1 0x20 DUP3 ADD MSTORE PUSH2 0x1A18 SWAP1 DUP3 SWAP1 PUSH2 0x2049 JUMP JUMPDEST PUSH1 0x60 DUP4 ADD MLOAD PUSH2 0x1A28 SWAP1 DUP3 SWAP1 PUSH2 0x2049 JUMP JUMPDEST PUSH1 0xA0 DUP4 ADD MLOAD MLOAD ISZERO PUSH2 0x1AB3 JUMPI PUSH1 0x40 DUP1 MLOAD DUP1 DUP3 ADD SWAP1 SWAP2 MSTORE PUSH1 0x4 DUP2 MSTORE PUSH4 0x61726773 PUSH1 0xE0 SHL PUSH1 0x20 DUP3 ADD MSTORE PUSH2 0x1A59 SWAP1 DUP3 SWAP1 PUSH2 0x2049 JUMP JUMPDEST PUSH2 0x1A62 DUP2 PUSH2 0x209B JUMP JUMPDEST PUSH0 JUMPDEST DUP4 PUSH1 0xA0 ADD MLOAD MLOAD DUP2 LT ISZERO PUSH2 0x1AA9 JUMPI PUSH2 0x1AA1 DUP5 PUSH1 0xA0 ADD MLOAD DUP3 DUP2 MLOAD DUP2 LT PUSH2 0x1A8A JUMPI PUSH2 0x1A8A PUSH2 0x2C94 JUMP JUMPDEST PUSH1 0x20 MUL PUSH1 0x20 ADD ADD MLOAD DUP4 PUSH2 0x2049 SWAP1 SWAP2 SWAP1 PUSH4 0xFFFFFFFF AND JUMP JUMPDEST PUSH1 0x1 ADD PUSH2 0x1A64 JUMP JUMPDEST POP PUSH2 0x1AB3 DUP2 PUSH2 0x20BF JUMP JUMPDEST PUSH1 0x80 DUP4 ADD MLOAD MLOAD ISZERO PUSH2 0x1B76 JUMPI PUSH0 DUP4 PUSH1 0x20 ADD MLOAD PUSH1 0x2 DUP2 GT ISZERO PUSH2 0x1AD5 JUMPI PUSH2 0x1AD5 PUSH2 0x40CA JUMP JUMPDEST SUB PUSH2 0x1AF3 JUMPI PUSH1 0x40 MLOAD PUSH4 0xA80D31F7 PUSH1 0xE0 SHL DUP2 MSTORE PUSH1 0x4 ADD PUSH1 0x40 MLOAD DUP1 SWAP2 SUB SWAP1 REVERT JUMPDEST PUSH1 0x40 DUP1 MLOAD DUP1 DUP3 ADD SWAP1 SWAP2 MSTORE PUSH1 0xF DUP2 MSTORE PUSH15 0x39B2B1B932BA39A637B1B0BA34B7B7 PUSH1 0x89 SHL PUSH1 0x20 DUP3 ADD MSTORE PUSH2 0x1B24 SWAP1 DUP3 SWAP1 PUSH2 0x2049 JUMP JUMPDEST PUSH2 0x1B3D DUP4 PUSH1 0x20 ADD MLOAD PUSH1 0x2 DUP2 GT ISZERO PUSH2 0x19A8 JUMPI PUSH2 0x19A8 PUSH2 0x40CA JUMP JUMPDEST PUSH1 0x40 DUP1 MLOAD DUP1 DUP3 ADD SWAP1 SWAP2 MSTORE PUSH1 0x7 DUP2 MSTORE PUSH7 0x73656372657473 PUSH1 0xC8 SHL PUSH1 0x20 DUP3 ADD MSTORE PUSH2 0x1B66 SWAP1 DUP3 SWAP1 PUSH2 0x2049 JUMP JUMPDEST PUSH1 0x80 DUP4 ADD MLOAD PUSH2 0x1B76 SWAP1 DUP3 SWAP1 PUSH2 0x20DD JUMP JUMPDEST PUSH1 0xC0 DUP4 ADD MLOAD MLOAD ISZERO PUSH2 0x1C06 JUMPI PUSH1 0x40 DUP1 MLOAD DUP1 DUP3 ADD SWAP1 SWAP2 MSTORE PUSH1 0x9 DUP2 MSTORE PUSH9 0x627974657341726773 PUSH1 0xB8 SHL PUSH1 0x20 DUP3 ADD MSTORE PUSH2 0x1BAC SWAP1 DUP3 SWAP1 PUSH2 0x2049 JUMP JUMPDEST PUSH2 0x1BB5 DUP2 PUSH2 0x209B JUMP JUMPDEST PUSH0 JUMPDEST DUP4 PUSH1 0xC0 ADD MLOAD MLOAD DUP2 LT ISZERO PUSH2 0x1BFC JUMPI PUSH2 0x1BF4 DUP5 PUSH1 0xC0 ADD MLOAD DUP3 DUP2 MLOAD DUP2 LT PUSH2 0x1BDD JUMPI PUSH2 0x1BDD PUSH2 0x2C94 JUMP JUMPDEST PUSH1 0x20 MUL PUSH1 0x20 ADD ADD MLOAD DUP4 PUSH2 0x20DD SWAP1 SWAP2 SWAP1 PUSH4 0xFFFFFFFF AND JUMP JUMPDEST PUSH1 0x1 ADD PUSH2 0x1BB7 JUMP JUMPDEST POP PUSH2 0x1C06 DUP2 PUSH2 0x20BF JUMP JUMPDEST MLOAD MLOAD SWAP3 SWAP2 POP POP JUMP JUMPDEST PUSH0 PUSH0 PUSH32 0x0 PUSH1 0x1 PUSH1 0x1 PUSH1 0xA0 SHL SUB AND PUSH4 0x461D2762 DUP7 DUP9 PUSH1 0x1 DUP9 DUP9 PUSH1 0x40 MLOAD DUP7 PUSH4 0xFFFFFFFF AND PUSH1 0xE0 SHL DUP2 MSTORE PUSH1 0x4 ADD PUSH2 0x1C65 SWAP6 SWAP5 SWAP4 SWAP3 SWAP2 SWAP1 PUSH2 0x40DE JUMP JUMPDEST PUSH1 0x20 PUSH1 0x40 MLOAD DUP1 DUP4 SUB DUP2 PUSH0 DUP8 GAS CALL ISZERO DUP1 ISZERO PUSH2 0x1C81 JUMPI RETURNDATASIZE PUSH0 PUSH0 RETURNDATACOPY RETURNDATASIZE PUSH0 REVERT JUMPDEST POP POP POP POP PUSH1 0x40 MLOAD RETURNDATASIZE PUSH1 0x1F NOT PUSH1 0x1F DUP3 ADD AND DUP3 ADD DUP1 PUSH1 0x40 MSTORE POP DUP2 ADD SWAP1 PUSH2 0x1CA5 SWAP2 SWAP1 PUSH2 0x2C7D JUMP JUMPDEST PUSH1 0x40 MLOAD SWAP1 SWAP2 POP DUP2 SWAP1 PUSH32 0x1131472297A800FEE664D1D89CFA8F7676FF07189ECC53F80BBB5F4969099DB8 SWAP1 PUSH0 SWAP1 LOG2 SWAP6 SWAP5 POP POP POP POP POP JUMP JUMPDEST PUSH1 0x60 DUP3 MLOAD PUSH0 SUB PUSH2 0x1CF9 JUMPI POP PUSH1 0x40 DUP1 MLOAD PUSH1 0x20 DUP2 ADD SWAP1 SWAP2 MSTORE PUSH0 DUP2 MSTORE PUSH2 0x46F JUMP JUMPDEST PUSH0 DUP3 PUSH2 0x1D29 JUMPI PUSH1 0x3 DUP5 MLOAD PUSH1 0x2 PUSH2 0x1D0F SWAP2 SWAP1 PUSH2 0x2D13 JUMP JUMPDEST PUSH2 0x1D19 SWAP2 SWAP1 PUSH2 0x2D3D JUMP JUMPDEST PUSH2 0x1D24 SWAP1 PUSH1 0x4 PUSH2 0x2D26 JUMP JUMPDEST PUSH2 0x1D4E JUMP JUMPDEST PUSH1 0x3 DUP5 MLOAD PUSH1 0x4 PUSH2 0x1D39 SWAP2 SWAP1 PUSH2 0x2D26 JUMP JUMPDEST PUSH2 0x1D44 SWAP1 PUSH1 0x2 PUSH2 0x2D13 JUMP JUMPDEST PUSH2 0x1D4E SWAP2 SWAP1 PUSH2 0x2D3D JUMP JUMPDEST SWAP1 POP PUSH1 0x40 MLOAD SWAP2 POP PUSH32 0x4142434445464748494A4B4C4D4E4F505152535455565758595A616263646566 PUSH1 0x1F MSTORE PUSH2 0x670 DUP4 MUL PUSH32 0x6768696A6B6C6D6E6F707172737475767778797A303132333435363738392B2F XOR PUSH1 0x3F MSTORE PUSH1 0x20 DUP3 ADD DUP2 DUP2 ADD DUP6 DUP7 MLOAD DUP8 ADD PUSH1 0x20 DUP2 ADD DUP1 MLOAD PUSH0 DUP3 MSTORE JUMPDEST DUP3 DUP5 LT ISZERO PUSH2 0x1E0C JUMPI PUSH1 0x3 DUP5 ADD SWAP4 POP DUP4 MLOAD PUSH1 0x3F DUP2 PUSH1 0x12 SHR AND MLOAD DUP8 MSTORE8 PUSH1 0x1 DUP8 ADD SWAP7 POP PUSH1 0x3F DUP2 PUSH1 0xC SHR AND MLOAD DUP8 MSTORE8 PUSH1 0x1 DUP8 ADD SWAP7 POP PUSH1 0x3F DUP2 PUSH1 0x6 SHR AND MLOAD DUP8 MSTORE8 PUSH1 0x1 DUP8 ADD SWAP7 POP PUSH1 0x3F DUP2 AND MLOAD DUP8 MSTORE8 POP PUSH1 0x1 DUP7 ADD SWAP6 POP PUSH2 0x1DB9 JUMP JUMPDEST SWAP1 MSTORE POP DUP6 SWAP1 POP PUSH2 0x1E4D JUMPI PUSH1 0x3 DUP7 MLOAD MOD PUSH1 0x1 DUP2 EQ PUSH2 0x1E30 JUMPI PUSH1 0x2 DUP2 EQ PUSH2 0x1E43 JUMPI PUSH2 0x1E4B JUMP JUMPDEST PUSH1 0x3D PUSH1 0x1 DUP5 SUB MSTORE8 PUSH1 0x3D PUSH1 0x2 DUP5 SUB MSTORE8 PUSH2 0x1E4B JUMP JUMPDEST PUSH1 0x3D PUSH1 0x1 DUP5 SUB MSTORE8 JUMPDEST POP JUMPDEST SWAP2 DUP4 MSTORE POP PUSH1 0x40 MSTORE SWAP3 SWAP2 POP POP JUMP JUMPDEST PUSH0 DUP1 PUSH19 0x184F03E93FF9F4DAA797ED6E38ED64BF6A1F01 PUSH1 0x40 SHL DUP4 LT PUSH2 0x1E98 JUMPI PUSH19 0x184F03E93FF9F4DAA797ED6E38ED64BF6A1F01 PUSH1 0x40 SHL DUP4 DIV SWAP3 POP PUSH1 0x40 ADD JUMPDEST PUSH14 0x4EE2D6D415B85ACEF8100000000 DUP4 LT PUSH2 0x1EC4 JUMPI PUSH14 0x4EE2D6D415B85ACEF8100000000 DUP4 DIV SWAP3 POP PUSH1 0x20 ADD JUMPDEST PUSH7 0x2386F26FC10000 DUP4 LT PUSH2 0x1EE2 JUMPI PUSH7 0x2386F26FC10000 DUP4 DIV SWAP3 POP PUSH1 0x10 ADD JUMPDEST PUSH4 0x5F5E100 DUP4 LT PUSH2 0x1EFA JUMPI PUSH4 0x5F5E100 DUP4 DIV SWAP3 POP PUSH1 0x8 ADD JUMPDEST PUSH2 0x2710 DUP4 LT PUSH2 0x1F0E JUMPI PUSH2 0x2710 DUP4 DIV SWAP3 POP PUSH1 0x4 ADD JUMPDEST PUSH1 0x64 DUP4 LT PUSH2 0x1F20 JUMPI PUSH1 0x64 DUP4 DIV SWAP3 POP PUSH1 0x2 ADD JUMPDEST PUSH1 0xA DUP4 LT PUSH2 0x46F JUMPI PUSH1 0x1 ADD SWAP3 SWAP2 POP POP JUMP JUMPDEST PUSH2 0x1F3B DUP4 DUP4 PUSH2 0x20EA JUMP JUMPDEST PUSH2 0x700 CALLER PUSH0 DUP6 DUP6 DUP6 PUSH2 0x1298 JUMP JUMPDEST PUSH0 PUSH1 0x1 PUSH1 0x1 PUSH1 0xA0 SHL SUB DUP4 AND ISZERO DUP1 ISZERO SWAP1 PUSH2 0x1FA4 JUMPI POP DUP3 PUSH1 0x1 PUSH1 0x1 PUSH1 0xA0 SHL SUB AND DUP5 PUSH1 0x1 PUSH1 0x1 PUSH1 0xA0 SHL SUB AND EQ DUP1 PUSH2 0x1F81 JUMPI POP PUSH2 0x1F81 DUP5 DUP5 PUSH2 0xB81 JUMP JUMPDEST DUP1 PUSH2 0x1FA4 JUMPI POP PUSH0 DUP3 DUP2 MSTORE PUSH1 0x4 PUSH1 0x20 MSTORE PUSH1 0x40 SWAP1 KECCAK256 SLOAD PUSH1 0x1 PUSH1 0x1 PUSH1 0xA0 SHL SUB DUP5 DUP2 AND SWAP2 AND EQ JUMPDEST SWAP5 SWAP4 POP POP POP POP JUMP JUMPDEST DUP1 MLOAD PUSH0 SUB PUSH2 0x1FCD JUMPI PUSH1 0x40 MLOAD PUSH4 0x22CE3EDD PUSH1 0xE0 SHL DUP2 MSTORE PUSH1 0x4 ADD PUSH1 0x40 MLOAD DUP1 SWAP2 SUB SWAP1 REVERT JUMPDEST DUP4 DUP4 PUSH1 0x2 DUP2 GT ISZERO PUSH2 0x1FE0 JUMPI PUSH2 0x1FE0 PUSH2 0x40CA JUMP JUMPDEST SWAP1 DUP2 PUSH1 0x2 DUP2 GT ISZERO PUSH2 0x1FF3 JUMPI PUSH2 0x1FF3 PUSH2 0x40CA JUMP JUMPDEST SWAP1 MSTORE POP PUSH1 0x40 DUP5 ADD DUP3 DUP1 ISZERO PUSH2 0x2009 JUMPI PUSH2 0x2009 PUSH2 0x40CA JUMP JUMPDEST SWAP1 DUP2 DUP1 ISZERO PUSH2 0x2019 JUMPI PUSH2 0x2019 PUSH2 0x40CA JUMP JUMPDEST SWAP1 MSTORE POP PUSH1 0x60 SWAP1 SWAP4 ADD SWAP3 SWAP1 SWAP3 MSTORE POP POP JUMP JUMPDEST PUSH2 0x2031 PUSH2 0x24E2 JUMP JUMPDEST DUP1 MLOAD PUSH2 0x203D SWAP1 DUP4 PUSH2 0x214B JUMP JUMPDEST POP PUSH0 PUSH1 0x20 DUP3 ADD MSTORE SWAP2 SWAP1 POP JUMP JUMPDEST PUSH2 0x2056 DUP3 PUSH1 0x3 DUP4 MLOAD PUSH2 0x21BF JUMP JUMPDEST DUP2 MLOAD PUSH2 0x700 SWAP1 DUP3 PUSH2 0x22D8 JUMP JUMPDEST DUP2 MLOAD PUSH2 0x206F SWAP1 PUSH1 0xC2 PUSH2 0x22FF JUMP JUMPDEST POP PUSH2 0x447 DUP3 DUP3 PUSH1 0x40 MLOAD PUSH1 0x20 ADD PUSH2 0x2087 SWAP2 DUP2 MSTORE PUSH1 0x20 ADD SWAP1 JUMP JUMPDEST PUSH1 0x40 MLOAD PUSH1 0x20 DUP2 DUP4 SUB SUB DUP2 MSTORE SWAP1 PUSH1 0x40 MSTORE PUSH2 0x20DD JUMP JUMPDEST PUSH2 0x20A6 DUP2 PUSH1 0x4 PUSH2 0x2366 JUMP JUMPDEST PUSH1 0x1 DUP2 PUSH1 0x20 ADD DUP2 DUP2 MLOAD PUSH2 0x20B9 SWAP2 SWAP1 PUSH2 0x2D13 JUMP JUMPDEST SWAP1 MSTORE POP POP JUMP JUMPDEST PUSH2 0x20CA DUP2 PUSH1 0x7 PUSH2 0x2366 JUMP JUMPDEST PUSH1 0x1 DUP2 PUSH1 0x20 ADD DUP2 DUP2 MLOAD PUSH2 0x20B9 SWAP2 SWAP1 PUSH2 0x2AEF JUMP JUMPDEST PUSH2 0x2056 DUP3 PUSH1 0x2 DUP4 MLOAD PUSH2 0x21BF JUMP JUMPDEST PUSH1 0x1 PUSH1 0x1 PUSH1 0xA0 SHL SUB DUP3 AND PUSH2 0x2113 JUMPI PUSH1 0x40 MLOAD PUSH4 0x32505749 PUSH1 0xE1 SHL DUP2 MSTORE PUSH0 PUSH1 0x4 DUP3 ADD MSTORE PUSH1 0x24 ADD PUSH2 0x67D JUMP JUMPDEST PUSH0 PUSH2 0x211F DUP4 DUP4 PUSH0 PUSH2 0xF1D JUMP JUMPDEST SWAP1 POP PUSH1 0x1 PUSH1 0x1 PUSH1 0xA0 SHL SUB DUP2 AND ISZERO PUSH2 0x700 JUMPI PUSH1 0x40 MLOAD PUSH4 0x39E35637 PUSH1 0xE1 SHL DUP2 MSTORE PUSH0 PUSH1 0x4 DUP3 ADD MSTORE PUSH1 0x24 ADD PUSH2 0x67D JUMP JUMPDEST PUSH1 0x40 DUP1 MLOAD DUP1 DUP3 ADD SWAP1 SWAP2 MSTORE PUSH1 0x60 DUP2 MSTORE PUSH0 PUSH1 0x20 DUP3 ADD MSTORE PUSH2 0x216A PUSH1 0x20 DUP4 PUSH2 0x2D50 JUMP JUMPDEST ISZERO PUSH2 0x2192 JUMPI PUSH2 0x217A PUSH1 0x20 DUP4 PUSH2 0x2D50 JUMP JUMPDEST PUSH2 0x2185 SWAP1 PUSH1 0x20 PUSH2 0x2AEF JUMP JUMPDEST PUSH2 0x218F SWAP1 DUP4 PUSH2 0x2D13 JUMP JUMPDEST SWAP2 POP JUMPDEST PUSH1 0x20 DUP1 DUP5 ADD DUP4 SWAP1 MSTORE PUSH1 0x40 MLOAD DUP1 DUP6 MSTORE PUSH0 DUP2 MSTORE SWAP1 DUP2 DUP5 ADD ADD DUP2 DUP2 LT ISZERO PUSH2 0x21B4 JUMPI PUSH0 PUSH0 REVERT JUMPDEST PUSH1 0x40 MSTORE POP SWAP2 SWAP3 SWAP2 POP POP JUMP JUMPDEST PUSH1 0x17 DUP2 PUSH1 0x1 PUSH1 0x1 PUSH1 0x40 SHL SUB AND GT PUSH2 0x21E5 JUMPI DUP3 MLOAD PUSH2 0x6E0 SWAP1 PUSH1 0xE0 PUSH1 0x5 DUP6 SWAP1 SHL AND DUP4 OR PUSH2 0x22FF JUMP JUMPDEST PUSH1 0xFF DUP2 PUSH1 0x1 PUSH1 0x1 PUSH1 0x40 SHL SUB AND GT PUSH2 0x2225 JUMPI DUP3 MLOAD PUSH2 0x220D SWAP1 PUSH1 0x18 PUSH2 0x1FE0 PUSH1 0x5 DUP7 SWAP1 SHL AND OR PUSH2 0x22FF JUMP JUMPDEST POP DUP3 MLOAD PUSH2 0x6E0 SWAP1 PUSH1 0x1 PUSH1 0x1 PUSH1 0x40 SHL SUB DUP4 AND PUSH1 0x1 PUSH2 0x237D JUMP JUMPDEST PUSH2 0xFFFF DUP2 PUSH1 0x1 PUSH1 0x1 PUSH1 0x40 SHL SUB AND GT PUSH2 0x2266 JUMPI DUP3 MLOAD PUSH2 0x224E SWAP1 PUSH1 0x19 PUSH2 0x1FE0 PUSH1 0x5 DUP7 SWAP1 SHL AND OR PUSH2 0x22FF JUMP JUMPDEST POP DUP3 MLOAD PUSH2 0x6E0 SWAP1 PUSH1 0x1 PUSH1 0x1 PUSH1 0x40 SHL SUB DUP4 AND PUSH1 0x2 PUSH2 0x237D JUMP JUMPDEST PUSH4 0xFFFFFFFF DUP2 PUSH1 0x1 PUSH1 0x1 PUSH1 0x40 SHL SUB AND GT PUSH2 0x22A9 JUMPI DUP3 MLOAD PUSH2 0x2291 SWAP1 PUSH1 0x1A PUSH2 0x1FE0 PUSH1 0x5 DUP7 SWAP1 SHL AND OR PUSH2 0x22FF JUMP JUMPDEST POP DUP3 MLOAD PUSH2 0x6E0 SWAP1 PUSH1 0x1 PUSH1 0x1 PUSH1 0x40 SHL SUB DUP4 AND PUSH1 0x4 PUSH2 0x237D JUMP JUMPDEST DUP3 MLOAD PUSH2 0x22C0 SWAP1 PUSH1 0x1B PUSH2 0x1FE0 PUSH1 0x5 DUP7 SWAP1 SHL AND OR PUSH2 0x22FF JUMP JUMPDEST POP DUP3 MLOAD PUSH2 0x6E0 SWAP1 PUSH1 0x1 PUSH1 0x1 PUSH1 0x40 SHL SUB DUP4 AND PUSH1 0x8 PUSH2 0x237D JUMP JUMPDEST PUSH1 0x40 DUP1 MLOAD DUP1 DUP3 ADD SWAP1 SWAP2 MSTORE PUSH1 0x60 DUP2 MSTORE PUSH0 PUSH1 0x20 DUP3 ADD MSTORE PUSH2 0x22F8 DUP4 DUP4 DUP5 MLOAD PUSH2 0x23FF JUMP JUMPDEST SWAP4 SWAP3 POP POP POP JUMP JUMPDEST PUSH1 0x40 DUP1 MLOAD DUP1 DUP3 ADD SWAP1 SWAP2 MSTORE PUSH1 0x60 DUP2 MSTORE PUSH0 PUSH1 0x20 DUP3 ADD MSTORE DUP3 MLOAD MLOAD PUSH0 PUSH2 0x2322 DUP3 PUSH1 0x1 PUSH2 0x2D13 JUMP JUMPDEST SWAP1 POP DUP5 PUSH1 0x20 ADD MLOAD DUP3 LT PUSH2 0x2343 JUMPI PUSH2 0x2343 DUP6 PUSH2 0x233E DUP4 PUSH1 0x2 PUSH2 0x2D26 JUMP JUMPDEST PUSH2 0x24CB JUMP JUMPDEST DUP5 MLOAD PUSH1 0x20 DUP4 DUP3 ADD ADD DUP6 DUP2 MSTORE8 POP DUP1 MLOAD DUP3 GT ISZERO PUSH2 0x235C JUMPI DUP2 DUP2 MSTORE JUMPDEST POP SWAP4 SWAP5 SWAP4 POP POP POP POP JUMP JUMPDEST DUP2 MLOAD PUSH2 0x700 SWAP1 PUSH1 0x1F PUSH2 0x1FE0 PUSH1 0x5 DUP6 SWAP1 SHL AND OR PUSH2 0x22FF JUMP JUMPDEST PUSH1 0x40 DUP1 MLOAD DUP1 DUP3 ADD SWAP1 SWAP2 MSTORE PUSH1 0x60 DUP2 MSTORE PUSH0 PUSH1 0x20 DUP3 ADD MSTORE DUP4 MLOAD MLOAD PUSH0 PUSH2 0x239F DUP3 DUP6 PUSH2 0x2D13 JUMP JUMPDEST SWAP1 POP DUP6 PUSH1 0x20 ADD MLOAD DUP2 GT ISZERO PUSH2 0x23BC JUMPI PUSH2 0x23BC DUP7 PUSH2 0x233E DUP4 PUSH1 0x2 PUSH2 0x2D26 JUMP JUMPDEST PUSH0 PUSH1 0x1 PUSH2 0x23CB DUP7 PUSH2 0x100 PUSH2 0x4209 JUMP JUMPDEST PUSH2 0x23D5 SWAP2 SWAP1 PUSH2 0x2AEF JUMP JUMPDEST SWAP1 POP DUP7 MLOAD DUP3 DUP2 ADD DUP8 DUP4 NOT DUP3 MLOAD AND OR DUP2 MSTORE POP DUP1 MLOAD DUP4 GT ISZERO PUSH2 0x23F3 JUMPI DUP3 DUP2 MSTORE JUMPDEST POP SWAP6 SWAP7 SWAP6 POP POP POP POP POP POP JUMP JUMPDEST PUSH1 0x40 DUP1 MLOAD DUP1 DUP3 ADD SWAP1 SWAP2 MSTORE PUSH1 0x60 DUP2 MSTORE PUSH0 PUSH1 0x20 DUP3 ADD MSTORE DUP3 MLOAD DUP3 GT ISZERO PUSH2 0x2420 JUMPI PUSH0 PUSH0 REVERT JUMPDEST DUP4 MLOAD MLOAD PUSH0 PUSH2 0x242E DUP5 DUP4 PUSH2 0x2D13 JUMP JUMPDEST SWAP1 POP DUP6 PUSH1 0x20 ADD MLOAD DUP2 GT ISZERO PUSH2 0x244B JUMPI PUSH2 0x244B DUP7 PUSH2 0x233E DUP4 PUSH1 0x2 PUSH2 0x2D26 JUMP JUMPDEST DUP6 MLOAD DUP1 MLOAD DUP4 DUP3 ADD PUSH1 0x20 ADD SWAP2 PUSH0 SWAP2 DUP1 DUP6 GT ISZERO PUSH2 0x2464 JUMPI DUP5 DUP3 MSTORE JUMPDEST POP POP POP PUSH1 0x20 DUP7 ADD JUMPDEST PUSH1 0x20 DUP7 LT PUSH2 0x24A4 JUMPI DUP1 MLOAD DUP3 MSTORE PUSH2 0x2483 PUSH1 0x20 DUP4 PUSH2 0x2D13 JUMP JUMPDEST SWAP2 POP PUSH2 0x2490 PUSH1 0x20 DUP3 PUSH2 0x2D13 JUMP JUMPDEST SWAP1 POP PUSH2 0x249D PUSH1 0x20 DUP8 PUSH2 0x2AEF JUMP JUMPDEST SWAP6 POP PUSH2 0x246C JUMP JUMPDEST MLOAD DUP2 MLOAD PUSH0 NOT PUSH1 0x20 DUP9 SWAP1 SUB PUSH2 0x100 EXP ADD SWAP1 DUP2 AND SWAP1 NOT SWAP2 SWAP1 SWAP2 AND OR SWAP1 MSTORE POP DUP5 SWAP2 POP POP SWAP4 SWAP3 POP POP POP JUMP JUMPDEST DUP2 MLOAD PUSH2 0x24D7 DUP4 DUP4 PUSH2 0x214B JUMP JUMPDEST POP PUSH2 0x6E0 DUP4 DUP3 PUSH2 0x22D8 JUMP JUMPDEST PUSH1 0x40 MLOAD DUP1 PUSH1 0x40 ADD PUSH1 0x40 MSTORE DUP1 PUSH2 0x2509 PUSH1 0x40 MLOAD DUP1 PUSH1 0x40 ADD PUSH1 0x40 MSTORE DUP1 PUSH1 0x60 DUP2 MSTORE PUSH1 0x20 ADD PUSH0 DUP2 MSTORE POP SWAP1 JUMP JUMPDEST DUP2 MSTORE PUSH1 0x20 ADD PUSH0 DUP2 MSTORE POP SWAP1 JUMP JUMPDEST PUSH4 0x4E487B71 PUSH1 0xE0 SHL PUSH0 MSTORE PUSH1 0x41 PUSH1 0x4 MSTORE PUSH1 0x24 PUSH0 REVERT JUMPDEST PUSH0 DUP3 PUSH1 0x1F DUP4 ADD SLT PUSH2 0x2538 JUMPI PUSH0 PUSH0 REVERT JUMPDEST DUP2 CALLDATALOAD PUSH1 0x20 DUP4 ADD PUSH0 PUSH0 PUSH1 0x1 PUSH1 0x1 PUSH1 0x40 SHL SUB DUP5 GT ISZERO PUSH2 0x2557 JUMPI PUSH2 0x2557 PUSH2 0x2515 JUMP JUMPDEST POP PUSH1 0x40 MLOAD PUSH1 0x1F NOT PUSH1 0x1F DUP6 ADD DUP2 AND PUSH1 0x3F ADD AND DUP2 ADD DUP2 DUP2 LT PUSH1 0x1 PUSH1 0x1 PUSH1 0x40 SHL SUB DUP3 GT OR ISZERO PUSH2 0x2585 JUMPI PUSH2 0x2585 PUSH2 0x2515 JUMP JUMPDEST PUSH1 0x40 MSTORE DUP4 DUP2 MSTORE SWAP1 POP DUP1 DUP3 DUP5 ADD DUP8 LT ISZERO PUSH2 0x259C JUMPI PUSH0 PUSH0 REVERT JUMPDEST DUP4 DUP4 PUSH1 0x20 DUP4 ADD CALLDATACOPY PUSH0 PUSH1 0x20 DUP6 DUP4 ADD ADD MSTORE DUP1 SWAP5 POP POP POP POP POP SWAP3 SWAP2 POP POP JUMP JUMPDEST PUSH0 PUSH1 0x20 DUP3 DUP5 SUB SLT ISZERO PUSH2 0x25C8 JUMPI PUSH0 PUSH0 REVERT JUMPDEST DUP2 CALLDATALOAD PUSH1 0x1 PUSH1 0x1 PUSH1 0x40 SHL SUB DUP2 GT ISZERO PUSH2 0x25DD JUMPI PUSH0 PUSH0 REVERT JUMPDEST PUSH2 0x1FA4 DUP5 DUP3 DUP6 ADD PUSH2 0x2529 JUMP JUMPDEST PUSH1 0x1 PUSH1 0x1 PUSH1 0xE0 SHL SUB NOT DUP2 AND DUP2 EQ PUSH2 0xD39 JUMPI PUSH0 PUSH0 REVERT JUMPDEST PUSH0 PUSH1 0x20 DUP3 DUP5 SUB SLT ISZERO PUSH2 0x260E JUMPI PUSH0 PUSH0 REVERT JUMPDEST DUP2 CALLDATALOAD PUSH2 0x22F8 DUP2 PUSH2 0x25E9 JUMP JUMPDEST PUSH0 DUP2 MLOAD DUP1 DUP5 MSTORE DUP1 PUSH1 0x20 DUP5 ADD PUSH1 0x20 DUP7 ADD MCOPY PUSH0 PUSH1 0x20 DUP3 DUP7 ADD ADD MSTORE PUSH1 0x20 PUSH1 0x1F NOT PUSH1 0x1F DUP4 ADD AND DUP6 ADD ADD SWAP2 POP POP SWAP3 SWAP2 POP POP JUMP JUMPDEST PUSH1 0x20 DUP2 MSTORE PUSH0 PUSH2 0x22F8 PUSH1 0x20 DUP4 ADD DUP5 PUSH2 0x2619 JUMP JUMPDEST PUSH0 PUSH1 0x20 DUP3 DUP5 SUB SLT ISZERO PUSH2 0x2669 JUMPI PUSH0 PUSH0 REVERT JUMPDEST POP CALLDATALOAD SWAP2 SWAP1 POP JUMP JUMPDEST DUP1 CALLDATALOAD PUSH1 0x1 PUSH1 0x1 PUSH1 0xA0 SHL SUB DUP2 AND DUP2 EQ PUSH2 0x2686 JUMPI PUSH0 PUSH0 REVERT JUMPDEST SWAP2 SWAP1 POP JUMP JUMPDEST PUSH0 PUSH0 PUSH1 0x40 DUP4 DUP6 SUB SLT ISZERO PUSH2 0x269C JUMPI PUSH0 PUSH0 REVERT JUMPDEST PUSH2 0x26A5 DUP4 PUSH2 0x2670 JUMP JUMPDEST SWAP5 PUSH1 0x20 SWAP4 SWAP1 SWAP4 ADD CALLDATALOAD SWAP4 POP POP POP JUMP JUMPDEST PUSH0 PUSH0 PUSH0 PUSH1 0x60 DUP5 DUP7 SUB SLT ISZERO PUSH2 0x26C5 JUMPI PUSH0 PUSH0 REVERT JUMPDEST DUP4 CALLDATALOAD SWAP3 POP PUSH1 0x20 DUP5 ADD CALLDATALOAD PUSH1 0x1 PUSH1 0x1 PUSH1 0x40 SHL SUB DUP2 GT ISZERO PUSH2 0x26E1 JUMPI PUSH0 PUSH0 REVERT JUMPDEST PUSH2 0x26ED DUP7 DUP3 DUP8 ADD PUSH2 0x2529 JUMP JUMPDEST SWAP3 POP POP PUSH1 0x40 DUP5 ADD CALLDATALOAD PUSH1 0x1 PUSH1 0x1 PUSH1 0x40 SHL SUB DUP2 GT ISZERO PUSH2 0x2708 JUMPI PUSH0 PUSH0 REVERT JUMPDEST PUSH2 0x2714 DUP7 DUP3 DUP8 ADD PUSH2 0x2529 JUMP JUMPDEST SWAP2 POP POP SWAP3 POP SWAP3 POP SWAP3 JUMP JUMPDEST PUSH0 PUSH0 PUSH1 0x40 DUP4 DUP6 SUB SLT ISZERO PUSH2 0x272F JUMPI PUSH0 PUSH0 REVERT JUMPDEST POP POP DUP1 CALLDATALOAD SWAP3 PUSH1 0x20 SWAP1 SWAP2 ADD CALLDATALOAD SWAP2 POP JUMP JUMPDEST PUSH0 PUSH0 PUSH0 PUSH1 0x60 DUP5 DUP7 SUB SLT ISZERO PUSH2 0x2750 JUMPI PUSH0 PUSH0 REVERT JUMPDEST PUSH2 0x2759 DUP5 PUSH2 0x2670 JUMP JUMPDEST SWAP3 POP PUSH2 0x2767 PUSH1 0x20 DUP6 ADD PUSH2 0x2670 JUMP JUMPDEST SWAP3 SWAP6 SWAP3 SWAP5 POP POP POP PUSH1 0x40 SWAP2 SWAP1 SWAP2 ADD CALLDATALOAD SWAP1 JUMP JUMPDEST PUSH0 PUSH0 PUSH1 0x20 DUP4 DUP6 SUB SLT ISZERO PUSH2 0x2789 JUMPI PUSH0 PUSH0 REVERT JUMPDEST DUP3 CALLDATALOAD PUSH1 0x1 PUSH1 0x1 PUSH1 0x40 SHL SUB DUP2 GT ISZERO PUSH2 0x279E JUMPI PUSH0 PUSH0 REVERT JUMPDEST DUP4 ADD PUSH1 0x1F DUP2 ADD DUP6 SGT PUSH2 0x27AE JUMPI PUSH0 PUSH0 REVERT JUMPDEST DUP1 CALLDATALOAD PUSH1 0x1 PUSH1 0x1 PUSH1 0x40 SHL SUB DUP2 GT ISZERO PUSH2 0x27C3 JUMPI PUSH0 PUSH0 REVERT JUMPDEST DUP6 PUSH1 0x20 DUP3 DUP5 ADD ADD GT ISZERO PUSH2 0x27D4 JUMPI PUSH0 PUSH0 REVERT JUMPDEST PUSH1 0x20 SWAP2 SWAP1 SWAP2 ADD SWAP6 SWAP1 SWAP5 POP SWAP3 POP POP POP JUMP JUMPDEST DUP3 ISZERO ISZERO DUP2 MSTORE PUSH1 0x40 PUSH1 0x20 DUP3 ADD MSTORE PUSH0 PUSH2 0x1FA4 PUSH1 0x40 DUP4 ADD DUP5 PUSH2 0x2619 JUMP JUMPDEST PUSH0 PUSH1 0x20 DUP3 DUP5 SUB SLT ISZERO PUSH2 0x280E JUMPI PUSH0 PUSH0 REVERT JUMPDEST PUSH2 0x22F8 DUP3 PUSH2 0x2670 JUMP JUMPDEST PUSH0 PUSH0 PUSH1 0x40 DUP4 DUP6 SUB SLT ISZERO PUSH2 0x2828 JUMPI PUSH0 PUSH0 REVERT JUMPDEST PUSH2 0x2831 DUP4 PUSH2 0x2670 JUMP JUMPDEST SWAP2 POP PUSH1 0x20 DUP4 ADD CALLDATALOAD DUP1 ISZERO ISZERO DUP2 EQ PUSH2 0x2845 JUMPI PUSH0 PUSH0 REVERT JUMPDEST DUP1 SWAP2 POP POP SWAP3 POP SWAP3 SWAP1 POP JUMP JUMPDEST PUSH1 0xE0 DUP2 MSTORE PUSH0 PUSH2 0x2862 PUSH1 0xE0 DUP4 ADD DUP11 PUSH2 0x2619 JUMP JUMPDEST DUP3 DUP2 SUB PUSH1 0x20 DUP5 ADD MSTORE PUSH2 0x2874 DUP2 DUP11 PUSH2 0x2619 JUMP JUMPDEST SWAP1 POP PUSH1 0x1 PUSH1 0x1 PUSH1 0x40 SHL SUB DUP9 AND PUSH1 0x40 DUP5 ADD MSTORE PUSH1 0x1 PUSH1 0x1 PUSH1 0x40 SHL SUB DUP8 AND PUSH1 0x60 DUP5 ADD MSTORE PUSH1 0x1 PUSH1 0x1 PUSH1 0x40 SHL SUB DUP7 AND PUSH1 0x80 DUP5 ADD MSTORE PUSH1 0x1 PUSH1 0x1 PUSH1 0x40 SHL SUB DUP6 AND PUSH1 0xA0 DUP5 ADD MSTORE DUP3 DUP2 SUB PUSH1 0xC0 DUP5 ADD MSTORE PUSH2 0x28C4 DUP2 DUP6 PUSH2 0x2619 JUMP JUMPDEST SWAP11 SWAP10 POP POP POP POP POP POP POP POP POP POP JUMP JUMPDEST PUSH0 PUSH0 PUSH0 PUSH0 PUSH1 0x80 DUP6 DUP8 SUB SLT ISZERO PUSH2 0x28E5 JUMPI PUSH0 PUSH0 REVERT JUMPDEST PUSH2 0x28EE DUP6 PUSH2 0x2670 JUMP JUMPDEST SWAP4 POP PUSH2 0x28FC PUSH1 0x20 DUP7 ADD PUSH2 0x2670 JUMP JUMPDEST SWAP3 POP PUSH1 0x40 DUP6 ADD CALLDATALOAD SWAP2 POP PUSH1 0x60 DUP6 ADD CALLDATALOAD PUSH1 0x1 PUSH1 0x1 PUSH1 0x40 SHL SUB DUP2 GT ISZERO PUSH2 0x291D JUMPI PUSH0 PUSH0 REVERT JUMPDEST PUSH2 0x2929 DUP8 DUP3 DUP9 ADD PUSH2 0x2529 JUMP JUMPDEST SWAP2 POP POP SWAP3 SWAP6 SWAP2 SWAP5 POP SWAP3 POP JUMP JUMPDEST PUSH0 PUSH0 PUSH1 0x40 DUP4 DUP6 SUB SLT ISZERO PUSH2 0x2946 JUMPI PUSH0 PUSH0 REVERT JUMPDEST PUSH2 0x294F DUP4 PUSH2 0x2670 JUMP JUMPDEST SWAP2 POP PUSH2 0x295D PUSH1 0x20 DUP5 ADD PUSH2 0x2670 JUMP JUMPDEST SWAP1 POP SWAP3 POP SWAP3 SWAP1 POP JUMP JUMPDEST PUSH0 PUSH0 PUSH0 PUSH1 0x60 DUP5 DUP7 SUB SLT ISZERO PUSH2 0x2978 JUMPI PUSH0 PUSH0 REVERT JUMPDEST PUSH2 0x2981 DUP5 PUSH2 0x2670 JUMP JUMPDEST SWAP3 POP PUSH1 0x20 DUP5 ADD CALLDATALOAD PUSH1 0x1 PUSH1 0x1 PUSH1 0x40 SHL SUB DUP2 GT ISZERO PUSH2 0x26E1 JUMPI PUSH0 PUSH0 REVERT JUMPDEST PUSH1 0x1 DUP2 DUP2 SHR SWAP1 DUP3 AND DUP1 PUSH2 0x29AF JUMPI PUSH1 0x7F DUP3 AND SWAP2 POP JUMPDEST PUSH1 0x20 DUP3 LT DUP2 SUB PUSH2 0x29CD JUMPI PUSH4 0x4E487B71 PUSH1 0xE0 SHL PUSH0 MSTORE PUSH1 0x22 PUSH1 0x4 MSTORE PUSH1 0x24 PUSH0 REVERT JUMPDEST POP SWAP2 SWAP1 POP JUMP JUMPDEST PUSH1 0x1F DUP3 GT ISZERO PUSH2 0x700 JUMPI DUP3 DUP3 GT ISZERO PUSH2 0x700 JUMPI DUP1 PUSH0 MSTORE PUSH1 0x20 PUSH0 KECCAK256 PUSH1 0x1F DUP5 ADD PUSH1 0x5 SHR PUSH1 0x20 DUP6 LT ISZERO PUSH2 0x29FE JUMPI POP PUSH0 JUMPDEST SWAP1 DUP2 ADD SWAP1 PUSH1 0x1F DUP5 ADD PUSH1 0x5 SHR SUB PUSH0 JUMPDEST DUP2 DUP2 LT ISZERO PUSH2 0x13B7 JUMPI PUSH0 DUP4 DUP3 ADD SSTORE PUSH1 0x1 ADD PUSH2 0x2A0C JUMP JUMPDEST DUP2 MLOAD PUSH1 0x1 PUSH1 0x1 PUSH1 0x40 SHL SUB DUP2 GT ISZERO PUSH2 0x2A3A JUMPI PUSH2 0x2A3A PUSH2 0x2515 JUMP JUMPDEST PUSH2 0x2A4E DUP2 PUSH2 0x2A48 DUP5 SLOAD PUSH2 0x299B JUMP JUMPDEST DUP5 PUSH2 0x29D3 JUMP JUMPDEST PUSH1 0x20 PUSH1 0x1F DUP3 GT PUSH1 0x1 DUP2 EQ PUSH2 0x2A80 JUMPI PUSH0 DUP4 ISZERO PUSH2 0x2A69 JUMPI POP DUP5 DUP3 ADD MLOAD JUMPDEST PUSH0 NOT PUSH1 0x3 DUP6 SWAP1 SHL SHR NOT AND PUSH1 0x1 DUP5 SWAP1 SHL OR DUP5 SSTORE PUSH2 0x13B9 JUMP JUMPDEST PUSH0 DUP5 DUP2 MSTORE PUSH1 0x20 DUP2 KECCAK256 PUSH1 0x1F NOT DUP6 AND SWAP2 JUMPDEST DUP3 DUP2 LT ISZERO PUSH2 0x2AAF JUMPI DUP8 DUP6 ADD MLOAD DUP3 SSTORE PUSH1 0x20 SWAP5 DUP6 ADD SWAP5 PUSH1 0x1 SWAP1 SWAP3 ADD SWAP2 ADD PUSH2 0x2A8F JUMP JUMPDEST POP DUP5 DUP3 LT ISZERO PUSH2 0x2ACC JUMPI DUP7 DUP5 ADD MLOAD PUSH0 NOT PUSH1 0x3 DUP8 SWAP1 SHL PUSH1 0xF8 AND SHR NOT AND DUP2 SSTORE JUMPDEST POP POP POP POP PUSH1 0x1 SWAP1 DUP2 SHL ADD SWAP1 SSTORE POP JUMP JUMPDEST PUSH4 0x4E487B71 PUSH1 0xE0 SHL PUSH0 MSTORE PUSH1 0x11 PUSH1 0x4 MSTORE PUSH1 0x24 PUSH0 REVERT JUMPDEST DUP2 DUP2 SUB DUP2 DUP2 GT ISZERO PUSH2 0x46F JUMPI PUSH2 0x46F PUSH2 0x2ADB JUMP JUMPDEST PUSH0 DUP2 MLOAD DUP1 PUSH1 0x20 DUP5 ADD DUP6 MCOPY PUSH0 SWAP4 ADD SWAP3 DUP4 MSTORE POP SWAP1 SWAP2 SWAP1 POP JUMP JUMPDEST PUSH32 0x7B226E616D65223A20224B61727475204E6F6E2D4F7074696D697A6564202300 DUP2 MSTORE PUSH0 PUSH2 0x2B4A PUSH1 0x1F DUP4 ADD DUP6 PUSH2 0x2B02 JUMP JUMPDEST PUSH3 0x11161 PUSH1 0xED SHL DUP2 MSTORE PUSH32 0x226465736372697074696F6E223A20224B6172747520644E4654204D504C2028 PUSH1 0x3 DUP3 ADD MSTORE PUSH32 0x4D6F64656C2041292E204D656E6767756E616B616E206D656D6F726920537461 PUSH1 0x23 DUP3 ADD MSTORE PUSH32 0x74652053746F72616765207365636172612070656E756820756E74756B207065 PUSH1 0x43 DUP3 ADD MSTORE PUSH18 0x36B13AB5BA34B0B7103934B9B2BA1711161 PUSH1 0x75 SHL PUSH1 0x63 DUP3 ADD MSTORE PUSH32 0x22696D616765223A2022646174613A696D6167652F7376672B786D6C3B626173 PUSH1 0x75 DUP3 ADD MSTORE PUSH4 0x194D8D0B PUSH1 0xE2 SHL PUSH1 0x95 DUP3 ADD MSTORE PUSH2 0x2C20 PUSH1 0x99 DUP3 ADD DUP6 PUSH2 0x2B02 JUMP JUMPDEST PUSH2 0x227D PUSH1 0xF0 SHL DUP2 MSTORE PUSH1 0x2 ADD SWAP6 SWAP5 POP POP POP POP POP JUMP JUMPDEST PUSH32 0x646174613A6170706C69636174696F6E2F6A736F6E3B6261736536342C000000 DUP2 MSTORE PUSH0 PUSH2 0x22F8 PUSH1 0x1D DUP4 ADD DUP5 PUSH2 0x2B02 JUMP JUMPDEST PUSH0 PUSH1 0x1 DUP3 ADD PUSH2 0x2C76 JUMPI PUSH2 0x2C76 PUSH2 0x2ADB JUMP JUMPDEST POP PUSH1 0x1 ADD SWAP1 JUMP JUMPDEST PUSH0 PUSH1 0x20 DUP3 DUP5 SUB SLT ISZERO PUSH2 0x2C8D JUMPI PUSH0 PUSH0 REVERT JUMPDEST POP MLOAD SWAP2 SWAP1 POP JUMP JUMPDEST PUSH4 0x4E487B71 PUSH1 0xE0 SHL PUSH0 MSTORE PUSH1 0x32 PUSH1 0x4 MSTORE PUSH1 0x24 PUSH0 REVERT JUMPDEST PUSH1 0x1 PUSH1 0x1 PUSH1 0xA0 SHL SUB DUP6 DUP2 AND DUP3 MSTORE DUP5 AND PUSH1 0x20 DUP3 ADD MSTORE PUSH1 0x40 DUP2 ADD DUP4 SWAP1 MSTORE PUSH1 0x80 PUSH1 0x60 DUP3 ADD DUP2 SWAP1 MSTORE PUSH0 SWAP1 PUSH2 0x2CDA SWAP1 DUP4 ADD DUP5 PUSH2 0x2619 JUMP JUMPDEST SWAP7 SWAP6 POP POP POP POP POP POP JUMP JUMPDEST PUSH0 PUSH1 0x20 DUP3 DUP5 SUB SLT ISZERO PUSH2 0x2CF4 JUMPI PUSH0 PUSH0 REVERT JUMPDEST DUP2 MLOAD PUSH2 0x22F8 DUP2 PUSH2 0x25E9 JUMP JUMPDEST PUSH4 0x4E487B71 PUSH1 0xE0 SHL PUSH0 MSTORE PUSH1 0x12 PUSH1 0x4 MSTORE PUSH1 0x24 PUSH0 REVERT JUMPDEST DUP1 DUP3 ADD DUP1 DUP3 GT ISZERO PUSH2 0x46F JUMPI PUSH2 0x46F PUSH2 0x2ADB JUMP JUMPDEST DUP1 DUP3 MUL DUP2 ISZERO DUP3 DUP3 DIV DUP5 EQ OR PUSH2 0x46F JUMPI PUSH2 0x46F PUSH2 0x2ADB JUMP JUMPDEST PUSH0 DUP3 PUSH2 0x2D4B JUMPI PUSH2 0x2D4B PUSH2 0x2CFF JUMP JUMPDEST POP DIV SWAP1 JUMP JUMPDEST PUSH0 DUP3 PUSH2 0x2D5E JUMPI PUSH2 0x2D5E PUSH2 0x2CFF JUMP JUMPDEST POP MOD SWAP1 JUMP JUMPDEST PUSH0 PUSH2 0x2D6E DUP3 DUP6 PUSH2 0x2B02 JUMP JUMPDEST PUSH1 0x17 PUSH1 0xF9 SHL DUP2 MSTORE PUSH2 0x2D82 PUSH1 0x1 DUP3 ADD DUP6 PUSH2 0x2B02 JUMP JUMPDEST SWAP6 SWAP5 POP POP POP POP POP JUMP JUMPDEST PUSH32 0x3C7376672077696474683D2233323022206865696768743D2234303022207669 DUP2 MSTORE PUSH32 0x6577426F783D2230203020333230203430302220786D6C6E733D22687474703A PUSH1 0x20 DUP3 ADD MSTORE PUSH32 0x2F2F7777772E77332E6F72672F323030302F737667223E000000000000000000 PUSH1 0x40 DUP3 ADD MSTORE PUSH32 0x3C672073686170652D72656E646572696E673D2263726973704564676573223E PUSH1 0x57 DUP3 ADD MSTORE PUSH32 0x3C7265637420783D22302220793D2230222077696474683D2233323022206865 PUSH1 0x77 DUP3 ADD MSTORE PUSH32 0x696768743D22343030222066696C6C3D2223313531353135222F3E3C72656374 PUSH1 0x97 DUP3 ADD MSTORE PUSH32 0x20783D22382220793D2238222077696474683D2233303422206865696768743D PUSH1 0xB7 DUP3 ADD MSTORE PUSH32 0x22333834222066696C6C3D2223303232663532222F3E3C7465787420783D2231 PUSH1 0xD7 DUP3 ADD MSTORE PUSH32 0x36302220793D223430222066696C6C3D22236563663066312220666F6E742D73 PUSH1 0xF7 DUP3 ADD MSTORE PUSH32 0x697A653D2232302220746578742D616E63686F723D226D6964646C652220666F PUSH2 0x117 DUP3 ADD MSTORE PUSH32 0x6E742D7765696768743D22626F6C64223E504C4159455220434152443C2F7465 PUSH2 0x137 DUP3 ADD MSTORE PUSH32 0x78743E3C6C696E652078313D223230222079313D223535222078323D22333030 PUSH2 0x157 DUP3 ADD MSTORE PUSH32 0x222079323D22353522207374726F6B653D222365636630663122207374726F6B PUSH2 0x177 DUP3 ADD MSTORE PUSH17 0x3296BBB4B23A341E911A11179F1E17B39F PUSH1 0x79 SHL PUSH2 0x197 DUP3 ADD MSTORE PUSH32 0x3C73766720783D2231302220793D223330222077696474683D22313430222068 PUSH2 0x1A8 DUP3 ADD MSTORE PUSH32 0x65696768743D22333830222076696577426F783D223020302033322033322220 PUSH2 0x1C8 DUP3 ADD MSTORE PUSH32 0x73686170652D72656E646572696E673D2263726973704564676573223E3C6720 PUSH2 0x1E8 DUP3 ADD MSTORE PUSH32 0x7472616E73666F726D3D227472616E736C6174652833322C203029207363616C PUSH2 0x208 DUP3 ADD MSTORE PUSH32 0x65282D312C203129223E3C706174682066696C6C3D2223303030303030222064 PUSH2 0x228 DUP3 ADD MSTORE PUSH32 0x3D224D3131203268313076314831317A204D3920336832763148397A204D3231 PUSH2 0x248 DUP3 ADD MSTORE PUSH32 0x2033683276314832317A204D3820346831763148387A204D3233203468317631 PUSH2 0x268 DUP3 ADD MSTORE PUSH32 0x4832337A204D3820356831763148387A204D32342035683176314832347A204D PUSH2 0x288 DUP3 ADD MSTORE PUSH32 0x3820366831763148387A204D32342036683176314832347A204D382037683176 PUSH2 0x2A8 DUP3 ADD MSTORE PUSH32 0x3148387A204D32342037683176314832347A204D3820386831763148387A204D PUSH2 0x2C8 DUP3 ADD MSTORE PUSH32 0x32342038683176314832347A204D3920396831763148397A204D323420396831 PUSH2 0x2E8 DUP3 ADD MSTORE PUSH32 0x76314832347A204D392031306831763148397A204D3233203130683176314832 PUSH2 0x308 DUP3 ADD MSTORE PUSH32 0x337A204D392031316831763148397A204D3132203131683276314831327A204D PUSH2 0x328 DUP3 ADD MSTORE PUSH32 0x3138203131683276314831387A204D3233203131683176314832337A204D3920 PUSH2 0x348 DUP3 ADD MSTORE PUSH32 0x31326831763148397A204D3233203132683176314832337A204D313020313368 PUSH2 0x368 DUP3 ADD MSTORE PUSH32 0x3176314831307A204D3232203133683176314832327A204D3130203134683176 PUSH2 0x388 DUP3 ADD MSTORE PUSH32 0x314831307A204D3232203134683176314832327A204D31302031356831763148 PUSH2 0x3A8 DUP3 ADD MSTORE PUSH32 0x31307A204D3232203135683176314832327A204D313120313668317631483131 PUSH2 0x3C8 DUP3 ADD MSTORE PUSH32 0x7A204D3231203136683176314832317A204D3131203137683176314831317A20 PUSH2 0x3E8 DUP3 ADD MSTORE PUSH32 0x4D3231203137683176314832317A204D3132203138683176314831327A204D32 PUSH2 0x408 DUP3 ADD MSTORE PUSH32 0x30203138683176314832307A204D3132203139683176314831327A204D323020 PUSH2 0x428 DUP3 ADD MSTORE PUSH32 0x3139683176314832307A204D3131203230683176314831317A204D3231203230 PUSH2 0x448 DUP3 ADD MSTORE PUSH32 0x683176314832317A204D392032316832763148397A204D323220323168327631 PUSH2 0x468 DUP3 ADD MSTORE PUSH32 0x4832327A204D372032326832763148377A204D3234203232683276314832347A PUSH2 0x488 DUP3 ADD MSTORE PUSH32 0x204D362032336831763148367A204D3236203233683176314832367A204D3520 PUSH2 0x4A8 DUP3 ADD MSTORE PUSH32 0x32346831763148357A204D3237203234683176314832377A204D342032356831 PUSH2 0x4C8 DUP3 ADD MSTORE PUSH32 0x763148347A204D3238203235683176314832387A204D33203236683176314833 PUSH2 0x4E8 DUP3 ADD MSTORE PUSH32 0x7A204D3239203236683176314832397A204D332032376831763148337A204D32 PUSH2 0x508 DUP3 ADD MSTORE PUSH32 0x39203237683176314832397A204D332032386831763148337A204D3239203238 PUSH2 0x528 DUP3 ADD MSTORE PUSH32 0x683176314832397A204D332032396831763148337A204D323920323968317631 PUSH2 0x548 DUP3 ADD MSTORE PUSH32 0x4832397A204D332033306831763148337A204D3239203330683176314832397A PUSH2 0x568 DUP3 ADD MSTORE PUSH32 0x204D33203331683237763148337A22202F3E3C706174682066696C6C3D222330 PUSH2 0x588 DUP3 ADD MSTORE PUSH32 0x30303030302220643D224D3131203368313076314831317A204D392034683134 PUSH2 0x5A8 DUP3 ADD MSTORE PUSH32 0x763148397A204D392035683135763148397A204D392036683135763148397A20 PUSH2 0x5C8 DUP3 ADD MSTORE PUSH32 0x4D392037683135763148397A204D3920386833763148397A204D323020386834 PUSH2 0x5E8 DUP3 ADD MSTORE PUSH32 0x76314832307A204D31302039683276314831307A204D32322039683276314832 PUSH2 0x608 DUP3 ADD MSTORE PUSH32 0x327A204D3130203130683176314831307A204D3232203130683176314832327A PUSH2 0x628 DUP3 ADD MSTORE PUSH32 0x22202F3E3C706174682066696C6C3D22236534623539302220643D224D313220 PUSH2 0x648 DUP3 ADD MSTORE PUSH32 0x38683876314831327A204D3132203968313076314831327A204D313120313068 PUSH2 0x668 DUP3 ADD MSTORE PUSH32 0x313176314831317A204D3130203131683276314831307A204D31342031316834 PUSH2 0x688 DUP3 ADD MSTORE PUSH32 0x76314831347A204D3230203131683376314832307A204D313020313268313376 PUSH2 0x6A8 DUP3 ADD MSTORE PUSH32 0x314831307A204D3131203133683476314831317A204D31372031336835763148 PUSH2 0x6C8 DUP3 ADD MSTORE PUSH32 0x31377A204D313120313468313176314831317A204D3131203135683376314831 PUSH2 0x6E8 DUP3 ADD MSTORE PUSH32 0x317A204D3138203135683476314831387A204D3132203136683976314831327A PUSH2 0x708 DUP3 ADD MSTORE PUSH32 0x204D3132203137683976314831327A204D3133203138683776314831337A2220 PUSH2 0x728 DUP3 ADD MSTORE PUSH32 0x2F3E3C706174682066696C6C3D22236335393437332220643D224D3135203133 PUSH2 0x748 DUP3 ADD MSTORE PUSH32 0x683276314831357A204D3133203139683776314831337A204D31342032306835 PUSH2 0x768 DUP3 ADD MSTORE PUSH32 0x76314831347A22202F3E3C706174682066696C6C3D2223626436613466222064 PUSH2 0x788 DUP3 ADD MSTORE PUSH32 0x3D224D3134203135683476314831347A22202F3E3C706174682066696C6C3D22 PUSH2 0x7A8 DUP3 ADD MSTORE PUSH32 0x236666666666662220643D224D3132203230683276314831327A204D31392032 PUSH2 0x7C8 DUP3 ADD MSTORE PUSH32 0x30683276314831397A204D3131203231683376314831317A204D313920323168 PUSH2 0x7E8 DUP3 ADD MSTORE PUSH32 0x3376314831397A204D392032326834763148397A204D32302032326834763148 PUSH2 0x808 DUP3 ADD MSTORE PUSH32 0x32307A204D372032336835763148377A204D3231203233683576314832317A20 PUSH2 0x828 DUP3 ADD MSTORE PUSH32 0x4D362032346835763148367A204D3232203234683576314832327A204D352032 PUSH2 0x848 DUP3 ADD MSTORE PUSH32 0x356835763148357A204D3133203235683276314831337A204D31362032356832 PUSH2 0x868 DUP3 ADD MSTORE PUSH32 0x76314831367A204D3139203235683276314831397A204D323320323568357631 PUSH2 0x888 DUP3 ADD MSTORE PUSH32 0x4832337A204D342032366835763148347A204D3234203236683576314832347A PUSH2 0x8A8 DUP3 ADD MSTORE PUSH32 0x204D342032376834763148347A204D3235203237683476314832357A204D3420 PUSH2 0x8C8 DUP3 ADD MSTORE PUSH32 0x32386834763148347A204D3235203238683476314832357A204D342032396834 PUSH2 0x8E8 DUP3 ADD MSTORE PUSH32 0x763148347A204D3235203239683476314832357A204D36203330683276314836 PUSH2 0x908 DUP3 ADD MSTORE PUSH32 0x7A204D3235203330683276314832357A22202F3E3C706174682066696C6C3D22 PUSH2 0x928 DUP3 ADD MSTORE PUSH32 0x236566383131352220643D224D3134203231683576314831347A204D31332032 PUSH2 0x948 DUP3 ADD MSTORE PUSH32 0x32683776314831337A204D3132203233683976314831327A204D313120323468 PUSH2 0x968 DUP3 ADD MSTORE PUSH32 0x313176314831317A204D3130203235683376314831307A204D31352032356831 PUSH2 0x988 DUP3 ADD MSTORE PUSH32 0x76314831357A204D3138203235683176314831387A204D323120323568327631 PUSH2 0x9A8 DUP3 ADD MSTORE PUSH32 0x4832317A204D39203236683135763148397A204D38203237683137763148387A PUSH2 0x9C8 DUP3 ADD MSTORE PUSH32 0x204D38203238683137763148387A204D38203239683137763148387A204D3420 PUSH2 0x9E8 DUP3 ADD MSTORE PUSH32 0x33306832763148347A204D38203330683137763148387A204D32372033306832 PUSH2 0xA08 DUP3 ADD MSTORE PUSH20 0x3B18A4191BBD1110179F1E17B39F1E17B9BB339F PUSH1 0x61 SHL PUSH2 0xA28 DUP3 ADD MSTORE PUSH32 0x3C67207472616E73666F726D3D227472616E736C617465283138302C20313030 PUSH2 0xA3C DUP3 ADD MSTORE PUSH32 0x29222073686170652D72656E646572696E673D2263726973704564676573223E PUSH2 0xA5C DUP3 ADD MSTORE PUSH32 0x3C7465787420783D222D33302220793D223230222066696C6C3D222333343938 PUSH2 0xA7C DUP3 ADD MSTORE PUSH32 0x64622220666F6E742D73697A653D223134223E504C41594552204E414D453A3C PUSH2 0xA9C DUP3 ADD MSTORE PUSH32 0x2F746578743E3C7465787420783D222D33302220793D223530222066696C6C3D PUSH2 0xABC DUP3 ADD MSTORE PUSH32 0x22236563663066312220666F6E742D73697A653D2232342220666F6E742D7765 PUSH2 0xADC DUP3 ADD MSTORE PUSH12 0x34B3B43A1E913137B632111F PUSH1 0xA1 SHL PUSH2 0xAFC DUP3 ADD MSTORE PUSH0 PUSH2 0x3C5B PUSH2 0x3C55 PUSH2 0x3BAB PUSH2 0x3B27 PUSH2 0xB08 DUP7 ADD DUP14 PUSH2 0x2B02 JUMP JUMPDEST PUSH32 0x3C2F746578743E3C6C696E652078313D222D3235222079313D22373522207832 DUP2 MSTORE PUSH32 0x3D22313230222079323D22373522207374726F6B653D22233535352220737472 PUSH1 0x20 DUP3 ADD MSTORE PUSH32 0x6F6B652D77696474683D223422207374726F6B652D6461736861727261793D22 PUSH1 0x40 DUP3 ADD MSTORE PUSH6 0x1C161B11179F PUSH1 0xD1 SHL PUSH1 0x60 DUP3 ADD MSTORE PUSH1 0x66 ADD SWAP1 JUMP JUMPDEST PUSH32 0x3C7465787420783D222D33302220793D22313030222066696C6C3D2223656366 DUP2 MSTORE PUSH32 0x3066312220666F6E742D73697A653D223134223E4C414E453A3C2F746578743E PUSH1 0x20 DUP3 ADD MSTORE PUSH32 0x3C7465787420783D223132302220793D22313030222066696C6C3D2223656366 PUSH1 0x40 DUP3 ADD MSTORE PUSH32 0x3066312220666F6E742D73697A653D2231342220746578742D616E63686F723D PUSH1 0x60 DUP3 ADD MSTORE PUSH6 0x1132B732111F PUSH1 0xD1 SHL PUSH1 0x80 DUP3 ADD MSTORE PUSH1 0x86 ADD SWAP1 JUMP JUMPDEST DUP10 PUSH2 0x2B02 JUMP JUMPDEST PUSH7 0x1E17BA32BC3A1F PUSH1 0xC9 SHL DUP2 MSTORE PUSH32 0x3C7465787420783D222D33302220793D22313235222066696C6C3D2223656366 PUSH1 0x7 DUP3 ADD MSTORE PUSH32 0x3066312220666F6E742D73697A653D223134223E47414D453A3C2F746578743E PUSH1 0x27 DUP3 ADD MSTORE PUSH32 0x3C7465787420783D223132302220793D22313235222066696C6C3D2223656366 PUSH1 0x47 DUP3 ADD MSTORE PUSH32 0x3066312220666F6E742D73697A653D2231342220746578742D616E63686F723D PUSH1 0x67 DUP3 ADD MSTORE PUSH6 0x1132B732111F PUSH1 0xD1 SHL PUSH1 0x87 DUP3 ADD MSTORE PUSH2 0x3D1B PUSH1 0x8D DUP3 ADD PUSH2 0x3C55 JUMP JUMPDEST PUSH7 0x1E17BA32BC3A1F PUSH1 0xC9 SHL DUP2 MSTORE SWAP1 POP PUSH32 0x3C7465787420783D222D33302220793D22313530222066696C6C3D2223656366 PUSH1 0x7 DUP3 ADD MSTORE PUSH32 0x3066312220666F6E742D73697A653D223134223E4B494C4C533A3C2F74657874 PUSH1 0x27 DUP3 ADD MSTORE PUSH32 0x3E3C7465787420783D223132302220793D22313530222066696C6C3D22236563 PUSH1 0x47 DUP3 ADD MSTORE PUSH32 0x663066312220666F6E742D73697A653D2231342220746578742D616E63686F72 PUSH1 0x67 DUP3 ADD MSTORE PUSH7 0x1E9132B732111F PUSH1 0xC9 SHL PUSH1 0x87 DUP3 ADD MSTORE PUSH2 0x3DDF PUSH1 0x8E DUP3 ADD DUP9 PUSH2 0x2B02 JUMP JUMPDEST PUSH7 0x1E17BA32BC3A1F PUSH1 0xC9 SHL DUP2 MSTORE SWAP1 POP PUSH32 0x3C7465787420783D222D33302220793D22313735222066696C6C3D2223656366 PUSH1 0x7 DUP3 ADD MSTORE PUSH32 0x3066312220666F6E742D73697A653D223134223E4445415448533A3C2F746578 PUSH1 0x27 DUP3 ADD MSTORE PUSH32 0x743E3C7465787420783D223132302220793D22313735222066696C6C3D222365 PUSH1 0x47 DUP3 ADD MSTORE PUSH32 0x63663066312220666F6E742D73697A653D2231342220746578742D616E63686F PUSH1 0x67 DUP3 ADD MSTORE PUSH8 0x391E9132B732111F PUSH1 0xC1 SHL PUSH1 0x87 DUP3 ADD MSTORE PUSH2 0x3EA4 PUSH1 0x8F DUP3 ADD DUP8 PUSH2 0x2B02 JUMP JUMPDEST PUSH7 0x1E17BA32BC3A1F PUSH1 0xC9 SHL DUP2 MSTORE SWAP1 POP PUSH32 0x3C7465787420783D222D33302220793D22323030222066696C6C3D2223656366 PUSH1 0x7 DUP3 ADD MSTORE PUSH32 0x3066312220666F6E742D73697A653D223134223E415353495354533A3C2F7465 PUSH1 0x27 DUP3 ADD MSTORE PUSH32 0x78743E3C7465787420783D223132302220793D22323030222066696C6C3D2223 PUSH1 0x47 DUP3 ADD MSTORE PUSH32 0x6563663066312220666F6E742D73697A653D2231342220746578742D616E6368 PUSH1 0x67 DUP3 ADD MSTORE PUSH9 0x37B91E9132B732111F PUSH1 0xB9 SHL PUSH1 0x87 DUP3 ADD MSTORE PUSH2 0x3F6A PUSH1 0x90 DUP3 ADD DUP7 PUSH2 0x2B02 JUMP JUMPDEST PUSH7 0x1E17BA32BC3A1F PUSH1 0xC9 SHL DUP2 MSTORE SWAP1 POP PUSH32 0x3C7465787420783D222D33302220793D22323235222066696C6C3D2223656366 PUSH1 0x7 DUP3 ADD MSTORE PUSH32 0x3066312220666F6E742D73697A653D223134223E4B44413A3C2F746578743E3C PUSH1 0x27 DUP3 ADD MSTORE PUSH32 0x7465787420783D223132302220793D22323235222066696C6C3D222365636630 PUSH1 0x47 DUP3 ADD MSTORE PUSH32 0x66312220666F6E742D73697A653D2231342220746578742D616E63686F723D22 PUSH1 0x67 DUP3 ADD MSTORE PUSH5 0x32B732111F PUSH1 0xD9 SHL PUSH1 0x87 DUP3 ADD MSTORE PUSH2 0x402C PUSH1 0x8C DUP3 ADD DUP6 PUSH2 0x2B02 JUMP JUMPDEST PUSH7 0x1E17BA32BC3A1F PUSH1 0xC9 SHL DUP2 MSTORE SWAP1 POP PUSH32 0x3C6C696E652078313D222D3330222079313D22323430222078323D2231323022 PUSH1 0x7 DUP3 ADD MSTORE PUSH32 0x2079323D2232343022207374726F6B653D222335353522207374726F6B652D77 PUSH1 0x27 DUP3 ADD MSTORE PUSH32 0x696474683D223422207374726F6B652D6461736861727261793D22382C36222F PUSH1 0x47 DUP3 ADD MSTORE PUSH11 0x1F1E17B39F1E17B9BB339F PUSH1 0xA9 SHL PUSH1 0x67 DUP3 ADD MSTORE PUSH1 0x72 DUP2 ADD PUSH2 0x28C4 JUMP JUMPDEST PUSH4 0x4E487B71 PUSH1 0xE0 SHL PUSH0 MSTORE PUSH1 0x21 PUSH1 0x4 MSTORE PUSH1 0x24 PUSH0 REVERT JUMPDEST PUSH1 0x1 PUSH1 0x1 PUSH1 0x40 SHL SUB DUP7 AND DUP2 MSTORE PUSH1 0xA0 PUSH1 0x20 DUP3 ADD MSTORE PUSH0 PUSH2 0x40FF PUSH1 0xA0 DUP4 ADD DUP8 PUSH2 0x2619 JUMP JUMPDEST PUSH2 0xFFFF SWAP6 SWAP1 SWAP6 AND PUSH1 0x40 DUP4 ADD MSTORE POP PUSH4 0xFFFFFFFF SWAP3 SWAP1 SWAP3 AND PUSH1 0x60 DUP4 ADD MSTORE PUSH1 0x80 SWAP1 SWAP2 ADD MSTORE SWAP3 SWAP2 POP POP JUMP JUMPDEST PUSH1 0x1 DUP2 JUMPDEST PUSH1 0x1 DUP5 GT ISZERO PUSH2 0x4161 JUMPI DUP1 DUP6 DIV DUP2 GT ISZERO PUSH2 0x4145 JUMPI PUSH2 0x4145 PUSH2 0x2ADB JUMP JUMPDEST PUSH1 0x1 DUP5 AND ISZERO PUSH2 0x4153 JUMPI SWAP1 DUP2 MUL SWAP1 JUMPDEST PUSH1 0x1 SWAP4 SWAP1 SWAP4 SHR SWAP3 DUP1 MUL PUSH2 0x412A JUMP JUMPDEST SWAP4 POP SWAP4 SWAP2 POP POP JUMP JUMPDEST PUSH0 DUP3 PUSH2 0x4177 JUMPI POP PUSH1 0x1 PUSH2 0x46F JUMP JUMPDEST DUP2 PUSH2 0x4183 JUMPI POP PUSH0 PUSH2 0x46F JUMP JUMPDEST DUP2 PUSH1 0x1 DUP2 EQ PUSH2 0x4199 JUMPI PUSH1 0x2 DUP2 EQ PUSH2 0x41A3 JUMPI PUSH2 0x41BF JUMP JUMPDEST PUSH1 0x1 SWAP2 POP POP PUSH2 0x46F JUMP JUMPDEST PUSH1 0xFF DUP5 GT ISZERO PUSH2 0x41B4 JUMPI PUSH2 0x41B4 PUSH2 0x2ADB JUMP JUMPDEST POP POP PUSH1 0x1 DUP3 SHL PUSH2 0x46F JUMP JUMPDEST POP PUSH1 0x20 DUP4 LT PUSH2 0x133 DUP4 LT AND PUSH1 0x4E DUP5 LT PUSH1 0xB DUP5 LT AND OR ISZERO PUSH2 0x41E2 JUMPI POP DUP2 DUP2 EXP PUSH2 0x46F JUMP JUMPDEST PUSH2 0x41EE PUSH0 NOT DUP5 DUP5 PUSH2 0x4126 JUMP JUMPDEST DUP1 PUSH0 NOT DIV DUP3 GT ISZERO PUSH2 0x4201 JUMPI PUSH2 0x4201 PUSH2 0x2ADB JUMP JUMPDEST MUL SWAP4 SWAP3 POP POP POP JUMP JUMPDEST PUSH0 PUSH2 0x22F8 DUP4 DUP4 PUSH2 0x4169 JUMP INVALID LOG2 PUSH5 0x6970667358 0x22 SLT KECCAK256 ISZERO GT 0xEF ADDRESS SWAP3 TSTORE SHL MSTORE 0x2E SELFBALANCE SELFDESTRUCT 0xF7 0xC8 PUSH19 0x9DDF0FCCC227884C1C4726F62BB9C508AF6B64 PUSH20 0x6F6C634300082200330000000000000000000000 "
		},
		"gasEstimates": {
			"creation": {
				"codeDepositCost": "3394000",
				"executionCost": "infinite",
				"totalCost": "infinite"
			},
			"external": {
				"approve(address,uint256)": "31508",
				"balanceOf(address)": "2675",
				"checkUpkeep(bytes)": "infinite",
				"getApproved(uint256)": "infinite",
				"handleOracleFulfillment(bytes32,bytes,bytes)": "infinite",
				"interval()": "2383",
				"isApprovedForAll(address,address)": "infinite",
				"lastTimeStamp()": "2339",
				"name()": "infinite",
				"owner()": "2397",
				"ownerOf(uint256)": "infinite",
				"performUpkeep(bytes)": "infinite",
				"renounceOwnership()": "infinite",
				"s_playerData(uint256)": "infinite",
				"s_requestToTokenId(bytes32)": "2481",
				"safeMint(address,string,string)": "infinite",
				"safeTransferFrom(address,address,uint256)": "infinite",
				"safeTransferFrom(address,address,uint256,bytes)": "infinite",
				"setApprovalForAll(address,bool)": "26757",
				"setAutomationSettings(uint256,uint256)": "46688",
				"setSourceCode(string)": "infinite",
				"sourceCode()": "infinite",
				"subscriptionId()": "2426",
				"supportsInterface(bytes4)": "infinite",
				"symbol()": "infinite",
				"targetTokenIdToUpdate()": "2405",
				"tokenURI(uint256)": "infinite",
				"transferFrom(address,address,uint256)": "infinite",
				"transferOwnership(address)": "28443"
			},
			"internal": {
				"_buildFullSVG(uint256,uint64,uint64,uint64,uint64)": "infinite",
				"_requestStatsInternal(uint256,string memory)": "infinite",
				"fulfillRequest(bytes32,bytes memory,bytes memory)": "infinite"
			}
		},
		"methodIdentifiers": {
			"approve(address,uint256)": "095ea7b3",
			"balanceOf(address)": "70a08231",
			"checkUpkeep(bytes)": "6e04ff0d",
			"getApproved(uint256)": "081812fc",
			"handleOracleFulfillment(bytes32,bytes,bytes)": "0ca76175",
			"interval()": "947a36fb",
			"isApprovedForAll(address,address)": "e985e9c5",
			"lastTimeStamp()": "3f3b3b27",
			"name()": "06fdde03",
			"owner()": "8da5cb5b",
			"ownerOf(uint256)": "6352211e",
			"performUpkeep(bytes)": "4585e33b",
			"renounceOwnership()": "715018a6",
			"s_playerData(uint256)": "b4cfae44",
			"s_requestToTokenId(bytes32)": "68015a4b",
			"safeMint(address,string,string)": "eca81d42",
			"safeTransferFrom(address,address,uint256)": "42842e0e",
			"safeTransferFrom(address,address,uint256,bytes)": "b88d4fde",
			"setApprovalForAll(address,bool)": "a22cb465",
			"setAutomationSettings(uint256,uint256)": "22e817e2",
			"setSourceCode(string)": "00b46767",
			"sourceCode()": "13c60177",
			"subscriptionId()": "09c1ba2e",
			"supportsInterface(bytes4)": "01ffc9a7",
			"symbol()": "95d89b41",
			"targetTokenIdToUpdate()": "94881476",
			"tokenURI(uint256)": "c87b56dd",
			"transferFrom(address,address,uint256)": "23b872dd",
			"transferOwnership(address)": "f2fde38b"
		}
	},
	"abi": [
		{
			"inputs": [
				{
					"internalType": "uint64",
					"name": "_subscriptionId",
					"type": "uint64"
				}
			],
			"stateMutability": "nonpayable",
			"type": "constructor"
		},
		{
			"inputs": [
				{
					"internalType": "address",
					"name": "sender",
					"type": "address"
				},
				{
					"internalType": "uint256",
					"name": "tokenId",
					"type": "uint256"
				},
				{
					"internalType": "address",
					"name": "owner",
					"type": "address"
				}
			],
			"name": "ERC721IncorrectOwner",
			"type": "error"
		},
		{
			"inputs": [
				{
					"internalType": "address",
					"name": "operator",
					"type": "address"
				},
				{
					"internalType": "uint256",
					"name": "tokenId",
					"type": "uint256"
				}
			],
			"name": "ERC721InsufficientApproval",
			"type": "error"
		},
		{
			"inputs": [
				{
					"internalType": "address",
					"name": "approver",
					"type": "address"
				}
			],
			"name": "ERC721InvalidApprover",
			"type": "error"
		},
		{
			"inputs": [
				{
					"internalType": "address",
					"name": "operator",
					"type": "address"
				}
			],
			"name": "ERC721InvalidOperator",
			"type": "error"
		},
		{
			"inputs": [
				{
					"internalType": "address",
					"name": "owner",
					"type": "address"
				}
			],
			"name": "ERC721InvalidOwner",
			"type": "error"
		},
		{
			"inputs": [
				{
					"internalType": "address",
					"name": "receiver",
					"type": "address"
				}
			],
			"name": "ERC721InvalidReceiver",
			"type": "error"
		},
		{
			"inputs": [
				{
					"internalType": "address",
					"name": "sender",
					"type": "address"
				}
			],
			"name": "ERC721InvalidSender",
			"type": "error"
		},
		{
			"inputs": [
				{
					"internalType": "uint256",
					"name": "tokenId",
					"type": "uint256"
				}
			],
			"name": "ERC721NonexistentToken",
			"type": "error"
		},
		{
			"inputs": [],
			"name": "EmptyArgs",
			"type": "error"
		},
		{
			"inputs": [],
			"name": "EmptySource",
			"type": "error"
		},
		{
			"inputs": [],
			"name": "NoInlineSecrets",
			"type": "error"
		},
		{
			"inputs": [],
			"name": "OnlyRouterCanFulfill",
			"type": "error"
		},
		{
			"inputs": [
				{
					"internalType": "address",
					"name": "owner",
					"type": "address"
				}
			],
			"name": "OwnableInvalidOwner",
			"type": "error"
		},
		{
			"inputs": [
				{
					"internalType": "address",
					"name": "account",
					"type": "address"
				}
			],
			"name": "OwnableUnauthorizedAccount",
			"type": "error"
		},
		{
			"anonymous": false,
			"inputs": [
				{
					"indexed": true,
					"internalType": "address",
					"name": "owner",
					"type": "address"
				},
				{
					"indexed": true,
					"internalType": "address",
					"name": "approved",
					"type": "address"
				},
				{
					"indexed": true,
					"internalType": "uint256",
					"name": "tokenId",
					"type": "uint256"
				}
			],
			"name": "Approval",
			"type": "event"
		},
		{
			"anonymous": false,
			"inputs": [
				{
					"indexed": true,
					"internalType": "address",
					"name": "owner",
					"type": "address"
				},
				{
					"indexed": true,
					"internalType": "address",
					"name": "operator",
					"type": "address"
				},
				{
					"indexed": false,
					"internalType": "bool",
					"name": "approved",
					"type": "bool"
				}
			],
			"name": "ApprovalForAll",
			"type": "event"
		},
		{
			"anonymous": false,
			"inputs": [
				{
					"indexed": false,
					"internalType": "uint256",
					"name": "_fromTokenId",
					"type": "uint256"
				},
				{
					"indexed": false,
					"internalType": "uint256",
					"name": "_toTokenId",
					"type": "uint256"
				}
			],
			"name": "BatchMetadataUpdate",
			"type": "event"
		},
		{
			"anonymous": false,
			"inputs": [
				{
					"indexed": false,
					"internalType": "uint256",
					"name": "_tokenId",
					"type": "uint256"
				}
			],
			"name": "MetadataUpdate",
			"type": "event"
		},
		{
			"anonymous": false,
			"inputs": [
				{
					"indexed": true,
					"internalType": "address",
					"name": "previousOwner",
					"type": "address"
				},
				{
					"indexed": true,
					"internalType": "address",
					"name": "newOwner",
					"type": "address"
				}
			],
			"name": "OwnershipTransferred",
			"type": "event"
		},
		{
			"anonymous": false,
			"inputs": [
				{
					"indexed": true,
					"internalType": "bytes32",
					"name": "id",
					"type": "bytes32"
				}
			],
			"name": "RequestFulfilled",
			"type": "event"
		},
		{
			"anonymous": false,
			"inputs": [
				{
					"indexed": true,
					"internalType": "bytes32",
					"name": "id",
					"type": "bytes32"
				}
			],
			"name": "RequestSent",
			"type": "event"
		},
		{
			"anonymous": false,
			"inputs": [
				{
					"indexed": true,
					"internalType": "address",
					"name": "from",
					"type": "address"
				},
				{
					"indexed": true,
					"internalType": "address",
					"name": "to",
					"type": "address"
				},
				{
					"indexed": true,
					"internalType": "uint256",
					"name": "tokenId",
					"type": "uint256"
				}
			],
			"name": "Transfer",
			"type": "event"
		},
		{
			"inputs": [
				{
					"internalType": "address",
					"name": "to",
					"type": "address"
				},
				{
					"internalType": "uint256",
					"name": "tokenId",
					"type": "uint256"
				}
			],
			"name": "approve",
			"outputs": [],
			"stateMutability": "nonpayable",
			"type": "function"
		},
		{
			"inputs": [
				{
					"internalType": "address",
					"name": "owner",
					"type": "address"
				}
			],
			"name": "balanceOf",
			"outputs": [
				{
					"internalType": "uint256",
					"name": "",
					"type": "uint256"
				}
			],
			"stateMutability": "view",
			"type": "function"
		},
		{
			"inputs": [
				{
					"internalType": "bytes",
					"name": "",
					"type": "bytes"
				}
			],
			"name": "checkUpkeep",
			"outputs": [
				{
					"internalType": "bool",
					"name": "upkeepNeeded",
					"type": "bool"
				},
				{
					"internalType": "bytes",
					"name": "performData",
					"type": "bytes"
				}
			],
			"stateMutability": "view",
			"type": "function"
		},
		{
			"inputs": [
				{
					"internalType": "uint256",
					"name": "tokenId",
					"type": "uint256"
				}
			],
			"name": "getApproved",
			"outputs": [
				{
					"internalType": "address",
					"name": "",
					"type": "address"
				}
			],
			"stateMutability": "view",
			"type": "function"
		},
		{
			"inputs": [
				{
					"internalType": "bytes32",
					"name": "requestId",
					"type": "bytes32"
				},
				{
					"internalType": "bytes",
					"name": "response",
					"type": "bytes"
				},
				{
					"internalType": "bytes",
					"name": "err",
					"type": "bytes"
				}
			],
			"name": "handleOracleFulfillment",
			"outputs": [],
			"stateMutability": "nonpayable",
			"type": "function"
		},
		{
			"inputs": [],
			"name": "interval",
			"outputs": [
				{
					"internalType": "uint256",
					"name": "",
					"type": "uint256"
				}
			],
			"stateMutability": "view",
			"type": "function"
		},
		{
			"inputs": [
				{
					"internalType": "address",
					"name": "owner",
					"type": "address"
				},
				{
					"internalType": "address",
					"name": "operator",
					"type": "address"
				}
			],
			"name": "isApprovedForAll",
			"outputs": [
				{
					"internalType": "bool",
					"name": "",
					"type": "bool"
				}
			],
			"stateMutability": "view",
			"type": "function"
		},
		{
			"inputs": [],
			"name": "lastTimeStamp",
			"outputs": [
				{
					"internalType": "uint256",
					"name": "",
					"type": "uint256"
				}
			],
			"stateMutability": "view",
			"type": "function"
		},
		{
			"inputs": [],
			"name": "name",
			"outputs": [
				{
					"internalType": "string",
					"name": "",
					"type": "string"
				}
			],
			"stateMutability": "view",
			"type": "function"
		},
		{
			"inputs": [],
			"name": "owner",
			"outputs": [
				{
					"internalType": "address",
					"name": "",
					"type": "address"
				}
			],
			"stateMutability": "view",
			"type": "function"
		},
		{
			"inputs": [
				{
					"internalType": "uint256",
					"name": "tokenId",
					"type": "uint256"
				}
			],
			"name": "ownerOf",
			"outputs": [
				{
					"internalType": "address",
					"name": "",
					"type": "address"
				}
			],
			"stateMutability": "view",
			"type": "function"
		},
		{
			"inputs": [
				{
					"internalType": "bytes",
					"name": "",
					"type": "bytes"
				}
			],
			"name": "performUpkeep",
			"outputs": [],
			"stateMutability": "nonpayable",
			"type": "function"
		},
		{
			"inputs": [],
			"name": "renounceOwnership",
			"outputs": [],
			"stateMutability": "nonpayable",
			"type": "function"
		},
		{
			"inputs": [
				{
					"internalType": "uint256",
					"name": "",
					"type": "uint256"
				}
			],
			"name": "s_playerData",
			"outputs": [
				{
					"internalType": "string",
					"name": "name",
					"type": "string"
				},
				{
					"internalType": "string",
					"name": "lane",
					"type": "string"
				},
				{
					"internalType": "uint64",
					"name": "games",
					"type": "uint64"
				},
				{
					"internalType": "uint64",
					"name": "kills",
					"type": "uint64"
				},
				{
					"internalType": "uint64",
					"name": "deaths",
					"type": "uint64"
				},
				{
					"internalType": "uint64",
					"name": "assists",
					"type": "uint64"
				},
				{
					"internalType": "string",
					"name": "fullSvg",
					"type": "string"
				}
			],
			"stateMutability": "view",
			"type": "function"
		},
		{
			"inputs": [
				{
					"internalType": "bytes32",
					"name": "",
					"type": "bytes32"
				}
			],
			"name": "s_requestToTokenId",
			"outputs": [
				{
					"internalType": "uint256",
					"name": "",
					"type": "uint256"
				}
			],
			"stateMutability": "view",
			"type": "function"
		},
		{
			"inputs": [
				{
					"internalType": "address",
					"name": "to",
					"type": "address"
				},
				{
					"internalType": "string",
					"name": "_name",
					"type": "string"
				},
				{
					"internalType": "string",
					"name": "_lane",
					"type": "string"
				}
			],
			"name": "safeMint",
			"outputs": [],
			"stateMutability": "nonpayable",
			"type": "function"
		},
		{
			"inputs": [
				{
					"internalType": "address",
					"name": "from",
					"type": "address"
				},
				{
					"internalType": "address",
					"name": "to",
					"type": "address"
				},
				{
					"internalType": "uint256",
					"name": "tokenId",
					"type": "uint256"
				}
			],
			"name": "safeTransferFrom",
			"outputs": [],
			"stateMutability": "nonpayable",
			"type": "function"
		},
		{
			"inputs": [
				{
					"internalType": "address",
					"name": "from",
					"type": "address"
				},
				{
					"internalType": "address",
					"name": "to",
					"type": "address"
				},
				{
					"internalType": "uint256",
					"name": "tokenId",
					"type": "uint256"
				},
				{
					"internalType": "bytes",
					"name": "data",
					"type": "bytes"
				}
			],
			"name": "safeTransferFrom",
			"outputs": [],
			"stateMutability": "nonpayable",
			"type": "function"
		},
		{
			"inputs": [
				{
					"internalType": "address",
					"name": "operator",
					"type": "address"
				},
				{
					"internalType": "bool",
					"name": "approved",
					"type": "bool"
				}
			],
			"name": "setApprovalForAll",
			"outputs": [],
			"stateMutability": "nonpayable",
			"type": "function"
		},
		{
			"inputs": [
				{
					"internalType": "uint256",
					"name": "_intervalSeconds",
					"type": "uint256"
				},
				{
					"internalType": "uint256",
					"name": "_targetTokenId",
					"type": "uint256"
				}
			],
			"name": "setAutomationSettings",
			"outputs": [],
			"stateMutability": "nonpayable",
			"type": "function"
		},
		{
			"inputs": [
				{
					"internalType": "string",
					"name": "_sourceCode",
					"type": "string"
				}
			],
			"name": "setSourceCode",
			"outputs": [],
			"stateMutability": "nonpayable",
			"type": "function"
		},
		{
			"inputs": [],
			"name": "sourceCode",
			"outputs": [
				{
					"internalType": "string",
					"name": "",
					"type": "string"
				}
			],
			"stateMutability": "view",
			"type": "function"
		},
		{
			"inputs": [],
			"name": "subscriptionId",
			"outputs": [
				{
					"internalType": "uint64",
					"name": "",
					"type": "uint64"
				}
			],
			"stateMutability": "view",
			"type": "function"
		},
		{
			"inputs": [
				{
					"internalType": "bytes4",
					"name": "interfaceId",
					"type": "bytes4"
				}
			],
			"name": "supportsInterface",
			"outputs": [
				{
					"internalType": "bool",
					"name": "",
					"type": "bool"
				}
			],
			"stateMutability": "view",
			"type": "function"
		},
		{
			"inputs": [],
			"name": "symbol",
			"outputs": [
				{
					"internalType": "string",
					"name": "",
					"type": "string"
				}
			],
			"stateMutability": "view",
			"type": "function"
		},
		{
			"inputs": [],
			"name": "targetTokenIdToUpdate",
			"outputs": [
				{
					"internalType": "uint256",
					"name": "",
					"type": "uint256"
				}
			],
			"stateMutability": "view",
			"type": "function"
		},
		{
			"inputs": [
				{
					"internalType": "uint256",
					"name": "tokenId",
					"type": "uint256"
				}
			],
			"name": "tokenURI",
			"outputs": [
				{
					"internalType": "string",
					"name": "",
					"type": "string"
				}
			],
			"stateMutability": "view",
			"type": "function"
		},
		{
			"inputs": [
				{
					"internalType": "address",
					"name": "from",
					"type": "address"
				},
				{
					"internalType": "address",
					"name": "to",
					"type": "address"
				},
				{
					"internalType": "uint256",
					"name": "tokenId",
					"type": "uint256"
				}
			],
			"name": "transferFrom",
			"outputs": [],
			"stateMutability": "nonpayable",
			"type": "function"
		},
		{
			"inputs": [
				{
					"internalType": "address",
					"name": "newOwner",
					"type": "address"
				}
			],
			"name": "transferOwnership",
			"outputs": [],
			"stateMutability": "nonpayable",
			"type": "function"
		}
	]
}