{
	"data": {
		"bytecode": {
			"linkReferences": {},
			"object": "60a060405273b83e47c2bc239b3bf370bc41e1459a34b41238d060095f6101000a81548173ffffffffffffffffffffffffffffffffffffffff021916908373ffffffffffffffffffffffffffffffffffffffff1602179055507f66756e2d657468657265756d2d7365706f6c69612d31000000000000000000005f1b600a5562015180600e55348015610090575f5ffd5b5060405161654b38038061654b83398181016040528101906100b29190610350565b60095f9054906101000a900473ffffffffffffffffffffffffffffffffffffffff16336040518060400160405280600e81526020017f4d504c204d6f64656c20422056320000000000000000000000000000000000008152506040518060400160405280600581526020017f4d504c4232000000000000000000000000000000000000000000000000000000815250815f908161014f91906105c9565b50806001908161015f91906105c9565b5050505f73ffffffffffffffffffffffffffffffffffffffff168173ffffffffffffffffffffffffffffffffffffffff16036101d2575f6040517f1e4fbdf70000000000000000000000000000000000000000000000000000000081526004016101c991906106d7565b60405180910390fd5b6101e18161024c60201b60201c565b508073ffffffffffffffffffffffffffffffffffffffff1660808173ffffffffffffffffffffffffffffffffffffffff16815250505080600b5f6101000a81548167ffffffffffffffff021916908367ffffffffffffffff16021790555042600d81905550506106f0565b5f60075f9054906101000a900473ffffffffffffffffffffffffffffffffffffffff1690508160075f6101000a81548173ffffffffffffffffffffffffffffffffffffffff021916908373ffffffffffffffffffffffffffffffffffffffff1602179055508173ffffffffffffffffffffffffffffffffffffffff168173ffffffffffffffffffffffffffffffffffffffff167f8be0079c531659141344cd1fd0a4f28419497f9722a3daafe3b4186f6b6457e060405160405180910390a35050565b5f5ffd5b5f67ffffffffffffffff82169050919050565b61032f81610313565b8114610339575f5ffd5b50565b5f8151905061034a81610326565b92915050565b5f602082840312156103655761036461030f565b5b5f6103728482850161033c565b91505092915050565b5f81519050919050565b7f4e487b71000000000000000000000000000000000000000000000000000000005f52604160045260245ffd5b7f4e487b71000000000000000000000000000000000000000000000000000000005f52602260045260245ffd5b5f60028204905060018216806103f657607f821691505b602082108103610409576104086103b2565b5b50919050565b5f819050815f5260205f209050919050565b5f6020601f8301049050919050565b5f82821b905092915050565b5f6008830261046b7fffffffffffffffffffffffffffffffffffffffffffffffffffffffffffffffff82610430565b6104758683610430565b95508019841693508086168417925050509392505050565b5f819050919050565b5f819050919050565b5f6104b96104b46104af8461048d565b610496565b61048d565b9050919050565b5f819050919050565b6104d28361049f565b6104e66104de826104c0565b84845461043c565b825550505050565b5f5f905090565b6104fd6104ee565b6105088184846104c9565b505050565b5f5b8281101561052e576105235f8284016104f5565b60018101905061050f565b505050565b601f82111561058157828211156105805761054d8161040f565b61055683610421565b61055f85610421565b602086101561056c575f90505b80830161057b8284038261050d565b505050505b5b505050565b5f82821c905092915050565b5f6105a15f1984600802610586565b1980831691505092915050565b5f6105b98383610592565b9150826002028217905092915050565b6105d28261037b565b67ffffffffffffffff8111156105eb576105ea610385565b5b6105f582546103df565b610600828285610533565b5f60209050601f831160018114610631575f841561061f578287015190505b61062985826105ae565b865550610690565b601f19841661063f8661040f565b5f5b8281101561066657848901518255600182019150602085019450602081019050610641565b86831015610683578489015161067f601f891682610592565b8355505b6001600288020188555050505b505050505050565b5f73ffffffffffffffffffffffffffffffffffffffff82169050919050565b5f6106c182610698565b9050919050565b6106d1816106b7565b82525050565b5f6020820190506106ea5f8301846106c8565b92915050565b608051615e3c61070f5f395f818161071e01526128d50152615e3c5ff3fe608060405234801561000f575f5ffd5b50600436106101cc575f3560e01c80636dcee4ca1161010257806395d89b41116100a0578063c87b56dd1161006f578063c87b56dd14610530578063e985e9c514610560578063eca81d4214610590578063f2fde38b146105ac576101cc565b806395d89b41146104a5578063a22cb465146104c3578063b4cfae44146104df578063b88d4fde14610514576101cc565b8063715018a6116100dc578063715018a6146104415780638da5cb5b1461044b578063947a36fb146104695780639488147614610487576101cc565b80636dcee4ca146103b05780636e04ff0d146103e057806370a0823114610411576101cc565b806313c601771161016f57806342842e0e1161014957806342842e0e146103185780634585e33b146103345780636352211e1461035057806368015a4b14610380576101cc565b806313c60177146102c057806323b872dd146102de5780633f3b3b27146102fa576101cc565b8063081812fc116101ab578063081812fc1461023a578063095ea7b31461026a57806309c1ba2e146102865780630ca76175146102a4576101cc565b8062b46767146101d057806301ffc9a7146101ec57806306fdde031461021c575b5f5ffd5b6101ea60048036038101906101e59190613655565b6105c8565b005b610206600480360381019061020191906136f1565b6105e3565b6040516102139190613736565b60405180910390f35b610224610643565b60405161023191906137af565b60405180910390f35b610254600480360381019061024f9190613802565b6106d2565b604051610261919061386c565b60405180910390f35b610284600480360381019061027f91906138af565b6106ed565b005b61028e610703565b60405161029b919061390f565b60405180910390f35b6102be60048036038101906102b991906139f9565b61071c565b005b6102c86107de565b6040516102d591906137af565b60405180910390f35b6102f860048036038101906102f39190613a81565b61086a565b005b610302610969565b60405161030f9190613ae0565b60405180910390f35b610332600480360381019061032d9190613a81565b61096f565b005b61034e60048036038101906103499190613b56565b61098e565b005b61036a60048036038101906103659190613802565b610a59565b604051610377919061386c565b60405180910390f35b61039a60048036038101906103959190613ba1565b610a6a565b6040516103a79190613ae0565b60405180910390f35b6103ca60048036038101906103c59190613802565b610a7f565b6040516103d791906137af565b60405180910390f35b6103fa60048036038101906103f59190613b56565b610d81565b604051610408929190613c1e565b60405180910390f35b61042b60048036038101906104269190613c4c565b610dbf565b6040516104389190613ae0565b60405180910390f35b610449610e75565b005b610453610e88565b604051610460919061386c565b60405180910390f35b610471610eb0565b60405161047e9190613ae0565b60405180910390f35b61048f610eb6565b60405161049c9190613ae0565b60405180910390f35b6104ad610ebc565b6040516104ba91906137af565b60405180910390f35b6104dd60048036038101906104d89190613ca1565b610f4c565b005b6104f960048036038101906104f49190613802565b610f62565b60405161050b96959493929190613cdf565b60405180910390f35b61052e60048036038101906105299190613d4c565b6110f5565b005b61054a60048036038101906105459190613802565b61111a565b60405161055791906137af565b60405180910390f35b61057a60048036038101906105759190613dcc565b61118e565b6040516105879190613736565b60405180910390f35b6105aa60048036038101906105a59190613e0a565b61121c565b005b6105c660048036038101906105c19190613c4c565b61139f565b005b6105d0611423565b80600c90816105df91906140a0565b5050565b5f634906490660e01b7bffffffffffffffffffffffffffffffffffffffffffffffffffffffff1916827bffffffffffffffffffffffffffffffffffffffffffffffffffffffff1916148061063c575061063b826114aa565b5b9050919050565b60605f805461065190613ebf565b80601f016020809104026020016040519081016040528092919081815260200182805461067d90613ebf565b80156106c85780601f1061069f576101008083540402835291602001916106c8565b820191905f5260205f20905b8154815290600101906020018083116106ab57829003601f168201915b5050505050905090565b5f6106dc8261158b565b506106e682611611565b9050919050565b6106ff82826106fa61164a565b611651565b5050565b600b5f9054906101000a900467ffffffffffffffff1681565b7f000000000000000000000000000000000000000000000000000000000000000073ffffffffffffffffffffffffffffffffffffffff163373ffffffffffffffffffffffffffffffffffffffff16146107a1576040517fc6829f8300000000000000000000000000000000000000000000000000000000815260040160405180910390fd5b6107ac838383611663565b827f85e1543bf2f84fe80c6badbce3648c8539ad1df4d2b3d822938ca0538be727e660405160405180910390a2505050565b600c80546107eb90613ebf565b80601f016020809104026020016040519081016040528092919081815260200182805461081790613ebf565b80156108625780601f1061083957610100808354040283529160200191610862565b820191905f5260205f20905b81548152906001019060200180831161084557829003601f168201915b505050505081565b5f73ffffffffffffffffffffffffffffffffffffffff168273ffffffffffffffffffffffffffffffffffffffff16036108da575f6040517f64a0ae920000000000000000000000000000000000000000000000000000000081526004016108d1919061386c565b60405180910390fd5b5f6108ed83836108e861164a565b6117d0565b90508373ffffffffffffffffffffffffffffffffffffffff168173ffffffffffffffffffffffffffffffffffffffff1614610963578382826040517f64283d7b00000000000000000000000000000000000000000000000000000000815260040161095a9392919061416f565b60405180910390fd5b50505050565b600d5481565b61098983838360405180602001604052805f8152506110f5565b505050565b600e54600d544261099f91906141d1565b1115610a555742600d81905550610a53600f5460105f600f5481526020019081526020015f205f0180546109d290613ebf565b80601f01602080910402602001604051908101604052809291908181526020018280546109fe90613ebf565b8015610a495780601f10610a2057610100808354040283529160200191610a49565b820191905f5260205f20905b815481529060010190602001808311610a2c57829003601f168201915b50505050506119db565b505b5050565b5f610a638261158b565b9050919050565b6011602052805f5260405f205f915090505481565b60605f60105f8481526020019081526020015f206040518060c00160405290815f82018054610aad90613ebf565b80601f0160208091040260200160405190810160405280929190818152602001828054610ad990613ebf565b8015610b245780601f10610afb57610100808354040283529160200191610b24565b820191905f5260205f20905b815481529060010190602001808311610b0757829003601f168201915b50505050508152602001600182018054610b3d90613ebf565b80601f0160208091040260200160405190810160405280929190818152602001828054610b6990613ebf565b8015610bb45780601f10610b8b57610100808354040283529160200191610bb4565b820191905f5260205f20905b815481529060010190602001808311610b9757829003601f168201915b50505050508152602001600282015f9054906101000a900467ffffffffffffffff1667ffffffffffffffff1667ffffffffffffffff1681526020016002820160089054906101000a900467ffffffffffffffff1667ffffffffffffffff1667ffffffffffffffff1681526020016002820160109054906101000a900467ffffffffffffffff1667ffffffffffffffff1667ffffffffffffffff1681526020016002820160189054906101000a900467ffffffffffffffff1667ffffffffffffffff1667ffffffffffffffff168152505090505f5f826080015167ffffffffffffffff1614610ca6578160800151610ca9565b60015b90505f8167ffffffffffffffff1660648460a0015167ffffffffffffffff16856060015167ffffffffffffffff16610ce19190614204565b610ceb9190614237565b610cf591906142a5565b90505f610d0d606483610d0891906142a5565b611b51565b610d22606484610d1d91906142d5565b611b51565b604051602001610d33929190614365565b6040516020818303038152906040529050610d4c611c1b565b610d568583611c3e565b604051602001610d6792919061461e565b604051602081830303815290604052945050505050919050565b5f6060600e54600d5442610d9591906141d1565b118015610da55750600854600f54105b915060405180602001604052805f81525090509250929050565b5f5f73ffffffffffffffffffffffffffffffffffffffff168273ffffffffffffffffffffffffffffffffffffffff1603610e30575f6040517f89c62b64000000000000000000000000000000000000000000000000000000008152600401610e27919061386c565b60405180910390fd5b60035f8373ffffffffffffffffffffffffffffffffffffffff1673ffffffffffffffffffffffffffffffffffffffff1681526020019081526020015f20549050919050565b610e7d611423565b610e865f611cd3565b565b5f60075f9054906101000a900473ffffffffffffffffffffffffffffffffffffffff16905090565b600e5481565b600f5481565b606060018054610ecb90613ebf565b80601f0160208091040260200160405190810160405280929190818152602001828054610ef790613ebf565b8015610f425780601f10610f1957610100808354040283529160200191610f42565b820191905f5260205f20905b815481529060010190602001808311610f2557829003601f168201915b5050505050905090565b610f5e610f5761164a565b8383611d96565b5050565b6010602052805f5260405f205f91509050805f018054610f8190613ebf565b80601f0160208091040260200160405190810160405280929190818152602001828054610fad90613ebf565b8015610ff85780601f10610fcf57610100808354040283529160200191610ff8565b820191905f5260205f20905b815481529060010190602001808311610fdb57829003601f168201915b50505050509080600101805461100d90613ebf565b80601f016020809104026020016040519081016040528092919081815260200182805461103990613ebf565b80156110845780601f1061105b57610100808354040283529160200191611084565b820191905f5260205f20905b81548152906001019060200180831161106757829003601f168201915b505050505090806002015f9054906101000a900467ffffffffffffffff16908060020160089054906101000a900467ffffffffffffffff16908060020160109054906101000a900467ffffffffffffffff16908060020160189054906101000a900467ffffffffffffffff16905086565b61110084848461086a565b61111461110b61164a565b85858585611f6f565b50505050565b60605f61112e61112984610a7f565b61211b565b90505f61116361113d85611b51565b8360405160200161114f929190614722565b60405160208183030381529060405261211b565b9050806040516020016111769190614794565b60405160208183030381529060405292505050919050565b5f60055f8473ffffffffffffffffffffffffffffffffffffffff1673ffffffffffffffffffffffffffffffffffffffff1681526020019081526020015f205f8373ffffffffffffffffffffffffffffffffffffffff1673ffffffffffffffffffffffffffffffffffffffff1681526020019081526020015f205f9054906101000a900460ff16905092915050565b611224611423565b5f60085490506040518060c001604052808481526020018381526020015f67ffffffffffffffff1681526020015f67ffffffffffffffff1681526020015f67ffffffffffffffff1681526020015f67ffffffffffffffff1681525060105f8381526020019081526020015f205f820151815f0190816112a391906140a0565b5060208201518160010190816112b991906140a0565b506040820151816002015f6101000a81548167ffffffffffffffff021916908367ffffffffffffffff16021790555060608201518160020160086101000a81548167ffffffffffffffff021916908367ffffffffffffffff16021790555060808201518160020160106101000a81548167ffffffffffffffff021916908367ffffffffffffffff16021790555060a08201518160020160186101000a81548167ffffffffffffffff021916908367ffffffffffffffff160217905550905050611382848261212e565b60085f815480929190611394906147b9565b919050555050505050565b6113a7611423565b5f73ffffffffffffffffffffffffffffffffffffffff168173ffffffffffffffffffffffffffffffffffffffff1603611417575f6040517f1e4fbdf700000000000000000000000000000000000000000000000000000000815260040161140e919061386c565b60405180910390fd5b61142081611cd3565b50565b61142b61164a565b73ffffffffffffffffffffffffffffffffffffffff16611449610e88565b73ffffffffffffffffffffffffffffffffffffffff16146114a85761146c61164a565b6040517f118cdaa700000000000000000000000000000000000000000000000000000000815260040161149f919061386c565b60405180910390fd5b565b5f7f80ac58cd000000000000000000000000000000000000000000000000000000007bffffffffffffffffffffffffffffffffffffffffffffffffffffffff1916827bffffffffffffffffffffffffffffffffffffffffffffffffffffffff1916148061157457507f5b5e139f000000000000000000000000000000000000000000000000000000007bffffffffffffffffffffffffffffffffffffffffffffffffffffffff1916827bffffffffffffffffffffffffffffffffffffffffffffffffffffffff1916145b8061158457506115838261214b565b5b9050919050565b5f5f611596836121b4565b90505f73ffffffffffffffffffffffffffffffffffffffff168173ffffffffffffffffffffffffffffffffffffffff160361160857826040517f7e2732890000000000000000000000000000000000000000000000000000000081526004016115ff9190613ae0565b60405180910390fd5b80915050919050565b5f60045f8381526020019081526020015f205f9054906101000a900473ffffffffffffffffffffffffffffffffffffffff169050919050565b5f33905090565b61165e83838360016121ed565b505050565b5f8151146116a6576040517f08c379a000000000000000000000000000000000000000000000000000000000815260040161169d9061484a565b60405180910390fd5b5f60115f8581526020019081526020015f205490505f838060200190518101906116d0919061487c565b90508060105f8481526020019081526020015f2060020160186101000a81548167ffffffffffffffff021916908367ffffffffffffffff160217905550604081901c60105f8481526020019081526020015f2060020160106101000a81548167ffffffffffffffff021916908367ffffffffffffffff160217905550608081901c60105f8481526020019081526020015f2060020160086101000a81548167ffffffffffffffff021916908367ffffffffffffffff16021790555060c081901c60105f8481526020019081526020015f206002015f6101000a81548167ffffffffffffffff021916908367ffffffffffffffff1602179055505050505050565b5f5f6117db846121b4565b90505f73ffffffffffffffffffffffffffffffffffffffff168373ffffffffffffffffffffffffffffffffffffffff161461181c5761181b8184866123ac565b5b5f73ffffffffffffffffffffffffffffffffffffffff168173ffffffffffffffffffffffffffffffffffffffff16146118a75761185b5f855f5f6121ed565b600160035f8373ffffffffffffffffffffffffffffffffffffffff1673ffffffffffffffffffffffffffffffffffffffff1681526020019081526020015f205f82825403925050819055505b5f73ffffffffffffffffffffffffffffffffffffffff168573ffffffffffffffffffffffffffffffffffffffff161461192657600160035f8773ffffffffffffffffffffffffffffffffffffffff1673ffffffffffffffffffffffffffffffffffffffff1681526020019081526020015f205f82825401925050819055505b8460025f8681526020019081526020015f205f6101000a81548173ffffffffffffffffffffffffffffffffffffffff021916908373ffffffffffffffffffffffffffffffffffffffff160217905550838573ffffffffffffffffffffffffffffffffffffffff168273ffffffffffffffffffffffffffffffffffffffff167fddf252ad1be2c89b69c2b068fc378daa952ba7f163c4a11628f55a4df523b3ef60405160405180910390a4809150509392505050565b5f6119e4613461565b611a7f600c80546119f490613ebf565b80601f0160208091040260200160405190810160405280929190818152602001828054611a2090613ebf565b8015611a6b5780601f10611a4257610100808354040283529160200191611a6b565b820191905f5260205f20905b815481529060010190602001808311611a4e57829003601f168201915b50505050508261246f90919063ffffffff16565b5f600167ffffffffffffffff811115611a9b57611a9a613531565b5b604051908082528060200260200182016040528015611ace57816020015b6060815260200190600190039081611ab95790505b50905083815f81518110611ae557611ae46148a7565b5b6020026020010181905250611b03818361247f90919063ffffffff16565b611b31611b0f836124c6565b600b5f9054906101000a900467ffffffffffffffff16620493e0600a546128d1565b92508460115f8581526020019081526020015f2081905550505092915050565b60605f6001611b5f846129b0565b0190505f8167ffffffffffffffff811115611b7d57611b7c613531565b5b6040519080825280601f01601f191660200182016040528015611baf5781602001600182028036833780820191505090505b5090505f82602083010190505b600115611c10578080600190039150507f3031323334353637383961626364656600000000000000000000000000000000600a86061a8153600a8581611c0557611c04614278565b5b0494505f8503611bbc575b819350505050919050565b6060604051806108c0016040528061089481526020016155736108949139905090565b6060825f01518360200151611c60856040015167ffffffffffffffff16611b51565b611c77866060015167ffffffffffffffff16611b51565b611c8e876080015167ffffffffffffffff16611b51565b611ca58860a0015167ffffffffffffffff16611b51565b87604051602001611cbc9796959493929190615110565b604051602081830303815290604052905092915050565b5f60075f9054906101000a900473ffffffffffffffffffffffffffffffffffffffff1690508160075f6101000a81548173ffffffffffffffffffffffffffffffffffffffff021916908373ffffffffffffffffffffffffffffffffffffffff1602179055508173ffffffffffffffffffffffffffffffffffffffff168173ffffffffffffffffffffffffffffffffffffffff167f8be0079c531659141344cd1fd0a4f28419497f9722a3daafe3b4186f6b6457e060405160405180910390a35050565b5f73ffffffffffffffffffffffffffffffffffffffff168373ffffffffffffffffffffffffffffffffffffffff1603611e06575f6040517fa9fbf51f000000000000000000000000000000000000000000000000000000008152600401611dfd919061386c565b60405180910390fd5b5f73ffffffffffffffffffffffffffffffffffffffff168273ffffffffffffffffffffffffffffffffffffffff1603611e7657816040517f5b08ba18000000000000000000000000000000000000000000000000000000008152600401611e6d919061386c565b60405180910390fd5b8060055f8573ffffffffffffffffffffffffffffffffffffffff1673ffffffffffffffffffffffffffffffffffffffff1681526020019081526020015f205f8473ffffffffffffffffffffffffffffffffffffffff1673ffffffffffffffffffffffffffffffffffffffff1681526020019081526020015f205f6101000a81548160ff0219169083151502179055508173ffffffffffffffffffffffffffffffffffffffff168373ffffffffffffffffffffffffffffffffffffffff167f17307eab39ab6107e8899845ad3d59bd9653f200f220920489ca2b5937696c3183604051611f629190613736565b60405180910390a3505050565b5f8373ffffffffffffffffffffffffffffffffffffffff163b1115612114578273ffffffffffffffffffffffffffffffffffffffff1663150b7a02868685856040518563ffffffff1660e01b8152600401611fcd949392919061523c565b6020604051808303815f875af192505050801561200857506040513d601f19601f82011682018060405250810190612005919061529a565b60015b612089573d805f8114612036576040519150601f19603f3d011682016040523d82523d5f602084013e61203b565b606091505b505f81510361208157836040517f64a0ae92000000000000000000000000000000000000000000000000000000008152600401612078919061386c565b60405180910390fd5b805160208201fd5b63150b7a0260e01b7bffffffffffffffffffffffffffffffffffffffffffffffffffffffff1916817bffffffffffffffffffffffffffffffffffffffffffffffffffffffff19161461211257836040517f64a0ae92000000000000000000000000000000000000000000000000000000008152600401612109919061386c565b60405180910390fd5b505b5050505050565b6060612127825f612b01565b9050919050565b612147828260405180602001604052805f815250612c8b565b5050565b5f7f01ffc9a7000000000000000000000000000000000000000000000000000000007bffffffffffffffffffffffffffffffffffffffffffffffffffffffff1916827bffffffffffffffffffffffffffffffffffffffffffffffffffffffff1916149050919050565b5f60025f8381526020019081526020015f205f9054906101000a900473ffffffffffffffffffffffffffffffffffffffff169050919050565b808061222557505f73ffffffffffffffffffffffffffffffffffffffff168273ffffffffffffffffffffffffffffffffffffffff1614155b15612357575f6122348461158b565b90505f73ffffffffffffffffffffffffffffffffffffffff168373ffffffffffffffffffffffffffffffffffffffff161415801561229e57508273ffffffffffffffffffffffffffffffffffffffff168173ffffffffffffffffffffffffffffffffffffffff1614155b80156122b157506122af818461118e565b155b156122f357826040517fa9fbf51f0000000000000000000000000000000000000000000000000000000081526004016122ea919061386c565b60405180910390fd5b811561235557838573ffffffffffffffffffffffffffffffffffffffff168273ffffffffffffffffffffffffffffffffffffffff167f8c5be1e5ebec7d5bd14f71427d1e84f3dd0314c0f7b2291e5b200ac8c7c3b92560405160405180910390a45b505b8360045f8581526020019081526020015f205f6101000a81548173ffffffffffffffffffffffffffffffffffffffff021916908373ffffffffffffffffffffffffffffffffffffffff16021790555050505050565b6123b7838383612cae565b61246a575f73ffffffffffffffffffffffffffffffffffffffff168373ffffffffffffffffffffffffffffffffffffffff160361242b57806040517f7e2732890000000000000000000000000000000000000000000000000000000081526004016124229190613ae0565b60405180910390fd5b81816040517f177e802f0000000000000000000000000000000000000000000000000000000081526004016124619291906152c5565b60405180910390fd5b505050565b61247b825f5f84612d6e565b5050565b5f8151036124b9576040517ffe936cb700000000000000000000000000000000000000000000000000000000815260040160405180910390fd5b808260a001819052505050565b60605f6124d4610100612e14565b905061251e6040518060400160405280600c81526020017f636f64654c6f636174696f6e000000000000000000000000000000000000000081525082612e3990919063ffffffff16565b612546835f01516002811115612537576125366152ec565b5b82612e6190919063ffffffff16565b61258e6040518060400160405280600881526020017f6c616e677561676500000000000000000000000000000000000000000000000081525082612e3990919063ffffffff16565b6125b683604001515f8111156125a7576125a66152ec565b5b82612e6190919063ffffffff16565b6125fe6040518060400160405280600681526020017f736f75726365000000000000000000000000000000000000000000000000000081525082612e3990919063ffffffff16565b612615836060015182612e3990919063ffffffff16565b5f8360a001515111156126cc5761266a6040518060400160405280600481526020017f617267730000000000000000000000000000000000000000000000000000000081525082612e3990919063ffffffff16565b61267381612eb0565b5f5f90505b8360a00151518110156126c1576126b68460a00151828151811061269f5761269e6148a7565b5b602002602001015183612e3990919063ffffffff16565b806001019050612678565b506126cb81612ed8565b5b5f836080015151111561280b575f60028111156126ec576126eb6152ec565b5b83602001516002811115612703576127026152ec565b5b0361273a576040517fa80d31f700000000000000000000000000000000000000000000000000000000815260040160405180910390fd5b6127826040518060400160405280600f81526020017f736563726574734c6f636174696f6e000000000000000000000000000000000081525082612e3990919063ffffffff16565b6127ab8360200151600281111561279c5761279b6152ec565b5b82612e6190919063ffffffff16565b6127f36040518060400160405280600781526020017f736563726574730000000000000000000000000000000000000000000000000081525082612e3990919063ffffffff16565b61280a836080015182612f0090919063ffffffff16565b5b5f8360c001515111156128c2576128606040518060400160405280600981526020017f627974657341726773000000000000000000000000000000000000000000000081525082612e3990919063ffffffff16565b61286981612eb0565b5f5f90505b8360c00151518110156128b7576128ac8460c001518281518110612895576128946148a7565b5b602002602001015183612f0090919063ffffffff16565b80600101905061286e565b506128c181612ed8565b5b805f01515f0151915050919050565b5f5f7f000000000000000000000000000000000000000000000000000000000000000073ffffffffffffffffffffffffffffffffffffffff1663461d27628688600188886040518663ffffffff1660e01b8152600401612935959493929190615362565b6020604051808303815f875af1158015612951573d5f5f3e3d5ffd5b505050506040513d601f19601f8201168201806040525081019061297591906153ce565b9050807f1131472297a800fee664d1d89cfa8f7676ff07189ecc53f80bbb5f4969099db860405160405180910390a280915050949350505050565b5f5f5f90507a184f03e93ff9f4daa797ed6e38ed64bf6a1f0100000000000000008310612a0c577a184f03e93ff9f4daa797ed6e38ed64bf6a1f0100000000000000008381612a0257612a01614278565b5b0492506040810190505b6d04ee2d6d415b85acef81000000008310612a49576d04ee2d6d415b85acef81000000008381612a3f57612a3e614278565b5b0492506020810190505b662386f26fc100008310612a7857662386f26fc100008381612a6e57612a6d614278565b5b0492506010810190505b6305f5e1008310612aa1576305f5e1008381612a9757612a96614278565b5b0492506008810190505b6127108310612ac6576127108381612abc57612abb614278565b5b0492506004810190505b60648310612ae95760648381612adf57612ade614278565b5b0492506002810190505b600a8310612af8576001810190505b80915050919050565b60605f835103612b215760405180602001604052805f8152509050612c85565b5f82612b5257600360028551612b379190614204565b612b4191906142a5565b6004612b4d9190614237565b612b79565b6003600285516004612b649190614237565b612b6e9190614204565b612b7891906142a5565b5b905060405191507f4142434445464748494a4b4c4d4e4f505152535455565758595a616263646566601f5261067083027f6768696a6b6c6d6e6f707172737475767778797a303132333435363738392b2f18603f526020820181810185865187016020810180515f82525b82841015612c37576003840193508351603f8160121c16518753600187019650603f81600c1c16518753600187019650603f8160061c16518753600187019650603f811651875360018701965050612be4565b80825288612c765760038a510660018114612c595760028114612c6c57612c74565b603d6001880353603d6002880353612c74565b603d60018803535b505b86885284604052505050505050505b92915050565b612c958383612f28565b612ca9612ca061164a565b5f858585611f6f565b505050565b5f5f73ffffffffffffffffffffffffffffffffffffffff168373ffffffffffffffffffffffffffffffffffffffff1614158015612d6557508273ffffffffffffffffffffffffffffffffffffffff168473ffffffffffffffffffffffffffffffffffffffff161480612d265750612d25848461118e565b5b80612d6457508273ffffffffffffffffffffffffffffffffffffffff16612d4c83611611565b73ffffffffffffffffffffffffffffffffffffffff16145b5b90509392505050565b5f815103612da8576040517f22ce3edd00000000000000000000000000000000000000000000000000000000815260040160405180910390fd5b82845f01906002811115612dbf57612dbe6152ec565b5b90816002811115612dd357612dd26152ec565b5b815250508184604001905f811115612dee57612ded6152ec565b5b90815f811115612e0157612e006152ec565b5b8152505080846060018190525050505050565b612e1c6134d0565b612e29815f01518361301b565b505f816020018181525050919050565b612e468260038351613091565b612e5c81835f015161323190919063ffffffff16565b505050565b612e8260026005600660ff16901b17835f015161324d90919063ffffffff16565b50612eac8282604051602001612e989190613ae0565b604051602081830303815290604052612f00565b5050565b612ebb8160046132b4565b600181602001818151612ece9190614204565b9150818152505050565b612ee38160076132b4565b600181602001818151612ef691906141d1565b9150818152505050565b612f0d8260028351613091565b612f2381835f015161323190919063ffffffff16565b505050565b5f73ffffffffffffffffffffffffffffffffffffffff168273ffffffffffffffffffffffffffffffffffffffff1603612f98575f6040517f64a0ae92000000000000000000000000000000000000000000000000000000008152600401612f8f919061386c565b60405180910390fd5b5f612fa483835f6117d0565b90505f73ffffffffffffffffffffffffffffffffffffffff168173ffffffffffffffffffffffffffffffffffffffff1614613016575f6040517f73c6ac6e00000000000000000000000000000000000000000000000000000000815260040161300d919061386c565b60405180910390fd5b505050565b6130236134ef565b5f60208361303191906142d5565b1461305d5760208261304391906142d5565b602061304f91906141d1565b8261305a9190614204565b91505b818360200181815250506040518084525f815282810160200181811015613082575f5ffd5b80604052505082905092915050565b60178167ffffffffffffffff16116130cb576130c58160058460ff16901b60ff1617845f015161324d90919063ffffffff16565b5061322c565b60ff8167ffffffffffffffff1611613127576130fd601860058460ff16901b17845f015161324d90919063ffffffff16565b506131218167ffffffffffffffff166001855f01516132d99092919063ffffffff16565b5061322b565b61ffff8167ffffffffffffffff16116131845761315a601960058460ff16901b17845f015161324d90919063ffffffff16565b5061317e8167ffffffffffffffff166002855f01516132d99092919063ffffffff16565b5061322a565b63ffffffff8167ffffffffffffffff16116131e3576131b9601a60058460ff16901b17845f015161324d90919063ffffffff16565b506131dd8167ffffffffffffffff166004855f01516132d99092919063ffffffff16565b50613229565b613203601b60058460ff16901b17845f015161324d90919063ffffffff16565b506132278167ffffffffffffffff166008855f01516132d99092919063ffffffff16565b505b5b5b5b505050565b6132396134ef565b61324583838451613362565b905092915050565b6132556134ef565b5f835f01515190505f60018261326b9190614204565b90508460200151821061328f5761328e856002836132899190614237565b61343f565b5b845160208382010185815381518311156132a7578282525b5050849250505092915050565b6132d4601f60058360ff16901b17835f015161324d90919063ffffffff16565b505050565b6132e16134ef565b5f845f01515190505f81846132f69190614204565b9050856020015181111561331b5761331a866002836133159190614237565b61343f565b5b5f60018561010061332c9190615528565b61333691906141d1565b905086518281018783198251161781528151841115613353578382525b50508693505050509392505050565b61336a6134ef565b8251821115613377575f5ffd5b5f845f01515190505f838261338c9190614204565b905085602001518111156133b1576133b0866002836133ab9190614237565b61343f565b5b5f5f875180518560208301019350808511156133cb578482525b60208901925050505b6020861061341257805182526020826133ed9190614204565b91506020816133fc9190614204565b905060208661340b91906141d1565b95506133d4565b5f6001876020036101000a0390508019825116818451168181178552505050879450505050509392505050565b5f825f01519050613450838361301b565b5061345b8382613231565b50505050565b6040518060e001604052805f600281111561347f5761347e6152ec565b5b81526020015f6002811115613497576134966152ec565b5b81526020015f5f8111156134ae576134ad6152ec565b5b8152602001606081526020016060815260200160608152602001606081525090565b60405180604001604052806134e36134ef565b81526020015f81525090565b6040518060400160405280606081526020015f81525090565b5f604051905090565b5f5ffd5b5f5ffd5b5f5ffd5b5f5ffd5b5f601f19601f8301169050919050565b7f4e487b71000000000000000000000000000000000000000000000000000000005f52604160045260245ffd5b61356782613521565b810181811067ffffffffffffffff8211171561358657613585613531565b5b80604052505050565b5f613598613508565b90506135a4828261355e565b919050565b5f67ffffffffffffffff8211156135c3576135c2613531565b5b6135cc82613521565b9050602081019050919050565b828183375f83830152505050565b5f6135f96135f4846135a9565b61358f565b9050828152602081018484840111156136155761361461351d565b5b6136208482856135d9565b509392505050565b5f82601f83011261363c5761363b613519565b5b813561364c8482602086016135e7565b91505092915050565b5f6020828403121561366a57613669613511565b5b5f82013567ffffffffffffffff81111561368757613686613515565b5b61369384828501613628565b91505092915050565b5f7fffffffff0000000000000000000000000000000000000000000000000000000082169050919050565b6136d08161369c565b81146136da575f5ffd5b50565b5f813590506136eb816136c7565b92915050565b5f6020828403121561370657613705613511565b5b5f613713848285016136dd565b91505092915050565b5f8115159050919050565b6137308161371c565b82525050565b5f6020820190506137495f830184613727565b92915050565b5f81519050919050565b5f82825260208201905092915050565b8281835e5f83830152505050565b5f6137818261374f565b61378b8185613759565b935061379b818560208601613769565b6137a481613521565b840191505092915050565b5f6020820190508181035f8301526137c78184613777565b905092915050565b5f819050919050565b6137e1816137cf565b81146137eb575f5ffd5b50565b5f813590506137fc816137d8565b92915050565b5f6020828403121561381757613816613511565b5b5f613824848285016137ee565b91505092915050565b5f73ffffffffffffffffffffffffffffffffffffffff82169050919050565b5f6138568261382d565b9050919050565b6138668161384c565b82525050565b5f60208201905061387f5f83018461385d565b92915050565b61388e8161384c565b8114613898575f5ffd5b50565b5f813590506138a981613885565b92915050565b5f5f604083850312156138c5576138c4613511565b5b5f6138d28582860161389b565b92505060206138e3858286016137ee565b9150509250929050565b5f67ffffffffffffffff82169050919050565b613909816138ed565b82525050565b5f6020820190506139225f830184613900565b92915050565b5f819050919050565b61393a81613928565b8114613944575f5ffd5b50565b5f8135905061395581613931565b92915050565b5f67ffffffffffffffff82111561397557613974613531565b5b61397e82613521565b9050602081019050919050565b5f61399d6139988461395b565b61358f565b9050828152602081018484840111156139b9576139b861351d565b5b6139c48482856135d9565b509392505050565b5f82601f8301126139e0576139df613519565b5b81356139f084826020860161398b565b91505092915050565b5f5f5f60608486031215613a1057613a0f613511565b5b5f613a1d86828701613947565b935050602084013567ffffffffffffffff811115613a3e57613a3d613515565b5b613a4a868287016139cc565b925050604084013567ffffffffffffffff811115613a6b57613a6a613515565b5b613a77868287016139cc565b9150509250925092565b5f5f5f60608486031215613a9857613a97613511565b5b5f613aa58682870161389b565b9350506020613ab68682870161389b565b9250506040613ac7868287016137ee565b9150509250925092565b613ada816137cf565b82525050565b5f602082019050613af35f830184613ad1565b92915050565b5f5ffd5b5f5ffd5b5f5f83601f840112613b1657613b15613519565b5b8235905067ffffffffffffffff811115613b3357613b32613af9565b5b602083019150836001820283011115613b4f57613b4e613afd565b5b9250929050565b5f5f60208385031215613b6c57613b6b613511565b5b5f83013567ffffffffffffffff811115613b8957613b88613515565b5b613b9585828601613b01565b92509250509250929050565b5f60208284031215613bb657613bb5613511565b5b5f613bc384828501613947565b91505092915050565b5f81519050919050565b5f82825260208201905092915050565b5f613bf082613bcc565b613bfa8185613bd6565b9350613c0a818560208601613769565b613c1381613521565b840191505092915050565b5f604082019050613c315f830185613727565b8181036020830152613c438184613be6565b90509392505050565b5f60208284031215613c6157613c60613511565b5b5f613c6e8482850161389b565b91505092915050565b613c808161371c565b8114613c8a575f5ffd5b50565b5f81359050613c9b81613c77565b92915050565b5f5f60408385031215613cb757613cb6613511565b5b5f613cc48582860161389b565b9250506020613cd585828601613c8d565b9150509250929050565b5f60c0820190508181035f830152613cf78189613777565b90508181036020830152613d0b8188613777565b9050613d1a6040830187613900565b613d276060830186613900565b613d346080830185613900565b613d4160a0830184613900565b979650505050505050565b5f5f5f5f60808587031215613d6457613d63613511565b5b5f613d718782880161389b565b9450506020613d828782880161389b565b9350506040613d93878288016137ee565b925050606085013567ffffffffffffffff811115613db457613db3613515565b5b613dc0878288016139cc565b91505092959194509250565b5f5f60408385031215613de257613de1613511565b5b5f613def8582860161389b565b9250506020613e008582860161389b565b9150509250929050565b5f5f5f60608486031215613e2157613e20613511565b5b5f613e2e8682870161389b565b935050602084013567ffffffffffffffff811115613e4f57613e4e613515565b5b613e5b86828701613628565b925050604084013567ffffffffffffffff811115613e7c57613e7b613515565b5b613e8886828701613628565b9150509250925092565b7f4e487b71000000000000000000000000000000000000000000000000000000005f52602260045260245ffd5b5f6002820490506001821680613ed657607f821691505b602082108103613ee957613ee8613e92565b5b50919050565b5f819050815f5260205f209050919050565b5f6020601f8301049050919050565b5f82821b905092915050565b5f60088302613f4b7fffffffffffffffffffffffffffffffffffffffffffffffffffffffffffffffff82613f10565b613f558683613f10565b95508019841693508086168417925050509392505050565b5f819050919050565b5f613f90613f8b613f86846137cf565b613f6d565b6137cf565b9050919050565b5f819050919050565b613fa983613f76565b613fbd613fb582613f97565b848454613f1c565b825550505050565b5f5f905090565b613fd4613fc5565b613fdf818484613fa0565b505050565b5f5b8281101561400557613ffa5f828401613fcc565b600181019050613fe6565b505050565b601f82111561405857828211156140575761402481613eef565b61402d83613f01565b61403685613f01565b6020861015614043575f90505b80830161405282840382613fe4565b505050505b5b505050565b5f82821c905092915050565b5f6140785f198460080261405d565b1980831691505092915050565b5f6140908383614069565b9150826002028217905092915050565b6140a98261374f565b67ffffffffffffffff8111156140c2576140c1613531565b5b6140cc8254613ebf565b6140d782828561400a565b5f60209050601f831160018114614108575f84156140f6578287015190505b6141008582614085565b865550614167565b601f19841661411686613eef565b5f5b8281101561413d57848901518255600182019150602085019450602081019050614118565b8683101561415a5784890151614156601f891682614069565b8355505b6001600288020188555050505b505050505050565b5f6060820190506141825f83018661385d565b61418f6020830185613ad1565b61419c604083018461385d565b949350505050565b7f4e487b71000000000000000000000000000000000000000000000000000000005f52601160045260245ffd5b5f6141db826137cf565b91506141e6836137cf565b92508282039050818111156141fe576141fd6141a4565b5b92915050565b5f61420e826137cf565b9150614219836137cf565b9250828201905080821115614231576142306141a4565b5b92915050565b5f614241826137cf565b915061424c836137cf565b925082820261425a816137cf565b91508282048414831517614271576142706141a4565b5b5092915050565b7f4e487b71000000000000000000000000000000000000000000000000000000005f52601260045260245ffd5b5f6142af826137cf565b91506142ba836137cf565b9250826142ca576142c9614278565b5b828204905092915050565b5f6142df826137cf565b91506142ea836137cf565b9250826142fa576142f9614278565b5b828206905092915050565b5f81905092915050565b5f6143198261374f565b6143238185614305565b9350614333818560208601613769565b80840191505092915050565b7f2e00000000000000000000000000000000000000000000000000000000000000815250565b5f614370828561430f565b915061437b8261433f565b60018201915061438b828461430f565b91508190509392505050565b7f3c7376672077696474683d2233323022206865696768743d22343030222076695f8201527f6577426f783d2230203020333230203430302220786d6c6e733d22687474703a60208201527f2f2f7777772e77332e6f72672f323030302f737667223e000000000000000000604082015250565b5f614417605783614305565b915061442282614397565b605782019050919050565b7f3c672073686170652d72656e646572696e673d2263726973704564676573223e5f8201527f3c7265637420783d22302220793d2230222077696474683d223332302220686560208201527f696768743d22343030222066696c6c3d2223313531353135222f3e3c7265637460408201527f20783d22382220793d2238222077696474683d2233303422206865696768743d60608201527f22333834222066696c6c3d2223303232663532222f3e3c7465787420783d223160808201527f36302220793d223430222066696c6c3d22236563663066312220666f6e742d7360a08201527f697a653d2232302220746578742d616e63686f723d226d6964646c652220666f60c08201527f6e742d7765696768743d22626f6c64223e504c4159455220434152443c2f746560e08201527f78743e3c6c696e652078313d223230222079313d223535222078323d223330306101008201527f222079323d22353522207374726f6b653d222365636630663122207374726f6b6101208201527f652d77696474683d2234222f3e3c2f673e00000000000000000000000000000061014082015250565b5f6145e161015183614305565b91506145ec8261442d565b61015182019050919050565b7f3c2f7376673e0000000000000000000000000000000000000000000000000000815250565b5f6146288261440b565b9150614633826145d4565b915061463f828561430f565b915061464b828461430f565b9150614656826145f8565b6006820191508190509392505050565b7f7b226e616d65223a20224d504c204f7074205632202300000000000000000000815250565b7f222c2022696d616765223a2022646174613a696d6167652f7376672b786d6c3b5f8201527f6261736536342c00000000000000000000000000000000000000000000000000602082015250565b5f6146e6602783614305565b91506146f18261468c565b602782019050919050565b7f227d000000000000000000000000000000000000000000000000000000000000815250565b5f61472c82614666565b60168201915061473c828561430f565b9150614747826146da565b9150614753828461430f565b915061475e826146fc565b6002820191508190509392505050565b7f646174613a6170706c69636174696f6e2f6a736f6e3b6261736536342c000000815250565b5f61479e8261476e565b601d820191506147ae828461430f565b915081905092915050565b5f6147c3826137cf565b91507fffffffffffffffffffffffffffffffffffffffffffffffffffffffffffffffff82036147f5576147f46141a4565b5b600182019050919050565b7f4f7261636c65204572726f7200000000000000000000000000000000000000005f82015250565b5f614834600c83613759565b915061483f82614800565b602082019050919050565b5f6020820190508181035f83015261486181614828565b9050919050565b5f81519050614876816137d8565b92915050565b5f6020828403121561489157614890613511565b5b5f61489e84828501614868565b91505092915050565b7f4e487b71000000000000000000000000000000000000000000000000000000005f52603260045260245ffd5b7f3c67207472616e73666f726d3d227472616e736c617465283138302c203130305f8201527f29222073686170652d72656e646572696e673d2263726973704564676573223e602082015250565b5f61492e604083614305565b9150614939826148d4565b604082019050919050565b7f3c7465787420783d222d33302220793d223230222066696c6c3d2223333439385f8201527f64622220666f6e742d73697a653d223134223e504c41594552204e414d453a3c60208201527f2f746578743e3c7465787420783d222d33302220793d223530222066696c6c3d60408201527f22236563663066312220666f6e742d73697a653d2232342220666f6e742d776560608201527f696768743d22626f6c64223e0000000000000000000000000000000000000000608082015250565b5f614a10608c83614305565b9150614a1b82614944565b608c82019050919050565b7f3c2f746578743e3c6c696e652078313d222d3235222079313d223735222078325f8201527f3d22313230222079323d22373522207374726f6b653d2223353535222073747260208201527f6f6b652d77696474683d223422207374726f6b652d6461736861727261793d2260408201527f382c36222f3e0000000000000000000000000000000000000000000000000000606082015250565b5f614acc606683614305565b9150614ad782614a26565b606682019050919050565b7f3c7465787420783d222d33302220793d22313030222066696c6c3d22236563665f8201527f3066312220666f6e742d73697a653d223134223e4c414e453a3c2f746578743e60208201527f3c7465787420783d223132302220793d22313030222066696c6c3d222365636660408201527f3066312220666f6e742d73697a653d2231342220746578742d616e63686f723d60608201527f22656e64223e0000000000000000000000000000000000000000000000000000608082015250565b5f614bae608683614305565b9150614bb982614ae2565b608682019050919050565b7f3c2f746578743e00000000000000000000000000000000000000000000000000815250565b7f3c7465787420783d222d33302220793d22313235222066696c6c3d22236563665f8201527f3066312220666f6e742d73697a653d223134223e47414d453a3c2f746578743e60208201527f3c7465787420783d223132302220793d22313235222066696c6c3d222365636660408201527f3066312220666f6e742d73697a653d2231342220746578742d616e63686f723d60608201527f22656e64223e0000000000000000000000000000000000000000000000000000608082015250565b5f614cb6608683614305565b9150614cc182614bea565b608682019050919050565b7f3c7465787420783d222d33302220793d22313530222066696c6c3d22236563665f8201527f3066312220666f6e742d73697a653d223134223e4b494c4c533a3c2f7465787460208201527f3e3c7465787420783d223132302220793d22313530222066696c6c3d2223656360408201527f663066312220666f6e742d73697a653d2231342220746578742d616e63686f7260608201527f3d22656e64223e00000000000000000000000000000000000000000000000000608082015250565b5f614d98608783614305565b9150614da382614ccc565b608782019050919050565b7f3c7465787420783d222d33302220793d22313735222066696c6c3d22236563665f8201527f3066312220666f6e742d73697a653d223134223e4445415448533a3c2f74657860208201527f743e3c7465787420783d223132302220793d22313735222066696c6c3d22236560408201527f63663066312220666f6e742d73697a653d2231342220746578742d616e63686f60608201527f723d22656e64223e000000000000000000000000000000000000000000000000608082015250565b5f614e7a608883614305565b9150614e8582614dae565b608882019050919050565b7f3c7465787420783d222d33302220793d22323030222066696c6c3d22236563665f8201527f3066312220666f6e742d73697a653d223134223e415353495354533a3c2f746560208201527f78743e3c7465787420783d223132302220793d22323030222066696c6c3d222360408201527f6563663066312220666f6e742d73697a653d2231342220746578742d616e636860608201527f6f723d22656e64223e0000000000000000000000000000000000000000000000608082015250565b5f614f5c608983614305565b9150614f6782614e90565b608982019050919050565b7f3c7465787420783d222d33302220793d22323235222066696c6c3d22236563665f8201527f3066312220666f6e742d73697a653d223134223e4b44413a3c2f746578743e3c60208201527f7465787420783d223132302220793d22323235222066696c6c3d22236563663060408201527f66312220666f6e742d73697a653d2231342220746578742d616e63686f723d2260608201527f656e64223e000000000000000000000000000000000000000000000000000000608082015250565b5f61503e608583614305565b915061504982614f72565b608582019050919050565b7f3c6c696e652078313d222d3330222079313d22323430222078323d22313230225f8201527f2079323d2232343022207374726f6b653d222335353522207374726f6b652d7760208201527f696474683d223422207374726f6b652d6461736861727261793d22382c36222f60408201527f3e3c2f673e000000000000000000000000000000000000000000000000000000606082015250565b5f6150fa606583614305565b915061510582615054565b606582019050919050565b5f61511a82614922565b915061512582614a04565b9150615131828a61430f565b915061513c82614ac0565b915061514782614ba2565b9150615153828961430f565b915061515e82614bc4565b60078201915061516d82614caa565b9150615179828861430f565b915061518482614bc4565b60078201915061519382614d8c565b915061519f828761430f565b91506151aa82614bc4565b6007820191506151b982614e6e565b91506151c5828661430f565b91506151d082614bc4565b6007820191506151df82614f50565b91506151eb828561430f565b91506151f682614bc4565b60078201915061520582615032565b9150615211828461430f565b915061521c82614bc4565b60078201915061522b826150ee565b915081905098975050505050505050565b5f60808201905061524f5f83018761385d565b61525c602083018661385d565b6152696040830185613ad1565b818103606083015261527b8184613be6565b905095945050505050565b5f81519050615294816136c7565b92915050565b5f602082840312156152af576152ae613511565b5b5f6152bc84828501615286565b91505092915050565b5f6040820190506152d85f83018561385d565b6152e56020830184613ad1565b9392505050565b7f4e487b71000000000000000000000000000000000000000000000000000000005f52602160045260245ffd5b5f61ffff82169050919050565b61532f81615319565b82525050565b5f63ffffffff82169050919050565b61534d81615335565b82525050565b61535c81613928565b82525050565b5f60a0820190506153755f830188613900565b81810360208301526153878187613be6565b90506153966040830186615326565b6153a36060830185615344565b6153b06080830184615353565b9695505050505050565b5f815190506153c881613931565b92915050565b5f602082840312156153e3576153e2613511565b5b5f6153f0848285016153ba565b91505092915050565b5f8160011c9050919050565b5f5f8291508390505b600185111561544e5780860481111561542a576154296141a4565b5b60018516156154395780820291505b8081029050615447856153f9565b945061540e565b94509492505050565b5f826154665760019050615521565b81615473575f9050615521565b81600181146154895760028114615493576154c2565b6001915050615521565b60ff8411156154a5576154a46141a4565b5b8360020a9150848211156154bc576154bb6141a4565b5b50615521565b5060208310610133831016604e8410600b84101617156154f75782820a9050838111156154f2576154f16141a4565b5b615521565b6155048484846001615405565b9250905081840481111561551b5761551a6141a4565b5b81810290505b9392505050565b5f615532826137cf565b915061553d836137cf565b925061556a7fffffffffffffffffffffffffffffffffffffffffffffffffffffffffffffffff8484615457565b90509291505056fe3c73766720783d2231302220793d223330222077696474683d2231343022206865696768743d22333830222076696577426f783d22302030203332203332222073686170652d72656e646572696e673d2263726973704564676573223e3c67207472616e73666f726d3d227472616e736c6174652833322c203029207363616c65282d312c203129223e3c706174682066696c6c3d22233030303030302220643d224d3131203268313076314831317a204d3920336832763148397a204d32312033683276314832317a204d3820346831763148387a204d32332034683176314832337a204d3820356831763148387a204d32342035683176314832347a204d3820366831763148387a204d32342036683176314832347a204d3820376831763148387a204d32342037683176314832347a204d3820386831763148387a204d32342038683176314832347a204d3920396831763148397a204d32342039683176314832347a204d392031306831763148397a204d3233203130683176314832337a204d392031316831763148397a204d3132203131683276314831327a204d3138203131683276314831387a204d3233203131683176314832337a204d392031326831763148397a204d3233203132683176314832337a204d3130203133683176314831307a204d3232203133683176314832327a204d3130203134683176314831307a204d3232203134683176314832327a204d3130203135683176314831307a204d3232203135683176314832327a204d3131203136683176314831317a204d3231203136683176314832317a204d3131203137683176314831317a204d3231203137683176314832317a204d3132203138683176314831327a204d3230203138683176314832307a204d3132203139683176314831327a204d3230203139683176314832307a204d3131203230683176314831317a204d3231203230683176314832317a204d392032316832763148397a204d3232203231683276314832327a204d372032326832763148377a204d3234203232683276314832347a204d362032336831763148367a204d3236203233683176314832367a204d352032346831763148357a204d3237203234683176314832377a204d342032356831763148347a204d3238203235683176314832387a204d332032366831763148337a204d3239203236683176314832397a204d332032376831763148337a204d3239203237683176314832397a204d332032386831763148337a204d3239203238683176314832397a204d332032396831763148337a204d3239203239683176314832397a204d332033306831763148337a204d3239203330683176314832397a204d33203331683237763148337a22202f3e3c706174682066696c6c3d22233030303030302220643d224d3131203368313076314831317a204d392034683134763148397a204d392035683135763148397a204d392036683135763148397a204d392037683135763148397a204d3920386833763148397a204d32302038683476314832307a204d31302039683276314831307a204d32322039683276314832327a204d3130203130683176314831307a204d3232203130683176314832327a22202f3e3c706174682066696c6c3d22236534623539302220643d224d31322038683876314831327a204d3132203968313076314831327a204d313120313068313176314831317a204d3130203131683276314831307a204d3134203131683476314831347a204d3230203131683376314832307a204d313020313268313376314831307a204d3131203133683476314831317a204d3137203133683576314831377a204d313120313468313176314831317a204d3131203135683376314831317a204d3138203135683476314831387a204d3132203136683976314831327a204d3132203137683976314831327a204d3133203138683776314831337a22202f3e3c706174682066696c6c3d22236335393437332220643d224d3135203133683276314831357a204d3133203139683776314831337a204d3134203230683576314831347a22202f3e3c706174682066696c6c3d22236264366134662220643d224d3134203135683476314831347a22202f3e3c706174682066696c6c3d22236666666666662220643d224d3132203230683276314831327a204d3139203230683276314831397a204d3131203231683376314831317a204d3139203231683376314831397a204d392032326834763148397a204d3230203232683476314832307a204d372032336835763148377a204d3231203233683576314832317a204d362032346835763148367a204d3232203234683576314832327a204d352032356835763148357a204d3133203235683276314831337a204d3136203235683276314831367a204d3139203235683276314831397a204d3233203235683576314832337a204d342032366835763148347a204d3234203236683576314832347a204d342032376834763148347a204d3235203237683476314832357a204d342032386834763148347a204d3235203238683476314832357a204d342032396834763148347a204d3235203239683476314832357a204d362033306832763148367a204d3235203330683276314832357a22202f3e3c706174682066696c6c3d22236566383131352220643d224d3134203231683576314831347a204d3133203232683776314831337a204d3132203233683976314831327a204d313120323468313176314831317a204d3130203235683376314831307a204d3135203235683176314831357a204d3138203235683176314831387a204d3231203235683276314832317a204d39203236683135763148397a204d38203237683137763148387a204d38203238683137763148387a204d38203239683137763148387a204d342033306832763148347a204d38203330683137763148387a204d3237203330683276314832377a22202f3e3c2f673e3c2f7376673ea2646970667358221220a36ed40098621328b6afee412901e3301bf692f36f04f4237fdfd6724fbdadc664736f6c63430008220033",
			"opcodes": "PUSH1 0xA0 PUSH1 0x40 MSTORE PUSH20 0xB83E47C2BC239B3BF370BC41E1459A34B41238D0 PUSH1 0x9 PUSH0 PUSH2 0x100 EXP DUP2 SLOAD DUP2 PUSH20 0xFFFFFFFFFFFFFFFFFFFFFFFFFFFFFFFFFFFFFFFF MUL NOT AND SWAP1 DUP4 PUSH20 0xFFFFFFFFFFFFFFFFFFFFFFFFFFFFFFFFFFFFFFFF AND MUL OR SWAP1 SSTORE POP PUSH32 0x66756E2D657468657265756D2D7365706F6C69612D3100000000000000000000 PUSH0 SHL PUSH1 0xA SSTORE PUSH3 0x15180 PUSH1 0xE SSTORE CALLVALUE DUP1 ISZERO PUSH2 0x90 JUMPI PUSH0 PUSH0 REVERT JUMPDEST POP PUSH1 0x40 MLOAD PUSH2 0x654B CODESIZE SUB DUP1 PUSH2 0x654B DUP4 CODECOPY DUP2 DUP2 ADD PUSH1 0x40 MSTORE DUP2 ADD SWAP1 PUSH2 0xB2 SWAP2 SWAP1 PUSH2 0x350 JUMP JUMPDEST PUSH1 0x9 PUSH0 SWAP1 SLOAD SWAP1 PUSH2 0x100 EXP SWAP1 DIV PUSH20 0xFFFFFFFFFFFFFFFFFFFFFFFFFFFFFFFFFFFFFFFF AND CALLER PUSH1 0x40 MLOAD DUP1 PUSH1 0x40 ADD PUSH1 0x40 MSTORE DUP1 PUSH1 0xE DUP2 MSTORE PUSH1 0x20 ADD PUSH32 0x4D504C204D6F64656C2042205632000000000000000000000000000000000000 DUP2 MSTORE POP PUSH1 0x40 MLOAD DUP1 PUSH1 0x40 ADD PUSH1 0x40 MSTORE DUP1 PUSH1 0x5 DUP2 MSTORE PUSH1 0x20 ADD PUSH32 0x4D504C4232000000000000000000000000000000000000000000000000000000 DUP2 MSTORE POP DUP2 PUSH0 SWAP1 DUP2 PUSH2 0x14F SWAP2 SWAP1 PUSH2 0x5C9 JUMP JUMPDEST POP DUP1 PUSH1 0x1 SWAP1 DUP2 PUSH2 0x15F SWAP2 SWAP1 PUSH2 0x5C9 JUMP JUMPDEST POP POP POP PUSH0 PUSH20 0xFFFFFFFFFFFFFFFFFFFFFFFFFFFFFFFFFFFFFFFF AND DUP2 PUSH20 0xFFFFFFFFFFFFFFFFFFFFFFFFFFFFFFFFFFFFFFFF AND SUB PUSH2 0x1D2 JUMPI PUSH0 PUSH1 0x40 MLOAD PUSH32 0x1E4FBDF700000000000000000000000000000000000000000000000000000000 DUP2 MSTORE PUSH1 0x4 ADD PUSH2 0x1C9 SWAP2 SWAP1 PUSH2 0x6D7 JUMP JUMPDEST PUSH1 0x40 MLOAD DUP1 SWAP2 SUB SWAP1 REVERT JUMPDEST PUSH2 0x1E1 DUP2 PUSH2 0x24C PUSH1 0x20 SHL PUSH1 0x20 SHR JUMP JUMPDEST POP DUP1 PUSH20 0xFFFFFFFFFFFFFFFFFFFFFFFFFFFFFFFFFFFFFFFF AND PUSH1 0x80 DUP2 PUSH20 0xFFFFFFFFFFFFFFFFFFFFFFFFFFFFFFFFFFFFFFFF AND DUP2 MSTORE POP POP POP DUP1 PUSH1 0xB PUSH0 PUSH2 0x100 EXP DUP2 SLOAD DUP2 PUSH8 0xFFFFFFFFFFFFFFFF MUL NOT AND SWAP1 DUP4 PUSH8 0xFFFFFFFFFFFFFFFF AND MUL OR SWAP1 SSTORE POP TIMESTAMP PUSH1 0xD DUP2 SWAP1 SSTORE POP POP PUSH2 0x6F0 JUMP JUMPDEST PUSH0 PUSH1 0x7 PUSH0 SWAP1 SLOAD SWAP1 PUSH2 0x100 EXP SWAP1 DIV PUSH20 0xFFFFFFFFFFFFFFFFFFFFFFFFFFFFFFFFFFFFFFFF AND SWAP1 POP DUP2 PUSH1 0x7 PUSH0 PUSH2 0x100 EXP DUP2 SLOAD DUP2 PUSH20 0xFFFFFFFFFFFFFFFFFFFFFFFFFFFFFFFFFFFFFFFF MUL NOT AND SWAP1 DUP4 PUSH20 0xFFFFFFFFFFFFFFFFFFFFFFFFFFFFFFFFFFFFFFFF AND MUL OR SWAP1 SSTORE POP DUP2 PUSH20 0xFFFFFFFFFFFFFFFFFFFFFFFFFFFFFFFFFFFFFFFF AND DUP2 PUSH20 0xFFFFFFFFFFFFFFFFFFFFFFFFFFFFFFFFFFFFFFFF AND PUSH32 0x8BE0079C531659141344CD1FD0A4F28419497F9722A3DAAFE3B4186F6B6457E0 PUSH1 0x40 MLOAD PUSH1 0x40 MLOAD DUP1 SWAP2 SUB SWAP1 LOG3 POP POP JUMP JUMPDEST PUSH0 PUSH0 REVERT JUMPDEST PUSH0 PUSH8 0xFFFFFFFFFFFFFFFF DUP3 AND SWAP1 POP SWAP2 SWAP1 POP JUMP JUMPDEST PUSH2 0x32F DUP2 PUSH2 0x313 JUMP JUMPDEST DUP2 EQ PUSH2 0x339 JUMPI PUSH0 PUSH0 REVERT JUMPDEST POP JUMP JUMPDEST PUSH0 DUP2 MLOAD SWAP1 POP PUSH2 0x34A DUP2 PUSH2 0x326 JUMP JUMPDEST SWAP3 SWAP2 POP POP JUMP JUMPDEST PUSH0 PUSH1 0x20 DUP3 DUP5 SUB SLT ISZERO PUSH2 0x365 JUMPI PUSH2 0x364 PUSH2 0x30F JUMP JUMPDEST JUMPDEST PUSH0 PUSH2 0x372 DUP5 DUP3 DUP6 ADD PUSH2 0x33C JUMP JUMPDEST SWAP2 POP POP SWAP3 SWAP2 POP POP JUMP JUMPDEST PUSH0 DUP2 MLOAD SWAP1 POP SWAP2 SWAP1 POP JUMP JUMPDEST PUSH32 0x4E487B7100000000000000000000000000000000000000000000000000000000 PUSH0 MSTORE PUSH1 0x41 PUSH1 0x4 MSTORE PUSH1 0x24 PUSH0 REVERT JUMPDEST PUSH32 0x4E487B7100000000000000000000000000000000000000000000000000000000 PUSH0 MSTORE PUSH1 0x22 PUSH1 0x4 MSTORE PUSH1 0x24 PUSH0 REVERT JUMPDEST PUSH0 PUSH1 0x2 DUP3 DIV SWAP1 POP PUSH1 0x1 DUP3 AND DUP1 PUSH2 0x3F6 JUMPI PUSH1 0x7F DUP3 AND SWAP2 POP JUMPDEST PUSH1 0x20 DUP3 LT DUP2 SUB PUSH2 0x409 JUMPI PUSH2 0x408 PUSH2 0x3B2 JUMP JUMPDEST JUMPDEST POP SWAP2 SWAP1 POP JUMP JUMPDEST PUSH0 DUP2 SWAP1 POP DUP2 PUSH0 MSTORE PUSH1 0x20 PUSH0 KECCAK256 SWAP1 POP SWAP2 SWAP1 POP JUMP JUMPDEST PUSH0 PUSH1 0x20 PUSH1 0x1F DUP4 ADD DIV SWAP1 POP SWAP2 SWAP1 POP JUMP JUMPDEST PUSH0 DUP3 DUP3 SHL SWAP1 POP SWAP3 SWAP2 POP POP JUMP JUMPDEST PUSH0 PUSH1 0x8 DUP4 MUL PUSH2 0x46B PUSH32 0xFFFFFFFFFFFFFFFFFFFFFFFFFFFFFFFFFFFFFFFFFFFFFFFFFFFFFFFFFFFFFFFF DUP3 PUSH2 0x430 JUMP JUMPDEST PUSH2 0x475 DUP7 DUP4 PUSH2 0x430 JUMP JUMPDEST SWAP6 POP DUP1 NOT DUP5 AND SWAP4 POP DUP1 DUP7 AND DUP5 OR SWAP3 POP POP POP SWAP4 SWAP3 POP POP POP JUMP JUMPDEST PUSH0 DUP2 SWAP1 POP SWAP2 SWAP1 POP JUMP JUMPDEST PUSH0 DUP2 SWAP1 POP SWAP2 SWAP1 POP JUMP JUMPDEST PUSH0 PUSH2 0x4B9 PUSH2 0x4B4 PUSH2 0x4AF DUP5 PUSH2 0x48D JUMP JUMPDEST PUSH2 0x496 JUMP JUMPDEST PUSH2 0x48D JUMP JUMPDEST SWAP1 POP SWAP2 SWAP1 POP JUMP JUMPDEST PUSH0 DUP2 SWAP1 POP SWAP2 SWAP1 POP JUMP JUMPDEST PUSH2 0x4D2 DUP4 PUSH2 0x49F JUMP JUMPDEST PUSH2 0x4E6 PUSH2 0x4DE DUP3 PUSH2 0x4C0 JUMP JUMPDEST DUP5 DUP5 SLOAD PUSH2 0x43C JUMP JUMPDEST DUP3 SSTORE POP POP POP POP JUMP JUMPDEST PUSH0 PUSH0 SWAP1 POP SWAP1 JUMP JUMPDEST PUSH2 0x4FD PUSH2 0x4EE JUMP JUMPDEST PUSH2 0x508 DUP2 DUP5 DUP5 PUSH2 0x4C9 JUMP JUMPDEST POP POP POP JUMP JUMPDEST PUSH0 JUMPDEST DUP3 DUP2 LT ISZERO PUSH2 0x52E JUMPI PUSH2 0x523 PUSH0 DUP3 DUP5 ADD PUSH2 0x4F5 JUMP JUMPDEST PUSH1 0x1 DUP2 ADD SWAP1 POP PUSH2 0x50F JUMP JUMPDEST POP POP POP JUMP JUMPDEST PUSH1 0x1F DUP3 GT ISZERO PUSH2 0x581 JUMPI DUP3 DUP3 GT ISZERO PUSH2 0x580 JUMPI PUSH2 0x54D DUP2 PUSH2 0x40F JUMP JUMPDEST PUSH2 0x556 DUP4 PUSH2 0x421 JUMP JUMPDEST PUSH2 0x55F DUP6 PUSH2 0x421 JUMP JUMPDEST PUSH1 0x20 DUP7 LT ISZERO PUSH2 0x56C JUMPI PUSH0 SWAP1 POP JUMPDEST DUP1 DUP4 ADD PUSH2 0x57B DUP3 DUP5 SUB DUP3 PUSH2 0x50D JUMP JUMPDEST POP POP POP POP JUMPDEST JUMPDEST POP POP POP JUMP JUMPDEST PUSH0 DUP3 DUP3 SHR SWAP1 POP SWAP3 SWAP2 POP POP JUMP JUMPDEST PUSH0 PUSH2 0x5A1 PUSH0 NOT DUP5 PUSH1 0x8 MUL PUSH2 0x586 JUMP JUMPDEST NOT DUP1 DUP4 AND SWAP2 POP POP SWAP3 SWAP2 POP POP JUMP JUMPDEST PUSH0 PUSH2 0x5B9 DUP4 DUP4 PUSH2 0x592 JUMP JUMPDEST SWAP2 POP DUP3 PUSH1 0x2 MUL DUP3 OR SWAP1 POP SWAP3 SWAP2 POP POP JUMP JUMPDEST PUSH2 0x5D2 DUP3 PUSH2 0x37B JUMP JUMPDEST PUSH8 0xFFFFFFFFFFFFFFFF DUP2 GT ISZERO PUSH2 0x5EB JUMPI PUSH2 0x5EA PUSH2 0x385 JUMP JUMPDEST JUMPDEST PUSH2 0x5F5 DUP3 SLOAD PUSH2 0x3DF JUMP JUMPDEST PUSH2 0x600 DUP3 DUP3 DUP6 PUSH2 0x533 JUMP JUMPDEST PUSH0 PUSH1 0x20 SWAP1 POP PUSH1 0x1F DUP4 GT PUSH1 0x1 DUP2 EQ PUSH2 0x631 JUMPI PUSH0 DUP5 ISZERO PUSH2 0x61F JUMPI DUP3 DUP8 ADD MLOAD SWAP1 POP JUMPDEST PUSH2 0x629 DUP6 DUP3 PUSH2 0x5AE JUMP JUMPDEST DUP7 SSTORE POP PUSH2 0x690 JUMP JUMPDEST PUSH1 0x1F NOT DUP5 AND PUSH2 0x63F DUP7 PUSH2 0x40F JUMP JUMPDEST PUSH0 JUMPDEST DUP3 DUP2 LT ISZERO PUSH2 0x666 JUMPI DUP5 DUP10 ADD MLOAD DUP3 SSTORE PUSH1 0x1 DUP3 ADD SWAP2 POP PUSH1 0x20 DUP6 ADD SWAP5 POP PUSH1 0x20 DUP2 ADD SWAP1 POP PUSH2 0x641 JUMP JUMPDEST DUP7 DUP4 LT ISZERO PUSH2 0x683 JUMPI DUP5 DUP10 ADD MLOAD PUSH2 0x67F PUSH1 0x1F DUP10 AND DUP3 PUSH2 0x592 JUMP JUMPDEST DUP4 SSTORE POP JUMPDEST PUSH1 0x1 PUSH1 0x2 DUP9 MUL ADD DUP9 SSTORE POP POP POP JUMPDEST POP POP POP POP POP POP JUMP JUMPDEST PUSH0 PUSH20 0xFFFFFFFFFFFFFFFFFFFFFFFFFFFFFFFFFFFFFFFF DUP3 AND SWAP1 POP SWAP2 SWAP1 POP JUMP JUMPDEST PUSH0 PUSH2 0x6C1 DUP3 PUSH2 0x698 JUMP JUMPDEST SWAP1 POP SWAP2 SWAP1 POP JUMP JUMPDEST PUSH2 0x6D1 DUP2 PUSH2 0x6B7 JUMP JUMPDEST DUP3 MSTORE POP POP JUMP JUMPDEST PUSH0 PUSH1 0x20 DUP3 ADD SWAP1 POP PUSH2 0x6EA PUSH0 DUP4 ADD DUP5 PUSH2 0x6C8 JUMP JUMPDEST SWAP3 SWAP2 POP POP JUMP JUMPDEST PUSH1 0x80 MLOAD PUSH2 0x5E3C PUSH2 0x70F PUSH0 CODECOPY PUSH0 DUP2 DUP2 PUSH2 0x71E ADD MSTORE PUSH2 0x28D5 ADD MSTORE PUSH2 0x5E3C PUSH0 RETURN INVALID PUSH1 0x80 PUSH1 0x40 MSTORE CALLVALUE DUP1 ISZERO PUSH2 0xF JUMPI PUSH0 PUSH0 REVERT JUMPDEST POP PUSH1 0x4 CALLDATASIZE LT PUSH2 0x1CC JUMPI PUSH0 CALLDATALOAD PUSH1 0xE0 SHR DUP1 PUSH4 0x6DCEE4CA GT PUSH2 0x102 JUMPI DUP1 PUSH4 0x95D89B41 GT PUSH2 0xA0 JUMPI DUP1 PUSH4 0xC87B56DD GT PUSH2 0x6F JUMPI DUP1 PUSH4 0xC87B56DD EQ PUSH2 0x530 JUMPI DUP1 PUSH4 0xE985E9C5 EQ PUSH2 0x560 JUMPI DUP1 PUSH4 0xECA81D42 EQ PUSH2 0x590 JUMPI DUP1 PUSH4 0xF2FDE38B EQ PUSH2 0x5AC JUMPI PUSH2 0x1CC JUMP JUMPDEST DUP1 PUSH4 0x95D89B41 EQ PUSH2 0x4A5 JUMPI DUP1 PUSH4 0xA22CB465 EQ PUSH2 0x4C3 JUMPI DUP1 PUSH4 0xB4CFAE44 EQ PUSH2 0x4DF JUMPI DUP1 PUSH4 0xB88D4FDE EQ PUSH2 0x514 JUMPI PUSH2 0x1CC JUMP JUMPDEST DUP1 PUSH4 0x715018A6 GT PUSH2 0xDC JUMPI DUP1 PUSH4 0x715018A6 EQ PUSH2 0x441 JUMPI DUP1 PUSH4 0x8DA5CB5B EQ PUSH2 0x44B JUMPI DUP1 PUSH4 0x947A36FB EQ PUSH2 0x469 JUMPI DUP1 PUSH4 0x94881476 EQ PUSH2 0x487 JUMPI PUSH2 0x1CC JUMP JUMPDEST DUP1 PUSH4 0x6DCEE4CA EQ PUSH2 0x3B0 JUMPI DUP1 PUSH4 0x6E04FF0D EQ PUSH2 0x3E0 JUMPI DUP1 PUSH4 0x70A08231 EQ PUSH2 0x411 JUMPI PUSH2 0x1CC JUMP JUMPDEST DUP1 PUSH4 0x13C60177 GT PUSH2 0x16F JUMPI DUP1 PUSH4 0x42842E0E GT PUSH2 0x149 JUMPI DUP1 PUSH4 0x42842E0E EQ PUSH2 0x318 JUMPI DUP1 PUSH4 0x4585E33B EQ PUSH2 0x334 JUMPI DUP1 PUSH4 0x6352211E EQ PUSH2 0x350 JUMPI DUP1 PUSH4 0x68015A4B EQ PUSH2 0x380 JUMPI PUSH2 0x1CC JUMP JUMPDEST DUP1 PUSH4 0x13C60177 EQ PUSH2 0x2C0 JUMPI DUP1 PUSH4 0x23B872DD EQ PUSH2 0x2DE JUMPI DUP1 PUSH4 0x3F3B3B27 EQ PUSH2 0x2FA JUMPI PUSH2 0x1CC JUMP JUMPDEST DUP1 PUSH4 0x81812FC GT PUSH2 0x1AB JUMPI DUP1 PUSH4 0x81812FC EQ PUSH2 0x23A JUMPI DUP1 PUSH4 0x95EA7B3 EQ PUSH2 0x26A JUMPI DUP1 PUSH4 0x9C1BA2E EQ PUSH2 0x286 JUMPI DUP1 PUSH4 0xCA76175 EQ PUSH2 0x2A4 JUMPI PUSH2 0x1CC JUMP JUMPDEST DUP1 PUSH3 0xB46767 EQ PUSH2 0x1D0 JUMPI DUP1 PUSH4 0x1FFC9A7 EQ PUSH2 0x1EC JUMPI DUP1 PUSH4 0x6FDDE03 EQ PUSH2 0x21C JUMPI JUMPDEST PUSH0 PUSH0 REVERT JUMPDEST PUSH2 0x1EA PUSH1 0x4 DUP1 CALLDATASIZE SUB DUP2 ADD SWAP1 PUSH2 0x1E5 SWAP2 SWAP1 PUSH2 0x3655 JUMP JUMPDEST PUSH2 0x5C8 JUMP JUMPDEST STOP JUMPDEST PUSH2 0x206 PUSH1 0x4 DUP1 CALLDATASIZE SUB DUP2 ADD SWAP1 PUSH2 0x201 SWAP2 SWAP1 PUSH2 0x36F1 JUMP JUMPDEST PUSH2 0x5E3 JUMP JUMPDEST PUSH1 0x40 MLOAD PUSH2 0x213 SWAP2 SWAP1 PUSH2 0x3736 JUMP JUMPDEST PUSH1 0x40 MLOAD DUP1 SWAP2 SUB SWAP1 RETURN JUMPDEST PUSH2 0x224 PUSH2 0x643 JUMP JUMPDEST PUSH1 0x40 MLOAD PUSH2 0x231 SWAP2 SWAP1 PUSH2 0x37AF JUMP JUMPDEST PUSH1 0x40 MLOAD DUP1 SWAP2 SUB SWAP1 RETURN JUMPDEST PUSH2 0x254 PUSH1 0x4 DUP1 CALLDATASIZE SUB DUP2 ADD SWAP1 PUSH2 0x24F SWAP2 SWAP1 PUSH2 0x3802 JUMP JUMPDEST PUSH2 0x6D2 JUMP JUMPDEST PUSH1 0x40 MLOAD PUSH2 0x261 SWAP2 SWAP1 PUSH2 0x386C JUMP JUMPDEST PUSH1 0x40 MLOAD DUP1 SWAP2 SUB SWAP1 RETURN JUMPDEST PUSH2 0x284 PUSH1 0x4 DUP1 CALLDATASIZE SUB DUP2 ADD SWAP1 PUSH2 0x27F SWAP2 SWAP1 PUSH2 0x38AF JUMP JUMPDEST PUSH2 0x6ED JUMP JUMPDEST STOP JUMPDEST PUSH2 0x28E PUSH2 0x703 JUMP JUMPDEST PUSH1 0x40 MLOAD PUSH2 0x29B SWAP2 SWAP1 PUSH2 0x390F JUMP JUMPDEST PUSH1 0x40 MLOAD DUP1 SWAP2 SUB SWAP1 RETURN JUMPDEST PUSH2 0x2BE PUSH1 0x4 DUP1 CALLDATASIZE SUB DUP2 ADD SWAP1 PUSH2 0x2B9 SWAP2 SWAP1 PUSH2 0x39F9 JUMP JUMPDEST PUSH2 0x71C JUMP JUMPDEST STOP JUMPDEST PUSH2 0x2C8 PUSH2 0x7DE JUMP JUMPDEST PUSH1 0x40 MLOAD PUSH2 0x2D5 SWAP2 SWAP1 PUSH2 0x37AF JUMP JUMPDEST PUSH1 0x40 MLOAD DUP1 SWAP2 SUB SWAP1 RETURN JUMPDEST PUSH2 0x2F8 PUSH1 0x4 DUP1 CALLDATASIZE SUB DUP2 ADD SWAP1 PUSH2 0x2F3 SWAP2 SWAP1 PUSH2 0x3A81 JUMP JUMPDEST PUSH2 0x86A JUMP JUMPDEST STOP JUMPDEST PUSH2 0x302 PUSH2 0x969 JUMP JUMPDEST PUSH1 0x40 MLOAD PUSH2 0x30F SWAP2 SWAP1 PUSH2 0x3AE0 JUMP JUMPDEST PUSH1 0x40 MLOAD DUP1 SWAP2 SUB SWAP1 RETURN JUMPDEST PUSH2 0x332 PUSH1 0x4 DUP1 CALLDATASIZE SUB DUP2 ADD SWAP1 PUSH2 0x32D SWAP2 SWAP1 PUSH2 0x3A81 JUMP JUMPDEST PUSH2 0x96F JUMP JUMPDEST STOP JUMPDEST PUSH2 0x34E PUSH1 0x4 DUP1 CALLDATASIZE SUB DUP2 ADD SWAP1 PUSH2 0x349 SWAP2 SWAP1 PUSH2 0x3B56 JUMP JUMPDEST PUSH2 0x98E JUMP JUMPDEST STOP JUMPDEST PUSH2 0x36A PUSH1 0x4 DUP1 CALLDATASIZE SUB DUP2 ADD SWAP1 PUSH2 0x365 SWAP2 SWAP1 PUSH2 0x3802 JUMP JUMPDEST PUSH2 0xA59 JUMP JUMPDEST PUSH1 0x40 MLOAD PUSH2 0x377 SWAP2 SWAP1 PUSH2 0x386C JUMP JUMPDEST PUSH1 0x40 MLOAD DUP1 SWAP2 SUB SWAP1 RETURN JUMPDEST PUSH2 0x39A PUSH1 0x4 DUP1 CALLDATASIZE SUB DUP2 ADD SWAP1 PUSH2 0x395 SWAP2 SWAP1 PUSH2 0x3BA1 JUMP JUMPDEST PUSH2 0xA6A JUMP JUMPDEST PUSH1 0x40 MLOAD PUSH2 0x3A7 SWAP2 SWAP1 PUSH2 0x3AE0 JUMP JUMPDEST PUSH1 0x40 MLOAD DUP1 SWAP2 SUB SWAP1 RETURN JUMPDEST PUSH2 0x3CA PUSH1 0x4 DUP1 CALLDATASIZE SUB DUP2 ADD SWAP1 PUSH2 0x3C5 SWAP2 SWAP1 PUSH2 0x3802 JUMP JUMPDEST PUSH2 0xA7F JUMP JUMPDEST PUSH1 0x40 MLOAD PUSH2 0x3D7 SWAP2 SWAP1 PUSH2 0x37AF JUMP JUMPDEST PUSH1 0x40 MLOAD DUP1 SWAP2 SUB SWAP1 RETURN JUMPDEST PUSH2 0x3FA PUSH1 0x4 DUP1 CALLDATASIZE SUB DUP2 ADD SWAP1 PUSH2 0x3F5 SWAP2 SWAP1 PUSH2 0x3B56 JUMP JUMPDEST PUSH2 0xD81 JUMP JUMPDEST PUSH1 0x40 MLOAD PUSH2 0x408 SWAP3 SWAP2 SWAP1 PUSH2 0x3C1E JUMP JUMPDEST PUSH1 0x40 MLOAD DUP1 SWAP2 SUB SWAP1 RETURN JUMPDEST PUSH2 0x42B PUSH1 0x4 DUP1 CALLDATASIZE SUB DUP2 ADD SWAP1 PUSH2 0x426 SWAP2 SWAP1 PUSH2 0x3C4C JUMP JUMPDEST PUSH2 0xDBF JUMP JUMPDEST PUSH1 0x40 MLOAD PUSH2 0x438 SWAP2 SWAP1 PUSH2 0x3AE0 JUMP JUMPDEST PUSH1 0x40 MLOAD DUP1 SWAP2 SUB SWAP1 RETURN JUMPDEST PUSH2 0x449 PUSH2 0xE75 JUMP JUMPDEST STOP JUMPDEST PUSH2 0x453 PUSH2 0xE88 JUMP JUMPDEST PUSH1 0x40 MLOAD PUSH2 0x460 SWAP2 SWAP1 PUSH2 0x386C JUMP JUMPDEST PUSH1 0x40 MLOAD DUP1 SWAP2 SUB SWAP1 RETURN JUMPDEST PUSH2 0x471 PUSH2 0xEB0 JUMP JUMPDEST PUSH1 0x40 MLOAD PUSH2 0x47E SWAP2 SWAP1 PUSH2 0x3AE0 JUMP JUMPDEST PUSH1 0x40 MLOAD DUP1 SWAP2 SUB SWAP1 RETURN JUMPDEST PUSH2 0x48F PUSH2 0xEB6 JUMP JUMPDEST PUSH1 0x40 MLOAD PUSH2 0x49C SWAP2 SWAP1 PUSH2 0x3AE0 JUMP JUMPDEST PUSH1 0x40 MLOAD DUP1 SWAP2 SUB SWAP1 RETURN JUMPDEST PUSH2 0x4AD PUSH2 0xEBC JUMP JUMPDEST PUSH1 0x40 MLOAD PUSH2 0x4BA SWAP2 SWAP1 PUSH2 0x37AF JUMP JUMPDEST PUSH1 0x40 MLOAD DUP1 SWAP2 SUB SWAP1 RETURN JUMPDEST PUSH2 0x4DD PUSH1 0x4 DUP1 CALLDATASIZE SUB DUP2 ADD SWAP1 PUSH2 0x4D8 SWAP2 SWAP1 PUSH2 0x3CA1 JUMP JUMPDEST PUSH2 0xF4C JUMP JUMPDEST STOP JUMPDEST PUSH2 0x4F9 PUSH1 0x4 DUP1 CALLDATASIZE SUB DUP2 ADD SWAP1 PUSH2 0x4F4 SWAP2 SWAP1 PUSH2 0x3802 JUMP JUMPDEST PUSH2 0xF62 JUMP JUMPDEST PUSH1 0x40 MLOAD PUSH2 0x50B SWAP7 SWAP6 SWAP5 SWAP4 SWAP3 SWAP2 SWAP1 PUSH2 0x3CDF JUMP JUMPDEST PUSH1 0x40 MLOAD DUP1 SWAP2 SUB SWAP1 RETURN JUMPDEST PUSH2 0x52E PUSH1 0x4 DUP1 CALLDATASIZE SUB DUP2 ADD SWAP1 PUSH2 0x529 SWAP2 SWAP1 PUSH2 0x3D4C JUMP JUMPDEST PUSH2 0x10F5 JUMP JUMPDEST STOP JUMPDEST PUSH2 0x54A PUSH1 0x4 DUP1 CALLDATASIZE SUB DUP2 ADD SWAP1 PUSH2 0x545 SWAP2 SWAP1 PUSH2 0x3802 JUMP JUMPDEST PUSH2 0x111A JUMP JUMPDEST PUSH1 0x40 MLOAD PUSH2 0x557 SWAP2 SWAP1 PUSH2 0x37AF JUMP JUMPDEST PUSH1 0x40 MLOAD DUP1 SWAP2 SUB SWAP1 RETURN JUMPDEST PUSH2 0x57A PUSH1 0x4 DUP1 CALLDATASIZE SUB DUP2 ADD SWAP1 PUSH2 0x575 SWAP2 SWAP1 PUSH2 0x3DCC JUMP JUMPDEST PUSH2 0x118E JUMP JUMPDEST PUSH1 0x40 MLOAD PUSH2 0x587 SWAP2 SWAP1 PUSH2 0x3736 JUMP JUMPDEST PUSH1 0x40 MLOAD DUP1 SWAP2 SUB SWAP1 RETURN JUMPDEST PUSH2 0x5AA PUSH1 0x4 DUP1 CALLDATASIZE SUB DUP2 ADD SWAP1 PUSH2 0x5A5 SWAP2 SWAP1 PUSH2 0x3E0A JUMP JUMPDEST PUSH2 0x121C JUMP JUMPDEST STOP JUMPDEST PUSH2 0x5C6 PUSH1 0x4 DUP1 CALLDATASIZE SUB DUP2 ADD SWAP1 PUSH2 0x5C1 SWAP2 SWAP1 PUSH2 0x3C4C JUMP JUMPDEST PUSH2 0x139F JUMP JUMPDEST STOP JUMPDEST PUSH2 0x5D0 PUSH2 0x1423 JUMP JUMPDEST DUP1 PUSH1 0xC SWAP1 DUP2 PUSH2 0x5DF SWAP2 SWAP1 PUSH2 0x40A0 JUMP JUMPDEST POP POP JUMP JUMPDEST PUSH0 PUSH4 0x49064906 PUSH1 0xE0 SHL PUSH28 0xFFFFFFFFFFFFFFFFFFFFFFFFFFFFFFFFFFFFFFFFFFFFFFFFFFFFFFFF NOT AND DUP3 PUSH28 0xFFFFFFFFFFFFFFFFFFFFFFFFFFFFFFFFFFFFFFFFFFFFFFFFFFFFFFFF NOT AND EQ DUP1 PUSH2 0x63C JUMPI POP PUSH2 0x63B DUP3 PUSH2 0x14AA JUMP JUMPDEST JUMPDEST SWAP1 POP SWAP2 SWAP1 POP JUMP JUMPDEST PUSH1 0x60 PUSH0 DUP1 SLOAD PUSH2 0x651 SWAP1 PUSH2 0x3EBF JUMP JUMPDEST DUP1 PUSH1 0x1F ADD PUSH1 0x20 DUP1 SWAP2 DIV MUL PUSH1 0x20 ADD PUSH1 0x40 MLOAD SWAP1 DUP2 ADD PUSH1 0x40 MSTORE DUP1 SWAP3 SWAP2 SWAP1 DUP2 DUP2 MSTORE PUSH1 0x20 ADD DUP3 DUP1 SLOAD PUSH2 0x67D SWAP1 PUSH2 0x3EBF JUMP JUMPDEST DUP1 ISZERO PUSH2 0x6C8 JUMPI DUP1 PUSH1 0x1F LT PUSH2 0x69F JUMPI PUSH2 0x100 DUP1 DUP4 SLOAD DIV MUL DUP4 MSTORE SWAP2 PUSH1 0x20 ADD SWAP2 PUSH2 0x6C8 JUMP JUMPDEST DUP3 ADD SWAP2 SWAP1 PUSH0 MSTORE PUSH1 0x20 PUSH0 KECCAK256 SWAP1 JUMPDEST DUP2 SLOAD DUP2 MSTORE SWAP1 PUSH1 0x1 ADD SWAP1 PUSH1 0x20 ADD DUP1 DUP4 GT PUSH2 0x6AB JUMPI DUP3 SWAP1 SUB PUSH1 0x1F AND DUP3 ADD SWAP2 JUMPDEST POP POP POP POP POP SWAP1 POP SWAP1 JUMP JUMPDEST PUSH0 PUSH2 0x6DC DUP3 PUSH2 0x158B JUMP JUMPDEST POP PUSH2 0x6E6 DUP3 PUSH2 0x1611 JUMP JUMPDEST SWAP1 POP SWAP2 SWAP1 POP JUMP JUMPDEST PUSH2 0x6FF DUP3 DUP3 PUSH2 0x6FA PUSH2 0x164A JUMP JUMPDEST PUSH2 0x1651 JUMP JUMPDEST POP POP JUMP JUMPDEST PUSH1 0xB PUSH0 SWAP1 SLOAD SWAP1 PUSH2 0x100 EXP SWAP1 DIV PUSH8 0xFFFFFFFFFFFFFFFF AND DUP2 JUMP JUMPDEST PUSH32 0x0 PUSH20 0xFFFFFFFFFFFFFFFFFFFFFFFFFFFFFFFFFFFFFFFF AND CALLER PUSH20 0xFFFFFFFFFFFFFFFFFFFFFFFFFFFFFFFFFFFFFFFF AND EQ PUSH2 0x7A1 JUMPI PUSH1 0x40 MLOAD PUSH32 0xC6829F8300000000000000000000000000000000000000000000000000000000 DUP2 MSTORE PUSH1 0x4 ADD PUSH1 0x40 MLOAD DUP1 SWAP2 SUB SWAP1 REVERT JUMPDEST PUSH2 0x7AC DUP4 DUP4 DUP4 PUSH2 0x1663 JUMP JUMPDEST DUP3 PUSH32 0x85E1543BF2F84FE80C6BADBCE3648C8539AD1DF4D2B3D822938CA0538BE727E6 PUSH1 0x40 MLOAD PUSH1 0x40 MLOAD DUP1 SWAP2 SUB SWAP1 LOG2 POP POP POP JUMP JUMPDEST PUSH1 0xC DUP1 SLOAD PUSH2 0x7EB SWAP1 PUSH2 0x3EBF JUMP JUMPDEST DUP1 PUSH1 0x1F ADD PUSH1 0x20 DUP1 SWAP2 DIV MUL PUSH1 0x20 ADD PUSH1 0x40 MLOAD SWAP1 DUP2 ADD PUSH1 0x40 MSTORE DUP1 SWAP3 SWAP2 SWAP1 DUP2 DUP2 MSTORE PUSH1 0x20 ADD DUP3 DUP1 SLOAD PUSH2 0x817 SWAP1 PUSH2 0x3EBF JUMP JUMPDEST DUP1 ISZERO PUSH2 0x862 JUMPI DUP1 PUSH1 0x1F LT PUSH2 0x839 JUMPI PUSH2 0x100 DUP1 DUP4 SLOAD DIV MUL DUP4 MSTORE SWAP2 PUSH1 0x20 ADD SWAP2 PUSH2 0x862 JUMP JUMPDEST DUP3 ADD SWAP2 SWAP1 PUSH0 MSTORE PUSH1 0x20 PUSH0 KECCAK256 SWAP1 JUMPDEST DUP2 SLOAD DUP2 MSTORE SWAP1 PUSH1 0x1 ADD SWAP1 PUSH1 0x20 ADD DUP1 DUP4 GT PUSH2 0x845 JUMPI DUP3 SWAP1 SUB PUSH1 0x1F AND DUP3 ADD SWAP2 JUMPDEST POP POP POP POP POP DUP2 JUMP JUMPDEST PUSH0 PUSH20 0xFFFFFFFFFFFFFFFFFFFFFFFFFFFFFFFFFFFFFFFF AND DUP3 PUSH20 0xFFFFFFFFFFFFFFFFFFFFFFFFFFFFFFFFFFFFFFFF AND SUB PUSH2 0x8DA JUMPI PUSH0 PUSH1 0x40 MLOAD PUSH32 0x64A0AE9200000000000000000000000000000000000000000000000000000000 DUP2 MSTORE PUSH1 0x4 ADD PUSH2 0x8D1 SWAP2 SWAP1 PUSH2 0x386C JUMP JUMPDEST PUSH1 0x40 MLOAD DUP1 SWAP2 SUB SWAP1 REVERT JUMPDEST PUSH0 PUSH2 0x8ED DUP4 DUP4 PUSH2 0x8E8 PUSH2 0x164A JUMP JUMPDEST PUSH2 0x17D0 JUMP JUMPDEST SWAP1 POP DUP4 PUSH20 0xFFFFFFFFFFFFFFFFFFFFFFFFFFFFFFFFFFFFFFFF AND DUP2 PUSH20 0xFFFFFFFFFFFFFFFFFFFFFFFFFFFFFFFFFFFFFFFF AND EQ PUSH2 0x963 JUMPI DUP4 DUP3 DUP3 PUSH1 0x40 MLOAD PUSH32 0x64283D7B00000000000000000000000000000000000000000000000000000000 DUP2 MSTORE PUSH1 0x4 ADD PUSH2 0x95A SWAP4 SWAP3 SWAP2 SWAP1 PUSH2 0x416F JUMP JUMPDEST PUSH1 0x40 MLOAD DUP1 SWAP2 SUB SWAP1 REVERT JUMPDEST POP POP POP POP JUMP JUMPDEST PUSH1 0xD SLOAD DUP2 JUMP JUMPDEST PUSH2 0x989 DUP4 DUP4 DUP4 PUSH1 0x40 MLOAD DUP1 PUSH1 0x20 ADD PUSH1 0x40 MSTORE DUP1 PUSH0 DUP2 MSTORE POP PUSH2 0x10F5 JUMP JUMPDEST POP POP POP JUMP JUMPDEST PUSH1 0xE SLOAD PUSH1 0xD SLOAD TIMESTAMP PUSH2 0x99F SWAP2 SWAP1 PUSH2 0x41D1 JUMP JUMPDEST GT ISZERO PUSH2 0xA55 JUMPI TIMESTAMP PUSH1 0xD DUP2 SWAP1 SSTORE POP PUSH2 0xA53 PUSH1 0xF SLOAD PUSH1 0x10 PUSH0 PUSH1 0xF SLOAD DUP2 MSTORE PUSH1 0x20 ADD SWAP1 DUP2 MSTORE PUSH1 0x20 ADD PUSH0 KECCAK256 PUSH0 ADD DUP1 SLOAD PUSH2 0x9D2 SWAP1 PUSH2 0x3EBF JUMP JUMPDEST DUP1 PUSH1 0x1F ADD PUSH1 0x20 DUP1 SWAP2 DIV MUL PUSH1 0x20 ADD PUSH1 0x40 MLOAD SWAP1 DUP2 ADD PUSH1 0x40 MSTORE DUP1 SWAP3 SWAP2 SWAP1 DUP2 DUP2 MSTORE PUSH1 0x20 ADD DUP3 DUP1 SLOAD PUSH2 0x9FE SWAP1 PUSH2 0x3EBF JUMP JUMPDEST DUP1 ISZERO PUSH2 0xA49 JUMPI DUP1 PUSH1 0x1F LT PUSH2 0xA20 JUMPI PUSH2 0x100 DUP1 DUP4 SLOAD DIV MUL DUP4 MSTORE SWAP2 PUSH1 0x20 ADD SWAP2 PUSH2 0xA49 JUMP JUMPDEST DUP3 ADD SWAP2 SWAP1 PUSH0 MSTORE PUSH1 0x20 PUSH0 KECCAK256 SWAP1 JUMPDEST DUP2 SLOAD DUP2 MSTORE SWAP1 PUSH1 0x1 ADD SWAP1 PUSH1 0x20 ADD DUP1 DUP4 GT PUSH2 0xA2C JUMPI DUP3 SWAP1 SUB PUSH1 0x1F AND DUP3 ADD SWAP2 JUMPDEST POP POP POP POP POP PUSH2 0x19DB JUMP JUMPDEST POP JUMPDEST POP POP JUMP JUMPDEST PUSH0 PUSH2 0xA63 DUP3 PUSH2 0x158B JUMP JUMPDEST SWAP1 POP SWAP2 SWAP1 POP JUMP JUMPDEST PUSH1 0x11 PUSH1 0x20 MSTORE DUP1 PUSH0 MSTORE PUSH1 0x40 PUSH0 KECCAK256 PUSH0 SWAP2 POP SWAP1 POP SLOAD DUP2 JUMP JUMPDEST PUSH1 0x60 PUSH0 PUSH1 0x10 PUSH0 DUP5 DUP2 MSTORE PUSH1 0x20 ADD SWAP1 DUP2 MSTORE PUSH1 0x20 ADD PUSH0 KECCAK256 PUSH1 0x40 MLOAD DUP1 PUSH1 0xC0 ADD PUSH1 0x40 MSTORE SWAP1 DUP2 PUSH0 DUP3 ADD DUP1 SLOAD PUSH2 0xAAD SWAP1 PUSH2 0x3EBF JUMP JUMPDEST DUP1 PUSH1 0x1F ADD PUSH1 0x20 DUP1 SWAP2 DIV MUL PUSH1 0x20 ADD PUSH1 0x40 MLOAD SWAP1 DUP2 ADD PUSH1 0x40 MSTORE DUP1 SWAP3 SWAP2 SWAP1 DUP2 DUP2 MSTORE PUSH1 0x20 ADD DUP3 DUP1 SLOAD PUSH2 0xAD9 SWAP1 PUSH2 0x3EBF JUMP JUMPDEST DUP1 ISZERO PUSH2 0xB24 JUMPI DUP1 PUSH1 0x1F LT PUSH2 0xAFB JUMPI PUSH2 0x100 DUP1 DUP4 SLOAD DIV MUL DUP4 MSTORE SWAP2 PUSH1 0x20 ADD SWAP2 PUSH2 0xB24 JUMP JUMPDEST DUP3 ADD SWAP2 SWAP1 PUSH0 MSTORE PUSH1 0x20 PUSH0 KECCAK256 SWAP1 JUMPDEST DUP2 SLOAD DUP2 MSTORE SWAP1 PUSH1 0x1 ADD SWAP1 PUSH1 0x20 ADD DUP1 DUP4 GT PUSH2 0xB07 JUMPI DUP3 SWAP1 SUB PUSH1 0x1F AND DUP3 ADD SWAP2 JUMPDEST POP POP POP POP POP DUP2 MSTORE PUSH1 0x20 ADD PUSH1 0x1 DUP3 ADD DUP1 SLOAD PUSH2 0xB3D SWAP1 PUSH2 0x3EBF JUMP JUMPDEST DUP1 PUSH1 0x1F ADD PUSH1 0x20 DUP1 SWAP2 DIV MUL PUSH1 0x20 ADD PUSH1 0x40 MLOAD SWAP1 DUP2 ADD PUSH1 0x40 MSTORE DUP1 SWAP3 SWAP2 SWAP1 DUP2 DUP2 MSTORE PUSH1 0x20 ADD DUP3 DUP1 SLOAD PUSH2 0xB69 SWAP1 PUSH2 0x3EBF JUMP JUMPDEST DUP1 ISZERO PUSH2 0xBB4 JUMPI DUP1 PUSH1 0x1F LT PUSH2 0xB8B JUMPI PUSH2 0x100 DUP1 DUP4 SLOAD DIV MUL DUP4 MSTORE SWAP2 PUSH1 0x20 ADD SWAP2 PUSH2 0xBB4 JUMP JUMPDEST DUP3 ADD SWAP2 SWAP1 PUSH0 MSTORE PUSH1 0x20 PUSH0 KECCAK256 SWAP1 JUMPDEST DUP2 SLOAD DUP2 MSTORE SWAP1 PUSH1 0x1 ADD SWAP1 PUSH1 0x20 ADD DUP1 DUP4 GT PUSH2 0xB97 JUMPI DUP3 SWAP1 SUB PUSH1 0x1F AND DUP3 ADD SWAP2 JUMPDEST POP POP POP POP POP DUP2 MSTORE PUSH1 0x20 ADD PUSH1 0x2 DUP3 ADD PUSH0 SWAP1 SLOAD SWAP1 PUSH2 0x100 EXP SWAP1 DIV PUSH8 0xFFFFFFFFFFFFFFFF AND PUSH8 0xFFFFFFFFFFFFFFFF AND PUSH8 0xFFFFFFFFFFFFFFFF AND DUP2 MSTORE PUSH1 0x20 ADD PUSH1 0x2 DUP3 ADD PUSH1 0x8 SWAP1 SLOAD SWAP1 PUSH2 0x100 EXP SWAP1 DIV PUSH8 0xFFFFFFFFFFFFFFFF AND PUSH8 0xFFFFFFFFFFFFFFFF AND PUSH8 0xFFFFFFFFFFFFFFFF AND DUP2 MSTORE PUSH1 0x20 ADD PUSH1 0x2 DUP3 ADD PUSH1 0x10 SWAP1 SLOAD SWAP1 PUSH2 0x100 EXP SWAP1 DIV PUSH8 0xFFFFFFFFFFFFFFFF AND PUSH8 0xFFFFFFFFFFFFFFFF AND PUSH8 0xFFFFFFFFFFFFFFFF AND DUP2 MSTORE PUSH1 0x20 ADD PUSH1 0x2 DUP3 ADD PUSH1 0x18 SWAP1 SLOAD SWAP1 PUSH2 0x100 EXP SWAP1 DIV PUSH8 0xFFFFFFFFFFFFFFFF AND PUSH8 0xFFFFFFFFFFFFFFFF AND PUSH8 0xFFFFFFFFFFFFFFFF AND DUP2 MSTORE POP POP SWAP1 POP PUSH0 PUSH0 DUP3 PUSH1 0x80 ADD MLOAD PUSH8 0xFFFFFFFFFFFFFFFF AND EQ PUSH2 0xCA6 JUMPI DUP2 PUSH1 0x80 ADD MLOAD PUSH2 0xCA9 JUMP JUMPDEST PUSH1 0x1 JUMPDEST SWAP1 POP PUSH0 DUP2 PUSH8 0xFFFFFFFFFFFFFFFF AND PUSH1 0x64 DUP5 PUSH1 0xA0 ADD MLOAD PUSH8 0xFFFFFFFFFFFFFFFF AND DUP6 PUSH1 0x60 ADD MLOAD PUSH8 0xFFFFFFFFFFFFFFFF AND PUSH2 0xCE1 SWAP2 SWAP1 PUSH2 0x4204 JUMP JUMPDEST PUSH2 0xCEB SWAP2 SWAP1 PUSH2 0x4237 JUMP JUMPDEST PUSH2 0xCF5 SWAP2 SWAP1 PUSH2 0x42A5 JUMP JUMPDEST SWAP1 POP PUSH0 PUSH2 0xD0D PUSH1 0x64 DUP4 PUSH2 0xD08 SWAP2 SWAP1 PUSH2 0x42A5 JUMP JUMPDEST PUSH2 0x1B51 JUMP JUMPDEST PUSH2 0xD22 PUSH1 0x64 DUP5 PUSH2 0xD1D SWAP2 SWAP1 PUSH2 0x42D5 JUMP JUMPDEST PUSH2 0x1B51 JUMP JUMPDEST PUSH1 0x40 MLOAD PUSH1 0x20 ADD PUSH2 0xD33 SWAP3 SWAP2 SWAP1 PUSH2 0x4365 JUMP JUMPDEST PUSH1 0x40 MLOAD PUSH1 0x20 DUP2 DUP4 SUB SUB DUP2 MSTORE SWAP1 PUSH1 0x40 MSTORE SWAP1 POP PUSH2 0xD4C PUSH2 0x1C1B JUMP JUMPDEST PUSH2 0xD56 DUP6 DUP4 PUSH2 0x1C3E JUMP JUMPDEST PUSH1 0x40 MLOAD PUSH1 0x20 ADD PUSH2 0xD67 SWAP3 SWAP2 SWAP1 PUSH2 0x461E JUMP JUMPDEST PUSH1 0x40 MLOAD PUSH1 0x20 DUP2 DUP4 SUB SUB DUP2 MSTORE SWAP1 PUSH1 0x40 MSTORE SWAP5 POP POP POP POP POP SWAP2 SWAP1 POP JUMP JUMPDEST PUSH0 PUSH1 0x60 PUSH1 0xE SLOAD PUSH1 0xD SLOAD TIMESTAMP PUSH2 0xD95 SWAP2 SWAP1 PUSH2 0x41D1 JUMP JUMPDEST GT DUP1 ISZERO PUSH2 0xDA5 JUMPI POP PUSH1 0x8 SLOAD PUSH1 0xF SLOAD LT JUMPDEST SWAP2 POP PUSH1 0x40 MLOAD DUP1 PUSH1 0x20 ADD PUSH1 0x40 MSTORE DUP1 PUSH0 DUP2 MSTORE POP SWAP1 POP SWAP3 POP SWAP3 SWAP1 POP JUMP JUMPDEST PUSH0 PUSH0 PUSH20 0xFFFFFFFFFFFFFFFFFFFFFFFFFFFFFFFFFFFFFFFF AND DUP3 PUSH20 0xFFFFFFFFFFFFFFFFFFFFFFFFFFFFFFFFFFFFFFFF AND SUB PUSH2 0xE30 JUMPI PUSH0 PUSH1 0x40 MLOAD PUSH32 0x89C62B6400000000000000000000000000000000000000000000000000000000 DUP2 MSTORE PUSH1 0x4 ADD PUSH2 0xE27 SWAP2 SWAP1 PUSH2 0x386C JUMP JUMPDEST PUSH1 0x40 MLOAD DUP1 SWAP2 SUB SWAP1 REVERT JUMPDEST PUSH1 0x3 PUSH0 DUP4 PUSH20 0xFFFFFFFFFFFFFFFFFFFFFFFFFFFFFFFFFFFFFFFF AND PUSH20 0xFFFFFFFFFFFFFFFFFFFFFFFFFFFFFFFFFFFFFFFF AND DUP2 MSTORE PUSH1 0x20 ADD SWAP1 DUP2 MSTORE PUSH1 0x20 ADD PUSH0 KECCAK256 SLOAD SWAP1 POP SWAP2 SWAP1 POP JUMP JUMPDEST PUSH2 0xE7D PUSH2 0x1423 JUMP JUMPDEST PUSH2 0xE86 PUSH0 PUSH2 0x1CD3 JUMP JUMPDEST JUMP JUMPDEST PUSH0 PUSH1 0x7 PUSH0 SWAP1 SLOAD SWAP1 PUSH2 0x100 EXP SWAP1 DIV PUSH20 0xFFFFFFFFFFFFFFFFFFFFFFFFFFFFFFFFFFFFFFFF AND SWAP1 POP SWAP1 JUMP JUMPDEST PUSH1 0xE SLOAD DUP2 JUMP JUMPDEST PUSH1 0xF SLOAD DUP2 JUMP JUMPDEST PUSH1 0x60 PUSH1 0x1 DUP1 SLOAD PUSH2 0xECB SWAP1 PUSH2 0x3EBF JUMP JUMPDEST DUP1 PUSH1 0x1F ADD PUSH1 0x20 DUP1 SWAP2 DIV MUL PUSH1 0x20 ADD PUSH1 0x40 MLOAD SWAP1 DUP2 ADD PUSH1 0x40 MSTORE DUP1 SWAP3 SWAP2 SWAP1 DUP2 DUP2 MSTORE PUSH1 0x20 ADD DUP3 DUP1 SLOAD PUSH2 0xEF7 SWAP1 PUSH2 0x3EBF JUMP JUMPDEST DUP1 ISZERO PUSH2 0xF42 JUMPI DUP1 PUSH1 0x1F LT PUSH2 0xF19 JUMPI PUSH2 0x100 DUP1 DUP4 SLOAD DIV MUL DUP4 MSTORE SWAP2 PUSH1 0x20 ADD SWAP2 PUSH2 0xF42 JUMP JUMPDEST DUP3 ADD SWAP2 SWAP1 PUSH0 MSTORE PUSH1 0x20 PUSH0 KECCAK256 SWAP1 JUMPDEST DUP2 SLOAD DUP2 MSTORE SWAP1 PUSH1 0x1 ADD SWAP1 PUSH1 0x20 ADD DUP1 DUP4 GT PUSH2 0xF25 JUMPI DUP3 SWAP1 SUB PUSH1 0x1F AND DUP3 ADD SWAP2 JUMPDEST POP POP POP POP POP SWAP1 POP SWAP1 JUMP JUMPDEST PUSH2 0xF5E PUSH2 0xF57 PUSH2 0x164A JUMP JUMPDEST DUP4 DUP4 PUSH2 0x1D96 JUMP JUMPDEST POP POP JUMP JUMPDEST PUSH1 0x10 PUSH1 0x20 MSTORE DUP1 PUSH0 MSTORE PUSH1 0x40 PUSH0 KECCAK256 PUSH0 SWAP2 POP SWAP1 POP DUP1 PUSH0 ADD DUP1 SLOAD PUSH2 0xF81 SWAP1 PUSH2 0x3EBF JUMP JUMPDEST DUP1 PUSH1 0x1F ADD PUSH1 0x20 DUP1 SWAP2 DIV MUL PUSH1 0x20 ADD PUSH1 0x40 MLOAD SWAP1 DUP2 ADD PUSH1 0x40 MSTORE DUP1 SWAP3 SWAP2 SWAP1 DUP2 DUP2 MSTORE PUSH1 0x20 ADD DUP3 DUP1 SLOAD PUSH2 0xFAD SWAP1 PUSH2 0x3EBF JUMP JUMPDEST DUP1 ISZERO PUSH2 0xFF8 JUMPI DUP1 PUSH1 0x1F LT PUSH2 0xFCF JUMPI PUSH2 0x100 DUP1 DUP4 SLOAD DIV MUL DUP4 MSTORE SWAP2 PUSH1 0x20 ADD SWAP2 PUSH2 0xFF8 JUMP JUMPDEST DUP3 ADD SWAP2 SWAP1 PUSH0 MSTORE PUSH1 0x20 PUSH0 KECCAK256 SWAP1 JUMPDEST DUP2 SLOAD DUP2 MSTORE SWAP1 PUSH1 0x1 ADD SWAP1 PUSH1 0x20 ADD DUP1 DUP4 GT PUSH2 0xFDB JUMPI DUP3 SWAP1 SUB PUSH1 0x1F AND DUP3 ADD SWAP2 JUMPDEST POP POP POP POP POP SWAP1 DUP1 PUSH1 0x1 ADD DUP1 SLOAD PUSH2 0x100D SWAP1 PUSH2 0x3EBF JUMP JUMPDEST DUP1 PUSH1 0x1F ADD PUSH1 0x20 DUP1 SWAP2 DIV MUL PUSH1 0x20 ADD PUSH1 0x40 MLOAD SWAP1 DUP2 ADD PUSH1 0x40 MSTORE DUP1 SWAP3 SWAP2 SWAP1 DUP2 DUP2 MSTORE PUSH1 0x20 ADD DUP3 DUP1 SLOAD PUSH2 0x1039 SWAP1 PUSH2 0x3EBF JUMP JUMPDEST DUP1 ISZERO PUSH2 0x1084 JUMPI DUP1 PUSH1 0x1F LT PUSH2 0x105B JUMPI PUSH2 0x100 DUP1 DUP4 SLOAD DIV MUL DUP4 MSTORE SWAP2 PUSH1 0x20 ADD SWAP2 PUSH2 0x1084 JUMP JUMPDEST DUP3 ADD SWAP2 SWAP1 PUSH0 MSTORE PUSH1 0x20 PUSH0 KECCAK256 SWAP1 JUMPDEST DUP2 SLOAD DUP2 MSTORE SWAP1 PUSH1 0x1 ADD SWAP1 PUSH1 0x20 ADD DUP1 DUP4 GT PUSH2 0x1067 JUMPI DUP3 SWAP1 SUB PUSH1 0x1F AND DUP3 ADD SWAP2 JUMPDEST POP POP POP POP POP SWAP1 DUP1 PUSH1 0x2 ADD PUSH0 SWAP1 SLOAD SWAP1 PUSH2 0x100 EXP SWAP1 DIV PUSH8 0xFFFFFFFFFFFFFFFF AND SWAP1 DUP1 PUSH1 0x2 ADD PUSH1 0x8 SWAP1 SLOAD SWAP1 PUSH2 0x100 EXP SWAP1 DIV PUSH8 0xFFFFFFFFFFFFFFFF AND SWAP1 DUP1 PUSH1 0x2 ADD PUSH1 0x10 SWAP1 SLOAD SWAP1 PUSH2 0x100 EXP SWAP1 DIV PUSH8 0xFFFFFFFFFFFFFFFF AND SWAP1 DUP1 PUSH1 0x2 ADD PUSH1 0x18 SWAP1 SLOAD SWAP1 PUSH2 0x100 EXP SWAP1 DIV PUSH8 0xFFFFFFFFFFFFFFFF AND SWAP1 POP DUP7 JUMP JUMPDEST PUSH2 0x1100 DUP5 DUP5 DUP5 PUSH2 0x86A JUMP JUMPDEST PUSH2 0x1114 PUSH2 0x110B PUSH2 0x164A JUMP JUMPDEST DUP6 DUP6 DUP6 DUP6 PUSH2 0x1F6F JUMP JUMPDEST POP POP POP POP JUMP JUMPDEST PUSH1 0x60 PUSH0 PUSH2 0x112E PUSH2 0x1129 DUP5 PUSH2 0xA7F JUMP JUMPDEST PUSH2 0x211B JUMP JUMPDEST SWAP1 POP PUSH0 PUSH2 0x1163 PUSH2 0x113D DUP6 PUSH2 0x1B51 JUMP JUMPDEST DUP4 PUSH1 0x40 MLOAD PUSH1 0x20 ADD PUSH2 0x114F SWAP3 SWAP2 SWAP1 PUSH2 0x4722 JUMP JUMPDEST PUSH1 0x40 MLOAD PUSH1 0x20 DUP2 DUP4 SUB SUB DUP2 MSTORE SWAP1 PUSH1 0x40 MSTORE PUSH2 0x211B JUMP JUMPDEST SWAP1 POP DUP1 PUSH1 0x40 MLOAD PUSH1 0x20 ADD PUSH2 0x1176 SWAP2 SWAP1 PUSH2 0x4794 JUMP JUMPDEST PUSH1 0x40 MLOAD PUSH1 0x20 DUP2 DUP4 SUB SUB DUP2 MSTORE SWAP1 PUSH1 0x40 MSTORE SWAP3 POP POP POP SWAP2 SWAP1 POP JUMP JUMPDEST PUSH0 PUSH1 0x5 PUSH0 DUP5 PUSH20 0xFFFFFFFFFFFFFFFFFFFFFFFFFFFFFFFFFFFFFFFF AND PUSH20 0xFFFFFFFFFFFFFFFFFFFFFFFFFFFFFFFFFFFFFFFF AND DUP2 MSTORE PUSH1 0x20 ADD SWAP1 DUP2 MSTORE PUSH1 0x20 ADD PUSH0 KECCAK256 PUSH0 DUP4 PUSH20 0xFFFFFFFFFFFFFFFFFFFFFFFFFFFFFFFFFFFFFFFF AND PUSH20 0xFFFFFFFFFFFFFFFFFFFFFFFFFFFFFFFFFFFFFFFF AND DUP2 MSTORE PUSH1 0x20 ADD SWAP1 DUP2 MSTORE PUSH1 0x20 ADD PUSH0 KECCAK256 PUSH0 SWAP1 SLOAD SWAP1 PUSH2 0x100 EXP SWAP1 DIV PUSH1 0xFF AND SWAP1 POP SWAP3 SWAP2 POP POP JUMP JUMPDEST PUSH2 0x1224 PUSH2 0x1423 JUMP JUMPDEST PUSH0 PUSH1 0x8 SLOAD SWAP1 POP PUSH1 0x40 MLOAD DUP1 PUSH1 0xC0 ADD PUSH1 0x40 MSTORE DUP1 DUP5 DUP2 MSTORE PUSH1 0x20 ADD DUP4 DUP2 MSTORE PUSH1 0x20 ADD PUSH0 PUSH8 0xFFFFFFFFFFFFFFFF AND DUP2 MSTORE PUSH1 0x20 ADD PUSH0 PUSH8 0xFFFFFFFFFFFFFFFF AND DUP2 MSTORE PUSH1 0x20 ADD PUSH0 PUSH8 0xFFFFFFFFFFFFFFFF AND DUP2 MSTORE PUSH1 0x20 ADD PUSH0 PUSH8 0xFFFFFFFFFFFFFFFF AND DUP2 MSTORE POP PUSH1 0x10 PUSH0 DUP4 DUP2 MSTORE PUSH1 0x20 ADD SWAP1 DUP2 MSTORE PUSH1 0x20 ADD PUSH0 KECCAK256 PUSH0 DUP3 ADD MLOAD DUP2 PUSH0 ADD SWAP1 DUP2 PUSH2 0x12A3 SWAP2 SWAP1 PUSH2 0x40A0 JUMP JUMPDEST POP PUSH1 0x20 DUP3 ADD MLOAD DUP2 PUSH1 0x1 ADD SWAP1 DUP2 PUSH2 0x12B9 SWAP2 SWAP1 PUSH2 0x40A0 JUMP JUMPDEST POP PUSH1 0x40 DUP3 ADD MLOAD DUP2 PUSH1 0x2 ADD PUSH0 PUSH2 0x100 EXP DUP2 SLOAD DUP2 PUSH8 0xFFFFFFFFFFFFFFFF MUL NOT AND SWAP1 DUP4 PUSH8 0xFFFFFFFFFFFFFFFF AND MUL OR SWAP1 SSTORE POP PUSH1 0x60 DUP3 ADD MLOAD DUP2 PUSH1 0x2 ADD PUSH1 0x8 PUSH2 0x100 EXP DUP2 SLOAD DUP2 PUSH8 0xFFFFFFFFFFFFFFFF MUL NOT AND SWAP1 DUP4 PUSH8 0xFFFFFFFFFFFFFFFF AND MUL OR SWAP1 SSTORE POP PUSH1 0x80 DUP3 ADD MLOAD DUP2 PUSH1 0x2 ADD PUSH1 0x10 PUSH2 0x100 EXP DUP2 SLOAD DUP2 PUSH8 0xFFFFFFFFFFFFFFFF MUL NOT AND SWAP1 DUP4 PUSH8 0xFFFFFFFFFFFFFFFF AND MUL OR SWAP1 SSTORE POP PUSH1 0xA0 DUP3 ADD MLOAD DUP2 PUSH1 0x2 ADD PUSH1 0x18 PUSH2 0x100 EXP DUP2 SLOAD DUP2 PUSH8 0xFFFFFFFFFFFFFFFF MUL NOT AND SWAP1 DUP4 PUSH8 0xFFFFFFFFFFFFFFFF AND MUL OR SWAP1 SSTORE POP SWAP1 POP POP PUSH2 0x1382 DUP5 DUP3 PUSH2 0x212E JUMP JUMPDEST PUSH1 0x8 PUSH0 DUP2 SLOAD DUP1 SWAP3 SWAP2 SWAP1 PUSH2 0x1394 SWAP1 PUSH2 0x47B9 JUMP JUMPDEST SWAP2 SWAP1 POP SSTORE POP POP POP POP POP JUMP JUMPDEST PUSH2 0x13A7 PUSH2 0x1423 JUMP JUMPDEST PUSH0 PUSH20 0xFFFFFFFFFFFFFFFFFFFFFFFFFFFFFFFFFFFFFFFF AND DUP2 PUSH20 0xFFFFFFFFFFFFFFFFFFFFFFFFFFFFFFFFFFFFFFFF AND SUB PUSH2 0x1417 JUMPI PUSH0 PUSH1 0x40 MLOAD PUSH32 0x1E4FBDF700000000000000000000000000000000000000000000000000000000 DUP2 MSTORE PUSH1 0x4 ADD PUSH2 0x140E SWAP2 SWAP1 PUSH2 0x386C JUMP JUMPDEST PUSH1 0x40 MLOAD DUP1 SWAP2 SUB SWAP1 REVERT JUMPDEST PUSH2 0x1420 DUP2 PUSH2 0x1CD3 JUMP JUMPDEST POP JUMP JUMPDEST PUSH2 0x142B PUSH2 0x164A JUMP JUMPDEST PUSH20 0xFFFFFFFFFFFFFFFFFFFFFFFFFFFFFFFFFFFFFFFF AND PUSH2 0x1449 PUSH2 0xE88 JUMP JUMPDEST PUSH20 0xFFFFFFFFFFFFFFFFFFFFFFFFFFFFFFFFFFFFFFFF AND EQ PUSH2 0x14A8 JUMPI PUSH2 0x146C PUSH2 0x164A JUMP JUMPDEST PUSH1 0x40 MLOAD PUSH32 0x118CDAA700000000000000000000000000000000000000000000000000000000 DUP2 MSTORE PUSH1 0x4 ADD PUSH2 0x149F SWAP2 SWAP1 PUSH2 0x386C JUMP JUMPDEST PUSH1 0x40 MLOAD DUP1 SWAP2 SUB SWAP1 REVERT JUMPDEST JUMP JUMPDEST PUSH0 PUSH32 0x80AC58CD00000000000000000000000000000000000000000000000000000000 PUSH28 0xFFFFFFFFFFFFFFFFFFFFFFFFFFFFFFFFFFFFFFFFFFFFFFFFFFFFFFFF NOT AND DUP3 PUSH28 0xFFFFFFFFFFFFFFFFFFFFFFFFFFFFFFFFFFFFFFFFFFFFFFFFFFFFFFFF NOT AND EQ DUP1 PUSH2 0x1574 JUMPI POP PUSH32 0x5B5E139F00000000000000000000000000000000000000000000000000000000 PUSH28 0xFFFFFFFFFFFFFFFFFFFFFFFFFFFFFFFFFFFFFFFFFFFFFFFFFFFFFFFF NOT AND DUP3 PUSH28 0xFFFFFFFFFFFFFFFFFFFFFFFFFFFFFFFFFFFFFFFFFFFFFFFFFFFFFFFF NOT AND EQ JUMPDEST DUP1 PUSH2 0x1584 JUMPI POP PUSH2 0x1583 DUP3 PUSH2 0x214B JUMP JUMPDEST JUMPDEST SWAP1 POP SWAP2 SWAP1 POP JUMP JUMPDEST PUSH0 PUSH0 PUSH2 0x1596 DUP4 PUSH2 0x21B4 JUMP JUMPDEST SWAP1 POP PUSH0 PUSH20 0xFFFFFFFFFFFFFFFFFFFFFFFFFFFFFFFFFFFFFFFF AND DUP2 PUSH20 0xFFFFFFFFFFFFFFFFFFFFFFFFFFFFFFFFFFFFFFFF AND SUB PUSH2 0x1608 JUMPI DUP3 PUSH1 0x40 MLOAD PUSH32 0x7E27328900000000000000000000000000000000000000000000000000000000 DUP2 MSTORE PUSH1 0x4 ADD PUSH2 0x15FF SWAP2 SWAP1 PUSH2 0x3AE0 JUMP JUMPDEST PUSH1 0x40 MLOAD DUP1 SWAP2 SUB SWAP1 REVERT JUMPDEST DUP1 SWAP2 POP POP SWAP2 SWAP1 POP JUMP JUMPDEST PUSH0 PUSH1 0x4 PUSH0 DUP4 DUP2 MSTORE PUSH1 0x20 ADD SWAP1 DUP2 MSTORE PUSH1 0x20 ADD PUSH0 KECCAK256 PUSH0 SWAP1 SLOAD SWAP1 PUSH2 0x100 EXP SWAP1 DIV PUSH20 0xFFFFFFFFFFFFFFFFFFFFFFFFFFFFFFFFFFFFFFFF AND SWAP1 POP SWAP2 SWAP1 POP JUMP JUMPDEST PUSH0 CALLER SWAP1 POP SWAP1 JUMP JUMPDEST PUSH2 0x165E DUP4 DUP4 DUP4 PUSH1 0x1 PUSH2 0x21ED JUMP JUMPDEST POP POP POP JUMP JUMPDEST PUSH0 DUP2 MLOAD EQ PUSH2 0x16A6 JUMPI PUSH1 0x40 MLOAD PUSH32 0x8C379A000000000000000000000000000000000000000000000000000000000 DUP2 MSTORE PUSH1 0x4 ADD PUSH2 0x169D SWAP1 PUSH2 0x484A JUMP JUMPDEST PUSH1 0x40 MLOAD DUP1 SWAP2 SUB SWAP1 REVERT JUMPDEST PUSH0 PUSH1 0x11 PUSH0 DUP6 DUP2 MSTORE PUSH1 0x20 ADD SWAP1 DUP2 MSTORE PUSH1 0x20 ADD PUSH0 KECCAK256 SLOAD SWAP1 POP PUSH0 DUP4 DUP1 PUSH1 0x20 ADD SWAP1 MLOAD DUP2 ADD SWAP1 PUSH2 0x16D0 SWAP2 SWAP1 PUSH2 0x487C JUMP JUMPDEST SWAP1 POP DUP1 PUSH1 0x10 PUSH0 DUP5 DUP2 MSTORE PUSH1 0x20 ADD SWAP1 DUP2 MSTORE PUSH1 0x20 ADD PUSH0 KECCAK256 PUSH1 0x2 ADD PUSH1 0x18 PUSH2 0x100 EXP DUP2 SLOAD DUP2 PUSH8 0xFFFFFFFFFFFFFFFF MUL NOT AND SWAP1 DUP4 PUSH8 0xFFFFFFFFFFFFFFFF AND MUL OR SWAP1 SSTORE POP PUSH1 0x40 DUP2 SWAP1 SHR PUSH1 0x10 PUSH0 DUP5 DUP2 MSTORE PUSH1 0x20 ADD SWAP1 DUP2 MSTORE PUSH1 0x20 ADD PUSH0 KECCAK256 PUSH1 0x2 ADD PUSH1 0x10 PUSH2 0x100 EXP DUP2 SLOAD DUP2 PUSH8 0xFFFFFFFFFFFFFFFF MUL NOT AND SWAP1 DUP4 PUSH8 0xFFFFFFFFFFFFFFFF AND MUL OR SWAP1 SSTORE POP PUSH1 0x80 DUP2 SWAP1 SHR PUSH1 0x10 PUSH0 DUP5 DUP2 MSTORE PUSH1 0x20 ADD SWAP1 DUP2 MSTORE PUSH1 0x20 ADD PUSH0 KECCAK256 PUSH1 0x2 ADD PUSH1 0x8 PUSH2 0x100 EXP DUP2 SLOAD DUP2 PUSH8 0xFFFFFFFFFFFFFFFF MUL NOT AND SWAP1 DUP4 PUSH8 0xFFFFFFFFFFFFFFFF AND MUL OR SWAP1 SSTORE POP PUSH1 0xC0 DUP2 SWAP1 SHR PUSH1 0x10 PUSH0 DUP5 DUP2 MSTORE PUSH1 0x20 ADD SWAP1 DUP2 MSTORE PUSH1 0x20 ADD PUSH0 KECCAK256 PUSH1 0x2 ADD PUSH0 PUSH2 0x100 EXP DUP2 SLOAD DUP2 PUSH8 0xFFFFFFFFFFFFFFFF MUL NOT AND SWAP1 DUP4 PUSH8 0xFFFFFFFFFFFFFFFF AND MUL OR SWAP1 SSTORE POP POP POP POP POP POP JUMP JUMPDEST PUSH0 PUSH0 PUSH2 0x17DB DUP5 PUSH2 0x21B4 JUMP JUMPDEST SWAP1 POP PUSH0 PUSH20 0xFFFFFFFFFFFFFFFFFFFFFFFFFFFFFFFFFFFFFFFF AND DUP4 PUSH20 0xFFFFFFFFFFFFFFFFFFFFFFFFFFFFFFFFFFFFFFFF AND EQ PUSH2 0x181C JUMPI PUSH2 0x181B DUP2 DUP5 DUP7 PUSH2 0x23AC JUMP JUMPDEST JUMPDEST PUSH0 PUSH20 0xFFFFFFFFFFFFFFFFFFFFFFFFFFFFFFFFFFFFFFFF AND DUP2 PUSH20 0xFFFFFFFFFFFFFFFFFFFFFFFFFFFFFFFFFFFFFFFF AND EQ PUSH2 0x18A7 JUMPI PUSH2 0x185B PUSH0 DUP6 PUSH0 PUSH0 PUSH2 0x21ED JUMP JUMPDEST PUSH1 0x1 PUSH1 0x3 PUSH0 DUP4 PUSH20 0xFFFFFFFFFFFFFFFFFFFFFFFFFFFFFFFFFFFFFFFF AND PUSH20 0xFFFFFFFFFFFFFFFFFFFFFFFFFFFFFFFFFFFFFFFF AND DUP2 MSTORE PUSH1 0x20 ADD SWAP1 DUP2 MSTORE PUSH1 0x20 ADD PUSH0 KECCAK256 PUSH0 DUP3 DUP3 SLOAD SUB SWAP3 POP POP DUP2 SWAP1 SSTORE POP JUMPDEST PUSH0 PUSH20 0xFFFFFFFFFFFFFFFFFFFFFFFFFFFFFFFFFFFFFFFF AND DUP6 PUSH20 0xFFFFFFFFFFFFFFFFFFFFFFFFFFFFFFFFFFFFFFFF AND EQ PUSH2 0x1926 JUMPI PUSH1 0x1 PUSH1 0x3 PUSH0 DUP8 PUSH20 0xFFFFFFFFFFFFFFFFFFFFFFFFFFFFFFFFFFFFFFFF AND PUSH20 0xFFFFFFFFFFFFFFFFFFFFFFFFFFFFFFFFFFFFFFFF AND DUP2 MSTORE PUSH1 0x20 ADD SWAP1 DUP2 MSTORE PUSH1 0x20 ADD PUSH0 KECCAK256 PUSH0 DUP3 DUP3 SLOAD ADD SWAP3 POP POP DUP2 SWAP1 SSTORE POP JUMPDEST DUP5 PUSH1 0x2 PUSH0 DUP7 DUP2 MSTORE PUSH1 0x20 ADD SWAP1 DUP2 MSTORE PUSH1 0x20 ADD PUSH0 KECCAK256 PUSH0 PUSH2 0x100 EXP DUP2 SLOAD DUP2 PUSH20 0xFFFFFFFFFFFFFFFFFFFFFFFFFFFFFFFFFFFFFFFF MUL NOT AND SWAP1 DUP4 PUSH20 0xFFFFFFFFFFFFFFFFFFFFFFFFFFFFFFFFFFFFFFFF AND MUL OR SWAP1 SSTORE POP DUP4 DUP6 PUSH20 0xFFFFFFFFFFFFFFFFFFFFFFFFFFFFFFFFFFFFFFFF AND DUP3 PUSH20 0xFFFFFFFFFFFFFFFFFFFFFFFFFFFFFFFFFFFFFFFF AND PUSH32 0xDDF252AD1BE2C89B69C2B068FC378DAA952BA7F163C4A11628F55A4DF523B3EF PUSH1 0x40 MLOAD PUSH1 0x40 MLOAD DUP1 SWAP2 SUB SWAP1 LOG4 DUP1 SWAP2 POP POP SWAP4 SWAP3 POP POP POP JUMP JUMPDEST PUSH0 PUSH2 0x19E4 PUSH2 0x3461 JUMP JUMPDEST PUSH2 0x1A7F PUSH1 0xC DUP1 SLOAD PUSH2 0x19F4 SWAP1 PUSH2 0x3EBF JUMP JUMPDEST DUP1 PUSH1 0x1F ADD PUSH1 0x20 DUP1 SWAP2 DIV MUL PUSH1 0x20 ADD PUSH1 0x40 MLOAD SWAP1 DUP2 ADD PUSH1 0x40 MSTORE DUP1 SWAP3 SWAP2 SWAP1 DUP2 DUP2 MSTORE PUSH1 0x20 ADD DUP3 DUP1 SLOAD PUSH2 0x1A20 SWAP1 PUSH2 0x3EBF JUMP JUMPDEST DUP1 ISZERO PUSH2 0x1A6B JUMPI DUP1 PUSH1 0x1F LT PUSH2 0x1A42 JUMPI PUSH2 0x100 DUP1 DUP4 SLOAD DIV MUL DUP4 MSTORE SWAP2 PUSH1 0x20 ADD SWAP2 PUSH2 0x1A6B JUMP JUMPDEST DUP3 ADD SWAP2 SWAP1 PUSH0 MSTORE PUSH1 0x20 PUSH0 KECCAK256 SWAP1 JUMPDEST DUP2 SLOAD DUP2 MSTORE SWAP1 PUSH1 0x1 ADD SWAP1 PUSH1 0x20 ADD DUP1 DUP4 GT PUSH2 0x1A4E JUMPI DUP3 SWAP1 SUB PUSH1 0x1F AND DUP3 ADD SWAP2 JUMPDEST POP POP POP POP POP DUP3 PUSH2 0x246F SWAP1 SWAP2 SWAP1 PUSH4 0xFFFFFFFF AND JUMP JUMPDEST PUSH0 PUSH1 0x1 PUSH8 0xFFFFFFFFFFFFFFFF DUP2 GT ISZERO PUSH2 0x1A9B JUMPI PUSH2 0x1A9A PUSH2 0x3531 JUMP JUMPDEST JUMPDEST PUSH1 0x40 MLOAD SWAP1 DUP1 DUP3 MSTORE DUP1 PUSH1 0x20 MUL PUSH1 0x20 ADD DUP3 ADD PUSH1 0x40 MSTORE DUP1 ISZERO PUSH2 0x1ACE JUMPI DUP2 PUSH1 0x20 ADD JUMPDEST PUSH1 0x60 DUP2 MSTORE PUSH1 0x20 ADD SWAP1 PUSH1 0x1 SWAP1 SUB SWAP1 DUP2 PUSH2 0x1AB9 JUMPI SWAP1 POP JUMPDEST POP SWAP1 POP DUP4 DUP2 PUSH0 DUP2 MLOAD DUP2 LT PUSH2 0x1AE5 JUMPI PUSH2 0x1AE4 PUSH2 0x48A7 JUMP JUMPDEST JUMPDEST PUSH1 0x20 MUL PUSH1 0x20 ADD ADD DUP2 SWAP1 MSTORE POP PUSH2 0x1B03 DUP2 DUP4 PUSH2 0x247F SWAP1 SWAP2 SWAP1 PUSH4 0xFFFFFFFF AND JUMP JUMPDEST PUSH2 0x1B31 PUSH2 0x1B0F DUP4 PUSH2 0x24C6 JUMP JUMPDEST PUSH1 0xB PUSH0 SWAP1 SLOAD SWAP1 PUSH2 0x100 EXP SWAP1 DIV PUSH8 0xFFFFFFFFFFFFFFFF AND PUSH3 0x493E0 PUSH1 0xA SLOAD PUSH2 0x28D1 JUMP JUMPDEST SWAP3 POP DUP5 PUSH1 0x11 PUSH0 DUP6 DUP2 MSTORE PUSH1 0x20 ADD SWAP1 DUP2 MSTORE PUSH1 0x20 ADD PUSH0 KECCAK256 DUP2 SWAP1 SSTORE POP POP POP SWAP3 SWAP2 POP POP JUMP JUMPDEST PUSH1 0x60 PUSH0 PUSH1 0x1 PUSH2 0x1B5F DUP5 PUSH2 0x29B0 JUMP JUMPDEST ADD SWAP1 POP PUSH0 DUP2 PUSH8 0xFFFFFFFFFFFFFFFF DUP2 GT ISZERO PUSH2 0x1B7D JUMPI PUSH2 0x1B7C PUSH2 0x3531 JUMP JUMPDEST JUMPDEST PUSH1 0x40 MLOAD SWAP1 DUP1 DUP3 MSTORE DUP1 PUSH1 0x1F ADD PUSH1 0x1F NOT AND PUSH1 0x20 ADD DUP3 ADD PUSH1 0x40 MSTORE DUP1 ISZERO PUSH2 0x1BAF JUMPI DUP2 PUSH1 0x20 ADD PUSH1 0x1 DUP3 MUL DUP1 CALLDATASIZE DUP4 CALLDATACOPY DUP1 DUP3 ADD SWAP2 POP POP SWAP1 POP JUMPDEST POP SWAP1 POP PUSH0 DUP3 PUSH1 0x20 DUP4 ADD ADD SWAP1 POP JUMPDEST PUSH1 0x1 ISZERO PUSH2 0x1C10 JUMPI DUP1 DUP1 PUSH1 0x1 SWAP1 SUB SWAP2 POP POP PUSH32 0x3031323334353637383961626364656600000000000000000000000000000000 PUSH1 0xA DUP7 MOD BYTE DUP2 MSTORE8 PUSH1 0xA DUP6 DUP2 PUSH2 0x1C05 JUMPI PUSH2 0x1C04 PUSH2 0x4278 JUMP JUMPDEST JUMPDEST DIV SWAP5 POP PUSH0 DUP6 SUB PUSH2 0x1BBC JUMPI JUMPDEST DUP2 SWAP4 POP POP POP POP SWAP2 SWAP1 POP JUMP JUMPDEST PUSH1 0x60 PUSH1 0x40 MLOAD DUP1 PUSH2 0x8C0 ADD PUSH1 0x40 MSTORE DUP1 PUSH2 0x894 DUP2 MSTORE PUSH1 0x20 ADD PUSH2 0x5573 PUSH2 0x894 SWAP2 CODECOPY SWAP1 POP SWAP1 JUMP JUMPDEST PUSH1 0x60 DUP3 PUSH0 ADD MLOAD DUP4 PUSH1 0x20 ADD MLOAD PUSH2 0x1C60 DUP6 PUSH1 0x40 ADD MLOAD PUSH8 0xFFFFFFFFFFFFFFFF AND PUSH2 0x1B51 JUMP JUMPDEST PUSH2 0x1C77 DUP7 PUSH1 0x60 ADD MLOAD PUSH8 0xFFFFFFFFFFFFFFFF AND PUSH2 0x1B51 JUMP JUMPDEST PUSH2 0x1C8E DUP8 PUSH1 0x80 ADD MLOAD PUSH8 0xFFFFFFFFFFFFFFFF AND PUSH2 0x1B51 JUMP JUMPDEST PUSH2 0x1CA5 DUP9 PUSH1 0xA0 ADD MLOAD PUSH8 0xFFFFFFFFFFFFFFFF AND PUSH2 0x1B51 JUMP JUMPDEST DUP8 PUSH1 0x40 MLOAD PUSH1 0x20 ADD PUSH2 0x1CBC SWAP8 SWAP7 SWAP6 SWAP5 SWAP4 SWAP3 SWAP2 SWAP1 PUSH2 0x5110 JUMP JUMPDEST PUSH1 0x40 MLOAD PUSH1 0x20 DUP2 DUP4 SUB SUB DUP2 MSTORE SWAP1 PUSH1 0x40 MSTORE SWAP1 POP SWAP3 SWAP2 POP POP JUMP JUMPDEST PUSH0 PUSH1 0x7 PUSH0 SWAP1 SLOAD SWAP1 PUSH2 0x100 EXP SWAP1 DIV PUSH20 0xFFFFFFFFFFFFFFFFFFFFFFFFFFFFFFFFFFFFFFFF AND SWAP1 POP DUP2 PUSH1 0x7 PUSH0 PUSH2 0x100 EXP DUP2 SLOAD DUP2 PUSH20 0xFFFFFFFFFFFFFFFFFFFFFFFFFFFFFFFFFFFFFFFF MUL NOT AND SWAP1 DUP4 PUSH20 0xFFFFFFFFFFFFFFFFFFFFFFFFFFFFFFFFFFFFFFFF AND MUL OR SWAP1 SSTORE POP DUP2 PUSH20 0xFFFFFFFFFFFFFFFFFFFFFFFFFFFFFFFFFFFFFFFF AND DUP2 PUSH20 0xFFFFFFFFFFFFFFFFFFFFFFFFFFFFFFFFFFFFFFFF AND PUSH32 0x8BE0079C531659141344CD1FD0A4F28419497F9722A3DAAFE3B4186F6B6457E0 PUSH1 0x40 MLOAD PUSH1 0x40 MLOAD DUP1 SWAP2 SUB SWAP1 LOG3 POP POP JUMP JUMPDEST PUSH0 PUSH20 0xFFFFFFFFFFFFFFFFFFFFFFFFFFFFFFFFFFFFFFFF AND DUP4 PUSH20 0xFFFFFFFFFFFFFFFFFFFFFFFFFFFFFFFFFFFFFFFF AND SUB PUSH2 0x1E06 JUMPI PUSH0 PUSH1 0x40 MLOAD PUSH32 0xA9FBF51F00000000000000000000000000000000000000000000000000000000 DUP2 MSTORE PUSH1 0x4 ADD PUSH2 0x1DFD SWAP2 SWAP1 PUSH2 0x386C JUMP JUMPDEST PUSH1 0x40 MLOAD DUP1 SWAP2 SUB SWAP1 REVERT JUMPDEST PUSH0 PUSH20 0xFFFFFFFFFFFFFFFFFFFFFFFFFFFFFFFFFFFFFFFF AND DUP3 PUSH20 0xFFFFFFFFFFFFFFFFFFFFFFFFFFFFFFFFFFFFFFFF AND SUB PUSH2 0x1E76 JUMPI DUP2 PUSH1 0x40 MLOAD PUSH32 0x5B08BA1800000000000000000000000000000000000000000000000000000000 DUP2 MSTORE PUSH1 0x4 ADD PUSH2 0x1E6D SWAP2 SWAP1 PUSH2 0x386C JUMP JUMPDEST PUSH1 0x40 MLOAD DUP1 SWAP2 SUB SWAP1 REVERT JUMPDEST DUP1 PUSH1 0x5 PUSH0 DUP6 PUSH20 0xFFFFFFFFFFFFFFFFFFFFFFFFFFFFFFFFFFFFFFFF AND PUSH20 0xFFFFFFFFFFFFFFFFFFFFFFFFFFFFFFFFFFFFFFFF AND DUP2 MSTORE PUSH1 0x20 ADD SWAP1 DUP2 MSTORE PUSH1 0x20 ADD PUSH0 KECCAK256 PUSH0 DUP5 PUSH20 0xFFFFFFFFFFFFFFFFFFFFFFFFFFFFFFFFFFFFFFFF AND PUSH20 0xFFFFFFFFFFFFFFFFFFFFFFFFFFFFFFFFFFFFFFFF AND DUP2 MSTORE PUSH1 0x20 ADD SWAP1 DUP2 MSTORE PUSH1 0x20 ADD PUSH0 KECCAK256 PUSH0 PUSH2 0x100 EXP DUP2 SLOAD DUP2 PUSH1 0xFF MUL NOT AND SWAP1 DUP4 ISZERO ISZERO MUL OR SWAP1 SSTORE POP DUP2 PUSH20 0xFFFFFFFFFFFFFFFFFFFFFFFFFFFFFFFFFFFFFFFF AND DUP4 PUSH20 0xFFFFFFFFFFFFFFFFFFFFFFFFFFFFFFFFFFFFFFFF AND PUSH32 0x17307EAB39AB6107E8899845AD3D59BD9653F200F220920489CA2B5937696C31 DUP4 PUSH1 0x40 MLOAD PUSH2 0x1F62 SWAP2 SWAP1 PUSH2 0x3736 JUMP JUMPDEST PUSH1 0x40 MLOAD DUP1 SWAP2 SUB SWAP1 LOG3 POP POP POP JUMP JUMPDEST PUSH0 DUP4 PUSH20 0xFFFFFFFFFFFFFFFFFFFFFFFFFFFFFFFFFFFFFFFF AND EXTCODESIZE GT ISZERO PUSH2 0x2114 JUMPI DUP3 PUSH20 0xFFFFFFFFFFFFFFFFFFFFFFFFFFFFFFFFFFFFFFFF AND PUSH4 0x150B7A02 DUP7 DUP7 DUP6 DUP6 PUSH1 0x40 MLOAD DUP6 PUSH4 0xFFFFFFFF AND PUSH1 0xE0 SHL DUP2 MSTORE PUSH1 0x4 ADD PUSH2 0x1FCD SWAP5 SWAP4 SWAP3 SWAP2 SWAP1 PUSH2 0x523C JUMP JUMPDEST PUSH1 0x20 PUSH1 0x40 MLOAD DUP1 DUP4 SUB DUP2 PUSH0 DUP8 GAS CALL SWAP3 POP POP POP DUP1 ISZERO PUSH2 0x2008 JUMPI POP PUSH1 0x40 MLOAD RETURNDATASIZE PUSH1 0x1F NOT PUSH1 0x1F DUP3 ADD AND DUP3 ADD DUP1 PUSH1 0x40 MSTORE POP DUP2 ADD SWAP1 PUSH2 0x2005 SWAP2 SWAP1 PUSH2 0x529A JUMP JUMPDEST PUSH1 0x1 JUMPDEST PUSH2 0x2089 JUMPI RETURNDATASIZE DUP1 PUSH0 DUP2 EQ PUSH2 0x2036 JUMPI PUSH1 0x40 MLOAD SWAP2 POP PUSH1 0x1F NOT PUSH1 0x3F RETURNDATASIZE ADD AND DUP3 ADD PUSH1 0x40 MSTORE RETURNDATASIZE DUP3 MSTORE RETURNDATASIZE PUSH0 PUSH1 0x20 DUP5 ADD RETURNDATACOPY PUSH2 0x203B JUMP JUMPDEST PUSH1 0x60 SWAP2 POP JUMPDEST POP PUSH0 DUP2 MLOAD SUB PUSH2 0x2081 JUMPI DUP4 PUSH1 0x40 MLOAD PUSH32 0x64A0AE9200000000000000000000000000000000000000000000000000000000 DUP2 MSTORE PUSH1 0x4 ADD PUSH2 0x2078 SWAP2 SWAP1 PUSH2 0x386C JUMP JUMPDEST PUSH1 0x40 MLOAD DUP1 SWAP2 SUB SWAP1 REVERT JUMPDEST DUP1 MLOAD PUSH1 0x20 DUP3 ADD REVERT JUMPDEST PUSH4 0x150B7A02 PUSH1 0xE0 SHL PUSH28 0xFFFFFFFFFFFFFFFFFFFFFFFFFFFFFFFFFFFFFFFFFFFFFFFFFFFFFFFF NOT AND DUP2 PUSH28 0xFFFFFFFFFFFFFFFFFFFFFFFFFFFFFFFFFFFFFFFFFFFFFFFFFFFFFFFF NOT AND EQ PUSH2 0x2112 JUMPI DUP4 PUSH1 0x40 MLOAD PUSH32 0x64A0AE9200000000000000000000000000000000000000000000000000000000 DUP2 MSTORE PUSH1 0x4 ADD PUSH2 0x2109 SWAP2 SWAP1 PUSH2 0x386C JUMP JUMPDEST PUSH1 0x40 MLOAD DUP1 SWAP2 SUB SWAP1 REVERT JUMPDEST POP JUMPDEST POP POP POP POP POP JUMP JUMPDEST PUSH1 0x60 PUSH2 0x2127 DUP3 PUSH0 PUSH2 0x2B01 JUMP JUMPDEST SWAP1 POP SWAP2 SWAP1 POP JUMP JUMPDEST PUSH2 0x2147 DUP3 DUP3 PUSH1 0x40 MLOAD DUP1 PUSH1 0x20 ADD PUSH1 0x40 MSTORE DUP1 PUSH0 DUP2 MSTORE POP PUSH2 0x2C8B JUMP JUMPDEST POP POP JUMP JUMPDEST PUSH0 PUSH32 0x1FFC9A700000000000000000000000000000000000000000000000000000000 PUSH28 0xFFFFFFFFFFFFFFFFFFFFFFFFFFFFFFFFFFFFFFFFFFFFFFFFFFFFFFFF NOT AND DUP3 PUSH28 0xFFFFFFFFFFFFFFFFFFFFFFFFFFFFFFFFFFFFFFFFFFFFFFFFFFFFFFFF NOT AND EQ SWAP1 POP SWAP2 SWAP1 POP JUMP JUMPDEST PUSH0 PUSH1 0x2 PUSH0 DUP4 DUP2 MSTORE PUSH1 0x20 ADD SWAP1 DUP2 MSTORE PUSH1 0x20 ADD PUSH0 KECCAK256 PUSH0 SWAP1 SLOAD SWAP1 PUSH2 0x100 EXP SWAP1 DIV PUSH20 0xFFFFFFFFFFFFFFFFFFFFFFFFFFFFFFFFFFFFFFFF AND SWAP1 POP SWAP2 SWAP1 POP JUMP JUMPDEST DUP1 DUP1 PUSH2 0x2225 JUMPI POP PUSH0 PUSH20 0xFFFFFFFFFFFFFFFFFFFFFFFFFFFFFFFFFFFFFFFF AND DUP3 PUSH20 0xFFFFFFFFFFFFFFFFFFFFFFFFFFFFFFFFFFFFFFFF AND EQ ISZERO JUMPDEST ISZERO PUSH2 0x2357 JUMPI PUSH0 PUSH2 0x2234 DUP5 PUSH2 0x158B JUMP JUMPDEST SWAP1 POP PUSH0 PUSH20 0xFFFFFFFFFFFFFFFFFFFFFFFFFFFFFFFFFFFFFFFF AND DUP4 PUSH20 0xFFFFFFFFFFFFFFFFFFFFFFFFFFFFFFFFFFFFFFFF AND EQ ISZERO DUP1 ISZERO PUSH2 0x229E JUMPI POP DUP3 PUSH20 0xFFFFFFFFFFFFFFFFFFFFFFFFFFFFFFFFFFFFFFFF AND DUP2 PUSH20 0xFFFFFFFFFFFFFFFFFFFFFFFFFFFFFFFFFFFFFFFF AND EQ ISZERO JUMPDEST DUP1 ISZERO PUSH2 0x22B1 JUMPI POP PUSH2 0x22AF DUP2 DUP5 PUSH2 0x118E JUMP JUMPDEST ISZERO JUMPDEST ISZERO PUSH2 0x22F3 JUMPI DUP3 PUSH1 0x40 MLOAD PUSH32 0xA9FBF51F00000000000000000000000000000000000000000000000000000000 DUP2 MSTORE PUSH1 0x4 ADD PUSH2 0x22EA SWAP2 SWAP1 PUSH2 0x386C JUMP JUMPDEST PUSH1 0x40 MLOAD DUP1 SWAP2 SUB SWAP1 REVERT JUMPDEST DUP2 ISZERO PUSH2 0x2355 JUMPI DUP4 DUP6 PUSH20 0xFFFFFFFFFFFFFFFFFFFFFFFFFFFFFFFFFFFFFFFF AND DUP3 PUSH20 0xFFFFFFFFFFFFFFFFFFFFFFFFFFFFFFFFFFFFFFFF AND PUSH32 0x8C5BE1E5EBEC7D5BD14F71427D1E84F3DD0314C0F7B2291E5B200AC8C7C3B925 PUSH1 0x40 MLOAD PUSH1 0x40 MLOAD DUP1 SWAP2 SUB SWAP1 LOG4 JUMPDEST POP JUMPDEST DUP4 PUSH1 0x4 PUSH0 DUP6 DUP2 MSTORE PUSH1 0x20 ADD SWAP1 DUP2 MSTORE PUSH1 0x20 ADD PUSH0 KECCAK256 PUSH0 PUSH2 0x100 EXP DUP2 SLOAD DUP2 PUSH20 0xFFFFFFFFFFFFFFFFFFFFFFFFFFFFFFFFFFFFFFFF MUL NOT AND SWAP1 DUP4 PUSH20 0xFFFFFFFFFFFFFFFFFFFFFFFFFFFFFFFFFFFFFFFF AND MUL OR SWAP1 SSTORE POP POP POP POP POP JUMP JUMPDEST PUSH2 0x23B7 DUP4 DUP4 DUP4 PUSH2 0x2CAE JUMP JUMPDEST PUSH2 0x246A JUMPI PUSH0 PUSH20 0xFFFFFFFFFFFFFFFFFFFFFFFFFFFFFFFFFFFFFFFF AND DUP4 PUSH20 0xFFFFFFFFFFFFFFFFFFFFFFFFFFFFFFFFFFFFFFFF AND SUB PUSH2 0x242B JUMPI DUP1 PUSH1 0x40 MLOAD PUSH32 0x7E27328900000000000000000000000000000000000000000000000000000000 DUP2 MSTORE PUSH1 0x4 ADD PUSH2 0x2422 SWAP2 SWAP1 PUSH2 0x3AE0 JUMP JUMPDEST PUSH1 0x40 MLOAD DUP1 SWAP2 SUB SWAP1 REVERT JUMPDEST DUP2 DUP2 PUSH1 0x40 MLOAD PUSH32 0x177E802F00000000000000000000000000000000000000000000000000000000 DUP2 MSTORE PUSH1 0x4 ADD PUSH2 0x2461 SWAP3 SWAP2 SWAP1 PUSH2 0x52C5 JUMP JUMPDEST PUSH1 0x40 MLOAD DUP1 SWAP2 SUB SWAP1 REVERT JUMPDEST POP POP POP JUMP JUMPDEST PUSH2 0x247B DUP3 PUSH0 PUSH0 DUP5 PUSH2 0x2D6E JUMP JUMPDEST POP POP JUMP JUMPDEST PUSH0 DUP2 MLOAD SUB PUSH2 0x24B9 JUMPI PUSH1 0x40 MLOAD PUSH32 0xFE936CB700000000000000000000000000000000000000000000000000000000 DUP2 MSTORE PUSH1 0x4 ADD PUSH1 0x40 MLOAD DUP1 SWAP2 SUB SWAP1 REVERT JUMPDEST DUP1 DUP3 PUSH1 0xA0 ADD DUP2 SWAP1 MSTORE POP POP POP JUMP JUMPDEST PUSH1 0x60 PUSH0 PUSH2 0x24D4 PUSH2 0x100 PUSH2 0x2E14 JUMP JUMPDEST SWAP1 POP PUSH2 0x251E PUSH1 0x40 MLOAD DUP1 PUSH1 0x40 ADD PUSH1 0x40 MSTORE DUP1 PUSH1 0xC DUP2 MSTORE PUSH1 0x20 ADD PUSH32 0x636F64654C6F636174696F6E0000000000000000000000000000000000000000 DUP2 MSTORE POP DUP3 PUSH2 0x2E39 SWAP1 SWAP2 SWAP1 PUSH4 0xFFFFFFFF AND JUMP JUMPDEST PUSH2 0x2546 DUP4 PUSH0 ADD MLOAD PUSH1 0x2 DUP2 GT ISZERO PUSH2 0x2537 JUMPI PUSH2 0x2536 PUSH2 0x52EC JUMP JUMPDEST JUMPDEST DUP3 PUSH2 0x2E61 SWAP1 SWAP2 SWAP1 PUSH4 0xFFFFFFFF AND JUMP JUMPDEST PUSH2 0x258E PUSH1 0x40 MLOAD DUP1 PUSH1 0x40 ADD PUSH1 0x40 MSTORE DUP1 PUSH1 0x8 DUP2 MSTORE PUSH1 0x20 ADD PUSH32 0x6C616E6775616765000000000000000000000000000000000000000000000000 DUP2 MSTORE POP DUP3 PUSH2 0x2E39 SWAP1 SWAP2 SWAP1 PUSH4 0xFFFFFFFF AND JUMP JUMPDEST PUSH2 0x25B6 DUP4 PUSH1 0x40 ADD MLOAD PUSH0 DUP2 GT ISZERO PUSH2 0x25A7 JUMPI PUSH2 0x25A6 PUSH2 0x52EC JUMP JUMPDEST JUMPDEST DUP3 PUSH2 0x2E61 SWAP1 SWAP2 SWAP1 PUSH4 0xFFFFFFFF AND JUMP JUMPDEST PUSH2 0x25FE PUSH1 0x40 MLOAD DUP1 PUSH1 0x40 ADD PUSH1 0x40 MSTORE DUP1 PUSH1 0x6 DUP2 MSTORE PUSH1 0x20 ADD PUSH32 0x736F757263650000000000000000000000000000000000000000000000000000 DUP2 MSTORE POP DUP3 PUSH2 0x2E39 SWAP1 SWAP2 SWAP1 PUSH4 0xFFFFFFFF AND JUMP JUMPDEST PUSH2 0x2615 DUP4 PUSH1 0x60 ADD MLOAD DUP3 PUSH2 0x2E39 SWAP1 SWAP2 SWAP1 PUSH4 0xFFFFFFFF AND JUMP JUMPDEST PUSH0 DUP4 PUSH1 0xA0 ADD MLOAD MLOAD GT ISZERO PUSH2 0x26CC JUMPI PUSH2 0x266A PUSH1 0x40 MLOAD DUP1 PUSH1 0x40 ADD PUSH1 0x40 MSTORE DUP1 PUSH1 0x4 DUP2 MSTORE PUSH1 0x20 ADD PUSH32 0x6172677300000000000000000000000000000000000000000000000000000000 DUP2 MSTORE POP DUP3 PUSH2 0x2E39 SWAP1 SWAP2 SWAP1 PUSH4 0xFFFFFFFF AND JUMP JUMPDEST PUSH2 0x2673 DUP2 PUSH2 0x2EB0 JUMP JUMPDEST PUSH0 PUSH0 SWAP1 POP JUMPDEST DUP4 PUSH1 0xA0 ADD MLOAD MLOAD DUP2 LT ISZERO PUSH2 0x26C1 JUMPI PUSH2 0x26B6 DUP5 PUSH1 0xA0 ADD MLOAD DUP3 DUP2 MLOAD DUP2 LT PUSH2 0x269F JUMPI PUSH2 0x269E PUSH2 0x48A7 JUMP JUMPDEST JUMPDEST PUSH1 0x20 MUL PUSH1 0x20 ADD ADD MLOAD DUP4 PUSH2 0x2E39 SWAP1 SWAP2 SWAP1 PUSH4 0xFFFFFFFF AND JUMP JUMPDEST DUP1 PUSH1 0x1 ADD SWAP1 POP PUSH2 0x2678 JUMP JUMPDEST POP PUSH2 0x26CB DUP2 PUSH2 0x2ED8 JUMP JUMPDEST JUMPDEST PUSH0 DUP4 PUSH1 0x80 ADD MLOAD MLOAD GT ISZERO PUSH2 0x280B JUMPI PUSH0 PUSH1 0x2 DUP2 GT ISZERO PUSH2 0x26EC JUMPI PUSH2 0x26EB PUSH2 0x52EC JUMP JUMPDEST JUMPDEST DUP4 PUSH1 0x20 ADD MLOAD PUSH1 0x2 DUP2 GT ISZERO PUSH2 0x2703 JUMPI PUSH2 0x2702 PUSH2 0x52EC JUMP JUMPDEST JUMPDEST SUB PUSH2 0x273A JUMPI PUSH1 0x40 MLOAD PUSH32 0xA80D31F700000000000000000000000000000000000000000000000000000000 DUP2 MSTORE PUSH1 0x4 ADD PUSH1 0x40 MLOAD DUP1 SWAP2 SUB SWAP1 REVERT JUMPDEST PUSH2 0x2782 PUSH1 0x40 MLOAD DUP1 PUSH1 0x40 ADD PUSH1 0x40 MSTORE DUP1 PUSH1 0xF DUP2 MSTORE PUSH1 0x20 ADD PUSH32 0x736563726574734C6F636174696F6E0000000000000000000000000000000000 DUP2 MSTORE POP DUP3 PUSH2 0x2E39 SWAP1 SWAP2 SWAP1 PUSH4 0xFFFFFFFF AND JUMP JUMPDEST PUSH2 0x27AB DUP4 PUSH1 0x20 ADD MLOAD PUSH1 0x2 DUP2 GT ISZERO PUSH2 0x279C JUMPI PUSH2 0x279B PUSH2 0x52EC JUMP JUMPDEST JUMPDEST DUP3 PUSH2 0x2E61 SWAP1 SWAP2 SWAP1 PUSH4 0xFFFFFFFF AND JUMP JUMPDEST PUSH2 0x27F3 PUSH1 0x40 MLOAD DUP1 PUSH1 0x40 ADD PUSH1 0x40 MSTORE DUP1 PUSH1 0x7 DUP2 MSTORE PUSH1 0x20 ADD PUSH32 0x7365637265747300000000000000000000000000000000000000000000000000 DUP2 MSTORE POP DUP3 PUSH2 0x2E39 SWAP1 SWAP2 SWAP1 PUSH4 0xFFFFFFFF AND JUMP JUMPDEST PUSH2 0x280A DUP4 PUSH1 0x80 ADD MLOAD DUP3 PUSH2 0x2F00 SWAP1 SWAP2 SWAP1 PUSH4 0xFFFFFFFF AND JUMP JUMPDEST JUMPDEST PUSH0 DUP4 PUSH1 0xC0 ADD MLOAD MLOAD GT ISZERO PUSH2 0x28C2 JUMPI PUSH2 0x2860 PUSH1 0x40 MLOAD DUP1 PUSH1 0x40 ADD PUSH1 0x40 MSTORE DUP1 PUSH1 0x9 DUP2 MSTORE PUSH1 0x20 ADD PUSH32 0x6279746573417267730000000000000000000000000000000000000000000000 DUP2 MSTORE POP DUP3 PUSH2 0x2E39 SWAP1 SWAP2 SWAP1 PUSH4 0xFFFFFFFF AND JUMP JUMPDEST PUSH2 0x2869 DUP2 PUSH2 0x2EB0 JUMP JUMPDEST PUSH0 PUSH0 SWAP1 POP JUMPDEST DUP4 PUSH1 0xC0 ADD MLOAD MLOAD DUP2 LT ISZERO PUSH2 0x28B7 JUMPI PUSH2 0x28AC DUP5 PUSH1 0xC0 ADD MLOAD DUP3 DUP2 MLOAD DUP2 LT PUSH2 0x2895 JUMPI PUSH2 0x2894 PUSH2 0x48A7 JUMP JUMPDEST JUMPDEST PUSH1 0x20 MUL PUSH1 0x20 ADD ADD MLOAD DUP4 PUSH2 0x2F00 SWAP1 SWAP2 SWAP1 PUSH4 0xFFFFFFFF AND JUMP JUMPDEST DUP1 PUSH1 0x1 ADD SWAP1 POP PUSH2 0x286E JUMP JUMPDEST POP PUSH2 0x28C1 DUP2 PUSH2 0x2ED8 JUMP JUMPDEST JUMPDEST DUP1 PUSH0 ADD MLOAD PUSH0 ADD MLOAD SWAP2 POP POP SWAP2 SWAP1 POP JUMP JUMPDEST PUSH0 PUSH0 PUSH32 0x0 PUSH20 0xFFFFFFFFFFFFFFFFFFFFFFFFFFFFFFFFFFFFFFFF AND PUSH4 0x461D2762 DUP7 DUP9 PUSH1 0x1 DUP9 DUP9 PUSH1 0x40 MLOAD DUP7 PUSH4 0xFFFFFFFF AND PUSH1 0xE0 SHL DUP2 MSTORE PUSH1 0x4 ADD PUSH2 0x2935 SWAP6 SWAP5 SWAP4 SWAP3 SWAP2 SWAP1 PUSH2 0x5362 JUMP JUMPDEST PUSH1 0x20 PUSH1 0x40 MLOAD DUP1 DUP4 SUB DUP2 PUSH0 DUP8 GAS CALL ISZERO DUP1 ISZERO PUSH2 0x2951 JUMPI RETURNDATASIZE PUSH0 PUSH0 RETURNDATACOPY RETURNDATASIZE PUSH0 REVERT JUMPDEST POP POP POP POP PUSH1 0x40 MLOAD RETURNDATASIZE PUSH1 0x1F NOT PUSH1 0x1F DUP3 ADD AND DUP3 ADD DUP1 PUSH1 0x40 MSTORE POP DUP2 ADD SWAP1 PUSH2 0x2975 SWAP2 SWAP1 PUSH2 0x53CE JUMP JUMPDEST SWAP1 POP DUP1 PUSH32 0x1131472297A800FEE664D1D89CFA8F7676FF07189ECC53F80BBB5F4969099DB8 PUSH1 0x40 MLOAD PUSH1 0x40 MLOAD DUP1 SWAP2 SUB SWAP1 LOG2 DUP1 SWAP2 POP POP SWAP5 SWAP4 POP POP POP POP JUMP JUMPDEST PUSH0 PUSH0 PUSH0 SWAP1 POP PUSH27 0x184F03E93FF9F4DAA797ED6E38ED64BF6A1F010000000000000000 DUP4 LT PUSH2 0x2A0C JUMPI PUSH27 0x184F03E93FF9F4DAA797ED6E38ED64BF6A1F010000000000000000 DUP4 DUP2 PUSH2 0x2A02 JUMPI PUSH2 0x2A01 PUSH2 0x4278 JUMP JUMPDEST JUMPDEST DIV SWAP3 POP PUSH1 0x40 DUP2 ADD SWAP1 POP JUMPDEST PUSH14 0x4EE2D6D415B85ACEF8100000000 DUP4 LT PUSH2 0x2A49 JUMPI PUSH14 0x4EE2D6D415B85ACEF8100000000 DUP4 DUP2 PUSH2 0x2A3F JUMPI PUSH2 0x2A3E PUSH2 0x4278 JUMP JUMPDEST JUMPDEST DIV SWAP3 POP PUSH1 0x20 DUP2 ADD SWAP1 POP JUMPDEST PUSH7 0x2386F26FC10000 DUP4 LT PUSH2 0x2A78 JUMPI PUSH7 0x2386F26FC10000 DUP4 DUP2 PUSH2 0x2A6E JUMPI PUSH2 0x2A6D PUSH2 0x4278 JUMP JUMPDEST JUMPDEST DIV SWAP3 POP PUSH1 0x10 DUP2 ADD SWAP1 POP JUMPDEST PUSH4 0x5F5E100 DUP4 LT PUSH2 0x2AA1 JUMPI PUSH4 0x5F5E100 DUP4 DUP2 PUSH2 0x2A97 JUMPI PUSH2 0x2A96 PUSH2 0x4278 JUMP JUMPDEST JUMPDEST DIV SWAP3 POP PUSH1 0x8 DUP2 ADD SWAP1 POP JUMPDEST PUSH2 0x2710 DUP4 LT PUSH2 0x2AC6 JUMPI PUSH2 0x2710 DUP4 DUP2 PUSH2 0x2ABC JUMPI PUSH2 0x2ABB PUSH2 0x4278 JUMP JUMPDEST JUMPDEST DIV SWAP3 POP PUSH1 0x4 DUP2 ADD SWAP1 POP JUMPDEST PUSH1 0x64 DUP4 LT PUSH2 0x2AE9 JUMPI PUSH1 0x64 DUP4 DUP2 PUSH2 0x2ADF JUMPI PUSH2 0x2ADE PUSH2 0x4278 JUMP JUMPDEST JUMPDEST DIV SWAP3 POP PUSH1 0x2 DUP2 ADD SWAP1 POP JUMPDEST PUSH1 0xA DUP4 LT PUSH2 0x2AF8 JUMPI PUSH1 0x1 DUP2 ADD SWAP1 POP JUMPDEST DUP1 SWAP2 POP POP SWAP2 SWAP1 POP JUMP JUMPDEST PUSH1 0x60 PUSH0 DUP4 MLOAD SUB PUSH2 0x2B21 JUMPI PUSH1 0x40 MLOAD DUP1 PUSH1 0x20 ADD PUSH1 0x40 MSTORE DUP1 PUSH0 DUP2 MSTORE POP SWAP1 POP PUSH2 0x2C85 JUMP JUMPDEST PUSH0 DUP3 PUSH2 0x2B52 JUMPI PUSH1 0x3 PUSH1 0x2 DUP6 MLOAD PUSH2 0x2B37 SWAP2 SWAP1 PUSH2 0x4204 JUMP JUMPDEST PUSH2 0x2B41 SWAP2 SWAP1 PUSH2 0x42A5 JUMP JUMPDEST PUSH1 0x4 PUSH2 0x2B4D SWAP2 SWAP1 PUSH2 0x4237 JUMP JUMPDEST PUSH2 0x2B79 JUMP JUMPDEST PUSH1 0x3 PUSH1 0x2 DUP6 MLOAD PUSH1 0x4 PUSH2 0x2B64 SWAP2 SWAP1 PUSH2 0x4237 JUMP JUMPDEST PUSH2 0x2B6E SWAP2 SWAP1 PUSH2 0x4204 JUMP JUMPDEST PUSH2 0x2B78 SWAP2 SWAP1 PUSH2 0x42A5 JUMP JUMPDEST JUMPDEST SWAP1 POP PUSH1 0x40 MLOAD SWAP2 POP PUSH32 0x4142434445464748494A4B4C4D4E4F505152535455565758595A616263646566 PUSH1 0x1F MSTORE PUSH2 0x670 DUP4 MUL PUSH32 0x6768696A6B6C6D6E6F707172737475767778797A303132333435363738392B2F XOR PUSH1 0x3F MSTORE PUSH1 0x20 DUP3 ADD DUP2 DUP2 ADD DUP6 DUP7 MLOAD DUP8 ADD PUSH1 0x20 DUP2 ADD DUP1 MLOAD PUSH0 DUP3 MSTORE JUMPDEST DUP3 DUP5 LT ISZERO PUSH2 0x2C37 JUMPI PUSH1 0x3 DUP5 ADD SWAP4 POP DUP4 MLOAD PUSH1 0x3F DUP2 PUSH1 0x12 SHR AND MLOAD DUP8 MSTORE8 PUSH1 0x1 DUP8 ADD SWAP7 POP PUSH1 0x3F DUP2 PUSH1 0xC SHR AND MLOAD DUP8 MSTORE8 PUSH1 0x1 DUP8 ADD SWAP7 POP PUSH1 0x3F DUP2 PUSH1 0x6 SHR AND MLOAD DUP8 MSTORE8 PUSH1 0x1 DUP8 ADD SWAP7 POP PUSH1 0x3F DUP2 AND MLOAD DUP8 MSTORE8 PUSH1 0x1 DUP8 ADD SWAP7 POP POP PUSH2 0x2BE4 JUMP JUMPDEST DUP1 DUP3 MSTORE DUP9 PUSH2 0x2C76 JUMPI PUSH1 0x3 DUP11 MLOAD MOD PUSH1 0x1 DUP2 EQ PUSH2 0x2C59 JUMPI PUSH1 0x2 DUP2 EQ PUSH2 0x2C6C JUMPI PUSH2 0x2C74 JUMP JUMPDEST PUSH1 0x3D PUSH1 0x1 DUP9 SUB MSTORE8 PUSH1 0x3D PUSH1 0x2 DUP9 SUB MSTORE8 PUSH2 0x2C74 JUMP JUMPDEST PUSH1 0x3D PUSH1 0x1 DUP9 SUB MSTORE8 JUMPDEST POP JUMPDEST DUP7 DUP9 MSTORE DUP5 PUSH1 0x40 MSTORE POP POP POP POP POP POP POP JUMPDEST SWAP3 SWAP2 POP POP JUMP JUMPDEST PUSH2 0x2C95 DUP4 DUP4 PUSH2 0x2F28 JUMP JUMPDEST PUSH2 0x2CA9 PUSH2 0x2CA0 PUSH2 0x164A JUMP JUMPDEST PUSH0 DUP6 DUP6 DUP6 PUSH2 0x1F6F JUMP JUMPDEST POP POP POP JUMP JUMPDEST PUSH0 PUSH0 PUSH20 0xFFFFFFFFFFFFFFFFFFFFFFFFFFFFFFFFFFFFFFFF AND DUP4 PUSH20 0xFFFFFFFFFFFFFFFFFFFFFFFFFFFFFFFFFFFFFFFF AND EQ ISZERO DUP1 ISZERO PUSH2 0x2D65 JUMPI POP DUP3 PUSH20 0xFFFFFFFFFFFFFFFFFFFFFFFFFFFFFFFFFFFFFFFF AND DUP5 PUSH20 0xFFFFFFFFFFFFFFFFFFFFFFFFFFFFFFFFFFFFFFFF AND EQ DUP1 PUSH2 0x2D26 JUMPI POP PUSH2 0x2D25 DUP5 DUP5 PUSH2 0x118E JUMP JUMPDEST JUMPDEST DUP1 PUSH2 0x2D64 JUMPI POP DUP3 PUSH20 0xFFFFFFFFFFFFFFFFFFFFFFFFFFFFFFFFFFFFFFFF AND PUSH2 0x2D4C DUP4 PUSH2 0x1611 JUMP JUMPDEST PUSH20 0xFFFFFFFFFFFFFFFFFFFFFFFFFFFFFFFFFFFFFFFF AND EQ JUMPDEST JUMPDEST SWAP1 POP SWAP4 SWAP3 POP POP POP JUMP JUMPDEST PUSH0 DUP2 MLOAD SUB PUSH2 0x2DA8 JUMPI PUSH1 0x40 MLOAD PUSH32 0x22CE3EDD00000000000000000000000000000000000000000000000000000000 DUP2 MSTORE PUSH1 0x4 ADD PUSH1 0x40 MLOAD DUP1 SWAP2 SUB SWAP1 REVERT JUMPDEST DUP3 DUP5 PUSH0 ADD SWAP1 PUSH1 0x2 DUP2 GT ISZERO PUSH2 0x2DBF JUMPI PUSH2 0x2DBE PUSH2 0x52EC JUMP JUMPDEST JUMPDEST SWAP1 DUP2 PUSH1 0x2 DUP2 GT ISZERO PUSH2 0x2DD3 JUMPI PUSH2 0x2DD2 PUSH2 0x52EC JUMP JUMPDEST JUMPDEST DUP2 MSTORE POP POP DUP2 DUP5 PUSH1 0x40 ADD SWAP1 PUSH0 DUP2 GT ISZERO PUSH2 0x2DEE JUMPI PUSH2 0x2DED PUSH2 0x52EC JUMP JUMPDEST JUMPDEST SWAP1 DUP2 PUSH0 DUP2 GT ISZERO PUSH2 0x2E01 JUMPI PUSH2 0x2E00 PUSH2 0x52EC JUMP JUMPDEST JUMPDEST DUP2 MSTORE POP POP DUP1 DUP5 PUSH1 0x60 ADD DUP2 SWAP1 MSTORE POP POP POP POP POP JUMP JUMPDEST PUSH2 0x2E1C PUSH2 0x34D0 JUMP JUMPDEST PUSH2 0x2E29 DUP2 PUSH0 ADD MLOAD DUP4 PUSH2 0x301B JUMP JUMPDEST POP PUSH0 DUP2 PUSH1 0x20 ADD DUP2 DUP2 MSTORE POP POP SWAP2 SWAP1 POP JUMP JUMPDEST PUSH2 0x2E46 DUP3 PUSH1 0x3 DUP4 MLOAD PUSH2 0x3091 JUMP JUMPDEST PUSH2 0x2E5C DUP2 DUP4 PUSH0 ADD MLOAD PUSH2 0x3231 SWAP1 SWAP2 SWAP1 PUSH4 0xFFFFFFFF AND JUMP JUMPDEST POP POP POP JUMP JUMPDEST PUSH2 0x2E82 PUSH1 0x2 PUSH1 0x5 PUSH1 0x6 PUSH1 0xFF AND SWAP1 SHL OR DUP4 PUSH0 ADD MLOAD PUSH2 0x324D SWAP1 SWAP2 SWAP1 PUSH4 0xFFFFFFFF AND JUMP JUMPDEST POP PUSH2 0x2EAC DUP3 DUP3 PUSH1 0x40 MLOAD PUSH1 0x20 ADD PUSH2 0x2E98 SWAP2 SWAP1 PUSH2 0x3AE0 JUMP JUMPDEST PUSH1 0x40 MLOAD PUSH1 0x20 DUP2 DUP4 SUB SUB DUP2 MSTORE SWAP1 PUSH1 0x40 MSTORE PUSH2 0x2F00 JUMP JUMPDEST POP POP JUMP JUMPDEST PUSH2 0x2EBB DUP2 PUSH1 0x4 PUSH2 0x32B4 JUMP JUMPDEST PUSH1 0x1 DUP2 PUSH1 0x20 ADD DUP2 DUP2 MLOAD PUSH2 0x2ECE SWAP2 SWAP1 PUSH2 0x4204 JUMP JUMPDEST SWAP2 POP DUP2 DUP2 MSTORE POP POP POP JUMP JUMPDEST PUSH2 0x2EE3 DUP2 PUSH1 0x7 PUSH2 0x32B4 JUMP JUMPDEST PUSH1 0x1 DUP2 PUSH1 0x20 ADD DUP2 DUP2 MLOAD PUSH2 0x2EF6 SWAP2 SWAP1 PUSH2 0x41D1 JUMP JUMPDEST SWAP2 POP DUP2 DUP2 MSTORE POP POP POP JUMP JUMPDEST PUSH2 0x2F0D DUP3 PUSH1 0x2 DUP4 MLOAD PUSH2 0x3091 JUMP JUMPDEST PUSH2 0x2F23 DUP2 DUP4 PUSH0 ADD MLOAD PUSH2 0x3231 SWAP1 SWAP2 SWAP1 PUSH4 0xFFFFFFFF AND JUMP JUMPDEST POP POP POP JUMP JUMPDEST PUSH0 PUSH20 0xFFFFFFFFFFFFFFFFFFFFFFFFFFFFFFFFFFFFFFFF AND DUP3 PUSH20 0xFFFFFFFFFFFFFFFFFFFFFFFFFFFFFFFFFFFFFFFF AND SUB PUSH2 0x2F98 JUMPI PUSH0 PUSH1 0x40 MLOAD PUSH32 0x64A0AE9200000000000000000000000000000000000000000000000000000000 DUP2 MSTORE PUSH1 0x4 ADD PUSH2 0x2F8F SWAP2 SWAP1 PUSH2 0x386C JUMP JUMPDEST PUSH1 0x40 MLOAD DUP1 SWAP2 SUB SWAP1 REVERT JUMPDEST PUSH0 PUSH2 0x2FA4 DUP4 DUP4 PUSH0 PUSH2 0x17D0 JUMP JUMPDEST SWAP1 POP PUSH0 PUSH20 0xFFFFFFFFFFFFFFFFFFFFFFFFFFFFFFFFFFFFFFFF AND DUP2 PUSH20 0xFFFFFFFFFFFFFFFFFFFFFFFFFFFFFFFFFFFFFFFF AND EQ PUSH2 0x3016 JUMPI PUSH0 PUSH1 0x40 MLOAD PUSH32 0x73C6AC6E00000000000000000000000000000000000000000000000000000000 DUP2 MSTORE PUSH1 0x4 ADD PUSH2 0x300D SWAP2 SWAP1 PUSH2 0x386C JUMP JUMPDEST PUSH1 0x40 MLOAD DUP1 SWAP2 SUB SWAP1 REVERT JUMPDEST POP POP POP JUMP JUMPDEST PUSH2 0x3023 PUSH2 0x34EF JUMP JUMPDEST PUSH0 PUSH1 0x20 DUP4 PUSH2 0x3031 SWAP2 SWAP1 PUSH2 0x42D5 JUMP JUMPDEST EQ PUSH2 0x305D JUMPI PUSH1 0x20 DUP3 PUSH2 0x3043 SWAP2 SWAP1 PUSH2 0x42D5 JUMP JUMPDEST PUSH1 0x20 PUSH2 0x304F SWAP2 SWAP1 PUSH2 0x41D1 JUMP JUMPDEST DUP3 PUSH2 0x305A SWAP2 SWAP1 PUSH2 0x4204 JUMP JUMPDEST SWAP2 POP JUMPDEST DUP2 DUP4 PUSH1 0x20 ADD DUP2 DUP2 MSTORE POP POP PUSH1 0x40 MLOAD DUP1 DUP5 MSTORE PUSH0 DUP2 MSTORE DUP3 DUP2 ADD PUSH1 0x20 ADD DUP2 DUP2 LT ISZERO PUSH2 0x3082 JUMPI PUSH0 PUSH0 REVERT JUMPDEST DUP1 PUSH1 0x40 MSTORE POP POP DUP3 SWAP1 POP SWAP3 SWAP2 POP POP JUMP JUMPDEST PUSH1 0x17 DUP2 PUSH8 0xFFFFFFFFFFFFFFFF AND GT PUSH2 0x30CB JUMPI PUSH2 0x30C5 DUP2 PUSH1 0x5 DUP5 PUSH1 0xFF AND SWAP1 SHL PUSH1 0xFF AND OR DUP5 PUSH0 ADD MLOAD PUSH2 0x324D SWAP1 SWAP2 SWAP1 PUSH4 0xFFFFFFFF AND JUMP JUMPDEST POP PUSH2 0x322C JUMP JUMPDEST PUSH1 0xFF DUP2 PUSH8 0xFFFFFFFFFFFFFFFF AND GT PUSH2 0x3127 JUMPI PUSH2 0x30FD PUSH1 0x18 PUSH1 0x5 DUP5 PUSH1 0xFF AND SWAP1 SHL OR DUP5 PUSH0 ADD MLOAD PUSH2 0x324D SWAP1 SWAP2 SWAP1 PUSH4 0xFFFFFFFF AND JUMP JUMPDEST POP PUSH2 0x3121 DUP2 PUSH8 0xFFFFFFFFFFFFFFFF AND PUSH1 0x1 DUP6 PUSH0 ADD MLOAD PUSH2 0x32D9 SWAP1 SWAP3 SWAP2 SWAP1 PUSH4 0xFFFFFFFF AND JUMP JUMPDEST POP PUSH2 0x322B JUMP JUMPDEST PUSH2 0xFFFF DUP2 PUSH8 0xFFFFFFFFFFFFFFFF AND GT PUSH2 0x3184 JUMPI PUSH2 0x315A PUSH1 0x19 PUSH1 0x5 DUP5 PUSH1 0xFF AND SWAP1 SHL OR DUP5 PUSH0 ADD MLOAD PUSH2 0x324D SWAP1 SWAP2 SWAP1 PUSH4 0xFFFFFFFF AND JUMP JUMPDEST POP PUSH2 0x317E DUP2 PUSH8 0xFFFFFFFFFFFFFFFF AND PUSH1 0x2 DUP6 PUSH0 ADD MLOAD PUSH2 0x32D9 SWAP1 SWAP3 SWAP2 SWAP1 PUSH4 0xFFFFFFFF AND JUMP JUMPDEST POP PUSH2 0x322A JUMP JUMPDEST PUSH4 0xFFFFFFFF DUP2 PUSH8 0xFFFFFFFFFFFFFFFF AND GT PUSH2 0x31E3 JUMPI PUSH2 0x31B9 PUSH1 0x1A PUSH1 0x5 DUP5 PUSH1 0xFF AND SWAP1 SHL OR DUP5 PUSH0 ADD MLOAD PUSH2 0x324D SWAP1 SWAP2 SWAP1 PUSH4 0xFFFFFFFF AND JUMP JUMPDEST POP PUSH2 0x31DD DUP2 PUSH8 0xFFFFFFFFFFFFFFFF AND PUSH1 0x4 DUP6 PUSH0 ADD MLOAD PUSH2 0x32D9 SWAP1 SWAP3 SWAP2 SWAP1 PUSH4 0xFFFFFFFF AND JUMP JUMPDEST POP PUSH2 0x3229 JUMP JUMPDEST PUSH2 0x3203 PUSH1 0x1B PUSH1 0x5 DUP5 PUSH1 0xFF AND SWAP1 SHL OR DUP5 PUSH0 ADD MLOAD PUSH2 0x324D SWAP1 SWAP2 SWAP1 PUSH4 0xFFFFFFFF AND JUMP JUMPDEST POP PUSH2 0x3227 DUP2 PUSH8 0xFFFFFFFFFFFFFFFF AND PUSH1 0x8 DUP6 PUSH0 ADD MLOAD PUSH2 0x32D9 SWAP1 SWAP3 SWAP2 SWAP1 PUSH4 0xFFFFFFFF AND JUMP JUMPDEST POP JUMPDEST JUMPDEST JUMPDEST JUMPDEST POP POP POP JUMP JUMPDEST PUSH2 0x3239 PUSH2 0x34EF JUMP JUMPDEST PUSH2 0x3245 DUP4 DUP4 DUP5 MLOAD PUSH2 0x3362 JUMP JUMPDEST SWAP1 POP SWAP3 SWAP2 POP POP JUMP JUMPDEST PUSH2 0x3255 PUSH2 0x34EF JUMP JUMPDEST PUSH0 DUP4 PUSH0 ADD MLOAD MLOAD SWAP1 POP PUSH0 PUSH1 0x1 DUP3 PUSH2 0x326B SWAP2 SWAP1 PUSH2 0x4204 JUMP JUMPDEST SWAP1 POP DUP5 PUSH1 0x20 ADD MLOAD DUP3 LT PUSH2 0x328F JUMPI PUSH2 0x328E DUP6 PUSH1 0x2 DUP4 PUSH2 0x3289 SWAP2 SWAP1 PUSH2 0x4237 JUMP JUMPDEST PUSH2 0x343F JUMP JUMPDEST JUMPDEST DUP5 MLOAD PUSH1 0x20 DUP4 DUP3 ADD ADD DUP6 DUP2 MSTORE8 DUP2 MLOAD DUP4 GT ISZERO PUSH2 0x32A7 JUMPI DUP3 DUP3 MSTORE JUMPDEST POP POP DUP5 SWAP3 POP POP POP SWAP3 SWAP2 POP POP JUMP JUMPDEST PUSH2 0x32D4 PUSH1 0x1F PUSH1 0x5 DUP4 PUSH1 0xFF AND SWAP1 SHL OR DUP4 PUSH0 ADD MLOAD PUSH2 0x324D SWAP1 SWAP2 SWAP1 PUSH4 0xFFFFFFFF AND JUMP JUMPDEST POP POP POP JUMP JUMPDEST PUSH2 0x32E1 PUSH2 0x34EF JUMP JUMPDEST PUSH0 DUP5 PUSH0 ADD MLOAD MLOAD SWAP1 POP PUSH0 DUP2 DUP5 PUSH2 0x32F6 SWAP2 SWAP1 PUSH2 0x4204 JUMP JUMPDEST SWAP1 POP DUP6 PUSH1 0x20 ADD MLOAD DUP2 GT ISZERO PUSH2 0x331B JUMPI PUSH2 0x331A DUP7 PUSH1 0x2 DUP4 PUSH2 0x3315 SWAP2 SWAP1 PUSH2 0x4237 JUMP JUMPDEST PUSH2 0x343F JUMP JUMPDEST JUMPDEST PUSH0 PUSH1 0x1 DUP6 PUSH2 0x100 PUSH2 0x332C SWAP2 SWAP1 PUSH2 0x5528 JUMP JUMPDEST PUSH2 0x3336 SWAP2 SWAP1 PUSH2 0x41D1 JUMP JUMPDEST SWAP1 POP DUP7 MLOAD DUP3 DUP2 ADD DUP8 DUP4 NOT DUP3 MLOAD AND OR DUP2 MSTORE DUP2 MLOAD DUP5 GT ISZERO PUSH2 0x3353 JUMPI DUP4 DUP3 MSTORE JUMPDEST POP POP DUP7 SWAP4 POP POP POP POP SWAP4 SWAP3 POP POP POP JUMP JUMPDEST PUSH2 0x336A PUSH2 0x34EF JUMP JUMPDEST DUP3 MLOAD DUP3 GT ISZERO PUSH2 0x3377 JUMPI PUSH0 PUSH0 REVERT JUMPDEST PUSH0 DUP5 PUSH0 ADD MLOAD MLOAD SWAP1 POP PUSH0 DUP4 DUP3 PUSH2 0x338C SWAP2 SWAP1 PUSH2 0x4204 JUMP JUMPDEST SWAP1 POP DUP6 PUSH1 0x20 ADD MLOAD DUP2 GT ISZERO PUSH2 0x33B1 JUMPI PUSH2 0x33B0 DUP7 PUSH1 0x2 DUP4 PUSH2 0x33AB SWAP2 SWAP1 PUSH2 0x4237 JUMP JUMPDEST PUSH2 0x343F JUMP JUMPDEST JUMPDEST PUSH0 PUSH0 DUP8 MLOAD DUP1 MLOAD DUP6 PUSH1 0x20 DUP4 ADD ADD SWAP4 POP DUP1 DUP6 GT ISZERO PUSH2 0x33CB JUMPI DUP5 DUP3 MSTORE JUMPDEST PUSH1 0x20 DUP10 ADD SWAP3 POP POP POP JUMPDEST PUSH1 0x20 DUP7 LT PUSH2 0x3412 JUMPI DUP1 MLOAD DUP3 MSTORE PUSH1 0x20 DUP3 PUSH2 0x33ED SWAP2 SWAP1 PUSH2 0x4204 JUMP JUMPDEST SWAP2 POP PUSH1 0x20 DUP2 PUSH2 0x33FC SWAP2 SWAP1 PUSH2 0x4204 JUMP JUMPDEST SWAP1 POP PUSH1 0x20 DUP7 PUSH2 0x340B SWAP2 SWAP1 PUSH2 0x41D1 JUMP JUMPDEST SWAP6 POP PUSH2 0x33D4 JUMP JUMPDEST PUSH0 PUSH1 0x1 DUP8 PUSH1 0x20 SUB PUSH2 0x100 EXP SUB SWAP1 POP DUP1 NOT DUP3 MLOAD AND DUP2 DUP5 MLOAD AND DUP2 DUP2 OR DUP6 MSTORE POP POP POP DUP8 SWAP5 POP POP POP POP POP SWAP4 SWAP3 POP POP POP JUMP JUMPDEST PUSH0 DUP3 PUSH0 ADD MLOAD SWAP1 POP PUSH2 0x3450 DUP4 DUP4 PUSH2 0x301B JUMP JUMPDEST POP PUSH2 0x345B DUP4 DUP3 PUSH2 0x3231 JUMP JUMPDEST POP POP POP POP JUMP JUMPDEST PUSH1 0x40 MLOAD DUP1 PUSH1 0xE0 ADD PUSH1 0x40 MSTORE DUP1 PUSH0 PUSH1 0x2 DUP2 GT ISZERO PUSH2 0x347F JUMPI PUSH2 0x347E PUSH2 0x52EC JUMP JUMPDEST JUMPDEST DUP2 MSTORE PUSH1 0x20 ADD PUSH0 PUSH1 0x2 DUP2 GT ISZERO PUSH2 0x3497 JUMPI PUSH2 0x3496 PUSH2 0x52EC JUMP JUMPDEST JUMPDEST DUP2 MSTORE PUSH1 0x20 ADD PUSH0 PUSH0 DUP2 GT ISZERO PUSH2 0x34AE JUMPI PUSH2 0x34AD PUSH2 0x52EC JUMP JUMPDEST JUMPDEST DUP2 MSTORE PUSH1 0x20 ADD PUSH1 0x60 DUP2 MSTORE PUSH1 0x20 ADD PUSH1 0x60 DUP2 MSTORE PUSH1 0x20 ADD PUSH1 0x60 DUP2 MSTORE PUSH1 0x20 ADD PUSH1 0x60 DUP2 MSTORE POP SWAP1 JUMP JUMPDEST PUSH1 0x40 MLOAD DUP1 PUSH1 0x40 ADD PUSH1 0x40 MSTORE DUP1 PUSH2 0x34E3 PUSH2 0x34EF JUMP JUMPDEST DUP2 MSTORE PUSH1 0x20 ADD PUSH0 DUP2 MSTORE POP SWAP1 JUMP JUMPDEST PUSH1 0x40 MLOAD DUP1 PUSH1 0x40 ADD PUSH1 0x40 MSTORE DUP1 PUSH1 0x60 DUP2 MSTORE PUSH1 0x20 ADD PUSH0 DUP2 MSTORE POP SWAP1 JUMP JUMPDEST PUSH0 PUSH1 0x40 MLOAD SWAP1 POP SWAP1 JUMP JUMPDEST PUSH0 PUSH0 REVERT JUMPDEST PUSH0 PUSH0 REVERT JUMPDEST PUSH0 PUSH0 REVERT JUMPDEST PUSH0 PUSH0 REVERT JUMPDEST PUSH0 PUSH1 0x1F NOT PUSH1 0x1F DUP4 ADD AND SWAP1 POP SWAP2 SWAP1 POP JUMP JUMPDEST PUSH32 0x4E487B7100000000000000000000000000000000000000000000000000000000 PUSH0 MSTORE PUSH1 0x41 PUSH1 0x4 MSTORE PUSH1 0x24 PUSH0 REVERT JUMPDEST PUSH2 0x3567 DUP3 PUSH2 0x3521 JUMP JUMPDEST DUP2 ADD DUP2 DUP2 LT PUSH8 0xFFFFFFFFFFFFFFFF DUP3 GT OR ISZERO PUSH2 0x3586 JUMPI PUSH2 0x3585 PUSH2 0x3531 JUMP JUMPDEST JUMPDEST DUP1 PUSH1 0x40 MSTORE POP POP POP JUMP JUMPDEST PUSH0 PUSH2 0x3598 PUSH2 0x3508 JUMP JUMPDEST SWAP1 POP PUSH2 0x35A4 DUP3 DUP3 PUSH2 0x355E JUMP JUMPDEST SWAP2 SWAP1 POP JUMP JUMPDEST PUSH0 PUSH8 0xFFFFFFFFFFFFFFFF DUP3 GT ISZERO PUSH2 0x35C3 JUMPI PUSH2 0x35C2 PUSH2 0x3531 JUMP JUMPDEST JUMPDEST PUSH2 0x35CC DUP3 PUSH2 0x3521 JUMP JUMPDEST SWAP1 POP PUSH1 0x20 DUP2 ADD SWAP1 POP SWAP2 SWAP1 POP JUMP JUMPDEST DUP3 DUP2 DUP4 CALLDATACOPY PUSH0 DUP4 DUP4 ADD MSTORE POP POP POP JUMP JUMPDEST PUSH0 PUSH2 0x35F9 PUSH2 0x35F4 DUP5 PUSH2 0x35A9 JUMP JUMPDEST PUSH2 0x358F JUMP JUMPDEST SWAP1 POP DUP3 DUP2 MSTORE PUSH1 0x20 DUP2 ADD DUP5 DUP5 DUP5 ADD GT ISZERO PUSH2 0x3615 JUMPI PUSH2 0x3614 PUSH2 0x351D JUMP JUMPDEST JUMPDEST PUSH2 0x3620 DUP5 DUP3 DUP6 PUSH2 0x35D9 JUMP JUMPDEST POP SWAP4 SWAP3 POP POP POP JUMP JUMPDEST PUSH0 DUP3 PUSH1 0x1F DUP4 ADD SLT PUSH2 0x363C JUMPI PUSH2 0x363B PUSH2 0x3519 JUMP JUMPDEST JUMPDEST DUP2 CALLDATALOAD PUSH2 0x364C DUP5 DUP3 PUSH1 0x20 DUP7 ADD PUSH2 0x35E7 JUMP JUMPDEST SWAP2 POP POP SWAP3 SWAP2 POP POP JUMP JUMPDEST PUSH0 PUSH1 0x20 DUP3 DUP5 SUB SLT ISZERO PUSH2 0x366A JUMPI PUSH2 0x3669 PUSH2 0x3511 JUMP JUMPDEST JUMPDEST PUSH0 DUP3 ADD CALLDATALOAD PUSH8 0xFFFFFFFFFFFFFFFF DUP2 GT ISZERO PUSH2 0x3687 JUMPI PUSH2 0x3686 PUSH2 0x3515 JUMP JUMPDEST JUMPDEST PUSH2 0x3693 DUP5 DUP3 DUP6 ADD PUSH2 0x3628 JUMP JUMPDEST SWAP2 POP POP SWAP3 SWAP2 POP POP JUMP JUMPDEST PUSH0 PUSH32 0xFFFFFFFF00000000000000000000000000000000000000000000000000000000 DUP3 AND SWAP1 POP SWAP2 SWAP1 POP JUMP JUMPDEST PUSH2 0x36D0 DUP2 PUSH2 0x369C JUMP JUMPDEST DUP2 EQ PUSH2 0x36DA JUMPI PUSH0 PUSH0 REVERT JUMPDEST POP JUMP JUMPDEST PUSH0 DUP2 CALLDATALOAD SWAP1 POP PUSH2 0x36EB DUP2 PUSH2 0x36C7 JUMP JUMPDEST SWAP3 SWAP2 POP POP JUMP JUMPDEST PUSH0 PUSH1 0x20 DUP3 DUP5 SUB SLT ISZERO PUSH2 0x3706 JUMPI PUSH2 0x3705 PUSH2 0x3511 JUMP JUMPDEST JUMPDEST PUSH0 PUSH2 0x3713 DUP5 DUP3 DUP6 ADD PUSH2 0x36DD JUMP JUMPDEST SWAP2 POP POP SWAP3 SWAP2 POP POP JUMP JUMPDEST PUSH0 DUP2 ISZERO ISZERO SWAP1 POP SWAP2 SWAP1 POP JUMP JUMPDEST PUSH2 0x3730 DUP2 PUSH2 0x371C JUMP JUMPDEST DUP3 MSTORE POP POP JUMP JUMPDEST PUSH0 PUSH1 0x20 DUP3 ADD SWAP1 POP PUSH2 0x3749 PUSH0 DUP4 ADD DUP5 PUSH2 0x3727 JUMP JUMPDEST SWAP3 SWAP2 POP POP JUMP JUMPDEST PUSH0 DUP2 MLOAD SWAP1 POP SWAP2 SWAP1 POP JUMP JUMPDEST PUSH0 DUP3 DUP3 MSTORE PUSH1 0x20 DUP3 ADD SWAP1 POP SWAP3 SWAP2 POP POP JUMP JUMPDEST DUP3 DUP2 DUP4 MCOPY PUSH0 DUP4 DUP4 ADD MSTORE POP POP POP JUMP JUMPDEST PUSH0 PUSH2 0x3781 DUP3 PUSH2 0x374F JUMP JUMPDEST PUSH2 0x378B DUP2 DUP6 PUSH2 0x3759 JUMP JUMPDEST SWAP4 POP PUSH2 0x379B DUP2 DUP6 PUSH1 0x20 DUP7 ADD PUSH2 0x3769 JUMP JUMPDEST PUSH2 0x37A4 DUP2 PUSH2 0x3521 JUMP JUMPDEST DUP5 ADD SWAP2 POP POP SWAP3 SWAP2 POP POP JUMP JUMPDEST PUSH0 PUSH1 0x20 DUP3 ADD SWAP1 POP DUP2 DUP2 SUB PUSH0 DUP4 ADD MSTORE PUSH2 0x37C7 DUP2 DUP5 PUSH2 0x3777 JUMP JUMPDEST SWAP1 POP SWAP3 SWAP2 POP POP JUMP JUMPDEST PUSH0 DUP2 SWAP1 POP SWAP2 SWAP1 POP JUMP JUMPDEST PUSH2 0x37E1 DUP2 PUSH2 0x37CF JUMP JUMPDEST DUP2 EQ PUSH2 0x37EB JUMPI PUSH0 PUSH0 REVERT JUMPDEST POP JUMP JUMPDEST PUSH0 DUP2 CALLDATALOAD SWAP1 POP PUSH2 0x37FC DUP2 PUSH2 0x37D8 JUMP JUMPDEST SWAP3 SWAP2 POP POP JUMP JUMPDEST PUSH0 PUSH1 0x20 DUP3 DUP5 SUB SLT ISZERO PUSH2 0x3817 JUMPI PUSH2 0x3816 PUSH2 0x3511 JUMP JUMPDEST JUMPDEST PUSH0 PUSH2 0x3824 DUP5 DUP3 DUP6 ADD PUSH2 0x37EE JUMP JUMPDEST SWAP2 POP POP SWAP3 SWAP2 POP POP JUMP JUMPDEST PUSH0 PUSH20 0xFFFFFFFFFFFFFFFFFFFFFFFFFFFFFFFFFFFFFFFF DUP3 AND SWAP1 POP SWAP2 SWAP1 POP JUMP JUMPDEST PUSH0 PUSH2 0x3856 DUP3 PUSH2 0x382D JUMP JUMPDEST SWAP1 POP SWAP2 SWAP1 POP JUMP JUMPDEST PUSH2 0x3866 DUP2 PUSH2 0x384C JUMP JUMPDEST DUP3 MSTORE POP POP JUMP JUMPDEST PUSH0 PUSH1 0x20 DUP3 ADD SWAP1 POP PUSH2 0x387F PUSH0 DUP4 ADD DUP5 PUSH2 0x385D JUMP JUMPDEST SWAP3 SWAP2 POP POP JUMP JUMPDEST PUSH2 0x388E DUP2 PUSH2 0x384C JUMP JUMPDEST DUP2 EQ PUSH2 0x3898 JUMPI PUSH0 PUSH0 REVERT JUMPDEST POP JUMP JUMPDEST PUSH0 DUP2 CALLDATALOAD SWAP1 POP PUSH2 0x38A9 DUP2 PUSH2 0x3885 JUMP JUMPDEST SWAP3 SWAP2 POP POP JUMP JUMPDEST PUSH0 PUSH0 PUSH1 0x40 DUP4 DUP6 SUB SLT ISZERO PUSH2 0x38C5 JUMPI PUSH2 0x38C4 PUSH2 0x3511 JUMP JUMPDEST JUMPDEST PUSH0 PUSH2 0x38D2 DUP6 DUP3 DUP7 ADD PUSH2 0x389B JUMP JUMPDEST SWAP3 POP POP PUSH1 0x20 PUSH2 0x38E3 DUP6 DUP3 DUP7 ADD PUSH2 0x37EE JUMP JUMPDEST SWAP2 POP POP SWAP3 POP SWAP3 SWAP1 POP JUMP JUMPDEST PUSH0 PUSH8 0xFFFFFFFFFFFFFFFF DUP3 AND SWAP1 POP SWAP2 SWAP1 POP JUMP JUMPDEST PUSH2 0x3909 DUP2 PUSH2 0x38ED JUMP JUMPDEST DUP3 MSTORE POP POP JUMP JUMPDEST PUSH0 PUSH1 0x20 DUP3 ADD SWAP1 POP PUSH2 0x3922 PUSH0 DUP4 ADD DUP5 PUSH2 0x3900 JUMP JUMPDEST SWAP3 SWAP2 POP POP JUMP JUMPDEST PUSH0 DUP2 SWAP1 POP SWAP2 SWAP1 POP JUMP JUMPDEST PUSH2 0x393A DUP2 PUSH2 0x3928 JUMP JUMPDEST DUP2 EQ PUSH2 0x3944 JUMPI PUSH0 PUSH0 REVERT JUMPDEST POP JUMP JUMPDEST PUSH0 DUP2 CALLDATALOAD SWAP1 POP PUSH2 0x3955 DUP2 PUSH2 0x3931 JUMP JUMPDEST SWAP3 SWAP2 POP POP JUMP JUMPDEST PUSH0 PUSH8 0xFFFFFFFFFFFFFFFF DUP3 GT ISZERO PUSH2 0x3975 JUMPI PUSH2 0x3974 PUSH2 0x3531 JUMP JUMPDEST JUMPDEST PUSH2 0x397E DUP3 PUSH2 0x3521 JUMP JUMPDEST SWAP1 POP PUSH1 0x20 DUP2 ADD SWAP1 POP SWAP2 SWAP1 POP JUMP JUMPDEST PUSH0 PUSH2 0x399D PUSH2 0x3998 DUP5 PUSH2 0x395B JUMP JUMPDEST PUSH2 0x358F JUMP JUMPDEST SWAP1 POP DUP3 DUP2 MSTORE PUSH1 0x20 DUP2 ADD DUP5 DUP5 DUP5 ADD GT ISZERO PUSH2 0x39B9 JUMPI PUSH2 0x39B8 PUSH2 0x351D JUMP JUMPDEST JUMPDEST PUSH2 0x39C4 DUP5 DUP3 DUP6 PUSH2 0x35D9 JUMP JUMPDEST POP SWAP4 SWAP3 POP POP POP JUMP JUMPDEST PUSH0 DUP3 PUSH1 0x1F DUP4 ADD SLT PUSH2 0x39E0 JUMPI PUSH2 0x39DF PUSH2 0x3519 JUMP JUMPDEST JUMPDEST DUP2 CALLDATALOAD PUSH2 0x39F0 DUP5 DUP3 PUSH1 0x20 DUP7 ADD PUSH2 0x398B JUMP JUMPDEST SWAP2 POP POP SWAP3 SWAP2 POP POP JUMP JUMPDEST PUSH0 PUSH0 PUSH0 PUSH1 0x60 DUP5 DUP7 SUB SLT ISZERO PUSH2 0x3A10 JUMPI PUSH2 0x3A0F PUSH2 0x3511 JUMP JUMPDEST JUMPDEST PUSH0 PUSH2 0x3A1D DUP7 DUP3 DUP8 ADD PUSH2 0x3947 JUMP JUMPDEST SWAP4 POP POP PUSH1 0x20 DUP5 ADD CALLDATALOAD PUSH8 0xFFFFFFFFFFFFFFFF DUP2 GT ISZERO PUSH2 0x3A3E JUMPI PUSH2 0x3A3D PUSH2 0x3515 JUMP JUMPDEST JUMPDEST PUSH2 0x3A4A DUP7 DUP3 DUP8 ADD PUSH2 0x39CC JUMP JUMPDEST SWAP3 POP POP PUSH1 0x40 DUP5 ADD CALLDATALOAD PUSH8 0xFFFFFFFFFFFFFFFF DUP2 GT ISZERO PUSH2 0x3A6B JUMPI PUSH2 0x3A6A PUSH2 0x3515 JUMP JUMPDEST JUMPDEST PUSH2 0x3A77 DUP7 DUP3 DUP8 ADD PUSH2 0x39CC JUMP JUMPDEST SWAP2 POP POP SWAP3 POP SWAP3 POP SWAP3 JUMP JUMPDEST PUSH0 PUSH0 PUSH0 PUSH1 0x60 DUP5 DUP7 SUB SLT ISZERO PUSH2 0x3A98 JUMPI PUSH2 0x3A97 PUSH2 0x3511 JUMP JUMPDEST JUMPDEST PUSH0 PUSH2 0x3AA5 DUP7 DUP3 DUP8 ADD PUSH2 0x389B JUMP JUMPDEST SWAP4 POP POP PUSH1 0x20 PUSH2 0x3AB6 DUP7 DUP3 DUP8 ADD PUSH2 0x389B JUMP JUMPDEST SWAP3 POP POP PUSH1 0x40 PUSH2 0x3AC7 DUP7 DUP3 DUP8 ADD PUSH2 0x37EE JUMP JUMPDEST SWAP2 POP POP SWAP3 POP SWAP3 POP SWAP3 JUMP JUMPDEST PUSH2 0x3ADA DUP2 PUSH2 0x37CF JUMP JUMPDEST DUP3 MSTORE POP POP JUMP JUMPDEST PUSH0 PUSH1 0x20 DUP3 ADD SWAP1 POP PUSH2 0x3AF3 PUSH0 DUP4 ADD DUP5 PUSH2 0x3AD1 JUMP JUMPDEST SWAP3 SWAP2 POP POP JUMP JUMPDEST PUSH0 PUSH0 REVERT JUMPDEST PUSH0 PUSH0 REVERT JUMPDEST PUSH0 PUSH0 DUP4 PUSH1 0x1F DUP5 ADD SLT PUSH2 0x3B16 JUMPI PUSH2 0x3B15 PUSH2 0x3519 JUMP JUMPDEST JUMPDEST DUP3 CALLDATALOAD SWAP1 POP PUSH8 0xFFFFFFFFFFFFFFFF DUP2 GT ISZERO PUSH2 0x3B33 JUMPI PUSH2 0x3B32 PUSH2 0x3AF9 JUMP JUMPDEST JUMPDEST PUSH1 0x20 DUP4 ADD SWAP2 POP DUP4 PUSH1 0x1 DUP3 MUL DUP4 ADD GT ISZERO PUSH2 0x3B4F JUMPI PUSH2 0x3B4E PUSH2 0x3AFD JUMP JUMPDEST JUMPDEST SWAP3 POP SWAP3 SWAP1 POP JUMP JUMPDEST PUSH0 PUSH0 PUSH1 0x20 DUP4 DUP6 SUB SLT ISZERO PUSH2 0x3B6C JUMPI PUSH2 0x3B6B PUSH2 0x3511 JUMP JUMPDEST JUMPDEST PUSH0 DUP4 ADD CALLDATALOAD PUSH8 0xFFFFFFFFFFFFFFFF DUP2 GT ISZERO PUSH2 0x3B89 JUMPI PUSH2 0x3B88 PUSH2 0x3515 JUMP JUMPDEST JUMPDEST PUSH2 0x3B95 DUP6 DUP3 DUP7 ADD PUSH2 0x3B01 JUMP JUMPDEST SWAP3 POP SWAP3 POP POP SWAP3 POP SWAP3 SWAP1 POP JUMP JUMPDEST PUSH0 PUSH1 0x20 DUP3 DUP5 SUB SLT ISZERO PUSH2 0x3BB6 JUMPI PUSH2 0x3BB5 PUSH2 0x3511 JUMP JUMPDEST JUMPDEST PUSH0 PUSH2 0x3BC3 DUP5 DUP3 DUP6 ADD PUSH2 0x3947 JUMP JUMPDEST SWAP2 POP POP SWAP3 SWAP2 POP POP JUMP JUMPDEST PUSH0 DUP2 MLOAD SWAP1 POP SWAP2 SWAP1 POP JUMP JUMPDEST PUSH0 DUP3 DUP3 MSTORE PUSH1 0x20 DUP3 ADD SWAP1 POP SWAP3 SWAP2 POP POP JUMP JUMPDEST PUSH0 PUSH2 0x3BF0 DUP3 PUSH2 0x3BCC JUMP JUMPDEST PUSH2 0x3BFA DUP2 DUP6 PUSH2 0x3BD6 JUMP JUMPDEST SWAP4 POP PUSH2 0x3C0A DUP2 DUP6 PUSH1 0x20 DUP7 ADD PUSH2 0x3769 JUMP JUMPDEST PUSH2 0x3C13 DUP2 PUSH2 0x3521 JUMP JUMPDEST DUP5 ADD SWAP2 POP POP SWAP3 SWAP2 POP POP JUMP JUMPDEST PUSH0 PUSH1 0x40 DUP3 ADD SWAP1 POP PUSH2 0x3C31 PUSH0 DUP4 ADD DUP6 PUSH2 0x3727 JUMP JUMPDEST DUP2 DUP2 SUB PUSH1 0x20 DUP4 ADD MSTORE PUSH2 0x3C43 DUP2 DUP5 PUSH2 0x3BE6 JUMP JUMPDEST SWAP1 POP SWAP4 SWAP3 POP POP POP JUMP JUMPDEST PUSH0 PUSH1 0x20 DUP3 DUP5 SUB SLT ISZERO PUSH2 0x3C61 JUMPI PUSH2 0x3C60 PUSH2 0x3511 JUMP JUMPDEST JUMPDEST PUSH0 PUSH2 0x3C6E DUP5 DUP3 DUP6 ADD PUSH2 0x389B JUMP JUMPDEST SWAP2 POP POP SWAP3 SWAP2 POP POP JUMP JUMPDEST PUSH2 0x3C80 DUP2 PUSH2 0x371C JUMP JUMPDEST DUP2 EQ PUSH2 0x3C8A JUMPI PUSH0 PUSH0 REVERT JUMPDEST POP JUMP JUMPDEST PUSH0 DUP2 CALLDATALOAD SWAP1 POP PUSH2 0x3C9B DUP2 PUSH2 0x3C77 JUMP JUMPDEST SWAP3 SWAP2 POP POP JUMP JUMPDEST PUSH0 PUSH0 PUSH1 0x40 DUP4 DUP6 SUB SLT ISZERO PUSH2 0x3CB7 JUMPI PUSH2 0x3CB6 PUSH2 0x3511 JUMP JUMPDEST JUMPDEST PUSH0 PUSH2 0x3CC4 DUP6 DUP3 DUP7 ADD PUSH2 0x389B JUMP JUMPDEST SWAP3 POP POP PUSH1 0x20 PUSH2 0x3CD5 DUP6 DUP3 DUP7 ADD PUSH2 0x3C8D JUMP JUMPDEST SWAP2 POP POP SWAP3 POP SWAP3 SWAP1 POP JUMP JUMPDEST PUSH0 PUSH1 0xC0 DUP3 ADD SWAP1 POP DUP2 DUP2 SUB PUSH0 DUP4 ADD MSTORE PUSH2 0x3CF7 DUP2 DUP10 PUSH2 0x3777 JUMP JUMPDEST SWAP1 POP DUP2 DUP2 SUB PUSH1 0x20 DUP4 ADD MSTORE PUSH2 0x3D0B DUP2 DUP9 PUSH2 0x3777 JUMP JUMPDEST SWAP1 POP PUSH2 0x3D1A PUSH1 0x40 DUP4 ADD DUP8 PUSH2 0x3900 JUMP JUMPDEST PUSH2 0x3D27 PUSH1 0x60 DUP4 ADD DUP7 PUSH2 0x3900 JUMP JUMPDEST PUSH2 0x3D34 PUSH1 0x80 DUP4 ADD DUP6 PUSH2 0x3900 JUMP JUMPDEST PUSH2 0x3D41 PUSH1 0xA0 DUP4 ADD DUP5 PUSH2 0x3900 JUMP JUMPDEST SWAP8 SWAP7 POP POP POP POP POP POP POP JUMP JUMPDEST PUSH0 PUSH0 PUSH0 PUSH0 PUSH1 0x80 DUP6 DUP8 SUB SLT ISZERO PUSH2 0x3D64 JUMPI PUSH2 0x3D63 PUSH2 0x3511 JUMP JUMPDEST JUMPDEST PUSH0 PUSH2 0x3D71 DUP8 DUP3 DUP9 ADD PUSH2 0x389B JUMP JUMPDEST SWAP5 POP POP PUSH1 0x20 PUSH2 0x3D82 DUP8 DUP3 DUP9 ADD PUSH2 0x389B JUMP JUMPDEST SWAP4 POP POP PUSH1 0x40 PUSH2 0x3D93 DUP8 DUP3 DUP9 ADD PUSH2 0x37EE JUMP JUMPDEST SWAP3 POP POP PUSH1 0x60 DUP6 ADD CALLDATALOAD PUSH8 0xFFFFFFFFFFFFFFFF DUP2 GT ISZERO PUSH2 0x3DB4 JUMPI PUSH2 0x3DB3 PUSH2 0x3515 JUMP JUMPDEST JUMPDEST PUSH2 0x3DC0 DUP8 DUP3 DUP9 ADD PUSH2 0x39CC JUMP JUMPDEST SWAP2 POP POP SWAP3 SWAP6 SWAP2 SWAP5 POP SWAP3 POP JUMP JUMPDEST PUSH0 PUSH0 PUSH1 0x40 DUP4 DUP6 SUB SLT ISZERO PUSH2 0x3DE2 JUMPI PUSH2 0x3DE1 PUSH2 0x3511 JUMP JUMPDEST JUMPDEST PUSH0 PUSH2 0x3DEF DUP6 DUP3 DUP7 ADD PUSH2 0x389B JUMP JUMPDEST SWAP3 POP POP PUSH1 0x20 PUSH2 0x3E00 DUP6 DUP3 DUP7 ADD PUSH2 0x389B JUMP JUMPDEST SWAP2 POP POP SWAP3 POP SWAP3 SWAP1 POP JUMP JUMPDEST PUSH0 PUSH0 PUSH0 PUSH1 0x60 DUP5 DUP7 SUB SLT ISZERO PUSH2 0x3E21 JUMPI PUSH2 0x3E20 PUSH2 0x3511 JUMP JUMPDEST JUMPDEST PUSH0 PUSH2 0x3E2E DUP7 DUP3 DUP8 ADD PUSH2 0x389B JUMP JUMPDEST SWAP4 POP POP PUSH1 0x20 DUP5 ADD CALLDATALOAD PUSH8 0xFFFFFFFFFFFFFFFF DUP2 GT ISZERO PUSH2 0x3E4F JUMPI PUSH2 0x3E4E PUSH2 0x3515 JUMP JUMPDEST JUMPDEST PUSH2 0x3E5B DUP7 DUP3 DUP8 ADD PUSH2 0x3628 JUMP JUMPDEST SWAP3 POP POP PUSH1 0x40 DUP5 ADD CALLDATALOAD PUSH8 0xFFFFFFFFFFFFFFFF DUP2 GT ISZERO PUSH2 0x3E7C JUMPI PUSH2 0x3E7B PUSH2 0x3515 JUMP JUMPDEST JUMPDEST PUSH2 0x3E88 DUP7 DUP3 DUP8 ADD PUSH2 0x3628 JUMP JUMPDEST SWAP2 POP POP SWAP3 POP SWAP3 POP SWAP3 JUMP JUMPDEST PUSH32 0x4E487B7100000000000000000000000000000000000000000000000000000000 PUSH0 MSTORE PUSH1 0x22 PUSH1 0x4 MSTORE PUSH1 0x24 PUSH0 REVERT JUMPDEST PUSH0 PUSH1 0x2 DUP3 DIV SWAP1 POP PUSH1 0x1 DUP3 AND DUP1 PUSH2 0x3ED6 JUMPI PUSH1 0x7F DUP3 AND SWAP2 POP JUMPDEST PUSH1 0x20 DUP3 LT DUP2 SUB PUSH2 0x3EE9 JUMPI PUSH2 0x3EE8 PUSH2 0x3E92 JUMP JUMPDEST JUMPDEST POP SWAP2 SWAP1 POP JUMP JUMPDEST PUSH0 DUP2 SWAP1 POP DUP2 PUSH0 MSTORE PUSH1 0x20 PUSH0 KECCAK256 SWAP1 POP SWAP2 SWAP1 POP JUMP JUMPDEST PUSH0 PUSH1 0x20 PUSH1 0x1F DUP4 ADD DIV SWAP1 POP SWAP2 SWAP1 POP JUMP JUMPDEST PUSH0 DUP3 DUP3 SHL SWAP1 POP SWAP3 SWAP2 POP POP JUMP JUMPDEST PUSH0 PUSH1 0x8 DUP4 MUL PUSH2 0x3F4B PUSH32 0xFFFFFFFFFFFFFFFFFFFFFFFFFFFFFFFFFFFFFFFFFFFFFFFFFFFFFFFFFFFFFFFF DUP3 PUSH2 0x3F10 JUMP JUMPDEST PUSH2 0x3F55 DUP7 DUP4 PUSH2 0x3F10 JUMP JUMPDEST SWAP6 POP DUP1 NOT DUP5 AND SWAP4 POP DUP1 DUP7 AND DUP5 OR SWAP3 POP POP POP SWAP4 SWAP3 POP POP POP JUMP JUMPDEST PUSH0 DUP2 SWAP1 POP SWAP2 SWAP1 POP JUMP JUMPDEST PUSH0 PUSH2 0x3F90 PUSH2 0x3F8B PUSH2 0x3F86 DUP5 PUSH2 0x37CF JUMP JUMPDEST PUSH2 0x3F6D JUMP JUMPDEST PUSH2 0x37CF JUMP JUMPDEST SWAP1 POP SWAP2 SWAP1 POP JUMP JUMPDEST PUSH0 DUP2 SWAP1 POP SWAP2 SWAP1 POP JUMP JUMPDEST PUSH2 0x3FA9 DUP4 PUSH2 0x3F76 JUMP JUMPDEST PUSH2 0x3FBD PUSH2 0x3FB5 DUP3 PUSH2 0x3F97 JUMP JUMPDEST DUP5 DUP5 SLOAD PUSH2 0x3F1C JUMP JUMPDEST DUP3 SSTORE POP POP POP POP JUMP JUMPDEST PUSH0 PUSH0 SWAP1 POP SWAP1 JUMP JUMPDEST PUSH2 0x3FD4 PUSH2 0x3FC5 JUMP JUMPDEST PUSH2 0x3FDF DUP2 DUP5 DUP5 PUSH2 0x3FA0 JUMP JUMPDEST POP POP POP JUMP JUMPDEST PUSH0 JUMPDEST DUP3 DUP2 LT ISZERO PUSH2 0x4005 JUMPI PUSH2 0x3FFA PUSH0 DUP3 DUP5 ADD PUSH2 0x3FCC JUMP JUMPDEST PUSH1 0x1 DUP2 ADD SWAP1 POP PUSH2 0x3FE6 JUMP JUMPDEST POP POP POP JUMP JUMPDEST PUSH1 0x1F DUP3 GT ISZERO PUSH2 0x4058 JUMPI DUP3 DUP3 GT ISZERO PUSH2 0x4057 JUMPI PUSH2 0x4024 DUP2 PUSH2 0x3EEF JUMP JUMPDEST PUSH2 0x402D DUP4 PUSH2 0x3F01 JUMP JUMPDEST PUSH2 0x4036 DUP6 PUSH2 0x3F01 JUMP JUMPDEST PUSH1 0x20 DUP7 LT ISZERO PUSH2 0x4043 JUMPI PUSH0 SWAP1 POP JUMPDEST DUP1 DUP4 ADD PUSH2 0x4052 DUP3 DUP5 SUB DUP3 PUSH2 0x3FE4 JUMP JUMPDEST POP POP POP POP JUMPDEST JUMPDEST POP POP POP JUMP JUMPDEST PUSH0 DUP3 DUP3 SHR SWAP1 POP SWAP3 SWAP2 POP POP JUMP JUMPDEST PUSH0 PUSH2 0x4078 PUSH0 NOT DUP5 PUSH1 0x8 MUL PUSH2 0x405D JUMP JUMPDEST NOT DUP1 DUP4 AND SWAP2 POP POP SWAP3 SWAP2 POP POP JUMP JUMPDEST PUSH0 PUSH2 0x4090 DUP4 DUP4 PUSH2 0x4069 JUMP JUMPDEST SWAP2 POP DUP3 PUSH1 0x2 MUL DUP3 OR SWAP1 POP SWAP3 SWAP2 POP POP JUMP JUMPDEST PUSH2 0x40A9 DUP3 PUSH2 0x374F JUMP JUMPDEST PUSH8 0xFFFFFFFFFFFFFFFF DUP2 GT ISZERO PUSH2 0x40C2 JUMPI PUSH2 0x40C1 PUSH2 0x3531 JUMP JUMPDEST JUMPDEST PUSH2 0x40CC DUP3 SLOAD PUSH2 0x3EBF JUMP JUMPDEST PUSH2 0x40D7 DUP3 DUP3 DUP6 PUSH2 0x400A JUMP JUMPDEST PUSH0 PUSH1 0x20 SWAP1 POP PUSH1 0x1F DUP4 GT PUSH1 0x1 DUP2 EQ PUSH2 0x4108 JUMPI PUSH0 DUP5 ISZERO PUSH2 0x40F6 JUMPI DUP3 DUP8 ADD MLOAD SWAP1 POP JUMPDEST PUSH2 0x4100 DUP6 DUP3 PUSH2 0x4085 JUMP JUMPDEST DUP7 SSTORE POP PUSH2 0x4167 JUMP JUMPDEST PUSH1 0x1F NOT DUP5 AND PUSH2 0x4116 DUP7 PUSH2 0x3EEF JUMP JUMPDEST PUSH0 JUMPDEST DUP3 DUP2 LT ISZERO PUSH2 0x413D JUMPI DUP5 DUP10 ADD MLOAD DUP3 SSTORE PUSH1 0x1 DUP3 ADD SWAP2 POP PUSH1 0x20 DUP6 ADD SWAP5 POP PUSH1 0x20 DUP2 ADD SWAP1 POP PUSH2 0x4118 JUMP JUMPDEST DUP7 DUP4 LT ISZERO PUSH2 0x415A JUMPI DUP5 DUP10 ADD MLOAD PUSH2 0x4156 PUSH1 0x1F DUP10 AND DUP3 PUSH2 0x4069 JUMP JUMPDEST DUP4 SSTORE POP JUMPDEST PUSH1 0x1 PUSH1 0x2 DUP9 MUL ADD DUP9 SSTORE POP POP POP JUMPDEST POP POP POP POP POP POP JUMP JUMPDEST PUSH0 PUSH1 0x60 DUP3 ADD SWAP1 POP PUSH2 0x4182 PUSH0 DUP4 ADD DUP7 PUSH2 0x385D JUMP JUMPDEST PUSH2 0x418F PUSH1 0x20 DUP4 ADD DUP6 PUSH2 0x3AD1 JUMP JUMPDEST PUSH2 0x419C PUSH1 0x40 DUP4 ADD DUP5 PUSH2 0x385D JUMP JUMPDEST SWAP5 SWAP4 POP POP POP POP JUMP JUMPDEST PUSH32 0x4E487B7100000000000000000000000000000000000000000000000000000000 PUSH0 MSTORE PUSH1 0x11 PUSH1 0x4 MSTORE PUSH1 0x24 PUSH0 REVERT JUMPDEST PUSH0 PUSH2 0x41DB DUP3 PUSH2 0x37CF JUMP JUMPDEST SWAP2 POP PUSH2 0x41E6 DUP4 PUSH2 0x37CF JUMP JUMPDEST SWAP3 POP DUP3 DUP3 SUB SWAP1 POP DUP2 DUP2 GT ISZERO PUSH2 0x41FE JUMPI PUSH2 0x41FD PUSH2 0x41A4 JUMP JUMPDEST JUMPDEST SWAP3 SWAP2 POP POP JUMP JUMPDEST PUSH0 PUSH2 0x420E DUP3 PUSH2 0x37CF JUMP JUMPDEST SWAP2 POP PUSH2 0x4219 DUP4 PUSH2 0x37CF JUMP JUMPDEST SWAP3 POP DUP3 DUP3 ADD SWAP1 POP DUP1 DUP3 GT ISZERO PUSH2 0x4231 JUMPI PUSH2 0x4230 PUSH2 0x41A4 JUMP JUMPDEST JUMPDEST SWAP3 SWAP2 POP POP JUMP JUMPDEST PUSH0 PUSH2 0x4241 DUP3 PUSH2 0x37CF JUMP JUMPDEST SWAP2 POP PUSH2 0x424C DUP4 PUSH2 0x37CF JUMP JUMPDEST SWAP3 POP DUP3 DUP3 MUL PUSH2 0x425A DUP2 PUSH2 0x37CF JUMP JUMPDEST SWAP2 POP DUP3 DUP3 DIV DUP5 EQ DUP4 ISZERO OR PUSH2 0x4271 JUMPI PUSH2 0x4270 PUSH2 0x41A4 JUMP JUMPDEST JUMPDEST POP SWAP3 SWAP2 POP POP JUMP JUMPDEST PUSH32 0x4E487B7100000000000000000000000000000000000000000000000000000000 PUSH0 MSTORE PUSH1 0x12 PUSH1 0x4 MSTORE PUSH1 0x24 PUSH0 REVERT JUMPDEST PUSH0 PUSH2 0x42AF DUP3 PUSH2 0x37CF JUMP JUMPDEST SWAP2 POP PUSH2 0x42BA DUP4 PUSH2 0x37CF JUMP JUMPDEST SWAP3 POP DUP3 PUSH2 0x42CA JUMPI PUSH2 0x42C9 PUSH2 0x4278 JUMP JUMPDEST JUMPDEST DUP3 DUP3 DIV SWAP1 POP SWAP3 SWAP2 POP POP JUMP JUMPDEST PUSH0 PUSH2 0x42DF DUP3 PUSH2 0x37CF JUMP JUMPDEST SWAP2 POP PUSH2 0x42EA DUP4 PUSH2 0x37CF JUMP JUMPDEST SWAP3 POP DUP3 PUSH2 0x42FA JUMPI PUSH2 0x42F9 PUSH2 0x4278 JUMP JUMPDEST JUMPDEST DUP3 DUP3 MOD SWAP1 POP SWAP3 SWAP2 POP POP JUMP JUMPDEST PUSH0 DUP2 SWAP1 POP SWAP3 SWAP2 POP POP JUMP JUMPDEST PUSH0 PUSH2 0x4319 DUP3 PUSH2 0x374F JUMP JUMPDEST PUSH2 0x4323 DUP2 DUP6 PUSH2 0x4305 JUMP JUMPDEST SWAP4 POP PUSH2 0x4333 DUP2 DUP6 PUSH1 0x20 DUP7 ADD PUSH2 0x3769 JUMP JUMPDEST DUP1 DUP5 ADD SWAP2 POP POP SWAP3 SWAP2 POP POP JUMP JUMPDEST PUSH32 0x2E00000000000000000000000000000000000000000000000000000000000000 DUP2 MSTORE POP JUMP JUMPDEST PUSH0 PUSH2 0x4370 DUP3 DUP6 PUSH2 0x430F JUMP JUMPDEST SWAP2 POP PUSH2 0x437B DUP3 PUSH2 0x433F JUMP JUMPDEST PUSH1 0x1 DUP3 ADD SWAP2 POP PUSH2 0x438B DUP3 DUP5 PUSH2 0x430F JUMP JUMPDEST SWAP2 POP DUP2 SWAP1 POP SWAP4 SWAP3 POP POP POP JUMP JUMPDEST PUSH32 0x3C7376672077696474683D2233323022206865696768743D2234303022207669 PUSH0 DUP3 ADD MSTORE PUSH32 0x6577426F783D2230203020333230203430302220786D6C6E733D22687474703A PUSH1 0x20 DUP3 ADD MSTORE PUSH32 0x2F2F7777772E77332E6F72672F323030302F737667223E000000000000000000 PUSH1 0x40 DUP3 ADD MSTORE POP JUMP JUMPDEST PUSH0 PUSH2 0x4417 PUSH1 0x57 DUP4 PUSH2 0x4305 JUMP JUMPDEST SWAP2 POP PUSH2 0x4422 DUP3 PUSH2 0x4397 JUMP JUMPDEST PUSH1 0x57 DUP3 ADD SWAP1 POP SWAP2 SWAP1 POP JUMP JUMPDEST PUSH32 0x3C672073686170652D72656E646572696E673D2263726973704564676573223E PUSH0 DUP3 ADD MSTORE PUSH32 0x3C7265637420783D22302220793D2230222077696474683D2233323022206865 PUSH1 0x20 DUP3 ADD MSTORE PUSH32 0x696768743D22343030222066696C6C3D2223313531353135222F3E3C72656374 PUSH1 0x40 DUP3 ADD MSTORE PUSH32 0x20783D22382220793D2238222077696474683D2233303422206865696768743D PUSH1 0x60 DUP3 ADD MSTORE PUSH32 0x22333834222066696C6C3D2223303232663532222F3E3C7465787420783D2231 PUSH1 0x80 DUP3 ADD MSTORE PUSH32 0x36302220793D223430222066696C6C3D22236563663066312220666F6E742D73 PUSH1 0xA0 DUP3 ADD MSTORE PUSH32 0x697A653D2232302220746578742D616E63686F723D226D6964646C652220666F PUSH1 0xC0 DUP3 ADD MSTORE PUSH32 0x6E742D7765696768743D22626F6C64223E504C4159455220434152443C2F7465 PUSH1 0xE0 DUP3 ADD MSTORE PUSH32 0x78743E3C6C696E652078313D223230222079313D223535222078323D22333030 PUSH2 0x100 DUP3 ADD MSTORE PUSH32 0x222079323D22353522207374726F6B653D222365636630663122207374726F6B PUSH2 0x120 DUP3 ADD MSTORE PUSH32 0x652D77696474683D2234222F3E3C2F673E000000000000000000000000000000 PUSH2 0x140 DUP3 ADD MSTORE POP JUMP JUMPDEST PUSH0 PUSH2 0x45E1 PUSH2 0x151 DUP4 PUSH2 0x4305 JUMP JUMPDEST SWAP2 POP PUSH2 0x45EC DUP3 PUSH2 0x442D JUMP JUMPDEST PUSH2 0x151 DUP3 ADD SWAP1 POP SWAP2 SWAP1 POP JUMP JUMPDEST PUSH32 0x3C2F7376673E0000000000000000000000000000000000000000000000000000 DUP2 MSTORE POP JUMP JUMPDEST PUSH0 PUSH2 0x4628 DUP3 PUSH2 0x440B JUMP JUMPDEST SWAP2 POP PUSH2 0x4633 DUP3 PUSH2 0x45D4 JUMP JUMPDEST SWAP2 POP PUSH2 0x463F DUP3 DUP6 PUSH2 0x430F JUMP JUMPDEST SWAP2 POP PUSH2 0x464B DUP3 DUP5 PUSH2 0x430F JUMP JUMPDEST SWAP2 POP PUSH2 0x4656 DUP3 PUSH2 0x45F8 JUMP JUMPDEST PUSH1 0x6 DUP3 ADD SWAP2 POP DUP2 SWAP1 POP SWAP4 SWAP3 POP POP POP JUMP JUMPDEST PUSH32 0x7B226E616D65223A20224D504C204F7074205632202300000000000000000000 DUP2 MSTORE POP JUMP JUMPDEST PUSH32 0x222C2022696D616765223A2022646174613A696D6167652F7376672B786D6C3B PUSH0 DUP3 ADD MSTORE PUSH32 0x6261736536342C00000000000000000000000000000000000000000000000000 PUSH1 0x20 DUP3 ADD MSTORE POP JUMP JUMPDEST PUSH0 PUSH2 0x46E6 PUSH1 0x27 DUP4 PUSH2 0x4305 JUMP JUMPDEST SWAP2 POP PUSH2 0x46F1 DUP3 PUSH2 0x468C JUMP JUMPDEST PUSH1 0x27 DUP3 ADD SWAP1 POP SWAP2 SWAP1 POP JUMP JUMPDEST PUSH32 0x227D000000000000000000000000000000000000000000000000000000000000 DUP2 MSTORE POP JUMP JUMPDEST PUSH0 PUSH2 0x472C DUP3 PUSH2 0x4666 JUMP JUMPDEST PUSH1 0x16 DUP3 ADD SWAP2 POP PUSH2 0x473C DUP3 DUP6 PUSH2 0x430F JUMP JUMPDEST SWAP2 POP PUSH2 0x4747 DUP3 PUSH2 0x46DA JUMP JUMPDEST SWAP2 POP PUSH2 0x4753 DUP3 DUP5 PUSH2 0x430F JUMP JUMPDEST SWAP2 POP PUSH2 0x475E DUP3 PUSH2 0x46FC JUMP JUMPDEST PUSH1 0x2 DUP3 ADD SWAP2 POP DUP2 SWAP1 POP SWAP4 SWAP3 POP POP POP JUMP JUMPDEST PUSH32 0x646174613A6170706C69636174696F6E2F6A736F6E3B6261736536342C000000 DUP2 MSTORE POP JUMP JUMPDEST PUSH0 PUSH2 0x479E DUP3 PUSH2 0x476E JUMP JUMPDEST PUSH1 0x1D DUP3 ADD SWAP2 POP PUSH2 0x47AE DUP3 DUP5 PUSH2 0x430F JUMP JUMPDEST SWAP2 POP DUP2 SWAP1 POP SWAP3 SWAP2 POP POP JUMP JUMPDEST PUSH0 PUSH2 0x47C3 DUP3 PUSH2 0x37CF JUMP JUMPDEST SWAP2 POP PUSH32 0xFFFFFFFFFFFFFFFFFFFFFFFFFFFFFFFFFFFFFFFFFFFFFFFFFFFFFFFFFFFFFFFF DUP3 SUB PUSH2 0x47F5 JUMPI PUSH2 0x47F4 PUSH2 0x41A4 JUMP JUMPDEST JUMPDEST PUSH1 0x1 DUP3 ADD SWAP1 POP SWAP2 SWAP1 POP JUMP JUMPDEST PUSH32 0x4F7261636C65204572726F720000000000000000000000000000000000000000 PUSH0 DUP3 ADD MSTORE POP JUMP JUMPDEST PUSH0 PUSH2 0x4834 PUSH1 0xC DUP4 PUSH2 0x3759 JUMP JUMPDEST SWAP2 POP PUSH2 0x483F DUP3 PUSH2 0x4800 JUMP JUMPDEST PUSH1 0x20 DUP3 ADD SWAP1 POP SWAP2 SWAP1 POP JUMP JUMPDEST PUSH0 PUSH1 0x20 DUP3 ADD SWAP1 POP DUP2 DUP2 SUB PUSH0 DUP4 ADD MSTORE PUSH2 0x4861 DUP2 PUSH2 0x4828 JUMP JUMPDEST SWAP1 POP SWAP2 SWAP1 POP JUMP JUMPDEST PUSH0 DUP2 MLOAD SWAP1 POP PUSH2 0x4876 DUP2 PUSH2 0x37D8 JUMP JUMPDEST SWAP3 SWAP2 POP POP JUMP JUMPDEST PUSH0 PUSH1 0x20 DUP3 DUP5 SUB SLT ISZERO PUSH2 0x4891 JUMPI PUSH2 0x4890 PUSH2 0x3511 JUMP JUMPDEST JUMPDEST PUSH0 PUSH2 0x489E DUP5 DUP3 DUP6 ADD PUSH2 0x4868 JUMP JUMPDEST SWAP2 POP POP SWAP3 SWAP2 POP POP JUMP JUMPDEST PUSH32 0x4E487B7100000000000000000000000000000000000000000000000000000000 PUSH0 MSTORE PUSH1 0x32 PUSH1 0x4 MSTORE PUSH1 0x24 PUSH0 REVERT JUMPDEST PUSH32 0x3C67207472616E73666F726D3D227472616E736C617465283138302C20313030 PUSH0 DUP3 ADD MSTORE PUSH32 0x29222073686170652D72656E646572696E673D2263726973704564676573223E PUSH1 0x20 DUP3 ADD MSTORE POP JUMP JUMPDEST PUSH0 PUSH2 0x492E PUSH1 0x40 DUP4 PUSH2 0x4305 JUMP JUMPDEST SWAP2 POP PUSH2 0x4939 DUP3 PUSH2 0x48D4 JUMP JUMPDEST PUSH1 0x40 DUP3 ADD SWAP1 POP SWAP2 SWAP1 POP JUMP JUMPDEST PUSH32 0x3C7465787420783D222D33302220793D223230222066696C6C3D222333343938 PUSH0 DUP3 ADD MSTORE PUSH32 0x64622220666F6E742D73697A653D223134223E504C41594552204E414D453A3C PUSH1 0x20 DUP3 ADD MSTORE PUSH32 0x2F746578743E3C7465787420783D222D33302220793D223530222066696C6C3D PUSH1 0x40 DUP3 ADD MSTORE PUSH32 0x22236563663066312220666F6E742D73697A653D2232342220666F6E742D7765 PUSH1 0x60 DUP3 ADD MSTORE PUSH32 0x696768743D22626F6C64223E0000000000000000000000000000000000000000 PUSH1 0x80 DUP3 ADD MSTORE POP JUMP JUMPDEST PUSH0 PUSH2 0x4A10 PUSH1 0x8C DUP4 PUSH2 0x4305 JUMP JUMPDEST SWAP2 POP PUSH2 0x4A1B DUP3 PUSH2 0x4944 JUMP JUMPDEST PUSH1 0x8C DUP3 ADD SWAP1 POP SWAP2 SWAP1 POP JUMP JUMPDEST PUSH32 0x3C2F746578743E3C6C696E652078313D222D3235222079313D22373522207832 PUSH0 DUP3 ADD MSTORE PUSH32 0x3D22313230222079323D22373522207374726F6B653D22233535352220737472 PUSH1 0x20 DUP3 ADD MSTORE PUSH32 0x6F6B652D77696474683D223422207374726F6B652D6461736861727261793D22 PUSH1 0x40 DUP3 ADD MSTORE PUSH32 0x382C36222F3E0000000000000000000000000000000000000000000000000000 PUSH1 0x60 DUP3 ADD MSTORE POP JUMP JUMPDEST PUSH0 PUSH2 0x4ACC PUSH1 0x66 DUP4 PUSH2 0x4305 JUMP JUMPDEST SWAP2 POP PUSH2 0x4AD7 DUP3 PUSH2 0x4A26 JUMP JUMPDEST PUSH1 0x66 DUP3 ADD SWAP1 POP SWAP2 SWAP1 POP JUMP JUMPDEST PUSH32 0x3C7465787420783D222D33302220793D22313030222066696C6C3D2223656366 PUSH0 DUP3 ADD MSTORE PUSH32 0x3066312220666F6E742D73697A653D223134223E4C414E453A3C2F746578743E PUSH1 0x20 DUP3 ADD MSTORE PUSH32 0x3C7465787420783D223132302220793D22313030222066696C6C3D2223656366 PUSH1 0x40 DUP3 ADD MSTORE PUSH32 0x3066312220666F6E742D73697A653D2231342220746578742D616E63686F723D PUSH1 0x60 DUP3 ADD MSTORE PUSH32 0x22656E64223E0000000000000000000000000000000000000000000000000000 PUSH1 0x80 DUP3 ADD MSTORE POP JUMP JUMPDEST PUSH0 PUSH2 0x4BAE PUSH1 0x86 DUP4 PUSH2 0x4305 JUMP JUMPDEST SWAP2 POP PUSH2 0x4BB9 DUP3 PUSH2 0x4AE2 JUMP JUMPDEST PUSH1 0x86 DUP3 ADD SWAP1 POP SWAP2 SWAP1 POP JUMP JUMPDEST PUSH32 0x3C2F746578743E00000000000000000000000000000000000000000000000000 DUP2 MSTORE POP JUMP JUMPDEST PUSH32 0x3C7465787420783D222D33302220793D22313235222066696C6C3D2223656366 PUSH0 DUP3 ADD MSTORE PUSH32 0x3066312220666F6E742D73697A653D223134223E47414D453A3C2F746578743E PUSH1 0x20 DUP3 ADD MSTORE PUSH32 0x3C7465787420783D223132302220793D22313235222066696C6C3D2223656366 PUSH1 0x40 DUP3 ADD MSTORE PUSH32 0x3066312220666F6E742D73697A653D2231342220746578742D616E63686F723D PUSH1 0x60 DUP3 ADD MSTORE PUSH32 0x22656E64223E0000000000000000000000000000000000000000000000000000 PUSH1 0x80 DUP3 ADD MSTORE POP JUMP JUMPDEST PUSH0 PUSH2 0x4CB6 PUSH1 0x86 DUP4 PUSH2 0x4305 JUMP JUMPDEST SWAP2 POP PUSH2 0x4CC1 DUP3 PUSH2 0x4BEA JUMP JUMPDEST PUSH1 0x86 DUP3 ADD SWAP1 POP SWAP2 SWAP1 POP JUMP JUMPDEST PUSH32 0x3C7465787420783D222D33302220793D22313530222066696C6C3D2223656366 PUSH0 DUP3 ADD MSTORE PUSH32 0x3066312220666F6E742D73697A653D223134223E4B494C4C533A3C2F74657874 PUSH1 0x20 DUP3 ADD MSTORE PUSH32 0x3E3C7465787420783D223132302220793D22313530222066696C6C3D22236563 PUSH1 0x40 DUP3 ADD MSTORE PUSH32 0x663066312220666F6E742D73697A653D2231342220746578742D616E63686F72 PUSH1 0x60 DUP3 ADD MSTORE PUSH32 0x3D22656E64223E00000000000000000000000000000000000000000000000000 PUSH1 0x80 DUP3 ADD MSTORE POP JUMP JUMPDEST PUSH0 PUSH2 0x4D98 PUSH1 0x87 DUP4 PUSH2 0x4305 JUMP JUMPDEST SWAP2 POP PUSH2 0x4DA3 DUP3 PUSH2 0x4CCC JUMP JUMPDEST PUSH1 0x87 DUP3 ADD SWAP1 POP SWAP2 SWAP1 POP JUMP JUMPDEST PUSH32 0x3C7465787420783D222D33302220793D22313735222066696C6C3D2223656366 PUSH0 DUP3 ADD MSTORE PUSH32 0x3066312220666F6E742D73697A653D223134223E4445415448533A3C2F746578 PUSH1 0x20 DUP3 ADD MSTORE PUSH32 0x743E3C7465787420783D223132302220793D22313735222066696C6C3D222365 PUSH1 0x40 DUP3 ADD MSTORE PUSH32 0x63663066312220666F6E742D73697A653D2231342220746578742D616E63686F PUSH1 0x60 DUP3 ADD MSTORE PUSH32 0x723D22656E64223E000000000000000000000000000000000000000000000000 PUSH1 0x80 DUP3 ADD MSTORE POP JUMP JUMPDEST PUSH0 PUSH2 0x4E7A PUSH1 0x88 DUP4 PUSH2 0x4305 JUMP JUMPDEST SWAP2 POP PUSH2 0x4E85 DUP3 PUSH2 0x4DAE JUMP JUMPDEST PUSH1 0x88 DUP3 ADD SWAP1 POP SWAP2 SWAP1 POP JUMP JUMPDEST PUSH32 0x3C7465787420783D222D33302220793D22323030222066696C6C3D2223656366 PUSH0 DUP3 ADD MSTORE PUSH32 0x3066312220666F6E742D73697A653D223134223E415353495354533A3C2F7465 PUSH1 0x20 DUP3 ADD MSTORE PUSH32 0x78743E3C7465787420783D223132302220793D22323030222066696C6C3D2223 PUSH1 0x40 DUP3 ADD MSTORE PUSH32 0x6563663066312220666F6E742D73697A653D2231342220746578742D616E6368 PUSH1 0x60 DUP3 ADD MSTORE PUSH32 0x6F723D22656E64223E0000000000000000000000000000000000000000000000 PUSH1 0x80 DUP3 ADD MSTORE POP JUMP JUMPDEST PUSH0 PUSH2 0x4F5C PUSH1 0x89 DUP4 PUSH2 0x4305 JUMP JUMPDEST SWAP2 POP PUSH2 0x4F67 DUP3 PUSH2 0x4E90 JUMP JUMPDEST PUSH1 0x89 DUP3 ADD SWAP1 POP SWAP2 SWAP1 POP JUMP JUMPDEST PUSH32 0x3C7465787420783D222D33302220793D22323235222066696C6C3D2223656366 PUSH0 DUP3 ADD MSTORE PUSH32 0x3066312220666F6E742D73697A653D223134223E4B44413A3C2F746578743E3C PUSH1 0x20 DUP3 ADD MSTORE PUSH32 0x7465787420783D223132302220793D22323235222066696C6C3D222365636630 PUSH1 0x40 DUP3 ADD MSTORE PUSH32 0x66312220666F6E742D73697A653D2231342220746578742D616E63686F723D22 PUSH1 0x60 DUP3 ADD MSTORE PUSH32 0x656E64223E000000000000000000000000000000000000000000000000000000 PUSH1 0x80 DUP3 ADD MSTORE POP JUMP JUMPDEST PUSH0 PUSH2 0x503E PUSH1 0x85 DUP4 PUSH2 0x4305 JUMP JUMPDEST SWAP2 POP PUSH2 0x5049 DUP3 PUSH2 0x4F72 JUMP JUMPDEST PUSH1 0x85 DUP3 ADD SWAP1 POP SWAP2 SWAP1 POP JUMP JUMPDEST PUSH32 0x3C6C696E652078313D222D3330222079313D22323430222078323D2231323022 PUSH0 DUP3 ADD MSTORE PUSH32 0x2079323D2232343022207374726F6B653D222335353522207374726F6B652D77 PUSH1 0x20 DUP3 ADD MSTORE PUSH32 0x696474683D223422207374726F6B652D6461736861727261793D22382C36222F PUSH1 0x40 DUP3 ADD MSTORE PUSH32 0x3E3C2F673E000000000000000000000000000000000000000000000000000000 PUSH1 0x60 DUP3 ADD MSTORE POP JUMP JUMPDEST PUSH0 PUSH2 0x50FA PUSH1 0x65 DUP4 PUSH2 0x4305 JUMP JUMPDEST SWAP2 POP PUSH2 0x5105 DUP3 PUSH2 0x5054 JUMP JUMPDEST PUSH1 0x65 DUP3 ADD SWAP1 POP SWAP2 SWAP1 POP JUMP JUMPDEST PUSH0 PUSH2 0x511A DUP3 PUSH2 0x4922 JUMP JUMPDEST SWAP2 POP PUSH2 0x5125 DUP3 PUSH2 0x4A04 JUMP JUMPDEST SWAP2 POP PUSH2 0x5131 DUP3 DUP11 PUSH2 0x430F JUMP JUMPDEST SWAP2 POP PUSH2 0x513C DUP3 PUSH2 0x4AC0 JUMP JUMPDEST SWAP2 POP PUSH2 0x5147 DUP3 PUSH2 0x4BA2 JUMP JUMPDEST SWAP2 POP PUSH2 0x5153 DUP3 DUP10 PUSH2 0x430F JUMP JUMPDEST SWAP2 POP PUSH2 0x515E DUP3 PUSH2 0x4BC4 JUMP JUMPDEST PUSH1 0x7 DUP3 ADD SWAP2 POP PUSH2 0x516D DUP3 PUSH2 0x4CAA JUMP JUMPDEST SWAP2 POP PUSH2 0x5179 DUP3 DUP9 PUSH2 0x430F JUMP JUMPDEST SWAP2 POP PUSH2 0x5184 DUP3 PUSH2 0x4BC4 JUMP JUMPDEST PUSH1 0x7 DUP3 ADD SWAP2 POP PUSH2 0x5193 DUP3 PUSH2 0x4D8C JUMP JUMPDEST SWAP2 POP PUSH2 0x519F DUP3 DUP8 PUSH2 0x430F JUMP JUMPDEST SWAP2 POP PUSH2 0x51AA DUP3 PUSH2 0x4BC4 JUMP JUMPDEST PUSH1 0x7 DUP3 ADD SWAP2 POP PUSH2 0x51B9 DUP3 PUSH2 0x4E6E JUMP JUMPDEST SWAP2 POP PUSH2 0x51C5 DUP3 DUP7 PUSH2 0x430F JUMP JUMPDEST SWAP2 POP PUSH2 0x51D0 DUP3 PUSH2 0x4BC4 JUMP JUMPDEST PUSH1 0x7 DUP3 ADD SWAP2 POP PUSH2 0x51DF DUP3 PUSH2 0x4F50 JUMP JUMPDEST SWAP2 POP PUSH2 0x51EB DUP3 DUP6 PUSH2 0x430F JUMP JUMPDEST SWAP2 POP PUSH2 0x51F6 DUP3 PUSH2 0x4BC4 JUMP JUMPDEST PUSH1 0x7 DUP3 ADD SWAP2 POP PUSH2 0x5205 DUP3 PUSH2 0x5032 JUMP JUMPDEST SWAP2 POP PUSH2 0x5211 DUP3 DUP5 PUSH2 0x430F JUMP JUMPDEST SWAP2 POP PUSH2 0x521C DUP3 PUSH2 0x4BC4 JUMP JUMPDEST PUSH1 0x7 DUP3 ADD SWAP2 POP PUSH2 0x522B DUP3 PUSH2 0x50EE JUMP JUMPDEST SWAP2 POP DUP2 SWAP1 POP SWAP9 SWAP8 POP POP POP POP POP POP POP POP JUMP JUMPDEST PUSH0 PUSH1 0x80 DUP3 ADD SWAP1 POP PUSH2 0x524F PUSH0 DUP4 ADD DUP8 PUSH2 0x385D JUMP JUMPDEST PUSH2 0x525C PUSH1 0x20 DUP4 ADD DUP7 PUSH2 0x385D JUMP JUMPDEST PUSH2 0x5269 PUSH1 0x40 DUP4 ADD DUP6 PUSH2 0x3AD1 JUMP JUMPDEST DUP2 DUP2 SUB PUSH1 0x60 DUP4 ADD MSTORE PUSH2 0x527B DUP2 DUP5 PUSH2 0x3BE6 JUMP JUMPDEST SWAP1 POP SWAP6 SWAP5 POP POP POP POP POP JUMP JUMPDEST PUSH0 DUP2 MLOAD SWAP1 POP PUSH2 0x5294 DUP2 PUSH2 0x36C7 JUMP JUMPDEST SWAP3 SWAP2 POP POP JUMP JUMPDEST PUSH0 PUSH1 0x20 DUP3 DUP5 SUB SLT ISZERO PUSH2 0x52AF JUMPI PUSH2 0x52AE PUSH2 0x3511 JUMP JUMPDEST JUMPDEST PUSH0 PUSH2 0x52BC DUP5 DUP3 DUP6 ADD PUSH2 0x5286 JUMP JUMPDEST SWAP2 POP POP SWAP3 SWAP2 POP POP JUMP JUMPDEST PUSH0 PUSH1 0x40 DUP3 ADD SWAP1 POP PUSH2 0x52D8 PUSH0 DUP4 ADD DUP6 PUSH2 0x385D JUMP JUMPDEST PUSH2 0x52E5 PUSH1 0x20 DUP4 ADD DUP5 PUSH2 0x3AD1 JUMP JUMPDEST SWAP4 SWAP3 POP POP POP JUMP JUMPDEST PUSH32 0x4E487B7100000000000000000000000000000000000000000000000000000000 PUSH0 MSTORE PUSH1 0x21 PUSH1 0x4 MSTORE PUSH1 0x24 PUSH0 REVERT JUMPDEST PUSH0 PUSH2 0xFFFF DUP3 AND SWAP1 POP SWAP2 SWAP1 POP JUMP JUMPDEST PUSH2 0x532F DUP2 PUSH2 0x5319 JUMP JUMPDEST DUP3 MSTORE POP POP JUMP JUMPDEST PUSH0 PUSH4 0xFFFFFFFF DUP3 AND SWAP1 POP SWAP2 SWAP1 POP JUMP JUMPDEST PUSH2 0x534D DUP2 PUSH2 0x5335 JUMP JUMPDEST DUP3 MSTORE POP POP JUMP JUMPDEST PUSH2 0x535C DUP2 PUSH2 0x3928 JUMP JUMPDEST DUP3 MSTORE POP POP JUMP JUMPDEST PUSH0 PUSH1 0xA0 DUP3 ADD SWAP1 POP PUSH2 0x5375 PUSH0 DUP4 ADD DUP9 PUSH2 0x3900 JUMP JUMPDEST DUP2 DUP2 SUB PUSH1 0x20 DUP4 ADD MSTORE PUSH2 0x5387 DUP2 DUP8 PUSH2 0x3BE6 JUMP JUMPDEST SWAP1 POP PUSH2 0x5396 PUSH1 0x40 DUP4 ADD DUP7 PUSH2 0x5326 JUMP JUMPDEST PUSH2 0x53A3 PUSH1 0x60 DUP4 ADD DUP6 PUSH2 0x5344 JUMP JUMPDEST PUSH2 0x53B0 PUSH1 0x80 DUP4 ADD DUP5 PUSH2 0x5353 JUMP JUMPDEST SWAP7 SWAP6 POP POP POP POP POP POP JUMP JUMPDEST PUSH0 DUP2 MLOAD SWAP1 POP PUSH2 0x53C8 DUP2 PUSH2 0x3931 JUMP JUMPDEST SWAP3 SWAP2 POP POP JUMP JUMPDEST PUSH0 PUSH1 0x20 DUP3 DUP5 SUB SLT ISZERO PUSH2 0x53E3 JUMPI PUSH2 0x53E2 PUSH2 0x3511 JUMP JUMPDEST JUMPDEST PUSH0 PUSH2 0x53F0 DUP5 DUP3 DUP6 ADD PUSH2 0x53BA JUMP JUMPDEST SWAP2 POP POP SWAP3 SWAP2 POP POP JUMP JUMPDEST PUSH0 DUP2 PUSH1 0x1 SHR SWAP1 POP SWAP2 SWAP1 POP JUMP JUMPDEST PUSH0 PUSH0 DUP3 SWAP2 POP DUP4 SWAP1 POP JUMPDEST PUSH1 0x1 DUP6 GT ISZERO PUSH2 0x544E JUMPI DUP1 DUP7 DIV DUP2 GT ISZERO PUSH2 0x542A JUMPI PUSH2 0x5429 PUSH2 0x41A4 JUMP JUMPDEST JUMPDEST PUSH1 0x1 DUP6 AND ISZERO PUSH2 0x5439 JUMPI DUP1 DUP3 MUL SWAP2 POP JUMPDEST DUP1 DUP2 MUL SWAP1 POP PUSH2 0x5447 DUP6 PUSH2 0x53F9 JUMP JUMPDEST SWAP5 POP PUSH2 0x540E JUMP JUMPDEST SWAP5 POP SWAP5 SWAP3 POP POP POP JUMP JUMPDEST PUSH0 DUP3 PUSH2 0x5466 JUMPI PUSH1 0x1 SWAP1 POP PUSH2 0x5521 JUMP JUMPDEST DUP2 PUSH2 0x5473 JUMPI PUSH0 SWAP1 POP PUSH2 0x5521 JUMP JUMPDEST DUP2 PUSH1 0x1 DUP2 EQ PUSH2 0x5489 JUMPI PUSH1 0x2 DUP2 EQ PUSH2 0x5493 JUMPI PUSH2 0x54C2 JUMP JUMPDEST PUSH1 0x1 SWAP2 POP POP PUSH2 0x5521 JUMP JUMPDEST PUSH1 0xFF DUP5 GT ISZERO PUSH2 0x54A5 JUMPI PUSH2 0x54A4 PUSH2 0x41A4 JUMP JUMPDEST JUMPDEST DUP4 PUSH1 0x2 EXP SWAP2 POP DUP5 DUP3 GT ISZERO PUSH2 0x54BC JUMPI PUSH2 0x54BB PUSH2 0x41A4 JUMP JUMPDEST JUMPDEST POP PUSH2 0x5521 JUMP JUMPDEST POP PUSH1 0x20 DUP4 LT PUSH2 0x133 DUP4 LT AND PUSH1 0x4E DUP5 LT PUSH1 0xB DUP5 LT AND OR ISZERO PUSH2 0x54F7 JUMPI DUP3 DUP3 EXP SWAP1 POP DUP4 DUP2 GT ISZERO PUSH2 0x54F2 JUMPI PUSH2 0x54F1 PUSH2 0x41A4 JUMP JUMPDEST JUMPDEST PUSH2 0x5521 JUMP JUMPDEST PUSH2 0x5504 DUP5 DUP5 DUP5 PUSH1 0x1 PUSH2 0x5405 JUMP JUMPDEST SWAP3 POP SWAP1 POP DUP2 DUP5 DIV DUP2 GT ISZERO PUSH2 0x551B JUMPI PUSH2 0x551A PUSH2 0x41A4 JUMP JUMPDEST JUMPDEST DUP2 DUP2 MUL SWAP1 POP JUMPDEST SWAP4 SWAP3 POP POP POP JUMP JUMPDEST PUSH0 PUSH2 0x5532 DUP3 PUSH2 0x37CF JUMP JUMPDEST SWAP2 POP PUSH2 0x553D DUP4 PUSH2 0x37CF JUMP JUMPDEST SWAP3 POP PUSH2 0x556A PUSH32 0xFFFFFFFFFFFFFFFFFFFFFFFFFFFFFFFFFFFFFFFFFFFFFFFFFFFFFFFFFFFFFFFF DUP5 DUP5 PUSH2 0x5457 JUMP JUMPDEST SWAP1 POP SWAP3 SWAP2 POP POP JUMP INVALID EXTCODECOPY PUSH20 0x766720783D2231302220793D2233302220776964 PUSH21 0x683D2231343022206865696768743D223338302220 PUSH23 0x696577426F783D22302030203332203332222073686170 PUSH6 0x2D72656E6465 PUSH19 0x696E673D2263726973704564676573223E3C67 KECCAK256 PUSH21 0x72616E73666F726D3D227472616E736C6174652833 ORIGIN 0x2C KECCAK256 ADDRESS 0x29 KECCAK256 PUSH20 0x63616C65282D312C203129223E3C706174682066 PUSH10 0x6C6C3D22233030303030 ADDRESS 0x22 KECCAK256 PUSH5 0x3D224D3131 KECCAK256 ORIGIN PUSH9 0x313076314831317A20 0x4D CODECOPY KECCAK256 CALLER PUSH9 0x32763148397A204D32 BALANCE KECCAK256 CALLER PUSH9 0x3276314832317A204D CODESIZE KECCAK256 CALLVALUE PUSH9 0x31763148387A204D32 CALLER KECCAK256 CALLVALUE PUSH9 0x3176314832337A204D CODESIZE KECCAK256 CALLDATALOAD PUSH9 0x31763148387A204D32 CALLVALUE KECCAK256 CALLDATALOAD PUSH9 0x3176314832347A204D CODESIZE KECCAK256 CALLDATASIZE PUSH9 0x31763148387A204D32 CALLVALUE KECCAK256 CALLDATASIZE PUSH9 0x3176314832347A204D CODESIZE KECCAK256 CALLDATACOPY PUSH9 0x31763148387A204D32 CALLVALUE KECCAK256 CALLDATACOPY PUSH9 0x3176314832347A204D CODESIZE KECCAK256 CODESIZE PUSH9 0x31763148387A204D32 CALLVALUE KECCAK256 CODESIZE PUSH9 0x3176314832347A204D CODECOPY KECCAK256 CODECOPY PUSH9 0x31763148397A204D32 CALLVALUE KECCAK256 CODECOPY PUSH9 0x3176314832347A204D CODECOPY KECCAK256 BALANCE ADDRESS PUSH9 0x31763148397A204D32 CALLER KECCAK256 BALANCE ADDRESS PUSH9 0x3176314832337A204D CODECOPY KECCAK256 BALANCE BALANCE PUSH9 0x31763148397A204D31 ORIGIN KECCAK256 BALANCE BALANCE PUSH9 0x3276314831327A204D BALANCE CODESIZE KECCAK256 BALANCE BALANCE PUSH9 0x3276314831387A204D ORIGIN CALLER KECCAK256 BALANCE BALANCE PUSH9 0x3176314832337A204D CODECOPY KECCAK256 BALANCE ORIGIN PUSH9 0x31763148397A204D32 CALLER KECCAK256 BALANCE ORIGIN PUSH9 0x3176314832337A204D BALANCE ADDRESS KECCAK256 BALANCE CALLER PUSH9 0x3176314831307A204D ORIGIN ORIGIN KECCAK256 BALANCE CALLER PUSH9 0x3176314832327A204D BALANCE ADDRESS KECCAK256 BALANCE CALLVALUE PUSH9 0x3176314831307A204D ORIGIN ORIGIN KECCAK256 BALANCE CALLVALUE PUSH9 0x3176314832327A204D BALANCE ADDRESS KECCAK256 BALANCE CALLDATALOAD PUSH9 0x3176314831307A204D ORIGIN ORIGIN KECCAK256 BALANCE CALLDATALOAD PUSH9 0x3176314832327A204D BALANCE BALANCE KECCAK256 BALANCE CALLDATASIZE PUSH9 0x3176314831317A204D ORIGIN BALANCE KECCAK256 BALANCE CALLDATASIZE PUSH9 0x3176314832317A204D BALANCE BALANCE KECCAK256 BALANCE CALLDATACOPY PUSH9 0x3176314831317A204D ORIGIN BALANCE KECCAK256 BALANCE CALLDATACOPY PUSH9 0x3176314832317A204D BALANCE ORIGIN KECCAK256 BALANCE CODESIZE PUSH9 0x3176314831327A204D ORIGIN ADDRESS KECCAK256 BALANCE CODESIZE PUSH9 0x3176314832307A204D BALANCE ORIGIN KECCAK256 BALANCE CODECOPY PUSH9 0x3176314831327A204D ORIGIN ADDRESS KECCAK256 BALANCE CODECOPY PUSH9 0x3176314832307A204D BALANCE BALANCE KECCAK256 ORIGIN ADDRESS PUSH9 0x3176314831317A204D ORIGIN BALANCE KECCAK256 ORIGIN ADDRESS PUSH9 0x3176314832317A204D CODECOPY KECCAK256 ORIGIN BALANCE PUSH9 0x32763148397A204D32 ORIGIN KECCAK256 ORIGIN BALANCE PUSH9 0x3276314832327A204D CALLDATACOPY KECCAK256 ORIGIN ORIGIN PUSH9 0x32763148377A204D32 CALLVALUE KECCAK256 ORIGIN ORIGIN PUSH9 0x3276314832347A204D CALLDATASIZE KECCAK256 ORIGIN CALLER PUSH9 0x31763148367A204D32 CALLDATASIZE KECCAK256 ORIGIN CALLER PUSH9 0x3176314832367A204D CALLDATALOAD KECCAK256 ORIGIN CALLVALUE PUSH9 0x31763148357A204D32 CALLDATACOPY KECCAK256 ORIGIN CALLVALUE PUSH9 0x3176314832377A204D CALLVALUE KECCAK256 ORIGIN CALLDATALOAD PUSH9 0x31763148347A204D32 CODESIZE KECCAK256 ORIGIN CALLDATALOAD PUSH9 0x3176314832387A204D CALLER KECCAK256 ORIGIN CALLDATASIZE PUSH9 0x31763148337A204D32 CODECOPY KECCAK256 ORIGIN CALLDATASIZE PUSH9 0x3176314832397A204D CALLER KECCAK256 ORIGIN CALLDATACOPY PUSH9 0x31763148337A204D32 CODECOPY KECCAK256 ORIGIN CALLDATACOPY PUSH9 0x3176314832397A204D CALLER KECCAK256 ORIGIN CODESIZE PUSH9 0x31763148337A204D32 CODECOPY KECCAK256 ORIGIN CODESIZE PUSH9 0x3176314832397A204D CALLER KECCAK256 ORIGIN CODECOPY PUSH9 0x31763148337A204D32 CODECOPY KECCAK256 ORIGIN CODECOPY PUSH9 0x3176314832397A204D CALLER KECCAK256 CALLER ADDRESS PUSH9 0x31763148337A204D32 CODECOPY KECCAK256 CALLER ADDRESS PUSH9 0x3176314832397A204D CALLER KECCAK256 CALLER BALANCE PUSH9 0x3237763148337A2220 0x2F RETURNDATACOPY EXTCODECOPY PUSH17 0x6174682066696C6C3D2223303030303030 0x22 KECCAK256 PUSH5 0x3D224D3131 KECCAK256 CALLER PUSH9 0x313076314831317A20 0x4D CODECOPY KECCAK256 CALLVALUE PUSH9 0x3134763148397A204D CODECOPY KECCAK256 CALLDATALOAD PUSH9 0x3135763148397A204D CODECOPY KECCAK256 CALLDATASIZE PUSH9 0x3135763148397A204D CODECOPY KECCAK256 CALLDATACOPY PUSH9 0x3135763148397A204D CODECOPY KECCAK256 CODESIZE PUSH9 0x33763148397A204D32 ADDRESS KECCAK256 CODESIZE PUSH9 0x3476314832307A204D BALANCE ADDRESS KECCAK256 CODECOPY PUSH9 0x3276314831307A204D ORIGIN ORIGIN KECCAK256 CODECOPY PUSH9 0x3276314832327A204D BALANCE ADDRESS KECCAK256 BALANCE ADDRESS PUSH9 0x3176314831307A204D ORIGIN ORIGIN KECCAK256 BALANCE ADDRESS PUSH9 0x3176314832327A2220 0x2F RETURNDATACOPY EXTCODECOPY PUSH17 0x6174682066696C6C3D2223653462353930 0x22 KECCAK256 PUSH5 0x3D224D3132 KECCAK256 CODESIZE PUSH9 0x3876314831327A204D BALANCE ORIGIN KECCAK256 CODECOPY PUSH9 0x313076314831327A20 0x4D BALANCE BALANCE KECCAK256 BALANCE ADDRESS PUSH9 0x313176314831317A20 0x4D BALANCE ADDRESS KECCAK256 BALANCE BALANCE PUSH9 0x3276314831307A204D BALANCE CALLVALUE KECCAK256 BALANCE BALANCE PUSH9 0x3476314831347A204D ORIGIN ADDRESS KECCAK256 BALANCE BALANCE PUSH9 0x3376314832307A204D BALANCE ADDRESS KECCAK256 BALANCE ORIGIN PUSH9 0x313376314831307A20 0x4D BALANCE BALANCE KECCAK256 BALANCE CALLER PUSH9 0x3476314831317A204D BALANCE CALLDATACOPY KECCAK256 BALANCE CALLER PUSH9 0x3576314831377A204D BALANCE BALANCE KECCAK256 BALANCE CALLVALUE PUSH9 0x313176314831317A20 0x4D BALANCE BALANCE KECCAK256 BALANCE CALLDATALOAD PUSH9 0x3376314831317A204D BALANCE CODESIZE KECCAK256 BALANCE CALLDATALOAD PUSH9 0x3476314831387A204D BALANCE ORIGIN KECCAK256 BALANCE CALLDATASIZE PUSH9 0x3976314831327A204D BALANCE ORIGIN KECCAK256 BALANCE CALLDATACOPY PUSH9 0x3976314831327A204D BALANCE CALLER KECCAK256 BALANCE CODESIZE PUSH9 0x3776314831337A2220 0x2F RETURNDATACOPY EXTCODECOPY PUSH17 0x6174682066696C6C3D2223633539343733 0x22 KECCAK256 PUSH5 0x3D224D3135 KECCAK256 BALANCE CALLER PUSH9 0x3276314831357A204D BALANCE CALLER KECCAK256 BALANCE CODECOPY PUSH9 0x3776314831337A204D BALANCE CALLVALUE KECCAK256 ORIGIN ADDRESS PUSH9 0x3576314831347A2220 0x2F RETURNDATACOPY EXTCODECOPY PUSH17 0x6174682066696C6C3D2223626436613466 0x22 KECCAK256 PUSH5 0x3D224D3134 KECCAK256 BALANCE CALLDATALOAD PUSH9 0x3476314831347A2220 0x2F RETURNDATACOPY EXTCODECOPY PUSH17 0x6174682066696C6C3D2223666666666666 0x22 KECCAK256 PUSH5 0x3D224D3132 KECCAK256 ORIGIN ADDRESS PUSH9 0x3276314831327A204D BALANCE CODECOPY KECCAK256 ORIGIN ADDRESS PUSH9 0x3276314831397A204D BALANCE BALANCE KECCAK256 ORIGIN BALANCE PUSH9 0x3376314831317A204D BALANCE CODECOPY KECCAK256 ORIGIN BALANCE PUSH9 0x3376314831397A204D CODECOPY KECCAK256 ORIGIN ORIGIN PUSH9 0x34763148397A204D32 ADDRESS KECCAK256 ORIGIN ORIGIN PUSH9 0x3476314832307A204D CALLDATACOPY KECCAK256 ORIGIN CALLER PUSH9 0x35763148377A204D32 BALANCE KECCAK256 ORIGIN CALLER PUSH9 0x3576314832317A204D CALLDATASIZE KECCAK256 ORIGIN CALLVALUE PUSH9 0x35763148367A204D32 ORIGIN KECCAK256 ORIGIN CALLVALUE PUSH9 0x3576314832327A204D CALLDATALOAD KECCAK256 ORIGIN CALLDATALOAD PUSH9 0x35763148357A204D31 CALLER KECCAK256 ORIGIN CALLDATALOAD PUSH9 0x3276314831337A204D BALANCE CALLDATASIZE KECCAK256 ORIGIN CALLDATALOAD PUSH9 0x3276314831367A204D BALANCE CODECOPY KECCAK256 ORIGIN CALLDATALOAD PUSH9 0x3276314831397A204D ORIGIN CALLER KECCAK256 ORIGIN CALLDATALOAD PUSH9 0x3576314832337A204D CALLVALUE KECCAK256 ORIGIN CALLDATASIZE PUSH9 0x35763148347A204D32 CALLVALUE KECCAK256 ORIGIN CALLDATASIZE PUSH9 0x3576314832347A204D CALLVALUE KECCAK256 ORIGIN CALLDATACOPY PUSH9 0x34763148347A204D32 CALLDATALOAD KECCAK256 ORIGIN CALLDATACOPY PUSH9 0x3476314832357A204D CALLVALUE KECCAK256 ORIGIN CODESIZE PUSH9 0x34763148347A204D32 CALLDATALOAD KECCAK256 ORIGIN CODESIZE PUSH9 0x3476314832357A204D CALLVALUE KECCAK256 ORIGIN CODECOPY PUSH9 0x34763148347A204D32 CALLDATALOAD KECCAK256 ORIGIN CODECOPY PUSH9 0x3476314832357A204D CALLDATASIZE KECCAK256 CALLER ADDRESS PUSH9 0x32763148367A204D32 CALLDATALOAD KECCAK256 CALLER ADDRESS PUSH9 0x3276314832357A2220 0x2F RETURNDATACOPY EXTCODECOPY PUSH17 0x6174682066696C6C3D2223656638313135 0x22 KECCAK256 PUSH5 0x3D224D3134 KECCAK256 ORIGIN BALANCE PUSH9 0x3576314831347A204D BALANCE CALLER KECCAK256 ORIGIN ORIGIN PUSH9 0x3776314831337A204D BALANCE ORIGIN KECCAK256 ORIGIN CALLER PUSH9 0x3976314831327A204D BALANCE BALANCE KECCAK256 ORIGIN CALLVALUE PUSH9 0x313176314831317A20 0x4D BALANCE ADDRESS KECCAK256 ORIGIN CALLDATALOAD PUSH9 0x3376314831307A204D BALANCE CALLDATALOAD KECCAK256 ORIGIN CALLDATALOAD PUSH9 0x3176314831357A204D BALANCE CODESIZE KECCAK256 ORIGIN CALLDATALOAD PUSH9 0x3176314831387A204D ORIGIN BALANCE KECCAK256 ORIGIN CALLDATALOAD PUSH9 0x3276314832317A204D CODECOPY KECCAK256 ORIGIN CALLDATASIZE PUSH9 0x3135763148397A204D CODESIZE KECCAK256 ORIGIN CALLDATACOPY PUSH9 0x3137763148387A204D CODESIZE KECCAK256 ORIGIN CODESIZE PUSH9 0x3137763148387A204D CODESIZE KECCAK256 ORIGIN CODECOPY PUSH9 0x3137763148387A204D CALLVALUE KECCAK256 CALLER ADDRESS PUSH9 0x32763148347A204D38 KECCAK256 CALLER ADDRESS PUSH9 0x3137763148387A204D ORIGIN CALLDATACOPY KECCAK256 CALLER ADDRESS PUSH9 0x3276314832377A2220 0x2F RETURNDATACOPY EXTCODECOPY 0x2F PUSH8 0x3E3C2F7376673EA2 PUSH5 0x6970667358 0x22 SLT KECCAK256 LOG3 PUSH15 0xD40098621328B6AFEE412901E3301B 0xF6 SWAP3 RETURN PUSH16 0x4F4237FDFD6724FBDADC664736F6C63 NUMBER STOP ADDMOD 0x22 STOP CALLER "
		},
		"gasEstimates": {
			"creation": {
				"codeDepositCost": "4824800",
				"executionCost": "infinite",
				"totalCost": "infinite"
			},
			"external": {
				"approve(address,uint256)": "infinite",
				"balanceOf(address)": "infinite",
				"checkUpkeep(bytes)": "infinite",
				"generateSVG(uint256)": "infinite",
				"getApproved(uint256)": "infinite",
				"handleOracleFulfillment(bytes32,bytes,bytes)": "infinite",
				"interval()": "2514",
				"isApprovedForAll(address,address)": "infinite",
				"lastTimeStamp()": "2515",
				"name()": "infinite",
				"owner()": "2582",
				"ownerOf(uint256)": "infinite",
				"performUpkeep(bytes)": "infinite",
				"renounceOwnership()": "infinite",
				"s_playerData(uint256)": "infinite",
				"s_requestToTokenId(bytes32)": "2865",
				"safeMint(address,string,string)": "infinite",
				"safeTransferFrom(address,address,uint256)": "infinite",
				"safeTransferFrom(address,address,uint256,bytes)": "infinite",
				"setApprovalForAll(address,bool)": "infinite",
				"setSourceCode(string)": "infinite",
				"sourceCode()": "infinite",
				"subscriptionId()": "2556",
				"supportsInterface(bytes4)": "926",
				"symbol()": "infinite",
				"targetTokenIdToUpdate()": "2536",
				"tokenURI(uint256)": "infinite",
				"transferFrom(address,address,uint256)": "infinite",
				"transferOwnership(address)": "infinite"
			},
			"internal": {
				"_getPixelArtSVG()": "infinite",
				"_getStatsSVG(struct MPLPlayerCard.PlayerData memory,string memory)": "infinite",
				"_requestStatsInternal(uint256,string memory)": "infinite",
				"fulfillRequest(bytes32,bytes memory,bytes memory)": "infinite"
			}
		},
		"methodIdentifiers": {
			"approve(address,uint256)": "095ea7b3",
			"balanceOf(address)": "70a08231",
			"checkUpkeep(bytes)": "6e04ff0d",
			"generateSVG(uint256)": "6dcee4ca",
			"getApproved(uint256)": "081812fc",
			"handleOracleFulfillment(bytes32,bytes,bytes)": "0ca76175",
			"interval()": "947a36fb",
			"isApprovedForAll(address,address)": "e985e9c5",
			"lastTimeStamp()": "3f3b3b27",
			"name()": "06fdde03",
			"owner()": "8da5cb5b",
			"ownerOf(uint256)": "6352211e",
			"performUpkeep(bytes)": "4585e33b",
			"renounceOwnership()": "715018a6",
			"s_playerData(uint256)": "b4cfae44",
			"s_requestToTokenId(bytes32)": "68015a4b",
			"safeMint(address,string,string)": "eca81d42",
			"safeTransferFrom(address,address,uint256)": "42842e0e",
			"safeTransferFrom(address,address,uint256,bytes)": "b88d4fde",
			"setApprovalForAll(address,bool)": "a22cb465",
			"setSourceCode(string)": "00b46767",
			"sourceCode()": "13c60177",
			"subscriptionId()": "09c1ba2e",
			"supportsInterface(bytes4)": "01ffc9a7",
			"symbol()": "95d89b41",
			"targetTokenIdToUpdate()": "94881476",
			"tokenURI(uint256)": "c87b56dd",
			"transferFrom(address,address,uint256)": "23b872dd",
			"transferOwnership(address)": "f2fde38b"
		}
	},
	"abi": [
		{
			"inputs": [
				{
					"internalType": "uint64",
					"name": "_subscriptionId",
					"type": "uint64"
				}
			],
			"stateMutability": "nonpayable",
			"type": "constructor"
		},
		{
			"inputs": [
				{
					"internalType": "address",
					"name": "sender",
					"type": "address"
				},
				{
					"internalType": "uint256",
					"name": "tokenId",
					"type": "uint256"
				},
				{
					"internalType": "address",
					"name": "owner",
					"type": "address"
				}
			],
			"name": "ERC721IncorrectOwner",
			"type": "error"
		},
		{
			"inputs": [
				{
					"internalType": "address",
					"name": "operator",
					"type": "address"
				},
				{
					"internalType": "uint256",
					"name": "tokenId",
					"type": "uint256"
				}
			],
			"name": "ERC721InsufficientApproval",
			"type": "error"
		},
		{
			"inputs": [
				{
					"internalType": "address",
					"name": "approver",
					"type": "address"
				}
			],
			"name": "ERC721InvalidApprover",
			"type": "error"
		},
		{
			"inputs": [
				{
					"internalType": "address",
					"name": "operator",
					"type": "address"
				}
			],
			"name": "ERC721InvalidOperator",
			"type": "error"
		},
		{
			"inputs": [
				{
					"internalType": "address",
					"name": "owner",
					"type": "address"
				}
			],
			"name": "ERC721InvalidOwner",
			"type": "error"
		},
		{
			"inputs": [
				{
					"internalType": "address",
					"name": "receiver",
					"type": "address"
				}
			],
			"name": "ERC721InvalidReceiver",
			"type": "error"
		},
		{
			"inputs": [
				{
					"internalType": "address",
					"name": "sender",
					"type": "address"
				}
			],
			"name": "ERC721InvalidSender",
			"type": "error"
		},
		{
			"inputs": [
				{
					"internalType": "uint256",
					"name": "tokenId",
					"type": "uint256"
				}
			],
			"name": "ERC721NonexistentToken",
			"type": "error"
		},
		{
			"inputs": [],
			"name": "EmptyArgs",
			"type": "error"
		},
		{
			"inputs": [],
			"name": "EmptySource",
			"type": "error"
		},
		{
			"inputs": [],
			"name": "NoInlineSecrets",
			"type": "error"
		},
		{
			"inputs": [],
			"name": "OnlyRouterCanFulfill",
			"type": "error"
		},
		{
			"inputs": [
				{
					"internalType": "address",
					"name": "owner",
					"type": "address"
				}
			],
			"name": "OwnableInvalidOwner",
			"type": "error"
		},
		{
			"inputs": [
				{
					"internalType": "address",
					"name": "account",
					"type": "address"
				}
			],
			"name": "OwnableUnauthorizedAccount",
			"type": "error"
		},
		{
			"anonymous": false,
			"inputs": [
				{
					"indexed": true,
					"internalType": "address",
					"name": "owner",
					"type": "address"
				},
				{
					"indexed": true,
					"internalType": "address",
					"name": "approved",
					"type": "address"
				},
				{
					"indexed": true,
					"internalType": "uint256",
					"name": "tokenId",
					"type": "uint256"
				}
			],
			"name": "Approval",
			"type": "event"
		},
		{
			"anonymous": false,
			"inputs": [
				{
					"indexed": true,
					"internalType": "address",
					"name": "owner",
					"type": "address"
				},
				{
					"indexed": true,
					"internalType": "address",
					"name": "operator",
					"type": "address"
				},
				{
					"indexed": false,
					"internalType": "bool",
					"name": "approved",
					"type": "bool"
				}
			],
			"name": "ApprovalForAll",
			"type": "event"
		},
		{
			"anonymous": false,
			"inputs": [
				{
					"indexed": false,
					"internalType": "uint256",
					"name": "_fromTokenId",
					"type": "uint256"
				},
				{
					"indexed": false,
					"internalType": "uint256",
					"name": "_toTokenId",
					"type": "uint256"
				}
			],
			"name": "BatchMetadataUpdate",
			"type": "event"
		},
		{
			"anonymous": false,
			"inputs": [
				{
					"indexed": false,
					"internalType": "uint256",
					"name": "_tokenId",
					"type": "uint256"
				}
			],
			"name": "MetadataUpdate",
			"type": "event"
		},
		{
			"anonymous": false,
			"inputs": [
				{
					"indexed": true,
					"internalType": "address",
					"name": "previousOwner",
					"type": "address"
				},
				{
					"indexed": true,
					"internalType": "address",
					"name": "newOwner",
					"type": "address"
				}
			],
			"name": "OwnershipTransferred",
			"type": "event"
		},
		{
			"anonymous": false,
			"inputs": [
				{
					"indexed": true,
					"internalType": "bytes32",
					"name": "id",
					"type": "bytes32"
				}
			],
			"name": "RequestFulfilled",
			"type": "event"
		},
		{
			"anonymous": false,
			"inputs": [
				{
					"indexed": true,
					"internalType": "bytes32",
					"name": "id",
					"type": "bytes32"
				}
			],
			"name": "RequestSent",
			"type": "event"
		},
		{
			"anonymous": false,
			"inputs": [
				{
					"indexed": true,
					"internalType": "address",
					"name": "from",
					"type": "address"
				},
				{
					"indexed": true,
					"internalType": "address",
					"name": "to",
					"type": "address"
				},
				{
					"indexed": true,
					"internalType": "uint256",
					"name": "tokenId",
					"type": "uint256"
				}
			],
			"name": "Transfer",
			"type": "event"
		},
		{
			"inputs": [
				{
					"internalType": "address",
					"name": "to",
					"type": "address"
				},
				{
					"internalType": "uint256",
					"name": "tokenId",
					"type": "uint256"
				}
			],
			"name": "approve",
			"outputs": [],
			"stateMutability": "nonpayable",
			"type": "function"
		},
		{
			"inputs": [
				{
					"internalType": "address",
					"name": "owner",
					"type": "address"
				}
			],
			"name": "balanceOf",
			"outputs": [
				{
					"internalType": "uint256",
					"name": "",
					"type": "uint256"
				}
			],
			"stateMutability": "view",
			"type": "function"
		},
		{
			"inputs": [
				{
					"internalType": "bytes",
					"name": "",
					"type": "bytes"
				}
			],
			"name": "checkUpkeep",
			"outputs": [
				{
					"internalType": "bool",
					"name": "upkeepNeeded",
					"type": "bool"
				},
				{
					"internalType": "bytes",
					"name": "performData",
					"type": "bytes"
				}
			],
			"stateMutability": "view",
			"type": "function"
		},
		{
			"inputs": [
				{
					"internalType": "uint256",
					"name": "tokenId",
					"type": "uint256"
				}
			],
			"name": "generateSVG",
			"outputs": [
				{
					"internalType": "string",
					"name": "",
					"type": "string"
				}
			],
			"stateMutability": "view",
			"type": "function"
		},
		{
			"inputs": [
				{
					"internalType": "uint256",
					"name": "tokenId",
					"type": "uint256"
				}
			],
			"name": "getApproved",
			"outputs": [
				{
					"internalType": "address",
					"name": "",
					"type": "address"
				}
			],
			"stateMutability": "view",
			"type": "function"
		},
		{
			"inputs": [
				{
					"internalType": "bytes32",
					"name": "requestId",
					"type": "bytes32"
				},
				{
					"internalType": "bytes",
					"name": "response",
					"type": "bytes"
				},
				{
					"internalType": "bytes",
					"name": "err",
					"type": "bytes"
				}
			],
			"name": "handleOracleFulfillment",
			"outputs": [],
			"stateMutability": "nonpayable",
			"type": "function"
		},
		{
			"inputs": [],
			"name": "interval",
			"outputs": [
				{
					"internalType": "uint256",
					"name": "",
					"type": "uint256"
				}
			],
			"stateMutability": "view",
			"type": "function"
		},
		{
			"inputs": [
				{
					"internalType": "address",
					"name": "owner",
					"type": "address"
				},
				{
					"internalType": "address",
					"name": "operator",
					"type": "address"
				}
			],
			"name": "isApprovedForAll",
			"outputs": [
				{
					"internalType": "bool",
					"name": "",
					"type": "bool"
				}
			],
			"stateMutability": "view",
			"type": "function"
		},
		{
			"inputs": [],
			"name": "lastTimeStamp",
			"outputs": [
				{
					"internalType": "uint256",
					"name": "",
					"type": "uint256"
				}
			],
			"stateMutability": "view",
			"type": "function"
		},
		{
			"inputs": [],
			"name": "name",
			"outputs": [
				{
					"internalType": "string",
					"name": "",
					"type": "string"
				}
			],
			"stateMutability": "view",
			"type": "function"
		},
		{
			"inputs": [],
			"name": "owner",
			"outputs": [
				{
					"internalType": "address",
					"name": "",
					"type": "address"
				}
			],
			"stateMutability": "view",
			"type": "function"
		},
		{
			"inputs": [
				{
					"internalType": "uint256",
					"name": "tokenId",
					"type": "uint256"
				}
			],
			"name": "ownerOf",
			"outputs": [
				{
					"internalType": "address",
					"name": "",
					"type": "address"
				}
			],
			"stateMutability": "view",
			"type": "function"
		},
		{
			"inputs": [
				{
					"internalType": "bytes",
					"name": "",
					"type": "bytes"
				}
			],
			"name": "performUpkeep",
			"outputs": [],
			"stateMutability": "nonpayable",
			"type": "function"
		},
		{
			"inputs": [],
			"name": "renounceOwnership",
			"outputs": [],
			"stateMutability": "nonpayable",
			"type": "function"
		},
		{
			"inputs": [
				{
					"internalType": "uint256",
					"name": "",
					"type": "uint256"
				}
			],
			"name": "s_playerData",
			"outputs": [
				{
					"internalType": "string",
					"name": "name",
					"type": "string"
				},
				{
					"internalType": "string",
					"name": "lane",
					"type": "string"
				},
				{
					"internalType": "uint64",
					"name": "games",
					"type": "uint64"
				},
				{
					"internalType": "uint64",
					"name": "kills",
					"type": "uint64"
				},
				{
					"internalType": "uint64",
					"name": "deaths",
					"type": "uint64"
				},
				{
					"internalType": "uint64",
					"name": "assists",
					"type": "uint64"
				}
			],
			"stateMutability": "view",
			"type": "function"
		},
		{
			"inputs": [
				{
					"internalType": "bytes32",
					"name": "",
					"type": "bytes32"
				}
			],
			"name": "s_requestToTokenId",
			"outputs": [
				{
					"internalType": "uint256",
					"name": "",
					"type": "uint256"
				}
			],
			"stateMutability": "view",
			"type": "function"
		},
		{
			"inputs": [
				{
					"internalType": "address",
					"name": "to",
					"type": "address"
				},
				{
					"internalType": "string",
					"name": "_name",
					"type": "string"
				},
				{
					"internalType": "string",
					"name": "_lane",
					"type": "string"
				}
			],
			"name": "safeMint",
			"outputs": [],
			"stateMutability": "nonpayable",
			"type": "function"
		},
		{
			"inputs": [
				{
					"internalType": "address",
					"name": "from",
					"type": "address"
				},
				{
					"internalType": "address",
					"name": "to",
					"type": "address"
				},
				{
					"internalType": "uint256",
					"name": "tokenId",
					"type": "uint256"
				}
			],
			"name": "safeTransferFrom",
			"outputs": [],
			"stateMutability": "nonpayable",
			"type": "function"
		},
		{
			"inputs": [
				{
					"internalType": "address",
					"name": "from",
					"type": "address"
				},
				{
					"internalType": "address",
					"name": "to",
					"type": "address"
				},
				{
					"internalType": "uint256",
					"name": "tokenId",
					"type": "uint256"
				},
				{
					"internalType": "bytes",
					"name": "data",
					"type": "bytes"
				}
			],
			"name": "safeTransferFrom",
			"outputs": [],
			"stateMutability": "nonpayable",
			"type": "function"
		},
		{
			"inputs": [
				{
					"internalType": "address",
					"name": "operator",
					"type": "address"
				},
				{
					"internalType": "bool",
					"name": "approved",
					"type": "bool"
				}
			],
			"name": "setApprovalForAll",
			"outputs": [],
			"stateMutability": "nonpayable",
			"type": "function"
		},
		{
			"inputs": [
				{
					"internalType": "string",
					"name": "_sourceCode",
					"type": "string"
				}
			],
			"name": "setSourceCode",
			"outputs": [],
			"stateMutability": "nonpayable",
			"type": "function"
		},
		{
			"inputs": [],
			"name": "sourceCode",
			"outputs": [
				{
					"internalType": "string",
					"name": "",
					"type": "string"
				}
			],
			"stateMutability": "view",
			"type": "function"
		},
		{
			"inputs": [],
			"name": "subscriptionId",
			"outputs": [
				{
					"internalType": "uint64",
					"name": "",
					"type": "uint64"
				}
			],
			"stateMutability": "view",
			"type": "function"
		},
		{
			"inputs": [
				{
					"internalType": "bytes4",
					"name": "interfaceId",
					"type": "bytes4"
				}
			],
			"name": "supportsInterface",
			"outputs": [
				{
					"internalType": "bool",
					"name": "",
					"type": "bool"
				}
			],
			"stateMutability": "view",
			"type": "function"
		},
		{
			"inputs": [],
			"name": "symbol",
			"outputs": [
				{
					"internalType": "string",
					"name": "",
					"type": "string"
				}
			],
			"stateMutability": "view",
			"type": "function"
		},
		{
			"inputs": [],
			"name": "targetTokenIdToUpdate",
			"outputs": [
				{
					"internalType": "uint256",
					"name": "",
					"type": "uint256"
				}
			],
			"stateMutability": "view",
			"type": "function"
		},
		{
			"inputs": [
				{
					"internalType": "uint256",
					"name": "tokenId",
					"type": "uint256"
				}
			],
			"name": "tokenURI",
			"outputs": [
				{
					"internalType": "string",
					"name": "",
					"type": "string"
				}
			],
			"stateMutability": "view",
			"type": "function"
		},
		{
			"inputs": [
				{
					"internalType": "address",
					"name": "from",
					"type": "address"
				},
				{
					"internalType": "address",
					"name": "to",
					"type": "address"
				},
				{
					"internalType": "uint256",
					"name": "tokenId",
					"type": "uint256"
				}
			],
			"name": "transferFrom",
			"outputs": [],
			"stateMutability": "nonpayable",
			"type": "function"
		},
		{
			"inputs": [
				{
					"internalType": "address",
					"name": "newOwner",
					"type": "address"
				}
			],
			"name": "transferOwnership",
			"outputs": [],
			"stateMutability": "nonpayable",
			"type": "function"
		}
	]
}