{
	"data": {
		"bytecode": {
			"linkReferences": {},
			"object": "60a060405273b83e47c2bc239b3bf370bc41e1459a34b41238d060095f6101000a81548173ffffffffffffffffffffffffffffffffffffffff021916908373ffffffffffffffffffffffffffffffffffffffff1602179055507f66756e2d657468657265756d2d7365706f6c69612d31000000000000000000005f1b600a5562015180600e55348015610090575f5ffd5b50604051616a33380380616a3383398181016040528101906100b29190610350565b60095f9054906101000a900473ffffffffffffffffffffffffffffffffffffffff16336040518060400160405280600e81526020017f4d504c204d6f64656c20412056320000000000000000000000000000000000008152506040518060400160405280600581526020017f4d504c4132000000000000000000000000000000000000000000000000000000815250815f908161014f91906105c9565b50806001908161015f91906105c9565b5050505f73ffffffffffffffffffffffffffffffffffffffff168173ffffffffffffffffffffffffffffffffffffffff16036101d2575f6040517f1e4fbdf70000000000000000000000000000000000000000000000000000000081526004016101c991906106d7565b60405180910390fd5b6101e18161024c60201b60201c565b508073ffffffffffffffffffffffffffffffffffffffff1660808173ffffffffffffffffffffffffffffffffffffffff16815250505080600b5f6101000a81548167ffffffffffffffff021916908367ffffffffffffffff16021790555042600d81905550506106f0565b5f60075f9054906101000a900473ffffffffffffffffffffffffffffffffffffffff1690508160075f6101000a81548173ffffffffffffffffffffffffffffffffffffffff021916908373ffffffffffffffffffffffffffffffffffffffff1602179055508173ffffffffffffffffffffffffffffffffffffffff168173ffffffffffffffffffffffffffffffffffffffff167f8be0079c531659141344cd1fd0a4f28419497f9722a3daafe3b4186f6b6457e060405160405180910390a35050565b5f5ffd5b5f67ffffffffffffffff82169050919050565b61032f81610313565b8114610339575f5ffd5b50565b5f8151905061034a81610326565b92915050565b5f602082840312156103655761036461030f565b5b5f6103728482850161033c565b91505092915050565b5f81519050919050565b7f4e487b71000000000000000000000000000000000000000000000000000000005f52604160045260245ffd5b7f4e487b71000000000000000000000000000000000000000000000000000000005f52602260045260245ffd5b5f60028204905060018216806103f657607f821691505b602082108103610409576104086103b2565b5b50919050565b5f819050815f5260205f209050919050565b5f6020601f8301049050919050565b5f82821b905092915050565b5f6008830261046b7fffffffffffffffffffffffffffffffffffffffffffffffffffffffffffffffff82610430565b6104758683610430565b95508019841693508086168417925050509392505050565b5f819050919050565b5f819050919050565b5f6104b96104b46104af8461048d565b610496565b61048d565b9050919050565b5f819050919050565b6104d28361049f565b6104e66104de826104c0565b84845461043c565b825550505050565b5f5f905090565b6104fd6104ee565b6105088184846104c9565b505050565b5f5b8281101561052e576105235f8284016104f5565b60018101905061050f565b505050565b601f82111561058157828211156105805761054d8161040f565b61055683610421565b61055f85610421565b602086101561056c575f90505b80830161057b8284038261050d565b505050505b5b505050565b5f82821c905092915050565b5f6105a15f1984600802610586565b1980831691505092915050565b5f6105b98383610592565b9150826002028217905092915050565b6105d28261037b565b67ffffffffffffffff8111156105eb576105ea610385565b5b6105f582546103df565b610600828285610533565b5f60209050601f831160018114610631575f841561061f578287015190505b61062985826105ae565b865550610690565b601f19841661063f8661040f565b5f5b8281101561066657848901518255600182019150602085019450602081019050610641565b86831015610683578489015161067f601f891682610592565b8355505b6001600288020188555050505b505050505050565b5f73ffffffffffffffffffffffffffffffffffffffff82169050919050565b5f6106c182610698565b9050919050565b6106d1816106b7565b82525050565b5f6020820190506106ea5f8301846106c8565b92915050565b60805161632461070f5f395f818161070b0152612aae01526163245ff3fe608060405234801561000f575f5ffd5b50600436106101cc575f3560e01c806368015a4b1161010257806395d89b41116100a0578063c87b56dd1161006f578063c87b56dd1461051d578063e985e9c51461054d578063eca81d421461057d578063f2fde38b14610599576101cc565b806395d89b4114610491578063a22cb465146104af578063b4cfae44146104cb578063b88d4fde14610501576101cc565b8063715018a6116100dc578063715018a61461042d5780638da5cb5b14610437578063947a36fb146104555780639488147614610473576101cc565b806368015a4b1461039c5780636e04ff0d146103cc57806370a08231146103fd576101cc565b806313c601771161016f5780633f3b3b27116101495780633f3b3b271461031657806342842e0e146103345780634585e33b146103505780636352211e1461036c576101cc565b806313c60177146102c057806322e817e2146102de57806323b872dd146102fa576101cc565b8063081812fc116101ab578063081812fc1461023a578063095ea7b31461026a57806309c1ba2e146102865780630ca76175146102a4576101cc565b8062b46767146101d057806301ffc9a7146101ec57806306fdde031461021c575b5f5ffd5b6101ea60048036038101906101e5919061382e565b6105b5565b005b610206600480360381019061020191906138ca565b6105d0565b604051610213919061390f565b60405180910390f35b610224610630565b6040516102319190613988565b60405180910390f35b610254600480360381019061024f91906139db565b6106bf565b6040516102619190613a45565b60405180910390f35b610284600480360381019061027f9190613a88565b6106da565b005b61028e6106f0565b60405161029b9190613ae8565b60405180910390f35b6102be60048036038101906102b99190613bd2565b610709565b005b6102c86107cb565b6040516102d59190613988565b60405180910390f35b6102f860048036038101906102f39190613c5a565b610857565b005b610314600480360381019061030f9190613c98565b610871565b005b61031e610970565b60405161032b9190613cf7565b60405180910390f35b61034e60048036038101906103499190613c98565b610976565b005b61036a60048036038101906103659190613d6d565b610995565b005b610386600480360381019061038191906139db565b610a60565b6040516103939190613a45565b60405180910390f35b6103b660048036038101906103b19190613db8565b610a71565b6040516103c39190613cf7565b60405180910390f35b6103e660048036038101906103e19190613d6d565b610a86565b6040516103f4929190613e35565b60405180910390f35b61041760048036038101906104129190613e63565b610ac4565b6040516104249190613cf7565b60405180910390f35b610435610b7a565b005b61043f610b8d565b60405161044c9190613a45565b60405180910390f35b61045d610bb5565b60405161046a9190613cf7565b60405180910390f35b61047b610bbb565b6040516104889190613cf7565b60405180910390f35b610499610bc1565b6040516104a69190613988565b60405180910390f35b6104c960048036038101906104c49190613eb8565b610c51565b005b6104e560048036038101906104e091906139db565b610c67565b6040516104f89796959493929190613ef6565b60405180910390f35b61051b60048036038101906105169190613f78565b610e86565b005b610537600480360381019061053291906139db565b610eab565b6040516105449190613988565b60405180910390f35b61056760048036038101906105629190613ff8565b610fb6565b604051610574919061390f565b60405180910390f35b61059760048036038101906105929190614036565b611044565b005b6105b360048036038101906105ae9190613e63565b61121f565b005b6105bd6112a3565b80600c90816105cc91906142cc565b5050565b5f634906490660e01b7bffffffffffffffffffffffffffffffffffffffffffffffffffffffff1916827bffffffffffffffffffffffffffffffffffffffffffffffffffffffff1916148061062957506106288261132a565b5b9050919050565b60605f805461063e906140eb565b80601f016020809104026020016040519081016040528092919081815260200182805461066a906140eb565b80156106b55780601f1061068c576101008083540402835291602001916106b5565b820191905f5260205f20905b81548152906001019060200180831161069857829003601f168201915b5050505050905090565b5f6106c98261140b565b506106d382611491565b9050919050565b6106ec82826106e76114ca565b6114d1565b5050565b600b5f9054906101000a900467ffffffffffffffff1681565b7f000000000000000000000000000000000000000000000000000000000000000073ffffffffffffffffffffffffffffffffffffffff163373ffffffffffffffffffffffffffffffffffffffff161461078e576040517fc6829f8300000000000000000000000000000000000000000000000000000000815260040160405180910390fd5b6107998383836114e3565b827f85e1543bf2f84fe80c6badbce3648c8539ad1df4d2b3d822938ca0538be727e660405160405180910390a2505050565b600c80546107d8906140eb565b80601f0160208091040260200160405190810160405280929190818152602001828054610804906140eb565b801561084f5780601f106108265761010080835404028352916020019161084f565b820191905f5260205f20905b81548152906001019060200180831161083257829003601f168201915b505050505081565b61085f6112a3565b81600e8190555080600f819055505050565b5f73ffffffffffffffffffffffffffffffffffffffff168273ffffffffffffffffffffffffffffffffffffffff16036108e1575f6040517f64a0ae920000000000000000000000000000000000000000000000000000000081526004016108d89190613a45565b60405180910390fd5b5f6108f483836108ef6114ca565b611692565b90508373ffffffffffffffffffffffffffffffffffffffff168173ffffffffffffffffffffffffffffffffffffffff161461096a578382826040517f64283d7b0000000000000000000000000000000000000000000000000000000081526004016109619392919061439b565b60405180910390fd5b50505050565b600d5481565b61099083838360405180602001604052805f815250610e86565b505050565b600e54600d54426109a691906143fd565b1115610a5c5742600d81905550610a5a600f5460105f600f5481526020019081526020015f205f0180546109d9906140eb565b80601f0160208091040260200160405190810160405280929190818152602001828054610a05906140eb565b8015610a505780601f10610a2757610100808354040283529160200191610a50565b820191905f5260205f20905b815481529060010190602001808311610a3357829003601f168201915b505050505061189d565b505b5050565b5f610a6a8261140b565b9050919050565b6011602052805f5260405f205f915090505481565b5f6060600e54600d5442610a9a91906143fd565b118015610aaa5750600854600f54105b915060405180602001604052805f81525090509250929050565b5f5f73ffffffffffffffffffffffffffffffffffffffff168273ffffffffffffffffffffffffffffffffffffffff1603610b35575f6040517f89c62b64000000000000000000000000000000000000000000000000000000008152600401610b2c9190613a45565b60405180910390fd5b60035f8373ffffffffffffffffffffffffffffffffffffffff1673ffffffffffffffffffffffffffffffffffffffff1681526020019081526020015f20549050919050565b610b826112a3565b610b8b5f611a13565b565b5f60075f9054906101000a900473ffffffffffffffffffffffffffffffffffffffff16905090565b600e5481565b600f5481565b606060018054610bd0906140eb565b80601f0160208091040260200160405190810160405280929190818152602001828054610bfc906140eb565b8015610c475780601f10610c1e57610100808354040283529160200191610c47565b820191905f5260205f20905b815481529060010190602001808311610c2a57829003601f168201915b5050505050905090565b610c63610c5c6114ca565b8383611ad6565b5050565b6010602052805f5260405f205f91509050805f018054610c86906140eb565b80601f0160208091040260200160405190810160405280929190818152602001828054610cb2906140eb565b8015610cfd5780601f10610cd457610100808354040283529160200191610cfd565b820191905f5260205f20905b815481529060010190602001808311610ce057829003601f168201915b505050505090806001018054610d12906140eb565b80601f0160208091040260200160405190810160405280929190818152602001828054610d3e906140eb565b8015610d895780601f10610d6057610100808354040283529160200191610d89565b820191905f5260205f20905b815481529060010190602001808311610d6c57829003601f168201915b505050505090806002015f9054906101000a900467ffffffffffffffff16908060020160089054906101000a900467ffffffffffffffff16908060020160109054906101000a900467ffffffffffffffff16908060020160189054906101000a900467ffffffffffffffff1690806003018054610e05906140eb565b80601f0160208091040260200160405190810160405280929190818152602001828054610e31906140eb565b8015610e7c5780601f10610e5357610100808354040283529160200191610e7c565b820191905f5260205f20905b815481529060010190602001808311610e5f57829003601f168201915b5050505050905087565b610e91848484610871565b610ea5610e9c6114ca565b85858585611caf565b50505050565b60605f60105f8481526020019081526020015f206003018054610ecd906140eb565b80601f0160208091040260200160405190810160405280929190818152602001828054610ef9906140eb565b8015610f445780601f10610f1b57610100808354040283529160200191610f44565b820191905f5260205f20905b815481529060010190602001808311610f2757829003601f168201915b505050505090505f610f5582611e5b565b90505f610f8a610f6486611e6e565b83604051602001610f76929190614608565b604051602081830303815290604052611e5b565b905080604051602001610f9d9190614694565b6040516020818303038152906040529350505050919050565b5f60055f8473ffffffffffffffffffffffffffffffffffffffff1673ffffffffffffffffffffffffffffffffffffffff1681526020019081526020015f205f8373ffffffffffffffffffffffffffffffffffffffff1673ffffffffffffffffffffffffffffffffffffffff1681526020019081526020015f205f9054906101000a900460ff16905092915050565b61104c6112a3565b5f60085490506040518060e001604052808481526020018381526020015f67ffffffffffffffff1681526020015f67ffffffffffffffff1681526020015f67ffffffffffffffff1681526020015f67ffffffffffffffff16815260200160405180602001604052805f81525081525060105f8381526020019081526020015f205f820151815f0190816110df91906142cc565b5060208201518160010190816110f591906142cc565b506040820151816002015f6101000a81548167ffffffffffffffff021916908367ffffffffffffffff16021790555060608201518160020160086101000a81548167ffffffffffffffff021916908367ffffffffffffffff16021790555060808201518160020160106101000a81548167ffffffffffffffff021916908367ffffffffffffffff16021790555060a08201518160020160186101000a81548167ffffffffffffffff021916908367ffffffffffffffff16021790555060c08201518160030190816111c691906142cc565b509050506111d7815f5f5f5f611f38565b60105f8381526020019081526020015f2060030190816111f791906142cc565b506112028482612307565b60085f815480929190611214906146b9565b919050555050505050565b6112276112a3565b5f73ffffffffffffffffffffffffffffffffffffffff168173ffffffffffffffffffffffffffffffffffffffff1603611297575f6040517f1e4fbdf700000000000000000000000000000000000000000000000000000000815260040161128e9190613a45565b60405180910390fd5b6112a081611a13565b50565b6112ab6114ca565b73ffffffffffffffffffffffffffffffffffffffff166112c9610b8d565b73ffffffffffffffffffffffffffffffffffffffff1614611328576112ec6114ca565b6040517f118cdaa700000000000000000000000000000000000000000000000000000000815260040161131f9190613a45565b60405180910390fd5b565b5f7f80ac58cd000000000000000000000000000000000000000000000000000000007bffffffffffffffffffffffffffffffffffffffffffffffffffffffff1916827bffffffffffffffffffffffffffffffffffffffffffffffffffffffff191614806113f457507f5b5e139f000000000000000000000000000000000000000000000000000000007bffffffffffffffffffffffffffffffffffffffffffffffffffffffff1916827bffffffffffffffffffffffffffffffffffffffffffffffffffffffff1916145b80611404575061140382612324565b5b9050919050565b5f5f6114168361238d565b90505f73ffffffffffffffffffffffffffffffffffffffff168173ffffffffffffffffffffffffffffffffffffffff160361148857826040517f7e27328900000000000000000000000000000000000000000000000000000000815260040161147f9190613cf7565b60405180910390fd5b80915050919050565b5f60045f8381526020019081526020015f205f9054906101000a900473ffffffffffffffffffffffffffffffffffffffff169050919050565b5f33905090565b6114de83838360016123c6565b505050565b5f815114611526576040517f08c379a000000000000000000000000000000000000000000000000000000000815260040161151d9061474a565b60405180910390fd5b5f60115f8581526020019081526020015f205490505f83806020019051810190611550919061477c565b90505f8190505f604083901c90505f608084901c90505f60c085901c90508360105f8881526020019081526020015f2060020160186101000a81548167ffffffffffffffff021916908367ffffffffffffffff1602179055508260105f8881526020019081526020015f2060020160106101000a81548167ffffffffffffffff021916908367ffffffffffffffff1602179055508160105f8881526020019081526020015f2060020160086101000a81548167ffffffffffffffff021916908367ffffffffffffffff1602179055508060105f8881526020019081526020015f206002015f6101000a81548167ffffffffffffffff021916908367ffffffffffffffff1602179055506116668682848688611f38565b60105f8881526020019081526020015f20600301908161168691906142cc565b50505050505050505050565b5f5f61169d8461238d565b90505f73ffffffffffffffffffffffffffffffffffffffff168373ffffffffffffffffffffffffffffffffffffffff16146116de576116dd818486612585565b5b5f73ffffffffffffffffffffffffffffffffffffffff168173ffffffffffffffffffffffffffffffffffffffff16146117695761171d5f855f5f6123c6565b600160035f8373ffffffffffffffffffffffffffffffffffffffff1673ffffffffffffffffffffffffffffffffffffffff1681526020019081526020015f205f82825403925050819055505b5f73ffffffffffffffffffffffffffffffffffffffff168573ffffffffffffffffffffffffffffffffffffffff16146117e857600160035f8773ffffffffffffffffffffffffffffffffffffffff1673ffffffffffffffffffffffffffffffffffffffff1681526020019081526020015f205f82825401925050819055505b8460025f8681526020019081526020015f205f6101000a81548173ffffffffffffffffffffffffffffffffffffffff021916908373ffffffffffffffffffffffffffffffffffffffff160217905550838573ffffffffffffffffffffffffffffffffffffffff168273ffffffffffffffffffffffffffffffffffffffff167fddf252ad1be2c89b69c2b068fc378daa952ba7f163c4a11628f55a4df523b3ef60405160405180910390a4809150509392505050565b5f6118a661363a565b611941600c80546118b6906140eb565b80601f01602080910402602001604051908101604052809291908181526020018280546118e2906140eb565b801561192d5780601f106119045761010080835404028352916020019161192d565b820191905f5260205f20905b81548152906001019060200180831161191057829003601f168201915b50505050508261264890919063ffffffff16565b5f600167ffffffffffffffff81111561195d5761195c61370a565b5b60405190808252806020026020018201604052801561199057816020015b606081526020019060019003908161197b5790505b50905083815f815181106119a7576119a66147a7565b5b60200260200101819052506119c5818361265890919063ffffffff16565b6119f36119d18361269f565b600b5f9054906101000a900467ffffffffffffffff16620493e0600a54612aaa565b92508460115f8581526020019081526020015f2081905550505092915050565b5f60075f9054906101000a900473ffffffffffffffffffffffffffffffffffffffff1690508160075f6101000a81548173ffffffffffffffffffffffffffffffffffffffff021916908373ffffffffffffffffffffffffffffffffffffffff1602179055508173ffffffffffffffffffffffffffffffffffffffff168173ffffffffffffffffffffffffffffffffffffffff167f8be0079c531659141344cd1fd0a4f28419497f9722a3daafe3b4186f6b6457e060405160405180910390a35050565b5f73ffffffffffffffffffffffffffffffffffffffff168373ffffffffffffffffffffffffffffffffffffffff1603611b46575f6040517fa9fbf51f000000000000000000000000000000000000000000000000000000008152600401611b3d9190613a45565b60405180910390fd5b5f73ffffffffffffffffffffffffffffffffffffffff168273ffffffffffffffffffffffffffffffffffffffff1603611bb657816040517f5b08ba18000000000000000000000000000000000000000000000000000000008152600401611bad9190613a45565b60405180910390fd5b8060055f8573ffffffffffffffffffffffffffffffffffffffff1673ffffffffffffffffffffffffffffffffffffffff1681526020019081526020015f205f8473ffffffffffffffffffffffffffffffffffffffff1673ffffffffffffffffffffffffffffffffffffffff1681526020019081526020015f205f6101000a81548160ff0219169083151502179055508173ffffffffffffffffffffffffffffffffffffffff168373ffffffffffffffffffffffffffffffffffffffff167f17307eab39ab6107e8899845ad3d59bd9653f200f220920489ca2b5937696c3183604051611ca2919061390f565b60405180910390a3505050565b5f8373ffffffffffffffffffffffffffffffffffffffff163b1115611e54578273ffffffffffffffffffffffffffffffffffffffff1663150b7a02868685856040518563ffffffff1660e01b8152600401611d0d94939291906147d4565b6020604051808303815f875af1925050508015611d4857506040513d601f19601f82011682018060405250810190611d459190614832565b60015b611dc9573d805f8114611d76576040519150601f19603f3d011682016040523d82523d5f602084013e611d7b565b606091505b505f815103611dc157836040517f64a0ae92000000000000000000000000000000000000000000000000000000008152600401611db89190613a45565b60405180910390fd5b805160208201fd5b63150b7a0260e01b7bffffffffffffffffffffffffffffffffffffffffffffffffffffffff1916817bffffffffffffffffffffffffffffffffffffffffffffffffffffffff191614611e5257836040517f64a0ae92000000000000000000000000000000000000000000000000000000008152600401611e499190613a45565b60405180910390fd5b505b5050505050565b6060611e67825f612b89565b9050919050565b60605f6001611e7c84612d13565b0190505f8167ffffffffffffffff811115611e9a57611e9961370a565b5b6040519080825280601f01601f191660200182016040528015611ecc5781602001600182028036833780820191505090505b5090505f82602083010190505b600115611f2d578080600190039150507f3031323334353637383961626364656600000000000000000000000000000000600a86061a8153600a8581611f2257611f2161485d565b5b0494505f8503611ed9575b819350505050919050565b60605f60105f8881526020019081526020015f206040518060e00160405290815f82018054611f66906140eb565b80601f0160208091040260200160405190810160405280929190818152602001828054611f92906140eb565b8015611fdd5780601f10611fb457610100808354040283529160200191611fdd565b820191905f5260205f20905b815481529060010190602001808311611fc057829003601f168201915b50505050508152602001600182018054611ff6906140eb565b80601f0160208091040260200160405190810160405280929190818152602001828054612022906140eb565b801561206d5780601f106120445761010080835404028352916020019161206d565b820191905f5260205f20905b81548152906001019060200180831161205057829003601f168201915b50505050508152602001600282015f9054906101000a900467ffffffffffffffff1667ffffffffffffffff1667ffffffffffffffff1681526020016002820160089054906101000a900467ffffffffffffffff1667ffffffffffffffff1667ffffffffffffffff1681526020016002820160109054906101000a900467ffffffffffffffff1667ffffffffffffffff1667ffffffffffffffff1681526020016002820160189054906101000a900467ffffffffffffffff1667ffffffffffffffff1667ffffffffffffffff16815260200160038201805461214d906140eb565b80601f0160208091040260200160405190810160405280929190818152602001828054612179906140eb565b80156121c45780601f1061219b576101008083540402835291602001916121c4565b820191905f5260205f20905b8154815290600101906020018083116121a757829003601f168201915b50505050508152505090505f5f8567ffffffffffffffff16146121e757846121ea565b60015b90505f8167ffffffffffffffff1660648667ffffffffffffffff168967ffffffffffffffff1661221a919061488a565b61222491906148bd565b61222e91906148fe565b90505f61224660648361224191906148fe565b611e6e565b61225b606484612256919061492e565b611e6e565b60405160200161226c929190614984565b6040516020818303038152906040529050835f015184602001516122998b67ffffffffffffffff16611e6e565b6122ac8b67ffffffffffffffff16611e6e565b6122bf8b67ffffffffffffffff16611e6e565b6122d28b67ffffffffffffffff16611e6e565b866040516020016122e99796959493929190615ef4565b60405160208183030381529060405294505050505095945050505050565b612320828260405180602001604052805f815250612e64565b5050565b5f7f01ffc9a7000000000000000000000000000000000000000000000000000000007bffffffffffffffffffffffffffffffffffffffffffffffffffffffff1916827bffffffffffffffffffffffffffffffffffffffffffffffffffffffff1916149050919050565b5f60025f8381526020019081526020015f205f9054906101000a900473ffffffffffffffffffffffffffffffffffffffff169050919050565b80806123fe57505f73ffffffffffffffffffffffffffffffffffffffff168273ffffffffffffffffffffffffffffffffffffffff1614155b15612530575f61240d8461140b565b90505f73ffffffffffffffffffffffffffffffffffffffff168373ffffffffffffffffffffffffffffffffffffffff161415801561247757508273ffffffffffffffffffffffffffffffffffffffff168173ffffffffffffffffffffffffffffffffffffffff1614155b801561248a57506124888184610fb6565b155b156124cc57826040517fa9fbf51f0000000000000000000000000000000000000000000000000000000081526004016124c39190613a45565b60405180910390fd5b811561252e57838573ffffffffffffffffffffffffffffffffffffffff168273ffffffffffffffffffffffffffffffffffffffff167f8c5be1e5ebec7d5bd14f71427d1e84f3dd0314c0f7b2291e5b200ac8c7c3b92560405160405180910390a45b505b8360045f8581526020019081526020015f205f6101000a81548173ffffffffffffffffffffffffffffffffffffffff021916908373ffffffffffffffffffffffffffffffffffffffff16021790555050505050565b612590838383612e87565b612643575f73ffffffffffffffffffffffffffffffffffffffff168373ffffffffffffffffffffffffffffffffffffffff160361260457806040517f7e2732890000000000000000000000000000000000000000000000000000000081526004016125fb9190613cf7565b60405180910390fd5b81816040517f177e802f00000000000000000000000000000000000000000000000000000000815260040161263a929190616041565b60405180910390fd5b505050565b612654825f5f84612f47565b5050565b5f815103612692576040517ffe936cb700000000000000000000000000000000000000000000000000000000815260040160405180910390fd5b808260a001819052505050565b60605f6126ad610100612fed565b90506126f76040518060400160405280600c81526020017f636f64654c6f636174696f6e00000000000000000000000000000000000000008152508261301290919063ffffffff16565b61271f835f015160028111156127105761270f616068565b5b8261303a90919063ffffffff16565b6127676040518060400160405280600881526020017f6c616e67756167650000000000000000000000000000000000000000000000008152508261301290919063ffffffff16565b61278f83604001515f8111156127805761277f616068565b5b8261303a90919063ffffffff16565b6127d76040518060400160405280600681526020017f736f7572636500000000000000000000000000000000000000000000000000008152508261301290919063ffffffff16565b6127ee83606001518261301290919063ffffffff16565b5f8360a001515111156128a5576128436040518060400160405280600481526020017f61726773000000000000000000000000000000000000000000000000000000008152508261301290919063ffffffff16565b61284c81613089565b5f5f90505b8360a001515181101561289a5761288f8460a001518281518110612878576128776147a7565b5b60200260200101518361301290919063ffffffff16565b806001019050612851565b506128a4816130b1565b5b5f83608001515111156129e4575f60028111156128c5576128c4616068565b5b836020015160028111156128dc576128db616068565b5b03612913576040517fa80d31f700000000000000000000000000000000000000000000000000000000815260040160405180910390fd5b61295b6040518060400160405280600f81526020017f736563726574734c6f636174696f6e00000000000000000000000000000000008152508261301290919063ffffffff16565b6129848360200151600281111561297557612974616068565b5b8261303a90919063ffffffff16565b6129cc6040518060400160405280600781526020017f73656372657473000000000000000000000000000000000000000000000000008152508261301290919063ffffffff16565b6129e38360800151826130d990919063ffffffff16565b5b5f8360c00151511115612a9b57612a396040518060400160405280600981526020017f62797465734172677300000000000000000000000000000000000000000000008152508261301290919063ffffffff16565b612a4281613089565b5f5f90505b8360c0015151811015612a9057612a858460c001518281518110612a6e57612a6d6147a7565b5b6020026020010151836130d990919063ffffffff16565b806001019050612a47565b50612a9a816130b1565b5b805f01515f0151915050919050565b5f5f7f000000000000000000000000000000000000000000000000000000000000000073ffffffffffffffffffffffffffffffffffffffff1663461d27628688600188886040518663ffffffff1660e01b8152600401612b0e9594939291906160de565b6020604051808303815f875af1158015612b2a573d5f5f3e3d5ffd5b505050506040513d601f19601f82011682018060405250810190612b4e919061614a565b9050807f1131472297a800fee664d1d89cfa8f7676ff07189ecc53f80bbb5f4969099db860405160405180910390a280915050949350505050565b60605f835103612ba95760405180602001604052805f8152509050612d0d565b5f82612bda57600360028551612bbf919061488a565b612bc991906148fe565b6004612bd591906148bd565b612c01565b6003600285516004612bec91906148bd565b612bf6919061488a565b612c0091906148fe565b5b905060405191507f4142434445464748494a4b4c4d4e4f505152535455565758595a616263646566601f5261067083027f6768696a6b6c6d6e6f707172737475767778797a303132333435363738392b2f18603f526020820181810185865187016020810180515f82525b82841015612cbf576003840193508351603f8160121c16518753600187019650603f81600c1c16518753600187019650603f8160061c16518753600187019650603f811651875360018701965050612c6c565b80825288612cfe5760038a510660018114612ce15760028114612cf457612cfc565b603d6001880353603d6002880353612cfc565b603d60018803535b505b86885284604052505050505050505b92915050565b5f5f5f90507a184f03e93ff9f4daa797ed6e38ed64bf6a1f0100000000000000008310612d6f577a184f03e93ff9f4daa797ed6e38ed64bf6a1f0100000000000000008381612d6557612d6461485d565b5b0492506040810190505b6d04ee2d6d415b85acef81000000008310612dac576d04ee2d6d415b85acef81000000008381612da257612da161485d565b5b0492506020810190505b662386f26fc100008310612ddb57662386f26fc100008381612dd157612dd061485d565b5b0492506010810190505b6305f5e1008310612e04576305f5e1008381612dfa57612df961485d565b5b0492506008810190505b6127108310612e29576127108381612e1f57612e1e61485d565b5b0492506004810190505b60648310612e4c5760648381612e4257612e4161485d565b5b0492506002810190505b600a8310612e5b576001810190505b80915050919050565b612e6e8383613101565b612e82612e796114ca565b5f858585611caf565b505050565b5f5f73ffffffffffffffffffffffffffffffffffffffff168373ffffffffffffffffffffffffffffffffffffffff1614158015612f3e57508273ffffffffffffffffffffffffffffffffffffffff168473ffffffffffffffffffffffffffffffffffffffff161480612eff5750612efe8484610fb6565b5b80612f3d57508273ffffffffffffffffffffffffffffffffffffffff16612f2583611491565b73ffffffffffffffffffffffffffffffffffffffff16145b5b90509392505050565b5f815103612f81576040517f22ce3edd00000000000000000000000000000000000000000000000000000000815260040160405180910390fd5b82845f01906002811115612f9857612f97616068565b5b90816002811115612fac57612fab616068565b5b815250508184604001905f811115612fc757612fc6616068565b5b90815f811115612fda57612fd9616068565b5b8152505080846060018190525050505050565b612ff56136a9565b613002815f0151836131f4565b505f816020018181525050919050565b61301f826003835161326a565b61303581835f015161340a90919063ffffffff16565b505050565b61305b60026005600660ff16901b17835f015161342690919063ffffffff16565b5061308582826040516020016130719190613cf7565b6040516020818303038152906040526130d9565b5050565b61309481600461348d565b6001816020018181516130a7919061488a565b9150818152505050565b6130bc81600761348d565b6001816020018181516130cf91906143fd565b9150818152505050565b6130e6826002835161326a565b6130fc81835f015161340a90919063ffffffff16565b505050565b5f73ffffffffffffffffffffffffffffffffffffffff168273ffffffffffffffffffffffffffffffffffffffff1603613171575f6040517f64a0ae920000000000000000000000000000000000000000000000000000000081526004016131689190613a45565b60405180910390fd5b5f61317d83835f611692565b90505f73ffffffffffffffffffffffffffffffffffffffff168173ffffffffffffffffffffffffffffffffffffffff16146131ef575f6040517f73c6ac6e0000000000000000000000000000000000000000000000000000000081526004016131e69190613a45565b60405180910390fd5b505050565b6131fc6136c8565b5f60208361320a919061492e565b146132365760208261321c919061492e565b602061322891906143fd565b82613233919061488a565b91505b818360200181815250506040518084525f81528281016020018181101561325b575f5ffd5b80604052505082905092915050565b60178167ffffffffffffffff16116132a45761329e8160058460ff16901b60ff1617845f015161342690919063ffffffff16565b50613405565b60ff8167ffffffffffffffff1611613300576132d6601860058460ff16901b17845f015161342690919063ffffffff16565b506132fa8167ffffffffffffffff166001855f01516134b29092919063ffffffff16565b50613404565b61ffff8167ffffffffffffffff161161335d57613333601960058460ff16901b17845f015161342690919063ffffffff16565b506133578167ffffffffffffffff166002855f01516134b29092919063ffffffff16565b50613403565b63ffffffff8167ffffffffffffffff16116133bc57613392601a60058460ff16901b17845f015161342690919063ffffffff16565b506133b68167ffffffffffffffff166004855f01516134b29092919063ffffffff16565b50613402565b6133dc601b60058460ff16901b17845f015161342690919063ffffffff16565b506134008167ffffffffffffffff166008855f01516134b29092919063ffffffff16565b505b5b5b5b505050565b6134126136c8565b61341e8383845161353b565b905092915050565b61342e6136c8565b5f835f01515190505f600182613444919061488a565b905084602001518210613468576134678560028361346291906148bd565b613618565b5b84516020838201018581538151831115613480578282525b5050849250505092915050565b6134ad601f60058360ff16901b17835f015161342690919063ffffffff16565b505050565b6134ba6136c8565b5f845f01515190505f81846134cf919061488a565b905085602001518111156134f4576134f3866002836134ee91906148bd565b613618565b5b5f60018561010061350591906162a4565b61350f91906143fd565b90508651828101878319825116178152815184111561352c578382525b50508693505050509392505050565b6135436136c8565b8251821115613550575f5ffd5b5f845f01515190505f8382613565919061488a565b9050856020015181111561358a576135898660028361358491906148bd565b613618565b5b5f5f875180518560208301019350808511156135a4578482525b60208901925050505b602086106135eb57805182526020826135c6919061488a565b91506020816135d5919061488a565b90506020866135e491906143fd565b95506135ad565b5f6001876020036101000a0390508019825116818451168181178552505050879450505050509392505050565b5f825f0151905061362983836131f4565b50613634838261340a565b50505050565b6040518060e001604052805f600281111561365857613657616068565b5b81526020015f60028111156136705761366f616068565b5b81526020015f5f81111561368757613686616068565b5b8152602001606081526020016060815260200160608152602001606081525090565b60405180604001604052806136bc6136c8565b81526020015f81525090565b6040518060400160405280606081526020015f81525090565b5f604051905090565b5f5ffd5b5f5ffd5b5f5ffd5b5f5ffd5b5f601f19601f8301169050919050565b7f4e487b71000000000000000000000000000000000000000000000000000000005f52604160045260245ffd5b613740826136fa565b810181811067ffffffffffffffff8211171561375f5761375e61370a565b5b80604052505050565b5f6137716136e1565b905061377d8282613737565b919050565b5f67ffffffffffffffff82111561379c5761379b61370a565b5b6137a5826136fa565b9050602081019050919050565b828183375f83830152505050565b5f6137d26137cd84613782565b613768565b9050828152602081018484840111156137ee576137ed6136f6565b5b6137f98482856137b2565b509392505050565b5f82601f830112613815576138146136f2565b5b81356138258482602086016137c0565b91505092915050565b5f60208284031215613843576138426136ea565b5b5f82013567ffffffffffffffff8111156138605761385f6136ee565b5b61386c84828501613801565b91505092915050565b5f7fffffffff0000000000000000000000000000000000000000000000000000000082169050919050565b6138a981613875565b81146138b3575f5ffd5b50565b5f813590506138c4816138a0565b92915050565b5f602082840312156138df576138de6136ea565b5b5f6138ec848285016138b6565b91505092915050565b5f8115159050919050565b613909816138f5565b82525050565b5f6020820190506139225f830184613900565b92915050565b5f81519050919050565b5f82825260208201905092915050565b8281835e5f83830152505050565b5f61395a82613928565b6139648185613932565b9350613974818560208601613942565b61397d816136fa565b840191505092915050565b5f6020820190508181035f8301526139a08184613950565b905092915050565b5f819050919050565b6139ba816139a8565b81146139c4575f5ffd5b50565b5f813590506139d5816139b1565b92915050565b5f602082840312156139f0576139ef6136ea565b5b5f6139fd848285016139c7565b91505092915050565b5f73ffffffffffffffffffffffffffffffffffffffff82169050919050565b5f613a2f82613a06565b9050919050565b613a3f81613a25565b82525050565b5f602082019050613a585f830184613a36565b92915050565b613a6781613a25565b8114613a71575f5ffd5b50565b5f81359050613a8281613a5e565b92915050565b5f5f60408385031215613a9e57613a9d6136ea565b5b5f613aab85828601613a74565b9250506020613abc858286016139c7565b9150509250929050565b5f67ffffffffffffffff82169050919050565b613ae281613ac6565b82525050565b5f602082019050613afb5f830184613ad9565b92915050565b5f819050919050565b613b1381613b01565b8114613b1d575f5ffd5b50565b5f81359050613b2e81613b0a565b92915050565b5f67ffffffffffffffff821115613b4e57613b4d61370a565b5b613b57826136fa565b9050602081019050919050565b5f613b76613b7184613b34565b613768565b905082815260208101848484011115613b9257613b916136f6565b5b613b9d8482856137b2565b509392505050565b5f82601f830112613bb957613bb86136f2565b5b8135613bc9848260208601613b64565b91505092915050565b5f5f5f60608486031215613be957613be86136ea565b5b5f613bf686828701613b20565b935050602084013567ffffffffffffffff811115613c1757613c166136ee565b5b613c2386828701613ba5565b925050604084013567ffffffffffffffff811115613c4457613c436136ee565b5b613c5086828701613ba5565b9150509250925092565b5f5f60408385031215613c7057613c6f6136ea565b5b5f613c7d858286016139c7565b9250506020613c8e858286016139c7565b9150509250929050565b5f5f5f60608486031215613caf57613cae6136ea565b5b5f613cbc86828701613a74565b9350506020613ccd86828701613a74565b9250506040613cde868287016139c7565b9150509250925092565b613cf1816139a8565b82525050565b5f602082019050613d0a5f830184613ce8565b92915050565b5f5ffd5b5f5ffd5b5f5f83601f840112613d2d57613d2c6136f2565b5b8235905067ffffffffffffffff811115613d4a57613d49613d10565b5b602083019150836001820283011115613d6657613d65613d14565b5b9250929050565b5f5f60208385031215613d8357613d826136ea565b5b5f83013567ffffffffffffffff811115613da057613d9f6136ee565b5b613dac85828601613d18565b92509250509250929050565b5f60208284031215613dcd57613dcc6136ea565b5b5f613dda84828501613b20565b91505092915050565b5f81519050919050565b5f82825260208201905092915050565b5f613e0782613de3565b613e118185613ded565b9350613e21818560208601613942565b613e2a816136fa565b840191505092915050565b5f604082019050613e485f830185613900565b8181036020830152613e5a8184613dfd565b90509392505050565b5f60208284031215613e7857613e776136ea565b5b5f613e8584828501613a74565b91505092915050565b613e97816138f5565b8114613ea1575f5ffd5b50565b5f81359050613eb281613e8e565b92915050565b5f5f60408385031215613ece57613ecd6136ea565b5b5f613edb85828601613a74565b9250506020613eec85828601613ea4565b9150509250929050565b5f60e0820190508181035f830152613f0e818a613950565b90508181036020830152613f228189613950565b9050613f316040830188613ad9565b613f3e6060830187613ad9565b613f4b6080830186613ad9565b613f5860a0830185613ad9565b81810360c0830152613f6a8184613950565b905098975050505050505050565b5f5f5f5f60808587031215613f9057613f8f6136ea565b5b5f613f9d87828801613a74565b9450506020613fae87828801613a74565b9350506040613fbf878288016139c7565b925050606085013567ffffffffffffffff811115613fe057613fdf6136ee565b5b613fec87828801613ba5565b91505092959194509250565b5f5f6040838503121561400e5761400d6136ea565b5b5f61401b85828601613a74565b925050602061402c85828601613a74565b9150509250929050565b5f5f5f6060848603121561404d5761404c6136ea565b5b5f61405a86828701613a74565b935050602084013567ffffffffffffffff81111561407b5761407a6136ee565b5b61408786828701613801565b925050604084013567ffffffffffffffff8111156140a8576140a76136ee565b5b6140b486828701613801565b9150509250925092565b7f4e487b71000000000000000000000000000000000000000000000000000000005f52602260045260245ffd5b5f600282049050600182168061410257607f821691505b602082108103614115576141146140be565b5b50919050565b5f819050815f5260205f209050919050565b5f6020601f8301049050919050565b5f82821b905092915050565b5f600883026141777fffffffffffffffffffffffffffffffffffffffffffffffffffffffffffffffff8261413c565b614181868361413c565b95508019841693508086168417925050509392505050565b5f819050919050565b5f6141bc6141b76141b2846139a8565b614199565b6139a8565b9050919050565b5f819050919050565b6141d5836141a2565b6141e96141e1826141c3565b848454614148565b825550505050565b5f5f905090565b6142006141f1565b61420b8184846141cc565b505050565b5f5b82811015614231576142265f8284016141f8565b600181019050614212565b505050565b601f8211156142845782821115614283576142508161411b565b6142598361412d565b6142628561412d565b602086101561426f575f90505b80830161427e82840382614210565b505050505b5b505050565b5f82821c905092915050565b5f6142a45f1984600802614289565b1980831691505092915050565b5f6142bc8383614295565b9150826002028217905092915050565b6142d582613928565b67ffffffffffffffff8111156142ee576142ed61370a565b5b6142f882546140eb565b614303828285614236565b5f60209050601f831160018114614334575f8415614322578287015190505b61432c85826142b1565b865550614393565b601f1984166143428661411b565b5f5b8281101561436957848901518255600182019150602085019450602081019050614344565b868310156143865784890151614382601f891682614295565b8355505b6001600288020188555050505b505050505050565b5f6060820190506143ae5f830186613a36565b6143bb6020830185613ce8565b6143c86040830184613a36565b949350505050565b7f4e487b71000000000000000000000000000000000000000000000000000000005f52601160045260245ffd5b5f614407826139a8565b9150614412836139a8565b925082820390508181111561442a576144296143d0565b5b92915050565b7f7b226e616d65223a20224b61727475204e6f6e2d4f7074696d697a6564202300815250565b5f81905092915050565b5f61446a82613928565b6144748185614456565b9350614484818560208601613942565b80840191505092915050565b7f222c200000000000000000000000000000000000000000000000000000000000815250565b7f226465736372697074696f6e223a20224b6172747520644e4654204d504c20285f8201527f4d6f64656c2041292e204d656e6767756e616b616e206d656d6f72692053746160208201527f74652053746f72616765207365636172612070656e756820756e74756b20706560408201527f6d62756b7469616e2072697365742e222c200000000000000000000000000000606082015250565b5f61455c607283614456565b9150614567826144b6565b607282019050919050565b7f22696d616765223a2022646174613a696d6167652f7376672b786d6c3b6261735f8201527f6536342c00000000000000000000000000000000000000000000000000000000602082015250565b5f6145cc602483614456565b91506145d782614572565b602482019050919050565b7f227d000000000000000000000000000000000000000000000000000000000000815250565b5f61461282614430565b601f820191506146228285614460565b915061462d82614490565b60038201915061463c82614550565b9150614647826145c0565b91506146538284614460565b915061465e826145e2565b6002820191508190509392505050565b7f646174613a6170706c69636174696f6e2f6a736f6e3b6261736536342c000000815250565b5f61469e8261466e565b601d820191506146ae8284614460565b915081905092915050565b5f6146c3826139a8565b91507fffffffffffffffffffffffffffffffffffffffffffffffffffffffffffffffff82036146f5576146f46143d0565b5b600182019050919050565b7f4f7261636c65204572726f7200000000000000000000000000000000000000005f82015250565b5f614734600c83613932565b915061473f82614700565b602082019050919050565b5f6020820190508181035f83015261476181614728565b9050919050565b5f81519050614776816139b1565b92915050565b5f60208284031215614791576147906136ea565b5b5f61479e84828501614768565b91505092915050565b7f4e487b71000000000000000000000000000000000000000000000000000000005f52603260045260245ffd5b5f6080820190506147e75f830187613a36565b6147f46020830186613a36565b6148016040830185613ce8565b81810360608301526148138184613dfd565b905095945050505050565b5f8151905061482c816138a0565b92915050565b5f60208284031215614847576148466136ea565b5b5f6148548482850161481e565b91505092915050565b7f4e487b71000000000000000000000000000000000000000000000000000000005f52601260045260245ffd5b5f614894826139a8565b915061489f836139a8565b92508282019050808211156148b7576148b66143d0565b5b92915050565b5f6148c7826139a8565b91506148d2836139a8565b92508282026148e0816139a8565b915082820484148315176148f7576148f66143d0565b5b5092915050565b5f614908826139a8565b9150614913836139a8565b9250826149235761492261485d565b5b828204905092915050565b5f614938826139a8565b9150614943836139a8565b9250826149535761495261485d565b5b828206905092915050565b7f2e00000000000000000000000000000000000000000000000000000000000000815250565b5f61498f8285614460565b915061499a8261495e565b6001820191506149aa8284614460565b91508190509392505050565b7f3c7376672077696474683d2233323022206865696768743d22343030222076695f8201527f6577426f783d2230203020333230203430302220786d6c6e733d22687474703a60208201527f2f2f7777772e77332e6f72672f323030302f737667223e000000000000000000604082015250565b5f614a36605783614456565b9150614a41826149b6565b605782019050919050565b7f3c672073686170652d72656e646572696e673d2263726973704564676573223e5f8201527f3c7265637420783d22302220793d2230222077696474683d223332302220686560208201527f696768743d22343030222066696c6c3d2223313531353135222f3e3c7265637460408201527f20783d22382220793d2238222077696474683d2233303422206865696768743d60608201527f22333834222066696c6c3d2223303232663532222f3e3c7465787420783d223160808201527f36302220793d223430222066696c6c3d22236563663066312220666f6e742d7360a08201527f697a653d2232302220746578742d616e63686f723d226d6964646c652220666f60c08201527f6e742d7765696768743d22626f6c64223e504c4159455220434152443c2f746560e08201527f78743e3c6c696e652078313d223230222079313d223535222078323d223330306101008201527f222079323d22353522207374726f6b653d222365636630663122207374726f6b6101208201527f652d77696474683d2234222f3e3c2f673e00000000000000000000000000000061014082015250565b5f614c0061015183614456565b9150614c0b82614a4c565b61015182019050919050565b7f3c73766720783d2231302220793d223330222077696474683d223134302220685f8201527f65696768743d22333830222076696577426f783d22302030203332203332222060208201527f73686170652d72656e646572696e673d2263726973704564676573223e3c672060408201527f7472616e73666f726d3d227472616e736c6174652833322c203029207363616c60608201527f65282d312c203129223e3c706174682066696c6c3d222330303030303022206460808201527f3d224d3131203268313076314831317a204d3920336832763148397a204d323160a08201527f2033683276314832317a204d3820346831763148387a204d323320346831763160c08201527f4832337a204d3820356831763148387a204d32342035683176314832347a204d60e08201527f3820366831763148387a204d32342036683176314832347a204d3820376831766101008201527f3148387a204d32342037683176314832347a204d3820386831763148387a204d6101208201527f32342038683176314832347a204d3920396831763148397a204d3234203968316101408201527f76314832347a204d392031306831763148397a204d32332031306831763148326101608201527f337a204d392031316831763148397a204d3132203131683276314831327a204d6101808201527f3138203131683276314831387a204d3233203131683176314832337a204d39206101a08201527f31326831763148397a204d3233203132683176314832337a204d3130203133686101c08201527f3176314831307a204d3232203133683176314832327a204d31302031346831766101e08201527f314831307a204d3232203134683176314832327a204d313020313568317631486102008201527f31307a204d3232203135683176314832327a204d3131203136683176314831316102208201527f7a204d3231203136683176314832317a204d3131203137683176314831317a206102408201527f4d3231203137683176314832317a204d3132203138683176314831327a204d326102608201527f30203138683176314832307a204d3132203139683176314831327a204d3230206102808201527f3139683176314832307a204d3131203230683176314831317a204d32312032306102a08201527f683176314832317a204d392032316832763148397a204d3232203231683276316102c08201527f4832327a204d372032326832763148377a204d3234203232683276314832347a6102e08201527f204d362032336831763148367a204d3236203233683176314832367a204d35206103008201527f32346831763148357a204d3237203234683176314832377a204d3420323568316103208201527f763148347a204d3238203235683176314832387a204d332032366831763148336103408201527f7a204d3239203236683176314832397a204d332032376831763148337a204d326103608201527f39203237683176314832397a204d332032386831763148337a204d32392032386103808201527f683176314832397a204d332032396831763148337a204d3239203239683176316103a08201527f4832397a204d332033306831763148337a204d3239203330683176314832397a6103c08201527f204d33203331683237763148337a22202f3e3c706174682066696c6c3d2223306103e08201527f30303030302220643d224d3131203368313076314831317a204d3920346831346104008201527f763148397a204d392035683135763148397a204d392036683135763148397a206104208201527f4d392037683135763148397a204d3920386833763148397a204d3230203868346104408201527f76314832307a204d31302039683276314831307a204d323220396832763148326104608201527f327a204d3130203130683176314831307a204d3232203130683176314832327a6104808201527f22202f3e3c706174682066696c6c3d22236534623539302220643d224d3132206104a08201527f38683876314831327a204d3132203968313076314831327a204d3131203130686104c08201527f313176314831317a204d3130203131683276314831307a204d313420313168346104e08201527f76314831347a204d3230203131683376314832307a204d3130203132683133766105008201527f314831307a204d3131203133683476314831317a204d313720313368357631486105208201527f31377a204d313120313468313176314831317a204d31312031356833763148316105408201527f317a204d3138203135683476314831387a204d3132203136683976314831327a6105608201527f204d3132203137683976314831327a204d3133203138683776314831337a22206105808201527f2f3e3c706174682066696c6c3d22236335393437332220643d224d31352031336105a08201527f683276314831357a204d3133203139683776314831337a204d313420323068356105c08201527f76314831347a22202f3e3c706174682066696c6c3d22236264366134662220646105e08201527f3d224d3134203135683476314831347a22202f3e3c706174682066696c6c3d226106008201527f236666666666662220643d224d3132203230683276314831327a204d313920326106208201527f30683276314831397a204d3131203231683376314831317a204d3139203231686106408201527f3376314831397a204d392032326834763148397a204d323020323268347631486106608201527f32307a204d372032336835763148377a204d3231203233683576314832317a206106808201527f4d362032346835763148367a204d3232203234683576314832327a204d3520326106a08201527f356835763148357a204d3133203235683276314831337a204d313620323568326106c08201527f76314831367a204d3139203235683276314831397a204d3233203235683576316106e08201527f4832337a204d342032366835763148347a204d3234203236683576314832347a6107008201527f204d342032376834763148347a204d3235203237683476314832357a204d34206107208201527f32386834763148347a204d3235203238683476314832357a204d3420323968346107408201527f763148347a204d3235203239683476314832357a204d362033306832763148366107608201527f7a204d3235203330683276314832357a22202f3e3c706174682066696c6c3d226107808201527f236566383131352220643d224d3134203231683576314831347a204d313320326107a08201527f32683776314831337a204d3132203233683976314831327a204d3131203234686107c08201527f313176314831317a204d3130203235683376314831307a204d313520323568316107e08201527f76314831357a204d3138203235683176314831387a204d3231203235683276316108008201527f4832317a204d39203236683135763148397a204d38203237683137763148387a6108208201527f204d38203238683137763148387a204d38203239683137763148387a204d34206108408201527f33306832763148347a204d38203330683137763148387a204d323720333068326108608201527f76314832377a22202f3e3c2f673e3c2f7376673e00000000000000000000000061088082015250565b5f6156a161089483614456565b91506156ac82614c17565b61089482019050919050565b7f3c67207472616e73666f726d3d227472616e736c617465283138302c203130305f8201527f29222073686170652d72656e646572696e673d2263726973704564676573223e602082015250565b5f615712604083614456565b915061571d826156b8565b604082019050919050565b7f3c7465787420783d222d33302220793d223230222066696c6c3d2223333439385f8201527f64622220666f6e742d73697a653d223134223e504c41594552204e414d453a3c60208201527f2f746578743e3c7465787420783d222d33302220793d223530222066696c6c3d60408201527f22236563663066312220666f6e742d73697a653d2232342220666f6e742d776560608201527f696768743d22626f6c64223e0000000000000000000000000000000000000000608082015250565b5f6157f4608c83614456565b91506157ff82615728565b608c82019050919050565b7f3c2f746578743e3c6c696e652078313d222d3235222079313d223735222078325f8201527f3d22313230222079323d22373522207374726f6b653d2223353535222073747260208201527f6f6b652d77696474683d223422207374726f6b652d6461736861727261793d2260408201527f382c36222f3e0000000000000000000000000000000000000000000000000000606082015250565b5f6158b0606683614456565b91506158bb8261580a565b606682019050919050565b7f3c7465787420783d222d33302220793d22313030222066696c6c3d22236563665f8201527f3066312220666f6e742d73697a653d223134223e4c414e453a3c2f746578743e60208201527f3c7465787420783d223132302220793d22313030222066696c6c3d222365636660408201527f3066312220666f6e742d73697a653d2231342220746578742d616e63686f723d60608201527f22656e64223e0000000000000000000000000000000000000000000000000000608082015250565b5f615992608683614456565b915061599d826158c6565b608682019050919050565b7f3c2f746578743e00000000000000000000000000000000000000000000000000815250565b7f3c7465787420783d222d33302220793d22313235222066696c6c3d22236563665f8201527f3066312220666f6e742d73697a653d223134223e47414d453a3c2f746578743e60208201527f3c7465787420783d223132302220793d22313235222066696c6c3d222365636660408201527f3066312220666f6e742d73697a653d2231342220746578742d616e63686f723d60608201527f22656e64223e0000000000000000000000000000000000000000000000000000608082015250565b5f615a9a608683614456565b9150615aa5826159ce565b608682019050919050565b7f3c7465787420783d222d33302220793d22313530222066696c6c3d22236563665f8201527f3066312220666f6e742d73697a653d223134223e4b494c4c533a3c2f7465787460208201527f3e3c7465787420783d223132302220793d22313530222066696c6c3d2223656360408201527f663066312220666f6e742d73697a653d2231342220746578742d616e63686f7260608201527f3d22656e64223e00000000000000000000000000000000000000000000000000608082015250565b5f615b7c608783614456565b9150615b8782615ab0565b608782019050919050565b7f3c7465787420783d222d33302220793d22313735222066696c6c3d22236563665f8201527f3066312220666f6e742d73697a653d223134223e4445415448533a3c2f74657860208201527f743e3c7465787420783d223132302220793d22313735222066696c6c3d22236560408201527f63663066312220666f6e742d73697a653d2231342220746578742d616e63686f60608201527f723d22656e64223e000000000000000000000000000000000000000000000000608082015250565b5f615c5e608883614456565b9150615c6982615b92565b608882019050919050565b7f3c7465787420783d222d33302220793d22323030222066696c6c3d22236563665f8201527f3066312220666f6e742d73697a653d223134223e415353495354533a3c2f746560208201527f78743e3c7465787420783d223132302220793d22323030222066696c6c3d222360408201527f6563663066312220666f6e742d73697a653d2231342220746578742d616e636860608201527f6f723d22656e64223e0000000000000000000000000000000000000000000000608082015250565b5f615d40608983614456565b9150615d4b82615c74565b608982019050919050565b7f3c7465787420783d222d33302220793d22323235222066696c6c3d22236563665f8201527f3066312220666f6e742d73697a653d223134223e4b44413a3c2f746578743e3c60208201527f7465787420783d223132302220793d22323235222066696c6c3d22236563663060408201527f66312220666f6e742d73697a653d2231342220746578742d616e63686f723d2260608201527f656e64223e000000000000000000000000000000000000000000000000000000608082015250565b5f615e22608583614456565b9150615e2d82615d56565b608582019050919050565b7f3c6c696e652078313d222d3330222079313d22323430222078323d22313230225f8201527f2079323d2232343022207374726f6b653d222335353522207374726f6b652d7760208201527f696474683d223422207374726f6b652d6461736861727261793d22382c36222f60408201527f3e3c2f673e3c2f7376673e000000000000000000000000000000000000000000606082015250565b5f615ede606b83614456565b9150615ee982615e38565b606b82019050919050565b5f615efe82614a2a565b9150615f0982614bf3565b9150615f1482615694565b9150615f1f82615706565b9150615f2a826157e8565b9150615f36828a614460565b9150615f41826158a4565b9150615f4c82615986565b9150615f588289614460565b9150615f63826159a8565b600782019150615f7282615a8e565b9150615f7e8288614460565b9150615f89826159a8565b600782019150615f9882615b70565b9150615fa48287614460565b9150615faf826159a8565b600782019150615fbe82615c52565b9150615fca8286614460565b9150615fd5826159a8565b600782019150615fe482615d34565b9150615ff08285614460565b9150615ffb826159a8565b60078201915061600a82615e16565b91506160168284614460565b9150616021826159a8565b60078201915061603082615ed2565b915081905098975050505050505050565b5f6040820190506160545f830185613a36565b6160616020830184613ce8565b9392505050565b7f4e487b71000000000000000000000000000000000000000000000000000000005f52602160045260245ffd5b5f61ffff82169050919050565b6160ab81616095565b82525050565b5f63ffffffff82169050919050565b6160c9816160b1565b82525050565b6160d881613b01565b82525050565b5f60a0820190506160f15f830188613ad9565b81810360208301526161038187613dfd565b905061611260408301866160a2565b61611f60608301856160c0565b61612c60808301846160cf565b9695505050505050565b5f8151905061614481613b0a565b92915050565b5f6020828403121561615f5761615e6136ea565b5b5f61616c84828501616136565b91505092915050565b5f8160011c9050919050565b5f5f8291508390505b60018511156161ca578086048111156161a6576161a56143d0565b5b60018516156161b55780820291505b80810290506161c385616175565b945061618a565b94509492505050565b5f826161e2576001905061629d565b816161ef575f905061629d565b8160018114616205576002811461620f5761623e565b600191505061629d565b60ff841115616221576162206143d0565b5b8360020a915084821115616238576162376143d0565b5b5061629d565b5060208310610133831016604e8410600b84101617156162735782820a90508381111561626e5761626d6143d0565b5b61629d565b6162808484846001616181565b92509050818404811115616297576162966143d0565b5b81810290505b9392505050565b5f6162ae826139a8565b91506162b9836139a8565b92506162e67fffffffffffffffffffffffffffffffffffffffffffffffffffffffffffffffff84846161d3565b90509291505056fea26469706673582212205bae866e9995151b2db089e92c94f149a2532234a6f10c45846a207f1f0af90c64736f6c63430008220033",
			"opcodes": "PUSH1 0xA0 PUSH1 0x40 MSTORE PUSH20 0xB83E47C2BC239B3BF370BC41E1459A34B41238D0 PUSH1 0x9 PUSH0 PUSH2 0x100 EXP DUP2 SLOAD DUP2 PUSH20 0xFFFFFFFFFFFFFFFFFFFFFFFFFFFFFFFFFFFFFFFF MUL NOT AND SWAP1 DUP4 PUSH20 0xFFFFFFFFFFFFFFFFFFFFFFFFFFFFFFFFFFFFFFFF AND MUL OR SWAP1 SSTORE POP PUSH32 0x66756E2D657468657265756D2D7365706F6C69612D3100000000000000000000 PUSH0 SHL PUSH1 0xA SSTORE PUSH3 0x15180 PUSH1 0xE SSTORE CALLVALUE DUP1 ISZERO PUSH2 0x90 JUMPI PUSH0 PUSH0 REVERT JUMPDEST POP PUSH1 0x40 MLOAD PUSH2 0x6A33 CODESIZE SUB DUP1 PUSH2 0x6A33 DUP4 CODECOPY DUP2 DUP2 ADD PUSH1 0x40 MSTORE DUP2 ADD SWAP1 PUSH2 0xB2 SWAP2 SWAP1 PUSH2 0x350 JUMP JUMPDEST PUSH1 0x9 PUSH0 SWAP1 SLOAD SWAP1 PUSH2 0x100 EXP SWAP1 DIV PUSH20 0xFFFFFFFFFFFFFFFFFFFFFFFFFFFFFFFFFFFFFFFF AND CALLER PUSH1 0x40 MLOAD DUP1 PUSH1 0x40 ADD PUSH1 0x40 MSTORE DUP1 PUSH1 0xE DUP2 MSTORE PUSH1 0x20 ADD PUSH32 0x4D504C204D6F64656C2041205632000000000000000000000000000000000000 DUP2 MSTORE POP PUSH1 0x40 MLOAD DUP1 PUSH1 0x40 ADD PUSH1 0x40 MSTORE DUP1 PUSH1 0x5 DUP2 MSTORE PUSH1 0x20 ADD PUSH32 0x4D504C4132000000000000000000000000000000000000000000000000000000 DUP2 MSTORE POP DUP2 PUSH0 SWAP1 DUP2 PUSH2 0x14F SWAP2 SWAP1 PUSH2 0x5C9 JUMP JUMPDEST POP DUP1 PUSH1 0x1 SWAP1 DUP2 PUSH2 0x15F SWAP2 SWAP1 PUSH2 0x5C9 JUMP JUMPDEST POP POP POP PUSH0 PUSH20 0xFFFFFFFFFFFFFFFFFFFFFFFFFFFFFFFFFFFFFFFF AND DUP2 PUSH20 0xFFFFFFFFFFFFFFFFFFFFFFFFFFFFFFFFFFFFFFFF AND SUB PUSH2 0x1D2 JUMPI PUSH0 PUSH1 0x40 MLOAD PUSH32 0x1E4FBDF700000000000000000000000000000000000000000000000000000000 DUP2 MSTORE PUSH1 0x4 ADD PUSH2 0x1C9 SWAP2 SWAP1 PUSH2 0x6D7 JUMP JUMPDEST PUSH1 0x40 MLOAD DUP1 SWAP2 SUB SWAP1 REVERT JUMPDEST PUSH2 0x1E1 DUP2 PUSH2 0x24C PUSH1 0x20 SHL PUSH1 0x20 SHR JUMP JUMPDEST POP DUP1 PUSH20 0xFFFFFFFFFFFFFFFFFFFFFFFFFFFFFFFFFFFFFFFF AND PUSH1 0x80 DUP2 PUSH20 0xFFFFFFFFFFFFFFFFFFFFFFFFFFFFFFFFFFFFFFFF AND DUP2 MSTORE POP POP POP DUP1 PUSH1 0xB PUSH0 PUSH2 0x100 EXP DUP2 SLOAD DUP2 PUSH8 0xFFFFFFFFFFFFFFFF MUL NOT AND SWAP1 DUP4 PUSH8 0xFFFFFFFFFFFFFFFF AND MUL OR SWAP1 SSTORE POP TIMESTAMP PUSH1 0xD DUP2 SWAP1 SSTORE POP POP PUSH2 0x6F0 JUMP JUMPDEST PUSH0 PUSH1 0x7 PUSH0 SWAP1 SLOAD SWAP1 PUSH2 0x100 EXP SWAP1 DIV PUSH20 0xFFFFFFFFFFFFFFFFFFFFFFFFFFFFFFFFFFFFFFFF AND SWAP1 POP DUP2 PUSH1 0x7 PUSH0 PUSH2 0x100 EXP DUP2 SLOAD DUP2 PUSH20 0xFFFFFFFFFFFFFFFFFFFFFFFFFFFFFFFFFFFFFFFF MUL NOT AND SWAP1 DUP4 PUSH20 0xFFFFFFFFFFFFFFFFFFFFFFFFFFFFFFFFFFFFFFFF AND MUL OR SWAP1 SSTORE POP DUP2 PUSH20 0xFFFFFFFFFFFFFFFFFFFFFFFFFFFFFFFFFFFFFFFF AND DUP2 PUSH20 0xFFFFFFFFFFFFFFFFFFFFFFFFFFFFFFFFFFFFFFFF AND PUSH32 0x8BE0079C531659141344CD1FD0A4F28419497F9722A3DAAFE3B4186F6B6457E0 PUSH1 0x40 MLOAD PUSH1 0x40 MLOAD DUP1 SWAP2 SUB SWAP1 LOG3 POP POP JUMP JUMPDEST PUSH0 PUSH0 REVERT JUMPDEST PUSH0 PUSH8 0xFFFFFFFFFFFFFFFF DUP3 AND SWAP1 POP SWAP2 SWAP1 POP JUMP JUMPDEST PUSH2 0x32F DUP2 PUSH2 0x313 JUMP JUMPDEST DUP2 EQ PUSH2 0x339 JUMPI PUSH0 PUSH0 REVERT JUMPDEST POP JUMP JUMPDEST PUSH0 DUP2 MLOAD SWAP1 POP PUSH2 0x34A DUP2 PUSH2 0x326 JUMP JUMPDEST SWAP3 SWAP2 POP POP JUMP JUMPDEST PUSH0 PUSH1 0x20 DUP3 DUP5 SUB SLT ISZERO PUSH2 0x365 JUMPI PUSH2 0x364 PUSH2 0x30F JUMP JUMPDEST JUMPDEST PUSH0 PUSH2 0x372 DUP5 DUP3 DUP6 ADD PUSH2 0x33C JUMP JUMPDEST SWAP2 POP POP SWAP3 SWAP2 POP POP JUMP JUMPDEST PUSH0 DUP2 MLOAD SWAP1 POP SWAP2 SWAP1 POP JUMP JUMPDEST PUSH32 0x4E487B7100000000000000000000000000000000000000000000000000000000 PUSH0 MSTORE PUSH1 0x41 PUSH1 0x4 MSTORE PUSH1 0x24 PUSH0 REVERT JUMPDEST PUSH32 0x4E487B7100000000000000000000000000000000000000000000000000000000 PUSH0 MSTORE PUSH1 0x22 PUSH1 0x4 MSTORE PUSH1 0x24 PUSH0 REVERT JUMPDEST PUSH0 PUSH1 0x2 DUP3 DIV SWAP1 POP PUSH1 0x1 DUP3 AND DUP1 PUSH2 0x3F6 JUMPI PUSH1 0x7F DUP3 AND SWAP2 POP JUMPDEST PUSH1 0x20 DUP3 LT DUP2 SUB PUSH2 0x409 JUMPI PUSH2 0x408 PUSH2 0x3B2 JUMP JUMPDEST JUMPDEST POP SWAP2 SWAP1 POP JUMP JUMPDEST PUSH0 DUP2 SWAP1 POP DUP2 PUSH0 MSTORE PUSH1 0x20 PUSH0 KECCAK256 SWAP1 POP SWAP2 SWAP1 POP JUMP JUMPDEST PUSH0 PUSH1 0x20 PUSH1 0x1F DUP4 ADD DIV SWAP1 POP SWAP2 SWAP1 POP JUMP JUMPDEST PUSH0 DUP3 DUP3 SHL SWAP1 POP SWAP3 SWAP2 POP POP JUMP JUMPDEST PUSH0 PUSH1 0x8 DUP4 MUL PUSH2 0x46B PUSH32 0xFFFFFFFFFFFFFFFFFFFFFFFFFFFFFFFFFFFFFFFFFFFFFFFFFFFFFFFFFFFFFFFF DUP3 PUSH2 0x430 JUMP JUMPDEST PUSH2 0x475 DUP7 DUP4 PUSH2 0x430 JUMP JUMPDEST SWAP6 POP DUP1 NOT DUP5 AND SWAP4 POP DUP1 DUP7 AND DUP5 OR SWAP3 POP POP POP SWAP4 SWAP3 POP POP POP JUMP JUMPDEST PUSH0 DUP2 SWAP1 POP SWAP2 SWAP1 POP JUMP JUMPDEST PUSH0 DUP2 SWAP1 POP SWAP2 SWAP1 POP JUMP JUMPDEST PUSH0 PUSH2 0x4B9 PUSH2 0x4B4 PUSH2 0x4AF DUP5 PUSH2 0x48D JUMP JUMPDEST PUSH2 0x496 JUMP JUMPDEST PUSH2 0x48D JUMP JUMPDEST SWAP1 POP SWAP2 SWAP1 POP JUMP JUMPDEST PUSH0 DUP2 SWAP1 POP SWAP2 SWAP1 POP JUMP JUMPDEST PUSH2 0x4D2 DUP4 PUSH2 0x49F JUMP JUMPDEST PUSH2 0x4E6 PUSH2 0x4DE DUP3 PUSH2 0x4C0 JUMP JUMPDEST DUP5 DUP5 SLOAD PUSH2 0x43C JUMP JUMPDEST DUP3 SSTORE POP POP POP POP JUMP JUMPDEST PUSH0 PUSH0 SWAP1 POP SWAP1 JUMP JUMPDEST PUSH2 0x4FD PUSH2 0x4EE JUMP JUMPDEST PUSH2 0x508 DUP2 DUP5 DUP5 PUSH2 0x4C9 JUMP JUMPDEST POP POP POP JUMP JUMPDEST PUSH0 JUMPDEST DUP3 DUP2 LT ISZERO PUSH2 0x52E JUMPI PUSH2 0x523 PUSH0 DUP3 DUP5 ADD PUSH2 0x4F5 JUMP JUMPDEST PUSH1 0x1 DUP2 ADD SWAP1 POP PUSH2 0x50F JUMP JUMPDEST POP POP POP JUMP JUMPDEST PUSH1 0x1F DUP3 GT ISZERO PUSH2 0x581 JUMPI DUP3 DUP3 GT ISZERO PUSH2 0x580 JUMPI PUSH2 0x54D DUP2 PUSH2 0x40F JUMP JUMPDEST PUSH2 0x556 DUP4 PUSH2 0x421 JUMP JUMPDEST PUSH2 0x55F DUP6 PUSH2 0x421 JUMP JUMPDEST PUSH1 0x20 DUP7 LT ISZERO PUSH2 0x56C JUMPI PUSH0 SWAP1 POP JUMPDEST DUP1 DUP4 ADD PUSH2 0x57B DUP3 DUP5 SUB DUP3 PUSH2 0x50D JUMP JUMPDEST POP POP POP POP JUMPDEST JUMPDEST POP POP POP JUMP JUMPDEST PUSH0 DUP3 DUP3 SHR SWAP1 POP SWAP3 SWAP2 POP POP JUMP JUMPDEST PUSH0 PUSH2 0x5A1 PUSH0 NOT DUP5 PUSH1 0x8 MUL PUSH2 0x586 JUMP JUMPDEST NOT DUP1 DUP4 AND SWAP2 POP POP SWAP3 SWAP2 POP POP JUMP JUMPDEST PUSH0 PUSH2 0x5B9 DUP4 DUP4 PUSH2 0x592 JUMP JUMPDEST SWAP2 POP DUP3 PUSH1 0x2 MUL DUP3 OR SWAP1 POP SWAP3 SWAP2 POP POP JUMP JUMPDEST PUSH2 0x5D2 DUP3 PUSH2 0x37B JUMP JUMPDEST PUSH8 0xFFFFFFFFFFFFFFFF DUP2 GT ISZERO PUSH2 0x5EB JUMPI PUSH2 0x5EA PUSH2 0x385 JUMP JUMPDEST JUMPDEST PUSH2 0x5F5 DUP3 SLOAD PUSH2 0x3DF JUMP JUMPDEST PUSH2 0x600 DUP3 DUP3 DUP6 PUSH2 0x533 JUMP JUMPDEST PUSH0 PUSH1 0x20 SWAP1 POP PUSH1 0x1F DUP4 GT PUSH1 0x1 DUP2 EQ PUSH2 0x631 JUMPI PUSH0 DUP5 ISZERO PUSH2 0x61F JUMPI DUP3 DUP8 ADD MLOAD SWAP1 POP JUMPDEST PUSH2 0x629 DUP6 DUP3 PUSH2 0x5AE JUMP JUMPDEST DUP7 SSTORE POP PUSH2 0x690 JUMP JUMPDEST PUSH1 0x1F NOT DUP5 AND PUSH2 0x63F DUP7 PUSH2 0x40F JUMP JUMPDEST PUSH0 JUMPDEST DUP3 DUP2 LT ISZERO PUSH2 0x666 JUMPI DUP5 DUP10 ADD MLOAD DUP3 SSTORE PUSH1 0x1 DUP3 ADD SWAP2 POP PUSH1 0x20 DUP6 ADD SWAP5 POP PUSH1 0x20 DUP2 ADD SWAP1 POP PUSH2 0x641 JUMP JUMPDEST DUP7 DUP4 LT ISZERO PUSH2 0x683 JUMPI DUP5 DUP10 ADD MLOAD PUSH2 0x67F PUSH1 0x1F DUP10 AND DUP3 PUSH2 0x592 JUMP JUMPDEST DUP4 SSTORE POP JUMPDEST PUSH1 0x1 PUSH1 0x2 DUP9 MUL ADD DUP9 SSTORE POP POP POP JUMPDEST POP POP POP POP POP POP JUMP JUMPDEST PUSH0 PUSH20 0xFFFFFFFFFFFFFFFFFFFFFFFFFFFFFFFFFFFFFFFF DUP3 AND SWAP1 POP SWAP2 SWAP1 POP JUMP JUMPDEST PUSH0 PUSH2 0x6C1 DUP3 PUSH2 0x698 JUMP JUMPDEST SWAP1 POP SWAP2 SWAP1 POP JUMP JUMPDEST PUSH2 0x6D1 DUP2 PUSH2 0x6B7 JUMP JUMPDEST DUP3 MSTORE POP POP JUMP JUMPDEST PUSH0 PUSH1 0x20 DUP3 ADD SWAP1 POP PUSH2 0x6EA PUSH0 DUP4 ADD DUP5 PUSH2 0x6C8 JUMP JUMPDEST SWAP3 SWAP2 POP POP JUMP JUMPDEST PUSH1 0x80 MLOAD PUSH2 0x6324 PUSH2 0x70F PUSH0 CODECOPY PUSH0 DUP2 DUP2 PUSH2 0x70B ADD MSTORE PUSH2 0x2AAE ADD MSTORE PUSH2 0x6324 PUSH0 RETURN INVALID PUSH1 0x80 PUSH1 0x40 MSTORE CALLVALUE DUP1 ISZERO PUSH2 0xF JUMPI PUSH0 PUSH0 REVERT JUMPDEST POP PUSH1 0x4 CALLDATASIZE LT PUSH2 0x1CC JUMPI PUSH0 CALLDATALOAD PUSH1 0xE0 SHR DUP1 PUSH4 0x68015A4B GT PUSH2 0x102 JUMPI DUP1 PUSH4 0x95D89B41 GT PUSH2 0xA0 JUMPI DUP1 PUSH4 0xC87B56DD GT PUSH2 0x6F JUMPI DUP1 PUSH4 0xC87B56DD EQ PUSH2 0x51D JUMPI DUP1 PUSH4 0xE985E9C5 EQ PUSH2 0x54D JUMPI DUP1 PUSH4 0xECA81D42 EQ PUSH2 0x57D JUMPI DUP1 PUSH4 0xF2FDE38B EQ PUSH2 0x599 JUMPI PUSH2 0x1CC JUMP JUMPDEST DUP1 PUSH4 0x95D89B41 EQ PUSH2 0x491 JUMPI DUP1 PUSH4 0xA22CB465 EQ PUSH2 0x4AF JUMPI DUP1 PUSH4 0xB4CFAE44 EQ PUSH2 0x4CB JUMPI DUP1 PUSH4 0xB88D4FDE EQ PUSH2 0x501 JUMPI PUSH2 0x1CC JUMP JUMPDEST DUP1 PUSH4 0x715018A6 GT PUSH2 0xDC JUMPI DUP1 PUSH4 0x715018A6 EQ PUSH2 0x42D JUMPI DUP1 PUSH4 0x8DA5CB5B EQ PUSH2 0x437 JUMPI DUP1 PUSH4 0x947A36FB EQ PUSH2 0x455 JUMPI DUP1 PUSH4 0x94881476 EQ PUSH2 0x473 JUMPI PUSH2 0x1CC JUMP JUMPDEST DUP1 PUSH4 0x68015A4B EQ PUSH2 0x39C JUMPI DUP1 PUSH4 0x6E04FF0D EQ PUSH2 0x3CC JUMPI DUP1 PUSH4 0x70A08231 EQ PUSH2 0x3FD JUMPI PUSH2 0x1CC JUMP JUMPDEST DUP1 PUSH4 0x13C60177 GT PUSH2 0x16F JUMPI DUP1 PUSH4 0x3F3B3B27 GT PUSH2 0x149 JUMPI DUP1 PUSH4 0x3F3B3B27 EQ PUSH2 0x316 JUMPI DUP1 PUSH4 0x42842E0E EQ PUSH2 0x334 JUMPI DUP1 PUSH4 0x4585E33B EQ PUSH2 0x350 JUMPI DUP1 PUSH4 0x6352211E EQ PUSH2 0x36C JUMPI PUSH2 0x1CC JUMP JUMPDEST DUP1 PUSH4 0x13C60177 EQ PUSH2 0x2C0 JUMPI DUP1 PUSH4 0x22E817E2 EQ PUSH2 0x2DE JUMPI DUP1 PUSH4 0x23B872DD EQ PUSH2 0x2FA JUMPI PUSH2 0x1CC JUMP JUMPDEST DUP1 PUSH4 0x81812FC GT PUSH2 0x1AB JUMPI DUP1 PUSH4 0x81812FC EQ PUSH2 0x23A JUMPI DUP1 PUSH4 0x95EA7B3 EQ PUSH2 0x26A JUMPI DUP1 PUSH4 0x9C1BA2E EQ PUSH2 0x286 JUMPI DUP1 PUSH4 0xCA76175 EQ PUSH2 0x2A4 JUMPI PUSH2 0x1CC JUMP JUMPDEST DUP1 PUSH3 0xB46767 EQ PUSH2 0x1D0 JUMPI DUP1 PUSH4 0x1FFC9A7 EQ PUSH2 0x1EC JUMPI DUP1 PUSH4 0x6FDDE03 EQ PUSH2 0x21C JUMPI JUMPDEST PUSH0 PUSH0 REVERT JUMPDEST PUSH2 0x1EA PUSH1 0x4 DUP1 CALLDATASIZE SUB DUP2 ADD SWAP1 PUSH2 0x1E5 SWAP2 SWAP1 PUSH2 0x382E JUMP JUMPDEST PUSH2 0x5B5 JUMP JUMPDEST STOP JUMPDEST PUSH2 0x206 PUSH1 0x4 DUP1 CALLDATASIZE SUB DUP2 ADD SWAP1 PUSH2 0x201 SWAP2 SWAP1 PUSH2 0x38CA JUMP JUMPDEST PUSH2 0x5D0 JUMP JUMPDEST PUSH1 0x40 MLOAD PUSH2 0x213 SWAP2 SWAP1 PUSH2 0x390F JUMP JUMPDEST PUSH1 0x40 MLOAD DUP1 SWAP2 SUB SWAP1 RETURN JUMPDEST PUSH2 0x224 PUSH2 0x630 JUMP JUMPDEST PUSH1 0x40 MLOAD PUSH2 0x231 SWAP2 SWAP1 PUSH2 0x3988 JUMP JUMPDEST PUSH1 0x40 MLOAD DUP1 SWAP2 SUB SWAP1 RETURN JUMPDEST PUSH2 0x254 PUSH1 0x4 DUP1 CALLDATASIZE SUB DUP2 ADD SWAP1 PUSH2 0x24F SWAP2 SWAP1 PUSH2 0x39DB JUMP JUMPDEST PUSH2 0x6BF JUMP JUMPDEST PUSH1 0x40 MLOAD PUSH2 0x261 SWAP2 SWAP1 PUSH2 0x3A45 JUMP JUMPDEST PUSH1 0x40 MLOAD DUP1 SWAP2 SUB SWAP1 RETURN JUMPDEST PUSH2 0x284 PUSH1 0x4 DUP1 CALLDATASIZE SUB DUP2 ADD SWAP1 PUSH2 0x27F SWAP2 SWAP1 PUSH2 0x3A88 JUMP JUMPDEST PUSH2 0x6DA JUMP JUMPDEST STOP JUMPDEST PUSH2 0x28E PUSH2 0x6F0 JUMP JUMPDEST PUSH1 0x40 MLOAD PUSH2 0x29B SWAP2 SWAP1 PUSH2 0x3AE8 JUMP JUMPDEST PUSH1 0x40 MLOAD DUP1 SWAP2 SUB SWAP1 RETURN JUMPDEST PUSH2 0x2BE PUSH1 0x4 DUP1 CALLDATASIZE SUB DUP2 ADD SWAP1 PUSH2 0x2B9 SWAP2 SWAP1 PUSH2 0x3BD2 JUMP JUMPDEST PUSH2 0x709 JUMP JUMPDEST STOP JUMPDEST PUSH2 0x2C8 PUSH2 0x7CB JUMP JUMPDEST PUSH1 0x40 MLOAD PUSH2 0x2D5 SWAP2 SWAP1 PUSH2 0x3988 JUMP JUMPDEST PUSH1 0x40 MLOAD DUP1 SWAP2 SUB SWAP1 RETURN JUMPDEST PUSH2 0x2F8 PUSH1 0x4 DUP1 CALLDATASIZE SUB DUP2 ADD SWAP1 PUSH2 0x2F3 SWAP2 SWAP1 PUSH2 0x3C5A JUMP JUMPDEST PUSH2 0x857 JUMP JUMPDEST STOP JUMPDEST PUSH2 0x314 PUSH1 0x4 DUP1 CALLDATASIZE SUB DUP2 ADD SWAP1 PUSH2 0x30F SWAP2 SWAP1 PUSH2 0x3C98 JUMP JUMPDEST PUSH2 0x871 JUMP JUMPDEST STOP JUMPDEST PUSH2 0x31E PUSH2 0x970 JUMP JUMPDEST PUSH1 0x40 MLOAD PUSH2 0x32B SWAP2 SWAP1 PUSH2 0x3CF7 JUMP JUMPDEST PUSH1 0x40 MLOAD DUP1 SWAP2 SUB SWAP1 RETURN JUMPDEST PUSH2 0x34E PUSH1 0x4 DUP1 CALLDATASIZE SUB DUP2 ADD SWAP1 PUSH2 0x349 SWAP2 SWAP1 PUSH2 0x3C98 JUMP JUMPDEST PUSH2 0x976 JUMP JUMPDEST STOP JUMPDEST PUSH2 0x36A PUSH1 0x4 DUP1 CALLDATASIZE SUB DUP2 ADD SWAP1 PUSH2 0x365 SWAP2 SWAP1 PUSH2 0x3D6D JUMP JUMPDEST PUSH2 0x995 JUMP JUMPDEST STOP JUMPDEST PUSH2 0x386 PUSH1 0x4 DUP1 CALLDATASIZE SUB DUP2 ADD SWAP1 PUSH2 0x381 SWAP2 SWAP1 PUSH2 0x39DB JUMP JUMPDEST PUSH2 0xA60 JUMP JUMPDEST PUSH1 0x40 MLOAD PUSH2 0x393 SWAP2 SWAP1 PUSH2 0x3A45 JUMP JUMPDEST PUSH1 0x40 MLOAD DUP1 SWAP2 SUB SWAP1 RETURN JUMPDEST PUSH2 0x3B6 PUSH1 0x4 DUP1 CALLDATASIZE SUB DUP2 ADD SWAP1 PUSH2 0x3B1 SWAP2 SWAP1 PUSH2 0x3DB8 JUMP JUMPDEST PUSH2 0xA71 JUMP JUMPDEST PUSH1 0x40 MLOAD PUSH2 0x3C3 SWAP2 SWAP1 PUSH2 0x3CF7 JUMP JUMPDEST PUSH1 0x40 MLOAD DUP1 SWAP2 SUB SWAP1 RETURN JUMPDEST PUSH2 0x3E6 PUSH1 0x4 DUP1 CALLDATASIZE SUB DUP2 ADD SWAP1 PUSH2 0x3E1 SWAP2 SWAP1 PUSH2 0x3D6D JUMP JUMPDEST PUSH2 0xA86 JUMP JUMPDEST PUSH1 0x40 MLOAD PUSH2 0x3F4 SWAP3 SWAP2 SWAP1 PUSH2 0x3E35 JUMP JUMPDEST PUSH1 0x40 MLOAD DUP1 SWAP2 SUB SWAP1 RETURN JUMPDEST PUSH2 0x417 PUSH1 0x4 DUP1 CALLDATASIZE SUB DUP2 ADD SWAP1 PUSH2 0x412 SWAP2 SWAP1 PUSH2 0x3E63 JUMP JUMPDEST PUSH2 0xAC4 JUMP JUMPDEST PUSH1 0x40 MLOAD PUSH2 0x424 SWAP2 SWAP1 PUSH2 0x3CF7 JUMP JUMPDEST PUSH1 0x40 MLOAD DUP1 SWAP2 SUB SWAP1 RETURN JUMPDEST PUSH2 0x435 PUSH2 0xB7A JUMP JUMPDEST STOP JUMPDEST PUSH2 0x43F PUSH2 0xB8D JUMP JUMPDEST PUSH1 0x40 MLOAD PUSH2 0x44C SWAP2 SWAP1 PUSH2 0x3A45 JUMP JUMPDEST PUSH1 0x40 MLOAD DUP1 SWAP2 SUB SWAP1 RETURN JUMPDEST PUSH2 0x45D PUSH2 0xBB5 JUMP JUMPDEST PUSH1 0x40 MLOAD PUSH2 0x46A SWAP2 SWAP1 PUSH2 0x3CF7 JUMP JUMPDEST PUSH1 0x40 MLOAD DUP1 SWAP2 SUB SWAP1 RETURN JUMPDEST PUSH2 0x47B PUSH2 0xBBB JUMP JUMPDEST PUSH1 0x40 MLOAD PUSH2 0x488 SWAP2 SWAP1 PUSH2 0x3CF7 JUMP JUMPDEST PUSH1 0x40 MLOAD DUP1 SWAP2 SUB SWAP1 RETURN JUMPDEST PUSH2 0x499 PUSH2 0xBC1 JUMP JUMPDEST PUSH1 0x40 MLOAD PUSH2 0x4A6 SWAP2 SWAP1 PUSH2 0x3988 JUMP JUMPDEST PUSH1 0x40 MLOAD DUP1 SWAP2 SUB SWAP1 RETURN JUMPDEST PUSH2 0x4C9 PUSH1 0x4 DUP1 CALLDATASIZE SUB DUP2 ADD SWAP1 PUSH2 0x4C4 SWAP2 SWAP1 PUSH2 0x3EB8 JUMP JUMPDEST PUSH2 0xC51 JUMP JUMPDEST STOP JUMPDEST PUSH2 0x4E5 PUSH1 0x4 DUP1 CALLDATASIZE SUB DUP2 ADD SWAP1 PUSH2 0x4E0 SWAP2 SWAP1 PUSH2 0x39DB JUMP JUMPDEST PUSH2 0xC67 JUMP JUMPDEST PUSH1 0x40 MLOAD PUSH2 0x4F8 SWAP8 SWAP7 SWAP6 SWAP5 SWAP4 SWAP3 SWAP2 SWAP1 PUSH2 0x3EF6 JUMP JUMPDEST PUSH1 0x40 MLOAD DUP1 SWAP2 SUB SWAP1 RETURN JUMPDEST PUSH2 0x51B PUSH1 0x4 DUP1 CALLDATASIZE SUB DUP2 ADD SWAP1 PUSH2 0x516 SWAP2 SWAP1 PUSH2 0x3F78 JUMP JUMPDEST PUSH2 0xE86 JUMP JUMPDEST STOP JUMPDEST PUSH2 0x537 PUSH1 0x4 DUP1 CALLDATASIZE SUB DUP2 ADD SWAP1 PUSH2 0x532 SWAP2 SWAP1 PUSH2 0x39DB JUMP JUMPDEST PUSH2 0xEAB JUMP JUMPDEST PUSH1 0x40 MLOAD PUSH2 0x544 SWAP2 SWAP1 PUSH2 0x3988 JUMP JUMPDEST PUSH1 0x40 MLOAD DUP1 SWAP2 SUB SWAP1 RETURN JUMPDEST PUSH2 0x567 PUSH1 0x4 DUP1 CALLDATASIZE SUB DUP2 ADD SWAP1 PUSH2 0x562 SWAP2 SWAP1 PUSH2 0x3FF8 JUMP JUMPDEST PUSH2 0xFB6 JUMP JUMPDEST PUSH1 0x40 MLOAD PUSH2 0x574 SWAP2 SWAP1 PUSH2 0x390F JUMP JUMPDEST PUSH1 0x40 MLOAD DUP1 SWAP2 SUB SWAP1 RETURN JUMPDEST PUSH2 0x597 PUSH1 0x4 DUP1 CALLDATASIZE SUB DUP2 ADD SWAP1 PUSH2 0x592 SWAP2 SWAP1 PUSH2 0x4036 JUMP JUMPDEST PUSH2 0x1044 JUMP JUMPDEST STOP JUMPDEST PUSH2 0x5B3 PUSH1 0x4 DUP1 CALLDATASIZE SUB DUP2 ADD SWAP1 PUSH2 0x5AE SWAP2 SWAP1 PUSH2 0x3E63 JUMP JUMPDEST PUSH2 0x121F JUMP JUMPDEST STOP JUMPDEST PUSH2 0x5BD PUSH2 0x12A3 JUMP JUMPDEST DUP1 PUSH1 0xC SWAP1 DUP2 PUSH2 0x5CC SWAP2 SWAP1 PUSH2 0x42CC JUMP JUMPDEST POP POP JUMP JUMPDEST PUSH0 PUSH4 0x49064906 PUSH1 0xE0 SHL PUSH28 0xFFFFFFFFFFFFFFFFFFFFFFFFFFFFFFFFFFFFFFFFFFFFFFFFFFFFFFFF NOT AND DUP3 PUSH28 0xFFFFFFFFFFFFFFFFFFFFFFFFFFFFFFFFFFFFFFFFFFFFFFFFFFFFFFFF NOT AND EQ DUP1 PUSH2 0x629 JUMPI POP PUSH2 0x628 DUP3 PUSH2 0x132A JUMP JUMPDEST JUMPDEST SWAP1 POP SWAP2 SWAP1 POP JUMP JUMPDEST PUSH1 0x60 PUSH0 DUP1 SLOAD PUSH2 0x63E SWAP1 PUSH2 0x40EB JUMP JUMPDEST DUP1 PUSH1 0x1F ADD PUSH1 0x20 DUP1 SWAP2 DIV MUL PUSH1 0x20 ADD PUSH1 0x40 MLOAD SWAP1 DUP2 ADD PUSH1 0x40 MSTORE DUP1 SWAP3 SWAP2 SWAP1 DUP2 DUP2 MSTORE PUSH1 0x20 ADD DUP3 DUP1 SLOAD PUSH2 0x66A SWAP1 PUSH2 0x40EB JUMP JUMPDEST DUP1 ISZERO PUSH2 0x6B5 JUMPI DUP1 PUSH1 0x1F LT PUSH2 0x68C JUMPI PUSH2 0x100 DUP1 DUP4 SLOAD DIV MUL DUP4 MSTORE SWAP2 PUSH1 0x20 ADD SWAP2 PUSH2 0x6B5 JUMP JUMPDEST DUP3 ADD SWAP2 SWAP1 PUSH0 MSTORE PUSH1 0x20 PUSH0 KECCAK256 SWAP1 JUMPDEST DUP2 SLOAD DUP2 MSTORE SWAP1 PUSH1 0x1 ADD SWAP1 PUSH1 0x20 ADD DUP1 DUP4 GT PUSH2 0x698 JUMPI DUP3 SWAP1 SUB PUSH1 0x1F AND DUP3 ADD SWAP2 JUMPDEST POP POP POP POP POP SWAP1 POP SWAP1 JUMP JUMPDEST PUSH0 PUSH2 0x6C9 DUP3 PUSH2 0x140B JUMP JUMPDEST POP PUSH2 0x6D3 DUP3 PUSH2 0x1491 JUMP JUMPDEST SWAP1 POP SWAP2 SWAP1 POP JUMP JUMPDEST PUSH2 0x6EC DUP3 DUP3 PUSH2 0x6E7 PUSH2 0x14CA JUMP JUMPDEST PUSH2 0x14D1 JUMP JUMPDEST POP POP JUMP JUMPDEST PUSH1 0xB PUSH0 SWAP1 SLOAD SWAP1 PUSH2 0x100 EXP SWAP1 DIV PUSH8 0xFFFFFFFFFFFFFFFF AND DUP2 JUMP JUMPDEST PUSH32 0x0 PUSH20 0xFFFFFFFFFFFFFFFFFFFFFFFFFFFFFFFFFFFFFFFF AND CALLER PUSH20 0xFFFFFFFFFFFFFFFFFFFFFFFFFFFFFFFFFFFFFFFF AND EQ PUSH2 0x78E JUMPI PUSH1 0x40 MLOAD PUSH32 0xC6829F8300000000000000000000000000000000000000000000000000000000 DUP2 MSTORE PUSH1 0x4 ADD PUSH1 0x40 MLOAD DUP1 SWAP2 SUB SWAP1 REVERT JUMPDEST PUSH2 0x799 DUP4 DUP4 DUP4 PUSH2 0x14E3 JUMP JUMPDEST DUP3 PUSH32 0x85E1543BF2F84FE80C6BADBCE3648C8539AD1DF4D2B3D822938CA0538BE727E6 PUSH1 0x40 MLOAD PUSH1 0x40 MLOAD DUP1 SWAP2 SUB SWAP1 LOG2 POP POP POP JUMP JUMPDEST PUSH1 0xC DUP1 SLOAD PUSH2 0x7D8 SWAP1 PUSH2 0x40EB JUMP JUMPDEST DUP1 PUSH1 0x1F ADD PUSH1 0x20 DUP1 SWAP2 DIV MUL PUSH1 0x20 ADD PUSH1 0x40 MLOAD SWAP1 DUP2 ADD PUSH1 0x40 MSTORE DUP1 SWAP3 SWAP2 SWAP1 DUP2 DUP2 MSTORE PUSH1 0x20 ADD DUP3 DUP1 SLOAD PUSH2 0x804 SWAP1 PUSH2 0x40EB JUMP JUMPDEST DUP1 ISZERO PUSH2 0x84F JUMPI DUP1 PUSH1 0x1F LT PUSH2 0x826 JUMPI PUSH2 0x100 DUP1 DUP4 SLOAD DIV MUL DUP4 MSTORE SWAP2 PUSH1 0x20 ADD SWAP2 PUSH2 0x84F JUMP JUMPDEST DUP3 ADD SWAP2 SWAP1 PUSH0 MSTORE PUSH1 0x20 PUSH0 KECCAK256 SWAP1 JUMPDEST DUP2 SLOAD DUP2 MSTORE SWAP1 PUSH1 0x1 ADD SWAP1 PUSH1 0x20 ADD DUP1 DUP4 GT PUSH2 0x832 JUMPI DUP3 SWAP1 SUB PUSH1 0x1F AND DUP3 ADD SWAP2 JUMPDEST POP POP POP POP POP DUP2 JUMP JUMPDEST PUSH2 0x85F PUSH2 0x12A3 JUMP JUMPDEST DUP2 PUSH1 0xE DUP2 SWAP1 SSTORE POP DUP1 PUSH1 0xF DUP2 SWAP1 SSTORE POP POP POP JUMP JUMPDEST PUSH0 PUSH20 0xFFFFFFFFFFFFFFFFFFFFFFFFFFFFFFFFFFFFFFFF AND DUP3 PUSH20 0xFFFFFFFFFFFFFFFFFFFFFFFFFFFFFFFFFFFFFFFF AND SUB PUSH2 0x8E1 JUMPI PUSH0 PUSH1 0x40 MLOAD PUSH32 0x64A0AE9200000000000000000000000000000000000000000000000000000000 DUP2 MSTORE PUSH1 0x4 ADD PUSH2 0x8D8 SWAP2 SWAP1 PUSH2 0x3A45 JUMP JUMPDEST PUSH1 0x40 MLOAD DUP1 SWAP2 SUB SWAP1 REVERT JUMPDEST PUSH0 PUSH2 0x8F4 DUP4 DUP4 PUSH2 0x8EF PUSH2 0x14CA JUMP JUMPDEST PUSH2 0x1692 JUMP JUMPDEST SWAP1 POP DUP4 PUSH20 0xFFFFFFFFFFFFFFFFFFFFFFFFFFFFFFFFFFFFFFFF AND DUP2 PUSH20 0xFFFFFFFFFFFFFFFFFFFFFFFFFFFFFFFFFFFFFFFF AND EQ PUSH2 0x96A JUMPI DUP4 DUP3 DUP3 PUSH1 0x40 MLOAD PUSH32 0x64283D7B00000000000000000000000000000000000000000000000000000000 DUP2 MSTORE PUSH1 0x4 ADD PUSH2 0x961 SWAP4 SWAP3 SWAP2 SWAP1 PUSH2 0x439B JUMP JUMPDEST PUSH1 0x40 MLOAD DUP1 SWAP2 SUB SWAP1 REVERT JUMPDEST POP POP POP POP JUMP JUMPDEST PUSH1 0xD SLOAD DUP2 JUMP JUMPDEST PUSH2 0x990 DUP4 DUP4 DUP4 PUSH1 0x40 MLOAD DUP1 PUSH1 0x20 ADD PUSH1 0x40 MSTORE DUP1 PUSH0 DUP2 MSTORE POP PUSH2 0xE86 JUMP JUMPDEST POP POP POP JUMP JUMPDEST PUSH1 0xE SLOAD PUSH1 0xD SLOAD TIMESTAMP PUSH2 0x9A6 SWAP2 SWAP1 PUSH2 0x43FD JUMP JUMPDEST GT ISZERO PUSH2 0xA5C JUMPI TIMESTAMP PUSH1 0xD DUP2 SWAP1 SSTORE POP PUSH2 0xA5A PUSH1 0xF SLOAD PUSH1 0x10 PUSH0 PUSH1 0xF SLOAD DUP2 MSTORE PUSH1 0x20 ADD SWAP1 DUP2 MSTORE PUSH1 0x20 ADD PUSH0 KECCAK256 PUSH0 ADD DUP1 SLOAD PUSH2 0x9D9 SWAP1 PUSH2 0x40EB JUMP JUMPDEST DUP1 PUSH1 0x1F ADD PUSH1 0x20 DUP1 SWAP2 DIV MUL PUSH1 0x20 ADD PUSH1 0x40 MLOAD SWAP1 DUP2 ADD PUSH1 0x40 MSTORE DUP1 SWAP3 SWAP2 SWAP1 DUP2 DUP2 MSTORE PUSH1 0x20 ADD DUP3 DUP1 SLOAD PUSH2 0xA05 SWAP1 PUSH2 0x40EB JUMP JUMPDEST DUP1 ISZERO PUSH2 0xA50 JUMPI DUP1 PUSH1 0x1F LT PUSH2 0xA27 JUMPI PUSH2 0x100 DUP1 DUP4 SLOAD DIV MUL DUP4 MSTORE SWAP2 PUSH1 0x20 ADD SWAP2 PUSH2 0xA50 JUMP JUMPDEST DUP3 ADD SWAP2 SWAP1 PUSH0 MSTORE PUSH1 0x20 PUSH0 KECCAK256 SWAP1 JUMPDEST DUP2 SLOAD DUP2 MSTORE SWAP1 PUSH1 0x1 ADD SWAP1 PUSH1 0x20 ADD DUP1 DUP4 GT PUSH2 0xA33 JUMPI DUP3 SWAP1 SUB PUSH1 0x1F AND DUP3 ADD SWAP2 JUMPDEST POP POP POP POP POP PUSH2 0x189D JUMP JUMPDEST POP JUMPDEST POP POP JUMP JUMPDEST PUSH0 PUSH2 0xA6A DUP3 PUSH2 0x140B JUMP JUMPDEST SWAP1 POP SWAP2 SWAP1 POP JUMP JUMPDEST PUSH1 0x11 PUSH1 0x20 MSTORE DUP1 PUSH0 MSTORE PUSH1 0x40 PUSH0 KECCAK256 PUSH0 SWAP2 POP SWAP1 POP SLOAD DUP2 JUMP JUMPDEST PUSH0 PUSH1 0x60 PUSH1 0xE SLOAD PUSH1 0xD SLOAD TIMESTAMP PUSH2 0xA9A SWAP2 SWAP1 PUSH2 0x43FD JUMP JUMPDEST GT DUP1 ISZERO PUSH2 0xAAA JUMPI POP PUSH1 0x8 SLOAD PUSH1 0xF SLOAD LT JUMPDEST SWAP2 POP PUSH1 0x40 MLOAD DUP1 PUSH1 0x20 ADD PUSH1 0x40 MSTORE DUP1 PUSH0 DUP2 MSTORE POP SWAP1 POP SWAP3 POP SWAP3 SWAP1 POP JUMP JUMPDEST PUSH0 PUSH0 PUSH20 0xFFFFFFFFFFFFFFFFFFFFFFFFFFFFFFFFFFFFFFFF AND DUP3 PUSH20 0xFFFFFFFFFFFFFFFFFFFFFFFFFFFFFFFFFFFFFFFF AND SUB PUSH2 0xB35 JUMPI PUSH0 PUSH1 0x40 MLOAD PUSH32 0x89C62B6400000000000000000000000000000000000000000000000000000000 DUP2 MSTORE PUSH1 0x4 ADD PUSH2 0xB2C SWAP2 SWAP1 PUSH2 0x3A45 JUMP JUMPDEST PUSH1 0x40 MLOAD DUP1 SWAP2 SUB SWAP1 REVERT JUMPDEST PUSH1 0x3 PUSH0 DUP4 PUSH20 0xFFFFFFFFFFFFFFFFFFFFFFFFFFFFFFFFFFFFFFFF AND PUSH20 0xFFFFFFFFFFFFFFFFFFFFFFFFFFFFFFFFFFFFFFFF AND DUP2 MSTORE PUSH1 0x20 ADD SWAP1 DUP2 MSTORE PUSH1 0x20 ADD PUSH0 KECCAK256 SLOAD SWAP1 POP SWAP2 SWAP1 POP JUMP JUMPDEST PUSH2 0xB82 PUSH2 0x12A3 JUMP JUMPDEST PUSH2 0xB8B PUSH0 PUSH2 0x1A13 JUMP JUMPDEST JUMP JUMPDEST PUSH0 PUSH1 0x7 PUSH0 SWAP1 SLOAD SWAP1 PUSH2 0x100 EXP SWAP1 DIV PUSH20 0xFFFFFFFFFFFFFFFFFFFFFFFFFFFFFFFFFFFFFFFF AND SWAP1 POP SWAP1 JUMP JUMPDEST PUSH1 0xE SLOAD DUP2 JUMP JUMPDEST PUSH1 0xF SLOAD DUP2 JUMP JUMPDEST PUSH1 0x60 PUSH1 0x1 DUP1 SLOAD PUSH2 0xBD0 SWAP1 PUSH2 0x40EB JUMP JUMPDEST DUP1 PUSH1 0x1F ADD PUSH1 0x20 DUP1 SWAP2 DIV MUL PUSH1 0x20 ADD PUSH1 0x40 MLOAD SWAP1 DUP2 ADD PUSH1 0x40 MSTORE DUP1 SWAP3 SWAP2 SWAP1 DUP2 DUP2 MSTORE PUSH1 0x20 ADD DUP3 DUP1 SLOAD PUSH2 0xBFC SWAP1 PUSH2 0x40EB JUMP JUMPDEST DUP1 ISZERO PUSH2 0xC47 JUMPI DUP1 PUSH1 0x1F LT PUSH2 0xC1E JUMPI PUSH2 0x100 DUP1 DUP4 SLOAD DIV MUL DUP4 MSTORE SWAP2 PUSH1 0x20 ADD SWAP2 PUSH2 0xC47 JUMP JUMPDEST DUP3 ADD SWAP2 SWAP1 PUSH0 MSTORE PUSH1 0x20 PUSH0 KECCAK256 SWAP1 JUMPDEST DUP2 SLOAD DUP2 MSTORE SWAP1 PUSH1 0x1 ADD SWAP1 PUSH1 0x20 ADD DUP1 DUP4 GT PUSH2 0xC2A JUMPI DUP3 SWAP1 SUB PUSH1 0x1F AND DUP3 ADD SWAP2 JUMPDEST POP POP POP POP POP SWAP1 POP SWAP1 JUMP JUMPDEST PUSH2 0xC63 PUSH2 0xC5C PUSH2 0x14CA JUMP JUMPDEST DUP4 DUP4 PUSH2 0x1AD6 JUMP JUMPDEST POP POP JUMP JUMPDEST PUSH1 0x10 PUSH1 0x20 MSTORE DUP1 PUSH0 MSTORE PUSH1 0x40 PUSH0 KECCAK256 PUSH0 SWAP2 POP SWAP1 POP DUP1 PUSH0 ADD DUP1 SLOAD PUSH2 0xC86 SWAP1 PUSH2 0x40EB JUMP JUMPDEST DUP1 PUSH1 0x1F ADD PUSH1 0x20 DUP1 SWAP2 DIV MUL PUSH1 0x20 ADD PUSH1 0x40 MLOAD SWAP1 DUP2 ADD PUSH1 0x40 MSTORE DUP1 SWAP3 SWAP2 SWAP1 DUP2 DUP2 MSTORE PUSH1 0x20 ADD DUP3 DUP1 SLOAD PUSH2 0xCB2 SWAP1 PUSH2 0x40EB JUMP JUMPDEST DUP1 ISZERO PUSH2 0xCFD JUMPI DUP1 PUSH1 0x1F LT PUSH2 0xCD4 JUMPI PUSH2 0x100 DUP1 DUP4 SLOAD DIV MUL DUP4 MSTORE SWAP2 PUSH1 0x20 ADD SWAP2 PUSH2 0xCFD JUMP JUMPDEST DUP3 ADD SWAP2 SWAP1 PUSH0 MSTORE PUSH1 0x20 PUSH0 KECCAK256 SWAP1 JUMPDEST DUP2 SLOAD DUP2 MSTORE SWAP1 PUSH1 0x1 ADD SWAP1 PUSH1 0x20 ADD DUP1 DUP4 GT PUSH2 0xCE0 JUMPI DUP3 SWAP1 SUB PUSH1 0x1F AND DUP3 ADD SWAP2 JUMPDEST POP POP POP POP POP SWAP1 DUP1 PUSH1 0x1 ADD DUP1 SLOAD PUSH2 0xD12 SWAP1 PUSH2 0x40EB JUMP JUMPDEST DUP1 PUSH1 0x1F ADD PUSH1 0x20 DUP1 SWAP2 DIV MUL PUSH1 0x20 ADD PUSH1 0x40 MLOAD SWAP1 DUP2 ADD PUSH1 0x40 MSTORE DUP1 SWAP3 SWAP2 SWAP1 DUP2 DUP2 MSTORE PUSH1 0x20 ADD DUP3 DUP1 SLOAD PUSH2 0xD3E SWAP1 PUSH2 0x40EB JUMP JUMPDEST DUP1 ISZERO PUSH2 0xD89 JUMPI DUP1 PUSH1 0x1F LT PUSH2 0xD60 JUMPI PUSH2 0x100 DUP1 DUP4 SLOAD DIV MUL DUP4 MSTORE SWAP2 PUSH1 0x20 ADD SWAP2 PUSH2 0xD89 JUMP JUMPDEST DUP3 ADD SWAP2 SWAP1 PUSH0 MSTORE PUSH1 0x20 PUSH0 KECCAK256 SWAP1 JUMPDEST DUP2 SLOAD DUP2 MSTORE SWAP1 PUSH1 0x1 ADD SWAP1 PUSH1 0x20 ADD DUP1 DUP4 GT PUSH2 0xD6C JUMPI DUP3 SWAP1 SUB PUSH1 0x1F AND DUP3 ADD SWAP2 JUMPDEST POP POP POP POP POP SWAP1 DUP1 PUSH1 0x2 ADD PUSH0 SWAP1 SLOAD SWAP1 PUSH2 0x100 EXP SWAP1 DIV PUSH8 0xFFFFFFFFFFFFFFFF AND SWAP1 DUP1 PUSH1 0x2 ADD PUSH1 0x8 SWAP1 SLOAD SWAP1 PUSH2 0x100 EXP SWAP1 DIV PUSH8 0xFFFFFFFFFFFFFFFF AND SWAP1 DUP1 PUSH1 0x2 ADD PUSH1 0x10 SWAP1 SLOAD SWAP1 PUSH2 0x100 EXP SWAP1 DIV PUSH8 0xFFFFFFFFFFFFFFFF AND SWAP1 DUP1 PUSH1 0x2 ADD PUSH1 0x18 SWAP1 SLOAD SWAP1 PUSH2 0x100 EXP SWAP1 DIV PUSH8 0xFFFFFFFFFFFFFFFF AND SWAP1 DUP1 PUSH1 0x3 ADD DUP1 SLOAD PUSH2 0xE05 SWAP1 PUSH2 0x40EB JUMP JUMPDEST DUP1 PUSH1 0x1F ADD PUSH1 0x20 DUP1 SWAP2 DIV MUL PUSH1 0x20 ADD PUSH1 0x40 MLOAD SWAP1 DUP2 ADD PUSH1 0x40 MSTORE DUP1 SWAP3 SWAP2 SWAP1 DUP2 DUP2 MSTORE PUSH1 0x20 ADD DUP3 DUP1 SLOAD PUSH2 0xE31 SWAP1 PUSH2 0x40EB JUMP JUMPDEST DUP1 ISZERO PUSH2 0xE7C JUMPI DUP1 PUSH1 0x1F LT PUSH2 0xE53 JUMPI PUSH2 0x100 DUP1 DUP4 SLOAD DIV MUL DUP4 MSTORE SWAP2 PUSH1 0x20 ADD SWAP2 PUSH2 0xE7C JUMP JUMPDEST DUP3 ADD SWAP2 SWAP1 PUSH0 MSTORE PUSH1 0x20 PUSH0 KECCAK256 SWAP1 JUMPDEST DUP2 SLOAD DUP2 MSTORE SWAP1 PUSH1 0x1 ADD SWAP1 PUSH1 0x20 ADD DUP1 DUP4 GT PUSH2 0xE5F JUMPI DUP3 SWAP1 SUB PUSH1 0x1F AND DUP3 ADD SWAP2 JUMPDEST POP POP POP POP POP SWAP1 POP DUP8 JUMP JUMPDEST PUSH2 0xE91 DUP5 DUP5 DUP5 PUSH2 0x871 JUMP JUMPDEST PUSH2 0xEA5 PUSH2 0xE9C PUSH2 0x14CA JUMP JUMPDEST DUP6 DUP6 DUP6 DUP6 PUSH2 0x1CAF JUMP JUMPDEST POP POP POP POP JUMP JUMPDEST PUSH1 0x60 PUSH0 PUSH1 0x10 PUSH0 DUP5 DUP2 MSTORE PUSH1 0x20 ADD SWAP1 DUP2 MSTORE PUSH1 0x20 ADD PUSH0 KECCAK256 PUSH1 0x3 ADD DUP1 SLOAD PUSH2 0xECD SWAP1 PUSH2 0x40EB JUMP JUMPDEST DUP1 PUSH1 0x1F ADD PUSH1 0x20 DUP1 SWAP2 DIV MUL PUSH1 0x20 ADD PUSH1 0x40 MLOAD SWAP1 DUP2 ADD PUSH1 0x40 MSTORE DUP1 SWAP3 SWAP2 SWAP1 DUP2 DUP2 MSTORE PUSH1 0x20 ADD DUP3 DUP1 SLOAD PUSH2 0xEF9 SWAP1 PUSH2 0x40EB JUMP JUMPDEST DUP1 ISZERO PUSH2 0xF44 JUMPI DUP1 PUSH1 0x1F LT PUSH2 0xF1B JUMPI PUSH2 0x100 DUP1 DUP4 SLOAD DIV MUL DUP4 MSTORE SWAP2 PUSH1 0x20 ADD SWAP2 PUSH2 0xF44 JUMP JUMPDEST DUP3 ADD SWAP2 SWAP1 PUSH0 MSTORE PUSH1 0x20 PUSH0 KECCAK256 SWAP1 JUMPDEST DUP2 SLOAD DUP2 MSTORE SWAP1 PUSH1 0x1 ADD SWAP1 PUSH1 0x20 ADD DUP1 DUP4 GT PUSH2 0xF27 JUMPI DUP3 SWAP1 SUB PUSH1 0x1F AND DUP3 ADD SWAP2 JUMPDEST POP POP POP POP POP SWAP1 POP PUSH0 PUSH2 0xF55 DUP3 PUSH2 0x1E5B JUMP JUMPDEST SWAP1 POP PUSH0 PUSH2 0xF8A PUSH2 0xF64 DUP7 PUSH2 0x1E6E JUMP JUMPDEST DUP4 PUSH1 0x40 MLOAD PUSH1 0x20 ADD PUSH2 0xF76 SWAP3 SWAP2 SWAP1 PUSH2 0x4608 JUMP JUMPDEST PUSH1 0x40 MLOAD PUSH1 0x20 DUP2 DUP4 SUB SUB DUP2 MSTORE SWAP1 PUSH1 0x40 MSTORE PUSH2 0x1E5B JUMP JUMPDEST SWAP1 POP DUP1 PUSH1 0x40 MLOAD PUSH1 0x20 ADD PUSH2 0xF9D SWAP2 SWAP1 PUSH2 0x4694 JUMP JUMPDEST PUSH1 0x40 MLOAD PUSH1 0x20 DUP2 DUP4 SUB SUB DUP2 MSTORE SWAP1 PUSH1 0x40 MSTORE SWAP4 POP POP POP POP SWAP2 SWAP1 POP JUMP JUMPDEST PUSH0 PUSH1 0x5 PUSH0 DUP5 PUSH20 0xFFFFFFFFFFFFFFFFFFFFFFFFFFFFFFFFFFFFFFFF AND PUSH20 0xFFFFFFFFFFFFFFFFFFFFFFFFFFFFFFFFFFFFFFFF AND DUP2 MSTORE PUSH1 0x20 ADD SWAP1 DUP2 MSTORE PUSH1 0x20 ADD PUSH0 KECCAK256 PUSH0 DUP4 PUSH20 0xFFFFFFFFFFFFFFFFFFFFFFFFFFFFFFFFFFFFFFFF AND PUSH20 0xFFFFFFFFFFFFFFFFFFFFFFFFFFFFFFFFFFFFFFFF AND DUP2 MSTORE PUSH1 0x20 ADD SWAP1 DUP2 MSTORE PUSH1 0x20 ADD PUSH0 KECCAK256 PUSH0 SWAP1 SLOAD SWAP1 PUSH2 0x100 EXP SWAP1 DIV PUSH1 0xFF AND SWAP1 POP SWAP3 SWAP2 POP POP JUMP JUMPDEST PUSH2 0x104C PUSH2 0x12A3 JUMP JUMPDEST PUSH0 PUSH1 0x8 SLOAD SWAP1 POP PUSH1 0x40 MLOAD DUP1 PUSH1 0xE0 ADD PUSH1 0x40 MSTORE DUP1 DUP5 DUP2 MSTORE PUSH1 0x20 ADD DUP4 DUP2 MSTORE PUSH1 0x20 ADD PUSH0 PUSH8 0xFFFFFFFFFFFFFFFF AND DUP2 MSTORE PUSH1 0x20 ADD PUSH0 PUSH8 0xFFFFFFFFFFFFFFFF AND DUP2 MSTORE PUSH1 0x20 ADD PUSH0 PUSH8 0xFFFFFFFFFFFFFFFF AND DUP2 MSTORE PUSH1 0x20 ADD PUSH0 PUSH8 0xFFFFFFFFFFFFFFFF AND DUP2 MSTORE PUSH1 0x20 ADD PUSH1 0x40 MLOAD DUP1 PUSH1 0x20 ADD PUSH1 0x40 MSTORE DUP1 PUSH0 DUP2 MSTORE POP DUP2 MSTORE POP PUSH1 0x10 PUSH0 DUP4 DUP2 MSTORE PUSH1 0x20 ADD SWAP1 DUP2 MSTORE PUSH1 0x20 ADD PUSH0 KECCAK256 PUSH0 DUP3 ADD MLOAD DUP2 PUSH0 ADD SWAP1 DUP2 PUSH2 0x10DF SWAP2 SWAP1 PUSH2 0x42CC JUMP JUMPDEST POP PUSH1 0x20 DUP3 ADD MLOAD DUP2 PUSH1 0x1 ADD SWAP1 DUP2 PUSH2 0x10F5 SWAP2 SWAP1 PUSH2 0x42CC JUMP JUMPDEST POP PUSH1 0x40 DUP3 ADD MLOAD DUP2 PUSH1 0x2 ADD PUSH0 PUSH2 0x100 EXP DUP2 SLOAD DUP2 PUSH8 0xFFFFFFFFFFFFFFFF MUL NOT AND SWAP1 DUP4 PUSH8 0xFFFFFFFFFFFFFFFF AND MUL OR SWAP1 SSTORE POP PUSH1 0x60 DUP3 ADD MLOAD DUP2 PUSH1 0x2 ADD PUSH1 0x8 PUSH2 0x100 EXP DUP2 SLOAD DUP2 PUSH8 0xFFFFFFFFFFFFFFFF MUL NOT AND SWAP1 DUP4 PUSH8 0xFFFFFFFFFFFFFFFF AND MUL OR SWAP1 SSTORE POP PUSH1 0x80 DUP3 ADD MLOAD DUP2 PUSH1 0x2 ADD PUSH1 0x10 PUSH2 0x100 EXP DUP2 SLOAD DUP2 PUSH8 0xFFFFFFFFFFFFFFFF MUL NOT AND SWAP1 DUP4 PUSH8 0xFFFFFFFFFFFFFFFF AND MUL OR SWAP1 SSTORE POP PUSH1 0xA0 DUP3 ADD MLOAD DUP2 PUSH1 0x2 ADD PUSH1 0x18 PUSH2 0x100 EXP DUP2 SLOAD DUP2 PUSH8 0xFFFFFFFFFFFFFFFF MUL NOT AND SWAP1 DUP4 PUSH8 0xFFFFFFFFFFFFFFFF AND MUL OR SWAP1 SSTORE POP PUSH1 0xC0 DUP3 ADD MLOAD DUP2 PUSH1 0x3 ADD SWAP1 DUP2 PUSH2 0x11C6 SWAP2 SWAP1 PUSH2 0x42CC JUMP JUMPDEST POP SWAP1 POP POP PUSH2 0x11D7 DUP2 PUSH0 PUSH0 PUSH0 PUSH0 PUSH2 0x1F38 JUMP JUMPDEST PUSH1 0x10 PUSH0 DUP4 DUP2 MSTORE PUSH1 0x20 ADD SWAP1 DUP2 MSTORE PUSH1 0x20 ADD PUSH0 KECCAK256 PUSH1 0x3 ADD SWAP1 DUP2 PUSH2 0x11F7 SWAP2 SWAP1 PUSH2 0x42CC JUMP JUMPDEST POP PUSH2 0x1202 DUP5 DUP3 PUSH2 0x2307 JUMP JUMPDEST PUSH1 0x8 PUSH0 DUP2 SLOAD DUP1 SWAP3 SWAP2 SWAP1 PUSH2 0x1214 SWAP1 PUSH2 0x46B9 JUMP JUMPDEST SWAP2 SWAP1 POP SSTORE POP POP POP POP POP JUMP JUMPDEST PUSH2 0x1227 PUSH2 0x12A3 JUMP JUMPDEST PUSH0 PUSH20 0xFFFFFFFFFFFFFFFFFFFFFFFFFFFFFFFFFFFFFFFF AND DUP2 PUSH20 0xFFFFFFFFFFFFFFFFFFFFFFFFFFFFFFFFFFFFFFFF AND SUB PUSH2 0x1297 JUMPI PUSH0 PUSH1 0x40 MLOAD PUSH32 0x1E4FBDF700000000000000000000000000000000000000000000000000000000 DUP2 MSTORE PUSH1 0x4 ADD PUSH2 0x128E SWAP2 SWAP1 PUSH2 0x3A45 JUMP JUMPDEST PUSH1 0x40 MLOAD DUP1 SWAP2 SUB SWAP1 REVERT JUMPDEST PUSH2 0x12A0 DUP2 PUSH2 0x1A13 JUMP JUMPDEST POP JUMP JUMPDEST PUSH2 0x12AB PUSH2 0x14CA JUMP JUMPDEST PUSH20 0xFFFFFFFFFFFFFFFFFFFFFFFFFFFFFFFFFFFFFFFF AND PUSH2 0x12C9 PUSH2 0xB8D JUMP JUMPDEST PUSH20 0xFFFFFFFFFFFFFFFFFFFFFFFFFFFFFFFFFFFFFFFF AND EQ PUSH2 0x1328 JUMPI PUSH2 0x12EC PUSH2 0x14CA JUMP JUMPDEST PUSH1 0x40 MLOAD PUSH32 0x118CDAA700000000000000000000000000000000000000000000000000000000 DUP2 MSTORE PUSH1 0x4 ADD PUSH2 0x131F SWAP2 SWAP1 PUSH2 0x3A45 JUMP JUMPDEST PUSH1 0x40 MLOAD DUP1 SWAP2 SUB SWAP1 REVERT JUMPDEST JUMP JUMPDEST PUSH0 PUSH32 0x80AC58CD00000000000000000000000000000000000000000000000000000000 PUSH28 0xFFFFFFFFFFFFFFFFFFFFFFFFFFFFFFFFFFFFFFFFFFFFFFFFFFFFFFFF NOT AND DUP3 PUSH28 0xFFFFFFFFFFFFFFFFFFFFFFFFFFFFFFFFFFFFFFFFFFFFFFFFFFFFFFFF NOT AND EQ DUP1 PUSH2 0x13F4 JUMPI POP PUSH32 0x5B5E139F00000000000000000000000000000000000000000000000000000000 PUSH28 0xFFFFFFFFFFFFFFFFFFFFFFFFFFFFFFFFFFFFFFFFFFFFFFFFFFFFFFFF NOT AND DUP3 PUSH28 0xFFFFFFFFFFFFFFFFFFFFFFFFFFFFFFFFFFFFFFFFFFFFFFFFFFFFFFFF NOT AND EQ JUMPDEST DUP1 PUSH2 0x1404 JUMPI POP PUSH2 0x1403 DUP3 PUSH2 0x2324 JUMP JUMPDEST JUMPDEST SWAP1 POP SWAP2 SWAP1 POP JUMP JUMPDEST PUSH0 PUSH0 PUSH2 0x1416 DUP4 PUSH2 0x238D JUMP JUMPDEST SWAP1 POP PUSH0 PUSH20 0xFFFFFFFFFFFFFFFFFFFFFFFFFFFFFFFFFFFFFFFF AND DUP2 PUSH20 0xFFFFFFFFFFFFFFFFFFFFFFFFFFFFFFFFFFFFFFFF AND SUB PUSH2 0x1488 JUMPI DUP3 PUSH1 0x40 MLOAD PUSH32 0x7E27328900000000000000000000000000000000000000000000000000000000 DUP2 MSTORE PUSH1 0x4 ADD PUSH2 0x147F SWAP2 SWAP1 PUSH2 0x3CF7 JUMP JUMPDEST PUSH1 0x40 MLOAD DUP1 SWAP2 SUB SWAP1 REVERT JUMPDEST DUP1 SWAP2 POP POP SWAP2 SWAP1 POP JUMP JUMPDEST PUSH0 PUSH1 0x4 PUSH0 DUP4 DUP2 MSTORE PUSH1 0x20 ADD SWAP1 DUP2 MSTORE PUSH1 0x20 ADD PUSH0 KECCAK256 PUSH0 SWAP1 SLOAD SWAP1 PUSH2 0x100 EXP SWAP1 DIV PUSH20 0xFFFFFFFFFFFFFFFFFFFFFFFFFFFFFFFFFFFFFFFF AND SWAP1 POP SWAP2 SWAP1 POP JUMP JUMPDEST PUSH0 CALLER SWAP1 POP SWAP1 JUMP JUMPDEST PUSH2 0x14DE DUP4 DUP4 DUP4 PUSH1 0x1 PUSH2 0x23C6 JUMP JUMPDEST POP POP POP JUMP JUMPDEST PUSH0 DUP2 MLOAD EQ PUSH2 0x1526 JUMPI PUSH1 0x40 MLOAD PUSH32 0x8C379A000000000000000000000000000000000000000000000000000000000 DUP2 MSTORE PUSH1 0x4 ADD PUSH2 0x151D SWAP1 PUSH2 0x474A JUMP JUMPDEST PUSH1 0x40 MLOAD DUP1 SWAP2 SUB SWAP1 REVERT JUMPDEST PUSH0 PUSH1 0x11 PUSH0 DUP6 DUP2 MSTORE PUSH1 0x20 ADD SWAP1 DUP2 MSTORE PUSH1 0x20 ADD PUSH0 KECCAK256 SLOAD SWAP1 POP PUSH0 DUP4 DUP1 PUSH1 0x20 ADD SWAP1 MLOAD DUP2 ADD SWAP1 PUSH2 0x1550 SWAP2 SWAP1 PUSH2 0x477C JUMP JUMPDEST SWAP1 POP PUSH0 DUP2 SWAP1 POP PUSH0 PUSH1 0x40 DUP4 SWAP1 SHR SWAP1 POP PUSH0 PUSH1 0x80 DUP5 SWAP1 SHR SWAP1 POP PUSH0 PUSH1 0xC0 DUP6 SWAP1 SHR SWAP1 POP DUP4 PUSH1 0x10 PUSH0 DUP9 DUP2 MSTORE PUSH1 0x20 ADD SWAP1 DUP2 MSTORE PUSH1 0x20 ADD PUSH0 KECCAK256 PUSH1 0x2 ADD PUSH1 0x18 PUSH2 0x100 EXP DUP2 SLOAD DUP2 PUSH8 0xFFFFFFFFFFFFFFFF MUL NOT AND SWAP1 DUP4 PUSH8 0xFFFFFFFFFFFFFFFF AND MUL OR SWAP1 SSTORE POP DUP3 PUSH1 0x10 PUSH0 DUP9 DUP2 MSTORE PUSH1 0x20 ADD SWAP1 DUP2 MSTORE PUSH1 0x20 ADD PUSH0 KECCAK256 PUSH1 0x2 ADD PUSH1 0x10 PUSH2 0x100 EXP DUP2 SLOAD DUP2 PUSH8 0xFFFFFFFFFFFFFFFF MUL NOT AND SWAP1 DUP4 PUSH8 0xFFFFFFFFFFFFFFFF AND MUL OR SWAP1 SSTORE POP DUP2 PUSH1 0x10 PUSH0 DUP9 DUP2 MSTORE PUSH1 0x20 ADD SWAP1 DUP2 MSTORE PUSH1 0x20 ADD PUSH0 KECCAK256 PUSH1 0x2 ADD PUSH1 0x8 PUSH2 0x100 EXP DUP2 SLOAD DUP2 PUSH8 0xFFFFFFFFFFFFFFFF MUL NOT AND SWAP1 DUP4 PUSH8 0xFFFFFFFFFFFFFFFF AND MUL OR SWAP1 SSTORE POP DUP1 PUSH1 0x10 PUSH0 DUP9 DUP2 MSTORE PUSH1 0x20 ADD SWAP1 DUP2 MSTORE PUSH1 0x20 ADD PUSH0 KECCAK256 PUSH1 0x2 ADD PUSH0 PUSH2 0x100 EXP DUP2 SLOAD DUP2 PUSH8 0xFFFFFFFFFFFFFFFF MUL NOT AND SWAP1 DUP4 PUSH8 0xFFFFFFFFFFFFFFFF AND MUL OR SWAP1 SSTORE POP PUSH2 0x1666 DUP7 DUP3 DUP5 DUP7 DUP9 PUSH2 0x1F38 JUMP JUMPDEST PUSH1 0x10 PUSH0 DUP9 DUP2 MSTORE PUSH1 0x20 ADD SWAP1 DUP2 MSTORE PUSH1 0x20 ADD PUSH0 KECCAK256 PUSH1 0x3 ADD SWAP1 DUP2 PUSH2 0x1686 SWAP2 SWAP1 PUSH2 0x42CC JUMP JUMPDEST POP POP POP POP POP POP POP POP POP POP JUMP JUMPDEST PUSH0 PUSH0 PUSH2 0x169D DUP5 PUSH2 0x238D JUMP JUMPDEST SWAP1 POP PUSH0 PUSH20 0xFFFFFFFFFFFFFFFFFFFFFFFFFFFFFFFFFFFFFFFF AND DUP4 PUSH20 0xFFFFFFFFFFFFFFFFFFFFFFFFFFFFFFFFFFFFFFFF AND EQ PUSH2 0x16DE JUMPI PUSH2 0x16DD DUP2 DUP5 DUP7 PUSH2 0x2585 JUMP JUMPDEST JUMPDEST PUSH0 PUSH20 0xFFFFFFFFFFFFFFFFFFFFFFFFFFFFFFFFFFFFFFFF AND DUP2 PUSH20 0xFFFFFFFFFFFFFFFFFFFFFFFFFFFFFFFFFFFFFFFF AND EQ PUSH2 0x1769 JUMPI PUSH2 0x171D PUSH0 DUP6 PUSH0 PUSH0 PUSH2 0x23C6 JUMP JUMPDEST PUSH1 0x1 PUSH1 0x3 PUSH0 DUP4 PUSH20 0xFFFFFFFFFFFFFFFFFFFFFFFFFFFFFFFFFFFFFFFF AND PUSH20 0xFFFFFFFFFFFFFFFFFFFFFFFFFFFFFFFFFFFFFFFF AND DUP2 MSTORE PUSH1 0x20 ADD SWAP1 DUP2 MSTORE PUSH1 0x20 ADD PUSH0 KECCAK256 PUSH0 DUP3 DUP3 SLOAD SUB SWAP3 POP POP DUP2 SWAP1 SSTORE POP JUMPDEST PUSH0 PUSH20 0xFFFFFFFFFFFFFFFFFFFFFFFFFFFFFFFFFFFFFFFF AND DUP6 PUSH20 0xFFFFFFFFFFFFFFFFFFFFFFFFFFFFFFFFFFFFFFFF AND EQ PUSH2 0x17E8 JUMPI PUSH1 0x1 PUSH1 0x3 PUSH0 DUP8 PUSH20 0xFFFFFFFFFFFFFFFFFFFFFFFFFFFFFFFFFFFFFFFF AND PUSH20 0xFFFFFFFFFFFFFFFFFFFFFFFFFFFFFFFFFFFFFFFF AND DUP2 MSTORE PUSH1 0x20 ADD SWAP1 DUP2 MSTORE PUSH1 0x20 ADD PUSH0 KECCAK256 PUSH0 DUP3 DUP3 SLOAD ADD SWAP3 POP POP DUP2 SWAP1 SSTORE POP JUMPDEST DUP5 PUSH1 0x2 PUSH0 DUP7 DUP2 MSTORE PUSH1 0x20 ADD SWAP1 DUP2 MSTORE PUSH1 0x20 ADD PUSH0 KECCAK256 PUSH0 PUSH2 0x100 EXP DUP2 SLOAD DUP2 PUSH20 0xFFFFFFFFFFFFFFFFFFFFFFFFFFFFFFFFFFFFFFFF MUL NOT AND SWAP1 DUP4 PUSH20 0xFFFFFFFFFFFFFFFFFFFFFFFFFFFFFFFFFFFFFFFF AND MUL OR SWAP1 SSTORE POP DUP4 DUP6 PUSH20 0xFFFFFFFFFFFFFFFFFFFFFFFFFFFFFFFFFFFFFFFF AND DUP3 PUSH20 0xFFFFFFFFFFFFFFFFFFFFFFFFFFFFFFFFFFFFFFFF AND PUSH32 0xDDF252AD1BE2C89B69C2B068FC378DAA952BA7F163C4A11628F55A4DF523B3EF PUSH1 0x40 MLOAD PUSH1 0x40 MLOAD DUP1 SWAP2 SUB SWAP1 LOG4 DUP1 SWAP2 POP POP SWAP4 SWAP3 POP POP POP JUMP JUMPDEST PUSH0 PUSH2 0x18A6 PUSH2 0x363A JUMP JUMPDEST PUSH2 0x1941 PUSH1 0xC DUP1 SLOAD PUSH2 0x18B6 SWAP1 PUSH2 0x40EB JUMP JUMPDEST DUP1 PUSH1 0x1F ADD PUSH1 0x20 DUP1 SWAP2 DIV MUL PUSH1 0x20 ADD PUSH1 0x40 MLOAD SWAP1 DUP2 ADD PUSH1 0x40 MSTORE DUP1 SWAP3 SWAP2 SWAP1 DUP2 DUP2 MSTORE PUSH1 0x20 ADD DUP3 DUP1 SLOAD PUSH2 0x18E2 SWAP1 PUSH2 0x40EB JUMP JUMPDEST DUP1 ISZERO PUSH2 0x192D JUMPI DUP1 PUSH1 0x1F LT PUSH2 0x1904 JUMPI PUSH2 0x100 DUP1 DUP4 SLOAD DIV MUL DUP4 MSTORE SWAP2 PUSH1 0x20 ADD SWAP2 PUSH2 0x192D JUMP JUMPDEST DUP3 ADD SWAP2 SWAP1 PUSH0 MSTORE PUSH1 0x20 PUSH0 KECCAK256 SWAP1 JUMPDEST DUP2 SLOAD DUP2 MSTORE SWAP1 PUSH1 0x1 ADD SWAP1 PUSH1 0x20 ADD DUP1 DUP4 GT PUSH2 0x1910 JUMPI DUP3 SWAP1 SUB PUSH1 0x1F AND DUP3 ADD SWAP2 JUMPDEST POP POP POP POP POP DUP3 PUSH2 0x2648 SWAP1 SWAP2 SWAP1 PUSH4 0xFFFFFFFF AND JUMP JUMPDEST PUSH0 PUSH1 0x1 PUSH8 0xFFFFFFFFFFFFFFFF DUP2 GT ISZERO PUSH2 0x195D JUMPI PUSH2 0x195C PUSH2 0x370A JUMP JUMPDEST JUMPDEST PUSH1 0x40 MLOAD SWAP1 DUP1 DUP3 MSTORE DUP1 PUSH1 0x20 MUL PUSH1 0x20 ADD DUP3 ADD PUSH1 0x40 MSTORE DUP1 ISZERO PUSH2 0x1990 JUMPI DUP2 PUSH1 0x20 ADD JUMPDEST PUSH1 0x60 DUP2 MSTORE PUSH1 0x20 ADD SWAP1 PUSH1 0x1 SWAP1 SUB SWAP1 DUP2 PUSH2 0x197B JUMPI SWAP1 POP JUMPDEST POP SWAP1 POP DUP4 DUP2 PUSH0 DUP2 MLOAD DUP2 LT PUSH2 0x19A7 JUMPI PUSH2 0x19A6 PUSH2 0x47A7 JUMP JUMPDEST JUMPDEST PUSH1 0x20 MUL PUSH1 0x20 ADD ADD DUP2 SWAP1 MSTORE POP PUSH2 0x19C5 DUP2 DUP4 PUSH2 0x2658 SWAP1 SWAP2 SWAP1 PUSH4 0xFFFFFFFF AND JUMP JUMPDEST PUSH2 0x19F3 PUSH2 0x19D1 DUP4 PUSH2 0x269F JUMP JUMPDEST PUSH1 0xB PUSH0 SWAP1 SLOAD SWAP1 PUSH2 0x100 EXP SWAP1 DIV PUSH8 0xFFFFFFFFFFFFFFFF AND PUSH3 0x493E0 PUSH1 0xA SLOAD PUSH2 0x2AAA JUMP JUMPDEST SWAP3 POP DUP5 PUSH1 0x11 PUSH0 DUP6 DUP2 MSTORE PUSH1 0x20 ADD SWAP1 DUP2 MSTORE PUSH1 0x20 ADD PUSH0 KECCAK256 DUP2 SWAP1 SSTORE POP POP POP SWAP3 SWAP2 POP POP JUMP JUMPDEST PUSH0 PUSH1 0x7 PUSH0 SWAP1 SLOAD SWAP1 PUSH2 0x100 EXP SWAP1 DIV PUSH20 0xFFFFFFFFFFFFFFFFFFFFFFFFFFFFFFFFFFFFFFFF AND SWAP1 POP DUP2 PUSH1 0x7 PUSH0 PUSH2 0x100 EXP DUP2 SLOAD DUP2 PUSH20 0xFFFFFFFFFFFFFFFFFFFFFFFFFFFFFFFFFFFFFFFF MUL NOT AND SWAP1 DUP4 PUSH20 0xFFFFFFFFFFFFFFFFFFFFFFFFFFFFFFFFFFFFFFFF AND MUL OR SWAP1 SSTORE POP DUP2 PUSH20 0xFFFFFFFFFFFFFFFFFFFFFFFFFFFFFFFFFFFFFFFF AND DUP2 PUSH20 0xFFFFFFFFFFFFFFFFFFFFFFFFFFFFFFFFFFFFFFFF AND PUSH32 0x8BE0079C531659141344CD1FD0A4F28419497F9722A3DAAFE3B4186F6B6457E0 PUSH1 0x40 MLOAD PUSH1 0x40 MLOAD DUP1 SWAP2 SUB SWAP1 LOG3 POP POP JUMP JUMPDEST PUSH0 PUSH20 0xFFFFFFFFFFFFFFFFFFFFFFFFFFFFFFFFFFFFFFFF AND DUP4 PUSH20 0xFFFFFFFFFFFFFFFFFFFFFFFFFFFFFFFFFFFFFFFF AND SUB PUSH2 0x1B46 JUMPI PUSH0 PUSH1 0x40 MLOAD PUSH32 0xA9FBF51F00000000000000000000000000000000000000000000000000000000 DUP2 MSTORE PUSH1 0x4 ADD PUSH2 0x1B3D SWAP2 SWAP1 PUSH2 0x3A45 JUMP JUMPDEST PUSH1 0x40 MLOAD DUP1 SWAP2 SUB SWAP1 REVERT JUMPDEST PUSH0 PUSH20 0xFFFFFFFFFFFFFFFFFFFFFFFFFFFFFFFFFFFFFFFF AND DUP3 PUSH20 0xFFFFFFFFFFFFFFFFFFFFFFFFFFFFFFFFFFFFFFFF AND SUB PUSH2 0x1BB6 JUMPI DUP2 PUSH1 0x40 MLOAD PUSH32 0x5B08BA1800000000000000000000000000000000000000000000000000000000 DUP2 MSTORE PUSH1 0x4 ADD PUSH2 0x1BAD SWAP2 SWAP1 PUSH2 0x3A45 JUMP JUMPDEST PUSH1 0x40 MLOAD DUP1 SWAP2 SUB SWAP1 REVERT JUMPDEST DUP1 PUSH1 0x5 PUSH0 DUP6 PUSH20 0xFFFFFFFFFFFFFFFFFFFFFFFFFFFFFFFFFFFFFFFF AND PUSH20 0xFFFFFFFFFFFFFFFFFFFFFFFFFFFFFFFFFFFFFFFF AND DUP2 MSTORE PUSH1 0x20 ADD SWAP1 DUP2 MSTORE PUSH1 0x20 ADD PUSH0 KECCAK256 PUSH0 DUP5 PUSH20 0xFFFFFFFFFFFFFFFFFFFFFFFFFFFFFFFFFFFFFFFF AND PUSH20 0xFFFFFFFFFFFFFFFFFFFFFFFFFFFFFFFFFFFFFFFF AND DUP2 MSTORE PUSH1 0x20 ADD SWAP1 DUP2 MSTORE PUSH1 0x20 ADD PUSH0 KECCAK256 PUSH0 PUSH2 0x100 EXP DUP2 SLOAD DUP2 PUSH1 0xFF MUL NOT AND SWAP1 DUP4 ISZERO ISZERO MUL OR SWAP1 SSTORE POP DUP2 PUSH20 0xFFFFFFFFFFFFFFFFFFFFFFFFFFFFFFFFFFFFFFFF AND DUP4 PUSH20 0xFFFFFFFFFFFFFFFFFFFFFFFFFFFFFFFFFFFFFFFF AND PUSH32 0x17307EAB39AB6107E8899845AD3D59BD9653F200F220920489CA2B5937696C31 DUP4 PUSH1 0x40 MLOAD PUSH2 0x1CA2 SWAP2 SWAP1 PUSH2 0x390F JUMP JUMPDEST PUSH1 0x40 MLOAD DUP1 SWAP2 SUB SWAP1 LOG3 POP POP POP JUMP JUMPDEST PUSH0 DUP4 PUSH20 0xFFFFFFFFFFFFFFFFFFFFFFFFFFFFFFFFFFFFFFFF AND EXTCODESIZE GT ISZERO PUSH2 0x1E54 JUMPI DUP3 PUSH20 0xFFFFFFFFFFFFFFFFFFFFFFFFFFFFFFFFFFFFFFFF AND PUSH4 0x150B7A02 DUP7 DUP7 DUP6 DUP6 PUSH1 0x40 MLOAD DUP6 PUSH4 0xFFFFFFFF AND PUSH1 0xE0 SHL DUP2 MSTORE PUSH1 0x4 ADD PUSH2 0x1D0D SWAP5 SWAP4 SWAP3 SWAP2 SWAP1 PUSH2 0x47D4 JUMP JUMPDEST PUSH1 0x20 PUSH1 0x40 MLOAD DUP1 DUP4 SUB DUP2 PUSH0 DUP8 GAS CALL SWAP3 POP POP POP DUP1 ISZERO PUSH2 0x1D48 JUMPI POP PUSH1 0x40 MLOAD RETURNDATASIZE PUSH1 0x1F NOT PUSH1 0x1F DUP3 ADD AND DUP3 ADD DUP1 PUSH1 0x40 MSTORE POP DUP2 ADD SWAP1 PUSH2 0x1D45 SWAP2 SWAP1 PUSH2 0x4832 JUMP JUMPDEST PUSH1 0x1 JUMPDEST PUSH2 0x1DC9 JUMPI RETURNDATASIZE DUP1 PUSH0 DUP2 EQ PUSH2 0x1D76 JUMPI PUSH1 0x40 MLOAD SWAP2 POP PUSH1 0x1F NOT PUSH1 0x3F RETURNDATASIZE ADD AND DUP3 ADD PUSH1 0x40 MSTORE RETURNDATASIZE DUP3 MSTORE RETURNDATASIZE PUSH0 PUSH1 0x20 DUP5 ADD RETURNDATACOPY PUSH2 0x1D7B JUMP JUMPDEST PUSH1 0x60 SWAP2 POP JUMPDEST POP PUSH0 DUP2 MLOAD SUB PUSH2 0x1DC1 JUMPI DUP4 PUSH1 0x40 MLOAD PUSH32 0x64A0AE9200000000000000000000000000000000000000000000000000000000 DUP2 MSTORE PUSH1 0x4 ADD PUSH2 0x1DB8 SWAP2 SWAP1 PUSH2 0x3A45 JUMP JUMPDEST PUSH1 0x40 MLOAD DUP1 SWAP2 SUB SWAP1 REVERT JUMPDEST DUP1 MLOAD PUSH1 0x20 DUP3 ADD REVERT JUMPDEST PUSH4 0x150B7A02 PUSH1 0xE0 SHL PUSH28 0xFFFFFFFFFFFFFFFFFFFFFFFFFFFFFFFFFFFFFFFFFFFFFFFFFFFFFFFF NOT AND DUP2 PUSH28 0xFFFFFFFFFFFFFFFFFFFFFFFFFFFFFFFFFFFFFFFFFFFFFFFFFFFFFFFF NOT AND EQ PUSH2 0x1E52 JUMPI DUP4 PUSH1 0x40 MLOAD PUSH32 0x64A0AE9200000000000000000000000000000000000000000000000000000000 DUP2 MSTORE PUSH1 0x4 ADD PUSH2 0x1E49 SWAP2 SWAP1 PUSH2 0x3A45 JUMP JUMPDEST PUSH1 0x40 MLOAD DUP1 SWAP2 SUB SWAP1 REVERT JUMPDEST POP JUMPDEST POP POP POP POP POP JUMP JUMPDEST PUSH1 0x60 PUSH2 0x1E67 DUP3 PUSH0 PUSH2 0x2B89 JUMP JUMPDEST SWAP1 POP SWAP2 SWAP1 POP JUMP JUMPDEST PUSH1 0x60 PUSH0 PUSH1 0x1 PUSH2 0x1E7C DUP5 PUSH2 0x2D13 JUMP JUMPDEST ADD SWAP1 POP PUSH0 DUP2 PUSH8 0xFFFFFFFFFFFFFFFF DUP2 GT ISZERO PUSH2 0x1E9A JUMPI PUSH2 0x1E99 PUSH2 0x370A JUMP JUMPDEST JUMPDEST PUSH1 0x40 MLOAD SWAP1 DUP1 DUP3 MSTORE DUP1 PUSH1 0x1F ADD PUSH1 0x1F NOT AND PUSH1 0x20 ADD DUP3 ADD PUSH1 0x40 MSTORE DUP1 ISZERO PUSH2 0x1ECC JUMPI DUP2 PUSH1 0x20 ADD PUSH1 0x1 DUP3 MUL DUP1 CALLDATASIZE DUP4 CALLDATACOPY DUP1 DUP3 ADD SWAP2 POP POP SWAP1 POP JUMPDEST POP SWAP1 POP PUSH0 DUP3 PUSH1 0x20 DUP4 ADD ADD SWAP1 POP JUMPDEST PUSH1 0x1 ISZERO PUSH2 0x1F2D JUMPI DUP1 DUP1 PUSH1 0x1 SWAP1 SUB SWAP2 POP POP PUSH32 0x3031323334353637383961626364656600000000000000000000000000000000 PUSH1 0xA DUP7 MOD BYTE DUP2 MSTORE8 PUSH1 0xA DUP6 DUP2 PUSH2 0x1F22 JUMPI PUSH2 0x1F21 PUSH2 0x485D JUMP JUMPDEST JUMPDEST DIV SWAP5 POP PUSH0 DUP6 SUB PUSH2 0x1ED9 JUMPI JUMPDEST DUP2 SWAP4 POP POP POP POP SWAP2 SWAP1 POP JUMP JUMPDEST PUSH1 0x60 PUSH0 PUSH1 0x10 PUSH0 DUP9 DUP2 MSTORE PUSH1 0x20 ADD SWAP1 DUP2 MSTORE PUSH1 0x20 ADD PUSH0 KECCAK256 PUSH1 0x40 MLOAD DUP1 PUSH1 0xE0 ADD PUSH1 0x40 MSTORE SWAP1 DUP2 PUSH0 DUP3 ADD DUP1 SLOAD PUSH2 0x1F66 SWAP1 PUSH2 0x40EB JUMP JUMPDEST DUP1 PUSH1 0x1F ADD PUSH1 0x20 DUP1 SWAP2 DIV MUL PUSH1 0x20 ADD PUSH1 0x40 MLOAD SWAP1 DUP2 ADD PUSH1 0x40 MSTORE DUP1 SWAP3 SWAP2 SWAP1 DUP2 DUP2 MSTORE PUSH1 0x20 ADD DUP3 DUP1 SLOAD PUSH2 0x1F92 SWAP1 PUSH2 0x40EB JUMP JUMPDEST DUP1 ISZERO PUSH2 0x1FDD JUMPI DUP1 PUSH1 0x1F LT PUSH2 0x1FB4 JUMPI PUSH2 0x100 DUP1 DUP4 SLOAD DIV MUL DUP4 MSTORE SWAP2 PUSH1 0x20 ADD SWAP2 PUSH2 0x1FDD JUMP JUMPDEST DUP3 ADD SWAP2 SWAP1 PUSH0 MSTORE PUSH1 0x20 PUSH0 KECCAK256 SWAP1 JUMPDEST DUP2 SLOAD DUP2 MSTORE SWAP1 PUSH1 0x1 ADD SWAP1 PUSH1 0x20 ADD DUP1 DUP4 GT PUSH2 0x1FC0 JUMPI DUP3 SWAP1 SUB PUSH1 0x1F AND DUP3 ADD SWAP2 JUMPDEST POP POP POP POP POP DUP2 MSTORE PUSH1 0x20 ADD PUSH1 0x1 DUP3 ADD DUP1 SLOAD PUSH2 0x1FF6 SWAP1 PUSH2 0x40EB JUMP JUMPDEST DUP1 PUSH1 0x1F ADD PUSH1 0x20 DUP1 SWAP2 DIV MUL PUSH1 0x20 ADD PUSH1 0x40 MLOAD SWAP1 DUP2 ADD PUSH1 0x40 MSTORE DUP1 SWAP3 SWAP2 SWAP1 DUP2 DUP2 MSTORE PUSH1 0x20 ADD DUP3 DUP1 SLOAD PUSH2 0x2022 SWAP1 PUSH2 0x40EB JUMP JUMPDEST DUP1 ISZERO PUSH2 0x206D JUMPI DUP1 PUSH1 0x1F LT PUSH2 0x2044 JUMPI PUSH2 0x100 DUP1 DUP4 SLOAD DIV MUL DUP4 MSTORE SWAP2 PUSH1 0x20 ADD SWAP2 PUSH2 0x206D JUMP JUMPDEST DUP3 ADD SWAP2 SWAP1 PUSH0 MSTORE PUSH1 0x20 PUSH0 KECCAK256 SWAP1 JUMPDEST DUP2 SLOAD DUP2 MSTORE SWAP1 PUSH1 0x1 ADD SWAP1 PUSH1 0x20 ADD DUP1 DUP4 GT PUSH2 0x2050 JUMPI DUP3 SWAP1 SUB PUSH1 0x1F AND DUP3 ADD SWAP2 JUMPDEST POP POP POP POP POP DUP2 MSTORE PUSH1 0x20 ADD PUSH1 0x2 DUP3 ADD PUSH0 SWAP1 SLOAD SWAP1 PUSH2 0x100 EXP SWAP1 DIV PUSH8 0xFFFFFFFFFFFFFFFF AND PUSH8 0xFFFFFFFFFFFFFFFF AND PUSH8 0xFFFFFFFFFFFFFFFF AND DUP2 MSTORE PUSH1 0x20 ADD PUSH1 0x2 DUP3 ADD PUSH1 0x8 SWAP1 SLOAD SWAP1 PUSH2 0x100 EXP SWAP1 DIV PUSH8 0xFFFFFFFFFFFFFFFF AND PUSH8 0xFFFFFFFFFFFFFFFF AND PUSH8 0xFFFFFFFFFFFFFFFF AND DUP2 MSTORE PUSH1 0x20 ADD PUSH1 0x2 DUP3 ADD PUSH1 0x10 SWAP1 SLOAD SWAP1 PUSH2 0x100 EXP SWAP1 DIV PUSH8 0xFFFFFFFFFFFFFFFF AND PUSH8 0xFFFFFFFFFFFFFFFF AND PUSH8 0xFFFFFFFFFFFFFFFF AND DUP2 MSTORE PUSH1 0x20 ADD PUSH1 0x2 DUP3 ADD PUSH1 0x18 SWAP1 SLOAD SWAP1 PUSH2 0x100 EXP SWAP1 DIV PUSH8 0xFFFFFFFFFFFFFFFF AND PUSH8 0xFFFFFFFFFFFFFFFF AND PUSH8 0xFFFFFFFFFFFFFFFF AND DUP2 MSTORE PUSH1 0x20 ADD PUSH1 0x3 DUP3 ADD DUP1 SLOAD PUSH2 0x214D SWAP1 PUSH2 0x40EB JUMP JUMPDEST DUP1 PUSH1 0x1F ADD PUSH1 0x20 DUP1 SWAP2 DIV MUL PUSH1 0x20 ADD PUSH1 0x40 MLOAD SWAP1 DUP2 ADD PUSH1 0x40 MSTORE DUP1 SWAP3 SWAP2 SWAP1 DUP2 DUP2 MSTORE PUSH1 0x20 ADD DUP3 DUP1 SLOAD PUSH2 0x2179 SWAP1 PUSH2 0x40EB JUMP JUMPDEST DUP1 ISZERO PUSH2 0x21C4 JUMPI DUP1 PUSH1 0x1F LT PUSH2 0x219B JUMPI PUSH2 0x100 DUP1 DUP4 SLOAD DIV MUL DUP4 MSTORE SWAP2 PUSH1 0x20 ADD SWAP2 PUSH2 0x21C4 JUMP JUMPDEST DUP3 ADD SWAP2 SWAP1 PUSH0 MSTORE PUSH1 0x20 PUSH0 KECCAK256 SWAP1 JUMPDEST DUP2 SLOAD DUP2 MSTORE SWAP1 PUSH1 0x1 ADD SWAP1 PUSH1 0x20 ADD DUP1 DUP4 GT PUSH2 0x21A7 JUMPI DUP3 SWAP1 SUB PUSH1 0x1F AND DUP3 ADD SWAP2 JUMPDEST POP POP POP POP POP DUP2 MSTORE POP POP SWAP1 POP PUSH0 PUSH0 DUP6 PUSH8 0xFFFFFFFFFFFFFFFF AND EQ PUSH2 0x21E7 JUMPI DUP5 PUSH2 0x21EA JUMP JUMPDEST PUSH1 0x1 JUMPDEST SWAP1 POP PUSH0 DUP2 PUSH8 0xFFFFFFFFFFFFFFFF AND PUSH1 0x64 DUP7 PUSH8 0xFFFFFFFFFFFFFFFF AND DUP10 PUSH8 0xFFFFFFFFFFFFFFFF AND PUSH2 0x221A SWAP2 SWAP1 PUSH2 0x488A JUMP JUMPDEST PUSH2 0x2224 SWAP2 SWAP1 PUSH2 0x48BD JUMP JUMPDEST PUSH2 0x222E SWAP2 SWAP1 PUSH2 0x48FE JUMP JUMPDEST SWAP1 POP PUSH0 PUSH2 0x2246 PUSH1 0x64 DUP4 PUSH2 0x2241 SWAP2 SWAP1 PUSH2 0x48FE JUMP JUMPDEST PUSH2 0x1E6E JUMP JUMPDEST PUSH2 0x225B PUSH1 0x64 DUP5 PUSH2 0x2256 SWAP2 SWAP1 PUSH2 0x492E JUMP JUMPDEST PUSH2 0x1E6E JUMP JUMPDEST PUSH1 0x40 MLOAD PUSH1 0x20 ADD PUSH2 0x226C SWAP3 SWAP2 SWAP1 PUSH2 0x4984 JUMP JUMPDEST PUSH1 0x40 MLOAD PUSH1 0x20 DUP2 DUP4 SUB SUB DUP2 MSTORE SWAP1 PUSH1 0x40 MSTORE SWAP1 POP DUP4 PUSH0 ADD MLOAD DUP5 PUSH1 0x20 ADD MLOAD PUSH2 0x2299 DUP12 PUSH8 0xFFFFFFFFFFFFFFFF AND PUSH2 0x1E6E JUMP JUMPDEST PUSH2 0x22AC DUP12 PUSH8 0xFFFFFFFFFFFFFFFF AND PUSH2 0x1E6E JUMP JUMPDEST PUSH2 0x22BF DUP12 PUSH8 0xFFFFFFFFFFFFFFFF AND PUSH2 0x1E6E JUMP JUMPDEST PUSH2 0x22D2 DUP12 PUSH8 0xFFFFFFFFFFFFFFFF AND PUSH2 0x1E6E JUMP JUMPDEST DUP7 PUSH1 0x40 MLOAD PUSH1 0x20 ADD PUSH2 0x22E9 SWAP8 SWAP7 SWAP6 SWAP5 SWAP4 SWAP3 SWAP2 SWAP1 PUSH2 0x5EF4 JUMP JUMPDEST PUSH1 0x40 MLOAD PUSH1 0x20 DUP2 DUP4 SUB SUB DUP2 MSTORE SWAP1 PUSH1 0x40 MSTORE SWAP5 POP POP POP POP POP SWAP6 SWAP5 POP POP POP POP POP JUMP JUMPDEST PUSH2 0x2320 DUP3 DUP3 PUSH1 0x40 MLOAD DUP1 PUSH1 0x20 ADD PUSH1 0x40 MSTORE DUP1 PUSH0 DUP2 MSTORE POP PUSH2 0x2E64 JUMP JUMPDEST POP POP JUMP JUMPDEST PUSH0 PUSH32 0x1FFC9A700000000000000000000000000000000000000000000000000000000 PUSH28 0xFFFFFFFFFFFFFFFFFFFFFFFFFFFFFFFFFFFFFFFFFFFFFFFFFFFFFFFF NOT AND DUP3 PUSH28 0xFFFFFFFFFFFFFFFFFFFFFFFFFFFFFFFFFFFFFFFFFFFFFFFFFFFFFFFF NOT AND EQ SWAP1 POP SWAP2 SWAP1 POP JUMP JUMPDEST PUSH0 PUSH1 0x2 PUSH0 DUP4 DUP2 MSTORE PUSH1 0x20 ADD SWAP1 DUP2 MSTORE PUSH1 0x20 ADD PUSH0 KECCAK256 PUSH0 SWAP1 SLOAD SWAP1 PUSH2 0x100 EXP SWAP1 DIV PUSH20 0xFFFFFFFFFFFFFFFFFFFFFFFFFFFFFFFFFFFFFFFF AND SWAP1 POP SWAP2 SWAP1 POP JUMP JUMPDEST DUP1 DUP1 PUSH2 0x23FE JUMPI POP PUSH0 PUSH20 0xFFFFFFFFFFFFFFFFFFFFFFFFFFFFFFFFFFFFFFFF AND DUP3 PUSH20 0xFFFFFFFFFFFFFFFFFFFFFFFFFFFFFFFFFFFFFFFF AND EQ ISZERO JUMPDEST ISZERO PUSH2 0x2530 JUMPI PUSH0 PUSH2 0x240D DUP5 PUSH2 0x140B JUMP JUMPDEST SWAP1 POP PUSH0 PUSH20 0xFFFFFFFFFFFFFFFFFFFFFFFFFFFFFFFFFFFFFFFF AND DUP4 PUSH20 0xFFFFFFFFFFFFFFFFFFFFFFFFFFFFFFFFFFFFFFFF AND EQ ISZERO DUP1 ISZERO PUSH2 0x2477 JUMPI POP DUP3 PUSH20 0xFFFFFFFFFFFFFFFFFFFFFFFFFFFFFFFFFFFFFFFF AND DUP2 PUSH20 0xFFFFFFFFFFFFFFFFFFFFFFFFFFFFFFFFFFFFFFFF AND EQ ISZERO JUMPDEST DUP1 ISZERO PUSH2 0x248A JUMPI POP PUSH2 0x2488 DUP2 DUP5 PUSH2 0xFB6 JUMP JUMPDEST ISZERO JUMPDEST ISZERO PUSH2 0x24CC JUMPI DUP3 PUSH1 0x40 MLOAD PUSH32 0xA9FBF51F00000000000000000000000000000000000000000000000000000000 DUP2 MSTORE PUSH1 0x4 ADD PUSH2 0x24C3 SWAP2 SWAP1 PUSH2 0x3A45 JUMP JUMPDEST PUSH1 0x40 MLOAD DUP1 SWAP2 SUB SWAP1 REVERT JUMPDEST DUP2 ISZERO PUSH2 0x252E JUMPI DUP4 DUP6 PUSH20 0xFFFFFFFFFFFFFFFFFFFFFFFFFFFFFFFFFFFFFFFF AND DUP3 PUSH20 0xFFFFFFFFFFFFFFFFFFFFFFFFFFFFFFFFFFFFFFFF AND PUSH32 0x8C5BE1E5EBEC7D5BD14F71427D1E84F3DD0314C0F7B2291E5B200AC8C7C3B925 PUSH1 0x40 MLOAD PUSH1 0x40 MLOAD DUP1 SWAP2 SUB SWAP1 LOG4 JUMPDEST POP JUMPDEST DUP4 PUSH1 0x4 PUSH0 DUP6 DUP2 MSTORE PUSH1 0x20 ADD SWAP1 DUP2 MSTORE PUSH1 0x20 ADD PUSH0 KECCAK256 PUSH0 PUSH2 0x100 EXP DUP2 SLOAD DUP2 PUSH20 0xFFFFFFFFFFFFFFFFFFFFFFFFFFFFFFFFFFFFFFFF MUL NOT AND SWAP1 DUP4 PUSH20 0xFFFFFFFFFFFFFFFFFFFFFFFFFFFFFFFFFFFFFFFF AND MUL OR SWAP1 SSTORE POP POP POP POP POP JUMP JUMPDEST PUSH2 0x2590 DUP4 DUP4 DUP4 PUSH2 0x2E87 JUMP JUMPDEST PUSH2 0x2643 JUMPI PUSH0 PUSH20 0xFFFFFFFFFFFFFFFFFFFFFFFFFFFFFFFFFFFFFFFF AND DUP4 PUSH20 0xFFFFFFFFFFFFFFFFFFFFFFFFFFFFFFFFFFFFFFFF AND SUB PUSH2 0x2604 JUMPI DUP1 PUSH1 0x40 MLOAD PUSH32 0x7E27328900000000000000000000000000000000000000000000000000000000 DUP2 MSTORE PUSH1 0x4 ADD PUSH2 0x25FB SWAP2 SWAP1 PUSH2 0x3CF7 JUMP JUMPDEST PUSH1 0x40 MLOAD DUP1 SWAP2 SUB SWAP1 REVERT JUMPDEST DUP2 DUP2 PUSH1 0x40 MLOAD PUSH32 0x177E802F00000000000000000000000000000000000000000000000000000000 DUP2 MSTORE PUSH1 0x4 ADD PUSH2 0x263A SWAP3 SWAP2 SWAP1 PUSH2 0x6041 JUMP JUMPDEST PUSH1 0x40 MLOAD DUP1 SWAP2 SUB SWAP1 REVERT JUMPDEST POP POP POP JUMP JUMPDEST PUSH2 0x2654 DUP3 PUSH0 PUSH0 DUP5 PUSH2 0x2F47 JUMP JUMPDEST POP POP JUMP JUMPDEST PUSH0 DUP2 MLOAD SUB PUSH2 0x2692 JUMPI PUSH1 0x40 MLOAD PUSH32 0xFE936CB700000000000000000000000000000000000000000000000000000000 DUP2 MSTORE PUSH1 0x4 ADD PUSH1 0x40 MLOAD DUP1 SWAP2 SUB SWAP1 REVERT JUMPDEST DUP1 DUP3 PUSH1 0xA0 ADD DUP2 SWAP1 MSTORE POP POP POP JUMP JUMPDEST PUSH1 0x60 PUSH0 PUSH2 0x26AD PUSH2 0x100 PUSH2 0x2FED JUMP JUMPDEST SWAP1 POP PUSH2 0x26F7 PUSH1 0x40 MLOAD DUP1 PUSH1 0x40 ADD PUSH1 0x40 MSTORE DUP1 PUSH1 0xC DUP2 MSTORE PUSH1 0x20 ADD PUSH32 0x636F64654C6F636174696F6E0000000000000000000000000000000000000000 DUP2 MSTORE POP DUP3 PUSH2 0x3012 SWAP1 SWAP2 SWAP1 PUSH4 0xFFFFFFFF AND JUMP JUMPDEST PUSH2 0x271F DUP4 PUSH0 ADD MLOAD PUSH1 0x2 DUP2 GT ISZERO PUSH2 0x2710 JUMPI PUSH2 0x270F PUSH2 0x6068 JUMP JUMPDEST JUMPDEST DUP3 PUSH2 0x303A SWAP1 SWAP2 SWAP1 PUSH4 0xFFFFFFFF AND JUMP JUMPDEST PUSH2 0x2767 PUSH1 0x40 MLOAD DUP1 PUSH1 0x40 ADD PUSH1 0x40 MSTORE DUP1 PUSH1 0x8 DUP2 MSTORE PUSH1 0x20 ADD PUSH32 0x6C616E6775616765000000000000000000000000000000000000000000000000 DUP2 MSTORE POP DUP3 PUSH2 0x3012 SWAP1 SWAP2 SWAP1 PUSH4 0xFFFFFFFF AND JUMP JUMPDEST PUSH2 0x278F DUP4 PUSH1 0x40 ADD MLOAD PUSH0 DUP2 GT ISZERO PUSH2 0x2780 JUMPI PUSH2 0x277F PUSH2 0x6068 JUMP JUMPDEST JUMPDEST DUP3 PUSH2 0x303A SWAP1 SWAP2 SWAP1 PUSH4 0xFFFFFFFF AND JUMP JUMPDEST PUSH2 0x27D7 PUSH1 0x40 MLOAD DUP1 PUSH1 0x40 ADD PUSH1 0x40 MSTORE DUP1 PUSH1 0x6 DUP2 MSTORE PUSH1 0x20 ADD PUSH32 0x736F757263650000000000000000000000000000000000000000000000000000 DUP2 MSTORE POP DUP3 PUSH2 0x3012 SWAP1 SWAP2 SWAP1 PUSH4 0xFFFFFFFF AND JUMP JUMPDEST PUSH2 0x27EE DUP4 PUSH1 0x60 ADD MLOAD DUP3 PUSH2 0x3012 SWAP1 SWAP2 SWAP1 PUSH4 0xFFFFFFFF AND JUMP JUMPDEST PUSH0 DUP4 PUSH1 0xA0 ADD MLOAD MLOAD GT ISZERO PUSH2 0x28A5 JUMPI PUSH2 0x2843 PUSH1 0x40 MLOAD DUP1 PUSH1 0x40 ADD PUSH1 0x40 MSTORE DUP1 PUSH1 0x4 DUP2 MSTORE PUSH1 0x20 ADD PUSH32 0x6172677300000000000000000000000000000000000000000000000000000000 DUP2 MSTORE POP DUP3 PUSH2 0x3012 SWAP1 SWAP2 SWAP1 PUSH4 0xFFFFFFFF AND JUMP JUMPDEST PUSH2 0x284C DUP2 PUSH2 0x3089 JUMP JUMPDEST PUSH0 PUSH0 SWAP1 POP JUMPDEST DUP4 PUSH1 0xA0 ADD MLOAD MLOAD DUP2 LT ISZERO PUSH2 0x289A JUMPI PUSH2 0x288F DUP5 PUSH1 0xA0 ADD MLOAD DUP3 DUP2 MLOAD DUP2 LT PUSH2 0x2878 JUMPI PUSH2 0x2877 PUSH2 0x47A7 JUMP JUMPDEST JUMPDEST PUSH1 0x20 MUL PUSH1 0x20 ADD ADD MLOAD DUP4 PUSH2 0x3012 SWAP1 SWAP2 SWAP1 PUSH4 0xFFFFFFFF AND JUMP JUMPDEST DUP1 PUSH1 0x1 ADD SWAP1 POP PUSH2 0x2851 JUMP JUMPDEST POP PUSH2 0x28A4 DUP2 PUSH2 0x30B1 JUMP JUMPDEST JUMPDEST PUSH0 DUP4 PUSH1 0x80 ADD MLOAD MLOAD GT ISZERO PUSH2 0x29E4 JUMPI PUSH0 PUSH1 0x2 DUP2 GT ISZERO PUSH2 0x28C5 JUMPI PUSH2 0x28C4 PUSH2 0x6068 JUMP JUMPDEST JUMPDEST DUP4 PUSH1 0x20 ADD MLOAD PUSH1 0x2 DUP2 GT ISZERO PUSH2 0x28DC JUMPI PUSH2 0x28DB PUSH2 0x6068 JUMP JUMPDEST JUMPDEST SUB PUSH2 0x2913 JUMPI PUSH1 0x40 MLOAD PUSH32 0xA80D31F700000000000000000000000000000000000000000000000000000000 DUP2 MSTORE PUSH1 0x4 ADD PUSH1 0x40 MLOAD DUP1 SWAP2 SUB SWAP1 REVERT JUMPDEST PUSH2 0x295B PUSH1 0x40 MLOAD DUP1 PUSH1 0x40 ADD PUSH1 0x40 MSTORE DUP1 PUSH1 0xF DUP2 MSTORE PUSH1 0x20 ADD PUSH32 0x736563726574734C6F636174696F6E0000000000000000000000000000000000 DUP2 MSTORE POP DUP3 PUSH2 0x3012 SWAP1 SWAP2 SWAP1 PUSH4 0xFFFFFFFF AND JUMP JUMPDEST PUSH2 0x2984 DUP4 PUSH1 0x20 ADD MLOAD PUSH1 0x2 DUP2 GT ISZERO PUSH2 0x2975 JUMPI PUSH2 0x2974 PUSH2 0x6068 JUMP JUMPDEST JUMPDEST DUP3 PUSH2 0x303A SWAP1 SWAP2 SWAP1 PUSH4 0xFFFFFFFF AND JUMP JUMPDEST PUSH2 0x29CC PUSH1 0x40 MLOAD DUP1 PUSH1 0x40 ADD PUSH1 0x40 MSTORE DUP1 PUSH1 0x7 DUP2 MSTORE PUSH1 0x20 ADD PUSH32 0x7365637265747300000000000000000000000000000000000000000000000000 DUP2 MSTORE POP DUP3 PUSH2 0x3012 SWAP1 SWAP2 SWAP1 PUSH4 0xFFFFFFFF AND JUMP JUMPDEST PUSH2 0x29E3 DUP4 PUSH1 0x80 ADD MLOAD DUP3 PUSH2 0x30D9 SWAP1 SWAP2 SWAP1 PUSH4 0xFFFFFFFF AND JUMP JUMPDEST JUMPDEST PUSH0 DUP4 PUSH1 0xC0 ADD MLOAD MLOAD GT ISZERO PUSH2 0x2A9B JUMPI PUSH2 0x2A39 PUSH1 0x40 MLOAD DUP1 PUSH1 0x40 ADD PUSH1 0x40 MSTORE DUP1 PUSH1 0x9 DUP2 MSTORE PUSH1 0x20 ADD PUSH32 0x6279746573417267730000000000000000000000000000000000000000000000 DUP2 MSTORE POP DUP3 PUSH2 0x3012 SWAP1 SWAP2 SWAP1 PUSH4 0xFFFFFFFF AND JUMP JUMPDEST PUSH2 0x2A42 DUP2 PUSH2 0x3089 JUMP JUMPDEST PUSH0 PUSH0 SWAP1 POP JUMPDEST DUP4 PUSH1 0xC0 ADD MLOAD MLOAD DUP2 LT ISZERO PUSH2 0x2A90 JUMPI PUSH2 0x2A85 DUP5 PUSH1 0xC0 ADD MLOAD DUP3 DUP2 MLOAD DUP2 LT PUSH2 0x2A6E JUMPI PUSH2 0x2A6D PUSH2 0x47A7 JUMP JUMPDEST JUMPDEST PUSH1 0x20 MUL PUSH1 0x20 ADD ADD MLOAD DUP4 PUSH2 0x30D9 SWAP1 SWAP2 SWAP1 PUSH4 0xFFFFFFFF AND JUMP JUMPDEST DUP1 PUSH1 0x1 ADD SWAP1 POP PUSH2 0x2A47 JUMP JUMPDEST POP PUSH2 0x2A9A DUP2 PUSH2 0x30B1 JUMP JUMPDEST JUMPDEST DUP1 PUSH0 ADD MLOAD PUSH0 ADD MLOAD SWAP2 POP POP SWAP2 SWAP1 POP JUMP JUMPDEST PUSH0 PUSH0 PUSH32 0x0 PUSH20 0xFFFFFFFFFFFFFFFFFFFFFFFFFFFFFFFFFFFFFFFF AND PUSH4 0x461D2762 DUP7 DUP9 PUSH1 0x1 DUP9 DUP9 PUSH1 0x40 MLOAD DUP7 PUSH4 0xFFFFFFFF AND PUSH1 0xE0 SHL DUP2 MSTORE PUSH1 0x4 ADD PUSH2 0x2B0E SWAP6 SWAP5 SWAP4 SWAP3 SWAP2 SWAP1 PUSH2 0x60DE JUMP JUMPDEST PUSH1 0x20 PUSH1 0x40 MLOAD DUP1 DUP4 SUB DUP2 PUSH0 DUP8 GAS CALL ISZERO DUP1 ISZERO PUSH2 0x2B2A JUMPI RETURNDATASIZE PUSH0 PUSH0 RETURNDATACOPY RETURNDATASIZE PUSH0 REVERT JUMPDEST POP POP POP POP PUSH1 0x40 MLOAD RETURNDATASIZE PUSH1 0x1F NOT PUSH1 0x1F DUP3 ADD AND DUP3 ADD DUP1 PUSH1 0x40 MSTORE POP DUP2 ADD SWAP1 PUSH2 0x2B4E SWAP2 SWAP1 PUSH2 0x614A JUMP JUMPDEST SWAP1 POP DUP1 PUSH32 0x1131472297A800FEE664D1D89CFA8F7676FF07189ECC53F80BBB5F4969099DB8 PUSH1 0x40 MLOAD PUSH1 0x40 MLOAD DUP1 SWAP2 SUB SWAP1 LOG2 DUP1 SWAP2 POP POP SWAP5 SWAP4 POP POP POP POP JUMP JUMPDEST PUSH1 0x60 PUSH0 DUP4 MLOAD SUB PUSH2 0x2BA9 JUMPI PUSH1 0x40 MLOAD DUP1 PUSH1 0x20 ADD PUSH1 0x40 MSTORE DUP1 PUSH0 DUP2 MSTORE POP SWAP1 POP PUSH2 0x2D0D JUMP JUMPDEST PUSH0 DUP3 PUSH2 0x2BDA JUMPI PUSH1 0x3 PUSH1 0x2 DUP6 MLOAD PUSH2 0x2BBF SWAP2 SWAP1 PUSH2 0x488A JUMP JUMPDEST PUSH2 0x2BC9 SWAP2 SWAP1 PUSH2 0x48FE JUMP JUMPDEST PUSH1 0x4 PUSH2 0x2BD5 SWAP2 SWAP1 PUSH2 0x48BD JUMP JUMPDEST PUSH2 0x2C01 JUMP JUMPDEST PUSH1 0x3 PUSH1 0x2 DUP6 MLOAD PUSH1 0x4 PUSH2 0x2BEC SWAP2 SWAP1 PUSH2 0x48BD JUMP JUMPDEST PUSH2 0x2BF6 SWAP2 SWAP1 PUSH2 0x488A JUMP JUMPDEST PUSH2 0x2C00 SWAP2 SWAP1 PUSH2 0x48FE JUMP JUMPDEST JUMPDEST SWAP1 POP PUSH1 0x40 MLOAD SWAP2 POP PUSH32 0x4142434445464748494A4B4C4D4E4F505152535455565758595A616263646566 PUSH1 0x1F MSTORE PUSH2 0x670 DUP4 MUL PUSH32 0x6768696A6B6C6D6E6F707172737475767778797A303132333435363738392B2F XOR PUSH1 0x3F MSTORE PUSH1 0x20 DUP3 ADD DUP2 DUP2 ADD DUP6 DUP7 MLOAD DUP8 ADD PUSH1 0x20 DUP2 ADD DUP1 MLOAD PUSH0 DUP3 MSTORE JUMPDEST DUP3 DUP5 LT ISZERO PUSH2 0x2CBF JUMPI PUSH1 0x3 DUP5 ADD SWAP4 POP DUP4 MLOAD PUSH1 0x3F DUP2 PUSH1 0x12 SHR AND MLOAD DUP8 MSTORE8 PUSH1 0x1 DUP8 ADD SWAP7 POP PUSH1 0x3F DUP2 PUSH1 0xC SHR AND MLOAD DUP8 MSTORE8 PUSH1 0x1 DUP8 ADD SWAP7 POP PUSH1 0x3F DUP2 PUSH1 0x6 SHR AND MLOAD DUP8 MSTORE8 PUSH1 0x1 DUP8 ADD SWAP7 POP PUSH1 0x3F DUP2 AND MLOAD DUP8 MSTORE8 PUSH1 0x1 DUP8 ADD SWAP7 POP POP PUSH2 0x2C6C JUMP JUMPDEST DUP1 DUP3 MSTORE DUP9 PUSH2 0x2CFE JUMPI PUSH1 0x3 DUP11 MLOAD MOD PUSH1 0x1 DUP2 EQ PUSH2 0x2CE1 JUMPI PUSH1 0x2 DUP2 EQ PUSH2 0x2CF4 JUMPI PUSH2 0x2CFC JUMP JUMPDEST PUSH1 0x3D PUSH1 0x1 DUP9 SUB MSTORE8 PUSH1 0x3D PUSH1 0x2 DUP9 SUB MSTORE8 PUSH2 0x2CFC JUMP JUMPDEST PUSH1 0x3D PUSH1 0x1 DUP9 SUB MSTORE8 JUMPDEST POP JUMPDEST DUP7 DUP9 MSTORE DUP5 PUSH1 0x40 MSTORE POP POP POP POP POP POP POP JUMPDEST SWAP3 SWAP2 POP POP JUMP JUMPDEST PUSH0 PUSH0 PUSH0 SWAP1 POP PUSH27 0x184F03E93FF9F4DAA797ED6E38ED64BF6A1F010000000000000000 DUP4 LT PUSH2 0x2D6F JUMPI PUSH27 0x184F03E93FF9F4DAA797ED6E38ED64BF6A1F010000000000000000 DUP4 DUP2 PUSH2 0x2D65 JUMPI PUSH2 0x2D64 PUSH2 0x485D JUMP JUMPDEST JUMPDEST DIV SWAP3 POP PUSH1 0x40 DUP2 ADD SWAP1 POP JUMPDEST PUSH14 0x4EE2D6D415B85ACEF8100000000 DUP4 LT PUSH2 0x2DAC JUMPI PUSH14 0x4EE2D6D415B85ACEF8100000000 DUP4 DUP2 PUSH2 0x2DA2 JUMPI PUSH2 0x2DA1 PUSH2 0x485D JUMP JUMPDEST JUMPDEST DIV SWAP3 POP PUSH1 0x20 DUP2 ADD SWAP1 POP JUMPDEST PUSH7 0x2386F26FC10000 DUP4 LT PUSH2 0x2DDB JUMPI PUSH7 0x2386F26FC10000 DUP4 DUP2 PUSH2 0x2DD1 JUMPI PUSH2 0x2DD0 PUSH2 0x485D JUMP JUMPDEST JUMPDEST DIV SWAP3 POP PUSH1 0x10 DUP2 ADD SWAP1 POP JUMPDEST PUSH4 0x5F5E100 DUP4 LT PUSH2 0x2E04 JUMPI PUSH4 0x5F5E100 DUP4 DUP2 PUSH2 0x2DFA JUMPI PUSH2 0x2DF9 PUSH2 0x485D JUMP JUMPDEST JUMPDEST DIV SWAP3 POP PUSH1 0x8 DUP2 ADD SWAP1 POP JUMPDEST PUSH2 0x2710 DUP4 LT PUSH2 0x2E29 JUMPI PUSH2 0x2710 DUP4 DUP2 PUSH2 0x2E1F JUMPI PUSH2 0x2E1E PUSH2 0x485D JUMP JUMPDEST JUMPDEST DIV SWAP3 POP PUSH1 0x4 DUP2 ADD SWAP1 POP JUMPDEST PUSH1 0x64 DUP4 LT PUSH2 0x2E4C JUMPI PUSH1 0x64 DUP4 DUP2 PUSH2 0x2E42 JUMPI PUSH2 0x2E41 PUSH2 0x485D JUMP JUMPDEST JUMPDEST DIV SWAP3 POP PUSH1 0x2 DUP2 ADD SWAP1 POP JUMPDEST PUSH1 0xA DUP4 LT PUSH2 0x2E5B JUMPI PUSH1 0x1 DUP2 ADD SWAP1 POP JUMPDEST DUP1 SWAP2 POP POP SWAP2 SWAP1 POP JUMP JUMPDEST PUSH2 0x2E6E DUP4 DUP4 PUSH2 0x3101 JUMP JUMPDEST PUSH2 0x2E82 PUSH2 0x2E79 PUSH2 0x14CA JUMP JUMPDEST PUSH0 DUP6 DUP6 DUP6 PUSH2 0x1CAF JUMP JUMPDEST POP POP POP JUMP JUMPDEST PUSH0 PUSH0 PUSH20 0xFFFFFFFFFFFFFFFFFFFFFFFFFFFFFFFFFFFFFFFF AND DUP4 PUSH20 0xFFFFFFFFFFFFFFFFFFFFFFFFFFFFFFFFFFFFFFFF AND EQ ISZERO DUP1 ISZERO PUSH2 0x2F3E JUMPI POP DUP3 PUSH20 0xFFFFFFFFFFFFFFFFFFFFFFFFFFFFFFFFFFFFFFFF AND DUP5 PUSH20 0xFFFFFFFFFFFFFFFFFFFFFFFFFFFFFFFFFFFFFFFF AND EQ DUP1 PUSH2 0x2EFF JUMPI POP PUSH2 0x2EFE DUP5 DUP5 PUSH2 0xFB6 JUMP JUMPDEST JUMPDEST DUP1 PUSH2 0x2F3D JUMPI POP DUP3 PUSH20 0xFFFFFFFFFFFFFFFFFFFFFFFFFFFFFFFFFFFFFFFF AND PUSH2 0x2F25 DUP4 PUSH2 0x1491 JUMP JUMPDEST PUSH20 0xFFFFFFFFFFFFFFFFFFFFFFFFFFFFFFFFFFFFFFFF AND EQ JUMPDEST JUMPDEST SWAP1 POP SWAP4 SWAP3 POP POP POP JUMP JUMPDEST PUSH0 DUP2 MLOAD SUB PUSH2 0x2F81 JUMPI PUSH1 0x40 MLOAD PUSH32 0x22CE3EDD00000000000000000000000000000000000000000000000000000000 DUP2 MSTORE PUSH1 0x4 ADD PUSH1 0x40 MLOAD DUP1 SWAP2 SUB SWAP1 REVERT JUMPDEST DUP3 DUP5 PUSH0 ADD SWAP1 PUSH1 0x2 DUP2 GT ISZERO PUSH2 0x2F98 JUMPI PUSH2 0x2F97 PUSH2 0x6068 JUMP JUMPDEST JUMPDEST SWAP1 DUP2 PUSH1 0x2 DUP2 GT ISZERO PUSH2 0x2FAC JUMPI PUSH2 0x2FAB PUSH2 0x6068 JUMP JUMPDEST JUMPDEST DUP2 MSTORE POP POP DUP2 DUP5 PUSH1 0x40 ADD SWAP1 PUSH0 DUP2 GT ISZERO PUSH2 0x2FC7 JUMPI PUSH2 0x2FC6 PUSH2 0x6068 JUMP JUMPDEST JUMPDEST SWAP1 DUP2 PUSH0 DUP2 GT ISZERO PUSH2 0x2FDA JUMPI PUSH2 0x2FD9 PUSH2 0x6068 JUMP JUMPDEST JUMPDEST DUP2 MSTORE POP POP DUP1 DUP5 PUSH1 0x60 ADD DUP2 SWAP1 MSTORE POP POP POP POP POP JUMP JUMPDEST PUSH2 0x2FF5 PUSH2 0x36A9 JUMP JUMPDEST PUSH2 0x3002 DUP2 PUSH0 ADD MLOAD DUP4 PUSH2 0x31F4 JUMP JUMPDEST POP PUSH0 DUP2 PUSH1 0x20 ADD DUP2 DUP2 MSTORE POP POP SWAP2 SWAP1 POP JUMP JUMPDEST PUSH2 0x301F DUP3 PUSH1 0x3 DUP4 MLOAD PUSH2 0x326A JUMP JUMPDEST PUSH2 0x3035 DUP2 DUP4 PUSH0 ADD MLOAD PUSH2 0x340A SWAP1 SWAP2 SWAP1 PUSH4 0xFFFFFFFF AND JUMP JUMPDEST POP POP POP JUMP JUMPDEST PUSH2 0x305B PUSH1 0x2 PUSH1 0x5 PUSH1 0x6 PUSH1 0xFF AND SWAP1 SHL OR DUP4 PUSH0 ADD MLOAD PUSH2 0x3426 SWAP1 SWAP2 SWAP1 PUSH4 0xFFFFFFFF AND JUMP JUMPDEST POP PUSH2 0x3085 DUP3 DUP3 PUSH1 0x40 MLOAD PUSH1 0x20 ADD PUSH2 0x3071 SWAP2 SWAP1 PUSH2 0x3CF7 JUMP JUMPDEST PUSH1 0x40 MLOAD PUSH1 0x20 DUP2 DUP4 SUB SUB DUP2 MSTORE SWAP1 PUSH1 0x40 MSTORE PUSH2 0x30D9 JUMP JUMPDEST POP POP JUMP JUMPDEST PUSH2 0x3094 DUP2 PUSH1 0x4 PUSH2 0x348D JUMP JUMPDEST PUSH1 0x1 DUP2 PUSH1 0x20 ADD DUP2 DUP2 MLOAD PUSH2 0x30A7 SWAP2 SWAP1 PUSH2 0x488A JUMP JUMPDEST SWAP2 POP DUP2 DUP2 MSTORE POP POP POP JUMP JUMPDEST PUSH2 0x30BC DUP2 PUSH1 0x7 PUSH2 0x348D JUMP JUMPDEST PUSH1 0x1 DUP2 PUSH1 0x20 ADD DUP2 DUP2 MLOAD PUSH2 0x30CF SWAP2 SWAP1 PUSH2 0x43FD JUMP JUMPDEST SWAP2 POP DUP2 DUP2 MSTORE POP POP POP JUMP JUMPDEST PUSH2 0x30E6 DUP3 PUSH1 0x2 DUP4 MLOAD PUSH2 0x326A JUMP JUMPDEST PUSH2 0x30FC DUP2 DUP4 PUSH0 ADD MLOAD PUSH2 0x340A SWAP1 SWAP2 SWAP1 PUSH4 0xFFFFFFFF AND JUMP JUMPDEST POP POP POP JUMP JUMPDEST PUSH0 PUSH20 0xFFFFFFFFFFFFFFFFFFFFFFFFFFFFFFFFFFFFFFFF AND DUP3 PUSH20 0xFFFFFFFFFFFFFFFFFFFFFFFFFFFFFFFFFFFFFFFF AND SUB PUSH2 0x3171 JUMPI PUSH0 PUSH1 0x40 MLOAD PUSH32 0x64A0AE9200000000000000000000000000000000000000000000000000000000 DUP2 MSTORE PUSH1 0x4 ADD PUSH2 0x3168 SWAP2 SWAP1 PUSH2 0x3A45 JUMP JUMPDEST PUSH1 0x40 MLOAD DUP1 SWAP2 SUB SWAP1 REVERT JUMPDEST PUSH0 PUSH2 0x317D DUP4 DUP4 PUSH0 PUSH2 0x1692 JUMP JUMPDEST SWAP1 POP PUSH0 PUSH20 0xFFFFFFFFFFFFFFFFFFFFFFFFFFFFFFFFFFFFFFFF AND DUP2 PUSH20 0xFFFFFFFFFFFFFFFFFFFFFFFFFFFFFFFFFFFFFFFF AND EQ PUSH2 0x31EF JUMPI PUSH0 PUSH1 0x40 MLOAD PUSH32 0x73C6AC6E00000000000000000000000000000000000000000000000000000000 DUP2 MSTORE PUSH1 0x4 ADD PUSH2 0x31E6 SWAP2 SWAP1 PUSH2 0x3A45 JUMP JUMPDEST PUSH1 0x40 MLOAD DUP1 SWAP2 SUB SWAP1 REVERT JUMPDEST POP POP POP JUMP JUMPDEST PUSH2 0x31FC PUSH2 0x36C8 JUMP JUMPDEST PUSH0 PUSH1 0x20 DUP4 PUSH2 0x320A SWAP2 SWAP1 PUSH2 0x492E JUMP JUMPDEST EQ PUSH2 0x3236 JUMPI PUSH1 0x20 DUP3 PUSH2 0x321C SWAP2 SWAP1 PUSH2 0x492E JUMP JUMPDEST PUSH1 0x20 PUSH2 0x3228 SWAP2 SWAP1 PUSH2 0x43FD JUMP JUMPDEST DUP3 PUSH2 0x3233 SWAP2 SWAP1 PUSH2 0x488A JUMP JUMPDEST SWAP2 POP JUMPDEST DUP2 DUP4 PUSH1 0x20 ADD DUP2 DUP2 MSTORE POP POP PUSH1 0x40 MLOAD DUP1 DUP5 MSTORE PUSH0 DUP2 MSTORE DUP3 DUP2 ADD PUSH1 0x20 ADD DUP2 DUP2 LT ISZERO PUSH2 0x325B JUMPI PUSH0 PUSH0 REVERT JUMPDEST DUP1 PUSH1 0x40 MSTORE POP POP DUP3 SWAP1 POP SWAP3 SWAP2 POP POP JUMP JUMPDEST PUSH1 0x17 DUP2 PUSH8 0xFFFFFFFFFFFFFFFF AND GT PUSH2 0x32A4 JUMPI PUSH2 0x329E DUP2 PUSH1 0x5 DUP5 PUSH1 0xFF AND SWAP1 SHL PUSH1 0xFF AND OR DUP5 PUSH0 ADD MLOAD PUSH2 0x3426 SWAP1 SWAP2 SWAP1 PUSH4 0xFFFFFFFF AND JUMP JUMPDEST POP PUSH2 0x3405 JUMP JUMPDEST PUSH1 0xFF DUP2 PUSH8 0xFFFFFFFFFFFFFFFF AND GT PUSH2 0x3300 JUMPI PUSH2 0x32D6 PUSH1 0x18 PUSH1 0x5 DUP5 PUSH1 0xFF AND SWAP1 SHL OR DUP5 PUSH0 ADD MLOAD PUSH2 0x3426 SWAP1 SWAP2 SWAP1 PUSH4 0xFFFFFFFF AND JUMP JUMPDEST POP PUSH2 0x32FA DUP2 PUSH8 0xFFFFFFFFFFFFFFFF AND PUSH1 0x1 DUP6 PUSH0 ADD MLOAD PUSH2 0x34B2 SWAP1 SWAP3 SWAP2 SWAP1 PUSH4 0xFFFFFFFF AND JUMP JUMPDEST POP PUSH2 0x3404 JUMP JUMPDEST PUSH2 0xFFFF DUP2 PUSH8 0xFFFFFFFFFFFFFFFF AND GT PUSH2 0x335D JUMPI PUSH2 0x3333 PUSH1 0x19 PUSH1 0x5 DUP5 PUSH1 0xFF AND SWAP1 SHL OR DUP5 PUSH0 ADD MLOAD PUSH2 0x3426 SWAP1 SWAP2 SWAP1 PUSH4 0xFFFFFFFF AND JUMP JUMPDEST POP PUSH2 0x3357 DUP2 PUSH8 0xFFFFFFFFFFFFFFFF AND PUSH1 0x2 DUP6 PUSH0 ADD MLOAD PUSH2 0x34B2 SWAP1 SWAP3 SWAP2 SWAP1 PUSH4 0xFFFFFFFF AND JUMP JUMPDEST POP PUSH2 0x3403 JUMP JUMPDEST PUSH4 0xFFFFFFFF DUP2 PUSH8 0xFFFFFFFFFFFFFFFF AND GT PUSH2 0x33BC JUMPI PUSH2 0x3392 PUSH1 0x1A PUSH1 0x5 DUP5 PUSH1 0xFF AND SWAP1 SHL OR DUP5 PUSH0 ADD MLOAD PUSH2 0x3426 SWAP1 SWAP2 SWAP1 PUSH4 0xFFFFFFFF AND JUMP JUMPDEST POP PUSH2 0x33B6 DUP2 PUSH8 0xFFFFFFFFFFFFFFFF AND PUSH1 0x4 DUP6 PUSH0 ADD MLOAD PUSH2 0x34B2 SWAP1 SWAP3 SWAP2 SWAP1 PUSH4 0xFFFFFFFF AND JUMP JUMPDEST POP PUSH2 0x3402 JUMP JUMPDEST PUSH2 0x33DC PUSH1 0x1B PUSH1 0x5 DUP5 PUSH1 0xFF AND SWAP1 SHL OR DUP5 PUSH0 ADD MLOAD PUSH2 0x3426 SWAP1 SWAP2 SWAP1 PUSH4 0xFFFFFFFF AND JUMP JUMPDEST POP PUSH2 0x3400 DUP2 PUSH8 0xFFFFFFFFFFFFFFFF AND PUSH1 0x8 DUP6 PUSH0 ADD MLOAD PUSH2 0x34B2 SWAP1 SWAP3 SWAP2 SWAP1 PUSH4 0xFFFFFFFF AND JUMP JUMPDEST POP JUMPDEST JUMPDEST JUMPDEST JUMPDEST POP POP POP JUMP JUMPDEST PUSH2 0x3412 PUSH2 0x36C8 JUMP JUMPDEST PUSH2 0x341E DUP4 DUP4 DUP5 MLOAD PUSH2 0x353B JUMP JUMPDEST SWAP1 POP SWAP3 SWAP2 POP POP JUMP JUMPDEST PUSH2 0x342E PUSH2 0x36C8 JUMP JUMPDEST PUSH0 DUP4 PUSH0 ADD MLOAD MLOAD SWAP1 POP PUSH0 PUSH1 0x1 DUP3 PUSH2 0x3444 SWAP2 SWAP1 PUSH2 0x488A JUMP JUMPDEST SWAP1 POP DUP5 PUSH1 0x20 ADD MLOAD DUP3 LT PUSH2 0x3468 JUMPI PUSH2 0x3467 DUP6 PUSH1 0x2 DUP4 PUSH2 0x3462 SWAP2 SWAP1 PUSH2 0x48BD JUMP JUMPDEST PUSH2 0x3618 JUMP JUMPDEST JUMPDEST DUP5 MLOAD PUSH1 0x20 DUP4 DUP3 ADD ADD DUP6 DUP2 MSTORE8 DUP2 MLOAD DUP4 GT ISZERO PUSH2 0x3480 JUMPI DUP3 DUP3 MSTORE JUMPDEST POP POP DUP5 SWAP3 POP POP POP SWAP3 SWAP2 POP POP JUMP JUMPDEST PUSH2 0x34AD PUSH1 0x1F PUSH1 0x5 DUP4 PUSH1 0xFF AND SWAP1 SHL OR DUP4 PUSH0 ADD MLOAD PUSH2 0x3426 SWAP1 SWAP2 SWAP1 PUSH4 0xFFFFFFFF AND JUMP JUMPDEST POP POP POP JUMP JUMPDEST PUSH2 0x34BA PUSH2 0x36C8 JUMP JUMPDEST PUSH0 DUP5 PUSH0 ADD MLOAD MLOAD SWAP1 POP PUSH0 DUP2 DUP5 PUSH2 0x34CF SWAP2 SWAP1 PUSH2 0x488A JUMP JUMPDEST SWAP1 POP DUP6 PUSH1 0x20 ADD MLOAD DUP2 GT ISZERO PUSH2 0x34F4 JUMPI PUSH2 0x34F3 DUP7 PUSH1 0x2 DUP4 PUSH2 0x34EE SWAP2 SWAP1 PUSH2 0x48BD JUMP JUMPDEST PUSH2 0x3618 JUMP JUMPDEST JUMPDEST PUSH0 PUSH1 0x1 DUP6 PUSH2 0x100 PUSH2 0x3505 SWAP2 SWAP1 PUSH2 0x62A4 JUMP JUMPDEST PUSH2 0x350F SWAP2 SWAP1 PUSH2 0x43FD JUMP JUMPDEST SWAP1 POP DUP7 MLOAD DUP3 DUP2 ADD DUP8 DUP4 NOT DUP3 MLOAD AND OR DUP2 MSTORE DUP2 MLOAD DUP5 GT ISZERO PUSH2 0x352C JUMPI DUP4 DUP3 MSTORE JUMPDEST POP POP DUP7 SWAP4 POP POP POP POP SWAP4 SWAP3 POP POP POP JUMP JUMPDEST PUSH2 0x3543 PUSH2 0x36C8 JUMP JUMPDEST DUP3 MLOAD DUP3 GT ISZERO PUSH2 0x3550 JUMPI PUSH0 PUSH0 REVERT JUMPDEST PUSH0 DUP5 PUSH0 ADD MLOAD MLOAD SWAP1 POP PUSH0 DUP4 DUP3 PUSH2 0x3565 SWAP2 SWAP1 PUSH2 0x488A JUMP JUMPDEST SWAP1 POP DUP6 PUSH1 0x20 ADD MLOAD DUP2 GT ISZERO PUSH2 0x358A JUMPI PUSH2 0x3589 DUP7 PUSH1 0x2 DUP4 PUSH2 0x3584 SWAP2 SWAP1 PUSH2 0x48BD JUMP JUMPDEST PUSH2 0x3618 JUMP JUMPDEST JUMPDEST PUSH0 PUSH0 DUP8 MLOAD DUP1 MLOAD DUP6 PUSH1 0x20 DUP4 ADD ADD SWAP4 POP DUP1 DUP6 GT ISZERO PUSH2 0x35A4 JUMPI DUP5 DUP3 MSTORE JUMPDEST PUSH1 0x20 DUP10 ADD SWAP3 POP POP POP JUMPDEST PUSH1 0x20 DUP7 LT PUSH2 0x35EB JUMPI DUP1 MLOAD DUP3 MSTORE PUSH1 0x20 DUP3 PUSH2 0x35C6 SWAP2 SWAP1 PUSH2 0x488A JUMP JUMPDEST SWAP2 POP PUSH1 0x20 DUP2 PUSH2 0x35D5 SWAP2 SWAP1 PUSH2 0x488A JUMP JUMPDEST SWAP1 POP PUSH1 0x20 DUP7 PUSH2 0x35E4 SWAP2 SWAP1 PUSH2 0x43FD JUMP JUMPDEST SWAP6 POP PUSH2 0x35AD JUMP JUMPDEST PUSH0 PUSH1 0x1 DUP8 PUSH1 0x20 SUB PUSH2 0x100 EXP SUB SWAP1 POP DUP1 NOT DUP3 MLOAD AND DUP2 DUP5 MLOAD AND DUP2 DUP2 OR DUP6 MSTORE POP POP POP DUP8 SWAP5 POP POP POP POP POP SWAP4 SWAP3 POP POP POP JUMP JUMPDEST PUSH0 DUP3 PUSH0 ADD MLOAD SWAP1 POP PUSH2 0x3629 DUP4 DUP4 PUSH2 0x31F4 JUMP JUMPDEST POP PUSH2 0x3634 DUP4 DUP3 PUSH2 0x340A JUMP JUMPDEST POP POP POP POP JUMP JUMPDEST PUSH1 0x40 MLOAD DUP1 PUSH1 0xE0 ADD PUSH1 0x40 MSTORE DUP1 PUSH0 PUSH1 0x2 DUP2 GT ISZERO PUSH2 0x3658 JUMPI PUSH2 0x3657 PUSH2 0x6068 JUMP JUMPDEST JUMPDEST DUP2 MSTORE PUSH1 0x20 ADD PUSH0 PUSH1 0x2 DUP2 GT ISZERO PUSH2 0x3670 JUMPI PUSH2 0x366F PUSH2 0x6068 JUMP JUMPDEST JUMPDEST DUP2 MSTORE PUSH1 0x20 ADD PUSH0 PUSH0 DUP2 GT ISZERO PUSH2 0x3687 JUMPI PUSH2 0x3686 PUSH2 0x6068 JUMP JUMPDEST JUMPDEST DUP2 MSTORE PUSH1 0x20 ADD PUSH1 0x60 DUP2 MSTORE PUSH1 0x20 ADD PUSH1 0x60 DUP2 MSTORE PUSH1 0x20 ADD PUSH1 0x60 DUP2 MSTORE PUSH1 0x20 ADD PUSH1 0x60 DUP2 MSTORE POP SWAP1 JUMP JUMPDEST PUSH1 0x40 MLOAD DUP1 PUSH1 0x40 ADD PUSH1 0x40 MSTORE DUP1 PUSH2 0x36BC PUSH2 0x36C8 JUMP JUMPDEST DUP2 MSTORE PUSH1 0x20 ADD PUSH0 DUP2 MSTORE POP SWAP1 JUMP JUMPDEST PUSH1 0x40 MLOAD DUP1 PUSH1 0x40 ADD PUSH1 0x40 MSTORE DUP1 PUSH1 0x60 DUP2 MSTORE PUSH1 0x20 ADD PUSH0 DUP2 MSTORE POP SWAP1 JUMP JUMPDEST PUSH0 PUSH1 0x40 MLOAD SWAP1 POP SWAP1 JUMP JUMPDEST PUSH0 PUSH0 REVERT JUMPDEST PUSH0 PUSH0 REVERT JUMPDEST PUSH0 PUSH0 REVERT JUMPDEST PUSH0 PUSH0 REVERT JUMPDEST PUSH0 PUSH1 0x1F NOT PUSH1 0x1F DUP4 ADD AND SWAP1 POP SWAP2 SWAP1 POP JUMP JUMPDEST PUSH32 0x4E487B7100000000000000000000000000000000000000000000000000000000 PUSH0 MSTORE PUSH1 0x41 PUSH1 0x4 MSTORE PUSH1 0x24 PUSH0 REVERT JUMPDEST PUSH2 0x3740 DUP3 PUSH2 0x36FA JUMP JUMPDEST DUP2 ADD DUP2 DUP2 LT PUSH8 0xFFFFFFFFFFFFFFFF DUP3 GT OR ISZERO PUSH2 0x375F JUMPI PUSH2 0x375E PUSH2 0x370A JUMP JUMPDEST JUMPDEST DUP1 PUSH1 0x40 MSTORE POP POP POP JUMP JUMPDEST PUSH0 PUSH2 0x3771 PUSH2 0x36E1 JUMP JUMPDEST SWAP1 POP PUSH2 0x377D DUP3 DUP3 PUSH2 0x3737 JUMP JUMPDEST SWAP2 SWAP1 POP JUMP JUMPDEST PUSH0 PUSH8 0xFFFFFFFFFFFFFFFF DUP3 GT ISZERO PUSH2 0x379C JUMPI PUSH2 0x379B PUSH2 0x370A JUMP JUMPDEST JUMPDEST PUSH2 0x37A5 DUP3 PUSH2 0x36FA JUMP JUMPDEST SWAP1 POP PUSH1 0x20 DUP2 ADD SWAP1 POP SWAP2 SWAP1 POP JUMP JUMPDEST DUP3 DUP2 DUP4 CALLDATACOPY PUSH0 DUP4 DUP4 ADD MSTORE POP POP POP JUMP JUMPDEST PUSH0 PUSH2 0x37D2 PUSH2 0x37CD DUP5 PUSH2 0x3782 JUMP JUMPDEST PUSH2 0x3768 JUMP JUMPDEST SWAP1 POP DUP3 DUP2 MSTORE PUSH1 0x20 DUP2 ADD DUP5 DUP5 DUP5 ADD GT ISZERO PUSH2 0x37EE JUMPI PUSH2 0x37ED PUSH2 0x36F6 JUMP JUMPDEST JUMPDEST PUSH2 0x37F9 DUP5 DUP3 DUP6 PUSH2 0x37B2 JUMP JUMPDEST POP SWAP4 SWAP3 POP POP POP JUMP JUMPDEST PUSH0 DUP3 PUSH1 0x1F DUP4 ADD SLT PUSH2 0x3815 JUMPI PUSH2 0x3814 PUSH2 0x36F2 JUMP JUMPDEST JUMPDEST DUP2 CALLDATALOAD PUSH2 0x3825 DUP5 DUP3 PUSH1 0x20 DUP7 ADD PUSH2 0x37C0 JUMP JUMPDEST SWAP2 POP POP SWAP3 SWAP2 POP POP JUMP JUMPDEST PUSH0 PUSH1 0x20 DUP3 DUP5 SUB SLT ISZERO PUSH2 0x3843 JUMPI PUSH2 0x3842 PUSH2 0x36EA JUMP JUMPDEST JUMPDEST PUSH0 DUP3 ADD CALLDATALOAD PUSH8 0xFFFFFFFFFFFFFFFF DUP2 GT ISZERO PUSH2 0x3860 JUMPI PUSH2 0x385F PUSH2 0x36EE JUMP JUMPDEST JUMPDEST PUSH2 0x386C DUP5 DUP3 DUP6 ADD PUSH2 0x3801 JUMP JUMPDEST SWAP2 POP POP SWAP3 SWAP2 POP POP JUMP JUMPDEST PUSH0 PUSH32 0xFFFFFFFF00000000000000000000000000000000000000000000000000000000 DUP3 AND SWAP1 POP SWAP2 SWAP1 POP JUMP JUMPDEST PUSH2 0x38A9 DUP2 PUSH2 0x3875 JUMP JUMPDEST DUP2 EQ PUSH2 0x38B3 JUMPI PUSH0 PUSH0 REVERT JUMPDEST POP JUMP JUMPDEST PUSH0 DUP2 CALLDATALOAD SWAP1 POP PUSH2 0x38C4 DUP2 PUSH2 0x38A0 JUMP JUMPDEST SWAP3 SWAP2 POP POP JUMP JUMPDEST PUSH0 PUSH1 0x20 DUP3 DUP5 SUB SLT ISZERO PUSH2 0x38DF JUMPI PUSH2 0x38DE PUSH2 0x36EA JUMP JUMPDEST JUMPDEST PUSH0 PUSH2 0x38EC DUP5 DUP3 DUP6 ADD PUSH2 0x38B6 JUMP JUMPDEST SWAP2 POP POP SWAP3 SWAP2 POP POP JUMP JUMPDEST PUSH0 DUP2 ISZERO ISZERO SWAP1 POP SWAP2 SWAP1 POP JUMP JUMPDEST PUSH2 0x3909 DUP2 PUSH2 0x38F5 JUMP JUMPDEST DUP3 MSTORE POP POP JUMP JUMPDEST PUSH0 PUSH1 0x20 DUP3 ADD SWAP1 POP PUSH2 0x3922 PUSH0 DUP4 ADD DUP5 PUSH2 0x3900 JUMP JUMPDEST SWAP3 SWAP2 POP POP JUMP JUMPDEST PUSH0 DUP2 MLOAD SWAP1 POP SWAP2 SWAP1 POP JUMP JUMPDEST PUSH0 DUP3 DUP3 MSTORE PUSH1 0x20 DUP3 ADD SWAP1 POP SWAP3 SWAP2 POP POP JUMP JUMPDEST DUP3 DUP2 DUP4 MCOPY PUSH0 DUP4 DUP4 ADD MSTORE POP POP POP JUMP JUMPDEST PUSH0 PUSH2 0x395A DUP3 PUSH2 0x3928 JUMP JUMPDEST PUSH2 0x3964 DUP2 DUP6 PUSH2 0x3932 JUMP JUMPDEST SWAP4 POP PUSH2 0x3974 DUP2 DUP6 PUSH1 0x20 DUP7 ADD PUSH2 0x3942 JUMP JUMPDEST PUSH2 0x397D DUP2 PUSH2 0x36FA JUMP JUMPDEST DUP5 ADD SWAP2 POP POP SWAP3 SWAP2 POP POP JUMP JUMPDEST PUSH0 PUSH1 0x20 DUP3 ADD SWAP1 POP DUP2 DUP2 SUB PUSH0 DUP4 ADD MSTORE PUSH2 0x39A0 DUP2 DUP5 PUSH2 0x3950 JUMP JUMPDEST SWAP1 POP SWAP3 SWAP2 POP POP JUMP JUMPDEST PUSH0 DUP2 SWAP1 POP SWAP2 SWAP1 POP JUMP JUMPDEST PUSH2 0x39BA DUP2 PUSH2 0x39A8 JUMP JUMPDEST DUP2 EQ PUSH2 0x39C4 JUMPI PUSH0 PUSH0 REVERT JUMPDEST POP JUMP JUMPDEST PUSH0 DUP2 CALLDATALOAD SWAP1 POP PUSH2 0x39D5 DUP2 PUSH2 0x39B1 JUMP JUMPDEST SWAP3 SWAP2 POP POP JUMP JUMPDEST PUSH0 PUSH1 0x20 DUP3 DUP5 SUB SLT ISZERO PUSH2 0x39F0 JUMPI PUSH2 0x39EF PUSH2 0x36EA JUMP JUMPDEST JUMPDEST PUSH0 PUSH2 0x39FD DUP5 DUP3 DUP6 ADD PUSH2 0x39C7 JUMP JUMPDEST SWAP2 POP POP SWAP3 SWAP2 POP POP JUMP JUMPDEST PUSH0 PUSH20 0xFFFFFFFFFFFFFFFFFFFFFFFFFFFFFFFFFFFFFFFF DUP3 AND SWAP1 POP SWAP2 SWAP1 POP JUMP JUMPDEST PUSH0 PUSH2 0x3A2F DUP3 PUSH2 0x3A06 JUMP JUMPDEST SWAP1 POP SWAP2 SWAP1 POP JUMP JUMPDEST PUSH2 0x3A3F DUP2 PUSH2 0x3A25 JUMP JUMPDEST DUP3 MSTORE POP POP JUMP JUMPDEST PUSH0 PUSH1 0x20 DUP3 ADD SWAP1 POP PUSH2 0x3A58 PUSH0 DUP4 ADD DUP5 PUSH2 0x3A36 JUMP JUMPDEST SWAP3 SWAP2 POP POP JUMP JUMPDEST PUSH2 0x3A67 DUP2 PUSH2 0x3A25 JUMP JUMPDEST DUP2 EQ PUSH2 0x3A71 JUMPI PUSH0 PUSH0 REVERT JUMPDEST POP JUMP JUMPDEST PUSH0 DUP2 CALLDATALOAD SWAP1 POP PUSH2 0x3A82 DUP2 PUSH2 0x3A5E JUMP JUMPDEST SWAP3 SWAP2 POP POP JUMP JUMPDEST PUSH0 PUSH0 PUSH1 0x40 DUP4 DUP6 SUB SLT ISZERO PUSH2 0x3A9E JUMPI PUSH2 0x3A9D PUSH2 0x36EA JUMP JUMPDEST JUMPDEST PUSH0 PUSH2 0x3AAB DUP6 DUP3 DUP7 ADD PUSH2 0x3A74 JUMP JUMPDEST SWAP3 POP POP PUSH1 0x20 PUSH2 0x3ABC DUP6 DUP3 DUP7 ADD PUSH2 0x39C7 JUMP JUMPDEST SWAP2 POP POP SWAP3 POP SWAP3 SWAP1 POP JUMP JUMPDEST PUSH0 PUSH8 0xFFFFFFFFFFFFFFFF DUP3 AND SWAP1 POP SWAP2 SWAP1 POP JUMP JUMPDEST PUSH2 0x3AE2 DUP2 PUSH2 0x3AC6 JUMP JUMPDEST DUP3 MSTORE POP POP JUMP JUMPDEST PUSH0 PUSH1 0x20 DUP3 ADD SWAP1 POP PUSH2 0x3AFB PUSH0 DUP4 ADD DUP5 PUSH2 0x3AD9 JUMP JUMPDEST SWAP3 SWAP2 POP POP JUMP JUMPDEST PUSH0 DUP2 SWAP1 POP SWAP2 SWAP1 POP JUMP JUMPDEST PUSH2 0x3B13 DUP2 PUSH2 0x3B01 JUMP JUMPDEST DUP2 EQ PUSH2 0x3B1D JUMPI PUSH0 PUSH0 REVERT JUMPDEST POP JUMP JUMPDEST PUSH0 DUP2 CALLDATALOAD SWAP1 POP PUSH2 0x3B2E DUP2 PUSH2 0x3B0A JUMP JUMPDEST SWAP3 SWAP2 POP POP JUMP JUMPDEST PUSH0 PUSH8 0xFFFFFFFFFFFFFFFF DUP3 GT ISZERO PUSH2 0x3B4E JUMPI PUSH2 0x3B4D PUSH2 0x370A JUMP JUMPDEST JUMPDEST PUSH2 0x3B57 DUP3 PUSH2 0x36FA JUMP JUMPDEST SWAP1 POP PUSH1 0x20 DUP2 ADD SWAP1 POP SWAP2 SWAP1 POP JUMP JUMPDEST PUSH0 PUSH2 0x3B76 PUSH2 0x3B71 DUP5 PUSH2 0x3B34 JUMP JUMPDEST PUSH2 0x3768 JUMP JUMPDEST SWAP1 POP DUP3 DUP2 MSTORE PUSH1 0x20 DUP2 ADD DUP5 DUP5 DUP5 ADD GT ISZERO PUSH2 0x3B92 JUMPI PUSH2 0x3B91 PUSH2 0x36F6 JUMP JUMPDEST JUMPDEST PUSH2 0x3B9D DUP5 DUP3 DUP6 PUSH2 0x37B2 JUMP JUMPDEST POP SWAP4 SWAP3 POP POP POP JUMP JUMPDEST PUSH0 DUP3 PUSH1 0x1F DUP4 ADD SLT PUSH2 0x3BB9 JUMPI PUSH2 0x3BB8 PUSH2 0x36F2 JUMP JUMPDEST JUMPDEST DUP2 CALLDATALOAD PUSH2 0x3BC9 DUP5 DUP3 PUSH1 0x20 DUP7 ADD PUSH2 0x3B64 JUMP JUMPDEST SWAP2 POP POP SWAP3 SWAP2 POP POP JUMP JUMPDEST PUSH0 PUSH0 PUSH0 PUSH1 0x60 DUP5 DUP7 SUB SLT ISZERO PUSH2 0x3BE9 JUMPI PUSH2 0x3BE8 PUSH2 0x36EA JUMP JUMPDEST JUMPDEST PUSH0 PUSH2 0x3BF6 DUP7 DUP3 DUP8 ADD PUSH2 0x3B20 JUMP JUMPDEST SWAP4 POP POP PUSH1 0x20 DUP5 ADD CALLDATALOAD PUSH8 0xFFFFFFFFFFFFFFFF DUP2 GT ISZERO PUSH2 0x3C17 JUMPI PUSH2 0x3C16 PUSH2 0x36EE JUMP JUMPDEST JUMPDEST PUSH2 0x3C23 DUP7 DUP3 DUP8 ADD PUSH2 0x3BA5 JUMP JUMPDEST SWAP3 POP POP PUSH1 0x40 DUP5 ADD CALLDATALOAD PUSH8 0xFFFFFFFFFFFFFFFF DUP2 GT ISZERO PUSH2 0x3C44 JUMPI PUSH2 0x3C43 PUSH2 0x36EE JUMP JUMPDEST JUMPDEST PUSH2 0x3C50 DUP7 DUP3 DUP8 ADD PUSH2 0x3BA5 JUMP JUMPDEST SWAP2 POP POP SWAP3 POP SWAP3 POP SWAP3 JUMP JUMPDEST PUSH0 PUSH0 PUSH1 0x40 DUP4 DUP6 SUB SLT ISZERO PUSH2 0x3C70 JUMPI PUSH2 0x3C6F PUSH2 0x36EA JUMP JUMPDEST JUMPDEST PUSH0 PUSH2 0x3C7D DUP6 DUP3 DUP7 ADD PUSH2 0x39C7 JUMP JUMPDEST SWAP3 POP POP PUSH1 0x20 PUSH2 0x3C8E DUP6 DUP3 DUP7 ADD PUSH2 0x39C7 JUMP JUMPDEST SWAP2 POP POP SWAP3 POP SWAP3 SWAP1 POP JUMP JUMPDEST PUSH0 PUSH0 PUSH0 PUSH1 0x60 DUP5 DUP7 SUB SLT ISZERO PUSH2 0x3CAF JUMPI PUSH2 0x3CAE PUSH2 0x36EA JUMP JUMPDEST JUMPDEST PUSH0 PUSH2 0x3CBC DUP7 DUP3 DUP8 ADD PUSH2 0x3A74 JUMP JUMPDEST SWAP4 POP POP PUSH1 0x20 PUSH2 0x3CCD DUP7 DUP3 DUP8 ADD PUSH2 0x3A74 JUMP JUMPDEST SWAP3 POP POP PUSH1 0x40 PUSH2 0x3CDE DUP7 DUP3 DUP8 ADD PUSH2 0x39C7 JUMP JUMPDEST SWAP2 POP POP SWAP3 POP SWAP3 POP SWAP3 JUMP JUMPDEST PUSH2 0x3CF1 DUP2 PUSH2 0x39A8 JUMP JUMPDEST DUP3 MSTORE POP POP JUMP JUMPDEST PUSH0 PUSH1 0x20 DUP3 ADD SWAP1 POP PUSH2 0x3D0A PUSH0 DUP4 ADD DUP5 PUSH2 0x3CE8 JUMP JUMPDEST SWAP3 SWAP2 POP POP JUMP JUMPDEST PUSH0 PUSH0 REVERT JUMPDEST PUSH0 PUSH0 REVERT JUMPDEST PUSH0 PUSH0 DUP4 PUSH1 0x1F DUP5 ADD SLT PUSH2 0x3D2D JUMPI PUSH2 0x3D2C PUSH2 0x36F2 JUMP JUMPDEST JUMPDEST DUP3 CALLDATALOAD SWAP1 POP PUSH8 0xFFFFFFFFFFFFFFFF DUP2 GT ISZERO PUSH2 0x3D4A JUMPI PUSH2 0x3D49 PUSH2 0x3D10 JUMP JUMPDEST JUMPDEST PUSH1 0x20 DUP4 ADD SWAP2 POP DUP4 PUSH1 0x1 DUP3 MUL DUP4 ADD GT ISZERO PUSH2 0x3D66 JUMPI PUSH2 0x3D65 PUSH2 0x3D14 JUMP JUMPDEST JUMPDEST SWAP3 POP SWAP3 SWAP1 POP JUMP JUMPDEST PUSH0 PUSH0 PUSH1 0x20 DUP4 DUP6 SUB SLT ISZERO PUSH2 0x3D83 JUMPI PUSH2 0x3D82 PUSH2 0x36EA JUMP JUMPDEST JUMPDEST PUSH0 DUP4 ADD CALLDATALOAD PUSH8 0xFFFFFFFFFFFFFFFF DUP2 GT ISZERO PUSH2 0x3DA0 JUMPI PUSH2 0x3D9F PUSH2 0x36EE JUMP JUMPDEST JUMPDEST PUSH2 0x3DAC DUP6 DUP3 DUP7 ADD PUSH2 0x3D18 JUMP JUMPDEST SWAP3 POP SWAP3 POP POP SWAP3 POP SWAP3 SWAP1 POP JUMP JUMPDEST PUSH0 PUSH1 0x20 DUP3 DUP5 SUB SLT ISZERO PUSH2 0x3DCD JUMPI PUSH2 0x3DCC PUSH2 0x36EA JUMP JUMPDEST JUMPDEST PUSH0 PUSH2 0x3DDA DUP5 DUP3 DUP6 ADD PUSH2 0x3B20 JUMP JUMPDEST SWAP2 POP POP SWAP3 SWAP2 POP POP JUMP JUMPDEST PUSH0 DUP2 MLOAD SWAP1 POP SWAP2 SWAP1 POP JUMP JUMPDEST PUSH0 DUP3 DUP3 MSTORE PUSH1 0x20 DUP3 ADD SWAP1 POP SWAP3 SWAP2 POP POP JUMP JUMPDEST PUSH0 PUSH2 0x3E07 DUP3 PUSH2 0x3DE3 JUMP JUMPDEST PUSH2 0x3E11 DUP2 DUP6 PUSH2 0x3DED JUMP JUMPDEST SWAP4 POP PUSH2 0x3E21 DUP2 DUP6 PUSH1 0x20 DUP7 ADD PUSH2 0x3942 JUMP JUMPDEST PUSH2 0x3E2A DUP2 PUSH2 0x36FA JUMP JUMPDEST DUP5 ADD SWAP2 POP POP SWAP3 SWAP2 POP POP JUMP JUMPDEST PUSH0 PUSH1 0x40 DUP3 ADD SWAP1 POP PUSH2 0x3E48 PUSH0 DUP4 ADD DUP6 PUSH2 0x3900 JUMP JUMPDEST DUP2 DUP2 SUB PUSH1 0x20 DUP4 ADD MSTORE PUSH2 0x3E5A DUP2 DUP5 PUSH2 0x3DFD JUMP JUMPDEST SWAP1 POP SWAP4 SWAP3 POP POP POP JUMP JUMPDEST PUSH0 PUSH1 0x20 DUP3 DUP5 SUB SLT ISZERO PUSH2 0x3E78 JUMPI PUSH2 0x3E77 PUSH2 0x36EA JUMP JUMPDEST JUMPDEST PUSH0 PUSH2 0x3E85 DUP5 DUP3 DUP6 ADD PUSH2 0x3A74 JUMP JUMPDEST SWAP2 POP POP SWAP3 SWAP2 POP POP JUMP JUMPDEST PUSH2 0x3E97 DUP2 PUSH2 0x38F5 JUMP JUMPDEST DUP2 EQ PUSH2 0x3EA1 JUMPI PUSH0 PUSH0 REVERT JUMPDEST POP JUMP JUMPDEST PUSH0 DUP2 CALLDATALOAD SWAP1 POP PUSH2 0x3EB2 DUP2 PUSH2 0x3E8E JUMP JUMPDEST SWAP3 SWAP2 POP POP JUMP JUMPDEST PUSH0 PUSH0 PUSH1 0x40 DUP4 DUP6 SUB SLT ISZERO PUSH2 0x3ECE JUMPI PUSH2 0x3ECD PUSH2 0x36EA JUMP JUMPDEST JUMPDEST PUSH0 PUSH2 0x3EDB DUP6 DUP3 DUP7 ADD PUSH2 0x3A74 JUMP JUMPDEST SWAP3 POP POP PUSH1 0x20 PUSH2 0x3EEC DUP6 DUP3 DUP7 ADD PUSH2 0x3EA4 JUMP JUMPDEST SWAP2 POP POP SWAP3 POP SWAP3 SWAP1 POP JUMP JUMPDEST PUSH0 PUSH1 0xE0 DUP3 ADD SWAP1 POP DUP2 DUP2 SUB PUSH0 DUP4 ADD MSTORE PUSH2 0x3F0E DUP2 DUP11 PUSH2 0x3950 JUMP JUMPDEST SWAP1 POP DUP2 DUP2 SUB PUSH1 0x20 DUP4 ADD MSTORE PUSH2 0x3F22 DUP2 DUP10 PUSH2 0x3950 JUMP JUMPDEST SWAP1 POP PUSH2 0x3F31 PUSH1 0x40 DUP4 ADD DUP9 PUSH2 0x3AD9 JUMP JUMPDEST PUSH2 0x3F3E PUSH1 0x60 DUP4 ADD DUP8 PUSH2 0x3AD9 JUMP JUMPDEST PUSH2 0x3F4B PUSH1 0x80 DUP4 ADD DUP7 PUSH2 0x3AD9 JUMP JUMPDEST PUSH2 0x3F58 PUSH1 0xA0 DUP4 ADD DUP6 PUSH2 0x3AD9 JUMP JUMPDEST DUP2 DUP2 SUB PUSH1 0xC0 DUP4 ADD MSTORE PUSH2 0x3F6A DUP2 DUP5 PUSH2 0x3950 JUMP JUMPDEST SWAP1 POP SWAP9 SWAP8 POP POP POP POP POP POP POP POP JUMP JUMPDEST PUSH0 PUSH0 PUSH0 PUSH0 PUSH1 0x80 DUP6 DUP8 SUB SLT ISZERO PUSH2 0x3F90 JUMPI PUSH2 0x3F8F PUSH2 0x36EA JUMP JUMPDEST JUMPDEST PUSH0 PUSH2 0x3F9D DUP8 DUP3 DUP9 ADD PUSH2 0x3A74 JUMP JUMPDEST SWAP5 POP POP PUSH1 0x20 PUSH2 0x3FAE DUP8 DUP3 DUP9 ADD PUSH2 0x3A74 JUMP JUMPDEST SWAP4 POP POP PUSH1 0x40 PUSH2 0x3FBF DUP8 DUP3 DUP9 ADD PUSH2 0x39C7 JUMP JUMPDEST SWAP3 POP POP PUSH1 0x60 DUP6 ADD CALLDATALOAD PUSH8 0xFFFFFFFFFFFFFFFF DUP2 GT ISZERO PUSH2 0x3FE0 JUMPI PUSH2 0x3FDF PUSH2 0x36EE JUMP JUMPDEST JUMPDEST PUSH2 0x3FEC DUP8 DUP3 DUP9 ADD PUSH2 0x3BA5 JUMP JUMPDEST SWAP2 POP POP SWAP3 SWAP6 SWAP2 SWAP5 POP SWAP3 POP JUMP JUMPDEST PUSH0 PUSH0 PUSH1 0x40 DUP4 DUP6 SUB SLT ISZERO PUSH2 0x400E JUMPI PUSH2 0x400D PUSH2 0x36EA JUMP JUMPDEST JUMPDEST PUSH0 PUSH2 0x401B DUP6 DUP3 DUP7 ADD PUSH2 0x3A74 JUMP JUMPDEST SWAP3 POP POP PUSH1 0x20 PUSH2 0x402C DUP6 DUP3 DUP7 ADD PUSH2 0x3A74 JUMP JUMPDEST SWAP2 POP POP SWAP3 POP SWAP3 SWAP1 POP JUMP JUMPDEST PUSH0 PUSH0 PUSH0 PUSH1 0x60 DUP5 DUP7 SUB SLT ISZERO PUSH2 0x404D JUMPI PUSH2 0x404C PUSH2 0x36EA JUMP JUMPDEST JUMPDEST PUSH0 PUSH2 0x405A DUP7 DUP3 DUP8 ADD PUSH2 0x3A74 JUMP JUMPDEST SWAP4 POP POP PUSH1 0x20 DUP5 ADD CALLDATALOAD PUSH8 0xFFFFFFFFFFFFFFFF DUP2 GT ISZERO PUSH2 0x407B JUMPI PUSH2 0x407A PUSH2 0x36EE JUMP JUMPDEST JUMPDEST PUSH2 0x4087 DUP7 DUP3 DUP8 ADD PUSH2 0x3801 JUMP JUMPDEST SWAP3 POP POP PUSH1 0x40 DUP5 ADD CALLDATALOAD PUSH8 0xFFFFFFFFFFFFFFFF DUP2 GT ISZERO PUSH2 0x40A8 JUMPI PUSH2 0x40A7 PUSH2 0x36EE JUMP JUMPDEST JUMPDEST PUSH2 0x40B4 DUP7 DUP3 DUP8 ADD PUSH2 0x3801 JUMP JUMPDEST SWAP2 POP POP SWAP3 POP SWAP3 POP SWAP3 JUMP JUMPDEST PUSH32 0x4E487B7100000000000000000000000000000000000000000000000000000000 PUSH0 MSTORE PUSH1 0x22 PUSH1 0x4 MSTORE PUSH1 0x24 PUSH0 REVERT JUMPDEST PUSH0 PUSH1 0x2 DUP3 DIV SWAP1 POP PUSH1 0x1 DUP3 AND DUP1 PUSH2 0x4102 JUMPI PUSH1 0x7F DUP3 AND SWAP2 POP JUMPDEST PUSH1 0x20 DUP3 LT DUP2 SUB PUSH2 0x4115 JUMPI PUSH2 0x4114 PUSH2 0x40BE JUMP JUMPDEST JUMPDEST POP SWAP2 SWAP1 POP JUMP JUMPDEST PUSH0 DUP2 SWAP1 POP DUP2 PUSH0 MSTORE PUSH1 0x20 PUSH0 KECCAK256 SWAP1 POP SWAP2 SWAP1 POP JUMP JUMPDEST PUSH0 PUSH1 0x20 PUSH1 0x1F DUP4 ADD DIV SWAP1 POP SWAP2 SWAP1 POP JUMP JUMPDEST PUSH0 DUP3 DUP3 SHL SWAP1 POP SWAP3 SWAP2 POP POP JUMP JUMPDEST PUSH0 PUSH1 0x8 DUP4 MUL PUSH2 0x4177 PUSH32 0xFFFFFFFFFFFFFFFFFFFFFFFFFFFFFFFFFFFFFFFFFFFFFFFFFFFFFFFFFFFFFFFF DUP3 PUSH2 0x413C JUMP JUMPDEST PUSH2 0x4181 DUP7 DUP4 PUSH2 0x413C JUMP JUMPDEST SWAP6 POP DUP1 NOT DUP5 AND SWAP4 POP DUP1 DUP7 AND DUP5 OR SWAP3 POP POP POP SWAP4 SWAP3 POP POP POP JUMP JUMPDEST PUSH0 DUP2 SWAP1 POP SWAP2 SWAP1 POP JUMP JUMPDEST PUSH0 PUSH2 0x41BC PUSH2 0x41B7 PUSH2 0x41B2 DUP5 PUSH2 0x39A8 JUMP JUMPDEST PUSH2 0x4199 JUMP JUMPDEST PUSH2 0x39A8 JUMP JUMPDEST SWAP1 POP SWAP2 SWAP1 POP JUMP JUMPDEST PUSH0 DUP2 SWAP1 POP SWAP2 SWAP1 POP JUMP JUMPDEST PUSH2 0x41D5 DUP4 PUSH2 0x41A2 JUMP JUMPDEST PUSH2 0x41E9 PUSH2 0x41E1 DUP3 PUSH2 0x41C3 JUMP JUMPDEST DUP5 DUP5 SLOAD PUSH2 0x4148 JUMP JUMPDEST DUP3 SSTORE POP POP POP POP JUMP JUMPDEST PUSH0 PUSH0 SWAP1 POP SWAP1 JUMP JUMPDEST PUSH2 0x4200 PUSH2 0x41F1 JUMP JUMPDEST PUSH2 0x420B DUP2 DUP5 DUP5 PUSH2 0x41CC JUMP JUMPDEST POP POP POP JUMP JUMPDEST PUSH0 JUMPDEST DUP3 DUP2 LT ISZERO PUSH2 0x4231 JUMPI PUSH2 0x4226 PUSH0 DUP3 DUP5 ADD PUSH2 0x41F8 JUMP JUMPDEST PUSH1 0x1 DUP2 ADD SWAP1 POP PUSH2 0x4212 JUMP JUMPDEST POP POP POP JUMP JUMPDEST PUSH1 0x1F DUP3 GT ISZERO PUSH2 0x4284 JUMPI DUP3 DUP3 GT ISZERO PUSH2 0x4283 JUMPI PUSH2 0x4250 DUP2 PUSH2 0x411B JUMP JUMPDEST PUSH2 0x4259 DUP4 PUSH2 0x412D JUMP JUMPDEST PUSH2 0x4262 DUP6 PUSH2 0x412D JUMP JUMPDEST PUSH1 0x20 DUP7 LT ISZERO PUSH2 0x426F JUMPI PUSH0 SWAP1 POP JUMPDEST DUP1 DUP4 ADD PUSH2 0x427E DUP3 DUP5 SUB DUP3 PUSH2 0x4210 JUMP JUMPDEST POP POP POP POP JUMPDEST JUMPDEST POP POP POP JUMP JUMPDEST PUSH0 DUP3 DUP3 SHR SWAP1 POP SWAP3 SWAP2 POP POP JUMP JUMPDEST PUSH0 PUSH2 0x42A4 PUSH0 NOT DUP5 PUSH1 0x8 MUL PUSH2 0x4289 JUMP JUMPDEST NOT DUP1 DUP4 AND SWAP2 POP POP SWAP3 SWAP2 POP POP JUMP JUMPDEST PUSH0 PUSH2 0x42BC DUP4 DUP4 PUSH2 0x4295 JUMP JUMPDEST SWAP2 POP DUP3 PUSH1 0x2 MUL DUP3 OR SWAP1 POP SWAP3 SWAP2 POP POP JUMP JUMPDEST PUSH2 0x42D5 DUP3 PUSH2 0x3928 JUMP JUMPDEST PUSH8 0xFFFFFFFFFFFFFFFF DUP2 GT ISZERO PUSH2 0x42EE JUMPI PUSH2 0x42ED PUSH2 0x370A JUMP JUMPDEST JUMPDEST PUSH2 0x42F8 DUP3 SLOAD PUSH2 0x40EB JUMP JUMPDEST PUSH2 0x4303 DUP3 DUP3 DUP6 PUSH2 0x4236 JUMP JUMPDEST PUSH0 PUSH1 0x20 SWAP1 POP PUSH1 0x1F DUP4 GT PUSH1 0x1 DUP2 EQ PUSH2 0x4334 JUMPI PUSH0 DUP5 ISZERO PUSH2 0x4322 JUMPI DUP3 DUP8 ADD MLOAD SWAP1 POP JUMPDEST PUSH2 0x432C DUP6 DUP3 PUSH2 0x42B1 JUMP JUMPDEST DUP7 SSTORE POP PUSH2 0x4393 JUMP JUMPDEST PUSH1 0x1F NOT DUP5 AND PUSH2 0x4342 DUP7 PUSH2 0x411B JUMP JUMPDEST PUSH0 JUMPDEST DUP3 DUP2 LT ISZERO PUSH2 0x4369 JUMPI DUP5 DUP10 ADD MLOAD DUP3 SSTORE PUSH1 0x1 DUP3 ADD SWAP2 POP PUSH1 0x20 DUP6 ADD SWAP5 POP PUSH1 0x20 DUP2 ADD SWAP1 POP PUSH2 0x4344 JUMP JUMPDEST DUP7 DUP4 LT ISZERO PUSH2 0x4386 JUMPI DUP5 DUP10 ADD MLOAD PUSH2 0x4382 PUSH1 0x1F DUP10 AND DUP3 PUSH2 0x4295 JUMP JUMPDEST DUP4 SSTORE POP JUMPDEST PUSH1 0x1 PUSH1 0x2 DUP9 MUL ADD DUP9 SSTORE POP POP POP JUMPDEST POP POP POP POP POP POP JUMP JUMPDEST PUSH0 PUSH1 0x60 DUP3 ADD SWAP1 POP PUSH2 0x43AE PUSH0 DUP4 ADD DUP7 PUSH2 0x3A36 JUMP JUMPDEST PUSH2 0x43BB PUSH1 0x20 DUP4 ADD DUP6 PUSH2 0x3CE8 JUMP JUMPDEST PUSH2 0x43C8 PUSH1 0x40 DUP4 ADD DUP5 PUSH2 0x3A36 JUMP JUMPDEST SWAP5 SWAP4 POP POP POP POP JUMP JUMPDEST PUSH32 0x4E487B7100000000000000000000000000000000000000000000000000000000 PUSH0 MSTORE PUSH1 0x11 PUSH1 0x4 MSTORE PUSH1 0x24 PUSH0 REVERT JUMPDEST PUSH0 PUSH2 0x4407 DUP3 PUSH2 0x39A8 JUMP JUMPDEST SWAP2 POP PUSH2 0x4412 DUP4 PUSH2 0x39A8 JUMP JUMPDEST SWAP3 POP DUP3 DUP3 SUB SWAP1 POP DUP2 DUP2 GT ISZERO PUSH2 0x442A JUMPI PUSH2 0x4429 PUSH2 0x43D0 JUMP JUMPDEST JUMPDEST SWAP3 SWAP2 POP POP JUMP JUMPDEST PUSH32 0x7B226E616D65223A20224B61727475204E6F6E2D4F7074696D697A6564202300 DUP2 MSTORE POP JUMP JUMPDEST PUSH0 DUP2 SWAP1 POP SWAP3 SWAP2 POP POP JUMP JUMPDEST PUSH0 PUSH2 0x446A DUP3 PUSH2 0x3928 JUMP JUMPDEST PUSH2 0x4474 DUP2 DUP6 PUSH2 0x4456 JUMP JUMPDEST SWAP4 POP PUSH2 0x4484 DUP2 DUP6 PUSH1 0x20 DUP7 ADD PUSH2 0x3942 JUMP JUMPDEST DUP1 DUP5 ADD SWAP2 POP POP SWAP3 SWAP2 POP POP JUMP JUMPDEST PUSH32 0x222C200000000000000000000000000000000000000000000000000000000000 DUP2 MSTORE POP JUMP JUMPDEST PUSH32 0x226465736372697074696F6E223A20224B6172747520644E4654204D504C2028 PUSH0 DUP3 ADD MSTORE PUSH32 0x4D6F64656C2041292E204D656E6767756E616B616E206D656D6F726920537461 PUSH1 0x20 DUP3 ADD MSTORE PUSH32 0x74652053746F72616765207365636172612070656E756820756E74756B207065 PUSH1 0x40 DUP3 ADD MSTORE PUSH32 0x6D62756B7469616E2072697365742E222C200000000000000000000000000000 PUSH1 0x60 DUP3 ADD MSTORE POP JUMP JUMPDEST PUSH0 PUSH2 0x455C PUSH1 0x72 DUP4 PUSH2 0x4456 JUMP JUMPDEST SWAP2 POP PUSH2 0x4567 DUP3 PUSH2 0x44B6 JUMP JUMPDEST PUSH1 0x72 DUP3 ADD SWAP1 POP SWAP2 SWAP1 POP JUMP JUMPDEST PUSH32 0x22696D616765223A2022646174613A696D6167652F7376672B786D6C3B626173 PUSH0 DUP3 ADD MSTORE PUSH32 0x6536342C00000000000000000000000000000000000000000000000000000000 PUSH1 0x20 DUP3 ADD MSTORE POP JUMP JUMPDEST PUSH0 PUSH2 0x45CC PUSH1 0x24 DUP4 PUSH2 0x4456 JUMP JUMPDEST SWAP2 POP PUSH2 0x45D7 DUP3 PUSH2 0x4572 JUMP JUMPDEST PUSH1 0x24 DUP3 ADD SWAP1 POP SWAP2 SWAP1 POP JUMP JUMPDEST PUSH32 0x227D000000000000000000000000000000000000000000000000000000000000 DUP2 MSTORE POP JUMP JUMPDEST PUSH0 PUSH2 0x4612 DUP3 PUSH2 0x4430 JUMP JUMPDEST PUSH1 0x1F DUP3 ADD SWAP2 POP PUSH2 0x4622 DUP3 DUP6 PUSH2 0x4460 JUMP JUMPDEST SWAP2 POP PUSH2 0x462D DUP3 PUSH2 0x4490 JUMP JUMPDEST PUSH1 0x3 DUP3 ADD SWAP2 POP PUSH2 0x463C DUP3 PUSH2 0x4550 JUMP JUMPDEST SWAP2 POP PUSH2 0x4647 DUP3 PUSH2 0x45C0 JUMP JUMPDEST SWAP2 POP PUSH2 0x4653 DUP3 DUP5 PUSH2 0x4460 JUMP JUMPDEST SWAP2 POP PUSH2 0x465E DUP3 PUSH2 0x45E2 JUMP JUMPDEST PUSH1 0x2 DUP3 ADD SWAP2 POP DUP2 SWAP1 POP SWAP4 SWAP3 POP POP POP JUMP JUMPDEST PUSH32 0x646174613A6170706C69636174696F6E2F6A736F6E3B6261736536342C000000 DUP2 MSTORE POP JUMP JUMPDEST PUSH0 PUSH2 0x469E DUP3 PUSH2 0x466E JUMP JUMPDEST PUSH1 0x1D DUP3 ADD SWAP2 POP PUSH2 0x46AE DUP3 DUP5 PUSH2 0x4460 JUMP JUMPDEST SWAP2 POP DUP2 SWAP1 POP SWAP3 SWAP2 POP POP JUMP JUMPDEST PUSH0 PUSH2 0x46C3 DUP3 PUSH2 0x39A8 JUMP JUMPDEST SWAP2 POP PUSH32 0xFFFFFFFFFFFFFFFFFFFFFFFFFFFFFFFFFFFFFFFFFFFFFFFFFFFFFFFFFFFFFFFF DUP3 SUB PUSH2 0x46F5 JUMPI PUSH2 0x46F4 PUSH2 0x43D0 JUMP JUMPDEST JUMPDEST PUSH1 0x1 DUP3 ADD SWAP1 POP SWAP2 SWAP1 POP JUMP JUMPDEST PUSH32 0x4F7261636C65204572726F720000000000000000000000000000000000000000 PUSH0 DUP3 ADD MSTORE POP JUMP JUMPDEST PUSH0 PUSH2 0x4734 PUSH1 0xC DUP4 PUSH2 0x3932 JUMP JUMPDEST SWAP2 POP PUSH2 0x473F DUP3 PUSH2 0x4700 JUMP JUMPDEST PUSH1 0x20 DUP3 ADD SWAP1 POP SWAP2 SWAP1 POP JUMP JUMPDEST PUSH0 PUSH1 0x20 DUP3 ADD SWAP1 POP DUP2 DUP2 SUB PUSH0 DUP4 ADD MSTORE PUSH2 0x4761 DUP2 PUSH2 0x4728 JUMP JUMPDEST SWAP1 POP SWAP2 SWAP1 POP JUMP JUMPDEST PUSH0 DUP2 MLOAD SWAP1 POP PUSH2 0x4776 DUP2 PUSH2 0x39B1 JUMP JUMPDEST SWAP3 SWAP2 POP POP JUMP JUMPDEST PUSH0 PUSH1 0x20 DUP3 DUP5 SUB SLT ISZERO PUSH2 0x4791 JUMPI PUSH2 0x4790 PUSH2 0x36EA JUMP JUMPDEST JUMPDEST PUSH0 PUSH2 0x479E DUP5 DUP3 DUP6 ADD PUSH2 0x4768 JUMP JUMPDEST SWAP2 POP POP SWAP3 SWAP2 POP POP JUMP JUMPDEST PUSH32 0x4E487B7100000000000000000000000000000000000000000000000000000000 PUSH0 MSTORE PUSH1 0x32 PUSH1 0x4 MSTORE PUSH1 0x24 PUSH0 REVERT JUMPDEST PUSH0 PUSH1 0x80 DUP3 ADD SWAP1 POP PUSH2 0x47E7 PUSH0 DUP4 ADD DUP8 PUSH2 0x3A36 JUMP JUMPDEST PUSH2 0x47F4 PUSH1 0x20 DUP4 ADD DUP7 PUSH2 0x3A36 JUMP JUMPDEST PUSH2 0x4801 PUSH1 0x40 DUP4 ADD DUP6 PUSH2 0x3CE8 JUMP JUMPDEST DUP2 DUP2 SUB PUSH1 0x60 DUP4 ADD MSTORE PUSH2 0x4813 DUP2 DUP5 PUSH2 0x3DFD JUMP JUMPDEST SWAP1 POP SWAP6 SWAP5 POP POP POP POP POP JUMP JUMPDEST PUSH0 DUP2 MLOAD SWAP1 POP PUSH2 0x482C DUP2 PUSH2 0x38A0 JUMP JUMPDEST SWAP3 SWAP2 POP POP JUMP JUMPDEST PUSH0 PUSH1 0x20 DUP3 DUP5 SUB SLT ISZERO PUSH2 0x4847 JUMPI PUSH2 0x4846 PUSH2 0x36EA JUMP JUMPDEST JUMPDEST PUSH0 PUSH2 0x4854 DUP5 DUP3 DUP6 ADD PUSH2 0x481E JUMP JUMPDEST SWAP2 POP POP SWAP3 SWAP2 POP POP JUMP JUMPDEST PUSH32 0x4E487B7100000000000000000000000000000000000000000000000000000000 PUSH0 MSTORE PUSH1 0x12 PUSH1 0x4 MSTORE PUSH1 0x24 PUSH0 REVERT JUMPDEST PUSH0 PUSH2 0x4894 DUP3 PUSH2 0x39A8 JUMP JUMPDEST SWAP2 POP PUSH2 0x489F DUP4 PUSH2 0x39A8 JUMP JUMPDEST SWAP3 POP DUP3 DUP3 ADD SWAP1 POP DUP1 DUP3 GT ISZERO PUSH2 0x48B7 JUMPI PUSH2 0x48B6 PUSH2 0x43D0 JUMP JUMPDEST JUMPDEST SWAP3 SWAP2 POP POP JUMP JUMPDEST PUSH0 PUSH2 0x48C7 DUP3 PUSH2 0x39A8 JUMP JUMPDEST SWAP2 POP PUSH2 0x48D2 DUP4 PUSH2 0x39A8 JUMP JUMPDEST SWAP3 POP DUP3 DUP3 MUL PUSH2 0x48E0 DUP2 PUSH2 0x39A8 JUMP JUMPDEST SWAP2 POP DUP3 DUP3 DIV DUP5 EQ DUP4 ISZERO OR PUSH2 0x48F7 JUMPI PUSH2 0x48F6 PUSH2 0x43D0 JUMP JUMPDEST JUMPDEST POP SWAP3 SWAP2 POP POP JUMP JUMPDEST PUSH0 PUSH2 0x4908 DUP3 PUSH2 0x39A8 JUMP JUMPDEST SWAP2 POP PUSH2 0x4913 DUP4 PUSH2 0x39A8 JUMP JUMPDEST SWAP3 POP DUP3 PUSH2 0x4923 JUMPI PUSH2 0x4922 PUSH2 0x485D JUMP JUMPDEST JUMPDEST DUP3 DUP3 DIV SWAP1 POP SWAP3 SWAP2 POP POP JUMP JUMPDEST PUSH0 PUSH2 0x4938 DUP3 PUSH2 0x39A8 JUMP JUMPDEST SWAP2 POP PUSH2 0x4943 DUP4 PUSH2 0x39A8 JUMP JUMPDEST SWAP3 POP DUP3 PUSH2 0x4953 JUMPI PUSH2 0x4952 PUSH2 0x485D JUMP JUMPDEST JUMPDEST DUP3 DUP3 MOD SWAP1 POP SWAP3 SWAP2 POP POP JUMP JUMPDEST PUSH32 0x2E00000000000000000000000000000000000000000000000000000000000000 DUP2 MSTORE POP JUMP JUMPDEST PUSH0 PUSH2 0x498F DUP3 DUP6 PUSH2 0x4460 JUMP JUMPDEST SWAP2 POP PUSH2 0x499A DUP3 PUSH2 0x495E JUMP JUMPDEST PUSH1 0x1 DUP3 ADD SWAP2 POP PUSH2 0x49AA DUP3 DUP5 PUSH2 0x4460 JUMP JUMPDEST SWAP2 POP DUP2 SWAP1 POP SWAP4 SWAP3 POP POP POP JUMP JUMPDEST PUSH32 0x3C7376672077696474683D2233323022206865696768743D2234303022207669 PUSH0 DUP3 ADD MSTORE PUSH32 0x6577426F783D2230203020333230203430302220786D6C6E733D22687474703A PUSH1 0x20 DUP3 ADD MSTORE PUSH32 0x2F2F7777772E77332E6F72672F323030302F737667223E000000000000000000 PUSH1 0x40 DUP3 ADD MSTORE POP JUMP JUMPDEST PUSH0 PUSH2 0x4A36 PUSH1 0x57 DUP4 PUSH2 0x4456 JUMP JUMPDEST SWAP2 POP PUSH2 0x4A41 DUP3 PUSH2 0x49B6 JUMP JUMPDEST PUSH1 0x57 DUP3 ADD SWAP1 POP SWAP2 SWAP1 POP JUMP JUMPDEST PUSH32 0x3C672073686170652D72656E646572696E673D2263726973704564676573223E PUSH0 DUP3 ADD MSTORE PUSH32 0x3C7265637420783D22302220793D2230222077696474683D2233323022206865 PUSH1 0x20 DUP3 ADD MSTORE PUSH32 0x696768743D22343030222066696C6C3D2223313531353135222F3E3C72656374 PUSH1 0x40 DUP3 ADD MSTORE PUSH32 0x20783D22382220793D2238222077696474683D2233303422206865696768743D PUSH1 0x60 DUP3 ADD MSTORE PUSH32 0x22333834222066696C6C3D2223303232663532222F3E3C7465787420783D2231 PUSH1 0x80 DUP3 ADD MSTORE PUSH32 0x36302220793D223430222066696C6C3D22236563663066312220666F6E742D73 PUSH1 0xA0 DUP3 ADD MSTORE PUSH32 0x697A653D2232302220746578742D616E63686F723D226D6964646C652220666F PUSH1 0xC0 DUP3 ADD MSTORE PUSH32 0x6E742D7765696768743D22626F6C64223E504C4159455220434152443C2F7465 PUSH1 0xE0 DUP3 ADD MSTORE PUSH32 0x78743E3C6C696E652078313D223230222079313D223535222078323D22333030 PUSH2 0x100 DUP3 ADD MSTORE PUSH32 0x222079323D22353522207374726F6B653D222365636630663122207374726F6B PUSH2 0x120 DUP3 ADD MSTORE PUSH32 0x652D77696474683D2234222F3E3C2F673E000000000000000000000000000000 PUSH2 0x140 DUP3 ADD MSTORE POP JUMP JUMPDEST PUSH0 PUSH2 0x4C00 PUSH2 0x151 DUP4 PUSH2 0x4456 JUMP JUMPDEST SWAP2 POP PUSH2 0x4C0B DUP3 PUSH2 0x4A4C JUMP JUMPDEST PUSH2 0x151 DUP3 ADD SWAP1 POP SWAP2 SWAP1 POP JUMP JUMPDEST PUSH32 0x3C73766720783D2231302220793D223330222077696474683D22313430222068 PUSH0 DUP3 ADD MSTORE PUSH32 0x65696768743D22333830222076696577426F783D223020302033322033322220 PUSH1 0x20 DUP3 ADD MSTORE PUSH32 0x73686170652D72656E646572696E673D2263726973704564676573223E3C6720 PUSH1 0x40 DUP3 ADD MSTORE PUSH32 0x7472616E73666F726D3D227472616E736C6174652833322C203029207363616C PUSH1 0x60 DUP3 ADD MSTORE PUSH32 0x65282D312C203129223E3C706174682066696C6C3D2223303030303030222064 PUSH1 0x80 DUP3 ADD MSTORE PUSH32 0x3D224D3131203268313076314831317A204D3920336832763148397A204D3231 PUSH1 0xA0 DUP3 ADD MSTORE PUSH32 0x2033683276314832317A204D3820346831763148387A204D3233203468317631 PUSH1 0xC0 DUP3 ADD MSTORE PUSH32 0x4832337A204D3820356831763148387A204D32342035683176314832347A204D PUSH1 0xE0 DUP3 ADD MSTORE PUSH32 0x3820366831763148387A204D32342036683176314832347A204D382037683176 PUSH2 0x100 DUP3 ADD MSTORE PUSH32 0x3148387A204D32342037683176314832347A204D3820386831763148387A204D PUSH2 0x120 DUP3 ADD MSTORE PUSH32 0x32342038683176314832347A204D3920396831763148397A204D323420396831 PUSH2 0x140 DUP3 ADD MSTORE PUSH32 0x76314832347A204D392031306831763148397A204D3233203130683176314832 PUSH2 0x160 DUP3 ADD MSTORE PUSH32 0x337A204D392031316831763148397A204D3132203131683276314831327A204D PUSH2 0x180 DUP3 ADD MSTORE PUSH32 0x3138203131683276314831387A204D3233203131683176314832337A204D3920 PUSH2 0x1A0 DUP3 ADD MSTORE PUSH32 0x31326831763148397A204D3233203132683176314832337A204D313020313368 PUSH2 0x1C0 DUP3 ADD MSTORE PUSH32 0x3176314831307A204D3232203133683176314832327A204D3130203134683176 PUSH2 0x1E0 DUP3 ADD MSTORE PUSH32 0x314831307A204D3232203134683176314832327A204D31302031356831763148 PUSH2 0x200 DUP3 ADD MSTORE PUSH32 0x31307A204D3232203135683176314832327A204D313120313668317631483131 PUSH2 0x220 DUP3 ADD MSTORE PUSH32 0x7A204D3231203136683176314832317A204D3131203137683176314831317A20 PUSH2 0x240 DUP3 ADD MSTORE PUSH32 0x4D3231203137683176314832317A204D3132203138683176314831327A204D32 PUSH2 0x260 DUP3 ADD MSTORE PUSH32 0x30203138683176314832307A204D3132203139683176314831327A204D323020 PUSH2 0x280 DUP3 ADD MSTORE PUSH32 0x3139683176314832307A204D3131203230683176314831317A204D3231203230 PUSH2 0x2A0 DUP3 ADD MSTORE PUSH32 0x683176314832317A204D392032316832763148397A204D323220323168327631 PUSH2 0x2C0 DUP3 ADD MSTORE PUSH32 0x4832327A204D372032326832763148377A204D3234203232683276314832347A PUSH2 0x2E0 DUP3 ADD MSTORE PUSH32 0x204D362032336831763148367A204D3236203233683176314832367A204D3520 PUSH2 0x300 DUP3 ADD MSTORE PUSH32 0x32346831763148357A204D3237203234683176314832377A204D342032356831 PUSH2 0x320 DUP3 ADD MSTORE PUSH32 0x763148347A204D3238203235683176314832387A204D33203236683176314833 PUSH2 0x340 DUP3 ADD MSTORE PUSH32 0x7A204D3239203236683176314832397A204D332032376831763148337A204D32 PUSH2 0x360 DUP3 ADD MSTORE PUSH32 0x39203237683176314832397A204D332032386831763148337A204D3239203238 PUSH2 0x380 DUP3 ADD MSTORE PUSH32 0x683176314832397A204D332032396831763148337A204D323920323968317631 PUSH2 0x3A0 DUP3 ADD MSTORE PUSH32 0x4832397A204D332033306831763148337A204D3239203330683176314832397A PUSH2 0x3C0 DUP3 ADD MSTORE PUSH32 0x204D33203331683237763148337A22202F3E3C706174682066696C6C3D222330 PUSH2 0x3E0 DUP3 ADD MSTORE PUSH32 0x30303030302220643D224D3131203368313076314831317A204D392034683134 PUSH2 0x400 DUP3 ADD MSTORE PUSH32 0x763148397A204D392035683135763148397A204D392036683135763148397A20 PUSH2 0x420 DUP3 ADD MSTORE PUSH32 0x4D392037683135763148397A204D3920386833763148397A204D323020386834 PUSH2 0x440 DUP3 ADD MSTORE PUSH32 0x76314832307A204D31302039683276314831307A204D32322039683276314832 PUSH2 0x460 DUP3 ADD MSTORE PUSH32 0x327A204D3130203130683176314831307A204D3232203130683176314832327A PUSH2 0x480 DUP3 ADD MSTORE PUSH32 0x22202F3E3C706174682066696C6C3D22236534623539302220643D224D313220 PUSH2 0x4A0 DUP3 ADD MSTORE PUSH32 0x38683876314831327A204D3132203968313076314831327A204D313120313068 PUSH2 0x4C0 DUP3 ADD MSTORE PUSH32 0x313176314831317A204D3130203131683276314831307A204D31342031316834 PUSH2 0x4E0 DUP3 ADD MSTORE PUSH32 0x76314831347A204D3230203131683376314832307A204D313020313268313376 PUSH2 0x500 DUP3 ADD MSTORE PUSH32 0x314831307A204D3131203133683476314831317A204D31372031336835763148 PUSH2 0x520 DUP3 ADD MSTORE PUSH32 0x31377A204D313120313468313176314831317A204D3131203135683376314831 PUSH2 0x540 DUP3 ADD MSTORE PUSH32 0x317A204D3138203135683476314831387A204D3132203136683976314831327A PUSH2 0x560 DUP3 ADD MSTORE PUSH32 0x204D3132203137683976314831327A204D3133203138683776314831337A2220 PUSH2 0x580 DUP3 ADD MSTORE PUSH32 0x2F3E3C706174682066696C6C3D22236335393437332220643D224D3135203133 PUSH2 0x5A0 DUP3 ADD MSTORE PUSH32 0x683276314831357A204D3133203139683776314831337A204D31342032306835 PUSH2 0x5C0 DUP3 ADD MSTORE PUSH32 0x76314831347A22202F3E3C706174682066696C6C3D2223626436613466222064 PUSH2 0x5E0 DUP3 ADD MSTORE PUSH32 0x3D224D3134203135683476314831347A22202F3E3C706174682066696C6C3D22 PUSH2 0x600 DUP3 ADD MSTORE PUSH32 0x236666666666662220643D224D3132203230683276314831327A204D31392032 PUSH2 0x620 DUP3 ADD MSTORE PUSH32 0x30683276314831397A204D3131203231683376314831317A204D313920323168 PUSH2 0x640 DUP3 ADD MSTORE PUSH32 0x3376314831397A204D392032326834763148397A204D32302032326834763148 PUSH2 0x660 DUP3 ADD MSTORE PUSH32 0x32307A204D372032336835763148377A204D3231203233683576314832317A20 PUSH2 0x680 DUP3 ADD MSTORE PUSH32 0x4D362032346835763148367A204D3232203234683576314832327A204D352032 PUSH2 0x6A0 DUP3 ADD MSTORE PUSH32 0x356835763148357A204D3133203235683276314831337A204D31362032356832 PUSH2 0x6C0 DUP3 ADD MSTORE PUSH32 0x76314831367A204D3139203235683276314831397A204D323320323568357631 PUSH2 0x6E0 DUP3 ADD MSTORE PUSH32 0x4832337A204D342032366835763148347A204D3234203236683576314832347A PUSH2 0x700 DUP3 ADD MSTORE PUSH32 0x204D342032376834763148347A204D3235203237683476314832357A204D3420 PUSH2 0x720 DUP3 ADD MSTORE PUSH32 0x32386834763148347A204D3235203238683476314832357A204D342032396834 PUSH2 0x740 DUP3 ADD MSTORE PUSH32 0x763148347A204D3235203239683476314832357A204D36203330683276314836 PUSH2 0x760 DUP3 ADD MSTORE PUSH32 0x7A204D3235203330683276314832357A22202F3E3C706174682066696C6C3D22 PUSH2 0x780 DUP3 ADD MSTORE PUSH32 0x236566383131352220643D224D3134203231683576314831347A204D31332032 PUSH2 0x7A0 DUP3 ADD MSTORE PUSH32 0x32683776314831337A204D3132203233683976314831327A204D313120323468 PUSH2 0x7C0 DUP3 ADD MSTORE PUSH32 0x313176314831317A204D3130203235683376314831307A204D31352032356831 PUSH2 0x7E0 DUP3 ADD MSTORE PUSH32 0x76314831357A204D3138203235683176314831387A204D323120323568327631 PUSH2 0x800 DUP3 ADD MSTORE PUSH32 0x4832317A204D39203236683135763148397A204D38203237683137763148387A PUSH2 0x820 DUP3 ADD MSTORE PUSH32 0x204D38203238683137763148387A204D38203239683137763148387A204D3420 PUSH2 0x840 DUP3 ADD MSTORE PUSH32 0x33306832763148347A204D38203330683137763148387A204D32372033306832 PUSH2 0x860 DUP3 ADD MSTORE PUSH32 0x76314832377A22202F3E3C2F673E3C2F7376673E000000000000000000000000 PUSH2 0x880 DUP3 ADD MSTORE POP JUMP JUMPDEST PUSH0 PUSH2 0x56A1 PUSH2 0x894 DUP4 PUSH2 0x4456 JUMP JUMPDEST SWAP2 POP PUSH2 0x56AC DUP3 PUSH2 0x4C17 JUMP JUMPDEST PUSH2 0x894 DUP3 ADD SWAP1 POP SWAP2 SWAP1 POP JUMP JUMPDEST PUSH32 0x3C67207472616E73666F726D3D227472616E736C617465283138302C20313030 PUSH0 DUP3 ADD MSTORE PUSH32 0x29222073686170652D72656E646572696E673D2263726973704564676573223E PUSH1 0x20 DUP3 ADD MSTORE POP JUMP JUMPDEST PUSH0 PUSH2 0x5712 PUSH1 0x40 DUP4 PUSH2 0x4456 JUMP JUMPDEST SWAP2 POP PUSH2 0x571D DUP3 PUSH2 0x56B8 JUMP JUMPDEST PUSH1 0x40 DUP3 ADD SWAP1 POP SWAP2 SWAP1 POP JUMP JUMPDEST PUSH32 0x3C7465787420783D222D33302220793D223230222066696C6C3D222333343938 PUSH0 DUP3 ADD MSTORE PUSH32 0x64622220666F6E742D73697A653D223134223E504C41594552204E414D453A3C PUSH1 0x20 DUP3 ADD MSTORE PUSH32 0x2F746578743E3C7465787420783D222D33302220793D223530222066696C6C3D PUSH1 0x40 DUP3 ADD MSTORE PUSH32 0x22236563663066312220666F6E742D73697A653D2232342220666F6E742D7765 PUSH1 0x60 DUP3 ADD MSTORE PUSH32 0x696768743D22626F6C64223E0000000000000000000000000000000000000000 PUSH1 0x80 DUP3 ADD MSTORE POP JUMP JUMPDEST PUSH0 PUSH2 0x57F4 PUSH1 0x8C DUP4 PUSH2 0x4456 JUMP JUMPDEST SWAP2 POP PUSH2 0x57FF DUP3 PUSH2 0x5728 JUMP JUMPDEST PUSH1 0x8C DUP3 ADD SWAP1 POP SWAP2 SWAP1 POP JUMP JUMPDEST PUSH32 0x3C2F746578743E3C6C696E652078313D222D3235222079313D22373522207832 PUSH0 DUP3 ADD MSTORE PUSH32 0x3D22313230222079323D22373522207374726F6B653D22233535352220737472 PUSH1 0x20 DUP3 ADD MSTORE PUSH32 0x6F6B652D77696474683D223422207374726F6B652D6461736861727261793D22 PUSH1 0x40 DUP3 ADD MSTORE PUSH32 0x382C36222F3E0000000000000000000000000000000000000000000000000000 PUSH1 0x60 DUP3 ADD MSTORE POP JUMP JUMPDEST PUSH0 PUSH2 0x58B0 PUSH1 0x66 DUP4 PUSH2 0x4456 JUMP JUMPDEST SWAP2 POP PUSH2 0x58BB DUP3 PUSH2 0x580A JUMP JUMPDEST PUSH1 0x66 DUP3 ADD SWAP1 POP SWAP2 SWAP1 POP JUMP JUMPDEST PUSH32 0x3C7465787420783D222D33302220793D22313030222066696C6C3D2223656366 PUSH0 DUP3 ADD MSTORE PUSH32 0x3066312220666F6E742D73697A653D223134223E4C414E453A3C2F746578743E PUSH1 0x20 DUP3 ADD MSTORE PUSH32 0x3C7465787420783D223132302220793D22313030222066696C6C3D2223656366 PUSH1 0x40 DUP3 ADD MSTORE PUSH32 0x3066312220666F6E742D73697A653D2231342220746578742D616E63686F723D PUSH1 0x60 DUP3 ADD MSTORE PUSH32 0x22656E64223E0000000000000000000000000000000000000000000000000000 PUSH1 0x80 DUP3 ADD MSTORE POP JUMP JUMPDEST PUSH0 PUSH2 0x5992 PUSH1 0x86 DUP4 PUSH2 0x4456 JUMP JUMPDEST SWAP2 POP PUSH2 0x599D DUP3 PUSH2 0x58C6 JUMP JUMPDEST PUSH1 0x86 DUP3 ADD SWAP1 POP SWAP2 SWAP1 POP JUMP JUMPDEST PUSH32 0x3C2F746578743E00000000000000000000000000000000000000000000000000 DUP2 MSTORE POP JUMP JUMPDEST PUSH32 0x3C7465787420783D222D33302220793D22313235222066696C6C3D2223656366 PUSH0 DUP3 ADD MSTORE PUSH32 0x3066312220666F6E742D73697A653D223134223E47414D453A3C2F746578743E PUSH1 0x20 DUP3 ADD MSTORE PUSH32 0x3C7465787420783D223132302220793D22313235222066696C6C3D2223656366 PUSH1 0x40 DUP3 ADD MSTORE PUSH32 0x3066312220666F6E742D73697A653D2231342220746578742D616E63686F723D PUSH1 0x60 DUP3 ADD MSTORE PUSH32 0x22656E64223E0000000000000000000000000000000000000000000000000000 PUSH1 0x80 DUP3 ADD MSTORE POP JUMP JUMPDEST PUSH0 PUSH2 0x5A9A PUSH1 0x86 DUP4 PUSH2 0x4456 JUMP JUMPDEST SWAP2 POP PUSH2 0x5AA5 DUP3 PUSH2 0x59CE JUMP JUMPDEST PUSH1 0x86 DUP3 ADD SWAP1 POP SWAP2 SWAP1 POP JUMP JUMPDEST PUSH32 0x3C7465787420783D222D33302220793D22313530222066696C6C3D2223656366 PUSH0 DUP3 ADD MSTORE PUSH32 0x3066312220666F6E742D73697A653D223134223E4B494C4C533A3C2F74657874 PUSH1 0x20 DUP3 ADD MSTORE PUSH32 0x3E3C7465787420783D223132302220793D22313530222066696C6C3D22236563 PUSH1 0x40 DUP3 ADD MSTORE PUSH32 0x663066312220666F6E742D73697A653D2231342220746578742D616E63686F72 PUSH1 0x60 DUP3 ADD MSTORE PUSH32 0x3D22656E64223E00000000000000000000000000000000000000000000000000 PUSH1 0x80 DUP3 ADD MSTORE POP JUMP JUMPDEST PUSH0 PUSH2 0x5B7C PUSH1 0x87 DUP4 PUSH2 0x4456 JUMP JUMPDEST SWAP2 POP PUSH2 0x5B87 DUP3 PUSH2 0x5AB0 JUMP JUMPDEST PUSH1 0x87 DUP3 ADD SWAP1 POP SWAP2 SWAP1 POP JUMP JUMPDEST PUSH32 0x3C7465787420783D222D33302220793D22313735222066696C6C3D2223656366 PUSH0 DUP3 ADD MSTORE PUSH32 0x3066312220666F6E742D73697A653D223134223E4445415448533A3C2F746578 PUSH1 0x20 DUP3 ADD MSTORE PUSH32 0x743E3C7465787420783D223132302220793D22313735222066696C6C3D222365 PUSH1 0x40 DUP3 ADD MSTORE PUSH32 0x63663066312220666F6E742D73697A653D2231342220746578742D616E63686F PUSH1 0x60 DUP3 ADD MSTORE PUSH32 0x723D22656E64223E000000000000000000000000000000000000000000000000 PUSH1 0x80 DUP3 ADD MSTORE POP JUMP JUMPDEST PUSH0 PUSH2 0x5C5E PUSH1 0x88 DUP4 PUSH2 0x4456 JUMP JUMPDEST SWAP2 POP PUSH2 0x5C69 DUP3 PUSH2 0x5B92 JUMP JUMPDEST PUSH1 0x88 DUP3 ADD SWAP1 POP SWAP2 SWAP1 POP JUMP JUMPDEST PUSH32 0x3C7465787420783D222D33302220793D22323030222066696C6C3D2223656366 PUSH0 DUP3 ADD MSTORE PUSH32 0x3066312220666F6E742D73697A653D223134223E415353495354533A3C2F7465 PUSH1 0x20 DUP3 ADD MSTORE PUSH32 0x78743E3C7465787420783D223132302220793D22323030222066696C6C3D2223 PUSH1 0x40 DUP3 ADD MSTORE PUSH32 0x6563663066312220666F6E742D73697A653D2231342220746578742D616E6368 PUSH1 0x60 DUP3 ADD MSTORE PUSH32 0x6F723D22656E64223E0000000000000000000000000000000000000000000000 PUSH1 0x80 DUP3 ADD MSTORE POP JUMP JUMPDEST PUSH0 PUSH2 0x5D40 PUSH1 0x89 DUP4 PUSH2 0x4456 JUMP JUMPDEST SWAP2 POP PUSH2 0x5D4B DUP3 PUSH2 0x5C74 JUMP JUMPDEST PUSH1 0x89 DUP3 ADD SWAP1 POP SWAP2 SWAP1 POP JUMP JUMPDEST PUSH32 0x3C7465787420783D222D33302220793D22323235222066696C6C3D2223656366 PUSH0 DUP3 ADD MSTORE PUSH32 0x3066312220666F6E742D73697A653D223134223E4B44413A3C2F746578743E3C PUSH1 0x20 DUP3 ADD MSTORE PUSH32 0x7465787420783D223132302220793D22323235222066696C6C3D222365636630 PUSH1 0x40 DUP3 ADD MSTORE PUSH32 0x66312220666F6E742D73697A653D2231342220746578742D616E63686F723D22 PUSH1 0x60 DUP3 ADD MSTORE PUSH32 0x656E64223E000000000000000000000000000000000000000000000000000000 PUSH1 0x80 DUP3 ADD MSTORE POP JUMP JUMPDEST PUSH0 PUSH2 0x5E22 PUSH1 0x85 DUP4 PUSH2 0x4456 JUMP JUMPDEST SWAP2 POP PUSH2 0x5E2D DUP3 PUSH2 0x5D56 JUMP JUMPDEST PUSH1 0x85 DUP3 ADD SWAP1 POP SWAP2 SWAP1 POP JUMP JUMPDEST PUSH32 0x3C6C696E652078313D222D3330222079313D22323430222078323D2231323022 PUSH0 DUP3 ADD MSTORE PUSH32 0x2079323D2232343022207374726F6B653D222335353522207374726F6B652D77 PUSH1 0x20 DUP3 ADD MSTORE PUSH32 0x696474683D223422207374726F6B652D6461736861727261793D22382C36222F PUSH1 0x40 DUP3 ADD MSTORE PUSH32 0x3E3C2F673E3C2F7376673E000000000000000000000000000000000000000000 PUSH1 0x60 DUP3 ADD MSTORE POP JUMP JUMPDEST PUSH0 PUSH2 0x5EDE PUSH1 0x6B DUP4 PUSH2 0x4456 JUMP JUMPDEST SWAP2 POP PUSH2 0x5EE9 DUP3 PUSH2 0x5E38 JUMP JUMPDEST PUSH1 0x6B DUP3 ADD SWAP1 POP SWAP2 SWAP1 POP JUMP JUMPDEST PUSH0 PUSH2 0x5EFE DUP3 PUSH2 0x4A2A JUMP JUMPDEST SWAP2 POP PUSH2 0x5F09 DUP3 PUSH2 0x4BF3 JUMP JUMPDEST SWAP2 POP PUSH2 0x5F14 DUP3 PUSH2 0x5694 JUMP JUMPDEST SWAP2 POP PUSH2 0x5F1F DUP3 PUSH2 0x5706 JUMP JUMPDEST SWAP2 POP PUSH2 0x5F2A DUP3 PUSH2 0x57E8 JUMP JUMPDEST SWAP2 POP PUSH2 0x5F36 DUP3 DUP11 PUSH2 0x4460 JUMP JUMPDEST SWAP2 POP PUSH2 0x5F41 DUP3 PUSH2 0x58A4 JUMP JUMPDEST SWAP2 POP PUSH2 0x5F4C DUP3 PUSH2 0x5986 JUMP JUMPDEST SWAP2 POP PUSH2 0x5F58 DUP3 DUP10 PUSH2 0x4460 JUMP JUMPDEST SWAP2 POP PUSH2 0x5F63 DUP3 PUSH2 0x59A8 JUMP JUMPDEST PUSH1 0x7 DUP3 ADD SWAP2 POP PUSH2 0x5F72 DUP3 PUSH2 0x5A8E JUMP JUMPDEST SWAP2 POP PUSH2 0x5F7E DUP3 DUP9 PUSH2 0x4460 JUMP JUMPDEST SWAP2 POP PUSH2 0x5F89 DUP3 PUSH2 0x59A8 JUMP JUMPDEST PUSH1 0x7 DUP3 ADD SWAP2 POP PUSH2 0x5F98 DUP3 PUSH2 0x5B70 JUMP JUMPDEST SWAP2 POP PUSH2 0x5FA4 DUP3 DUP8 PUSH2 0x4460 JUMP JUMPDEST SWAP2 POP PUSH2 0x5FAF DUP3 PUSH2 0x59A8 JUMP JUMPDEST PUSH1 0x7 DUP3 ADD SWAP2 POP PUSH2 0x5FBE DUP3 PUSH2 0x5C52 JUMP JUMPDEST SWAP2 POP PUSH2 0x5FCA DUP3 DUP7 PUSH2 0x4460 JUMP JUMPDEST SWAP2 POP PUSH2 0x5FD5 DUP3 PUSH2 0x59A8 JUMP JUMPDEST PUSH1 0x7 DUP3 ADD SWAP2 POP PUSH2 0x5FE4 DUP3 PUSH2 0x5D34 JUMP JUMPDEST SWAP2 POP PUSH2 0x5FF0 DUP3 DUP6 PUSH2 0x4460 JUMP JUMPDEST SWAP2 POP PUSH2 0x5FFB DUP3 PUSH2 0x59A8 JUMP JUMPDEST PUSH1 0x7 DUP3 ADD SWAP2 POP PUSH2 0x600A DUP3 PUSH2 0x5E16 JUMP JUMPDEST SWAP2 POP PUSH2 0x6016 DUP3 DUP5 PUSH2 0x4460 JUMP JUMPDEST SWAP2 POP PUSH2 0x6021 DUP3 PUSH2 0x59A8 JUMP JUMPDEST PUSH1 0x7 DUP3 ADD SWAP2 POP PUSH2 0x6030 DUP3 PUSH2 0x5ED2 JUMP JUMPDEST SWAP2 POP DUP2 SWAP1 POP SWAP9 SWAP8 POP POP POP POP POP POP POP POP JUMP JUMPDEST PUSH0 PUSH1 0x40 DUP3 ADD SWAP1 POP PUSH2 0x6054 PUSH0 DUP4 ADD DUP6 PUSH2 0x3A36 JUMP JUMPDEST PUSH2 0x6061 PUSH1 0x20 DUP4 ADD DUP5 PUSH2 0x3CE8 JUMP JUMPDEST SWAP4 SWAP3 POP POP POP JUMP JUMPDEST PUSH32 0x4E487B7100000000000000000000000000000000000000000000000000000000 PUSH0 MSTORE PUSH1 0x21 PUSH1 0x4 MSTORE PUSH1 0x24 PUSH0 REVERT JUMPDEST PUSH0 PUSH2 0xFFFF DUP3 AND SWAP1 POP SWAP2 SWAP1 POP JUMP JUMPDEST PUSH2 0x60AB DUP2 PUSH2 0x6095 JUMP JUMPDEST DUP3 MSTORE POP POP JUMP JUMPDEST PUSH0 PUSH4 0xFFFFFFFF DUP3 AND SWAP1 POP SWAP2 SWAP1 POP JUMP JUMPDEST PUSH2 0x60C9 DUP2 PUSH2 0x60B1 JUMP JUMPDEST DUP3 MSTORE POP POP JUMP JUMPDEST PUSH2 0x60D8 DUP2 PUSH2 0x3B01 JUMP JUMPDEST DUP3 MSTORE POP POP JUMP JUMPDEST PUSH0 PUSH1 0xA0 DUP3 ADD SWAP1 POP PUSH2 0x60F1 PUSH0 DUP4 ADD DUP9 PUSH2 0x3AD9 JUMP JUMPDEST DUP2 DUP2 SUB PUSH1 0x20 DUP4 ADD MSTORE PUSH2 0x6103 DUP2 DUP8 PUSH2 0x3DFD JUMP JUMPDEST SWAP1 POP PUSH2 0x6112 PUSH1 0x40 DUP4 ADD DUP7 PUSH2 0x60A2 JUMP JUMPDEST PUSH2 0x611F PUSH1 0x60 DUP4 ADD DUP6 PUSH2 0x60C0 JUMP JUMPDEST PUSH2 0x612C PUSH1 0x80 DUP4 ADD DUP5 PUSH2 0x60CF JUMP JUMPDEST SWAP7 SWAP6 POP POP POP POP POP POP JUMP JUMPDEST PUSH0 DUP2 MLOAD SWAP1 POP PUSH2 0x6144 DUP2 PUSH2 0x3B0A JUMP JUMPDEST SWAP3 SWAP2 POP POP JUMP JUMPDEST PUSH0 PUSH1 0x20 DUP3 DUP5 SUB SLT ISZERO PUSH2 0x615F JUMPI PUSH2 0x615E PUSH2 0x36EA JUMP JUMPDEST JUMPDEST PUSH0 PUSH2 0x616C DUP5 DUP3 DUP6 ADD PUSH2 0x6136 JUMP JUMPDEST SWAP2 POP POP SWAP3 SWAP2 POP POP JUMP JUMPDEST PUSH0 DUP2 PUSH1 0x1 SHR SWAP1 POP SWAP2 SWAP1 POP JUMP JUMPDEST PUSH0 PUSH0 DUP3 SWAP2 POP DUP4 SWAP1 POP JUMPDEST PUSH1 0x1 DUP6 GT ISZERO PUSH2 0x61CA JUMPI DUP1 DUP7 DIV DUP2 GT ISZERO PUSH2 0x61A6 JUMPI PUSH2 0x61A5 PUSH2 0x43D0 JUMP JUMPDEST JUMPDEST PUSH1 0x1 DUP6 AND ISZERO PUSH2 0x61B5 JUMPI DUP1 DUP3 MUL SWAP2 POP JUMPDEST DUP1 DUP2 MUL SWAP1 POP PUSH2 0x61C3 DUP6 PUSH2 0x6175 JUMP JUMPDEST SWAP5 POP PUSH2 0x618A JUMP JUMPDEST SWAP5 POP SWAP5 SWAP3 POP POP POP JUMP JUMPDEST PUSH0 DUP3 PUSH2 0x61E2 JUMPI PUSH1 0x1 SWAP1 POP PUSH2 0x629D JUMP JUMPDEST DUP2 PUSH2 0x61EF JUMPI PUSH0 SWAP1 POP PUSH2 0x629D JUMP JUMPDEST DUP2 PUSH1 0x1 DUP2 EQ PUSH2 0x6205 JUMPI PUSH1 0x2 DUP2 EQ PUSH2 0x620F JUMPI PUSH2 0x623E JUMP JUMPDEST PUSH1 0x1 SWAP2 POP POP PUSH2 0x629D JUMP JUMPDEST PUSH1 0xFF DUP5 GT ISZERO PUSH2 0x6221 JUMPI PUSH2 0x6220 PUSH2 0x43D0 JUMP JUMPDEST JUMPDEST DUP4 PUSH1 0x2 EXP SWAP2 POP DUP5 DUP3 GT ISZERO PUSH2 0x6238 JUMPI PUSH2 0x6237 PUSH2 0x43D0 JUMP JUMPDEST JUMPDEST POP PUSH2 0x629D JUMP JUMPDEST POP PUSH1 0x20 DUP4 LT PUSH2 0x133 DUP4 LT AND PUSH1 0x4E DUP5 LT PUSH1 0xB DUP5 LT AND OR ISZERO PUSH2 0x6273 JUMPI DUP3 DUP3 EXP SWAP1 POP DUP4 DUP2 GT ISZERO PUSH2 0x626E JUMPI PUSH2 0x626D PUSH2 0x43D0 JUMP JUMPDEST JUMPDEST PUSH2 0x629D JUMP JUMPDEST PUSH2 0x6280 DUP5 DUP5 DUP5 PUSH1 0x1 PUSH2 0x6181 JUMP JUMPDEST SWAP3 POP SWAP1 POP DUP2 DUP5 DIV DUP2 GT ISZERO PUSH2 0x6297 JUMPI PUSH2 0x6296 PUSH2 0x43D0 JUMP JUMPDEST JUMPDEST DUP2 DUP2 MUL SWAP1 POP JUMPDEST SWAP4 SWAP3 POP POP POP JUMP JUMPDEST PUSH0 PUSH2 0x62AE DUP3 PUSH2 0x39A8 JUMP JUMPDEST SWAP2 POP PUSH2 0x62B9 DUP4 PUSH2 0x39A8 JUMP JUMPDEST SWAP3 POP PUSH2 0x62E6 PUSH32 0xFFFFFFFFFFFFFFFFFFFFFFFFFFFFFFFFFFFFFFFFFFFFFFFFFFFFFFFFFFFFFFFF DUP5 DUP5 PUSH2 0x61D3 JUMP JUMPDEST SWAP1 POP SWAP3 SWAP2 POP POP JUMP INVALID LOG2 PUSH5 0x6970667358 0x22 SLT KECCAK256 JUMPDEST 0xAE DUP7 PUSH15 0x9995151B2DB089E92C94F149A25322 CALLVALUE 0xA6 CALL 0xC GASLIMIT DUP5 PUSH11 0x207F1F0AF90C64736F6C63 NUMBER STOP ADDMOD 0x22 STOP CALLER "
		},
		"gasEstimates": {
			"creation": {
				"codeDepositCost": "5076000",
				"executionCost": "infinite",
				"totalCost": "infinite"
			},
			"external": {
				"approve(address,uint256)": "infinite",
				"balanceOf(address)": "infinite",
				"checkUpkeep(bytes)": "infinite",
				"getApproved(uint256)": "infinite",
				"handleOracleFulfillment(bytes32,bytes,bytes)": "infinite",
				"interval()": "2514",
				"isApprovedForAll(address,address)": "infinite",
				"lastTimeStamp()": "2470",
				"name()": "infinite",
				"owner()": "2582",
				"ownerOf(uint256)": "infinite",
				"performUpkeep(bytes)": "infinite",
				"renounceOwnership()": "infinite",
				"s_playerData(uint256)": "infinite",
				"s_requestToTokenId(bytes32)": "2800",
				"safeMint(address,string,string)": "infinite",
				"safeTransferFrom(address,address,uint256)": "infinite",
				"safeTransferFrom(address,address,uint256,bytes)": "infinite",
				"setApprovalForAll(address,bool)": "infinite",
				"setAutomationSettings(uint256,uint256)": "infinite",
				"setSourceCode(string)": "infinite",
				"sourceCode()": "infinite",
				"subscriptionId()": "2556",
				"supportsInterface(bytes4)": "926",
				"symbol()": "infinite",
				"targetTokenIdToUpdate()": "2536",
				"tokenURI(uint256)": "infinite",
				"transferFrom(address,address,uint256)": "infinite",
				"transferOwnership(address)": "infinite"
			},
			"internal": {
				"_buildFullSVG(uint256,uint64,uint64,uint64,uint64)": "infinite",
				"_requestStatsInternal(uint256,string memory)": "infinite",
				"fulfillRequest(bytes32,bytes memory,bytes memory)": "infinite"
			}
		},
		"methodIdentifiers": {
			"approve(address,uint256)": "095ea7b3",
			"balanceOf(address)": "70a08231",
			"checkUpkeep(bytes)": "6e04ff0d",
			"getApproved(uint256)": "081812fc",
			"handleOracleFulfillment(bytes32,bytes,bytes)": "0ca76175",
			"interval()": "947a36fb",
			"isApprovedForAll(address,address)": "e985e9c5",
			"lastTimeStamp()": "3f3b3b27",
			"name()": "06fdde03",
			"owner()": "8da5cb5b",
			"ownerOf(uint256)": "6352211e",
			"performUpkeep(bytes)": "4585e33b",
			"renounceOwnership()": "715018a6",
			"s_playerData(uint256)": "b4cfae44",
			"s_requestToTokenId(bytes32)": "68015a4b",
			"safeMint(address,string,string)": "eca81d42",
			"safeTransferFrom(address,address,uint256)": "42842e0e",
			"safeTransferFrom(address,address,uint256,bytes)": "b88d4fde",
			"setApprovalForAll(address,bool)": "a22cb465",
			"setAutomationSettings(uint256,uint256)": "22e817e2",
			"setSourceCode(string)": "00b46767",
			"sourceCode()": "13c60177",
			"subscriptionId()": "09c1ba2e",
			"supportsInterface(bytes4)": "01ffc9a7",
			"symbol()": "95d89b41",
			"targetTokenIdToUpdate()": "94881476",
			"tokenURI(uint256)": "c87b56dd",
			"transferFrom(address,address,uint256)": "23b872dd",
			"transferOwnership(address)": "f2fde38b"
		}
	},
	"abi": [
		{
			"inputs": [
				{
					"internalType": "uint64",
					"name": "_subscriptionId",
					"type": "uint64"
				}
			],
			"stateMutability": "nonpayable",
			"type": "constructor"
		},
		{
			"inputs": [
				{
					"internalType": "address",
					"name": "sender",
					"type": "address"
				},
				{
					"internalType": "uint256",
					"name": "tokenId",
					"type": "uint256"
				},
				{
					"internalType": "address",
					"name": "owner",
					"type": "address"
				}
			],
			"name": "ERC721IncorrectOwner",
			"type": "error"
		},
		{
			"inputs": [
				{
					"internalType": "address",
					"name": "operator",
					"type": "address"
				},
				{
					"internalType": "uint256",
					"name": "tokenId",
					"type": "uint256"
				}
			],
			"name": "ERC721InsufficientApproval",
			"type": "error"
		},
		{
			"inputs": [
				{
					"internalType": "address",
					"name": "approver",
					"type": "address"
				}
			],
			"name": "ERC721InvalidApprover",
			"type": "error"
		},
		{
			"inputs": [
				{
					"internalType": "address",
					"name": "operator",
					"type": "address"
				}
			],
			"name": "ERC721InvalidOperator",
			"type": "error"
		},
		{
			"inputs": [
				{
					"internalType": "address",
					"name": "owner",
					"type": "address"
				}
			],
			"name": "ERC721InvalidOwner",
			"type": "error"
		},
		{
			"inputs": [
				{
					"internalType": "address",
					"name": "receiver",
					"type": "address"
				}
			],
			"name": "ERC721InvalidReceiver",
			"type": "error"
		},
		{
			"inputs": [
				{
					"internalType": "address",
					"name": "sender",
					"type": "address"
				}
			],
			"name": "ERC721InvalidSender",
			"type": "error"
		},
		{
			"inputs": [
				{
					"internalType": "uint256",
					"name": "tokenId",
					"type": "uint256"
				}
			],
			"name": "ERC721NonexistentToken",
			"type": "error"
		},
		{
			"inputs": [],
			"name": "EmptyArgs",
			"type": "error"
		},
		{
			"inputs": [],
			"name": "EmptySource",
			"type": "error"
		},
		{
			"inputs": [],
			"name": "NoInlineSecrets",
			"type": "error"
		},
		{
			"inputs": [],
			"name": "OnlyRouterCanFulfill",
			"type": "error"
		},
		{
			"inputs": [
				{
					"internalType": "address",
					"name": "owner",
					"type": "address"
				}
			],
			"name": "OwnableInvalidOwner",
			"type": "error"
		},
		{
			"inputs": [
				{
					"internalType": "address",
					"name": "account",
					"type": "address"
				}
			],
			"name": "OwnableUnauthorizedAccount",
			"type": "error"
		},
		{
			"anonymous": false,
			"inputs": [
				{
					"indexed": true,
					"internalType": "address",
					"name": "owner",
					"type": "address"
				},
				{
					"indexed": true,
					"internalType": "address",
					"name": "approved",
					"type": "address"
				},
				{
					"indexed": true,
					"internalType": "uint256",
					"name": "tokenId",
					"type": "uint256"
				}
			],
			"name": "Approval",
			"type": "event"
		},
		{
			"anonymous": false,
			"inputs": [
				{
					"indexed": true,
					"internalType": "address",
					"name": "owner",
					"type": "address"
				},
				{
					"indexed": true,
					"internalType": "address",
					"name": "operator",
					"type": "address"
				},
				{
					"indexed": false,
					"internalType": "bool",
					"name": "approved",
					"type": "bool"
				}
			],
			"name": "ApprovalForAll",
			"type": "event"
		},
		{
			"anonymous": false,
			"inputs": [
				{
					"indexed": false,
					"internalType": "uint256",
					"name": "_fromTokenId",
					"type": "uint256"
				},
				{
					"indexed": false,
					"internalType": "uint256",
					"name": "_toTokenId",
					"type": "uint256"
				}
			],
			"name": "BatchMetadataUpdate",
			"type": "event"
		},
		{
			"anonymous": false,
			"inputs": [
				{
					"indexed": false,
					"internalType": "uint256",
					"name": "_tokenId",
					"type": "uint256"
				}
			],
			"name": "MetadataUpdate",
			"type": "event"
		},
		{
			"anonymous": false,
			"inputs": [
				{
					"indexed": true,
					"internalType": "address",
					"name": "previousOwner",
					"type": "address"
				},
				{
					"indexed": true,
					"internalType": "address",
					"name": "newOwner",
					"type": "address"
				}
			],
			"name": "OwnershipTransferred",
			"type": "event"
		},
		{
			"anonymous": false,
			"inputs": [
				{
					"indexed": true,
					"internalType": "bytes32",
					"name": "id",
					"type": "bytes32"
				}
			],
			"name": "RequestFulfilled",
			"type": "event"
		},
		{
			"anonymous": false,
			"inputs": [
				{
					"indexed": true,
					"internalType": "bytes32",
					"name": "id",
					"type": "bytes32"
				}
			],
			"name": "RequestSent",
			"type": "event"
		},
		{
			"anonymous": false,
			"inputs": [
				{
					"indexed": true,
					"internalType": "address",
					"name": "from",
					"type": "address"
				},
				{
					"indexed": true,
					"internalType": "address",
					"name": "to",
					"type": "address"
				},
				{
					"indexed": true,
					"internalType": "uint256",
					"name": "tokenId",
					"type": "uint256"
				}
			],
			"name": "Transfer",
			"type": "event"
		},
		{
			"inputs": [
				{
					"internalType": "address",
					"name": "to",
					"type": "address"
				},
				{
					"internalType": "uint256",
					"name": "tokenId",
					"type": "uint256"
				}
			],
			"name": "approve",
			"outputs": [],
			"stateMutability": "nonpayable",
			"type": "function"
		},
		{
			"inputs": [
				{
					"internalType": "address",
					"name": "owner",
					"type": "address"
				}
			],
			"name": "balanceOf",
			"outputs": [
				{
					"internalType": "uint256",
					"name": "",
					"type": "uint256"
				}
			],
			"stateMutability": "view",
			"type": "function"
		},
		{
			"inputs": [
				{
					"internalType": "bytes",
					"name": "",
					"type": "bytes"
				}
			],
			"name": "checkUpkeep",
			"outputs": [
				{
					"internalType": "bool",
					"name": "upkeepNeeded",
					"type": "bool"
				},
				{
					"internalType": "bytes",
					"name": "performData",
					"type": "bytes"
				}
			],
			"stateMutability": "view",
			"type": "function"
		},
		{
			"inputs": [
				{
					"internalType": "uint256",
					"name": "tokenId",
					"type": "uint256"
				}
			],
			"name": "getApproved",
			"outputs": [
				{
					"internalType": "address",
					"name": "",
					"type": "address"
				}
			],
			"stateMutability": "view",
			"type": "function"
		},
		{
			"inputs": [
				{
					"internalType": "bytes32",
					"name": "requestId",
					"type": "bytes32"
				},
				{
					"internalType": "bytes",
					"name": "response",
					"type": "bytes"
				},
				{
					"internalType": "bytes",
					"name": "err",
					"type": "bytes"
				}
			],
			"name": "handleOracleFulfillment",
			"outputs": [],
			"stateMutability": "nonpayable",
			"type": "function"
		},
		{
			"inputs": [],
			"name": "interval",
			"outputs": [
				{
					"internalType": "uint256",
					"name": "",
					"type": "uint256"
				}
			],
			"stateMutability": "view",
			"type": "function"
		},
		{
			"inputs": [
				{
					"internalType": "address",
					"name": "owner",
					"type": "address"
				},
				{
					"internalType": "address",
					"name": "operator",
					"type": "address"
				}
			],
			"name": "isApprovedForAll",
			"outputs": [
				{
					"internalType": "bool",
					"name": "",
					"type": "bool"
				}
			],
			"stateMutability": "view",
			"type": "function"
		},
		{
			"inputs": [],
			"name": "lastTimeStamp",
			"outputs": [
				{
					"internalType": "uint256",
					"name": "",
					"type": "uint256"
				}
			],
			"stateMutability": "view",
			"type": "function"
		},
		{
			"inputs": [],
			"name": "name",
			"outputs": [
				{
					"internalType": "string",
					"name": "",
					"type": "string"
				}
			],
			"stateMutability": "view",
			"type": "function"
		},
		{
			"inputs": [],
			"name": "owner",
			"outputs": [
				{
					"internalType": "address",
					"name": "",
					"type": "address"
				}
			],
			"stateMutability": "view",
			"type": "function"
		},
		{
			"inputs": [
				{
					"internalType": "uint256",
					"name": "tokenId",
					"type": "uint256"
				}
			],
			"name": "ownerOf",
			"outputs": [
				{
					"internalType": "address",
					"name": "",
					"type": "address"
				}
			],
			"stateMutability": "view",
			"type": "function"
		},
		{
			"inputs": [
				{
					"internalType": "bytes",
					"name": "",
					"type": "bytes"
				}
			],
			"name": "performUpkeep",
			"outputs": [],
			"stateMutability": "nonpayable",
			"type": "function"
		},
		{
			"inputs": [],
			"name": "renounceOwnership",
			"outputs": [],
			"stateMutability": "nonpayable",
			"type": "function"
		},
		{
			"inputs": [
				{
					"internalType": "uint256",
					"name": "",
					"type": "uint256"
				}
			],
			"name": "s_playerData",
			"outputs": [
				{
					"internalType": "string",
					"name": "name",
					"type": "string"
				},
				{
					"internalType": "string",
					"name": "lane",
					"type": "string"
				},
				{
					"internalType": "uint64",
					"name": "games",
					"type": "uint64"
				},
				{
					"internalType": "uint64",
					"name": "kills",
					"type": "uint64"
				},
				{
					"internalType": "uint64",
					"name": "deaths",
					"type": "uint64"
				},
				{
					"internalType": "uint64",
					"name": "assists",
					"type": "uint64"
				},
				{
					"internalType": "string",
					"name": "fullSvg",
					"type": "string"
				}
			],
			"stateMutability": "view",
			"type": "function"
		},
		{
			"inputs": [
				{
					"internalType": "bytes32",
					"name": "",
					"type": "bytes32"
				}
			],
			"name": "s_requestToTokenId",
			"outputs": [
				{
					"internalType": "uint256",
					"name": "",
					"type": "uint256"
				}
			],
			"stateMutability": "view",
			"type": "function"
		},
		{
			"inputs": [
				{
					"internalType": "address",
					"name": "to",
					"type": "address"
				},
				{
					"internalType": "string",
					"name": "_name",
					"type": "string"
				},
				{
					"internalType": "string",
					"name": "_lane",
					"type": "string"
				}
			],
			"name": "safeMint",
			"outputs": [],
			"stateMutability": "nonpayable",
			"type": "function"
		},
		{
			"inputs": [
				{
					"internalType": "address",
					"name": "from",
					"type": "address"
				},
				{
					"internalType": "address",
					"name": "to",
					"type": "address"
				},
				{
					"internalType": "uint256",
					"name": "tokenId",
					"type": "uint256"
				}
			],
			"name": "safeTransferFrom",
			"outputs": [],
			"stateMutability": "nonpayable",
			"type": "function"
		},
		{
			"inputs": [
				{
					"internalType": "address",
					"name": "from",
					"type": "address"
				},
				{
					"internalType": "address",
					"name": "to",
					"type": "address"
				},
				{
					"internalType": "uint256",
					"name": "tokenId",
					"type": "uint256"
				},
				{
					"internalType": "bytes",
					"name": "data",
					"type": "bytes"
				}
			],
			"name": "safeTransferFrom",
			"outputs": [],
			"stateMutability": "nonpayable",
			"type": "function"
		},
		{
			"inputs": [
				{
					"internalType": "address",
					"name": "operator",
					"type": "address"
				},
				{
					"internalType": "bool",
					"name": "approved",
					"type": "bool"
				}
			],
			"name": "setApprovalForAll",
			"outputs": [],
			"stateMutability": "nonpayable",
			"type": "function"
		},
		{
			"inputs": [
				{
					"internalType": "uint256",
					"name": "_intervalSeconds",
					"type": "uint256"
				},
				{
					"internalType": "uint256",
					"name": "_targetTokenId",
					"type": "uint256"
				}
			],
			"name": "setAutomationSettings",
			"outputs": [],
			"stateMutability": "nonpayable",
			"type": "function"
		},
		{
			"inputs": [
				{
					"internalType": "string",
					"name": "_sourceCode",
					"type": "string"
				}
			],
			"name": "setSourceCode",
			"outputs": [],
			"stateMutability": "nonpayable",
			"type": "function"
		},
		{
			"inputs": [],
			"name": "sourceCode",
			"outputs": [
				{
					"internalType": "string",
					"name": "",
					"type": "string"
				}
			],
			"stateMutability": "view",
			"type": "function"
		},
		{
			"inputs": [],
			"name": "subscriptionId",
			"outputs": [
				{
					"internalType": "uint64",
					"name": "",
					"type": "uint64"
				}
			],
			"stateMutability": "view",
			"type": "function"
		},
		{
			"inputs": [
				{
					"internalType": "bytes4",
					"name": "interfaceId",
					"type": "bytes4"
				}
			],
			"name": "supportsInterface",
			"outputs": [
				{
					"internalType": "bool",
					"name": "",
					"type": "bool"
				}
			],
			"stateMutability": "view",
			"type": "function"
		},
		{
			"inputs": [],
			"name": "symbol",
			"outputs": [
				{
					"internalType": "string",
					"name": "",
					"type": "string"
				}
			],
			"stateMutability": "view",
			"type": "function"
		},
		{
			"inputs": [],
			"name": "targetTokenIdToUpdate",
			"outputs": [
				{
					"internalType": "uint256",
					"name": "",
					"type": "uint256"
				}
			],
			"stateMutability": "view",
			"type": "function"
		},
		{
			"inputs": [
				{
					"internalType": "uint256",
					"name": "tokenId",
					"type": "uint256"
				}
			],
			"name": "tokenURI",
			"outputs": [
				{
					"internalType": "string",
					"name": "",
					"type": "string"
				}
			],
			"stateMutability": "view",
			"type": "function"
		},
		{
			"inputs": [
				{
					"internalType": "address",
					"name": "from",
					"type": "address"
				},
				{
					"internalType": "address",
					"name": "to",
					"type": "address"
				},
				{
					"internalType": "uint256",
					"name": "tokenId",
					"type": "uint256"
				}
			],
			"name": "transferFrom",
			"outputs": [],
			"stateMutability": "nonpayable",
			"type": "function"
		},
		{
			"inputs": [
				{
					"internalType": "address",
					"name": "newOwner",
					"type": "address"
				}
			],
			"name": "transferOwnership",
			"outputs": [],
			"stateMutability": "nonpayable",
			"type": "function"
		}
	]
}