{
	"data": {
		"bytecode": {
			"linkReferences": {},
			"object": "60a060405273b83e47c2bc239b3bf370bc41e1459a34b41238d060095f6101000a81548173ffffffffffffffffffffffffffffffffffffffff021916908373ffffffffffffffffffffffffffffffffffffffff1602179055507f66756e2d657468657265756d2d7365706f6c69612d31000000000000000000005f1b600a55348015610089575f5ffd5b506040516161da3803806161da83398181016040528101906100ab9190610342565b60095f9054906101000a900473ffffffffffffffffffffffffffffffffffffffff16336040518060400160405280601281526020017f4d504c2044796e616d696320506c6179657200000000000000000000000000008152506040518060400160405280600481526020017f4d444e5000000000000000000000000000000000000000000000000000000000815250815f908161014891906105bb565b50806001908161015891906105bb565b5050505f73ffffffffffffffffffffffffffffffffffffffff168173ffffffffffffffffffffffffffffffffffffffff16036101cb575f6040517f1e4fbdf70000000000000000000000000000000000000000000000000000000081526004016101c291906106c9565b60405180910390fd5b6101da8161023e60201b60201c565b508073ffffffffffffffffffffffffffffffffffffffff1660808173ffffffffffffffffffffffffffffffffffffffff16815250505080600b5f6101000a81548167ffffffffffffffff021916908367ffffffffffffffff160217905550506106e2565b5f60075f9054906101000a900473ffffffffffffffffffffffffffffffffffffffff1690508160075f6101000a81548173ffffffffffffffffffffffffffffffffffffffff021916908373ffffffffffffffffffffffffffffffffffffffff1602179055508173ffffffffffffffffffffffffffffffffffffffff168173ffffffffffffffffffffffffffffffffffffffff167f8be0079c531659141344cd1fd0a4f28419497f9722a3daafe3b4186f6b6457e060405160405180910390a35050565b5f5ffd5b5f67ffffffffffffffff82169050919050565b61032181610305565b811461032b575f5ffd5b50565b5f8151905061033c81610318565b92915050565b5f6020828403121561035757610356610301565b5b5f6103648482850161032e565b91505092915050565b5f81519050919050565b7f4e487b71000000000000000000000000000000000000000000000000000000005f52604160045260245ffd5b7f4e487b71000000000000000000000000000000000000000000000000000000005f52602260045260245ffd5b5f60028204905060018216806103e857607f821691505b6020821081036103fb576103fa6103a4565b5b50919050565b5f819050815f5260205f209050919050565b5f6020601f8301049050919050565b5f82821b905092915050565b5f6008830261045d7fffffffffffffffffffffffffffffffffffffffffffffffffffffffffffffffff82610422565b6104678683610422565b95508019841693508086168417925050509392505050565b5f819050919050565b5f819050919050565b5f6104ab6104a66104a18461047f565b610488565b61047f565b9050919050565b5f819050919050565b6104c483610491565b6104d86104d0826104b2565b84845461042e565b825550505050565b5f5f905090565b6104ef6104e0565b6104fa8184846104bb565b505050565b5f5b82811015610520576105155f8284016104e7565b600181019050610501565b505050565b601f82111561057357828211156105725761053f81610401565b61054883610413565b61055185610413565b602086101561055e575f90505b80830161056d828403826104ff565b505050505b5b505050565b5f82821c905092915050565b5f6105935f1984600802610578565b1980831691505092915050565b5f6105ab8383610584565b9150826002028217905092915050565b6105c48261036d565b67ffffffffffffffff8111156105dd576105dc610377565b5b6105e782546103d1565b6105f2828285610525565b5f60209050601f831160018114610623575f8415610611578287015190505b61061b85826105a0565b865550610682565b601f19841661063186610401565b5f5b8281101561065857848901518255600182019150602085019450602081019050610633565b868310156106755784890151610671601f891682610584565b8355505b6001600288020188555050505b505050505050565b5f73ffffffffffffffffffffffffffffffffffffffff82169050919050565b5f6106b38261068a565b9050919050565b6106c3816106a9565b82525050565b5f6020820190506106dc5f8301846106ba565b92915050565b608051615ad96107015f395f81816106940152611ef60152615ad95ff3fe608060405234801561000f575f5ffd5b506004361061018b575f3560e01c80636f1078d8116100dc578063a22e38db11610095578063b896d4331161006f578063b896d433146104a6578063c87b56dd146104c2578063e985e9c5146104f2578063f2fde38b146105225761018b565b8063a22e38db14610427578063b4cfae4414610457578063b88d4fde1461048a5761018b565b80636f1078d81461036557806370a0823114610395578063715018a6146103c55780638da5cb5b146103cf57806395d89b41146103ed578063a22cb4651461040b5761018b565b80630ca761751161014957806342842e0e1161012357806342842e0e146102b95780636352211e146102d557806368015a4b146103055780636dcee4ca146103355761018b565b80630ca761751461026357806313c601771461027f57806323b872dd1461029d5761018b565b8062b467671461018f57806301ffc9a7146101ab57806306fdde03146101db578063081812fc146101f9578063095ea7b31461022957806309c1ba2e14610245575b5f5ffd5b6101a960048036038101906101a49190613412565b61053e565b005b6101c560048036038101906101c091906134ae565b610559565b6040516101d291906134f3565b60405180910390f35b6101e36105b9565b6040516101f0919061356c565b60405180910390f35b610213600480360381019061020e91906135bf565b610648565b6040516102209190613629565b60405180910390f35b610243600480360381019061023e919061366c565b610663565b005b61024d610679565b60405161025a91906136cc565b60405180910390f35b61027d600480360381019061027891906137b6565b610692565b005b610287610754565b604051610294919061356c565b60405180910390f35b6102b760048036038101906102b2919061383e565b6107e0565b005b6102d360048036038101906102ce919061383e565b6108df565b005b6102ef60048036038101906102ea91906135bf565b6108fe565b6040516102fc9190613629565b60405180910390f35b61031f600480360381019061031a919061388e565b61090f565b60405161032c91906138c8565b60405180910390f35b61034f600480360381019061034a91906135bf565b610924565b60405161035c919061356c565b60405180910390f35b61037f600480360381019061037a91906138e1565b610b2d565b60405161038c919061394a565b60405180910390f35b6103af60048036038101906103aa9190613963565b610cd9565b6040516103bc91906138c8565b60405180910390f35b6103cd610d8f565b005b6103d7610da2565b6040516103e49190613629565b60405180910390f35b6103f5610dca565b604051610402919061356c565b60405180910390f35b610425600480360381019061042091906139b8565b610e5a565b005b610441600480360381019061043c91906135bf565b610e70565b60405161044e919061356c565b60405180910390f35b610471600480360381019061046c91906135bf565b610f08565b60405161048194939291906139f6565b60405180910390f35b6104a4600480360381019061049f9190613a47565b611040565b005b6104c060048036038101906104bb9190613ac7565b611065565b005b6104dc60048036038101906104d791906135bf565b61110f565b6040516104e9919061356c565b60405180910390f35b61050c60048036038101906105079190613b76565b611365565b60405161051991906134f3565b60405180910390f35b61053c60048036038101906105379190613963565b6113f3565b005b610546611477565b80600c90816105559190613dc2565b5050565b5f634906490660e01b7bffffffffffffffffffffffffffffffffffffffffffffffffffffffff1916827bffffffffffffffffffffffffffffffffffffffffffffffffffffffff191614806105b257506105b1826114fe565b5b9050919050565b60605f80546105c790613be1565b80601f01602080910402602001604051908101604052809291908181526020018280546105f390613be1565b801561063e5780601f106106155761010080835404028352916020019161063e565b820191905f5260205f20905b81548152906001019060200180831161062157829003601f168201915b5050505050905090565b5f610652826115df565b5061065c82611665565b9050919050565b610675828261067061169e565b6116a5565b5050565b600b5f9054906101000a900467ffffffffffffffff1681565b7f000000000000000000000000000000000000000000000000000000000000000073ffffffffffffffffffffffffffffffffffffffff163373ffffffffffffffffffffffffffffffffffffffff1614610717576040517fc6829f8300000000000000000000000000000000000000000000000000000000815260040160405180910390fd5b6107228383836116b7565b827f85e1543bf2f84fe80c6badbce3648c8539ad1df4d2b3d822938ca0538be727e660405160405180910390a2505050565b600c805461076190613be1565b80601f016020809104026020016040519081016040528092919081815260200182805461078d90613be1565b80156107d85780601f106107af576101008083540402835291602001916107d8565b820191905f5260205f20905b8154815290600101906020018083116107bb57829003601f168201915b505050505081565b5f73ffffffffffffffffffffffffffffffffffffffff168273ffffffffffffffffffffffffffffffffffffffff1603610850575f6040517f64a0ae920000000000000000000000000000000000000000000000000000000081526004016108479190613629565b60405180910390fd5b5f610863838361085e61169e565b6117bb565b90508373ffffffffffffffffffffffffffffffffffffffff168173ffffffffffffffffffffffffffffffffffffffff16146108d9578382826040517f64283d7b0000000000000000000000000000000000000000000000000000000081526004016108d093929190613e91565b60405180910390fd5b50505050565b6108f983838360405180602001604052805f815250611040565b505050565b5f610908826115df565b9050919050565b600e602052805f5260405f205f915090505481565b60605f600d5f8481526020019081526020015f206040518060800160405290815f8201805461095290613be1565b80601f016020809104026020016040519081016040528092919081815260200182805461097e90613be1565b80156109c95780601f106109a0576101008083540402835291602001916109c9565b820191905f5260205f20905b8154815290600101906020018083116109ac57829003601f168201915b505050505081526020016001820180546109e290613be1565b80601f0160208091040260200160405190810160405280929190818152602001828054610a0e90613be1565b8015610a595780601f10610a3057610100808354040283529160200191610a59565b820191905f5260205f20905b815481529060010190602001808311610a3c57829003601f168201915b505050505081526020016002820154815260200160038201548152505090505f604051806101e001604052806101a8815260200161509d6101a8913990505f60405180610880016040528061085f815260200161524561085f913990505f835f01518460200151610acd86604001516119c6565b610ada8760600151610e70565b604051602001610aed9493929190614526565b6040516020818303038152906040529050828282604051602001610b1393929190614618565b604051602081830303815290604052945050505050919050565b5f610b36611477565b610b3e61321e565b610bd9600c8054610b4e90613be1565b80601f0160208091040260200160405190810160405280929190818152602001828054610b7a90613be1565b8015610bc55780601f10610b9c57610100808354040283529160200191610bc5565b820191905f5260205f20905b815481529060010190602001808311610ba857829003601f168201915b505050505082611a9090919063ffffffff16565b5f600167ffffffffffffffff811115610bf557610bf46132ee565b5b604051908082528060200260200182016040528015610c2857816020015b6060815260200190600190039081610c135790505b50905083815f81518110610c3f57610c3e614648565b5b6020026020010181905250610c5d8183611aa090919063ffffffff16565b610c8b610c6983611ae7565b600b5f9054906101000a900467ffffffffffffffff16620493e0600a54611ef2565b925084600e5f8581526020019081526020015f208190555084837f6d5f534f79411361c047aaca2cc90135d58a68aef49d2e9426e1126e4110e05360405160405180910390a3505092915050565b5f5f73ffffffffffffffffffffffffffffffffffffffff168273ffffffffffffffffffffffffffffffffffffffff1603610d4a575f6040517f89c62b64000000000000000000000000000000000000000000000000000000008152600401610d419190613629565b60405180910390fd5b60035f8373ffffffffffffffffffffffffffffffffffffffff1673ffffffffffffffffffffffffffffffffffffffff1681526020019081526020015f20549050919050565b610d97611477565b610da05f611fd1565b565b5f60075f9054906101000a900473ffffffffffffffffffffffffffffffffffffffff16905090565b606060018054610dd990613be1565b80601f0160208091040260200160405190810160405280929190818152602001828054610e0590613be1565b8015610e505780601f10610e2757610100808354040283529160200191610e50565b820191905f5260205f20905b815481529060010190602001808311610e3357829003601f168201915b5050505050905090565b610e6c610e6561169e565b8383612094565b5050565b60605f606483610e8091906146cf565b90505f606484610e9091906146ff565b90505f600a8210610ea957610ea4826119c6565b610ed2565b610eb2826119c6565b604051602001610ec29190614755565b6040516020818303038152906040525b9050610edd836119c6565b81604051602001610eef9291906147a0565b6040516020818303038152906040529350505050919050565b600d602052805f5260405f205f91509050805f018054610f2790613be1565b80601f0160208091040260200160405190810160405280929190818152602001828054610f5390613be1565b8015610f9e5780601f10610f7557610100808354040283529160200191610f9e565b820191905f5260205f20905b815481529060010190602001808311610f8157829003601f168201915b505050505090806001018054610fb390613be1565b80601f0160208091040260200160405190810160405280929190818152602001828054610fdf90613be1565b801561102a5780601f106110015761010080835404028352916020019161102a565b820191905f5260205f20905b81548152906001019060200180831161100d57829003601f168201915b5050505050908060020154908060030154905084565b61104b8484846107e0565b61105f61105661169e565b8585858561226d565b50505050565b61106d611477565b5f6008549050604051806080016040528086815260200185815260200184815260200183815250600d5f8381526020019081526020015f205f820151815f0190816110b89190613dc2565b5060208201518160010190816110ce9190613dc2565b5060408201518160020155606082015181600301559050506110f08682612419565b60085f815480929190611102906147d2565b9190505550505050505050565b60605f73ffffffffffffffffffffffffffffffffffffffff16611131836108fe565b73ffffffffffffffffffffffffffffffffffffffff1603611187576040517f08c379a000000000000000000000000000000000000000000000000000000000815260040161117e90614863565b60405180910390fd5b5f600d5f8481526020019081526020015f206040518060800160405290815f820180546111b390613be1565b80601f01602080910402602001604051908101604052809291908181526020018280546111df90613be1565b801561122a5780601f106112015761010080835404028352916020019161122a565b820191905f5260205f20905b81548152906001019060200180831161120d57829003601f168201915b5050505050815260200160018201805461124390613be1565b80601f016020809104026020016040519081016040528092919081815260200182805461126f90613be1565b80156112ba5780601f10611291576101008083540402835291602001916112ba565b820191905f5260205f20905b81548152906001019060200180831161129d57829003601f168201915b505050505081526020016002820154815260200160038201548152505090505f6112eb6112e685610924565b612436565b90505f6113396112fa866119c6565b845f01518486602001516113118860600151610e70565b604051602001611325959493929190614a8f565b604051602081830303815290604052612436565b90508060405160200161134c9190614b89565b6040516020818303038152906040529350505050919050565b5f60055f8473ffffffffffffffffffffffffffffffffffffffff1673ffffffffffffffffffffffffffffffffffffffff1681526020019081526020015f205f8373ffffffffffffffffffffffffffffffffffffffff1673ffffffffffffffffffffffffffffffffffffffff1681526020019081526020015f205f9054906101000a900460ff16905092915050565b6113fb611477565b5f73ffffffffffffffffffffffffffffffffffffffff168173ffffffffffffffffffffffffffffffffffffffff160361146b575f6040517f1e4fbdf70000000000000000000000000000000000000000000000000000000081526004016114629190613629565b60405180910390fd5b61147481611fd1565b50565b61147f61169e565b73ffffffffffffffffffffffffffffffffffffffff1661149d610da2565b73ffffffffffffffffffffffffffffffffffffffff16146114fc576114c061169e565b6040517f118cdaa70000000000000000000000000000000000000000000000000000000081526004016114f39190613629565b60405180910390fd5b565b5f7f80ac58cd000000000000000000000000000000000000000000000000000000007bffffffffffffffffffffffffffffffffffffffffffffffffffffffff1916827bffffffffffffffffffffffffffffffffffffffffffffffffffffffff191614806115c857507f5b5e139f000000000000000000000000000000000000000000000000000000007bffffffffffffffffffffffffffffffffffffffffffffffffffffffff1916827bffffffffffffffffffffffffffffffffffffffffffffffffffffffff1916145b806115d857506115d782612449565b5b9050919050565b5f5f6115ea836124b2565b90505f73ffffffffffffffffffffffffffffffffffffffff168173ffffffffffffffffffffffffffffffffffffffff160361165c57826040517f7e27328900000000000000000000000000000000000000000000000000000000815260040161165391906138c8565b60405180910390fd5b80915050919050565b5f60045f8381526020019081526020015f205f9054906101000a900473ffffffffffffffffffffffffffffffffffffffff169050919050565b5f33905090565b6116b283838360016124eb565b505050565b5f8151146116fa576040517f08c379a00000000000000000000000000000000000000000000000000000000081526004016116f190614bf8565b60405180910390fd5b5f600e5f8581526020019081526020015f205490505f838060200190518101906117249190614c2a565b90505f6fffffffffffffffffffffffffffffffff8016821690505f608083901c905080600d5f8681526020019081526020015f206002018190555081600d5f8681526020019081526020015f2060030181905550837f10239bdd5c74b679554af458cf0f10870ab12e158e848cdac9ff21471bd1613782846040516117aa929190614c55565b60405180910390a250505050505050565b5f5f6117c6846124b2565b90505f73ffffffffffffffffffffffffffffffffffffffff168373ffffffffffffffffffffffffffffffffffffffff1614611807576118068184866126aa565b5b5f73ffffffffffffffffffffffffffffffffffffffff168173ffffffffffffffffffffffffffffffffffffffff1614611892576118465f855f5f6124eb565b600160035f8373ffffffffffffffffffffffffffffffffffffffff1673ffffffffffffffffffffffffffffffffffffffff1681526020019081526020015f205f82825403925050819055505b5f73ffffffffffffffffffffffffffffffffffffffff168573ffffffffffffffffffffffffffffffffffffffff161461191157600160035f8773ffffffffffffffffffffffffffffffffffffffff1673ffffffffffffffffffffffffffffffffffffffff1681526020019081526020015f205f82825401925050819055505b8460025f8681526020019081526020015f205f6101000a81548173ffffffffffffffffffffffffffffffffffffffff021916908373ffffffffffffffffffffffffffffffffffffffff160217905550838573ffffffffffffffffffffffffffffffffffffffff168273ffffffffffffffffffffffffffffffffffffffff167fddf252ad1be2c89b69c2b068fc378daa952ba7f163c4a11628f55a4df523b3ef60405160405180910390a4809150509392505050565b60605f60016119d48461276d565b0190505f8167ffffffffffffffff8111156119f2576119f16132ee565b5b6040519080825280601f01601f191660200182016040528015611a245781602001600182028036833780820191505090505b5090505f82602083010190505b600115611a85578080600190039150507f3031323334353637383961626364656600000000000000000000000000000000600a86061a8153600a8581611a7a57611a79614675565b5b0494505f8503611a31575b819350505050919050565b611a9c825f5f846128be565b5050565b5f815103611ada576040517ffe936cb700000000000000000000000000000000000000000000000000000000815260040160405180910390fd5b808260a001819052505050565b60605f611af5610100612964565b9050611b3f6040518060400160405280600c81526020017f636f64654c6f636174696f6e00000000000000000000000000000000000000008152508261298990919063ffffffff16565b611b67835f01516002811115611b5857611b57614c7c565b5b826129b190919063ffffffff16565b611baf6040518060400160405280600881526020017f6c616e67756167650000000000000000000000000000000000000000000000008152508261298990919063ffffffff16565b611bd783604001515f811115611bc857611bc7614c7c565b5b826129b190919063ffffffff16565b611c1f6040518060400160405280600681526020017f736f7572636500000000000000000000000000000000000000000000000000008152508261298990919063ffffffff16565b611c3683606001518261298990919063ffffffff16565b5f8360a00151511115611ced57611c8b6040518060400160405280600481526020017f61726773000000000000000000000000000000000000000000000000000000008152508261298990919063ffffffff16565b611c9481612a00565b5f5f90505b8360a0015151811015611ce257611cd78460a001518281518110611cc057611cbf614648565b5b60200260200101518361298990919063ffffffff16565b806001019050611c99565b50611cec81612a28565b5b5f8360800151511115611e2c575f6002811115611d0d57611d0c614c7c565b5b83602001516002811115611d2457611d23614c7c565b5b03611d5b576040517fa80d31f700000000000000000000000000000000000000000000000000000000815260040160405180910390fd5b611da36040518060400160405280600f81526020017f736563726574734c6f636174696f6e00000000000000000000000000000000008152508261298990919063ffffffff16565b611dcc83602001516002811115611dbd57611dbc614c7c565b5b826129b190919063ffffffff16565b611e146040518060400160405280600781526020017f73656372657473000000000000000000000000000000000000000000000000008152508261298990919063ffffffff16565b611e2b836080015182612a5090919063ffffffff16565b5b5f8360c00151511115611ee357611e816040518060400160405280600981526020017f62797465734172677300000000000000000000000000000000000000000000008152508261298990919063ffffffff16565b611e8a81612a00565b5f5f90505b8360c0015151811015611ed857611ecd8460c001518281518110611eb657611eb5614648565b5b602002602001015183612a5090919063ffffffff16565b806001019050611e8f565b50611ee281612a28565b5b805f01515f0151915050919050565b5f5f7f000000000000000000000000000000000000000000000000000000000000000073ffffffffffffffffffffffffffffffffffffffff1663461d27628688600188886040518663ffffffff1660e01b8152600401611f56959493929190614d35565b6020604051808303815f875af1158015611f72573d5f5f3e3d5ffd5b505050506040513d601f19601f82011682018060405250810190611f969190614da1565b9050807f1131472297a800fee664d1d89cfa8f7676ff07189ecc53f80bbb5f4969099db860405160405180910390a280915050949350505050565b5f60075f9054906101000a900473ffffffffffffffffffffffffffffffffffffffff1690508160075f6101000a81548173ffffffffffffffffffffffffffffffffffffffff021916908373ffffffffffffffffffffffffffffffffffffffff1602179055508173ffffffffffffffffffffffffffffffffffffffff168173ffffffffffffffffffffffffffffffffffffffff167f8be0079c531659141344cd1fd0a4f28419497f9722a3daafe3b4186f6b6457e060405160405180910390a35050565b5f73ffffffffffffffffffffffffffffffffffffffff168373ffffffffffffffffffffffffffffffffffffffff1603612104575f6040517fa9fbf51f0000000000000000000000000000000000000000000000000000000081526004016120fb9190613629565b60405180910390fd5b5f73ffffffffffffffffffffffffffffffffffffffff168273ffffffffffffffffffffffffffffffffffffffff160361217457816040517f5b08ba1800000000000000000000000000000000000000000000000000000000815260040161216b9190613629565b60405180910390fd5b8060055f8573ffffffffffffffffffffffffffffffffffffffff1673ffffffffffffffffffffffffffffffffffffffff1681526020019081526020015f205f8473ffffffffffffffffffffffffffffffffffffffff1673ffffffffffffffffffffffffffffffffffffffff1681526020019081526020015f205f6101000a81548160ff0219169083151502179055508173ffffffffffffffffffffffffffffffffffffffff168373ffffffffffffffffffffffffffffffffffffffff167f17307eab39ab6107e8899845ad3d59bd9653f200f220920489ca2b5937696c318360405161226091906134f3565b60405180910390a3505050565b5f8373ffffffffffffffffffffffffffffffffffffffff163b1115612412578273ffffffffffffffffffffffffffffffffffffffff1663150b7a02868685856040518563ffffffff1660e01b81526004016122cb9493929190614dcc565b6020604051808303815f875af192505050801561230657506040513d601f19601f820116820180604052508101906123039190614e2a565b60015b612387573d805f8114612334576040519150601f19603f3d011682016040523d82523d5f602084013e612339565b606091505b505f81510361237f57836040517f64a0ae920000000000000000000000000000000000000000000000000000000081526004016123769190613629565b60405180910390fd5b805160208201fd5b63150b7a0260e01b7bffffffffffffffffffffffffffffffffffffffffffffffffffffffff1916817bffffffffffffffffffffffffffffffffffffffffffffffffffffffff19161461241057836040517f64a0ae920000000000000000000000000000000000000000000000000000000081526004016124079190613629565b60405180910390fd5b505b5050505050565b612432828260405180602001604052805f815250612a78565b5050565b6060612442825f612a9b565b9050919050565b5f7f01ffc9a7000000000000000000000000000000000000000000000000000000007bffffffffffffffffffffffffffffffffffffffffffffffffffffffff1916827bffffffffffffffffffffffffffffffffffffffffffffffffffffffff1916149050919050565b5f60025f8381526020019081526020015f205f9054906101000a900473ffffffffffffffffffffffffffffffffffffffff169050919050565b808061252357505f73ffffffffffffffffffffffffffffffffffffffff168273ffffffffffffffffffffffffffffffffffffffff1614155b15612655575f612532846115df565b90505f73ffffffffffffffffffffffffffffffffffffffff168373ffffffffffffffffffffffffffffffffffffffff161415801561259c57508273ffffffffffffffffffffffffffffffffffffffff168173ffffffffffffffffffffffffffffffffffffffff1614155b80156125af57506125ad8184611365565b155b156125f157826040517fa9fbf51f0000000000000000000000000000000000000000000000000000000081526004016125e89190613629565b60405180910390fd5b811561265357838573ffffffffffffffffffffffffffffffffffffffff168273ffffffffffffffffffffffffffffffffffffffff167f8c5be1e5ebec7d5bd14f71427d1e84f3dd0314c0f7b2291e5b200ac8c7c3b92560405160405180910390a45b505b8360045f8581526020019081526020015f205f6101000a81548173ffffffffffffffffffffffffffffffffffffffff021916908373ffffffffffffffffffffffffffffffffffffffff16021790555050505050565b6126b5838383612c25565b612768575f73ffffffffffffffffffffffffffffffffffffffff168373ffffffffffffffffffffffffffffffffffffffff160361272957806040517f7e27328900000000000000000000000000000000000000000000000000000000815260040161272091906138c8565b60405180910390fd5b81816040517f177e802f00000000000000000000000000000000000000000000000000000000815260040161275f929190614e55565b60405180910390fd5b505050565b5f5f5f90507a184f03e93ff9f4daa797ed6e38ed64bf6a1f01000000000000000083106127c9577a184f03e93ff9f4daa797ed6e38ed64bf6a1f01000000000000000083816127bf576127be614675565b5b0492506040810190505b6d04ee2d6d415b85acef81000000008310612806576d04ee2d6d415b85acef810000000083816127fc576127fb614675565b5b0492506020810190505b662386f26fc10000831061283557662386f26fc10000838161282b5761282a614675565b5b0492506010810190505b6305f5e100831061285e576305f5e100838161285457612853614675565b5b0492506008810190505b612710831061288357612710838161287957612878614675565b5b0492506004810190505b606483106128a6576064838161289c5761289b614675565b5b0492506002810190505b600a83106128b5576001810190505b80915050919050565b5f8151036128f8576040517f22ce3edd00000000000000000000000000000000000000000000000000000000815260040160405180910390fd5b82845f0190600281111561290f5761290e614c7c565b5b9081600281111561292357612922614c7c565b5b815250508184604001905f81111561293e5761293d614c7c565b5b90815f81111561295157612950614c7c565b5b8152505080846060018190525050505050565b61296c61328d565b612979815f015183612ce5565b505f816020018181525050919050565b6129968260038351612d5b565b6129ac81835f0151612efb90919063ffffffff16565b505050565b6129d260026005600660ff16901b17835f0151612f1790919063ffffffff16565b506129fc82826040516020016129e891906138c8565b604051602081830303815290604052612a50565b5050565b612a0b816004612f7e565b600181602001818151612a1e9190614e7c565b9150818152505050565b612a33816007612f7e565b600181602001818151612a469190614eaf565b9150818152505050565b612a5d8260028351612d5b565b612a7381835f0151612efb90919063ffffffff16565b505050565b612a828383612fa3565b612a96612a8d61169e565b5f85858561226d565b505050565b60605f835103612abb5760405180602001604052805f8152509050612c1f565b5f82612aec57600360028551612ad19190614e7c565b612adb91906146cf565b6004612ae79190614ee2565b612b13565b6003600285516004612afe9190614ee2565b612b089190614e7c565b612b1291906146cf565b5b905060405191507f4142434445464748494a4b4c4d4e4f505152535455565758595a616263646566601f5261067083027f6768696a6b6c6d6e6f707172737475767778797a303132333435363738392b2f18603f526020820181810185865187016020810180515f82525b82841015612bd1576003840193508351603f8160121c16518753600187019650603f81600c1c16518753600187019650603f8160061c16518753600187019650603f811651875360018701965050612b7e565b80825288612c105760038a510660018114612bf35760028114612c0657612c0e565b603d6001880353603d6002880353612c0e565b603d60018803535b505b86885284604052505050505050505b92915050565b5f5f73ffffffffffffffffffffffffffffffffffffffff168373ffffffffffffffffffffffffffffffffffffffff1614158015612cdc57508273ffffffffffffffffffffffffffffffffffffffff168473ffffffffffffffffffffffffffffffffffffffff161480612c9d5750612c9c8484611365565b5b80612cdb57508273ffffffffffffffffffffffffffffffffffffffff16612cc383611665565b73ffffffffffffffffffffffffffffffffffffffff16145b5b90509392505050565b612ced6132ac565b5f602083612cfb91906146ff565b14612d2757602082612d0d91906146ff565b6020612d199190614eaf565b82612d249190614e7c565b91505b818360200181815250506040518084525f815282810160200181811015612d4c575f5ffd5b80604052505082905092915050565b60178167ffffffffffffffff1611612d9557612d8f8160058460ff16901b60ff1617845f0151612f1790919063ffffffff16565b50612ef6565b60ff8167ffffffffffffffff1611612df157612dc7601860058460ff16901b17845f0151612f1790919063ffffffff16565b50612deb8167ffffffffffffffff166001855f01516130969092919063ffffffff16565b50612ef5565b61ffff8167ffffffffffffffff1611612e4e57612e24601960058460ff16901b17845f0151612f1790919063ffffffff16565b50612e488167ffffffffffffffff166002855f01516130969092919063ffffffff16565b50612ef4565b63ffffffff8167ffffffffffffffff1611612ead57612e83601a60058460ff16901b17845f0151612f1790919063ffffffff16565b50612ea78167ffffffffffffffff166004855f01516130969092919063ffffffff16565b50612ef3565b612ecd601b60058460ff16901b17845f0151612f1790919063ffffffff16565b50612ef18167ffffffffffffffff166008855f01516130969092919063ffffffff16565b505b5b5b5b505050565b612f036132ac565b612f0f8383845161311f565b905092915050565b612f1f6132ac565b5f835f01515190505f600182612f359190614e7c565b905084602001518210612f5957612f5885600283612f539190614ee2565b6131fc565b5b84516020838201018581538151831115612f71578282525b5050849250505092915050565b612f9e601f60058360ff16901b17835f0151612f1790919063ffffffff16565b505050565b5f73ffffffffffffffffffffffffffffffffffffffff168273ffffffffffffffffffffffffffffffffffffffff1603613013575f6040517f64a0ae9200000000000000000000000000000000000000000000000000000000815260040161300a9190613629565b60405180910390fd5b5f61301f83835f6117bb565b90505f73ffffffffffffffffffffffffffffffffffffffff168173ffffffffffffffffffffffffffffffffffffffff1614613091575f6040517f73c6ac6e0000000000000000000000000000000000000000000000000000000081526004016130889190613629565b60405180910390fd5b505050565b61309e6132ac565b5f845f01515190505f81846130b39190614e7c565b905085602001518111156130d8576130d7866002836130d29190614ee2565b6131fc565b5b5f6001856101006130e99190615052565b6130f39190614eaf565b905086518281018783198251161781528151841115613110578382525b50508693505050509392505050565b6131276132ac565b8251821115613134575f5ffd5b5f845f01515190505f83826131499190614e7c565b9050856020015181111561316e5761316d866002836131689190614ee2565b6131fc565b5b5f5f87518051856020830101935080851115613188578482525b60208901925050505b602086106131cf57805182526020826131aa9190614e7c565b91506020816131b99190614e7c565b90506020866131c89190614eaf565b9550613191565b5f6001876020036101000a0390508019825116818451168181178552505050879450505050509392505050565b5f825f0151905061320d8383612ce5565b506132188382612efb565b50505050565b6040518060e001604052805f600281111561323c5761323b614c7c565b5b81526020015f600281111561325457613253614c7c565b5b81526020015f5f81111561326b5761326a614c7c565b5b8152602001606081526020016060815260200160608152602001606081525090565b60405180604001604052806132a06132ac565b81526020015f81525090565b6040518060400160405280606081526020015f81525090565b5f604051905090565b5f5ffd5b5f5ffd5b5f5ffd5b5f5ffd5b5f601f19601f8301169050919050565b7f4e487b71000000000000000000000000000000000000000000000000000000005f52604160045260245ffd5b613324826132de565b810181811067ffffffffffffffff82111715613343576133426132ee565b5b80604052505050565b5f6133556132c5565b9050613361828261331b565b919050565b5f67ffffffffffffffff8211156133805761337f6132ee565b5b613389826132de565b9050602081019050919050565b828183375f83830152505050565b5f6133b66133b184613366565b61334c565b9050828152602081018484840111156133d2576133d16132da565b5b6133dd848285613396565b509392505050565b5f82601f8301126133f9576133f86132d6565b5b81356134098482602086016133a4565b91505092915050565b5f60208284031215613427576134266132ce565b5b5f82013567ffffffffffffffff811115613444576134436132d2565b5b613450848285016133e5565b91505092915050565b5f7fffffffff0000000000000000000000000000000000000000000000000000000082169050919050565b61348d81613459565b8114613497575f5ffd5b50565b5f813590506134a881613484565b92915050565b5f602082840312156134c3576134c26132ce565b5b5f6134d08482850161349a565b91505092915050565b5f8115159050919050565b6134ed816134d9565b82525050565b5f6020820190506135065f8301846134e4565b92915050565b5f81519050919050565b5f82825260208201905092915050565b8281835e5f83830152505050565b5f61353e8261350c565b6135488185613516565b9350613558818560208601613526565b613561816132de565b840191505092915050565b5f6020820190508181035f8301526135848184613534565b905092915050565b5f819050919050565b61359e8161358c565b81146135a8575f5ffd5b50565b5f813590506135b981613595565b92915050565b5f602082840312156135d4576135d36132ce565b5b5f6135e1848285016135ab565b91505092915050565b5f73ffffffffffffffffffffffffffffffffffffffff82169050919050565b5f613613826135ea565b9050919050565b61362381613609565b82525050565b5f60208201905061363c5f83018461361a565b92915050565b61364b81613609565b8114613655575f5ffd5b50565b5f8135905061366681613642565b92915050565b5f5f60408385031215613682576136816132ce565b5b5f61368f85828601613658565b92505060206136a0858286016135ab565b9150509250929050565b5f67ffffffffffffffff82169050919050565b6136c6816136aa565b82525050565b5f6020820190506136df5f8301846136bd565b92915050565b5f819050919050565b6136f7816136e5565b8114613701575f5ffd5b50565b5f81359050613712816136ee565b92915050565b5f67ffffffffffffffff821115613732576137316132ee565b5b61373b826132de565b9050602081019050919050565b5f61375a61375584613718565b61334c565b905082815260208101848484011115613776576137756132da565b5b613781848285613396565b509392505050565b5f82601f83011261379d5761379c6132d6565b5b81356137ad848260208601613748565b91505092915050565b5f5f5f606084860312156137cd576137cc6132ce565b5b5f6137da86828701613704565b935050602084013567ffffffffffffffff8111156137fb576137fa6132d2565b5b61380786828701613789565b925050604084013567ffffffffffffffff811115613828576138276132d2565b5b61383486828701613789565b9150509250925092565b5f5f5f60608486031215613855576138546132ce565b5b5f61386286828701613658565b935050602061387386828701613658565b9250506040613884868287016135ab565b9150509250925092565b5f602082840312156138a3576138a26132ce565b5b5f6138b084828501613704565b91505092915050565b6138c28161358c565b82525050565b5f6020820190506138db5f8301846138b9565b92915050565b5f5f604083850312156138f7576138f66132ce565b5b5f613904858286016135ab565b925050602083013567ffffffffffffffff811115613925576139246132d2565b5b613931858286016133e5565b9150509250929050565b613944816136e5565b82525050565b5f60208201905061395d5f83018461393b565b92915050565b5f60208284031215613978576139776132ce565b5b5f61398584828501613658565b91505092915050565b613997816134d9565b81146139a1575f5ffd5b50565b5f813590506139b28161398e565b92915050565b5f5f604083850312156139ce576139cd6132ce565b5b5f6139db85828601613658565b92505060206139ec858286016139a4565b9150509250929050565b5f6080820190508181035f830152613a0e8187613534565b90508181036020830152613a228186613534565b9050613a3160408301856138b9565b613a3e60608301846138b9565b95945050505050565b5f5f5f5f60808587031215613a5f57613a5e6132ce565b5b5f613a6c87828801613658565b9450506020613a7d87828801613658565b9350506040613a8e878288016135ab565b925050606085013567ffffffffffffffff811115613aaf57613aae6132d2565b5b613abb87828801613789565b91505092959194509250565b5f5f5f5f5f60a08688031215613ae057613adf6132ce565b5b5f613aed88828901613658565b955050602086013567ffffffffffffffff811115613b0e57613b0d6132d2565b5b613b1a888289016133e5565b945050604086013567ffffffffffffffff811115613b3b57613b3a6132d2565b5b613b47888289016133e5565b9350506060613b58888289016135ab565b9250506080613b69888289016135ab565b9150509295509295909350565b5f5f60408385031215613b8c57613b8b6132ce565b5b5f613b9985828601613658565b9250506020613baa85828601613658565b9150509250929050565b7f4e487b71000000000000000000000000000000000000000000000000000000005f52602260045260245ffd5b5f6002820490506001821680613bf857607f821691505b602082108103613c0b57613c0a613bb4565b5b50919050565b5f819050815f5260205f209050919050565b5f6020601f8301049050919050565b5f82821b905092915050565b5f60088302613c6d7fffffffffffffffffffffffffffffffffffffffffffffffffffffffffffffffff82613c32565b613c778683613c32565b95508019841693508086168417925050509392505050565b5f819050919050565b5f613cb2613cad613ca88461358c565b613c8f565b61358c565b9050919050565b5f819050919050565b613ccb83613c98565b613cdf613cd782613cb9565b848454613c3e565b825550505050565b5f5f905090565b613cf6613ce7565b613d01818484613cc2565b505050565b5f5b82811015613d2757613d1c5f828401613cee565b600181019050613d08565b505050565b601f821115613d7a5782821115613d7957613d4681613c11565b613d4f83613c23565b613d5885613c23565b6020861015613d65575f90505b808301613d7482840382613d06565b505050505b5b505050565b5f82821c905092915050565b5f613d9a5f1984600802613d7f565b1980831691505092915050565b5f613db28383613d8b565b9150826002028217905092915050565b613dcb8261350c565b67ffffffffffffffff811115613de457613de36132ee565b5b613dee8254613be1565b613df9828285613d2c565b5f60209050601f831160018114613e2a575f8415613e18578287015190505b613e228582613da7565b865550613e89565b601f198416613e3886613c11565b5f5b82811015613e5f57848901518255600182019150602085019450602081019050613e3a565b86831015613e7c5784890151613e78601f891682613d8b565b8355505b6001600288020188555050505b505050505050565b5f606082019050613ea45f83018661361a565b613eb160208301856138b9565b613ebe604083018461361a565b949350505050565b5f81905092915050565b7f3c67207472616e73666f726d3d227472616e736c617465283138302c203130305f8201527f29222073686170652d72656e646572696e673d2263726973704564676573223e602082015250565b5f613f2a604083613ec6565b9150613f3582613ed0565b604082019050919050565b7f3c7465787420783d222d33302220793d223230222066696c6c3d2223333439385f8201527f64622220666f6e742d73697a653d223134223e504c41594552204e414d453a3c60208201527f2f746578743e0000000000000000000000000000000000000000000000000000604082015250565b5f613fc0604683613ec6565b9150613fcb82613f40565b604682019050919050565b7f3c7465787420783d222d33302220793d223530222066696c6c3d2223656366305f8201527f66312220666f6e742d73697a653d2232342220666f6e742d7765696768743d2260208201527f626f6c64223e0000000000000000000000000000000000000000000000000000604082015250565b5f614056604683613ec6565b915061406182613fd6565b604682019050919050565b5f6140768261350c565b6140808185613ec6565b9350614090818560208601613526565b80840191505092915050565b7f3c2f746578743e00000000000000000000000000000000000000000000000000815250565b7f3c6c696e652078313d222d3235222079313d223735222078323d2231323022205f8201527f79323d22373522207374726f6b653d222335353522207374726f6b652d77696460208201527f74683d223422207374726f6b652d6461736861727261793d22382c36222f3e00604082015250565b5f614142605f83613ec6565b915061414d826140c2565b605f82019050919050565b7f3c7465787420783d222d33302220793d22313135222066696c6c3d22236537345f8201527f6333632220666f6e742d73697a653d223134223e4c414e453a3c2f746578743e602082015250565b5f6141b2604083613ec6565b91506141bd82614158565b604082019050919050565b7f3c7465787420783d223132302220793d22313135222066696c6c3d22236563665f8201527f3066312220666f6e742d73697a653d2231342220746578742d616e63686f723d60208201527f22656e64223e0000000000000000000000000000000000000000000000000000604082015250565b5f614248604683613ec6565b9150614253826141c8565b604682019050919050565b7f3c7465787420783d222d33302220793d22313535222066696c6c3d22233935615f8201527f3561362220666f6e742d73697a653d223134223e47414d453a3c2f746578743e602082015250565b5f6142b8604083613ec6565b91506142c38261425e565b604082019050919050565b7f3c7465787420783d223132302220793d22313535222066696c6c3d22236563665f8201527f3066312220666f6e742d73697a653d2231342220746578742d616e63686f723d60208201527f22656e64223e0000000000000000000000000000000000000000000000000000604082015250565b5f61434e604683613ec6565b9150614359826142ce565b604682019050919050565b7f3c7465787420783d222d33302220793d22313935222066696c6c3d22233265635f8201527f6337312220666f6e742d73697a653d223134223e4b44413a3c2f746578743e00602082015250565b5f6143be603f83613ec6565b91506143c982614364565b603f82019050919050565b7f3c7465787420783d223132302220793d22313935222066696c6c3d22236563665f8201527f3066312220666f6e742d73697a653d2231342220746578742d616e63686f723d60208201527f22656e64223e0000000000000000000000000000000000000000000000000000604082015250565b5f614454604683613ec6565b915061445f826143d4565b604682019050919050565b7f3c6c696e652078313d222d3330222079313d22323235222078323d22313230225f8201527f2079323d2232323522207374726f6b653d222335353522207374726f6b652d7760208201527f696474683d223422207374726f6b652d6461736861727261793d22382c36222f60408201527f3e3c2f673e3c2f7376673e000000000000000000000000000000000000000000606082015250565b5f614510606b83613ec6565b915061451b8261446a565b606b82019050919050565b5f61453082613f1e565b915061453b82613fb4565b91506145468261404a565b9150614552828761406c565b915061455d8261409c565b60078201915061456c82614136565b9150614577826141a6565b91506145828261423c565b915061458e828661406c565b91506145998261409c565b6007820191506145a8826142ac565b91506145b382614342565b91506145bf828561406c565b91506145ca8261409c565b6007820191506145d9826143b2565b91506145e482614448565b91506145f0828461406c565b91506145fb8261409c565b60078201915061460a82614504565b915081905095945050505050565b5f614623828661406c565b915061462f828561406c565b915061463b828461406c565b9150819050949350505050565b7f4e487b71000000000000000000000000000000000000000000000000000000005f52603260045260245ffd5b7f4e487b71000000000000000000000000000000000000000000000000000000005f52601260045260245ffd5b7f4e487b71000000000000000000000000000000000000000000000000000000005f52601160045260245ffd5b5f6146d98261358c565b91506146e48361358c565b9250826146f4576146f3614675565b5b828204905092915050565b5f6147098261358c565b91506147148361358c565b92508261472457614723614675565b5b828206905092915050565b7f3000000000000000000000000000000000000000000000000000000000000000815250565b5f61475f8261472f565b60018201915061476f828461406c565b915081905092915050565b7f2e00000000000000000000000000000000000000000000000000000000000000815250565b5f6147ab828561406c565b91506147b68261477a565b6001820191506147c6828461406c565b91508190509392505050565b5f6147dc8261358c565b91507fffffffffffffffffffffffffffffffffffffffffffffffffffffffffffffffff820361480e5761480d6146a2565b5b600182019050919050565b7f4e6f6e6578697374656e7420746f6b656e0000000000000000000000000000005f82015250565b5f61484d601183613516565b915061485882614819565b602082019050919050565b5f6020820190508181035f83015261487a81614841565b9050919050565b7f7b226e616d65223a20224d504c20436172642023000000000000000000000000815250565b7f222c200000000000000000000000000000000000000000000000000000000000815250565b7f226465736372697074696f6e223a202244796e616d696320506c6179657220435f8201527f61726420666f7220000000000000000000000000000000000000000000000000602082015250565b5f614927602883613ec6565b9150614932826148cd565b602882019050919050565b7f22696d616765223a2022646174613a696d6167652f7376672b786d6c3b6261735f8201527f6536342c00000000000000000000000000000000000000000000000000000000602082015250565b5f614997602483613ec6565b91506149a28261493d565b602482019050919050565b7f2261747472696275746573223a205b7b2274726169745f74797065223a20224c5f8201527f616e65222c202276616c7565223a202200000000000000000000000000000000602082015250565b5f614a07603083613ec6565b9150614a12826149ad565b603082019050919050565b7f227d2c2000000000000000000000000000000000000000000000000000000000815250565b7f7b2274726169745f74797065223a20224b4441222c202276616c7565223a2022815250565b7f227d5d7d00000000000000000000000000000000000000000000000000000000815250565b5f614a9982614881565b601482019150614aa9828861406c565b9150614ab4826148a7565b600382019150614ac38261491b565b9150614acf828761406c565b9150614ada826148a7565b600382019150614ae98261498b565b9150614af5828661406c565b9150614b00826148a7565b600382019150614b0f826149fb565b9150614b1b828561406c565b9150614b2682614a1d565b600482019150614b3582614a43565b602082019150614b45828461406c565b9150614b5082614a69565b6004820191508190509695505050505050565b7f646174613a6170706c69636174696f6e2f6a736f6e3b6261736536342c000000815250565b5f614b9382614b63565b601d82019150614ba3828461406c565b915081905092915050565b7f4f7261636c65204572726f7200000000000000000000000000000000000000005f82015250565b5f614be2600c83613516565b9150614bed82614bae565b602082019050919050565b5f6020820190508181035f830152614c0f81614bd6565b9050919050565b5f81519050614c2481613595565b92915050565b5f60208284031215614c3f57614c3e6132ce565b5b5f614c4c84828501614c16565b91505092915050565b5f604082019050614c685f8301856138b9565b614c7560208301846138b9565b9392505050565b7f4e487b71000000000000000000000000000000000000000000000000000000005f52602160045260245ffd5b5f81519050919050565b5f82825260208201905092915050565b5f614ccd82614ca9565b614cd78185614cb3565b9350614ce7818560208601613526565b614cf0816132de565b840191505092915050565b5f61ffff82169050919050565b614d1181614cfb565b82525050565b5f63ffffffff82169050919050565b614d2f81614d17565b82525050565b5f60a082019050614d485f8301886136bd565b8181036020830152614d5a8187614cc3565b9050614d696040830186614d08565b614d766060830185614d26565b614d83608083018461393b565b9695505050505050565b5f81519050614d9b816136ee565b92915050565b5f60208284031215614db657614db56132ce565b5b5f614dc384828501614d8d565b91505092915050565b5f608082019050614ddf5f83018761361a565b614dec602083018661361a565b614df960408301856138b9565b8181036060830152614e0b8184614cc3565b905095945050505050565b5f81519050614e2481613484565b92915050565b5f60208284031215614e3f57614e3e6132ce565b5b5f614e4c84828501614e16565b91505092915050565b5f604082019050614e685f83018561361a565b614e7560208301846138b9565b9392505050565b5f614e868261358c565b9150614e918361358c565b9250828201905080821115614ea957614ea86146a2565b5b92915050565b5f614eb98261358c565b9150614ec48361358c565b9250828203905081811115614edc57614edb6146a2565b5b92915050565b5f614eec8261358c565b9150614ef78361358c565b9250828202614f058161358c565b91508282048414831517614f1c57614f1b6146a2565b5b5092915050565b5f8160011c9050919050565b5f5f8291508390505b6001851115614f7857808604811115614f5457614f536146a2565b5b6001851615614f635780820291505b8081029050614f7185614f23565b9450614f38565b94509492505050565b5f82614f90576001905061504b565b81614f9d575f905061504b565b8160018114614fb35760028114614fbd57614fec565b600191505061504b565b60ff841115614fcf57614fce6146a2565b5b8360020a915084821115614fe657614fe56146a2565b5b5061504b565b5060208310610133831016604e8410600b84101617156150215782820a90508381111561501c5761501b6146a2565b5b61504b565b61502e8484846001614f2f565b92509050818404811115615045576150446146a2565b5b81810290505b9392505050565b5f61505c8261358c565b91506150678361358c565b92506150947fffffffffffffffffffffffffffffffffffffffffffffffffffffffffffffffff8484614f81565b90509291505056fe3c7376672077696474683d2233323022206865696768743d22343030222076696577426f783d2230203020333230203430302220786d6c6e733d22687474703a2f2f7777772e77332e6f72672f323030302f737667223e3c672073686170652d72656e646572696e673d2263726973704564676573223e3c7265637420783d22302220793d2230222077696474683d2233323022206865696768743d22343030222066696c6c3d2223656366306631222f3e3c7265637420783d22382220793d2238222077696474683d2233303422206865696768743d22333834222066696c6c3d2223303232663532222f3e3c7465787420783d223136302220793d223430222066696c6c3d22236563663066312220666f6e742d73697a653d2232302220746578742d616e63686f723d226d6964646c652220666f6e742d7765696768743d22626f6c64223e504c4159455220434152443c2f746578743e3c6c696e652078313d223230222079313d223535222078323d22333030222079323d22353522207374726f6b653d222365636630663122207374726f6b652d77696474683d2234222f3e3c2f673e3c73766720783d22302220793d223330222077696474683d2231353022206865696768743d22333830222076696577426f783d22302030203332203332222073686170652d72656e646572696e673d2263726973704564676573223e3c706174682066696c6c3d22233030303030302220643d224d3131203268313076314831317a204d3920336832763148397a204d32312033683276314832317a204d3820346831763148387a204d32332034683176314832337a204d3820356831763148387a204d32342035683176314832347a204d3820366831763148387a204d32342036683176314832347a204d3820376831763148387a204d32342037683176314832347a204d3820386831763148387a204d32342038683176314832347a204d3920396831763148397a204d32342039683176314832347a204d392031306831763148397a204d3233203130683176314832337a204d392031316831763148397a204d3132203131683276314831327a204d3138203131683276314831387a204d3233203131683176314832337a204d392031326831763148397a204d3233203132683176314832337a204d3130203133683176314831307a204d3232203133683176314832327a204d3130203134683176314831307a204d3232203134683176314832327a204d3130203135683176314831307a204d3232203135683176314832327a204d3131203136683176314831317a204d3231203136683176314832317a204d3131203137683176314831317a204d3231203137683176314832317a204d3132203138683176314831327a204d3230203138683176314832307a204d3132203139683176314831327a204d3230203139683176314832307a204d3131203230683176314831317a204d3231203230683176314832317a204d392032316832763148397a204d3232203231683276314832327a204d372032326832763148377a204d3234203232683276314832347a204d362032336831763148367a204d3236203233683176314832367a204d352032346831763148357a204d3237203234683176314832377a204d342032356831763148347a204d3238203235683176314832387a204d332032366831763148337a204d3239203236683176314832397a204d332032376831763148337a204d3239203237683176314832397a204d332032386831763148337a204d3239203238683176314832397a204d332032396831763148337a204d3239203239683176314832397a204d332033306831763148337a204d3239203330683176314832397a204d33203331683237763148337a22202f3e3c706174682066696c6c3d22677261792220643d224d3131203368313076314831317a204d392034683134763148397a204d392035683135763148397a204d392036683135763148397a204d392037683135763148397a204d3920386833763148397a204d32302038683476314832307a204d31302039683276314831307a204d32322039683276314832327a204d3130203130683176314831307a204d3232203130683176314832327a22202f3e3c706174682066696c6c3d22236534623539302220643d224d31322038683876314831327a204d3132203968313076314831327a204d313120313068313176314831317a204d3130203131683276314831307a204d3134203131683476314831347a204d3230203131683376314832307a204d313020313268313376314831307a204d3131203133683476314831317a204d3137203133683576314831377a204d313120313468313176314831317a204d3131203135683376314831317a204d3138203135683476314831387a204d3132203136683976314831327a204d3132203137683976314831327a204d3133203138683776314831337a22202f3e3c706174682066696c6c3d22236335393437332220643d224d3135203133683276314831357a204d3133203139683776314831337a204d3134203230683576314831347a22202f3e3c706174682066696c6c3d22236264366134662220643d224d3134203135683476314831347a22202f3e3c706174682066696c6c3d22236666666666662220643d224d3132203230683276314831327a204d3139203230683276314831397a204d3131203231683376314831317a204d3139203231683376314831397a204d392032326834763148397a204d3230203232683476314832307a204d372032336835763148377a204d3231203233683576314832317a204d362032346835763148367a204d3232203234683576314832327a204d352032356835763148357a204d3133203235683276314831337a204d3136203235683276314831367a204d3139203235683276314831397a204d3233203235683576314832337a204d342032366835763148347a204d3234203236683576314832347a204d342032376834763148347a204d3235203237683476314832357a204d342032386834763148347a204d3235203238683476314832357a204d342032396834763148347a204d3235203239683476314832357a204d362033306832763148367a204d3235203330683276314832357a22202f3e3c706174682066696c6c3d22236566383131352220643d224d3134203231683576314831347a204d3133203232683776314831337a204d3132203233683976314831327a204d313120323468313176314831317a204d3130203235683376314831307a204d3135203235683176314831357a204d3138203235683176314831387a204d3231203235683276314832317a204d39203236683135763148397a204d38203237683137763148387a204d38203238683137763148387a204d38203239683137763148387a204d342033306832763148347a204d38203330683137763148387a204d3237203330683276314832377a22202f3e3c2f7376673ea2646970667358221220998f92dda8050b548392a218dc50895e117e3008d9339a2cd2e49434ea54c5be64736f6c63430008220033",
			"opcodes": "PUSH1 0xA0 PUSH1 0x40 MSTORE PUSH20 0xB83E47C2BC239B3BF370BC41E1459A34B41238D0 PUSH1 0x9 PUSH0 PUSH2 0x100 EXP DUP2 SLOAD DUP2 PUSH20 0xFFFFFFFFFFFFFFFFFFFFFFFFFFFFFFFFFFFFFFFF MUL NOT AND SWAP1 DUP4 PUSH20 0xFFFFFFFFFFFFFFFFFFFFFFFFFFFFFFFFFFFFFFFF AND MUL OR SWAP1 SSTORE POP PUSH32 0x66756E2D657468657265756D2D7365706F6C69612D3100000000000000000000 PUSH0 SHL PUSH1 0xA SSTORE CALLVALUE DUP1 ISZERO PUSH2 0x89 JUMPI PUSH0 PUSH0 REVERT JUMPDEST POP PUSH1 0x40 MLOAD PUSH2 0x61DA CODESIZE SUB DUP1 PUSH2 0x61DA DUP4 CODECOPY DUP2 DUP2 ADD PUSH1 0x40 MSTORE DUP2 ADD SWAP1 PUSH2 0xAB SWAP2 SWAP1 PUSH2 0x342 JUMP JUMPDEST PUSH1 0x9 PUSH0 SWAP1 SLOAD SWAP1 PUSH2 0x100 EXP SWAP1 DIV PUSH20 0xFFFFFFFFFFFFFFFFFFFFFFFFFFFFFFFFFFFFFFFF AND CALLER PUSH1 0x40 MLOAD DUP1 PUSH1 0x40 ADD PUSH1 0x40 MSTORE DUP1 PUSH1 0x12 DUP2 MSTORE PUSH1 0x20 ADD PUSH32 0x4D504C2044796E616D696320506C617965720000000000000000000000000000 DUP2 MSTORE POP PUSH1 0x40 MLOAD DUP1 PUSH1 0x40 ADD PUSH1 0x40 MSTORE DUP1 PUSH1 0x4 DUP2 MSTORE PUSH1 0x20 ADD PUSH32 0x4D444E5000000000000000000000000000000000000000000000000000000000 DUP2 MSTORE POP DUP2 PUSH0 SWAP1 DUP2 PUSH2 0x148 SWAP2 SWAP1 PUSH2 0x5BB JUMP JUMPDEST POP DUP1 PUSH1 0x1 SWAP1 DUP2 PUSH2 0x158 SWAP2 SWAP1 PUSH2 0x5BB JUMP JUMPDEST POP POP POP PUSH0 PUSH20 0xFFFFFFFFFFFFFFFFFFFFFFFFFFFFFFFFFFFFFFFF AND DUP2 PUSH20 0xFFFFFFFFFFFFFFFFFFFFFFFFFFFFFFFFFFFFFFFF AND SUB PUSH2 0x1CB JUMPI PUSH0 PUSH1 0x40 MLOAD PUSH32 0x1E4FBDF700000000000000000000000000000000000000000000000000000000 DUP2 MSTORE PUSH1 0x4 ADD PUSH2 0x1C2 SWAP2 SWAP1 PUSH2 0x6C9 JUMP JUMPDEST PUSH1 0x40 MLOAD DUP1 SWAP2 SUB SWAP1 REVERT JUMPDEST PUSH2 0x1DA DUP2 PUSH2 0x23E PUSH1 0x20 SHL PUSH1 0x20 SHR JUMP JUMPDEST POP DUP1 PUSH20 0xFFFFFFFFFFFFFFFFFFFFFFFFFFFFFFFFFFFFFFFF AND PUSH1 0x80 DUP2 PUSH20 0xFFFFFFFFFFFFFFFFFFFFFFFFFFFFFFFFFFFFFFFF AND DUP2 MSTORE POP POP POP DUP1 PUSH1 0xB PUSH0 PUSH2 0x100 EXP DUP2 SLOAD DUP2 PUSH8 0xFFFFFFFFFFFFFFFF MUL NOT AND SWAP1 DUP4 PUSH8 0xFFFFFFFFFFFFFFFF AND MUL OR SWAP1 SSTORE POP POP PUSH2 0x6E2 JUMP JUMPDEST PUSH0 PUSH1 0x7 PUSH0 SWAP1 SLOAD SWAP1 PUSH2 0x100 EXP SWAP1 DIV PUSH20 0xFFFFFFFFFFFFFFFFFFFFFFFFFFFFFFFFFFFFFFFF AND SWAP1 POP DUP2 PUSH1 0x7 PUSH0 PUSH2 0x100 EXP DUP2 SLOAD DUP2 PUSH20 0xFFFFFFFFFFFFFFFFFFFFFFFFFFFFFFFFFFFFFFFF MUL NOT AND SWAP1 DUP4 PUSH20 0xFFFFFFFFFFFFFFFFFFFFFFFFFFFFFFFFFFFFFFFF AND MUL OR SWAP1 SSTORE POP DUP2 PUSH20 0xFFFFFFFFFFFFFFFFFFFFFFFFFFFFFFFFFFFFFFFF AND DUP2 PUSH20 0xFFFFFFFFFFFFFFFFFFFFFFFFFFFFFFFFFFFFFFFF AND PUSH32 0x8BE0079C531659141344CD1FD0A4F28419497F9722A3DAAFE3B4186F6B6457E0 PUSH1 0x40 MLOAD PUSH1 0x40 MLOAD DUP1 SWAP2 SUB SWAP1 LOG3 POP POP JUMP JUMPDEST PUSH0 PUSH0 REVERT JUMPDEST PUSH0 PUSH8 0xFFFFFFFFFFFFFFFF DUP3 AND SWAP1 POP SWAP2 SWAP1 POP JUMP JUMPDEST PUSH2 0x321 DUP2 PUSH2 0x305 JUMP JUMPDEST DUP2 EQ PUSH2 0x32B JUMPI PUSH0 PUSH0 REVERT JUMPDEST POP JUMP JUMPDEST PUSH0 DUP2 MLOAD SWAP1 POP PUSH2 0x33C DUP2 PUSH2 0x318 JUMP JUMPDEST SWAP3 SWAP2 POP POP JUMP JUMPDEST PUSH0 PUSH1 0x20 DUP3 DUP5 SUB SLT ISZERO PUSH2 0x357 JUMPI PUSH2 0x356 PUSH2 0x301 JUMP JUMPDEST JUMPDEST PUSH0 PUSH2 0x364 DUP5 DUP3 DUP6 ADD PUSH2 0x32E JUMP JUMPDEST SWAP2 POP POP SWAP3 SWAP2 POP POP JUMP JUMPDEST PUSH0 DUP2 MLOAD SWAP1 POP SWAP2 SWAP1 POP JUMP JUMPDEST PUSH32 0x4E487B7100000000000000000000000000000000000000000000000000000000 PUSH0 MSTORE PUSH1 0x41 PUSH1 0x4 MSTORE PUSH1 0x24 PUSH0 REVERT JUMPDEST PUSH32 0x4E487B7100000000000000000000000000000000000000000000000000000000 PUSH0 MSTORE PUSH1 0x22 PUSH1 0x4 MSTORE PUSH1 0x24 PUSH0 REVERT JUMPDEST PUSH0 PUSH1 0x2 DUP3 DIV SWAP1 POP PUSH1 0x1 DUP3 AND DUP1 PUSH2 0x3E8 JUMPI PUSH1 0x7F DUP3 AND SWAP2 POP JUMPDEST PUSH1 0x20 DUP3 LT DUP2 SUB PUSH2 0x3FB JUMPI PUSH2 0x3FA PUSH2 0x3A4 JUMP JUMPDEST JUMPDEST POP SWAP2 SWAP1 POP JUMP JUMPDEST PUSH0 DUP2 SWAP1 POP DUP2 PUSH0 MSTORE PUSH1 0x20 PUSH0 KECCAK256 SWAP1 POP SWAP2 SWAP1 POP JUMP JUMPDEST PUSH0 PUSH1 0x20 PUSH1 0x1F DUP4 ADD DIV SWAP1 POP SWAP2 SWAP1 POP JUMP JUMPDEST PUSH0 DUP3 DUP3 SHL SWAP1 POP SWAP3 SWAP2 POP POP JUMP JUMPDEST PUSH0 PUSH1 0x8 DUP4 MUL PUSH2 0x45D PUSH32 0xFFFFFFFFFFFFFFFFFFFFFFFFFFFFFFFFFFFFFFFFFFFFFFFFFFFFFFFFFFFFFFFF DUP3 PUSH2 0x422 JUMP JUMPDEST PUSH2 0x467 DUP7 DUP4 PUSH2 0x422 JUMP JUMPDEST SWAP6 POP DUP1 NOT DUP5 AND SWAP4 POP DUP1 DUP7 AND DUP5 OR SWAP3 POP POP POP SWAP4 SWAP3 POP POP POP JUMP JUMPDEST PUSH0 DUP2 SWAP1 POP SWAP2 SWAP1 POP JUMP JUMPDEST PUSH0 DUP2 SWAP1 POP SWAP2 SWAP1 POP JUMP JUMPDEST PUSH0 PUSH2 0x4AB PUSH2 0x4A6 PUSH2 0x4A1 DUP5 PUSH2 0x47F JUMP JUMPDEST PUSH2 0x488 JUMP JUMPDEST PUSH2 0x47F JUMP JUMPDEST SWAP1 POP SWAP2 SWAP1 POP JUMP JUMPDEST PUSH0 DUP2 SWAP1 POP SWAP2 SWAP1 POP JUMP JUMPDEST PUSH2 0x4C4 DUP4 PUSH2 0x491 JUMP JUMPDEST PUSH2 0x4D8 PUSH2 0x4D0 DUP3 PUSH2 0x4B2 JUMP JUMPDEST DUP5 DUP5 SLOAD PUSH2 0x42E JUMP JUMPDEST DUP3 SSTORE POP POP POP POP JUMP JUMPDEST PUSH0 PUSH0 SWAP1 POP SWAP1 JUMP JUMPDEST PUSH2 0x4EF PUSH2 0x4E0 JUMP JUMPDEST PUSH2 0x4FA DUP2 DUP5 DUP5 PUSH2 0x4BB JUMP JUMPDEST POP POP POP JUMP JUMPDEST PUSH0 JUMPDEST DUP3 DUP2 LT ISZERO PUSH2 0x520 JUMPI PUSH2 0x515 PUSH0 DUP3 DUP5 ADD PUSH2 0x4E7 JUMP JUMPDEST PUSH1 0x1 DUP2 ADD SWAP1 POP PUSH2 0x501 JUMP JUMPDEST POP POP POP JUMP JUMPDEST PUSH1 0x1F DUP3 GT ISZERO PUSH2 0x573 JUMPI DUP3 DUP3 GT ISZERO PUSH2 0x572 JUMPI PUSH2 0x53F DUP2 PUSH2 0x401 JUMP JUMPDEST PUSH2 0x548 DUP4 PUSH2 0x413 JUMP JUMPDEST PUSH2 0x551 DUP6 PUSH2 0x413 JUMP JUMPDEST PUSH1 0x20 DUP7 LT ISZERO PUSH2 0x55E JUMPI PUSH0 SWAP1 POP JUMPDEST DUP1 DUP4 ADD PUSH2 0x56D DUP3 DUP5 SUB DUP3 PUSH2 0x4FF JUMP JUMPDEST POP POP POP POP JUMPDEST JUMPDEST POP POP POP JUMP JUMPDEST PUSH0 DUP3 DUP3 SHR SWAP1 POP SWAP3 SWAP2 POP POP JUMP JUMPDEST PUSH0 PUSH2 0x593 PUSH0 NOT DUP5 PUSH1 0x8 MUL PUSH2 0x578 JUMP JUMPDEST NOT DUP1 DUP4 AND SWAP2 POP POP SWAP3 SWAP2 POP POP JUMP JUMPDEST PUSH0 PUSH2 0x5AB DUP4 DUP4 PUSH2 0x584 JUMP JUMPDEST SWAP2 POP DUP3 PUSH1 0x2 MUL DUP3 OR SWAP1 POP SWAP3 SWAP2 POP POP JUMP JUMPDEST PUSH2 0x5C4 DUP3 PUSH2 0x36D JUMP JUMPDEST PUSH8 0xFFFFFFFFFFFFFFFF DUP2 GT ISZERO PUSH2 0x5DD JUMPI PUSH2 0x5DC PUSH2 0x377 JUMP JUMPDEST JUMPDEST PUSH2 0x5E7 DUP3 SLOAD PUSH2 0x3D1 JUMP JUMPDEST PUSH2 0x5F2 DUP3 DUP3 DUP6 PUSH2 0x525 JUMP JUMPDEST PUSH0 PUSH1 0x20 SWAP1 POP PUSH1 0x1F DUP4 GT PUSH1 0x1 DUP2 EQ PUSH2 0x623 JUMPI PUSH0 DUP5 ISZERO PUSH2 0x611 JUMPI DUP3 DUP8 ADD MLOAD SWAP1 POP JUMPDEST PUSH2 0x61B DUP6 DUP3 PUSH2 0x5A0 JUMP JUMPDEST DUP7 SSTORE POP PUSH2 0x682 JUMP JUMPDEST PUSH1 0x1F NOT DUP5 AND PUSH2 0x631 DUP7 PUSH2 0x401 JUMP JUMPDEST PUSH0 JUMPDEST DUP3 DUP2 LT ISZERO PUSH2 0x658 JUMPI DUP5 DUP10 ADD MLOAD DUP3 SSTORE PUSH1 0x1 DUP3 ADD SWAP2 POP PUSH1 0x20 DUP6 ADD SWAP5 POP PUSH1 0x20 DUP2 ADD SWAP1 POP PUSH2 0x633 JUMP JUMPDEST DUP7 DUP4 LT ISZERO PUSH2 0x675 JUMPI DUP5 DUP10 ADD MLOAD PUSH2 0x671 PUSH1 0x1F DUP10 AND DUP3 PUSH2 0x584 JUMP JUMPDEST DUP4 SSTORE POP JUMPDEST PUSH1 0x1 PUSH1 0x2 DUP9 MUL ADD DUP9 SSTORE POP POP POP JUMPDEST POP POP POP POP POP POP JUMP JUMPDEST PUSH0 PUSH20 0xFFFFFFFFFFFFFFFFFFFFFFFFFFFFFFFFFFFFFFFF DUP3 AND SWAP1 POP SWAP2 SWAP1 POP JUMP JUMPDEST PUSH0 PUSH2 0x6B3 DUP3 PUSH2 0x68A JUMP JUMPDEST SWAP1 POP SWAP2 SWAP1 POP JUMP JUMPDEST PUSH2 0x6C3 DUP2 PUSH2 0x6A9 JUMP JUMPDEST DUP3 MSTORE POP POP JUMP JUMPDEST PUSH0 PUSH1 0x20 DUP3 ADD SWAP1 POP PUSH2 0x6DC PUSH0 DUP4 ADD DUP5 PUSH2 0x6BA JUMP JUMPDEST SWAP3 SWAP2 POP POP JUMP JUMPDEST PUSH1 0x80 MLOAD PUSH2 0x5AD9 PUSH2 0x701 PUSH0 CODECOPY PUSH0 DUP2 DUP2 PUSH2 0x694 ADD MSTORE PUSH2 0x1EF6 ADD MSTORE PUSH2 0x5AD9 PUSH0 RETURN INVALID PUSH1 0x80 PUSH1 0x40 MSTORE CALLVALUE DUP1 ISZERO PUSH2 0xF JUMPI PUSH0 PUSH0 REVERT JUMPDEST POP PUSH1 0x4 CALLDATASIZE LT PUSH2 0x18B JUMPI PUSH0 CALLDATALOAD PUSH1 0xE0 SHR DUP1 PUSH4 0x6F1078D8 GT PUSH2 0xDC JUMPI DUP1 PUSH4 0xA22E38DB GT PUSH2 0x95 JUMPI DUP1 PUSH4 0xB896D433 GT PUSH2 0x6F JUMPI DUP1 PUSH4 0xB896D433 EQ PUSH2 0x4A6 JUMPI DUP1 PUSH4 0xC87B56DD EQ PUSH2 0x4C2 JUMPI DUP1 PUSH4 0xE985E9C5 EQ PUSH2 0x4F2 JUMPI DUP1 PUSH4 0xF2FDE38B EQ PUSH2 0x522 JUMPI PUSH2 0x18B JUMP JUMPDEST DUP1 PUSH4 0xA22E38DB EQ PUSH2 0x427 JUMPI DUP1 PUSH4 0xB4CFAE44 EQ PUSH2 0x457 JUMPI DUP1 PUSH4 0xB88D4FDE EQ PUSH2 0x48A JUMPI PUSH2 0x18B JUMP JUMPDEST DUP1 PUSH4 0x6F1078D8 EQ PUSH2 0x365 JUMPI DUP1 PUSH4 0x70A08231 EQ PUSH2 0x395 JUMPI DUP1 PUSH4 0x715018A6 EQ PUSH2 0x3C5 JUMPI DUP1 PUSH4 0x8DA5CB5B EQ PUSH2 0x3CF JUMPI DUP1 PUSH4 0x95D89B41 EQ PUSH2 0x3ED JUMPI DUP1 PUSH4 0xA22CB465 EQ PUSH2 0x40B JUMPI PUSH2 0x18B JUMP JUMPDEST DUP1 PUSH4 0xCA76175 GT PUSH2 0x149 JUMPI DUP1 PUSH4 0x42842E0E GT PUSH2 0x123 JUMPI DUP1 PUSH4 0x42842E0E EQ PUSH2 0x2B9 JUMPI DUP1 PUSH4 0x6352211E EQ PUSH2 0x2D5 JUMPI DUP1 PUSH4 0x68015A4B EQ PUSH2 0x305 JUMPI DUP1 PUSH4 0x6DCEE4CA EQ PUSH2 0x335 JUMPI PUSH2 0x18B JUMP JUMPDEST DUP1 PUSH4 0xCA76175 EQ PUSH2 0x263 JUMPI DUP1 PUSH4 0x13C60177 EQ PUSH2 0x27F JUMPI DUP1 PUSH4 0x23B872DD EQ PUSH2 0x29D JUMPI PUSH2 0x18B JUMP JUMPDEST DUP1 PUSH3 0xB46767 EQ PUSH2 0x18F JUMPI DUP1 PUSH4 0x1FFC9A7 EQ PUSH2 0x1AB JUMPI DUP1 PUSH4 0x6FDDE03 EQ PUSH2 0x1DB JUMPI DUP1 PUSH4 0x81812FC EQ PUSH2 0x1F9 JUMPI DUP1 PUSH4 0x95EA7B3 EQ PUSH2 0x229 JUMPI DUP1 PUSH4 0x9C1BA2E EQ PUSH2 0x245 JUMPI JUMPDEST PUSH0 PUSH0 REVERT JUMPDEST PUSH2 0x1A9 PUSH1 0x4 DUP1 CALLDATASIZE SUB DUP2 ADD SWAP1 PUSH2 0x1A4 SWAP2 SWAP1 PUSH2 0x3412 JUMP JUMPDEST PUSH2 0x53E JUMP JUMPDEST STOP JUMPDEST PUSH2 0x1C5 PUSH1 0x4 DUP1 CALLDATASIZE SUB DUP2 ADD SWAP1 PUSH2 0x1C0 SWAP2 SWAP1 PUSH2 0x34AE JUMP JUMPDEST PUSH2 0x559 JUMP JUMPDEST PUSH1 0x40 MLOAD PUSH2 0x1D2 SWAP2 SWAP1 PUSH2 0x34F3 JUMP JUMPDEST PUSH1 0x40 MLOAD DUP1 SWAP2 SUB SWAP1 RETURN JUMPDEST PUSH2 0x1E3 PUSH2 0x5B9 JUMP JUMPDEST PUSH1 0x40 MLOAD PUSH2 0x1F0 SWAP2 SWAP1 PUSH2 0x356C JUMP JUMPDEST PUSH1 0x40 MLOAD DUP1 SWAP2 SUB SWAP1 RETURN JUMPDEST PUSH2 0x213 PUSH1 0x4 DUP1 CALLDATASIZE SUB DUP2 ADD SWAP1 PUSH2 0x20E SWAP2 SWAP1 PUSH2 0x35BF JUMP JUMPDEST PUSH2 0x648 JUMP JUMPDEST PUSH1 0x40 MLOAD PUSH2 0x220 SWAP2 SWAP1 PUSH2 0x3629 JUMP JUMPDEST PUSH1 0x40 MLOAD DUP1 SWAP2 SUB SWAP1 RETURN JUMPDEST PUSH2 0x243 PUSH1 0x4 DUP1 CALLDATASIZE SUB DUP2 ADD SWAP1 PUSH2 0x23E SWAP2 SWAP1 PUSH2 0x366C JUMP JUMPDEST PUSH2 0x663 JUMP JUMPDEST STOP JUMPDEST PUSH2 0x24D PUSH2 0x679 JUMP JUMPDEST PUSH1 0x40 MLOAD PUSH2 0x25A SWAP2 SWAP1 PUSH2 0x36CC JUMP JUMPDEST PUSH1 0x40 MLOAD DUP1 SWAP2 SUB SWAP1 RETURN JUMPDEST PUSH2 0x27D PUSH1 0x4 DUP1 CALLDATASIZE SUB DUP2 ADD SWAP1 PUSH2 0x278 SWAP2 SWAP1 PUSH2 0x37B6 JUMP JUMPDEST PUSH2 0x692 JUMP JUMPDEST STOP JUMPDEST PUSH2 0x287 PUSH2 0x754 JUMP JUMPDEST PUSH1 0x40 MLOAD PUSH2 0x294 SWAP2 SWAP1 PUSH2 0x356C JUMP JUMPDEST PUSH1 0x40 MLOAD DUP1 SWAP2 SUB SWAP1 RETURN JUMPDEST PUSH2 0x2B7 PUSH1 0x4 DUP1 CALLDATASIZE SUB DUP2 ADD SWAP1 PUSH2 0x2B2 SWAP2 SWAP1 PUSH2 0x383E JUMP JUMPDEST PUSH2 0x7E0 JUMP JUMPDEST STOP JUMPDEST PUSH2 0x2D3 PUSH1 0x4 DUP1 CALLDATASIZE SUB DUP2 ADD SWAP1 PUSH2 0x2CE SWAP2 SWAP1 PUSH2 0x383E JUMP JUMPDEST PUSH2 0x8DF JUMP JUMPDEST STOP JUMPDEST PUSH2 0x2EF PUSH1 0x4 DUP1 CALLDATASIZE SUB DUP2 ADD SWAP1 PUSH2 0x2EA SWAP2 SWAP1 PUSH2 0x35BF JUMP JUMPDEST PUSH2 0x8FE JUMP JUMPDEST PUSH1 0x40 MLOAD PUSH2 0x2FC SWAP2 SWAP1 PUSH2 0x3629 JUMP JUMPDEST PUSH1 0x40 MLOAD DUP1 SWAP2 SUB SWAP1 RETURN JUMPDEST PUSH2 0x31F PUSH1 0x4 DUP1 CALLDATASIZE SUB DUP2 ADD SWAP1 PUSH2 0x31A SWAP2 SWAP1 PUSH2 0x388E JUMP JUMPDEST PUSH2 0x90F JUMP JUMPDEST PUSH1 0x40 MLOAD PUSH2 0x32C SWAP2 SWAP1 PUSH2 0x38C8 JUMP JUMPDEST PUSH1 0x40 MLOAD DUP1 SWAP2 SUB SWAP1 RETURN JUMPDEST PUSH2 0x34F PUSH1 0x4 DUP1 CALLDATASIZE SUB DUP2 ADD SWAP1 PUSH2 0x34A SWAP2 SWAP1 PUSH2 0x35BF JUMP JUMPDEST PUSH2 0x924 JUMP JUMPDEST PUSH1 0x40 MLOAD PUSH2 0x35C SWAP2 SWAP1 PUSH2 0x356C JUMP JUMPDEST PUSH1 0x40 MLOAD DUP1 SWAP2 SUB SWAP1 RETURN JUMPDEST PUSH2 0x37F PUSH1 0x4 DUP1 CALLDATASIZE SUB DUP2 ADD SWAP1 PUSH2 0x37A SWAP2 SWAP1 PUSH2 0x38E1 JUMP JUMPDEST PUSH2 0xB2D JUMP JUMPDEST PUSH1 0x40 MLOAD PUSH2 0x38C SWAP2 SWAP1 PUSH2 0x394A JUMP JUMPDEST PUSH1 0x40 MLOAD DUP1 SWAP2 SUB SWAP1 RETURN JUMPDEST PUSH2 0x3AF PUSH1 0x4 DUP1 CALLDATASIZE SUB DUP2 ADD SWAP1 PUSH2 0x3AA SWAP2 SWAP1 PUSH2 0x3963 JUMP JUMPDEST PUSH2 0xCD9 JUMP JUMPDEST PUSH1 0x40 MLOAD PUSH2 0x3BC SWAP2 SWAP1 PUSH2 0x38C8 JUMP JUMPDEST PUSH1 0x40 MLOAD DUP1 SWAP2 SUB SWAP1 RETURN JUMPDEST PUSH2 0x3CD PUSH2 0xD8F JUMP JUMPDEST STOP JUMPDEST PUSH2 0x3D7 PUSH2 0xDA2 JUMP JUMPDEST PUSH1 0x40 MLOAD PUSH2 0x3E4 SWAP2 SWAP1 PUSH2 0x3629 JUMP JUMPDEST PUSH1 0x40 MLOAD DUP1 SWAP2 SUB SWAP1 RETURN JUMPDEST PUSH2 0x3F5 PUSH2 0xDCA JUMP JUMPDEST PUSH1 0x40 MLOAD PUSH2 0x402 SWAP2 SWAP1 PUSH2 0x356C JUMP JUMPDEST PUSH1 0x40 MLOAD DUP1 SWAP2 SUB SWAP1 RETURN JUMPDEST PUSH2 0x425 PUSH1 0x4 DUP1 CALLDATASIZE SUB DUP2 ADD SWAP1 PUSH2 0x420 SWAP2 SWAP1 PUSH2 0x39B8 JUMP JUMPDEST PUSH2 0xE5A JUMP JUMPDEST STOP JUMPDEST PUSH2 0x441 PUSH1 0x4 DUP1 CALLDATASIZE SUB DUP2 ADD SWAP1 PUSH2 0x43C SWAP2 SWAP1 PUSH2 0x35BF JUMP JUMPDEST PUSH2 0xE70 JUMP JUMPDEST PUSH1 0x40 MLOAD PUSH2 0x44E SWAP2 SWAP1 PUSH2 0x356C JUMP JUMPDEST PUSH1 0x40 MLOAD DUP1 SWAP2 SUB SWAP1 RETURN JUMPDEST PUSH2 0x471 PUSH1 0x4 DUP1 CALLDATASIZE SUB DUP2 ADD SWAP1 PUSH2 0x46C SWAP2 SWAP1 PUSH2 0x35BF JUMP JUMPDEST PUSH2 0xF08 JUMP JUMPDEST PUSH1 0x40 MLOAD PUSH2 0x481 SWAP5 SWAP4 SWAP3 SWAP2 SWAP1 PUSH2 0x39F6 JUMP JUMPDEST PUSH1 0x40 MLOAD DUP1 SWAP2 SUB SWAP1 RETURN JUMPDEST PUSH2 0x4A4 PUSH1 0x4 DUP1 CALLDATASIZE SUB DUP2 ADD SWAP1 PUSH2 0x49F SWAP2 SWAP1 PUSH2 0x3A47 JUMP JUMPDEST PUSH2 0x1040 JUMP JUMPDEST STOP JUMPDEST PUSH2 0x4C0 PUSH1 0x4 DUP1 CALLDATASIZE SUB DUP2 ADD SWAP1 PUSH2 0x4BB SWAP2 SWAP1 PUSH2 0x3AC7 JUMP JUMPDEST PUSH2 0x1065 JUMP JUMPDEST STOP JUMPDEST PUSH2 0x4DC PUSH1 0x4 DUP1 CALLDATASIZE SUB DUP2 ADD SWAP1 PUSH2 0x4D7 SWAP2 SWAP1 PUSH2 0x35BF JUMP JUMPDEST PUSH2 0x110F JUMP JUMPDEST PUSH1 0x40 MLOAD PUSH2 0x4E9 SWAP2 SWAP1 PUSH2 0x356C JUMP JUMPDEST PUSH1 0x40 MLOAD DUP1 SWAP2 SUB SWAP1 RETURN JUMPDEST PUSH2 0x50C PUSH1 0x4 DUP1 CALLDATASIZE SUB DUP2 ADD SWAP1 PUSH2 0x507 SWAP2 SWAP1 PUSH2 0x3B76 JUMP JUMPDEST PUSH2 0x1365 JUMP JUMPDEST PUSH1 0x40 MLOAD PUSH2 0x519 SWAP2 SWAP1 PUSH2 0x34F3 JUMP JUMPDEST PUSH1 0x40 MLOAD DUP1 SWAP2 SUB SWAP1 RETURN JUMPDEST PUSH2 0x53C PUSH1 0x4 DUP1 CALLDATASIZE SUB DUP2 ADD SWAP1 PUSH2 0x537 SWAP2 SWAP1 PUSH2 0x3963 JUMP JUMPDEST PUSH2 0x13F3 JUMP JUMPDEST STOP JUMPDEST PUSH2 0x546 PUSH2 0x1477 JUMP JUMPDEST DUP1 PUSH1 0xC SWAP1 DUP2 PUSH2 0x555 SWAP2 SWAP1 PUSH2 0x3DC2 JUMP JUMPDEST POP POP JUMP JUMPDEST PUSH0 PUSH4 0x49064906 PUSH1 0xE0 SHL PUSH28 0xFFFFFFFFFFFFFFFFFFFFFFFFFFFFFFFFFFFFFFFFFFFFFFFFFFFFFFFF NOT AND DUP3 PUSH28 0xFFFFFFFFFFFFFFFFFFFFFFFFFFFFFFFFFFFFFFFFFFFFFFFFFFFFFFFF NOT AND EQ DUP1 PUSH2 0x5B2 JUMPI POP PUSH2 0x5B1 DUP3 PUSH2 0x14FE JUMP JUMPDEST JUMPDEST SWAP1 POP SWAP2 SWAP1 POP JUMP JUMPDEST PUSH1 0x60 PUSH0 DUP1 SLOAD PUSH2 0x5C7 SWAP1 PUSH2 0x3BE1 JUMP JUMPDEST DUP1 PUSH1 0x1F ADD PUSH1 0x20 DUP1 SWAP2 DIV MUL PUSH1 0x20 ADD PUSH1 0x40 MLOAD SWAP1 DUP2 ADD PUSH1 0x40 MSTORE DUP1 SWAP3 SWAP2 SWAP1 DUP2 DUP2 MSTORE PUSH1 0x20 ADD DUP3 DUP1 SLOAD PUSH2 0x5F3 SWAP1 PUSH2 0x3BE1 JUMP JUMPDEST DUP1 ISZERO PUSH2 0x63E JUMPI DUP1 PUSH1 0x1F LT PUSH2 0x615 JUMPI PUSH2 0x100 DUP1 DUP4 SLOAD DIV MUL DUP4 MSTORE SWAP2 PUSH1 0x20 ADD SWAP2 PUSH2 0x63E JUMP JUMPDEST DUP3 ADD SWAP2 SWAP1 PUSH0 MSTORE PUSH1 0x20 PUSH0 KECCAK256 SWAP1 JUMPDEST DUP2 SLOAD DUP2 MSTORE SWAP1 PUSH1 0x1 ADD SWAP1 PUSH1 0x20 ADD DUP1 DUP4 GT PUSH2 0x621 JUMPI DUP3 SWAP1 SUB PUSH1 0x1F AND DUP3 ADD SWAP2 JUMPDEST POP POP POP POP POP SWAP1 POP SWAP1 JUMP JUMPDEST PUSH0 PUSH2 0x652 DUP3 PUSH2 0x15DF JUMP JUMPDEST POP PUSH2 0x65C DUP3 PUSH2 0x1665 JUMP JUMPDEST SWAP1 POP SWAP2 SWAP1 POP JUMP JUMPDEST PUSH2 0x675 DUP3 DUP3 PUSH2 0x670 PUSH2 0x169E JUMP JUMPDEST PUSH2 0x16A5 JUMP JUMPDEST POP POP JUMP JUMPDEST PUSH1 0xB PUSH0 SWAP1 SLOAD SWAP1 PUSH2 0x100 EXP SWAP1 DIV PUSH8 0xFFFFFFFFFFFFFFFF AND DUP2 JUMP JUMPDEST PUSH32 0x0 PUSH20 0xFFFFFFFFFFFFFFFFFFFFFFFFFFFFFFFFFFFFFFFF AND CALLER PUSH20 0xFFFFFFFFFFFFFFFFFFFFFFFFFFFFFFFFFFFFFFFF AND EQ PUSH2 0x717 JUMPI PUSH1 0x40 MLOAD PUSH32 0xC6829F8300000000000000000000000000000000000000000000000000000000 DUP2 MSTORE PUSH1 0x4 ADD PUSH1 0x40 MLOAD DUP1 SWAP2 SUB SWAP1 REVERT JUMPDEST PUSH2 0x722 DUP4 DUP4 DUP4 PUSH2 0x16B7 JUMP JUMPDEST DUP3 PUSH32 0x85E1543BF2F84FE80C6BADBCE3648C8539AD1DF4D2B3D822938CA0538BE727E6 PUSH1 0x40 MLOAD PUSH1 0x40 MLOAD DUP1 SWAP2 SUB SWAP1 LOG2 POP POP POP JUMP JUMPDEST PUSH1 0xC DUP1 SLOAD PUSH2 0x761 SWAP1 PUSH2 0x3BE1 JUMP JUMPDEST DUP1 PUSH1 0x1F ADD PUSH1 0x20 DUP1 SWAP2 DIV MUL PUSH1 0x20 ADD PUSH1 0x40 MLOAD SWAP1 DUP2 ADD PUSH1 0x40 MSTORE DUP1 SWAP3 SWAP2 SWAP1 DUP2 DUP2 MSTORE PUSH1 0x20 ADD DUP3 DUP1 SLOAD PUSH2 0x78D SWAP1 PUSH2 0x3BE1 JUMP JUMPDEST DUP1 ISZERO PUSH2 0x7D8 JUMPI DUP1 PUSH1 0x1F LT PUSH2 0x7AF JUMPI PUSH2 0x100 DUP1 DUP4 SLOAD DIV MUL DUP4 MSTORE SWAP2 PUSH1 0x20 ADD SWAP2 PUSH2 0x7D8 JUMP JUMPDEST DUP3 ADD SWAP2 SWAP1 PUSH0 MSTORE PUSH1 0x20 PUSH0 KECCAK256 SWAP1 JUMPDEST DUP2 SLOAD DUP2 MSTORE SWAP1 PUSH1 0x1 ADD SWAP1 PUSH1 0x20 ADD DUP1 DUP4 GT PUSH2 0x7BB JUMPI DUP3 SWAP1 SUB PUSH1 0x1F AND DUP3 ADD SWAP2 JUMPDEST POP POP POP POP POP DUP2 JUMP JUMPDEST PUSH0 PUSH20 0xFFFFFFFFFFFFFFFFFFFFFFFFFFFFFFFFFFFFFFFF AND DUP3 PUSH20 0xFFFFFFFFFFFFFFFFFFFFFFFFFFFFFFFFFFFFFFFF AND SUB PUSH2 0x850 JUMPI PUSH0 PUSH1 0x40 MLOAD PUSH32 0x64A0AE9200000000000000000000000000000000000000000000000000000000 DUP2 MSTORE PUSH1 0x4 ADD PUSH2 0x847 SWAP2 SWAP1 PUSH2 0x3629 JUMP JUMPDEST PUSH1 0x40 MLOAD DUP1 SWAP2 SUB SWAP1 REVERT JUMPDEST PUSH0 PUSH2 0x863 DUP4 DUP4 PUSH2 0x85E PUSH2 0x169E JUMP JUMPDEST PUSH2 0x17BB JUMP JUMPDEST SWAP1 POP DUP4 PUSH20 0xFFFFFFFFFFFFFFFFFFFFFFFFFFFFFFFFFFFFFFFF AND DUP2 PUSH20 0xFFFFFFFFFFFFFFFFFFFFFFFFFFFFFFFFFFFFFFFF AND EQ PUSH2 0x8D9 JUMPI DUP4 DUP3 DUP3 PUSH1 0x40 MLOAD PUSH32 0x64283D7B00000000000000000000000000000000000000000000000000000000 DUP2 MSTORE PUSH1 0x4 ADD PUSH2 0x8D0 SWAP4 SWAP3 SWAP2 SWAP1 PUSH2 0x3E91 JUMP JUMPDEST PUSH1 0x40 MLOAD DUP1 SWAP2 SUB SWAP1 REVERT JUMPDEST POP POP POP POP JUMP JUMPDEST PUSH2 0x8F9 DUP4 DUP4 DUP4 PUSH1 0x40 MLOAD DUP1 PUSH1 0x20 ADD PUSH1 0x40 MSTORE DUP1 PUSH0 DUP2 MSTORE POP PUSH2 0x1040 JUMP JUMPDEST POP POP POP JUMP JUMPDEST PUSH0 PUSH2 0x908 DUP3 PUSH2 0x15DF JUMP JUMPDEST SWAP1 POP SWAP2 SWAP1 POP JUMP JUMPDEST PUSH1 0xE PUSH1 0x20 MSTORE DUP1 PUSH0 MSTORE PUSH1 0x40 PUSH0 KECCAK256 PUSH0 SWAP2 POP SWAP1 POP SLOAD DUP2 JUMP JUMPDEST PUSH1 0x60 PUSH0 PUSH1 0xD PUSH0 DUP5 DUP2 MSTORE PUSH1 0x20 ADD SWAP1 DUP2 MSTORE PUSH1 0x20 ADD PUSH0 KECCAK256 PUSH1 0x40 MLOAD DUP1 PUSH1 0x80 ADD PUSH1 0x40 MSTORE SWAP1 DUP2 PUSH0 DUP3 ADD DUP1 SLOAD PUSH2 0x952 SWAP1 PUSH2 0x3BE1 JUMP JUMPDEST DUP1 PUSH1 0x1F ADD PUSH1 0x20 DUP1 SWAP2 DIV MUL PUSH1 0x20 ADD PUSH1 0x40 MLOAD SWAP1 DUP2 ADD PUSH1 0x40 MSTORE DUP1 SWAP3 SWAP2 SWAP1 DUP2 DUP2 MSTORE PUSH1 0x20 ADD DUP3 DUP1 SLOAD PUSH2 0x97E SWAP1 PUSH2 0x3BE1 JUMP JUMPDEST DUP1 ISZERO PUSH2 0x9C9 JUMPI DUP1 PUSH1 0x1F LT PUSH2 0x9A0 JUMPI PUSH2 0x100 DUP1 DUP4 SLOAD DIV MUL DUP4 MSTORE SWAP2 PUSH1 0x20 ADD SWAP2 PUSH2 0x9C9 JUMP JUMPDEST DUP3 ADD SWAP2 SWAP1 PUSH0 MSTORE PUSH1 0x20 PUSH0 KECCAK256 SWAP1 JUMPDEST DUP2 SLOAD DUP2 MSTORE SWAP1 PUSH1 0x1 ADD SWAP1 PUSH1 0x20 ADD DUP1 DUP4 GT PUSH2 0x9AC JUMPI DUP3 SWAP1 SUB PUSH1 0x1F AND DUP3 ADD SWAP2 JUMPDEST POP POP POP POP POP DUP2 MSTORE PUSH1 0x20 ADD PUSH1 0x1 DUP3 ADD DUP1 SLOAD PUSH2 0x9E2 SWAP1 PUSH2 0x3BE1 JUMP JUMPDEST DUP1 PUSH1 0x1F ADD PUSH1 0x20 DUP1 SWAP2 DIV MUL PUSH1 0x20 ADD PUSH1 0x40 MLOAD SWAP1 DUP2 ADD PUSH1 0x40 MSTORE DUP1 SWAP3 SWAP2 SWAP1 DUP2 DUP2 MSTORE PUSH1 0x20 ADD DUP3 DUP1 SLOAD PUSH2 0xA0E SWAP1 PUSH2 0x3BE1 JUMP JUMPDEST DUP1 ISZERO PUSH2 0xA59 JUMPI DUP1 PUSH1 0x1F LT PUSH2 0xA30 JUMPI PUSH2 0x100 DUP1 DUP4 SLOAD DIV MUL DUP4 MSTORE SWAP2 PUSH1 0x20 ADD SWAP2 PUSH2 0xA59 JUMP JUMPDEST DUP3 ADD SWAP2 SWAP1 PUSH0 MSTORE PUSH1 0x20 PUSH0 KECCAK256 SWAP1 JUMPDEST DUP2 SLOAD DUP2 MSTORE SWAP1 PUSH1 0x1 ADD SWAP1 PUSH1 0x20 ADD DUP1 DUP4 GT PUSH2 0xA3C JUMPI DUP3 SWAP1 SUB PUSH1 0x1F AND DUP3 ADD SWAP2 JUMPDEST POP POP POP POP POP DUP2 MSTORE PUSH1 0x20 ADD PUSH1 0x2 DUP3 ADD SLOAD DUP2 MSTORE PUSH1 0x20 ADD PUSH1 0x3 DUP3 ADD SLOAD DUP2 MSTORE POP POP SWAP1 POP PUSH0 PUSH1 0x40 MLOAD DUP1 PUSH2 0x1E0 ADD PUSH1 0x40 MSTORE DUP1 PUSH2 0x1A8 DUP2 MSTORE PUSH1 0x20 ADD PUSH2 0x509D PUSH2 0x1A8 SWAP2 CODECOPY SWAP1 POP PUSH0 PUSH1 0x40 MLOAD DUP1 PUSH2 0x880 ADD PUSH1 0x40 MSTORE DUP1 PUSH2 0x85F DUP2 MSTORE PUSH1 0x20 ADD PUSH2 0x5245 PUSH2 0x85F SWAP2 CODECOPY SWAP1 POP PUSH0 DUP4 PUSH0 ADD MLOAD DUP5 PUSH1 0x20 ADD MLOAD PUSH2 0xACD DUP7 PUSH1 0x40 ADD MLOAD PUSH2 0x19C6 JUMP JUMPDEST PUSH2 0xADA DUP8 PUSH1 0x60 ADD MLOAD PUSH2 0xE70 JUMP JUMPDEST PUSH1 0x40 MLOAD PUSH1 0x20 ADD PUSH2 0xAED SWAP5 SWAP4 SWAP3 SWAP2 SWAP1 PUSH2 0x4526 JUMP JUMPDEST PUSH1 0x40 MLOAD PUSH1 0x20 DUP2 DUP4 SUB SUB DUP2 MSTORE SWAP1 PUSH1 0x40 MSTORE SWAP1 POP DUP3 DUP3 DUP3 PUSH1 0x40 MLOAD PUSH1 0x20 ADD PUSH2 0xB13 SWAP4 SWAP3 SWAP2 SWAP1 PUSH2 0x4618 JUMP JUMPDEST PUSH1 0x40 MLOAD PUSH1 0x20 DUP2 DUP4 SUB SUB DUP2 MSTORE SWAP1 PUSH1 0x40 MSTORE SWAP5 POP POP POP POP POP SWAP2 SWAP1 POP JUMP JUMPDEST PUSH0 PUSH2 0xB36 PUSH2 0x1477 JUMP JUMPDEST PUSH2 0xB3E PUSH2 0x321E JUMP JUMPDEST PUSH2 0xBD9 PUSH1 0xC DUP1 SLOAD PUSH2 0xB4E SWAP1 PUSH2 0x3BE1 JUMP JUMPDEST DUP1 PUSH1 0x1F ADD PUSH1 0x20 DUP1 SWAP2 DIV MUL PUSH1 0x20 ADD PUSH1 0x40 MLOAD SWAP1 DUP2 ADD PUSH1 0x40 MSTORE DUP1 SWAP3 SWAP2 SWAP1 DUP2 DUP2 MSTORE PUSH1 0x20 ADD DUP3 DUP1 SLOAD PUSH2 0xB7A SWAP1 PUSH2 0x3BE1 JUMP JUMPDEST DUP1 ISZERO PUSH2 0xBC5 JUMPI DUP1 PUSH1 0x1F LT PUSH2 0xB9C JUMPI PUSH2 0x100 DUP1 DUP4 SLOAD DIV MUL DUP4 MSTORE SWAP2 PUSH1 0x20 ADD SWAP2 PUSH2 0xBC5 JUMP JUMPDEST DUP3 ADD SWAP2 SWAP1 PUSH0 MSTORE PUSH1 0x20 PUSH0 KECCAK256 SWAP1 JUMPDEST DUP2 SLOAD DUP2 MSTORE SWAP1 PUSH1 0x1 ADD SWAP1 PUSH1 0x20 ADD DUP1 DUP4 GT PUSH2 0xBA8 JUMPI DUP3 SWAP1 SUB PUSH1 0x1F AND DUP3 ADD SWAP2 JUMPDEST POP POP POP POP POP DUP3 PUSH2 0x1A90 SWAP1 SWAP2 SWAP1 PUSH4 0xFFFFFFFF AND JUMP JUMPDEST PUSH0 PUSH1 0x1 PUSH8 0xFFFFFFFFFFFFFFFF DUP2 GT ISZERO PUSH2 0xBF5 JUMPI PUSH2 0xBF4 PUSH2 0x32EE JUMP JUMPDEST JUMPDEST PUSH1 0x40 MLOAD SWAP1 DUP1 DUP3 MSTORE DUP1 PUSH1 0x20 MUL PUSH1 0x20 ADD DUP3 ADD PUSH1 0x40 MSTORE DUP1 ISZERO PUSH2 0xC28 JUMPI DUP2 PUSH1 0x20 ADD JUMPDEST PUSH1 0x60 DUP2 MSTORE PUSH1 0x20 ADD SWAP1 PUSH1 0x1 SWAP1 SUB SWAP1 DUP2 PUSH2 0xC13 JUMPI SWAP1 POP JUMPDEST POP SWAP1 POP DUP4 DUP2 PUSH0 DUP2 MLOAD DUP2 LT PUSH2 0xC3F JUMPI PUSH2 0xC3E PUSH2 0x4648 JUMP JUMPDEST JUMPDEST PUSH1 0x20 MUL PUSH1 0x20 ADD ADD DUP2 SWAP1 MSTORE POP PUSH2 0xC5D DUP2 DUP4 PUSH2 0x1AA0 SWAP1 SWAP2 SWAP1 PUSH4 0xFFFFFFFF AND JUMP JUMPDEST PUSH2 0xC8B PUSH2 0xC69 DUP4 PUSH2 0x1AE7 JUMP JUMPDEST PUSH1 0xB PUSH0 SWAP1 SLOAD SWAP1 PUSH2 0x100 EXP SWAP1 DIV PUSH8 0xFFFFFFFFFFFFFFFF AND PUSH3 0x493E0 PUSH1 0xA SLOAD PUSH2 0x1EF2 JUMP JUMPDEST SWAP3 POP DUP5 PUSH1 0xE PUSH0 DUP6 DUP2 MSTORE PUSH1 0x20 ADD SWAP1 DUP2 MSTORE PUSH1 0x20 ADD PUSH0 KECCAK256 DUP2 SWAP1 SSTORE POP DUP5 DUP4 PUSH32 0x6D5F534F79411361C047AACA2CC90135D58A68AEF49D2E9426E1126E4110E053 PUSH1 0x40 MLOAD PUSH1 0x40 MLOAD DUP1 SWAP2 SUB SWAP1 LOG3 POP POP SWAP3 SWAP2 POP POP JUMP JUMPDEST PUSH0 PUSH0 PUSH20 0xFFFFFFFFFFFFFFFFFFFFFFFFFFFFFFFFFFFFFFFF AND DUP3 PUSH20 0xFFFFFFFFFFFFFFFFFFFFFFFFFFFFFFFFFFFFFFFF AND SUB PUSH2 0xD4A JUMPI PUSH0 PUSH1 0x40 MLOAD PUSH32 0x89C62B6400000000000000000000000000000000000000000000000000000000 DUP2 MSTORE PUSH1 0x4 ADD PUSH2 0xD41 SWAP2 SWAP1 PUSH2 0x3629 JUMP JUMPDEST PUSH1 0x40 MLOAD DUP1 SWAP2 SUB SWAP1 REVERT JUMPDEST PUSH1 0x3 PUSH0 DUP4 PUSH20 0xFFFFFFFFFFFFFFFFFFFFFFFFFFFFFFFFFFFFFFFF AND PUSH20 0xFFFFFFFFFFFFFFFFFFFFFFFFFFFFFFFFFFFFFFFF AND DUP2 MSTORE PUSH1 0x20 ADD SWAP1 DUP2 MSTORE PUSH1 0x20 ADD PUSH0 KECCAK256 SLOAD SWAP1 POP SWAP2 SWAP1 POP JUMP JUMPDEST PUSH2 0xD97 PUSH2 0x1477 JUMP JUMPDEST PUSH2 0xDA0 PUSH0 PUSH2 0x1FD1 JUMP JUMPDEST JUMP JUMPDEST PUSH0 PUSH1 0x7 PUSH0 SWAP1 SLOAD SWAP1 PUSH2 0x100 EXP SWAP1 DIV PUSH20 0xFFFFFFFFFFFFFFFFFFFFFFFFFFFFFFFFFFFFFFFF AND SWAP1 POP SWAP1 JUMP JUMPDEST PUSH1 0x60 PUSH1 0x1 DUP1 SLOAD PUSH2 0xDD9 SWAP1 PUSH2 0x3BE1 JUMP JUMPDEST DUP1 PUSH1 0x1F ADD PUSH1 0x20 DUP1 SWAP2 DIV MUL PUSH1 0x20 ADD PUSH1 0x40 MLOAD SWAP1 DUP2 ADD PUSH1 0x40 MSTORE DUP1 SWAP3 SWAP2 SWAP1 DUP2 DUP2 MSTORE PUSH1 0x20 ADD DUP3 DUP1 SLOAD PUSH2 0xE05 SWAP1 PUSH2 0x3BE1 JUMP JUMPDEST DUP1 ISZERO PUSH2 0xE50 JUMPI DUP1 PUSH1 0x1F LT PUSH2 0xE27 JUMPI PUSH2 0x100 DUP1 DUP4 SLOAD DIV MUL DUP4 MSTORE SWAP2 PUSH1 0x20 ADD SWAP2 PUSH2 0xE50 JUMP JUMPDEST DUP3 ADD SWAP2 SWAP1 PUSH0 MSTORE PUSH1 0x20 PUSH0 KECCAK256 SWAP1 JUMPDEST DUP2 SLOAD DUP2 MSTORE SWAP1 PUSH1 0x1 ADD SWAP1 PUSH1 0x20 ADD DUP1 DUP4 GT PUSH2 0xE33 JUMPI DUP3 SWAP1 SUB PUSH1 0x1F AND DUP3 ADD SWAP2 JUMPDEST POP POP POP POP POP SWAP1 POP SWAP1 JUMP JUMPDEST PUSH2 0xE6C PUSH2 0xE65 PUSH2 0x169E JUMP JUMPDEST DUP4 DUP4 PUSH2 0x2094 JUMP JUMPDEST POP POP JUMP JUMPDEST PUSH1 0x60 PUSH0 PUSH1 0x64 DUP4 PUSH2 0xE80 SWAP2 SWAP1 PUSH2 0x46CF JUMP JUMPDEST SWAP1 POP PUSH0 PUSH1 0x64 DUP5 PUSH2 0xE90 SWAP2 SWAP1 PUSH2 0x46FF JUMP JUMPDEST SWAP1 POP PUSH0 PUSH1 0xA DUP3 LT PUSH2 0xEA9 JUMPI PUSH2 0xEA4 DUP3 PUSH2 0x19C6 JUMP JUMPDEST PUSH2 0xED2 JUMP JUMPDEST PUSH2 0xEB2 DUP3 PUSH2 0x19C6 JUMP JUMPDEST PUSH1 0x40 MLOAD PUSH1 0x20 ADD PUSH2 0xEC2 SWAP2 SWAP1 PUSH2 0x4755 JUMP JUMPDEST PUSH1 0x40 MLOAD PUSH1 0x20 DUP2 DUP4 SUB SUB DUP2 MSTORE SWAP1 PUSH1 0x40 MSTORE JUMPDEST SWAP1 POP PUSH2 0xEDD DUP4 PUSH2 0x19C6 JUMP JUMPDEST DUP2 PUSH1 0x40 MLOAD PUSH1 0x20 ADD PUSH2 0xEEF SWAP3 SWAP2 SWAP1 PUSH2 0x47A0 JUMP JUMPDEST PUSH1 0x40 MLOAD PUSH1 0x20 DUP2 DUP4 SUB SUB DUP2 MSTORE SWAP1 PUSH1 0x40 MSTORE SWAP4 POP POP POP POP SWAP2 SWAP1 POP JUMP JUMPDEST PUSH1 0xD PUSH1 0x20 MSTORE DUP1 PUSH0 MSTORE PUSH1 0x40 PUSH0 KECCAK256 PUSH0 SWAP2 POP SWAP1 POP DUP1 PUSH0 ADD DUP1 SLOAD PUSH2 0xF27 SWAP1 PUSH2 0x3BE1 JUMP JUMPDEST DUP1 PUSH1 0x1F ADD PUSH1 0x20 DUP1 SWAP2 DIV MUL PUSH1 0x20 ADD PUSH1 0x40 MLOAD SWAP1 DUP2 ADD PUSH1 0x40 MSTORE DUP1 SWAP3 SWAP2 SWAP1 DUP2 DUP2 MSTORE PUSH1 0x20 ADD DUP3 DUP1 SLOAD PUSH2 0xF53 SWAP1 PUSH2 0x3BE1 JUMP JUMPDEST DUP1 ISZERO PUSH2 0xF9E JUMPI DUP1 PUSH1 0x1F LT PUSH2 0xF75 JUMPI PUSH2 0x100 DUP1 DUP4 SLOAD DIV MUL DUP4 MSTORE SWAP2 PUSH1 0x20 ADD SWAP2 PUSH2 0xF9E JUMP JUMPDEST DUP3 ADD SWAP2 SWAP1 PUSH0 MSTORE PUSH1 0x20 PUSH0 KECCAK256 SWAP1 JUMPDEST DUP2 SLOAD DUP2 MSTORE SWAP1 PUSH1 0x1 ADD SWAP1 PUSH1 0x20 ADD DUP1 DUP4 GT PUSH2 0xF81 JUMPI DUP3 SWAP1 SUB PUSH1 0x1F AND DUP3 ADD SWAP2 JUMPDEST POP POP POP POP POP SWAP1 DUP1 PUSH1 0x1 ADD DUP1 SLOAD PUSH2 0xFB3 SWAP1 PUSH2 0x3BE1 JUMP JUMPDEST DUP1 PUSH1 0x1F ADD PUSH1 0x20 DUP1 SWAP2 DIV MUL PUSH1 0x20 ADD PUSH1 0x40 MLOAD SWAP1 DUP2 ADD PUSH1 0x40 MSTORE DUP1 SWAP3 SWAP2 SWAP1 DUP2 DUP2 MSTORE PUSH1 0x20 ADD DUP3 DUP1 SLOAD PUSH2 0xFDF SWAP1 PUSH2 0x3BE1 JUMP JUMPDEST DUP1 ISZERO PUSH2 0x102A JUMPI DUP1 PUSH1 0x1F LT PUSH2 0x1001 JUMPI PUSH2 0x100 DUP1 DUP4 SLOAD DIV MUL DUP4 MSTORE SWAP2 PUSH1 0x20 ADD SWAP2 PUSH2 0x102A JUMP JUMPDEST DUP3 ADD SWAP2 SWAP1 PUSH0 MSTORE PUSH1 0x20 PUSH0 KECCAK256 SWAP1 JUMPDEST DUP2 SLOAD DUP2 MSTORE SWAP1 PUSH1 0x1 ADD SWAP1 PUSH1 0x20 ADD DUP1 DUP4 GT PUSH2 0x100D JUMPI DUP3 SWAP1 SUB PUSH1 0x1F AND DUP3 ADD SWAP2 JUMPDEST POP POP POP POP POP SWAP1 DUP1 PUSH1 0x2 ADD SLOAD SWAP1 DUP1 PUSH1 0x3 ADD SLOAD SWAP1 POP DUP5 JUMP JUMPDEST PUSH2 0x104B DUP5 DUP5 DUP5 PUSH2 0x7E0 JUMP JUMPDEST PUSH2 0x105F PUSH2 0x1056 PUSH2 0x169E JUMP JUMPDEST DUP6 DUP6 DUP6 DUP6 PUSH2 0x226D JUMP JUMPDEST POP POP POP POP JUMP JUMPDEST PUSH2 0x106D PUSH2 0x1477 JUMP JUMPDEST PUSH0 PUSH1 0x8 SLOAD SWAP1 POP PUSH1 0x40 MLOAD DUP1 PUSH1 0x80 ADD PUSH1 0x40 MSTORE DUP1 DUP7 DUP2 MSTORE PUSH1 0x20 ADD DUP6 DUP2 MSTORE PUSH1 0x20 ADD DUP5 DUP2 MSTORE PUSH1 0x20 ADD DUP4 DUP2 MSTORE POP PUSH1 0xD PUSH0 DUP4 DUP2 MSTORE PUSH1 0x20 ADD SWAP1 DUP2 MSTORE PUSH1 0x20 ADD PUSH0 KECCAK256 PUSH0 DUP3 ADD MLOAD DUP2 PUSH0 ADD SWAP1 DUP2 PUSH2 0x10B8 SWAP2 SWAP1 PUSH2 0x3DC2 JUMP JUMPDEST POP PUSH1 0x20 DUP3 ADD MLOAD DUP2 PUSH1 0x1 ADD SWAP1 DUP2 PUSH2 0x10CE SWAP2 SWAP1 PUSH2 0x3DC2 JUMP JUMPDEST POP PUSH1 0x40 DUP3 ADD MLOAD DUP2 PUSH1 0x2 ADD SSTORE PUSH1 0x60 DUP3 ADD MLOAD DUP2 PUSH1 0x3 ADD SSTORE SWAP1 POP POP PUSH2 0x10F0 DUP7 DUP3 PUSH2 0x2419 JUMP JUMPDEST PUSH1 0x8 PUSH0 DUP2 SLOAD DUP1 SWAP3 SWAP2 SWAP1 PUSH2 0x1102 SWAP1 PUSH2 0x47D2 JUMP JUMPDEST SWAP2 SWAP1 POP SSTORE POP POP POP POP POP POP POP JUMP JUMPDEST PUSH1 0x60 PUSH0 PUSH20 0xFFFFFFFFFFFFFFFFFFFFFFFFFFFFFFFFFFFFFFFF AND PUSH2 0x1131 DUP4 PUSH2 0x8FE JUMP JUMPDEST PUSH20 0xFFFFFFFFFFFFFFFFFFFFFFFFFFFFFFFFFFFFFFFF AND SUB PUSH2 0x1187 JUMPI PUSH1 0x40 MLOAD PUSH32 0x8C379A000000000000000000000000000000000000000000000000000000000 DUP2 MSTORE PUSH1 0x4 ADD PUSH2 0x117E SWAP1 PUSH2 0x4863 JUMP JUMPDEST PUSH1 0x40 MLOAD DUP1 SWAP2 SUB SWAP1 REVERT JUMPDEST PUSH0 PUSH1 0xD PUSH0 DUP5 DUP2 MSTORE PUSH1 0x20 ADD SWAP1 DUP2 MSTORE PUSH1 0x20 ADD PUSH0 KECCAK256 PUSH1 0x40 MLOAD DUP1 PUSH1 0x80 ADD PUSH1 0x40 MSTORE SWAP1 DUP2 PUSH0 DUP3 ADD DUP1 SLOAD PUSH2 0x11B3 SWAP1 PUSH2 0x3BE1 JUMP JUMPDEST DUP1 PUSH1 0x1F ADD PUSH1 0x20 DUP1 SWAP2 DIV MUL PUSH1 0x20 ADD PUSH1 0x40 MLOAD SWAP1 DUP2 ADD PUSH1 0x40 MSTORE DUP1 SWAP3 SWAP2 SWAP1 DUP2 DUP2 MSTORE PUSH1 0x20 ADD DUP3 DUP1 SLOAD PUSH2 0x11DF SWAP1 PUSH2 0x3BE1 JUMP JUMPDEST DUP1 ISZERO PUSH2 0x122A JUMPI DUP1 PUSH1 0x1F LT PUSH2 0x1201 JUMPI PUSH2 0x100 DUP1 DUP4 SLOAD DIV MUL DUP4 MSTORE SWAP2 PUSH1 0x20 ADD SWAP2 PUSH2 0x122A JUMP JUMPDEST DUP3 ADD SWAP2 SWAP1 PUSH0 MSTORE PUSH1 0x20 PUSH0 KECCAK256 SWAP1 JUMPDEST DUP2 SLOAD DUP2 MSTORE SWAP1 PUSH1 0x1 ADD SWAP1 PUSH1 0x20 ADD DUP1 DUP4 GT PUSH2 0x120D JUMPI DUP3 SWAP1 SUB PUSH1 0x1F AND DUP3 ADD SWAP2 JUMPDEST POP POP POP POP POP DUP2 MSTORE PUSH1 0x20 ADD PUSH1 0x1 DUP3 ADD DUP1 SLOAD PUSH2 0x1243 SWAP1 PUSH2 0x3BE1 JUMP JUMPDEST DUP1 PUSH1 0x1F ADD PUSH1 0x20 DUP1 SWAP2 DIV MUL PUSH1 0x20 ADD PUSH1 0x40 MLOAD SWAP1 DUP2 ADD PUSH1 0x40 MSTORE DUP1 SWAP3 SWAP2 SWAP1 DUP2 DUP2 MSTORE PUSH1 0x20 ADD DUP3 DUP1 SLOAD PUSH2 0x126F SWAP1 PUSH2 0x3BE1 JUMP JUMPDEST DUP1 ISZERO PUSH2 0x12BA JUMPI DUP1 PUSH1 0x1F LT PUSH2 0x1291 JUMPI PUSH2 0x100 DUP1 DUP4 SLOAD DIV MUL DUP4 MSTORE SWAP2 PUSH1 0x20 ADD SWAP2 PUSH2 0x12BA JUMP JUMPDEST DUP3 ADD SWAP2 SWAP1 PUSH0 MSTORE PUSH1 0x20 PUSH0 KECCAK256 SWAP1 JUMPDEST DUP2 SLOAD DUP2 MSTORE SWAP1 PUSH1 0x1 ADD SWAP1 PUSH1 0x20 ADD DUP1 DUP4 GT PUSH2 0x129D JUMPI DUP3 SWAP1 SUB PUSH1 0x1F AND DUP3 ADD SWAP2 JUMPDEST POP POP POP POP POP DUP2 MSTORE PUSH1 0x20 ADD PUSH1 0x2 DUP3 ADD SLOAD DUP2 MSTORE PUSH1 0x20 ADD PUSH1 0x3 DUP3 ADD SLOAD DUP2 MSTORE POP POP SWAP1 POP PUSH0 PUSH2 0x12EB PUSH2 0x12E6 DUP6 PUSH2 0x924 JUMP JUMPDEST PUSH2 0x2436 JUMP JUMPDEST SWAP1 POP PUSH0 PUSH2 0x1339 PUSH2 0x12FA DUP7 PUSH2 0x19C6 JUMP JUMPDEST DUP5 PUSH0 ADD MLOAD DUP5 DUP7 PUSH1 0x20 ADD MLOAD PUSH2 0x1311 DUP9 PUSH1 0x60 ADD MLOAD PUSH2 0xE70 JUMP JUMPDEST PUSH1 0x40 MLOAD PUSH1 0x20 ADD PUSH2 0x1325 SWAP6 SWAP5 SWAP4 SWAP3 SWAP2 SWAP1 PUSH2 0x4A8F JUMP JUMPDEST PUSH1 0x40 MLOAD PUSH1 0x20 DUP2 DUP4 SUB SUB DUP2 MSTORE SWAP1 PUSH1 0x40 MSTORE PUSH2 0x2436 JUMP JUMPDEST SWAP1 POP DUP1 PUSH1 0x40 MLOAD PUSH1 0x20 ADD PUSH2 0x134C SWAP2 SWAP1 PUSH2 0x4B89 JUMP JUMPDEST PUSH1 0x40 MLOAD PUSH1 0x20 DUP2 DUP4 SUB SUB DUP2 MSTORE SWAP1 PUSH1 0x40 MSTORE SWAP4 POP POP POP POP SWAP2 SWAP1 POP JUMP JUMPDEST PUSH0 PUSH1 0x5 PUSH0 DUP5 PUSH20 0xFFFFFFFFFFFFFFFFFFFFFFFFFFFFFFFFFFFFFFFF AND PUSH20 0xFFFFFFFFFFFFFFFFFFFFFFFFFFFFFFFFFFFFFFFF AND DUP2 MSTORE PUSH1 0x20 ADD SWAP1 DUP2 MSTORE PUSH1 0x20 ADD PUSH0 KECCAK256 PUSH0 DUP4 PUSH20 0xFFFFFFFFFFFFFFFFFFFFFFFFFFFFFFFFFFFFFFFF AND PUSH20 0xFFFFFFFFFFFFFFFFFFFFFFFFFFFFFFFFFFFFFFFF AND DUP2 MSTORE PUSH1 0x20 ADD SWAP1 DUP2 MSTORE PUSH1 0x20 ADD PUSH0 KECCAK256 PUSH0 SWAP1 SLOAD SWAP1 PUSH2 0x100 EXP SWAP1 DIV PUSH1 0xFF AND SWAP1 POP SWAP3 SWAP2 POP POP JUMP JUMPDEST PUSH2 0x13FB PUSH2 0x1477 JUMP JUMPDEST PUSH0 PUSH20 0xFFFFFFFFFFFFFFFFFFFFFFFFFFFFFFFFFFFFFFFF AND DUP2 PUSH20 0xFFFFFFFFFFFFFFFFFFFFFFFFFFFFFFFFFFFFFFFF AND SUB PUSH2 0x146B JUMPI PUSH0 PUSH1 0x40 MLOAD PUSH32 0x1E4FBDF700000000000000000000000000000000000000000000000000000000 DUP2 MSTORE PUSH1 0x4 ADD PUSH2 0x1462 SWAP2 SWAP1 PUSH2 0x3629 JUMP JUMPDEST PUSH1 0x40 MLOAD DUP1 SWAP2 SUB SWAP1 REVERT JUMPDEST PUSH2 0x1474 DUP2 PUSH2 0x1FD1 JUMP JUMPDEST POP JUMP JUMPDEST PUSH2 0x147F PUSH2 0x169E JUMP JUMPDEST PUSH20 0xFFFFFFFFFFFFFFFFFFFFFFFFFFFFFFFFFFFFFFFF AND PUSH2 0x149D PUSH2 0xDA2 JUMP JUMPDEST PUSH20 0xFFFFFFFFFFFFFFFFFFFFFFFFFFFFFFFFFFFFFFFF AND EQ PUSH2 0x14FC JUMPI PUSH2 0x14C0 PUSH2 0x169E JUMP JUMPDEST PUSH1 0x40 MLOAD PUSH32 0x118CDAA700000000000000000000000000000000000000000000000000000000 DUP2 MSTORE PUSH1 0x4 ADD PUSH2 0x14F3 SWAP2 SWAP1 PUSH2 0x3629 JUMP JUMPDEST PUSH1 0x40 MLOAD DUP1 SWAP2 SUB SWAP1 REVERT JUMPDEST JUMP JUMPDEST PUSH0 PUSH32 0x80AC58CD00000000000000000000000000000000000000000000000000000000 PUSH28 0xFFFFFFFFFFFFFFFFFFFFFFFFFFFFFFFFFFFFFFFFFFFFFFFFFFFFFFFF NOT AND DUP3 PUSH28 0xFFFFFFFFFFFFFFFFFFFFFFFFFFFFFFFFFFFFFFFFFFFFFFFFFFFFFFFF NOT AND EQ DUP1 PUSH2 0x15C8 JUMPI POP PUSH32 0x5B5E139F00000000000000000000000000000000000000000000000000000000 PUSH28 0xFFFFFFFFFFFFFFFFFFFFFFFFFFFFFFFFFFFFFFFFFFFFFFFFFFFFFFFF NOT AND DUP3 PUSH28 0xFFFFFFFFFFFFFFFFFFFFFFFFFFFFFFFFFFFFFFFFFFFFFFFFFFFFFFFF NOT AND EQ JUMPDEST DUP1 PUSH2 0x15D8 JUMPI POP PUSH2 0x15D7 DUP3 PUSH2 0x2449 JUMP JUMPDEST JUMPDEST SWAP1 POP SWAP2 SWAP1 POP JUMP JUMPDEST PUSH0 PUSH0 PUSH2 0x15EA DUP4 PUSH2 0x24B2 JUMP JUMPDEST SWAP1 POP PUSH0 PUSH20 0xFFFFFFFFFFFFFFFFFFFFFFFFFFFFFFFFFFFFFFFF AND DUP2 PUSH20 0xFFFFFFFFFFFFFFFFFFFFFFFFFFFFFFFFFFFFFFFF AND SUB PUSH2 0x165C JUMPI DUP3 PUSH1 0x40 MLOAD PUSH32 0x7E27328900000000000000000000000000000000000000000000000000000000 DUP2 MSTORE PUSH1 0x4 ADD PUSH2 0x1653 SWAP2 SWAP1 PUSH2 0x38C8 JUMP JUMPDEST PUSH1 0x40 MLOAD DUP1 SWAP2 SUB SWAP1 REVERT JUMPDEST DUP1 SWAP2 POP POP SWAP2 SWAP1 POP JUMP JUMPDEST PUSH0 PUSH1 0x4 PUSH0 DUP4 DUP2 MSTORE PUSH1 0x20 ADD SWAP1 DUP2 MSTORE PUSH1 0x20 ADD PUSH0 KECCAK256 PUSH0 SWAP1 SLOAD SWAP1 PUSH2 0x100 EXP SWAP1 DIV PUSH20 0xFFFFFFFFFFFFFFFFFFFFFFFFFFFFFFFFFFFFFFFF AND SWAP1 POP SWAP2 SWAP1 POP JUMP JUMPDEST PUSH0 CALLER SWAP1 POP SWAP1 JUMP JUMPDEST PUSH2 0x16B2 DUP4 DUP4 DUP4 PUSH1 0x1 PUSH2 0x24EB JUMP JUMPDEST POP POP POP JUMP JUMPDEST PUSH0 DUP2 MLOAD EQ PUSH2 0x16FA JUMPI PUSH1 0x40 MLOAD PUSH32 0x8C379A000000000000000000000000000000000000000000000000000000000 DUP2 MSTORE PUSH1 0x4 ADD PUSH2 0x16F1 SWAP1 PUSH2 0x4BF8 JUMP JUMPDEST PUSH1 0x40 MLOAD DUP1 SWAP2 SUB SWAP1 REVERT JUMPDEST PUSH0 PUSH1 0xE PUSH0 DUP6 DUP2 MSTORE PUSH1 0x20 ADD SWAP1 DUP2 MSTORE PUSH1 0x20 ADD PUSH0 KECCAK256 SLOAD SWAP1 POP PUSH0 DUP4 DUP1 PUSH1 0x20 ADD SWAP1 MLOAD DUP2 ADD SWAP1 PUSH2 0x1724 SWAP2 SWAP1 PUSH2 0x4C2A JUMP JUMPDEST SWAP1 POP PUSH0 PUSH16 0xFFFFFFFFFFFFFFFFFFFFFFFFFFFFFFFF DUP1 AND DUP3 AND SWAP1 POP PUSH0 PUSH1 0x80 DUP4 SWAP1 SHR SWAP1 POP DUP1 PUSH1 0xD PUSH0 DUP7 DUP2 MSTORE PUSH1 0x20 ADD SWAP1 DUP2 MSTORE PUSH1 0x20 ADD PUSH0 KECCAK256 PUSH1 0x2 ADD DUP2 SWAP1 SSTORE POP DUP2 PUSH1 0xD PUSH0 DUP7 DUP2 MSTORE PUSH1 0x20 ADD SWAP1 DUP2 MSTORE PUSH1 0x20 ADD PUSH0 KECCAK256 PUSH1 0x3 ADD DUP2 SWAP1 SSTORE POP DUP4 PUSH32 0x10239BDD5C74B679554AF458CF0F10870AB12E158E848CDAC9FF21471BD16137 DUP3 DUP5 PUSH1 0x40 MLOAD PUSH2 0x17AA SWAP3 SWAP2 SWAP1 PUSH2 0x4C55 JUMP JUMPDEST PUSH1 0x40 MLOAD DUP1 SWAP2 SUB SWAP1 LOG2 POP POP POP POP POP POP POP JUMP JUMPDEST PUSH0 PUSH0 PUSH2 0x17C6 DUP5 PUSH2 0x24B2 JUMP JUMPDEST SWAP1 POP PUSH0 PUSH20 0xFFFFFFFFFFFFFFFFFFFFFFFFFFFFFFFFFFFFFFFF AND DUP4 PUSH20 0xFFFFFFFFFFFFFFFFFFFFFFFFFFFFFFFFFFFFFFFF AND EQ PUSH2 0x1807 JUMPI PUSH2 0x1806 DUP2 DUP5 DUP7 PUSH2 0x26AA JUMP JUMPDEST JUMPDEST PUSH0 PUSH20 0xFFFFFFFFFFFFFFFFFFFFFFFFFFFFFFFFFFFFFFFF AND DUP2 PUSH20 0xFFFFFFFFFFFFFFFFFFFFFFFFFFFFFFFFFFFFFFFF AND EQ PUSH2 0x1892 JUMPI PUSH2 0x1846 PUSH0 DUP6 PUSH0 PUSH0 PUSH2 0x24EB JUMP JUMPDEST PUSH1 0x1 PUSH1 0x3 PUSH0 DUP4 PUSH20 0xFFFFFFFFFFFFFFFFFFFFFFFFFFFFFFFFFFFFFFFF AND PUSH20 0xFFFFFFFFFFFFFFFFFFFFFFFFFFFFFFFFFFFFFFFF AND DUP2 MSTORE PUSH1 0x20 ADD SWAP1 DUP2 MSTORE PUSH1 0x20 ADD PUSH0 KECCAK256 PUSH0 DUP3 DUP3 SLOAD SUB SWAP3 POP POP DUP2 SWAP1 SSTORE POP JUMPDEST PUSH0 PUSH20 0xFFFFFFFFFFFFFFFFFFFFFFFFFFFFFFFFFFFFFFFF AND DUP6 PUSH20 0xFFFFFFFFFFFFFFFFFFFFFFFFFFFFFFFFFFFFFFFF AND EQ PUSH2 0x1911 JUMPI PUSH1 0x1 PUSH1 0x3 PUSH0 DUP8 PUSH20 0xFFFFFFFFFFFFFFFFFFFFFFFFFFFFFFFFFFFFFFFF AND PUSH20 0xFFFFFFFFFFFFFFFFFFFFFFFFFFFFFFFFFFFFFFFF AND DUP2 MSTORE PUSH1 0x20 ADD SWAP1 DUP2 MSTORE PUSH1 0x20 ADD PUSH0 KECCAK256 PUSH0 DUP3 DUP3 SLOAD ADD SWAP3 POP POP DUP2 SWAP1 SSTORE POP JUMPDEST DUP5 PUSH1 0x2 PUSH0 DUP7 DUP2 MSTORE PUSH1 0x20 ADD SWAP1 DUP2 MSTORE PUSH1 0x20 ADD PUSH0 KECCAK256 PUSH0 PUSH2 0x100 EXP DUP2 SLOAD DUP2 PUSH20 0xFFFFFFFFFFFFFFFFFFFFFFFFFFFFFFFFFFFFFFFF MUL NOT AND SWAP1 DUP4 PUSH20 0xFFFFFFFFFFFFFFFFFFFFFFFFFFFFFFFFFFFFFFFF AND MUL OR SWAP1 SSTORE POP DUP4 DUP6 PUSH20 0xFFFFFFFFFFFFFFFFFFFFFFFFFFFFFFFFFFFFFFFF AND DUP3 PUSH20 0xFFFFFFFFFFFFFFFFFFFFFFFFFFFFFFFFFFFFFFFF AND PUSH32 0xDDF252AD1BE2C89B69C2B068FC378DAA952BA7F163C4A11628F55A4DF523B3EF PUSH1 0x40 MLOAD PUSH1 0x40 MLOAD DUP1 SWAP2 SUB SWAP1 LOG4 DUP1 SWAP2 POP POP SWAP4 SWAP3 POP POP POP JUMP JUMPDEST PUSH1 0x60 PUSH0 PUSH1 0x1 PUSH2 0x19D4 DUP5 PUSH2 0x276D JUMP JUMPDEST ADD SWAP1 POP PUSH0 DUP2 PUSH8 0xFFFFFFFFFFFFFFFF DUP2 GT ISZERO PUSH2 0x19F2 JUMPI PUSH2 0x19F1 PUSH2 0x32EE JUMP JUMPDEST JUMPDEST PUSH1 0x40 MLOAD SWAP1 DUP1 DUP3 MSTORE DUP1 PUSH1 0x1F ADD PUSH1 0x1F NOT AND PUSH1 0x20 ADD DUP3 ADD PUSH1 0x40 MSTORE DUP1 ISZERO PUSH2 0x1A24 JUMPI DUP2 PUSH1 0x20 ADD PUSH1 0x1 DUP3 MUL DUP1 CALLDATASIZE DUP4 CALLDATACOPY DUP1 DUP3 ADD SWAP2 POP POP SWAP1 POP JUMPDEST POP SWAP1 POP PUSH0 DUP3 PUSH1 0x20 DUP4 ADD ADD SWAP1 POP JUMPDEST PUSH1 0x1 ISZERO PUSH2 0x1A85 JUMPI DUP1 DUP1 PUSH1 0x1 SWAP1 SUB SWAP2 POP POP PUSH32 0x3031323334353637383961626364656600000000000000000000000000000000 PUSH1 0xA DUP7 MOD BYTE DUP2 MSTORE8 PUSH1 0xA DUP6 DUP2 PUSH2 0x1A7A JUMPI PUSH2 0x1A79 PUSH2 0x4675 JUMP JUMPDEST JUMPDEST DIV SWAP5 POP PUSH0 DUP6 SUB PUSH2 0x1A31 JUMPI JUMPDEST DUP2 SWAP4 POP POP POP POP SWAP2 SWAP1 POP JUMP JUMPDEST PUSH2 0x1A9C DUP3 PUSH0 PUSH0 DUP5 PUSH2 0x28BE JUMP JUMPDEST POP POP JUMP JUMPDEST PUSH0 DUP2 MLOAD SUB PUSH2 0x1ADA JUMPI PUSH1 0x40 MLOAD PUSH32 0xFE936CB700000000000000000000000000000000000000000000000000000000 DUP2 MSTORE PUSH1 0x4 ADD PUSH1 0x40 MLOAD DUP1 SWAP2 SUB SWAP1 REVERT JUMPDEST DUP1 DUP3 PUSH1 0xA0 ADD DUP2 SWAP1 MSTORE POP POP POP JUMP JUMPDEST PUSH1 0x60 PUSH0 PUSH2 0x1AF5 PUSH2 0x100 PUSH2 0x2964 JUMP JUMPDEST SWAP1 POP PUSH2 0x1B3F PUSH1 0x40 MLOAD DUP1 PUSH1 0x40 ADD PUSH1 0x40 MSTORE DUP1 PUSH1 0xC DUP2 MSTORE PUSH1 0x20 ADD PUSH32 0x636F64654C6F636174696F6E0000000000000000000000000000000000000000 DUP2 MSTORE POP DUP3 PUSH2 0x2989 SWAP1 SWAP2 SWAP1 PUSH4 0xFFFFFFFF AND JUMP JUMPDEST PUSH2 0x1B67 DUP4 PUSH0 ADD MLOAD PUSH1 0x2 DUP2 GT ISZERO PUSH2 0x1B58 JUMPI PUSH2 0x1B57 PUSH2 0x4C7C JUMP JUMPDEST JUMPDEST DUP3 PUSH2 0x29B1 SWAP1 SWAP2 SWAP1 PUSH4 0xFFFFFFFF AND JUMP JUMPDEST PUSH2 0x1BAF PUSH1 0x40 MLOAD DUP1 PUSH1 0x40 ADD PUSH1 0x40 MSTORE DUP1 PUSH1 0x8 DUP2 MSTORE PUSH1 0x20 ADD PUSH32 0x6C616E6775616765000000000000000000000000000000000000000000000000 DUP2 MSTORE POP DUP3 PUSH2 0x2989 SWAP1 SWAP2 SWAP1 PUSH4 0xFFFFFFFF AND JUMP JUMPDEST PUSH2 0x1BD7 DUP4 PUSH1 0x40 ADD MLOAD PUSH0 DUP2 GT ISZERO PUSH2 0x1BC8 JUMPI PUSH2 0x1BC7 PUSH2 0x4C7C JUMP JUMPDEST JUMPDEST DUP3 PUSH2 0x29B1 SWAP1 SWAP2 SWAP1 PUSH4 0xFFFFFFFF AND JUMP JUMPDEST PUSH2 0x1C1F PUSH1 0x40 MLOAD DUP1 PUSH1 0x40 ADD PUSH1 0x40 MSTORE DUP1 PUSH1 0x6 DUP2 MSTORE PUSH1 0x20 ADD PUSH32 0x736F757263650000000000000000000000000000000000000000000000000000 DUP2 MSTORE POP DUP3 PUSH2 0x2989 SWAP1 SWAP2 SWAP1 PUSH4 0xFFFFFFFF AND JUMP JUMPDEST PUSH2 0x1C36 DUP4 PUSH1 0x60 ADD MLOAD DUP3 PUSH2 0x2989 SWAP1 SWAP2 SWAP1 PUSH4 0xFFFFFFFF AND JUMP JUMPDEST PUSH0 DUP4 PUSH1 0xA0 ADD MLOAD MLOAD GT ISZERO PUSH2 0x1CED JUMPI PUSH2 0x1C8B PUSH1 0x40 MLOAD DUP1 PUSH1 0x40 ADD PUSH1 0x40 MSTORE DUP1 PUSH1 0x4 DUP2 MSTORE PUSH1 0x20 ADD PUSH32 0x6172677300000000000000000000000000000000000000000000000000000000 DUP2 MSTORE POP DUP3 PUSH2 0x2989 SWAP1 SWAP2 SWAP1 PUSH4 0xFFFFFFFF AND JUMP JUMPDEST PUSH2 0x1C94 DUP2 PUSH2 0x2A00 JUMP JUMPDEST PUSH0 PUSH0 SWAP1 POP JUMPDEST DUP4 PUSH1 0xA0 ADD MLOAD MLOAD DUP2 LT ISZERO PUSH2 0x1CE2 JUMPI PUSH2 0x1CD7 DUP5 PUSH1 0xA0 ADD MLOAD DUP3 DUP2 MLOAD DUP2 LT PUSH2 0x1CC0 JUMPI PUSH2 0x1CBF PUSH2 0x4648 JUMP JUMPDEST JUMPDEST PUSH1 0x20 MUL PUSH1 0x20 ADD ADD MLOAD DUP4 PUSH2 0x2989 SWAP1 SWAP2 SWAP1 PUSH4 0xFFFFFFFF AND JUMP JUMPDEST DUP1 PUSH1 0x1 ADD SWAP1 POP PUSH2 0x1C99 JUMP JUMPDEST POP PUSH2 0x1CEC DUP2 PUSH2 0x2A28 JUMP JUMPDEST JUMPDEST PUSH0 DUP4 PUSH1 0x80 ADD MLOAD MLOAD GT ISZERO PUSH2 0x1E2C JUMPI PUSH0 PUSH1 0x2 DUP2 GT ISZERO PUSH2 0x1D0D JUMPI PUSH2 0x1D0C PUSH2 0x4C7C JUMP JUMPDEST JUMPDEST DUP4 PUSH1 0x20 ADD MLOAD PUSH1 0x2 DUP2 GT ISZERO PUSH2 0x1D24 JUMPI PUSH2 0x1D23 PUSH2 0x4C7C JUMP JUMPDEST JUMPDEST SUB PUSH2 0x1D5B JUMPI PUSH1 0x40 MLOAD PUSH32 0xA80D31F700000000000000000000000000000000000000000000000000000000 DUP2 MSTORE PUSH1 0x4 ADD PUSH1 0x40 MLOAD DUP1 SWAP2 SUB SWAP1 REVERT JUMPDEST PUSH2 0x1DA3 PUSH1 0x40 MLOAD DUP1 PUSH1 0x40 ADD PUSH1 0x40 MSTORE DUP1 PUSH1 0xF DUP2 MSTORE PUSH1 0x20 ADD PUSH32 0x736563726574734C6F636174696F6E0000000000000000000000000000000000 DUP2 MSTORE POP DUP3 PUSH2 0x2989 SWAP1 SWAP2 SWAP1 PUSH4 0xFFFFFFFF AND JUMP JUMPDEST PUSH2 0x1DCC DUP4 PUSH1 0x20 ADD MLOAD PUSH1 0x2 DUP2 GT ISZERO PUSH2 0x1DBD JUMPI PUSH2 0x1DBC PUSH2 0x4C7C JUMP JUMPDEST JUMPDEST DUP3 PUSH2 0x29B1 SWAP1 SWAP2 SWAP1 PUSH4 0xFFFFFFFF AND JUMP JUMPDEST PUSH2 0x1E14 PUSH1 0x40 MLOAD DUP1 PUSH1 0x40 ADD PUSH1 0x40 MSTORE DUP1 PUSH1 0x7 DUP2 MSTORE PUSH1 0x20 ADD PUSH32 0x7365637265747300000000000000000000000000000000000000000000000000 DUP2 MSTORE POP DUP3 PUSH2 0x2989 SWAP1 SWAP2 SWAP1 PUSH4 0xFFFFFFFF AND JUMP JUMPDEST PUSH2 0x1E2B DUP4 PUSH1 0x80 ADD MLOAD DUP3 PUSH2 0x2A50 SWAP1 SWAP2 SWAP1 PUSH4 0xFFFFFFFF AND JUMP JUMPDEST JUMPDEST PUSH0 DUP4 PUSH1 0xC0 ADD MLOAD MLOAD GT ISZERO PUSH2 0x1EE3 JUMPI PUSH2 0x1E81 PUSH1 0x40 MLOAD DUP1 PUSH1 0x40 ADD PUSH1 0x40 MSTORE DUP1 PUSH1 0x9 DUP2 MSTORE PUSH1 0x20 ADD PUSH32 0x6279746573417267730000000000000000000000000000000000000000000000 DUP2 MSTORE POP DUP3 PUSH2 0x2989 SWAP1 SWAP2 SWAP1 PUSH4 0xFFFFFFFF AND JUMP JUMPDEST PUSH2 0x1E8A DUP2 PUSH2 0x2A00 JUMP JUMPDEST PUSH0 PUSH0 SWAP1 POP JUMPDEST DUP4 PUSH1 0xC0 ADD MLOAD MLOAD DUP2 LT ISZERO PUSH2 0x1ED8 JUMPI PUSH2 0x1ECD DUP5 PUSH1 0xC0 ADD MLOAD DUP3 DUP2 MLOAD DUP2 LT PUSH2 0x1EB6 JUMPI PUSH2 0x1EB5 PUSH2 0x4648 JUMP JUMPDEST JUMPDEST PUSH1 0x20 MUL PUSH1 0x20 ADD ADD MLOAD DUP4 PUSH2 0x2A50 SWAP1 SWAP2 SWAP1 PUSH4 0xFFFFFFFF AND JUMP JUMPDEST DUP1 PUSH1 0x1 ADD SWAP1 POP PUSH2 0x1E8F JUMP JUMPDEST POP PUSH2 0x1EE2 DUP2 PUSH2 0x2A28 JUMP JUMPDEST JUMPDEST DUP1 PUSH0 ADD MLOAD PUSH0 ADD MLOAD SWAP2 POP POP SWAP2 SWAP1 POP JUMP JUMPDEST PUSH0 PUSH0 PUSH32 0x0 PUSH20 0xFFFFFFFFFFFFFFFFFFFFFFFFFFFFFFFFFFFFFFFF AND PUSH4 0x461D2762 DUP7 DUP9 PUSH1 0x1 DUP9 DUP9 PUSH1 0x40 MLOAD DUP7 PUSH4 0xFFFFFFFF AND PUSH1 0xE0 SHL DUP2 MSTORE PUSH1 0x4 ADD PUSH2 0x1F56 SWAP6 SWAP5 SWAP4 SWAP3 SWAP2 SWAP1 PUSH2 0x4D35 JUMP JUMPDEST PUSH1 0x20 PUSH1 0x40 MLOAD DUP1 DUP4 SUB DUP2 PUSH0 DUP8 GAS CALL ISZERO DUP1 ISZERO PUSH2 0x1F72 JUMPI RETURNDATASIZE PUSH0 PUSH0 RETURNDATACOPY RETURNDATASIZE PUSH0 REVERT JUMPDEST POP POP POP POP PUSH1 0x40 MLOAD RETURNDATASIZE PUSH1 0x1F NOT PUSH1 0x1F DUP3 ADD AND DUP3 ADD DUP1 PUSH1 0x40 MSTORE POP DUP2 ADD SWAP1 PUSH2 0x1F96 SWAP2 SWAP1 PUSH2 0x4DA1 JUMP JUMPDEST SWAP1 POP DUP1 PUSH32 0x1131472297A800FEE664D1D89CFA8F7676FF07189ECC53F80BBB5F4969099DB8 PUSH1 0x40 MLOAD PUSH1 0x40 MLOAD DUP1 SWAP2 SUB SWAP1 LOG2 DUP1 SWAP2 POP POP SWAP5 SWAP4 POP POP POP POP JUMP JUMPDEST PUSH0 PUSH1 0x7 PUSH0 SWAP1 SLOAD SWAP1 PUSH2 0x100 EXP SWAP1 DIV PUSH20 0xFFFFFFFFFFFFFFFFFFFFFFFFFFFFFFFFFFFFFFFF AND SWAP1 POP DUP2 PUSH1 0x7 PUSH0 PUSH2 0x100 EXP DUP2 SLOAD DUP2 PUSH20 0xFFFFFFFFFFFFFFFFFFFFFFFFFFFFFFFFFFFFFFFF MUL NOT AND SWAP1 DUP4 PUSH20 0xFFFFFFFFFFFFFFFFFFFFFFFFFFFFFFFFFFFFFFFF AND MUL OR SWAP1 SSTORE POP DUP2 PUSH20 0xFFFFFFFFFFFFFFFFFFFFFFFFFFFFFFFFFFFFFFFF AND DUP2 PUSH20 0xFFFFFFFFFFFFFFFFFFFFFFFFFFFFFFFFFFFFFFFF AND PUSH32 0x8BE0079C531659141344CD1FD0A4F28419497F9722A3DAAFE3B4186F6B6457E0 PUSH1 0x40 MLOAD PUSH1 0x40 MLOAD DUP1 SWAP2 SUB SWAP1 LOG3 POP POP JUMP JUMPDEST PUSH0 PUSH20 0xFFFFFFFFFFFFFFFFFFFFFFFFFFFFFFFFFFFFFFFF AND DUP4 PUSH20 0xFFFFFFFFFFFFFFFFFFFFFFFFFFFFFFFFFFFFFFFF AND SUB PUSH2 0x2104 JUMPI PUSH0 PUSH1 0x40 MLOAD PUSH32 0xA9FBF51F00000000000000000000000000000000000000000000000000000000 DUP2 MSTORE PUSH1 0x4 ADD PUSH2 0x20FB SWAP2 SWAP1 PUSH2 0x3629 JUMP JUMPDEST PUSH1 0x40 MLOAD DUP1 SWAP2 SUB SWAP1 REVERT JUMPDEST PUSH0 PUSH20 0xFFFFFFFFFFFFFFFFFFFFFFFFFFFFFFFFFFFFFFFF AND DUP3 PUSH20 0xFFFFFFFFFFFFFFFFFFFFFFFFFFFFFFFFFFFFFFFF AND SUB PUSH2 0x2174 JUMPI DUP2 PUSH1 0x40 MLOAD PUSH32 0x5B08BA1800000000000000000000000000000000000000000000000000000000 DUP2 MSTORE PUSH1 0x4 ADD PUSH2 0x216B SWAP2 SWAP1 PUSH2 0x3629 JUMP JUMPDEST PUSH1 0x40 MLOAD DUP1 SWAP2 SUB SWAP1 REVERT JUMPDEST DUP1 PUSH1 0x5 PUSH0 DUP6 PUSH20 0xFFFFFFFFFFFFFFFFFFFFFFFFFFFFFFFFFFFFFFFF AND PUSH20 0xFFFFFFFFFFFFFFFFFFFFFFFFFFFFFFFFFFFFFFFF AND DUP2 MSTORE PUSH1 0x20 ADD SWAP1 DUP2 MSTORE PUSH1 0x20 ADD PUSH0 KECCAK256 PUSH0 DUP5 PUSH20 0xFFFFFFFFFFFFFFFFFFFFFFFFFFFFFFFFFFFFFFFF AND PUSH20 0xFFFFFFFFFFFFFFFFFFFFFFFFFFFFFFFFFFFFFFFF AND DUP2 MSTORE PUSH1 0x20 ADD SWAP1 DUP2 MSTORE PUSH1 0x20 ADD PUSH0 KECCAK256 PUSH0 PUSH2 0x100 EXP DUP2 SLOAD DUP2 PUSH1 0xFF MUL NOT AND SWAP1 DUP4 ISZERO ISZERO MUL OR SWAP1 SSTORE POP DUP2 PUSH20 0xFFFFFFFFFFFFFFFFFFFFFFFFFFFFFFFFFFFFFFFF AND DUP4 PUSH20 0xFFFFFFFFFFFFFFFFFFFFFFFFFFFFFFFFFFFFFFFF AND PUSH32 0x17307EAB39AB6107E8899845AD3D59BD9653F200F220920489CA2B5937696C31 DUP4 PUSH1 0x40 MLOAD PUSH2 0x2260 SWAP2 SWAP1 PUSH2 0x34F3 JUMP JUMPDEST PUSH1 0x40 MLOAD DUP1 SWAP2 SUB SWAP1 LOG3 POP POP POP JUMP JUMPDEST PUSH0 DUP4 PUSH20 0xFFFFFFFFFFFFFFFFFFFFFFFFFFFFFFFFFFFFFFFF AND EXTCODESIZE GT ISZERO PUSH2 0x2412 JUMPI DUP3 PUSH20 0xFFFFFFFFFFFFFFFFFFFFFFFFFFFFFFFFFFFFFFFF AND PUSH4 0x150B7A02 DUP7 DUP7 DUP6 DUP6 PUSH1 0x40 MLOAD DUP6 PUSH4 0xFFFFFFFF AND PUSH1 0xE0 SHL DUP2 MSTORE PUSH1 0x4 ADD PUSH2 0x22CB SWAP5 SWAP4 SWAP3 SWAP2 SWAP1 PUSH2 0x4DCC JUMP JUMPDEST PUSH1 0x20 PUSH1 0x40 MLOAD DUP1 DUP4 SUB DUP2 PUSH0 DUP8 GAS CALL SWAP3 POP POP POP DUP1 ISZERO PUSH2 0x2306 JUMPI POP PUSH1 0x40 MLOAD RETURNDATASIZE PUSH1 0x1F NOT PUSH1 0x1F DUP3 ADD AND DUP3 ADD DUP1 PUSH1 0x40 MSTORE POP DUP2 ADD SWAP1 PUSH2 0x2303 SWAP2 SWAP1 PUSH2 0x4E2A JUMP JUMPDEST PUSH1 0x1 JUMPDEST PUSH2 0x2387 JUMPI RETURNDATASIZE DUP1 PUSH0 DUP2 EQ PUSH2 0x2334 JUMPI PUSH1 0x40 MLOAD SWAP2 POP PUSH1 0x1F NOT PUSH1 0x3F RETURNDATASIZE ADD AND DUP3 ADD PUSH1 0x40 MSTORE RETURNDATASIZE DUP3 MSTORE RETURNDATASIZE PUSH0 PUSH1 0x20 DUP5 ADD RETURNDATACOPY PUSH2 0x2339 JUMP JUMPDEST PUSH1 0x60 SWAP2 POP JUMPDEST POP PUSH0 DUP2 MLOAD SUB PUSH2 0x237F JUMPI DUP4 PUSH1 0x40 MLOAD PUSH32 0x64A0AE9200000000000000000000000000000000000000000000000000000000 DUP2 MSTORE PUSH1 0x4 ADD PUSH2 0x2376 SWAP2 SWAP1 PUSH2 0x3629 JUMP JUMPDEST PUSH1 0x40 MLOAD DUP1 SWAP2 SUB SWAP1 REVERT JUMPDEST DUP1 MLOAD PUSH1 0x20 DUP3 ADD REVERT JUMPDEST PUSH4 0x150B7A02 PUSH1 0xE0 SHL PUSH28 0xFFFFFFFFFFFFFFFFFFFFFFFFFFFFFFFFFFFFFFFFFFFFFFFFFFFFFFFF NOT AND DUP2 PUSH28 0xFFFFFFFFFFFFFFFFFFFFFFFFFFFFFFFFFFFFFFFFFFFFFFFFFFFFFFFF NOT AND EQ PUSH2 0x2410 JUMPI DUP4 PUSH1 0x40 MLOAD PUSH32 0x64A0AE9200000000000000000000000000000000000000000000000000000000 DUP2 MSTORE PUSH1 0x4 ADD PUSH2 0x2407 SWAP2 SWAP1 PUSH2 0x3629 JUMP JUMPDEST PUSH1 0x40 MLOAD DUP1 SWAP2 SUB SWAP1 REVERT JUMPDEST POP JUMPDEST POP POP POP POP POP JUMP JUMPDEST PUSH2 0x2432 DUP3 DUP3 PUSH1 0x40 MLOAD DUP1 PUSH1 0x20 ADD PUSH1 0x40 MSTORE DUP1 PUSH0 DUP2 MSTORE POP PUSH2 0x2A78 JUMP JUMPDEST POP POP JUMP JUMPDEST PUSH1 0x60 PUSH2 0x2442 DUP3 PUSH0 PUSH2 0x2A9B JUMP JUMPDEST SWAP1 POP SWAP2 SWAP1 POP JUMP JUMPDEST PUSH0 PUSH32 0x1FFC9A700000000000000000000000000000000000000000000000000000000 PUSH28 0xFFFFFFFFFFFFFFFFFFFFFFFFFFFFFFFFFFFFFFFFFFFFFFFFFFFFFFFF NOT AND DUP3 PUSH28 0xFFFFFFFFFFFFFFFFFFFFFFFFFFFFFFFFFFFFFFFFFFFFFFFFFFFFFFFF NOT AND EQ SWAP1 POP SWAP2 SWAP1 POP JUMP JUMPDEST PUSH0 PUSH1 0x2 PUSH0 DUP4 DUP2 MSTORE PUSH1 0x20 ADD SWAP1 DUP2 MSTORE PUSH1 0x20 ADD PUSH0 KECCAK256 PUSH0 SWAP1 SLOAD SWAP1 PUSH2 0x100 EXP SWAP1 DIV PUSH20 0xFFFFFFFFFFFFFFFFFFFFFFFFFFFFFFFFFFFFFFFF AND SWAP1 POP SWAP2 SWAP1 POP JUMP JUMPDEST DUP1 DUP1 PUSH2 0x2523 JUMPI POP PUSH0 PUSH20 0xFFFFFFFFFFFFFFFFFFFFFFFFFFFFFFFFFFFFFFFF AND DUP3 PUSH20 0xFFFFFFFFFFFFFFFFFFFFFFFFFFFFFFFFFFFFFFFF AND EQ ISZERO JUMPDEST ISZERO PUSH2 0x2655 JUMPI PUSH0 PUSH2 0x2532 DUP5 PUSH2 0x15DF JUMP JUMPDEST SWAP1 POP PUSH0 PUSH20 0xFFFFFFFFFFFFFFFFFFFFFFFFFFFFFFFFFFFFFFFF AND DUP4 PUSH20 0xFFFFFFFFFFFFFFFFFFFFFFFFFFFFFFFFFFFFFFFF AND EQ ISZERO DUP1 ISZERO PUSH2 0x259C JUMPI POP DUP3 PUSH20 0xFFFFFFFFFFFFFFFFFFFFFFFFFFFFFFFFFFFFFFFF AND DUP2 PUSH20 0xFFFFFFFFFFFFFFFFFFFFFFFFFFFFFFFFFFFFFFFF AND EQ ISZERO JUMPDEST DUP1 ISZERO PUSH2 0x25AF JUMPI POP PUSH2 0x25AD DUP2 DUP5 PUSH2 0x1365 JUMP JUMPDEST ISZERO JUMPDEST ISZERO PUSH2 0x25F1 JUMPI DUP3 PUSH1 0x40 MLOAD PUSH32 0xA9FBF51F00000000000000000000000000000000000000000000000000000000 DUP2 MSTORE PUSH1 0x4 ADD PUSH2 0x25E8 SWAP2 SWAP1 PUSH2 0x3629 JUMP JUMPDEST PUSH1 0x40 MLOAD DUP1 SWAP2 SUB SWAP1 REVERT JUMPDEST DUP2 ISZERO PUSH2 0x2653 JUMPI DUP4 DUP6 PUSH20 0xFFFFFFFFFFFFFFFFFFFFFFFFFFFFFFFFFFFFFFFF AND DUP3 PUSH20 0xFFFFFFFFFFFFFFFFFFFFFFFFFFFFFFFFFFFFFFFF AND PUSH32 0x8C5BE1E5EBEC7D5BD14F71427D1E84F3DD0314C0F7B2291E5B200AC8C7C3B925 PUSH1 0x40 MLOAD PUSH1 0x40 MLOAD DUP1 SWAP2 SUB SWAP1 LOG4 JUMPDEST POP JUMPDEST DUP4 PUSH1 0x4 PUSH0 DUP6 DUP2 MSTORE PUSH1 0x20 ADD SWAP1 DUP2 MSTORE PUSH1 0x20 ADD PUSH0 KECCAK256 PUSH0 PUSH2 0x100 EXP DUP2 SLOAD DUP2 PUSH20 0xFFFFFFFFFFFFFFFFFFFFFFFFFFFFFFFFFFFFFFFF MUL NOT AND SWAP1 DUP4 PUSH20 0xFFFFFFFFFFFFFFFFFFFFFFFFFFFFFFFFFFFFFFFF AND MUL OR SWAP1 SSTORE POP POP POP POP POP JUMP JUMPDEST PUSH2 0x26B5 DUP4 DUP4 DUP4 PUSH2 0x2C25 JUMP JUMPDEST PUSH2 0x2768 JUMPI PUSH0 PUSH20 0xFFFFFFFFFFFFFFFFFFFFFFFFFFFFFFFFFFFFFFFF AND DUP4 PUSH20 0xFFFFFFFFFFFFFFFFFFFFFFFFFFFFFFFFFFFFFFFF AND SUB PUSH2 0x2729 JUMPI DUP1 PUSH1 0x40 MLOAD PUSH32 0x7E27328900000000000000000000000000000000000000000000000000000000 DUP2 MSTORE PUSH1 0x4 ADD PUSH2 0x2720 SWAP2 SWAP1 PUSH2 0x38C8 JUMP JUMPDEST PUSH1 0x40 MLOAD DUP1 SWAP2 SUB SWAP1 REVERT JUMPDEST DUP2 DUP2 PUSH1 0x40 MLOAD PUSH32 0x177E802F00000000000000000000000000000000000000000000000000000000 DUP2 MSTORE PUSH1 0x4 ADD PUSH2 0x275F SWAP3 SWAP2 SWAP1 PUSH2 0x4E55 JUMP JUMPDEST PUSH1 0x40 MLOAD DUP1 SWAP2 SUB SWAP1 REVERT JUMPDEST POP POP POP JUMP JUMPDEST PUSH0 PUSH0 PUSH0 SWAP1 POP PUSH27 0x184F03E93FF9F4DAA797ED6E38ED64BF6A1F010000000000000000 DUP4 LT PUSH2 0x27C9 JUMPI PUSH27 0x184F03E93FF9F4DAA797ED6E38ED64BF6A1F010000000000000000 DUP4 DUP2 PUSH2 0x27BF JUMPI PUSH2 0x27BE PUSH2 0x4675 JUMP JUMPDEST JUMPDEST DIV SWAP3 POP PUSH1 0x40 DUP2 ADD SWAP1 POP JUMPDEST PUSH14 0x4EE2D6D415B85ACEF8100000000 DUP4 LT PUSH2 0x2806 JUMPI PUSH14 0x4EE2D6D415B85ACEF8100000000 DUP4 DUP2 PUSH2 0x27FC JUMPI PUSH2 0x27FB PUSH2 0x4675 JUMP JUMPDEST JUMPDEST DIV SWAP3 POP PUSH1 0x20 DUP2 ADD SWAP1 POP JUMPDEST PUSH7 0x2386F26FC10000 DUP4 LT PUSH2 0x2835 JUMPI PUSH7 0x2386F26FC10000 DUP4 DUP2 PUSH2 0x282B JUMPI PUSH2 0x282A PUSH2 0x4675 JUMP JUMPDEST JUMPDEST DIV SWAP3 POP PUSH1 0x10 DUP2 ADD SWAP1 POP JUMPDEST PUSH4 0x5F5E100 DUP4 LT PUSH2 0x285E JUMPI PUSH4 0x5F5E100 DUP4 DUP2 PUSH2 0x2854 JUMPI PUSH2 0x2853 PUSH2 0x4675 JUMP JUMPDEST JUMPDEST DIV SWAP3 POP PUSH1 0x8 DUP2 ADD SWAP1 POP JUMPDEST PUSH2 0x2710 DUP4 LT PUSH2 0x2883 JUMPI PUSH2 0x2710 DUP4 DUP2 PUSH2 0x2879 JUMPI PUSH2 0x2878 PUSH2 0x4675 JUMP JUMPDEST JUMPDEST DIV SWAP3 POP PUSH1 0x4 DUP2 ADD SWAP1 POP JUMPDEST PUSH1 0x64 DUP4 LT PUSH2 0x28A6 JUMPI PUSH1 0x64 DUP4 DUP2 PUSH2 0x289C JUMPI PUSH2 0x289B PUSH2 0x4675 JUMP JUMPDEST JUMPDEST DIV SWAP3 POP PUSH1 0x2 DUP2 ADD SWAP1 POP JUMPDEST PUSH1 0xA DUP4 LT PUSH2 0x28B5 JUMPI PUSH1 0x1 DUP2 ADD SWAP1 POP JUMPDEST DUP1 SWAP2 POP POP SWAP2 SWAP1 POP JUMP JUMPDEST PUSH0 DUP2 MLOAD SUB PUSH2 0x28F8 JUMPI PUSH1 0x40 MLOAD PUSH32 0x22CE3EDD00000000000000000000000000000000000000000000000000000000 DUP2 MSTORE PUSH1 0x4 ADD PUSH1 0x40 MLOAD DUP1 SWAP2 SUB SWAP1 REVERT JUMPDEST DUP3 DUP5 PUSH0 ADD SWAP1 PUSH1 0x2 DUP2 GT ISZERO PUSH2 0x290F JUMPI PUSH2 0x290E PUSH2 0x4C7C JUMP JUMPDEST JUMPDEST SWAP1 DUP2 PUSH1 0x2 DUP2 GT ISZERO PUSH2 0x2923 JUMPI PUSH2 0x2922 PUSH2 0x4C7C JUMP JUMPDEST JUMPDEST DUP2 MSTORE POP POP DUP2 DUP5 PUSH1 0x40 ADD SWAP1 PUSH0 DUP2 GT ISZERO PUSH2 0x293E JUMPI PUSH2 0x293D PUSH2 0x4C7C JUMP JUMPDEST JUMPDEST SWAP1 DUP2 PUSH0 DUP2 GT ISZERO PUSH2 0x2951 JUMPI PUSH2 0x2950 PUSH2 0x4C7C JUMP JUMPDEST JUMPDEST DUP2 MSTORE POP POP DUP1 DUP5 PUSH1 0x60 ADD DUP2 SWAP1 MSTORE POP POP POP POP POP JUMP JUMPDEST PUSH2 0x296C PUSH2 0x328D JUMP JUMPDEST PUSH2 0x2979 DUP2 PUSH0 ADD MLOAD DUP4 PUSH2 0x2CE5 JUMP JUMPDEST POP PUSH0 DUP2 PUSH1 0x20 ADD DUP2 DUP2 MSTORE POP POP SWAP2 SWAP1 POP JUMP JUMPDEST PUSH2 0x2996 DUP3 PUSH1 0x3 DUP4 MLOAD PUSH2 0x2D5B JUMP JUMPDEST PUSH2 0x29AC DUP2 DUP4 PUSH0 ADD MLOAD PUSH2 0x2EFB SWAP1 SWAP2 SWAP1 PUSH4 0xFFFFFFFF AND JUMP JUMPDEST POP POP POP JUMP JUMPDEST PUSH2 0x29D2 PUSH1 0x2 PUSH1 0x5 PUSH1 0x6 PUSH1 0xFF AND SWAP1 SHL OR DUP4 PUSH0 ADD MLOAD PUSH2 0x2F17 SWAP1 SWAP2 SWAP1 PUSH4 0xFFFFFFFF AND JUMP JUMPDEST POP PUSH2 0x29FC DUP3 DUP3 PUSH1 0x40 MLOAD PUSH1 0x20 ADD PUSH2 0x29E8 SWAP2 SWAP1 PUSH2 0x38C8 JUMP JUMPDEST PUSH1 0x40 MLOAD PUSH1 0x20 DUP2 DUP4 SUB SUB DUP2 MSTORE SWAP1 PUSH1 0x40 MSTORE PUSH2 0x2A50 JUMP JUMPDEST POP POP JUMP JUMPDEST PUSH2 0x2A0B DUP2 PUSH1 0x4 PUSH2 0x2F7E JUMP JUMPDEST PUSH1 0x1 DUP2 PUSH1 0x20 ADD DUP2 DUP2 MLOAD PUSH2 0x2A1E SWAP2 SWAP1 PUSH2 0x4E7C JUMP JUMPDEST SWAP2 POP DUP2 DUP2 MSTORE POP POP POP JUMP JUMPDEST PUSH2 0x2A33 DUP2 PUSH1 0x7 PUSH2 0x2F7E JUMP JUMPDEST PUSH1 0x1 DUP2 PUSH1 0x20 ADD DUP2 DUP2 MLOAD PUSH2 0x2A46 SWAP2 SWAP1 PUSH2 0x4EAF JUMP JUMPDEST SWAP2 POP DUP2 DUP2 MSTORE POP POP POP JUMP JUMPDEST PUSH2 0x2A5D DUP3 PUSH1 0x2 DUP4 MLOAD PUSH2 0x2D5B JUMP JUMPDEST PUSH2 0x2A73 DUP2 DUP4 PUSH0 ADD MLOAD PUSH2 0x2EFB SWAP1 SWAP2 SWAP1 PUSH4 0xFFFFFFFF AND JUMP JUMPDEST POP POP POP JUMP JUMPDEST PUSH2 0x2A82 DUP4 DUP4 PUSH2 0x2FA3 JUMP JUMPDEST PUSH2 0x2A96 PUSH2 0x2A8D PUSH2 0x169E JUMP JUMPDEST PUSH0 DUP6 DUP6 DUP6 PUSH2 0x226D JUMP JUMPDEST POP POP POP JUMP JUMPDEST PUSH1 0x60 PUSH0 DUP4 MLOAD SUB PUSH2 0x2ABB JUMPI PUSH1 0x40 MLOAD DUP1 PUSH1 0x20 ADD PUSH1 0x40 MSTORE DUP1 PUSH0 DUP2 MSTORE POP SWAP1 POP PUSH2 0x2C1F JUMP JUMPDEST PUSH0 DUP3 PUSH2 0x2AEC JUMPI PUSH1 0x3 PUSH1 0x2 DUP6 MLOAD PUSH2 0x2AD1 SWAP2 SWAP1 PUSH2 0x4E7C JUMP JUMPDEST PUSH2 0x2ADB SWAP2 SWAP1 PUSH2 0x46CF JUMP JUMPDEST PUSH1 0x4 PUSH2 0x2AE7 SWAP2 SWAP1 PUSH2 0x4EE2 JUMP JUMPDEST PUSH2 0x2B13 JUMP JUMPDEST PUSH1 0x3 PUSH1 0x2 DUP6 MLOAD PUSH1 0x4 PUSH2 0x2AFE SWAP2 SWAP1 PUSH2 0x4EE2 JUMP JUMPDEST PUSH2 0x2B08 SWAP2 SWAP1 PUSH2 0x4E7C JUMP JUMPDEST PUSH2 0x2B12 SWAP2 SWAP1 PUSH2 0x46CF JUMP JUMPDEST JUMPDEST SWAP1 POP PUSH1 0x40 MLOAD SWAP2 POP PUSH32 0x4142434445464748494A4B4C4D4E4F505152535455565758595A616263646566 PUSH1 0x1F MSTORE PUSH2 0x670 DUP4 MUL PUSH32 0x6768696A6B6C6D6E6F707172737475767778797A303132333435363738392B2F XOR PUSH1 0x3F MSTORE PUSH1 0x20 DUP3 ADD DUP2 DUP2 ADD DUP6 DUP7 MLOAD DUP8 ADD PUSH1 0x20 DUP2 ADD DUP1 MLOAD PUSH0 DUP3 MSTORE JUMPDEST DUP3 DUP5 LT ISZERO PUSH2 0x2BD1 JUMPI PUSH1 0x3 DUP5 ADD SWAP4 POP DUP4 MLOAD PUSH1 0x3F DUP2 PUSH1 0x12 SHR AND MLOAD DUP8 MSTORE8 PUSH1 0x1 DUP8 ADD SWAP7 POP PUSH1 0x3F DUP2 PUSH1 0xC SHR AND MLOAD DUP8 MSTORE8 PUSH1 0x1 DUP8 ADD SWAP7 POP PUSH1 0x3F DUP2 PUSH1 0x6 SHR AND MLOAD DUP8 MSTORE8 PUSH1 0x1 DUP8 ADD SWAP7 POP PUSH1 0x3F DUP2 AND MLOAD DUP8 MSTORE8 PUSH1 0x1 DUP8 ADD SWAP7 POP POP PUSH2 0x2B7E JUMP JUMPDEST DUP1 DUP3 MSTORE DUP9 PUSH2 0x2C10 JUMPI PUSH1 0x3 DUP11 MLOAD MOD PUSH1 0x1 DUP2 EQ PUSH2 0x2BF3 JUMPI PUSH1 0x2 DUP2 EQ PUSH2 0x2C06 JUMPI PUSH2 0x2C0E JUMP JUMPDEST PUSH1 0x3D PUSH1 0x1 DUP9 SUB MSTORE8 PUSH1 0x3D PUSH1 0x2 DUP9 SUB MSTORE8 PUSH2 0x2C0E JUMP JUMPDEST PUSH1 0x3D PUSH1 0x1 DUP9 SUB MSTORE8 JUMPDEST POP JUMPDEST DUP7 DUP9 MSTORE DUP5 PUSH1 0x40 MSTORE POP POP POP POP POP POP POP JUMPDEST SWAP3 SWAP2 POP POP JUMP JUMPDEST PUSH0 PUSH0 PUSH20 0xFFFFFFFFFFFFFFFFFFFFFFFFFFFFFFFFFFFFFFFF AND DUP4 PUSH20 0xFFFFFFFFFFFFFFFFFFFFFFFFFFFFFFFFFFFFFFFF AND EQ ISZERO DUP1 ISZERO PUSH2 0x2CDC JUMPI POP DUP3 PUSH20 0xFFFFFFFFFFFFFFFFFFFFFFFFFFFFFFFFFFFFFFFF AND DUP5 PUSH20 0xFFFFFFFFFFFFFFFFFFFFFFFFFFFFFFFFFFFFFFFF AND EQ DUP1 PUSH2 0x2C9D JUMPI POP PUSH2 0x2C9C DUP5 DUP5 PUSH2 0x1365 JUMP JUMPDEST JUMPDEST DUP1 PUSH2 0x2CDB JUMPI POP DUP3 PUSH20 0xFFFFFFFFFFFFFFFFFFFFFFFFFFFFFFFFFFFFFFFF AND PUSH2 0x2CC3 DUP4 PUSH2 0x1665 JUMP JUMPDEST PUSH20 0xFFFFFFFFFFFFFFFFFFFFFFFFFFFFFFFFFFFFFFFF AND EQ JUMPDEST JUMPDEST SWAP1 POP SWAP4 SWAP3 POP POP POP JUMP JUMPDEST PUSH2 0x2CED PUSH2 0x32AC JUMP JUMPDEST PUSH0 PUSH1 0x20 DUP4 PUSH2 0x2CFB SWAP2 SWAP1 PUSH2 0x46FF JUMP JUMPDEST EQ PUSH2 0x2D27 JUMPI PUSH1 0x20 DUP3 PUSH2 0x2D0D SWAP2 SWAP1 PUSH2 0x46FF JUMP JUMPDEST PUSH1 0x20 PUSH2 0x2D19 SWAP2 SWAP1 PUSH2 0x4EAF JUMP JUMPDEST DUP3 PUSH2 0x2D24 SWAP2 SWAP1 PUSH2 0x4E7C JUMP JUMPDEST SWAP2 POP JUMPDEST DUP2 DUP4 PUSH1 0x20 ADD DUP2 DUP2 MSTORE POP POP PUSH1 0x40 MLOAD DUP1 DUP5 MSTORE PUSH0 DUP2 MSTORE DUP3 DUP2 ADD PUSH1 0x20 ADD DUP2 DUP2 LT ISZERO PUSH2 0x2D4C JUMPI PUSH0 PUSH0 REVERT JUMPDEST DUP1 PUSH1 0x40 MSTORE POP POP DUP3 SWAP1 POP SWAP3 SWAP2 POP POP JUMP JUMPDEST PUSH1 0x17 DUP2 PUSH8 0xFFFFFFFFFFFFFFFF AND GT PUSH2 0x2D95 JUMPI PUSH2 0x2D8F DUP2 PUSH1 0x5 DUP5 PUSH1 0xFF AND SWAP1 SHL PUSH1 0xFF AND OR DUP5 PUSH0 ADD MLOAD PUSH2 0x2F17 SWAP1 SWAP2 SWAP1 PUSH4 0xFFFFFFFF AND JUMP JUMPDEST POP PUSH2 0x2EF6 JUMP JUMPDEST PUSH1 0xFF DUP2 PUSH8 0xFFFFFFFFFFFFFFFF AND GT PUSH2 0x2DF1 JUMPI PUSH2 0x2DC7 PUSH1 0x18 PUSH1 0x5 DUP5 PUSH1 0xFF AND SWAP1 SHL OR DUP5 PUSH0 ADD MLOAD PUSH2 0x2F17 SWAP1 SWAP2 SWAP1 PUSH4 0xFFFFFFFF AND JUMP JUMPDEST POP PUSH2 0x2DEB DUP2 PUSH8 0xFFFFFFFFFFFFFFFF AND PUSH1 0x1 DUP6 PUSH0 ADD MLOAD PUSH2 0x3096 SWAP1 SWAP3 SWAP2 SWAP1 PUSH4 0xFFFFFFFF AND JUMP JUMPDEST POP PUSH2 0x2EF5 JUMP JUMPDEST PUSH2 0xFFFF DUP2 PUSH8 0xFFFFFFFFFFFFFFFF AND GT PUSH2 0x2E4E JUMPI PUSH2 0x2E24 PUSH1 0x19 PUSH1 0x5 DUP5 PUSH1 0xFF AND SWAP1 SHL OR DUP5 PUSH0 ADD MLOAD PUSH2 0x2F17 SWAP1 SWAP2 SWAP1 PUSH4 0xFFFFFFFF AND JUMP JUMPDEST POP PUSH2 0x2E48 DUP2 PUSH8 0xFFFFFFFFFFFFFFFF AND PUSH1 0x2 DUP6 PUSH0 ADD MLOAD PUSH2 0x3096 SWAP1 SWAP3 SWAP2 SWAP1 PUSH4 0xFFFFFFFF AND JUMP JUMPDEST POP PUSH2 0x2EF4 JUMP JUMPDEST PUSH4 0xFFFFFFFF DUP2 PUSH8 0xFFFFFFFFFFFFFFFF AND GT PUSH2 0x2EAD JUMPI PUSH2 0x2E83 PUSH1 0x1A PUSH1 0x5 DUP5 PUSH1 0xFF AND SWAP1 SHL OR DUP5 PUSH0 ADD MLOAD PUSH2 0x2F17 SWAP1 SWAP2 SWAP1 PUSH4 0xFFFFFFFF AND JUMP JUMPDEST POP PUSH2 0x2EA7 DUP2 PUSH8 0xFFFFFFFFFFFFFFFF AND PUSH1 0x4 DUP6 PUSH0 ADD MLOAD PUSH2 0x3096 SWAP1 SWAP3 SWAP2 SWAP1 PUSH4 0xFFFFFFFF AND JUMP JUMPDEST POP PUSH2 0x2EF3 JUMP JUMPDEST PUSH2 0x2ECD PUSH1 0x1B PUSH1 0x5 DUP5 PUSH1 0xFF AND SWAP1 SHL OR DUP5 PUSH0 ADD MLOAD PUSH2 0x2F17 SWAP1 SWAP2 SWAP1 PUSH4 0xFFFFFFFF AND JUMP JUMPDEST POP PUSH2 0x2EF1 DUP2 PUSH8 0xFFFFFFFFFFFFFFFF AND PUSH1 0x8 DUP6 PUSH0 ADD MLOAD PUSH2 0x3096 SWAP1 SWAP3 SWAP2 SWAP1 PUSH4 0xFFFFFFFF AND JUMP JUMPDEST POP JUMPDEST JUMPDEST JUMPDEST JUMPDEST POP POP POP JUMP JUMPDEST PUSH2 0x2F03 PUSH2 0x32AC JUMP JUMPDEST PUSH2 0x2F0F DUP4 DUP4 DUP5 MLOAD PUSH2 0x311F JUMP JUMPDEST SWAP1 POP SWAP3 SWAP2 POP POP JUMP JUMPDEST PUSH2 0x2F1F PUSH2 0x32AC JUMP JUMPDEST PUSH0 DUP4 PUSH0 ADD MLOAD MLOAD SWAP1 POP PUSH0 PUSH1 0x1 DUP3 PUSH2 0x2F35 SWAP2 SWAP1 PUSH2 0x4E7C JUMP JUMPDEST SWAP1 POP DUP5 PUSH1 0x20 ADD MLOAD DUP3 LT PUSH2 0x2F59 JUMPI PUSH2 0x2F58 DUP6 PUSH1 0x2 DUP4 PUSH2 0x2F53 SWAP2 SWAP1 PUSH2 0x4EE2 JUMP JUMPDEST PUSH2 0x31FC JUMP JUMPDEST JUMPDEST DUP5 MLOAD PUSH1 0x20 DUP4 DUP3 ADD ADD DUP6 DUP2 MSTORE8 DUP2 MLOAD DUP4 GT ISZERO PUSH2 0x2F71 JUMPI DUP3 DUP3 MSTORE JUMPDEST POP POP DUP5 SWAP3 POP POP POP SWAP3 SWAP2 POP POP JUMP JUMPDEST PUSH2 0x2F9E PUSH1 0x1F PUSH1 0x5 DUP4 PUSH1 0xFF AND SWAP1 SHL OR DUP4 PUSH0 ADD MLOAD PUSH2 0x2F17 SWAP1 SWAP2 SWAP1 PUSH4 0xFFFFFFFF AND JUMP JUMPDEST POP POP POP JUMP JUMPDEST PUSH0 PUSH20 0xFFFFFFFFFFFFFFFFFFFFFFFFFFFFFFFFFFFFFFFF AND DUP3 PUSH20 0xFFFFFFFFFFFFFFFFFFFFFFFFFFFFFFFFFFFFFFFF AND SUB PUSH2 0x3013 JUMPI PUSH0 PUSH1 0x40 MLOAD PUSH32 0x64A0AE9200000000000000000000000000000000000000000000000000000000 DUP2 MSTORE PUSH1 0x4 ADD PUSH2 0x300A SWAP2 SWAP1 PUSH2 0x3629 JUMP JUMPDEST PUSH1 0x40 MLOAD DUP1 SWAP2 SUB SWAP1 REVERT JUMPDEST PUSH0 PUSH2 0x301F DUP4 DUP4 PUSH0 PUSH2 0x17BB JUMP JUMPDEST SWAP1 POP PUSH0 PUSH20 0xFFFFFFFFFFFFFFFFFFFFFFFFFFFFFFFFFFFFFFFF AND DUP2 PUSH20 0xFFFFFFFFFFFFFFFFFFFFFFFFFFFFFFFFFFFFFFFF AND EQ PUSH2 0x3091 JUMPI PUSH0 PUSH1 0x40 MLOAD PUSH32 0x73C6AC6E00000000000000000000000000000000000000000000000000000000 DUP2 MSTORE PUSH1 0x4 ADD PUSH2 0x3088 SWAP2 SWAP1 PUSH2 0x3629 JUMP JUMPDEST PUSH1 0x40 MLOAD DUP1 SWAP2 SUB SWAP1 REVERT JUMPDEST POP POP POP JUMP JUMPDEST PUSH2 0x309E PUSH2 0x32AC JUMP JUMPDEST PUSH0 DUP5 PUSH0 ADD MLOAD MLOAD SWAP1 POP PUSH0 DUP2 DUP5 PUSH2 0x30B3 SWAP2 SWAP1 PUSH2 0x4E7C JUMP JUMPDEST SWAP1 POP DUP6 PUSH1 0x20 ADD MLOAD DUP2 GT ISZERO PUSH2 0x30D8 JUMPI PUSH2 0x30D7 DUP7 PUSH1 0x2 DUP4 PUSH2 0x30D2 SWAP2 SWAP1 PUSH2 0x4EE2 JUMP JUMPDEST PUSH2 0x31FC JUMP JUMPDEST JUMPDEST PUSH0 PUSH1 0x1 DUP6 PUSH2 0x100 PUSH2 0x30E9 SWAP2 SWAP1 PUSH2 0x5052 JUMP JUMPDEST PUSH2 0x30F3 SWAP2 SWAP1 PUSH2 0x4EAF JUMP JUMPDEST SWAP1 POP DUP7 MLOAD DUP3 DUP2 ADD DUP8 DUP4 NOT DUP3 MLOAD AND OR DUP2 MSTORE DUP2 MLOAD DUP5 GT ISZERO PUSH2 0x3110 JUMPI DUP4 DUP3 MSTORE JUMPDEST POP POP DUP7 SWAP4 POP POP POP POP SWAP4 SWAP3 POP POP POP JUMP JUMPDEST PUSH2 0x3127 PUSH2 0x32AC JUMP JUMPDEST DUP3 MLOAD DUP3 GT ISZERO PUSH2 0x3134 JUMPI PUSH0 PUSH0 REVERT JUMPDEST PUSH0 DUP5 PUSH0 ADD MLOAD MLOAD SWAP1 POP PUSH0 DUP4 DUP3 PUSH2 0x3149 SWAP2 SWAP1 PUSH2 0x4E7C JUMP JUMPDEST SWAP1 POP DUP6 PUSH1 0x20 ADD MLOAD DUP2 GT ISZERO PUSH2 0x316E JUMPI PUSH2 0x316D DUP7 PUSH1 0x2 DUP4 PUSH2 0x3168 SWAP2 SWAP1 PUSH2 0x4EE2 JUMP JUMPDEST PUSH2 0x31FC JUMP JUMPDEST JUMPDEST PUSH0 PUSH0 DUP8 MLOAD DUP1 MLOAD DUP6 PUSH1 0x20 DUP4 ADD ADD SWAP4 POP DUP1 DUP6 GT ISZERO PUSH2 0x3188 JUMPI DUP5 DUP3 MSTORE JUMPDEST PUSH1 0x20 DUP10 ADD SWAP3 POP POP POP JUMPDEST PUSH1 0x20 DUP7 LT PUSH2 0x31CF JUMPI DUP1 MLOAD DUP3 MSTORE PUSH1 0x20 DUP3 PUSH2 0x31AA SWAP2 SWAP1 PUSH2 0x4E7C JUMP JUMPDEST SWAP2 POP PUSH1 0x20 DUP2 PUSH2 0x31B9 SWAP2 SWAP1 PUSH2 0x4E7C JUMP JUMPDEST SWAP1 POP PUSH1 0x20 DUP7 PUSH2 0x31C8 SWAP2 SWAP1 PUSH2 0x4EAF JUMP JUMPDEST SWAP6 POP PUSH2 0x3191 JUMP JUMPDEST PUSH0 PUSH1 0x1 DUP8 PUSH1 0x20 SUB PUSH2 0x100 EXP SUB SWAP1 POP DUP1 NOT DUP3 MLOAD AND DUP2 DUP5 MLOAD AND DUP2 DUP2 OR DUP6 MSTORE POP POP POP DUP8 SWAP5 POP POP POP POP POP SWAP4 SWAP3 POP POP POP JUMP JUMPDEST PUSH0 DUP3 PUSH0 ADD MLOAD SWAP1 POP PUSH2 0x320D DUP4 DUP4 PUSH2 0x2CE5 JUMP JUMPDEST POP PUSH2 0x3218 DUP4 DUP3 PUSH2 0x2EFB JUMP JUMPDEST POP POP POP POP JUMP JUMPDEST PUSH1 0x40 MLOAD DUP1 PUSH1 0xE0 ADD PUSH1 0x40 MSTORE DUP1 PUSH0 PUSH1 0x2 DUP2 GT ISZERO PUSH2 0x323C JUMPI PUSH2 0x323B PUSH2 0x4C7C JUMP JUMPDEST JUMPDEST DUP2 MSTORE PUSH1 0x20 ADD PUSH0 PUSH1 0x2 DUP2 GT ISZERO PUSH2 0x3254 JUMPI PUSH2 0x3253 PUSH2 0x4C7C JUMP JUMPDEST JUMPDEST DUP2 MSTORE PUSH1 0x20 ADD PUSH0 PUSH0 DUP2 GT ISZERO PUSH2 0x326B JUMPI PUSH2 0x326A PUSH2 0x4C7C JUMP JUMPDEST JUMPDEST DUP2 MSTORE PUSH1 0x20 ADD PUSH1 0x60 DUP2 MSTORE PUSH1 0x20 ADD PUSH1 0x60 DUP2 MSTORE PUSH1 0x20 ADD PUSH1 0x60 DUP2 MSTORE PUSH1 0x20 ADD PUSH1 0x60 DUP2 MSTORE POP SWAP1 JUMP JUMPDEST PUSH1 0x40 MLOAD DUP1 PUSH1 0x40 ADD PUSH1 0x40 MSTORE DUP1 PUSH2 0x32A0 PUSH2 0x32AC JUMP JUMPDEST DUP2 MSTORE PUSH1 0x20 ADD PUSH0 DUP2 MSTORE POP SWAP1 JUMP JUMPDEST PUSH1 0x40 MLOAD DUP1 PUSH1 0x40 ADD PUSH1 0x40 MSTORE DUP1 PUSH1 0x60 DUP2 MSTORE PUSH1 0x20 ADD PUSH0 DUP2 MSTORE POP SWAP1 JUMP JUMPDEST PUSH0 PUSH1 0x40 MLOAD SWAP1 POP SWAP1 JUMP JUMPDEST PUSH0 PUSH0 REVERT JUMPDEST PUSH0 PUSH0 REVERT JUMPDEST PUSH0 PUSH0 REVERT JUMPDEST PUSH0 PUSH0 REVERT JUMPDEST PUSH0 PUSH1 0x1F NOT PUSH1 0x1F DUP4 ADD AND SWAP1 POP SWAP2 SWAP1 POP JUMP JUMPDEST PUSH32 0x4E487B7100000000000000000000000000000000000000000000000000000000 PUSH0 MSTORE PUSH1 0x41 PUSH1 0x4 MSTORE PUSH1 0x24 PUSH0 REVERT JUMPDEST PUSH2 0x3324 DUP3 PUSH2 0x32DE JUMP JUMPDEST DUP2 ADD DUP2 DUP2 LT PUSH8 0xFFFFFFFFFFFFFFFF DUP3 GT OR ISZERO PUSH2 0x3343 JUMPI PUSH2 0x3342 PUSH2 0x32EE JUMP JUMPDEST JUMPDEST DUP1 PUSH1 0x40 MSTORE POP POP POP JUMP JUMPDEST PUSH0 PUSH2 0x3355 PUSH2 0x32C5 JUMP JUMPDEST SWAP1 POP PUSH2 0x3361 DUP3 DUP3 PUSH2 0x331B JUMP JUMPDEST SWAP2 SWAP1 POP JUMP JUMPDEST PUSH0 PUSH8 0xFFFFFFFFFFFFFFFF DUP3 GT ISZERO PUSH2 0x3380 JUMPI PUSH2 0x337F PUSH2 0x32EE JUMP JUMPDEST JUMPDEST PUSH2 0x3389 DUP3 PUSH2 0x32DE JUMP JUMPDEST SWAP1 POP PUSH1 0x20 DUP2 ADD SWAP1 POP SWAP2 SWAP1 POP JUMP JUMPDEST DUP3 DUP2 DUP4 CALLDATACOPY PUSH0 DUP4 DUP4 ADD MSTORE POP POP POP JUMP JUMPDEST PUSH0 PUSH2 0x33B6 PUSH2 0x33B1 DUP5 PUSH2 0x3366 JUMP JUMPDEST PUSH2 0x334C JUMP JUMPDEST SWAP1 POP DUP3 DUP2 MSTORE PUSH1 0x20 DUP2 ADD DUP5 DUP5 DUP5 ADD GT ISZERO PUSH2 0x33D2 JUMPI PUSH2 0x33D1 PUSH2 0x32DA JUMP JUMPDEST JUMPDEST PUSH2 0x33DD DUP5 DUP3 DUP6 PUSH2 0x3396 JUMP JUMPDEST POP SWAP4 SWAP3 POP POP POP JUMP JUMPDEST PUSH0 DUP3 PUSH1 0x1F DUP4 ADD SLT PUSH2 0x33F9 JUMPI PUSH2 0x33F8 PUSH2 0x32D6 JUMP JUMPDEST JUMPDEST DUP2 CALLDATALOAD PUSH2 0x3409 DUP5 DUP3 PUSH1 0x20 DUP7 ADD PUSH2 0x33A4 JUMP JUMPDEST SWAP2 POP POP SWAP3 SWAP2 POP POP JUMP JUMPDEST PUSH0 PUSH1 0x20 DUP3 DUP5 SUB SLT ISZERO PUSH2 0x3427 JUMPI PUSH2 0x3426 PUSH2 0x32CE JUMP JUMPDEST JUMPDEST PUSH0 DUP3 ADD CALLDATALOAD PUSH8 0xFFFFFFFFFFFFFFFF DUP2 GT ISZERO PUSH2 0x3444 JUMPI PUSH2 0x3443 PUSH2 0x32D2 JUMP JUMPDEST JUMPDEST PUSH2 0x3450 DUP5 DUP3 DUP6 ADD PUSH2 0x33E5 JUMP JUMPDEST SWAP2 POP POP SWAP3 SWAP2 POP POP JUMP JUMPDEST PUSH0 PUSH32 0xFFFFFFFF00000000000000000000000000000000000000000000000000000000 DUP3 AND SWAP1 POP SWAP2 SWAP1 POP JUMP JUMPDEST PUSH2 0x348D DUP2 PUSH2 0x3459 JUMP JUMPDEST DUP2 EQ PUSH2 0x3497 JUMPI PUSH0 PUSH0 REVERT JUMPDEST POP JUMP JUMPDEST PUSH0 DUP2 CALLDATALOAD SWAP1 POP PUSH2 0x34A8 DUP2 PUSH2 0x3484 JUMP JUMPDEST SWAP3 SWAP2 POP POP JUMP JUMPDEST PUSH0 PUSH1 0x20 DUP3 DUP5 SUB SLT ISZERO PUSH2 0x34C3 JUMPI PUSH2 0x34C2 PUSH2 0x32CE JUMP JUMPDEST JUMPDEST PUSH0 PUSH2 0x34D0 DUP5 DUP3 DUP6 ADD PUSH2 0x349A JUMP JUMPDEST SWAP2 POP POP SWAP3 SWAP2 POP POP JUMP JUMPDEST PUSH0 DUP2 ISZERO ISZERO SWAP1 POP SWAP2 SWAP1 POP JUMP JUMPDEST PUSH2 0x34ED DUP2 PUSH2 0x34D9 JUMP JUMPDEST DUP3 MSTORE POP POP JUMP JUMPDEST PUSH0 PUSH1 0x20 DUP3 ADD SWAP1 POP PUSH2 0x3506 PUSH0 DUP4 ADD DUP5 PUSH2 0x34E4 JUMP JUMPDEST SWAP3 SWAP2 POP POP JUMP JUMPDEST PUSH0 DUP2 MLOAD SWAP1 POP SWAP2 SWAP1 POP JUMP JUMPDEST PUSH0 DUP3 DUP3 MSTORE PUSH1 0x20 DUP3 ADD SWAP1 POP SWAP3 SWAP2 POP POP JUMP JUMPDEST DUP3 DUP2 DUP4 MCOPY PUSH0 DUP4 DUP4 ADD MSTORE POP POP POP JUMP JUMPDEST PUSH0 PUSH2 0x353E DUP3 PUSH2 0x350C JUMP JUMPDEST PUSH2 0x3548 DUP2 DUP6 PUSH2 0x3516 JUMP JUMPDEST SWAP4 POP PUSH2 0x3558 DUP2 DUP6 PUSH1 0x20 DUP7 ADD PUSH2 0x3526 JUMP JUMPDEST PUSH2 0x3561 DUP2 PUSH2 0x32DE JUMP JUMPDEST DUP5 ADD SWAP2 POP POP SWAP3 SWAP2 POP POP JUMP JUMPDEST PUSH0 PUSH1 0x20 DUP3 ADD SWAP1 POP DUP2 DUP2 SUB PUSH0 DUP4 ADD MSTORE PUSH2 0x3584 DUP2 DUP5 PUSH2 0x3534 JUMP JUMPDEST SWAP1 POP SWAP3 SWAP2 POP POP JUMP JUMPDEST PUSH0 DUP2 SWAP1 POP SWAP2 SWAP1 POP JUMP JUMPDEST PUSH2 0x359E DUP2 PUSH2 0x358C JUMP JUMPDEST DUP2 EQ PUSH2 0x35A8 JUMPI PUSH0 PUSH0 REVERT JUMPDEST POP JUMP JUMPDEST PUSH0 DUP2 CALLDATALOAD SWAP1 POP PUSH2 0x35B9 DUP2 PUSH2 0x3595 JUMP JUMPDEST SWAP3 SWAP2 POP POP JUMP JUMPDEST PUSH0 PUSH1 0x20 DUP3 DUP5 SUB SLT ISZERO PUSH2 0x35D4 JUMPI PUSH2 0x35D3 PUSH2 0x32CE JUMP JUMPDEST JUMPDEST PUSH0 PUSH2 0x35E1 DUP5 DUP3 DUP6 ADD PUSH2 0x35AB JUMP JUMPDEST SWAP2 POP POP SWAP3 SWAP2 POP POP JUMP JUMPDEST PUSH0 PUSH20 0xFFFFFFFFFFFFFFFFFFFFFFFFFFFFFFFFFFFFFFFF DUP3 AND SWAP1 POP SWAP2 SWAP1 POP JUMP JUMPDEST PUSH0 PUSH2 0x3613 DUP3 PUSH2 0x35EA JUMP JUMPDEST SWAP1 POP SWAP2 SWAP1 POP JUMP JUMPDEST PUSH2 0x3623 DUP2 PUSH2 0x3609 JUMP JUMPDEST DUP3 MSTORE POP POP JUMP JUMPDEST PUSH0 PUSH1 0x20 DUP3 ADD SWAP1 POP PUSH2 0x363C PUSH0 DUP4 ADD DUP5 PUSH2 0x361A JUMP JUMPDEST SWAP3 SWAP2 POP POP JUMP JUMPDEST PUSH2 0x364B DUP2 PUSH2 0x3609 JUMP JUMPDEST DUP2 EQ PUSH2 0x3655 JUMPI PUSH0 PUSH0 REVERT JUMPDEST POP JUMP JUMPDEST PUSH0 DUP2 CALLDATALOAD SWAP1 POP PUSH2 0x3666 DUP2 PUSH2 0x3642 JUMP JUMPDEST SWAP3 SWAP2 POP POP JUMP JUMPDEST PUSH0 PUSH0 PUSH1 0x40 DUP4 DUP6 SUB SLT ISZERO PUSH2 0x3682 JUMPI PUSH2 0x3681 PUSH2 0x32CE JUMP JUMPDEST JUMPDEST PUSH0 PUSH2 0x368F DUP6 DUP3 DUP7 ADD PUSH2 0x3658 JUMP JUMPDEST SWAP3 POP POP PUSH1 0x20 PUSH2 0x36A0 DUP6 DUP3 DUP7 ADD PUSH2 0x35AB JUMP JUMPDEST SWAP2 POP POP SWAP3 POP SWAP3 SWAP1 POP JUMP JUMPDEST PUSH0 PUSH8 0xFFFFFFFFFFFFFFFF DUP3 AND SWAP1 POP SWAP2 SWAP1 POP JUMP JUMPDEST PUSH2 0x36C6 DUP2 PUSH2 0x36AA JUMP JUMPDEST DUP3 MSTORE POP POP JUMP JUMPDEST PUSH0 PUSH1 0x20 DUP3 ADD SWAP1 POP PUSH2 0x36DF PUSH0 DUP4 ADD DUP5 PUSH2 0x36BD JUMP JUMPDEST SWAP3 SWAP2 POP POP JUMP JUMPDEST PUSH0 DUP2 SWAP1 POP SWAP2 SWAP1 POP JUMP JUMPDEST PUSH2 0x36F7 DUP2 PUSH2 0x36E5 JUMP JUMPDEST DUP2 EQ PUSH2 0x3701 JUMPI PUSH0 PUSH0 REVERT JUMPDEST POP JUMP JUMPDEST PUSH0 DUP2 CALLDATALOAD SWAP1 POP PUSH2 0x3712 DUP2 PUSH2 0x36EE JUMP JUMPDEST SWAP3 SWAP2 POP POP JUMP JUMPDEST PUSH0 PUSH8 0xFFFFFFFFFFFFFFFF DUP3 GT ISZERO PUSH2 0x3732 JUMPI PUSH2 0x3731 PUSH2 0x32EE JUMP JUMPDEST JUMPDEST PUSH2 0x373B DUP3 PUSH2 0x32DE JUMP JUMPDEST SWAP1 POP PUSH1 0x20 DUP2 ADD SWAP1 POP SWAP2 SWAP1 POP JUMP JUMPDEST PUSH0 PUSH2 0x375A PUSH2 0x3755 DUP5 PUSH2 0x3718 JUMP JUMPDEST PUSH2 0x334C JUMP JUMPDEST SWAP1 POP DUP3 DUP2 MSTORE PUSH1 0x20 DUP2 ADD DUP5 DUP5 DUP5 ADD GT ISZERO PUSH2 0x3776 JUMPI PUSH2 0x3775 PUSH2 0x32DA JUMP JUMPDEST JUMPDEST PUSH2 0x3781 DUP5 DUP3 DUP6 PUSH2 0x3396 JUMP JUMPDEST POP SWAP4 SWAP3 POP POP POP JUMP JUMPDEST PUSH0 DUP3 PUSH1 0x1F DUP4 ADD SLT PUSH2 0x379D JUMPI PUSH2 0x379C PUSH2 0x32D6 JUMP JUMPDEST JUMPDEST DUP2 CALLDATALOAD PUSH2 0x37AD DUP5 DUP3 PUSH1 0x20 DUP7 ADD PUSH2 0x3748 JUMP JUMPDEST SWAP2 POP POP SWAP3 SWAP2 POP POP JUMP JUMPDEST PUSH0 PUSH0 PUSH0 PUSH1 0x60 DUP5 DUP7 SUB SLT ISZERO PUSH2 0x37CD JUMPI PUSH2 0x37CC PUSH2 0x32CE JUMP JUMPDEST JUMPDEST PUSH0 PUSH2 0x37DA DUP7 DUP3 DUP8 ADD PUSH2 0x3704 JUMP JUMPDEST SWAP4 POP POP PUSH1 0x20 DUP5 ADD CALLDATALOAD PUSH8 0xFFFFFFFFFFFFFFFF DUP2 GT ISZERO PUSH2 0x37FB JUMPI PUSH2 0x37FA PUSH2 0x32D2 JUMP JUMPDEST JUMPDEST PUSH2 0x3807 DUP7 DUP3 DUP8 ADD PUSH2 0x3789 JUMP JUMPDEST SWAP3 POP POP PUSH1 0x40 DUP5 ADD CALLDATALOAD PUSH8 0xFFFFFFFFFFFFFFFF DUP2 GT ISZERO PUSH2 0x3828 JUMPI PUSH2 0x3827 PUSH2 0x32D2 JUMP JUMPDEST JUMPDEST PUSH2 0x3834 DUP7 DUP3 DUP8 ADD PUSH2 0x3789 JUMP JUMPDEST SWAP2 POP POP SWAP3 POP SWAP3 POP SWAP3 JUMP JUMPDEST PUSH0 PUSH0 PUSH0 PUSH1 0x60 DUP5 DUP7 SUB SLT ISZERO PUSH2 0x3855 JUMPI PUSH2 0x3854 PUSH2 0x32CE JUMP JUMPDEST JUMPDEST PUSH0 PUSH2 0x3862 DUP7 DUP3 DUP8 ADD PUSH2 0x3658 JUMP JUMPDEST SWAP4 POP POP PUSH1 0x20 PUSH2 0x3873 DUP7 DUP3 DUP8 ADD PUSH2 0x3658 JUMP JUMPDEST SWAP3 POP POP PUSH1 0x40 PUSH2 0x3884 DUP7 DUP3 DUP8 ADD PUSH2 0x35AB JUMP JUMPDEST SWAP2 POP POP SWAP3 POP SWAP3 POP SWAP3 JUMP JUMPDEST PUSH0 PUSH1 0x20 DUP3 DUP5 SUB SLT ISZERO PUSH2 0x38A3 JUMPI PUSH2 0x38A2 PUSH2 0x32CE JUMP JUMPDEST JUMPDEST PUSH0 PUSH2 0x38B0 DUP5 DUP3 DUP6 ADD PUSH2 0x3704 JUMP JUMPDEST SWAP2 POP POP SWAP3 SWAP2 POP POP JUMP JUMPDEST PUSH2 0x38C2 DUP2 PUSH2 0x358C JUMP JUMPDEST DUP3 MSTORE POP POP JUMP JUMPDEST PUSH0 PUSH1 0x20 DUP3 ADD SWAP1 POP PUSH2 0x38DB PUSH0 DUP4 ADD DUP5 PUSH2 0x38B9 JUMP JUMPDEST SWAP3 SWAP2 POP POP JUMP JUMPDEST PUSH0 PUSH0 PUSH1 0x40 DUP4 DUP6 SUB SLT ISZERO PUSH2 0x38F7 JUMPI PUSH2 0x38F6 PUSH2 0x32CE JUMP JUMPDEST JUMPDEST PUSH0 PUSH2 0x3904 DUP6 DUP3 DUP7 ADD PUSH2 0x35AB JUMP JUMPDEST SWAP3 POP POP PUSH1 0x20 DUP4 ADD CALLDATALOAD PUSH8 0xFFFFFFFFFFFFFFFF DUP2 GT ISZERO PUSH2 0x3925 JUMPI PUSH2 0x3924 PUSH2 0x32D2 JUMP JUMPDEST JUMPDEST PUSH2 0x3931 DUP6 DUP3 DUP7 ADD PUSH2 0x33E5 JUMP JUMPDEST SWAP2 POP POP SWAP3 POP SWAP3 SWAP1 POP JUMP JUMPDEST PUSH2 0x3944 DUP2 PUSH2 0x36E5 JUMP JUMPDEST DUP3 MSTORE POP POP JUMP JUMPDEST PUSH0 PUSH1 0x20 DUP3 ADD SWAP1 POP PUSH2 0x395D PUSH0 DUP4 ADD DUP5 PUSH2 0x393B JUMP JUMPDEST SWAP3 SWAP2 POP POP JUMP JUMPDEST PUSH0 PUSH1 0x20 DUP3 DUP5 SUB SLT ISZERO PUSH2 0x3978 JUMPI PUSH2 0x3977 PUSH2 0x32CE JUMP JUMPDEST JUMPDEST PUSH0 PUSH2 0x3985 DUP5 DUP3 DUP6 ADD PUSH2 0x3658 JUMP JUMPDEST SWAP2 POP POP SWAP3 SWAP2 POP POP JUMP JUMPDEST PUSH2 0x3997 DUP2 PUSH2 0x34D9 JUMP JUMPDEST DUP2 EQ PUSH2 0x39A1 JUMPI PUSH0 PUSH0 REVERT JUMPDEST POP JUMP JUMPDEST PUSH0 DUP2 CALLDATALOAD SWAP1 POP PUSH2 0x39B2 DUP2 PUSH2 0x398E JUMP JUMPDEST SWAP3 SWAP2 POP POP JUMP JUMPDEST PUSH0 PUSH0 PUSH1 0x40 DUP4 DUP6 SUB SLT ISZERO PUSH2 0x39CE JUMPI PUSH2 0x39CD PUSH2 0x32CE JUMP JUMPDEST JUMPDEST PUSH0 PUSH2 0x39DB DUP6 DUP3 DUP7 ADD PUSH2 0x3658 JUMP JUMPDEST SWAP3 POP POP PUSH1 0x20 PUSH2 0x39EC DUP6 DUP3 DUP7 ADD PUSH2 0x39A4 JUMP JUMPDEST SWAP2 POP POP SWAP3 POP SWAP3 SWAP1 POP JUMP JUMPDEST PUSH0 PUSH1 0x80 DUP3 ADD SWAP1 POP DUP2 DUP2 SUB PUSH0 DUP4 ADD MSTORE PUSH2 0x3A0E DUP2 DUP8 PUSH2 0x3534 JUMP JUMPDEST SWAP1 POP DUP2 DUP2 SUB PUSH1 0x20 DUP4 ADD MSTORE PUSH2 0x3A22 DUP2 DUP7 PUSH2 0x3534 JUMP JUMPDEST SWAP1 POP PUSH2 0x3A31 PUSH1 0x40 DUP4 ADD DUP6 PUSH2 0x38B9 JUMP JUMPDEST PUSH2 0x3A3E PUSH1 0x60 DUP4 ADD DUP5 PUSH2 0x38B9 JUMP JUMPDEST SWAP6 SWAP5 POP POP POP POP POP JUMP JUMPDEST PUSH0 PUSH0 PUSH0 PUSH0 PUSH1 0x80 DUP6 DUP8 SUB SLT ISZERO PUSH2 0x3A5F JUMPI PUSH2 0x3A5E PUSH2 0x32CE JUMP JUMPDEST JUMPDEST PUSH0 PUSH2 0x3A6C DUP8 DUP3 DUP9 ADD PUSH2 0x3658 JUMP JUMPDEST SWAP5 POP POP PUSH1 0x20 PUSH2 0x3A7D DUP8 DUP3 DUP9 ADD PUSH2 0x3658 JUMP JUMPDEST SWAP4 POP POP PUSH1 0x40 PUSH2 0x3A8E DUP8 DUP3 DUP9 ADD PUSH2 0x35AB JUMP JUMPDEST SWAP3 POP POP PUSH1 0x60 DUP6 ADD CALLDATALOAD PUSH8 0xFFFFFFFFFFFFFFFF DUP2 GT ISZERO PUSH2 0x3AAF JUMPI PUSH2 0x3AAE PUSH2 0x32D2 JUMP JUMPDEST JUMPDEST PUSH2 0x3ABB DUP8 DUP3 DUP9 ADD PUSH2 0x3789 JUMP JUMPDEST SWAP2 POP POP SWAP3 SWAP6 SWAP2 SWAP5 POP SWAP3 POP JUMP JUMPDEST PUSH0 PUSH0 PUSH0 PUSH0 PUSH0 PUSH1 0xA0 DUP7 DUP9 SUB SLT ISZERO PUSH2 0x3AE0 JUMPI PUSH2 0x3ADF PUSH2 0x32CE JUMP JUMPDEST JUMPDEST PUSH0 PUSH2 0x3AED DUP9 DUP3 DUP10 ADD PUSH2 0x3658 JUMP JUMPDEST SWAP6 POP POP PUSH1 0x20 DUP7 ADD CALLDATALOAD PUSH8 0xFFFFFFFFFFFFFFFF DUP2 GT ISZERO PUSH2 0x3B0E JUMPI PUSH2 0x3B0D PUSH2 0x32D2 JUMP JUMPDEST JUMPDEST PUSH2 0x3B1A DUP9 DUP3 DUP10 ADD PUSH2 0x33E5 JUMP JUMPDEST SWAP5 POP POP PUSH1 0x40 DUP7 ADD CALLDATALOAD PUSH8 0xFFFFFFFFFFFFFFFF DUP2 GT ISZERO PUSH2 0x3B3B JUMPI PUSH2 0x3B3A PUSH2 0x32D2 JUMP JUMPDEST JUMPDEST PUSH2 0x3B47 DUP9 DUP3 DUP10 ADD PUSH2 0x33E5 JUMP JUMPDEST SWAP4 POP POP PUSH1 0x60 PUSH2 0x3B58 DUP9 DUP3 DUP10 ADD PUSH2 0x35AB JUMP JUMPDEST SWAP3 POP POP PUSH1 0x80 PUSH2 0x3B69 DUP9 DUP3 DUP10 ADD PUSH2 0x35AB JUMP JUMPDEST SWAP2 POP POP SWAP3 SWAP6 POP SWAP3 SWAP6 SWAP1 SWAP4 POP JUMP JUMPDEST PUSH0 PUSH0 PUSH1 0x40 DUP4 DUP6 SUB SLT ISZERO PUSH2 0x3B8C JUMPI PUSH2 0x3B8B PUSH2 0x32CE JUMP JUMPDEST JUMPDEST PUSH0 PUSH2 0x3B99 DUP6 DUP3 DUP7 ADD PUSH2 0x3658 JUMP JUMPDEST SWAP3 POP POP PUSH1 0x20 PUSH2 0x3BAA DUP6 DUP3 DUP7 ADD PUSH2 0x3658 JUMP JUMPDEST SWAP2 POP POP SWAP3 POP SWAP3 SWAP1 POP JUMP JUMPDEST PUSH32 0x4E487B7100000000000000000000000000000000000000000000000000000000 PUSH0 MSTORE PUSH1 0x22 PUSH1 0x4 MSTORE PUSH1 0x24 PUSH0 REVERT JUMPDEST PUSH0 PUSH1 0x2 DUP3 DIV SWAP1 POP PUSH1 0x1 DUP3 AND DUP1 PUSH2 0x3BF8 JUMPI PUSH1 0x7F DUP3 AND SWAP2 POP JUMPDEST PUSH1 0x20 DUP3 LT DUP2 SUB PUSH2 0x3C0B JUMPI PUSH2 0x3C0A PUSH2 0x3BB4 JUMP JUMPDEST JUMPDEST POP SWAP2 SWAP1 POP JUMP JUMPDEST PUSH0 DUP2 SWAP1 POP DUP2 PUSH0 MSTORE PUSH1 0x20 PUSH0 KECCAK256 SWAP1 POP SWAP2 SWAP1 POP JUMP JUMPDEST PUSH0 PUSH1 0x20 PUSH1 0x1F DUP4 ADD DIV SWAP1 POP SWAP2 SWAP1 POP JUMP JUMPDEST PUSH0 DUP3 DUP3 SHL SWAP1 POP SWAP3 SWAP2 POP POP JUMP JUMPDEST PUSH0 PUSH1 0x8 DUP4 MUL PUSH2 0x3C6D PUSH32 0xFFFFFFFFFFFFFFFFFFFFFFFFFFFFFFFFFFFFFFFFFFFFFFFFFFFFFFFFFFFFFFFF DUP3 PUSH2 0x3C32 JUMP JUMPDEST PUSH2 0x3C77 DUP7 DUP4 PUSH2 0x3C32 JUMP JUMPDEST SWAP6 POP DUP1 NOT DUP5 AND SWAP4 POP DUP1 DUP7 AND DUP5 OR SWAP3 POP POP POP SWAP4 SWAP3 POP POP POP JUMP JUMPDEST PUSH0 DUP2 SWAP1 POP SWAP2 SWAP1 POP JUMP JUMPDEST PUSH0 PUSH2 0x3CB2 PUSH2 0x3CAD PUSH2 0x3CA8 DUP5 PUSH2 0x358C JUMP JUMPDEST PUSH2 0x3C8F JUMP JUMPDEST PUSH2 0x358C JUMP JUMPDEST SWAP1 POP SWAP2 SWAP1 POP JUMP JUMPDEST PUSH0 DUP2 SWAP1 POP SWAP2 SWAP1 POP JUMP JUMPDEST PUSH2 0x3CCB DUP4 PUSH2 0x3C98 JUMP JUMPDEST PUSH2 0x3CDF PUSH2 0x3CD7 DUP3 PUSH2 0x3CB9 JUMP JUMPDEST DUP5 DUP5 SLOAD PUSH2 0x3C3E JUMP JUMPDEST DUP3 SSTORE POP POP POP POP JUMP JUMPDEST PUSH0 PUSH0 SWAP1 POP SWAP1 JUMP JUMPDEST PUSH2 0x3CF6 PUSH2 0x3CE7 JUMP JUMPDEST PUSH2 0x3D01 DUP2 DUP5 DUP5 PUSH2 0x3CC2 JUMP JUMPDEST POP POP POP JUMP JUMPDEST PUSH0 JUMPDEST DUP3 DUP2 LT ISZERO PUSH2 0x3D27 JUMPI PUSH2 0x3D1C PUSH0 DUP3 DUP5 ADD PUSH2 0x3CEE JUMP JUMPDEST PUSH1 0x1 DUP2 ADD SWAP1 POP PUSH2 0x3D08 JUMP JUMPDEST POP POP POP JUMP JUMPDEST PUSH1 0x1F DUP3 GT ISZERO PUSH2 0x3D7A JUMPI DUP3 DUP3 GT ISZERO PUSH2 0x3D79 JUMPI PUSH2 0x3D46 DUP2 PUSH2 0x3C11 JUMP JUMPDEST PUSH2 0x3D4F DUP4 PUSH2 0x3C23 JUMP JUMPDEST PUSH2 0x3D58 DUP6 PUSH2 0x3C23 JUMP JUMPDEST PUSH1 0x20 DUP7 LT ISZERO PUSH2 0x3D65 JUMPI PUSH0 SWAP1 POP JUMPDEST DUP1 DUP4 ADD PUSH2 0x3D74 DUP3 DUP5 SUB DUP3 PUSH2 0x3D06 JUMP JUMPDEST POP POP POP POP JUMPDEST JUMPDEST POP POP POP JUMP JUMPDEST PUSH0 DUP3 DUP3 SHR SWAP1 POP SWAP3 SWAP2 POP POP JUMP JUMPDEST PUSH0 PUSH2 0x3D9A PUSH0 NOT DUP5 PUSH1 0x8 MUL PUSH2 0x3D7F JUMP JUMPDEST NOT DUP1 DUP4 AND SWAP2 POP POP SWAP3 SWAP2 POP POP JUMP JUMPDEST PUSH0 PUSH2 0x3DB2 DUP4 DUP4 PUSH2 0x3D8B JUMP JUMPDEST SWAP2 POP DUP3 PUSH1 0x2 MUL DUP3 OR SWAP1 POP SWAP3 SWAP2 POP POP JUMP JUMPDEST PUSH2 0x3DCB DUP3 PUSH2 0x350C JUMP JUMPDEST PUSH8 0xFFFFFFFFFFFFFFFF DUP2 GT ISZERO PUSH2 0x3DE4 JUMPI PUSH2 0x3DE3 PUSH2 0x32EE JUMP JUMPDEST JUMPDEST PUSH2 0x3DEE DUP3 SLOAD PUSH2 0x3BE1 JUMP JUMPDEST PUSH2 0x3DF9 DUP3 DUP3 DUP6 PUSH2 0x3D2C JUMP JUMPDEST PUSH0 PUSH1 0x20 SWAP1 POP PUSH1 0x1F DUP4 GT PUSH1 0x1 DUP2 EQ PUSH2 0x3E2A JUMPI PUSH0 DUP5 ISZERO PUSH2 0x3E18 JUMPI DUP3 DUP8 ADD MLOAD SWAP1 POP JUMPDEST PUSH2 0x3E22 DUP6 DUP3 PUSH2 0x3DA7 JUMP JUMPDEST DUP7 SSTORE POP PUSH2 0x3E89 JUMP JUMPDEST PUSH1 0x1F NOT DUP5 AND PUSH2 0x3E38 DUP7 PUSH2 0x3C11 JUMP JUMPDEST PUSH0 JUMPDEST DUP3 DUP2 LT ISZERO PUSH2 0x3E5F JUMPI DUP5 DUP10 ADD MLOAD DUP3 SSTORE PUSH1 0x1 DUP3 ADD SWAP2 POP PUSH1 0x20 DUP6 ADD SWAP5 POP PUSH1 0x20 DUP2 ADD SWAP1 POP PUSH2 0x3E3A JUMP JUMPDEST DUP7 DUP4 LT ISZERO PUSH2 0x3E7C JUMPI DUP5 DUP10 ADD MLOAD PUSH2 0x3E78 PUSH1 0x1F DUP10 AND DUP3 PUSH2 0x3D8B JUMP JUMPDEST DUP4 SSTORE POP JUMPDEST PUSH1 0x1 PUSH1 0x2 DUP9 MUL ADD DUP9 SSTORE POP POP POP JUMPDEST POP POP POP POP POP POP JUMP JUMPDEST PUSH0 PUSH1 0x60 DUP3 ADD SWAP1 POP PUSH2 0x3EA4 PUSH0 DUP4 ADD DUP7 PUSH2 0x361A JUMP JUMPDEST PUSH2 0x3EB1 PUSH1 0x20 DUP4 ADD DUP6 PUSH2 0x38B9 JUMP JUMPDEST PUSH2 0x3EBE PUSH1 0x40 DUP4 ADD DUP5 PUSH2 0x361A JUMP JUMPDEST SWAP5 SWAP4 POP POP POP POP JUMP JUMPDEST PUSH0 DUP2 SWAP1 POP SWAP3 SWAP2 POP POP JUMP JUMPDEST PUSH32 0x3C67207472616E73666F726D3D227472616E736C617465283138302C20313030 PUSH0 DUP3 ADD MSTORE PUSH32 0x29222073686170652D72656E646572696E673D2263726973704564676573223E PUSH1 0x20 DUP3 ADD MSTORE POP JUMP JUMPDEST PUSH0 PUSH2 0x3F2A PUSH1 0x40 DUP4 PUSH2 0x3EC6 JUMP JUMPDEST SWAP2 POP PUSH2 0x3F35 DUP3 PUSH2 0x3ED0 JUMP JUMPDEST PUSH1 0x40 DUP3 ADD SWAP1 POP SWAP2 SWAP1 POP JUMP JUMPDEST PUSH32 0x3C7465787420783D222D33302220793D223230222066696C6C3D222333343938 PUSH0 DUP3 ADD MSTORE PUSH32 0x64622220666F6E742D73697A653D223134223E504C41594552204E414D453A3C PUSH1 0x20 DUP3 ADD MSTORE PUSH32 0x2F746578743E0000000000000000000000000000000000000000000000000000 PUSH1 0x40 DUP3 ADD MSTORE POP JUMP JUMPDEST PUSH0 PUSH2 0x3FC0 PUSH1 0x46 DUP4 PUSH2 0x3EC6 JUMP JUMPDEST SWAP2 POP PUSH2 0x3FCB DUP3 PUSH2 0x3F40 JUMP JUMPDEST PUSH1 0x46 DUP3 ADD SWAP1 POP SWAP2 SWAP1 POP JUMP JUMPDEST PUSH32 0x3C7465787420783D222D33302220793D223530222066696C6C3D222365636630 PUSH0 DUP3 ADD MSTORE PUSH32 0x66312220666F6E742D73697A653D2232342220666F6E742D7765696768743D22 PUSH1 0x20 DUP3 ADD MSTORE PUSH32 0x626F6C64223E0000000000000000000000000000000000000000000000000000 PUSH1 0x40 DUP3 ADD MSTORE POP JUMP JUMPDEST PUSH0 PUSH2 0x4056 PUSH1 0x46 DUP4 PUSH2 0x3EC6 JUMP JUMPDEST SWAP2 POP PUSH2 0x4061 DUP3 PUSH2 0x3FD6 JUMP JUMPDEST PUSH1 0x46 DUP3 ADD SWAP1 POP SWAP2 SWAP1 POP JUMP JUMPDEST PUSH0 PUSH2 0x4076 DUP3 PUSH2 0x350C JUMP JUMPDEST PUSH2 0x4080 DUP2 DUP6 PUSH2 0x3EC6 JUMP JUMPDEST SWAP4 POP PUSH2 0x4090 DUP2 DUP6 PUSH1 0x20 DUP7 ADD PUSH2 0x3526 JUMP JUMPDEST DUP1 DUP5 ADD SWAP2 POP POP SWAP3 SWAP2 POP POP JUMP JUMPDEST PUSH32 0x3C2F746578743E00000000000000000000000000000000000000000000000000 DUP2 MSTORE POP JUMP JUMPDEST PUSH32 0x3C6C696E652078313D222D3235222079313D223735222078323D223132302220 PUSH0 DUP3 ADD MSTORE PUSH32 0x79323D22373522207374726F6B653D222335353522207374726F6B652D776964 PUSH1 0x20 DUP3 ADD MSTORE PUSH32 0x74683D223422207374726F6B652D6461736861727261793D22382C36222F3E00 PUSH1 0x40 DUP3 ADD MSTORE POP JUMP JUMPDEST PUSH0 PUSH2 0x4142 PUSH1 0x5F DUP4 PUSH2 0x3EC6 JUMP JUMPDEST SWAP2 POP PUSH2 0x414D DUP3 PUSH2 0x40C2 JUMP JUMPDEST PUSH1 0x5F DUP3 ADD SWAP1 POP SWAP2 SWAP1 POP JUMP JUMPDEST PUSH32 0x3C7465787420783D222D33302220793D22313135222066696C6C3D2223653734 PUSH0 DUP3 ADD MSTORE PUSH32 0x6333632220666F6E742D73697A653D223134223E4C414E453A3C2F746578743E PUSH1 0x20 DUP3 ADD MSTORE POP JUMP JUMPDEST PUSH0 PUSH2 0x41B2 PUSH1 0x40 DUP4 PUSH2 0x3EC6 JUMP JUMPDEST SWAP2 POP PUSH2 0x41BD DUP3 PUSH2 0x4158 JUMP JUMPDEST PUSH1 0x40 DUP3 ADD SWAP1 POP SWAP2 SWAP1 POP JUMP JUMPDEST PUSH32 0x3C7465787420783D223132302220793D22313135222066696C6C3D2223656366 PUSH0 DUP3 ADD MSTORE PUSH32 0x3066312220666F6E742D73697A653D2231342220746578742D616E63686F723D PUSH1 0x20 DUP3 ADD MSTORE PUSH32 0x22656E64223E0000000000000000000000000000000000000000000000000000 PUSH1 0x40 DUP3 ADD MSTORE POP JUMP JUMPDEST PUSH0 PUSH2 0x4248 PUSH1 0x46 DUP4 PUSH2 0x3EC6 JUMP JUMPDEST SWAP2 POP PUSH2 0x4253 DUP3 PUSH2 0x41C8 JUMP JUMPDEST PUSH1 0x46 DUP3 ADD SWAP1 POP SWAP2 SWAP1 POP JUMP JUMPDEST PUSH32 0x3C7465787420783D222D33302220793D22313535222066696C6C3D2223393561 PUSH0 DUP3 ADD MSTORE PUSH32 0x3561362220666F6E742D73697A653D223134223E47414D453A3C2F746578743E PUSH1 0x20 DUP3 ADD MSTORE POP JUMP JUMPDEST PUSH0 PUSH2 0x42B8 PUSH1 0x40 DUP4 PUSH2 0x3EC6 JUMP JUMPDEST SWAP2 POP PUSH2 0x42C3 DUP3 PUSH2 0x425E JUMP JUMPDEST PUSH1 0x40 DUP3 ADD SWAP1 POP SWAP2 SWAP1 POP JUMP JUMPDEST PUSH32 0x3C7465787420783D223132302220793D22313535222066696C6C3D2223656366 PUSH0 DUP3 ADD MSTORE PUSH32 0x3066312220666F6E742D73697A653D2231342220746578742D616E63686F723D PUSH1 0x20 DUP3 ADD MSTORE PUSH32 0x22656E64223E0000000000000000000000000000000000000000000000000000 PUSH1 0x40 DUP3 ADD MSTORE POP JUMP JUMPDEST PUSH0 PUSH2 0x434E PUSH1 0x46 DUP4 PUSH2 0x3EC6 JUMP JUMPDEST SWAP2 POP PUSH2 0x4359 DUP3 PUSH2 0x42CE JUMP JUMPDEST PUSH1 0x46 DUP3 ADD SWAP1 POP SWAP2 SWAP1 POP JUMP JUMPDEST PUSH32 0x3C7465787420783D222D33302220793D22313935222066696C6C3D2223326563 PUSH0 DUP3 ADD MSTORE PUSH32 0x6337312220666F6E742D73697A653D223134223E4B44413A3C2F746578743E00 PUSH1 0x20 DUP3 ADD MSTORE POP JUMP JUMPDEST PUSH0 PUSH2 0x43BE PUSH1 0x3F DUP4 PUSH2 0x3EC6 JUMP JUMPDEST SWAP2 POP PUSH2 0x43C9 DUP3 PUSH2 0x4364 JUMP JUMPDEST PUSH1 0x3F DUP3 ADD SWAP1 POP SWAP2 SWAP1 POP JUMP JUMPDEST PUSH32 0x3C7465787420783D223132302220793D22313935222066696C6C3D2223656366 PUSH0 DUP3 ADD MSTORE PUSH32 0x3066312220666F6E742D73697A653D2231342220746578742D616E63686F723D PUSH1 0x20 DUP3 ADD MSTORE PUSH32 0x22656E64223E0000000000000000000000000000000000000000000000000000 PUSH1 0x40 DUP3 ADD MSTORE POP JUMP JUMPDEST PUSH0 PUSH2 0x4454 PUSH1 0x46 DUP4 PUSH2 0x3EC6 JUMP JUMPDEST SWAP2 POP PUSH2 0x445F DUP3 PUSH2 0x43D4 JUMP JUMPDEST PUSH1 0x46 DUP3 ADD SWAP1 POP SWAP2 SWAP1 POP JUMP JUMPDEST PUSH32 0x3C6C696E652078313D222D3330222079313D22323235222078323D2231323022 PUSH0 DUP3 ADD MSTORE PUSH32 0x2079323D2232323522207374726F6B653D222335353522207374726F6B652D77 PUSH1 0x20 DUP3 ADD MSTORE PUSH32 0x696474683D223422207374726F6B652D6461736861727261793D22382C36222F PUSH1 0x40 DUP3 ADD MSTORE PUSH32 0x3E3C2F673E3C2F7376673E000000000000000000000000000000000000000000 PUSH1 0x60 DUP3 ADD MSTORE POP JUMP JUMPDEST PUSH0 PUSH2 0x4510 PUSH1 0x6B DUP4 PUSH2 0x3EC6 JUMP JUMPDEST SWAP2 POP PUSH2 0x451B DUP3 PUSH2 0x446A JUMP JUMPDEST PUSH1 0x6B DUP3 ADD SWAP1 POP SWAP2 SWAP1 POP JUMP JUMPDEST PUSH0 PUSH2 0x4530 DUP3 PUSH2 0x3F1E JUMP JUMPDEST SWAP2 POP PUSH2 0x453B DUP3 PUSH2 0x3FB4 JUMP JUMPDEST SWAP2 POP PUSH2 0x4546 DUP3 PUSH2 0x404A JUMP JUMPDEST SWAP2 POP PUSH2 0x4552 DUP3 DUP8 PUSH2 0x406C JUMP JUMPDEST SWAP2 POP PUSH2 0x455D DUP3 PUSH2 0x409C JUMP JUMPDEST PUSH1 0x7 DUP3 ADD SWAP2 POP PUSH2 0x456C DUP3 PUSH2 0x4136 JUMP JUMPDEST SWAP2 POP PUSH2 0x4577 DUP3 PUSH2 0x41A6 JUMP JUMPDEST SWAP2 POP PUSH2 0x4582 DUP3 PUSH2 0x423C JUMP JUMPDEST SWAP2 POP PUSH2 0x458E DUP3 DUP7 PUSH2 0x406C JUMP JUMPDEST SWAP2 POP PUSH2 0x4599 DUP3 PUSH2 0x409C JUMP JUMPDEST PUSH1 0x7 DUP3 ADD SWAP2 POP PUSH2 0x45A8 DUP3 PUSH2 0x42AC JUMP JUMPDEST SWAP2 POP PUSH2 0x45B3 DUP3 PUSH2 0x4342 JUMP JUMPDEST SWAP2 POP PUSH2 0x45BF DUP3 DUP6 PUSH2 0x406C JUMP JUMPDEST SWAP2 POP PUSH2 0x45CA DUP3 PUSH2 0x409C JUMP JUMPDEST PUSH1 0x7 DUP3 ADD SWAP2 POP PUSH2 0x45D9 DUP3 PUSH2 0x43B2 JUMP JUMPDEST SWAP2 POP PUSH2 0x45E4 DUP3 PUSH2 0x4448 JUMP JUMPDEST SWAP2 POP PUSH2 0x45F0 DUP3 DUP5 PUSH2 0x406C JUMP JUMPDEST SWAP2 POP PUSH2 0x45FB DUP3 PUSH2 0x409C JUMP JUMPDEST PUSH1 0x7 DUP3 ADD SWAP2 POP PUSH2 0x460A DUP3 PUSH2 0x4504 JUMP JUMPDEST SWAP2 POP DUP2 SWAP1 POP SWAP6 SWAP5 POP POP POP POP POP JUMP JUMPDEST PUSH0 PUSH2 0x4623 DUP3 DUP7 PUSH2 0x406C JUMP JUMPDEST SWAP2 POP PUSH2 0x462F DUP3 DUP6 PUSH2 0x406C JUMP JUMPDEST SWAP2 POP PUSH2 0x463B DUP3 DUP5 PUSH2 0x406C JUMP JUMPDEST SWAP2 POP DUP2 SWAP1 POP SWAP5 SWAP4 POP POP POP POP JUMP JUMPDEST PUSH32 0x4E487B7100000000000000000000000000000000000000000000000000000000 PUSH0 MSTORE PUSH1 0x32 PUSH1 0x4 MSTORE PUSH1 0x24 PUSH0 REVERT JUMPDEST PUSH32 0x4E487B7100000000000000000000000000000000000000000000000000000000 PUSH0 MSTORE PUSH1 0x12 PUSH1 0x4 MSTORE PUSH1 0x24 PUSH0 REVERT JUMPDEST PUSH32 0x4E487B7100000000000000000000000000000000000000000000000000000000 PUSH0 MSTORE PUSH1 0x11 PUSH1 0x4 MSTORE PUSH1 0x24 PUSH0 REVERT JUMPDEST PUSH0 PUSH2 0x46D9 DUP3 PUSH2 0x358C JUMP JUMPDEST SWAP2 POP PUSH2 0x46E4 DUP4 PUSH2 0x358C JUMP JUMPDEST SWAP3 POP DUP3 PUSH2 0x46F4 JUMPI PUSH2 0x46F3 PUSH2 0x4675 JUMP JUMPDEST JUMPDEST DUP3 DUP3 DIV SWAP1 POP SWAP3 SWAP2 POP POP JUMP JUMPDEST PUSH0 PUSH2 0x4709 DUP3 PUSH2 0x358C JUMP JUMPDEST SWAP2 POP PUSH2 0x4714 DUP4 PUSH2 0x358C JUMP JUMPDEST SWAP3 POP DUP3 PUSH2 0x4724 JUMPI PUSH2 0x4723 PUSH2 0x4675 JUMP JUMPDEST JUMPDEST DUP3 DUP3 MOD SWAP1 POP SWAP3 SWAP2 POP POP JUMP JUMPDEST PUSH32 0x3000000000000000000000000000000000000000000000000000000000000000 DUP2 MSTORE POP JUMP JUMPDEST PUSH0 PUSH2 0x475F DUP3 PUSH2 0x472F JUMP JUMPDEST PUSH1 0x1 DUP3 ADD SWAP2 POP PUSH2 0x476F DUP3 DUP5 PUSH2 0x406C JUMP JUMPDEST SWAP2 POP DUP2 SWAP1 POP SWAP3 SWAP2 POP POP JUMP JUMPDEST PUSH32 0x2E00000000000000000000000000000000000000000000000000000000000000 DUP2 MSTORE POP JUMP JUMPDEST PUSH0 PUSH2 0x47AB DUP3 DUP6 PUSH2 0x406C JUMP JUMPDEST SWAP2 POP PUSH2 0x47B6 DUP3 PUSH2 0x477A JUMP JUMPDEST PUSH1 0x1 DUP3 ADD SWAP2 POP PUSH2 0x47C6 DUP3 DUP5 PUSH2 0x406C JUMP JUMPDEST SWAP2 POP DUP2 SWAP1 POP SWAP4 SWAP3 POP POP POP JUMP JUMPDEST PUSH0 PUSH2 0x47DC DUP3 PUSH2 0x358C JUMP JUMPDEST SWAP2 POP PUSH32 0xFFFFFFFFFFFFFFFFFFFFFFFFFFFFFFFFFFFFFFFFFFFFFFFFFFFFFFFFFFFFFFFF DUP3 SUB PUSH2 0x480E JUMPI PUSH2 0x480D PUSH2 0x46A2 JUMP JUMPDEST JUMPDEST PUSH1 0x1 DUP3 ADD SWAP1 POP SWAP2 SWAP1 POP JUMP JUMPDEST PUSH32 0x4E6F6E6578697374656E7420746F6B656E000000000000000000000000000000 PUSH0 DUP3 ADD MSTORE POP JUMP JUMPDEST PUSH0 PUSH2 0x484D PUSH1 0x11 DUP4 PUSH2 0x3516 JUMP JUMPDEST SWAP2 POP PUSH2 0x4858 DUP3 PUSH2 0x4819 JUMP JUMPDEST PUSH1 0x20 DUP3 ADD SWAP1 POP SWAP2 SWAP1 POP JUMP JUMPDEST PUSH0 PUSH1 0x20 DUP3 ADD SWAP1 POP DUP2 DUP2 SUB PUSH0 DUP4 ADD MSTORE PUSH2 0x487A DUP2 PUSH2 0x4841 JUMP JUMPDEST SWAP1 POP SWAP2 SWAP1 POP JUMP JUMPDEST PUSH32 0x7B226E616D65223A20224D504C20436172642023000000000000000000000000 DUP2 MSTORE POP JUMP JUMPDEST PUSH32 0x222C200000000000000000000000000000000000000000000000000000000000 DUP2 MSTORE POP JUMP JUMPDEST PUSH32 0x226465736372697074696F6E223A202244796E616D696320506C617965722043 PUSH0 DUP3 ADD MSTORE PUSH32 0x61726420666F7220000000000000000000000000000000000000000000000000 PUSH1 0x20 DUP3 ADD MSTORE POP JUMP JUMPDEST PUSH0 PUSH2 0x4927 PUSH1 0x28 DUP4 PUSH2 0x3EC6 JUMP JUMPDEST SWAP2 POP PUSH2 0x4932 DUP3 PUSH2 0x48CD JUMP JUMPDEST PUSH1 0x28 DUP3 ADD SWAP1 POP SWAP2 SWAP1 POP JUMP JUMPDEST PUSH32 0x22696D616765223A2022646174613A696D6167652F7376672B786D6C3B626173 PUSH0 DUP3 ADD MSTORE PUSH32 0x6536342C00000000000000000000000000000000000000000000000000000000 PUSH1 0x20 DUP3 ADD MSTORE POP JUMP JUMPDEST PUSH0 PUSH2 0x4997 PUSH1 0x24 DUP4 PUSH2 0x3EC6 JUMP JUMPDEST SWAP2 POP PUSH2 0x49A2 DUP3 PUSH2 0x493D JUMP JUMPDEST PUSH1 0x24 DUP3 ADD SWAP1 POP SWAP2 SWAP1 POP JUMP JUMPDEST PUSH32 0x2261747472696275746573223A205B7B2274726169745F74797065223A20224C PUSH0 DUP3 ADD MSTORE PUSH32 0x616E65222C202276616C7565223A202200000000000000000000000000000000 PUSH1 0x20 DUP3 ADD MSTORE POP JUMP JUMPDEST PUSH0 PUSH2 0x4A07 PUSH1 0x30 DUP4 PUSH2 0x3EC6 JUMP JUMPDEST SWAP2 POP PUSH2 0x4A12 DUP3 PUSH2 0x49AD JUMP JUMPDEST PUSH1 0x30 DUP3 ADD SWAP1 POP SWAP2 SWAP1 POP JUMP JUMPDEST PUSH32 0x227D2C2000000000000000000000000000000000000000000000000000000000 DUP2 MSTORE POP JUMP JUMPDEST PUSH32 0x7B2274726169745F74797065223A20224B4441222C202276616C7565223A2022 DUP2 MSTORE POP JUMP JUMPDEST PUSH32 0x227D5D7D00000000000000000000000000000000000000000000000000000000 DUP2 MSTORE POP JUMP JUMPDEST PUSH0 PUSH2 0x4A99 DUP3 PUSH2 0x4881 JUMP JUMPDEST PUSH1 0x14 DUP3 ADD SWAP2 POP PUSH2 0x4AA9 DUP3 DUP9 PUSH2 0x406C JUMP JUMPDEST SWAP2 POP PUSH2 0x4AB4 DUP3 PUSH2 0x48A7 JUMP JUMPDEST PUSH1 0x3 DUP3 ADD SWAP2 POP PUSH2 0x4AC3 DUP3 PUSH2 0x491B JUMP JUMPDEST SWAP2 POP PUSH2 0x4ACF DUP3 DUP8 PUSH2 0x406C JUMP JUMPDEST SWAP2 POP PUSH2 0x4ADA DUP3 PUSH2 0x48A7 JUMP JUMPDEST PUSH1 0x3 DUP3 ADD SWAP2 POP PUSH2 0x4AE9 DUP3 PUSH2 0x498B JUMP JUMPDEST SWAP2 POP PUSH2 0x4AF5 DUP3 DUP7 PUSH2 0x406C JUMP JUMPDEST SWAP2 POP PUSH2 0x4B00 DUP3 PUSH2 0x48A7 JUMP JUMPDEST PUSH1 0x3 DUP3 ADD SWAP2 POP PUSH2 0x4B0F DUP3 PUSH2 0x49FB JUMP JUMPDEST SWAP2 POP PUSH2 0x4B1B DUP3 DUP6 PUSH2 0x406C JUMP JUMPDEST SWAP2 POP PUSH2 0x4B26 DUP3 PUSH2 0x4A1D JUMP JUMPDEST PUSH1 0x4 DUP3 ADD SWAP2 POP PUSH2 0x4B35 DUP3 PUSH2 0x4A43 JUMP JUMPDEST PUSH1 0x20 DUP3 ADD SWAP2 POP PUSH2 0x4B45 DUP3 DUP5 PUSH2 0x406C JUMP JUMPDEST SWAP2 POP PUSH2 0x4B50 DUP3 PUSH2 0x4A69 JUMP JUMPDEST PUSH1 0x4 DUP3 ADD SWAP2 POP DUP2 SWAP1 POP SWAP7 SWAP6 POP POP POP POP POP POP JUMP JUMPDEST PUSH32 0x646174613A6170706C69636174696F6E2F6A736F6E3B6261736536342C000000 DUP2 MSTORE POP JUMP JUMPDEST PUSH0 PUSH2 0x4B93 DUP3 PUSH2 0x4B63 JUMP JUMPDEST PUSH1 0x1D DUP3 ADD SWAP2 POP PUSH2 0x4BA3 DUP3 DUP5 PUSH2 0x406C JUMP JUMPDEST SWAP2 POP DUP2 SWAP1 POP SWAP3 SWAP2 POP POP JUMP JUMPDEST PUSH32 0x4F7261636C65204572726F720000000000000000000000000000000000000000 PUSH0 DUP3 ADD MSTORE POP JUMP JUMPDEST PUSH0 PUSH2 0x4BE2 PUSH1 0xC DUP4 PUSH2 0x3516 JUMP JUMPDEST SWAP2 POP PUSH2 0x4BED DUP3 PUSH2 0x4BAE JUMP JUMPDEST PUSH1 0x20 DUP3 ADD SWAP1 POP SWAP2 SWAP1 POP JUMP JUMPDEST PUSH0 PUSH1 0x20 DUP3 ADD SWAP1 POP DUP2 DUP2 SUB PUSH0 DUP4 ADD MSTORE PUSH2 0x4C0F DUP2 PUSH2 0x4BD6 JUMP JUMPDEST SWAP1 POP SWAP2 SWAP1 POP JUMP JUMPDEST PUSH0 DUP2 MLOAD SWAP1 POP PUSH2 0x4C24 DUP2 PUSH2 0x3595 JUMP JUMPDEST SWAP3 SWAP2 POP POP JUMP JUMPDEST PUSH0 PUSH1 0x20 DUP3 DUP5 SUB SLT ISZERO PUSH2 0x4C3F JUMPI PUSH2 0x4C3E PUSH2 0x32CE JUMP JUMPDEST JUMPDEST PUSH0 PUSH2 0x4C4C DUP5 DUP3 DUP6 ADD PUSH2 0x4C16 JUMP JUMPDEST SWAP2 POP POP SWAP3 SWAP2 POP POP JUMP JUMPDEST PUSH0 PUSH1 0x40 DUP3 ADD SWAP1 POP PUSH2 0x4C68 PUSH0 DUP4 ADD DUP6 PUSH2 0x38B9 JUMP JUMPDEST PUSH2 0x4C75 PUSH1 0x20 DUP4 ADD DUP5 PUSH2 0x38B9 JUMP JUMPDEST SWAP4 SWAP3 POP POP POP JUMP JUMPDEST PUSH32 0x4E487B7100000000000000000000000000000000000000000000000000000000 PUSH0 MSTORE PUSH1 0x21 PUSH1 0x4 MSTORE PUSH1 0x24 PUSH0 REVERT JUMPDEST PUSH0 DUP2 MLOAD SWAP1 POP SWAP2 SWAP1 POP JUMP JUMPDEST PUSH0 DUP3 DUP3 MSTORE PUSH1 0x20 DUP3 ADD SWAP1 POP SWAP3 SWAP2 POP POP JUMP JUMPDEST PUSH0 PUSH2 0x4CCD DUP3 PUSH2 0x4CA9 JUMP JUMPDEST PUSH2 0x4CD7 DUP2 DUP6 PUSH2 0x4CB3 JUMP JUMPDEST SWAP4 POP PUSH2 0x4CE7 DUP2 DUP6 PUSH1 0x20 DUP7 ADD PUSH2 0x3526 JUMP JUMPDEST PUSH2 0x4CF0 DUP2 PUSH2 0x32DE JUMP JUMPDEST DUP5 ADD SWAP2 POP POP SWAP3 SWAP2 POP POP JUMP JUMPDEST PUSH0 PUSH2 0xFFFF DUP3 AND SWAP1 POP SWAP2 SWAP1 POP JUMP JUMPDEST PUSH2 0x4D11 DUP2 PUSH2 0x4CFB JUMP JUMPDEST DUP3 MSTORE POP POP JUMP JUMPDEST PUSH0 PUSH4 0xFFFFFFFF DUP3 AND SWAP1 POP SWAP2 SWAP1 POP JUMP JUMPDEST PUSH2 0x4D2F DUP2 PUSH2 0x4D17 JUMP JUMPDEST DUP3 MSTORE POP POP JUMP JUMPDEST PUSH0 PUSH1 0xA0 DUP3 ADD SWAP1 POP PUSH2 0x4D48 PUSH0 DUP4 ADD DUP9 PUSH2 0x36BD JUMP JUMPDEST DUP2 DUP2 SUB PUSH1 0x20 DUP4 ADD MSTORE PUSH2 0x4D5A DUP2 DUP8 PUSH2 0x4CC3 JUMP JUMPDEST SWAP1 POP PUSH2 0x4D69 PUSH1 0x40 DUP4 ADD DUP7 PUSH2 0x4D08 JUMP JUMPDEST PUSH2 0x4D76 PUSH1 0x60 DUP4 ADD DUP6 PUSH2 0x4D26 JUMP JUMPDEST PUSH2 0x4D83 PUSH1 0x80 DUP4 ADD DUP5 PUSH2 0x393B JUMP JUMPDEST SWAP7 SWAP6 POP POP POP POP POP POP JUMP JUMPDEST PUSH0 DUP2 MLOAD SWAP1 POP PUSH2 0x4D9B DUP2 PUSH2 0x36EE JUMP JUMPDEST SWAP3 SWAP2 POP POP JUMP JUMPDEST PUSH0 PUSH1 0x20 DUP3 DUP5 SUB SLT ISZERO PUSH2 0x4DB6 JUMPI PUSH2 0x4DB5 PUSH2 0x32CE JUMP JUMPDEST JUMPDEST PUSH0 PUSH2 0x4DC3 DUP5 DUP3 DUP6 ADD PUSH2 0x4D8D JUMP JUMPDEST SWAP2 POP POP SWAP3 SWAP2 POP POP JUMP JUMPDEST PUSH0 PUSH1 0x80 DUP3 ADD SWAP1 POP PUSH2 0x4DDF PUSH0 DUP4 ADD DUP8 PUSH2 0x361A JUMP JUMPDEST PUSH2 0x4DEC PUSH1 0x20 DUP4 ADD DUP7 PUSH2 0x361A JUMP JUMPDEST PUSH2 0x4DF9 PUSH1 0x40 DUP4 ADD DUP6 PUSH2 0x38B9 JUMP JUMPDEST DUP2 DUP2 SUB PUSH1 0x60 DUP4 ADD MSTORE PUSH2 0x4E0B DUP2 DUP5 PUSH2 0x4CC3 JUMP JUMPDEST SWAP1 POP SWAP6 SWAP5 POP POP POP POP POP JUMP JUMPDEST PUSH0 DUP2 MLOAD SWAP1 POP PUSH2 0x4E24 DUP2 PUSH2 0x3484 JUMP JUMPDEST SWAP3 SWAP2 POP POP JUMP JUMPDEST PUSH0 PUSH1 0x20 DUP3 DUP5 SUB SLT ISZERO PUSH2 0x4E3F JUMPI PUSH2 0x4E3E PUSH2 0x32CE JUMP JUMPDEST JUMPDEST PUSH0 PUSH2 0x4E4C DUP5 DUP3 DUP6 ADD PUSH2 0x4E16 JUMP JUMPDEST SWAP2 POP POP SWAP3 SWAP2 POP POP JUMP JUMPDEST PUSH0 PUSH1 0x40 DUP3 ADD SWAP1 POP PUSH2 0x4E68 PUSH0 DUP4 ADD DUP6 PUSH2 0x361A JUMP JUMPDEST PUSH2 0x4E75 PUSH1 0x20 DUP4 ADD DUP5 PUSH2 0x38B9 JUMP JUMPDEST SWAP4 SWAP3 POP POP POP JUMP JUMPDEST PUSH0 PUSH2 0x4E86 DUP3 PUSH2 0x358C JUMP JUMPDEST SWAP2 POP PUSH2 0x4E91 DUP4 PUSH2 0x358C JUMP JUMPDEST SWAP3 POP DUP3 DUP3 ADD SWAP1 POP DUP1 DUP3 GT ISZERO PUSH2 0x4EA9 JUMPI PUSH2 0x4EA8 PUSH2 0x46A2 JUMP JUMPDEST JUMPDEST SWAP3 SWAP2 POP POP JUMP JUMPDEST PUSH0 PUSH2 0x4EB9 DUP3 PUSH2 0x358C JUMP JUMPDEST SWAP2 POP PUSH2 0x4EC4 DUP4 PUSH2 0x358C JUMP JUMPDEST SWAP3 POP DUP3 DUP3 SUB SWAP1 POP DUP2 DUP2 GT ISZERO PUSH2 0x4EDC JUMPI PUSH2 0x4EDB PUSH2 0x46A2 JUMP JUMPDEST JUMPDEST SWAP3 SWAP2 POP POP JUMP JUMPDEST PUSH0 PUSH2 0x4EEC DUP3 PUSH2 0x358C JUMP JUMPDEST SWAP2 POP PUSH2 0x4EF7 DUP4 PUSH2 0x358C JUMP JUMPDEST SWAP3 POP DUP3 DUP3 MUL PUSH2 0x4F05 DUP2 PUSH2 0x358C JUMP JUMPDEST SWAP2 POP DUP3 DUP3 DIV DUP5 EQ DUP4 ISZERO OR PUSH2 0x4F1C JUMPI PUSH2 0x4F1B PUSH2 0x46A2 JUMP JUMPDEST JUMPDEST POP SWAP3 SWAP2 POP POP JUMP JUMPDEST PUSH0 DUP2 PUSH1 0x1 SHR SWAP1 POP SWAP2 SWAP1 POP JUMP JUMPDEST PUSH0 PUSH0 DUP3 SWAP2 POP DUP4 SWAP1 POP JUMPDEST PUSH1 0x1 DUP6 GT ISZERO PUSH2 0x4F78 JUMPI DUP1 DUP7 DIV DUP2 GT ISZERO PUSH2 0x4F54 JUMPI PUSH2 0x4F53 PUSH2 0x46A2 JUMP JUMPDEST JUMPDEST PUSH1 0x1 DUP6 AND ISZERO PUSH2 0x4F63 JUMPI DUP1 DUP3 MUL SWAP2 POP JUMPDEST DUP1 DUP2 MUL SWAP1 POP PUSH2 0x4F71 DUP6 PUSH2 0x4F23 JUMP JUMPDEST SWAP5 POP PUSH2 0x4F38 JUMP JUMPDEST SWAP5 POP SWAP5 SWAP3 POP POP POP JUMP JUMPDEST PUSH0 DUP3 PUSH2 0x4F90 JUMPI PUSH1 0x1 SWAP1 POP PUSH2 0x504B JUMP JUMPDEST DUP2 PUSH2 0x4F9D JUMPI PUSH0 SWAP1 POP PUSH2 0x504B JUMP JUMPDEST DUP2 PUSH1 0x1 DUP2 EQ PUSH2 0x4FB3 JUMPI PUSH1 0x2 DUP2 EQ PUSH2 0x4FBD JUMPI PUSH2 0x4FEC JUMP JUMPDEST PUSH1 0x1 SWAP2 POP POP PUSH2 0x504B JUMP JUMPDEST PUSH1 0xFF DUP5 GT ISZERO PUSH2 0x4FCF JUMPI PUSH2 0x4FCE PUSH2 0x46A2 JUMP JUMPDEST JUMPDEST DUP4 PUSH1 0x2 EXP SWAP2 POP DUP5 DUP3 GT ISZERO PUSH2 0x4FE6 JUMPI PUSH2 0x4FE5 PUSH2 0x46A2 JUMP JUMPDEST JUMPDEST POP PUSH2 0x504B JUMP JUMPDEST POP PUSH1 0x20 DUP4 LT PUSH2 0x133 DUP4 LT AND PUSH1 0x4E DUP5 LT PUSH1 0xB DUP5 LT AND OR ISZERO PUSH2 0x5021 JUMPI DUP3 DUP3 EXP SWAP1 POP DUP4 DUP2 GT ISZERO PUSH2 0x501C JUMPI PUSH2 0x501B PUSH2 0x46A2 JUMP JUMPDEST JUMPDEST PUSH2 0x504B JUMP JUMPDEST PUSH2 0x502E DUP5 DUP5 DUP5 PUSH1 0x1 PUSH2 0x4F2F JUMP JUMPDEST SWAP3 POP SWAP1 POP DUP2 DUP5 DIV DUP2 GT ISZERO PUSH2 0x5045 JUMPI PUSH2 0x5044 PUSH2 0x46A2 JUMP JUMPDEST JUMPDEST DUP2 DUP2 MUL SWAP1 POP JUMPDEST SWAP4 SWAP3 POP POP POP JUMP JUMPDEST PUSH0 PUSH2 0x505C DUP3 PUSH2 0x358C JUMP JUMPDEST SWAP2 POP PUSH2 0x5067 DUP4 PUSH2 0x358C JUMP JUMPDEST SWAP3 POP PUSH2 0x5094 PUSH32 0xFFFFFFFFFFFFFFFFFFFFFFFFFFFFFFFFFFFFFFFFFFFFFFFFFFFFFFFFFFFFFFFF DUP5 DUP5 PUSH2 0x4F81 JUMP JUMPDEST SWAP1 POP SWAP3 SWAP2 POP POP JUMP INVALID EXTCODECOPY PUSH20 0x76672077696474683D2233323022206865696768 PUSH21 0x3D22343030222076696577426F783D223020302033 ORIGIN ADDRESS KECCAK256 CALLVALUE ADDRESS ADDRESS 0x22 KECCAK256 PUSH25 0x6D6C6E733D22687474703A2F2F7777772E77332E6F72672F32 ADDRESS ADDRESS ADDRESS 0x2F PUSH20 0x7667223E3C672073686170652D72656E64657269 PUSH15 0x673D2263726973704564676573223E EXTCODECOPY PUSH19 0x65637420783D22302220793D22302220776964 PUSH21 0x683D2233323022206865696768743D223430302220 PUSH7 0x696C6C3D222365 PUSH4 0x66306631 0x22 0x2F RETURNDATACOPY EXTCODECOPY PUSH19 0x65637420783D22382220793D22382220776964 PUSH21 0x683D2233303422206865696768743D223338342220 PUSH7 0x696C6C3D222330 ORIGIN ORIGIN PUSH7 0x3532222F3E3C74 PUSH6 0x787420783D22 BALANCE CALLDATASIZE ADDRESS 0x22 KECCAK256 PUSH26 0x3D223430222066696C6C3D22236563663066312220666F6E742D PUSH20 0x697A653D2232302220746578742D616E63686F72 RETURNDATASIZE 0x22 PUSH14 0x6964646C652220666F6E742D7765 PUSH10 0x6768743D22626F6C6422 RETURNDATACOPY POP 0x4C COINBASE MSIZE GASLIMIT MSTORE KECCAK256 NUMBER COINBASE MSTORE PREVRANDAO EXTCODECOPY 0x2F PUSH21 0x6578743E3C6C696E652078313D223230222079313D 0x22 CALLDATALOAD CALLDATALOAD 0x22 KECCAK256 PUSH25 0x323D22333030222079323D22353522207374726F6B653D2223 PUSH6 0x636630663122 KECCAK256 PUSH20 0x74726F6B652D77696474683D2234222F3E3C2F67 RETURNDATACOPY EXTCODECOPY PUSH20 0x766720783D22302220793D223330222077696474 PUSH9 0x3D2231353022206865 PUSH10 0x6768743D223338302220 PUSH23 0x696577426F783D22302030203332203332222073686170 PUSH6 0x2D72656E6465 PUSH19 0x696E673D2263726973704564676573223E3C70 PUSH2 0x7468 KECCAK256 PUSH7 0x696C6C3D222330 ADDRESS ADDRESS ADDRESS ADDRESS ADDRESS 0x22 KECCAK256 PUSH5 0x3D224D3131 KECCAK256 ORIGIN PUSH9 0x313076314831317A20 0x4D CODECOPY KECCAK256 CALLER PUSH9 0x32763148397A204D32 BALANCE KECCAK256 CALLER PUSH9 0x3276314832317A204D CODESIZE KECCAK256 CALLVALUE PUSH9 0x31763148387A204D32 CALLER KECCAK256 CALLVALUE PUSH9 0x3176314832337A204D CODESIZE KECCAK256 CALLDATALOAD PUSH9 0x31763148387A204D32 CALLVALUE KECCAK256 CALLDATALOAD PUSH9 0x3176314832347A204D CODESIZE KECCAK256 CALLDATASIZE PUSH9 0x31763148387A204D32 CALLVALUE KECCAK256 CALLDATASIZE PUSH9 0x3176314832347A204D CODESIZE KECCAK256 CALLDATACOPY PUSH9 0x31763148387A204D32 CALLVALUE KECCAK256 CALLDATACOPY PUSH9 0x3176314832347A204D CODESIZE KECCAK256 CODESIZE PUSH9 0x31763148387A204D32 CALLVALUE KECCAK256 CODESIZE PUSH9 0x3176314832347A204D CODECOPY KECCAK256 CODECOPY PUSH9 0x31763148397A204D32 CALLVALUE KECCAK256 CODECOPY PUSH9 0x3176314832347A204D CODECOPY KECCAK256 BALANCE ADDRESS PUSH9 0x31763148397A204D32 CALLER KECCAK256 BALANCE ADDRESS PUSH9 0x3176314832337A204D CODECOPY KECCAK256 BALANCE BALANCE PUSH9 0x31763148397A204D31 ORIGIN KECCAK256 BALANCE BALANCE PUSH9 0x3276314831327A204D BALANCE CODESIZE KECCAK256 BALANCE BALANCE PUSH9 0x3276314831387A204D ORIGIN CALLER KECCAK256 BALANCE BALANCE PUSH9 0x3176314832337A204D CODECOPY KECCAK256 BALANCE ORIGIN PUSH9 0x31763148397A204D32 CALLER KECCAK256 BALANCE ORIGIN PUSH9 0x3176314832337A204D BALANCE ADDRESS KECCAK256 BALANCE CALLER PUSH9 0x3176314831307A204D ORIGIN ORIGIN KECCAK256 BALANCE CALLER PUSH9 0x3176314832327A204D BALANCE ADDRESS KECCAK256 BALANCE CALLVALUE PUSH9 0x3176314831307A204D ORIGIN ORIGIN KECCAK256 BALANCE CALLVALUE PUSH9 0x3176314832327A204D BALANCE ADDRESS KECCAK256 BALANCE CALLDATALOAD PUSH9 0x3176314831307A204D ORIGIN ORIGIN KECCAK256 BALANCE CALLDATALOAD PUSH9 0x3176314832327A204D BALANCE BALANCE KECCAK256 BALANCE CALLDATASIZE PUSH9 0x3176314831317A204D ORIGIN BALANCE KECCAK256 BALANCE CALLDATASIZE PUSH9 0x3176314832317A204D BALANCE BALANCE KECCAK256 BALANCE CALLDATACOPY PUSH9 0x3176314831317A204D ORIGIN BALANCE KECCAK256 BALANCE CALLDATACOPY PUSH9 0x3176314832317A204D BALANCE ORIGIN KECCAK256 BALANCE CODESIZE PUSH9 0x3176314831327A204D ORIGIN ADDRESS KECCAK256 BALANCE CODESIZE PUSH9 0x3176314832307A204D BALANCE ORIGIN KECCAK256 BALANCE CODECOPY PUSH9 0x3176314831327A204D ORIGIN ADDRESS KECCAK256 BALANCE CODECOPY PUSH9 0x3176314832307A204D BALANCE BALANCE KECCAK256 ORIGIN ADDRESS PUSH9 0x3176314831317A204D ORIGIN BALANCE KECCAK256 ORIGIN ADDRESS PUSH9 0x3176314832317A204D CODECOPY KECCAK256 ORIGIN BALANCE PUSH9 0x32763148397A204D32 ORIGIN KECCAK256 ORIGIN BALANCE PUSH9 0x3276314832327A204D CALLDATACOPY KECCAK256 ORIGIN ORIGIN PUSH9 0x32763148377A204D32 CALLVALUE KECCAK256 ORIGIN ORIGIN PUSH9 0x3276314832347A204D CALLDATASIZE KECCAK256 ORIGIN CALLER PUSH9 0x31763148367A204D32 CALLDATASIZE KECCAK256 ORIGIN CALLER PUSH9 0x3176314832367A204D CALLDATALOAD KECCAK256 ORIGIN CALLVALUE PUSH9 0x31763148357A204D32 CALLDATACOPY KECCAK256 ORIGIN CALLVALUE PUSH9 0x3176314832377A204D CALLVALUE KECCAK256 ORIGIN CALLDATALOAD PUSH9 0x31763148347A204D32 CODESIZE KECCAK256 ORIGIN CALLDATALOAD PUSH9 0x3176314832387A204D CALLER KECCAK256 ORIGIN CALLDATASIZE PUSH9 0x31763148337A204D32 CODECOPY KECCAK256 ORIGIN CALLDATASIZE PUSH9 0x3176314832397A204D CALLER KECCAK256 ORIGIN CALLDATACOPY PUSH9 0x31763148337A204D32 CODECOPY KECCAK256 ORIGIN CALLDATACOPY PUSH9 0x3176314832397A204D CALLER KECCAK256 ORIGIN CODESIZE PUSH9 0x31763148337A204D32 CODECOPY KECCAK256 ORIGIN CODESIZE PUSH9 0x3176314832397A204D CALLER KECCAK256 ORIGIN CODECOPY PUSH9 0x31763148337A204D32 CODECOPY KECCAK256 ORIGIN CODECOPY PUSH9 0x3176314832397A204D CALLER KECCAK256 CALLER ADDRESS PUSH9 0x31763148337A204D32 CODECOPY KECCAK256 CALLER ADDRESS PUSH9 0x3176314832397A204D CALLER KECCAK256 CALLER BALANCE PUSH9 0x3237763148337A2220 0x2F RETURNDATACOPY EXTCODECOPY PUSH17 0x6174682066696C6C3D2267726179222064 RETURNDATASIZE 0x22 0x4D BALANCE BALANCE KECCAK256 CALLER PUSH9 0x313076314831317A20 0x4D CODECOPY KECCAK256 CALLVALUE PUSH9 0x3134763148397A204D CODECOPY KECCAK256 CALLDATALOAD PUSH9 0x3135763148397A204D CODECOPY KECCAK256 CALLDATASIZE PUSH9 0x3135763148397A204D CODECOPY KECCAK256 CALLDATACOPY PUSH9 0x3135763148397A204D CODECOPY KECCAK256 CODESIZE PUSH9 0x33763148397A204D32 ADDRESS KECCAK256 CODESIZE PUSH9 0x3476314832307A204D BALANCE ADDRESS KECCAK256 CODECOPY PUSH9 0x3276314831307A204D ORIGIN ORIGIN KECCAK256 CODECOPY PUSH9 0x3276314832327A204D BALANCE ADDRESS KECCAK256 BALANCE ADDRESS PUSH9 0x3176314831307A204D ORIGIN ORIGIN KECCAK256 BALANCE ADDRESS PUSH9 0x3176314832327A2220 0x2F RETURNDATACOPY EXTCODECOPY PUSH17 0x6174682066696C6C3D2223653462353930 0x22 KECCAK256 PUSH5 0x3D224D3132 KECCAK256 CODESIZE PUSH9 0x3876314831327A204D BALANCE ORIGIN KECCAK256 CODECOPY PUSH9 0x313076314831327A20 0x4D BALANCE BALANCE KECCAK256 BALANCE ADDRESS PUSH9 0x313176314831317A20 0x4D BALANCE ADDRESS KECCAK256 BALANCE BALANCE PUSH9 0x3276314831307A204D BALANCE CALLVALUE KECCAK256 BALANCE BALANCE PUSH9 0x3476314831347A204D ORIGIN ADDRESS KECCAK256 BALANCE BALANCE PUSH9 0x3376314832307A204D BALANCE ADDRESS KECCAK256 BALANCE ORIGIN PUSH9 0x313376314831307A20 0x4D BALANCE BALANCE KECCAK256 BALANCE CALLER PUSH9 0x3476314831317A204D BALANCE CALLDATACOPY KECCAK256 BALANCE CALLER PUSH9 0x3576314831377A204D BALANCE BALANCE KECCAK256 BALANCE CALLVALUE PUSH9 0x313176314831317A20 0x4D BALANCE BALANCE KECCAK256 BALANCE CALLDATALOAD PUSH9 0x3376314831317A204D BALANCE CODESIZE KECCAK256 BALANCE CALLDATALOAD PUSH9 0x3476314831387A204D BALANCE ORIGIN KECCAK256 BALANCE CALLDATASIZE PUSH9 0x3976314831327A204D BALANCE ORIGIN KECCAK256 BALANCE CALLDATACOPY PUSH9 0x3976314831327A204D BALANCE CALLER KECCAK256 BALANCE CODESIZE PUSH9 0x3776314831337A2220 0x2F RETURNDATACOPY EXTCODECOPY PUSH17 0x6174682066696C6C3D2223633539343733 0x22 KECCAK256 PUSH5 0x3D224D3135 KECCAK256 BALANCE CALLER PUSH9 0x3276314831357A204D BALANCE CALLER KECCAK256 BALANCE CODECOPY PUSH9 0x3776314831337A204D BALANCE CALLVALUE KECCAK256 ORIGIN ADDRESS PUSH9 0x3576314831347A2220 0x2F RETURNDATACOPY EXTCODECOPY PUSH17 0x6174682066696C6C3D2223626436613466 0x22 KECCAK256 PUSH5 0x3D224D3134 KECCAK256 BALANCE CALLDATALOAD PUSH9 0x3476314831347A2220 0x2F RETURNDATACOPY EXTCODECOPY PUSH17 0x6174682066696C6C3D2223666666666666 0x22 KECCAK256 PUSH5 0x3D224D3132 KECCAK256 ORIGIN ADDRESS PUSH9 0x3276314831327A204D BALANCE CODECOPY KECCAK256 ORIGIN ADDRESS PUSH9 0x3276314831397A204D BALANCE BALANCE KECCAK256 ORIGIN BALANCE PUSH9 0x3376314831317A204D BALANCE CODECOPY KECCAK256 ORIGIN BALANCE PUSH9 0x3376314831397A204D CODECOPY KECCAK256 ORIGIN ORIGIN PUSH9 0x34763148397A204D32 ADDRESS KECCAK256 ORIGIN ORIGIN PUSH9 0x3476314832307A204D CALLDATACOPY KECCAK256 ORIGIN CALLER PUSH9 0x35763148377A204D32 BALANCE KECCAK256 ORIGIN CALLER PUSH9 0x3576314832317A204D CALLDATASIZE KECCAK256 ORIGIN CALLVALUE PUSH9 0x35763148367A204D32 ORIGIN KECCAK256 ORIGIN CALLVALUE PUSH9 0x3576314832327A204D CALLDATALOAD KECCAK256 ORIGIN CALLDATALOAD PUSH9 0x35763148357A204D31 CALLER KECCAK256 ORIGIN CALLDATALOAD PUSH9 0x3276314831337A204D BALANCE CALLDATASIZE KECCAK256 ORIGIN CALLDATALOAD PUSH9 0x3276314831367A204D BALANCE CODECOPY KECCAK256 ORIGIN CALLDATALOAD PUSH9 0x3276314831397A204D ORIGIN CALLER KECCAK256 ORIGIN CALLDATALOAD PUSH9 0x3576314832337A204D CALLVALUE KECCAK256 ORIGIN CALLDATASIZE PUSH9 0x35763148347A204D32 CALLVALUE KECCAK256 ORIGIN CALLDATASIZE PUSH9 0x3576314832347A204D CALLVALUE KECCAK256 ORIGIN CALLDATACOPY PUSH9 0x34763148347A204D32 CALLDATALOAD KECCAK256 ORIGIN CALLDATACOPY PUSH9 0x3476314832357A204D CALLVALUE KECCAK256 ORIGIN CODESIZE PUSH9 0x34763148347A204D32 CALLDATALOAD KECCAK256 ORIGIN CODESIZE PUSH9 0x3476314832357A204D CALLVALUE KECCAK256 ORIGIN CODECOPY PUSH9 0x34763148347A204D32 CALLDATALOAD KECCAK256 ORIGIN CODECOPY PUSH9 0x3476314832357A204D CALLDATASIZE KECCAK256 CALLER ADDRESS PUSH9 0x32763148367A204D32 CALLDATALOAD KECCAK256 CALLER ADDRESS PUSH9 0x3276314832357A2220 0x2F RETURNDATACOPY EXTCODECOPY PUSH17 0x6174682066696C6C3D2223656638313135 0x22 KECCAK256 PUSH5 0x3D224D3134 KECCAK256 ORIGIN BALANCE PUSH9 0x3576314831347A204D BALANCE CALLER KECCAK256 ORIGIN ORIGIN PUSH9 0x3776314831337A204D BALANCE ORIGIN KECCAK256 ORIGIN CALLER PUSH9 0x3976314831327A204D BALANCE BALANCE KECCAK256 ORIGIN CALLVALUE PUSH9 0x313176314831317A20 0x4D BALANCE ADDRESS KECCAK256 ORIGIN CALLDATALOAD PUSH9 0x3376314831307A204D BALANCE CALLDATALOAD KECCAK256 ORIGIN CALLDATALOAD PUSH9 0x3176314831357A204D BALANCE CODESIZE KECCAK256 ORIGIN CALLDATALOAD PUSH9 0x3176314831387A204D ORIGIN BALANCE KECCAK256 ORIGIN CALLDATALOAD PUSH9 0x3276314832317A204D CODECOPY KECCAK256 ORIGIN CALLDATASIZE PUSH9 0x3135763148397A204D CODESIZE KECCAK256 ORIGIN CALLDATACOPY PUSH9 0x3137763148387A204D CODESIZE KECCAK256 ORIGIN CODESIZE PUSH9 0x3137763148387A204D CODESIZE KECCAK256 ORIGIN CODECOPY PUSH9 0x3137763148387A204D CALLVALUE KECCAK256 CALLER ADDRESS PUSH9 0x32763148347A204D38 KECCAK256 CALLER ADDRESS PUSH9 0x3137763148387A204D ORIGIN CALLDATACOPY KECCAK256 CALLER ADDRESS PUSH9 0x3276314832377A2220 0x2F RETURNDATACOPY EXTCODECOPY 0x2F PUSH20 0x76673EA2646970667358221220998F92DDA8050B SLOAD DUP4 SWAP3 LOG2 XOR 0xDC POP DUP10 MCOPY GT PUSH31 0x3008D9339A2CD2E49434EA54C5BE64736F6C63430008220033000000000000 "
		},
		"gasEstimates": {
			"creation": {
				"codeDepositCost": "4651400",
				"executionCost": "infinite",
				"totalCost": "infinite"
			},
			"external": {
				"approve(address,uint256)": "infinite",
				"balanceOf(address)": "infinite",
				"formatKda(uint256)": "infinite",
				"generateSVG(uint256)": "infinite",
				"getApproved(uint256)": "infinite",
				"handleOracleFulfillment(bytes32,bytes,bytes)": "infinite",
				"isApprovedForAll(address,address)": "infinite",
				"name()": "infinite",
				"owner()": "2604",
				"ownerOf(uint256)": "infinite",
				"renounceOwnership()": "infinite",
				"requestStatsUpdate(uint256,string)": "infinite",
				"s_playerData(uint256)": "infinite",
				"s_requestToTokenId(bytes32)": "2843",
				"safeMint(address,string,string,uint256,uint256)": "infinite",
				"safeTransferFrom(address,address,uint256)": "infinite",
				"safeTransferFrom(address,address,uint256,bytes)": "infinite",
				"setApprovalForAll(address,bool)": "infinite",
				"setSourceCode(string)": "infinite",
				"sourceCode()": "infinite",
				"subscriptionId()": "2600",
				"supportsInterface(bytes4)": "903",
				"symbol()": "infinite",
				"tokenURI(uint256)": "infinite",
				"transferFrom(address,address,uint256)": "infinite",
				"transferOwnership(address)": "infinite"
			},
			"internal": {
				"fulfillRequest(bytes32,bytes memory,bytes memory)": "infinite"
			}
		},
		"methodIdentifiers": {
			"approve(address,uint256)": "095ea7b3",
			"balanceOf(address)": "70a08231",
			"formatKda(uint256)": "a22e38db",
			"generateSVG(uint256)": "6dcee4ca",
			"getApproved(uint256)": "081812fc",
			"handleOracleFulfillment(bytes32,bytes,bytes)": "0ca76175",
			"isApprovedForAll(address,address)": "e985e9c5",
			"name()": "06fdde03",
			"owner()": "8da5cb5b",
			"ownerOf(uint256)": "6352211e",
			"renounceOwnership()": "715018a6",
			"requestStatsUpdate(uint256,string)": "6f1078d8",
			"s_playerData(uint256)": "b4cfae44",
			"s_requestToTokenId(bytes32)": "68015a4b",
			"safeMint(address,string,string,uint256,uint256)": "b896d433",
			"safeTransferFrom(address,address,uint256)": "42842e0e",
			"safeTransferFrom(address,address,uint256,bytes)": "b88d4fde",
			"setApprovalForAll(address,bool)": "a22cb465",
			"setSourceCode(string)": "00b46767",
			"sourceCode()": "13c60177",
			"subscriptionId()": "09c1ba2e",
			"supportsInterface(bytes4)": "01ffc9a7",
			"symbol()": "95d89b41",
			"tokenURI(uint256)": "c87b56dd",
			"transferFrom(address,address,uint256)": "23b872dd",
			"transferOwnership(address)": "f2fde38b"
		}
	},
	"abi": [
		{
			"inputs": [
				{
					"internalType": "uint64",
					"name": "_subscriptionId",
					"type": "uint64"
				}
			],
			"stateMutability": "nonpayable",
			"type": "constructor"
		},
		{
			"inputs": [
				{
					"internalType": "address",
					"name": "sender",
					"type": "address"
				},
				{
					"internalType": "uint256",
					"name": "tokenId",
					"type": "uint256"
				},
				{
					"internalType": "address",
					"name": "owner",
					"type": "address"
				}
			],
			"name": "ERC721IncorrectOwner",
			"type": "error"
		},
		{
			"inputs": [
				{
					"internalType": "address",
					"name": "operator",
					"type": "address"
				},
				{
					"internalType": "uint256",
					"name": "tokenId",
					"type": "uint256"
				}
			],
			"name": "ERC721InsufficientApproval",
			"type": "error"
		},
		{
			"inputs": [
				{
					"internalType": "address",
					"name": "approver",
					"type": "address"
				}
			],
			"name": "ERC721InvalidApprover",
			"type": "error"
		},
		{
			"inputs": [
				{
					"internalType": "address",
					"name": "operator",
					"type": "address"
				}
			],
			"name": "ERC721InvalidOperator",
			"type": "error"
		},
		{
			"inputs": [
				{
					"internalType": "address",
					"name": "owner",
					"type": "address"
				}
			],
			"name": "ERC721InvalidOwner",
			"type": "error"
		},
		{
			"inputs": [
				{
					"internalType": "address",
					"name": "receiver",
					"type": "address"
				}
			],
			"name": "ERC721InvalidReceiver",
			"type": "error"
		},
		{
			"inputs": [
				{
					"internalType": "address",
					"name": "sender",
					"type": "address"
				}
			],
			"name": "ERC721InvalidSender",
			"type": "error"
		},
		{
			"inputs": [
				{
					"internalType": "uint256",
					"name": "tokenId",
					"type": "uint256"
				}
			],
			"name": "ERC721NonexistentToken",
			"type": "error"
		},
		{
			"inputs": [],
			"name": "EmptyArgs",
			"type": "error"
		},
		{
			"inputs": [],
			"name": "EmptySource",
			"type": "error"
		},
		{
			"inputs": [],
			"name": "NoInlineSecrets",
			"type": "error"
		},
		{
			"inputs": [],
			"name": "OnlyRouterCanFulfill",
			"type": "error"
		},
		{
			"inputs": [
				{
					"internalType": "address",
					"name": "owner",
					"type": "address"
				}
			],
			"name": "OwnableInvalidOwner",
			"type": "error"
		},
		{
			"inputs": [
				{
					"internalType": "address",
					"name": "account",
					"type": "address"
				}
			],
			"name": "OwnableUnauthorizedAccount",
			"type": "error"
		},
		{
			"anonymous": false,
			"inputs": [
				{
					"indexed": true,
					"internalType": "address",
					"name": "owner",
					"type": "address"
				},
				{
					"indexed": true,
					"internalType": "address",
					"name": "approved",
					"type": "address"
				},
				{
					"indexed": true,
					"internalType": "uint256",
					"name": "tokenId",
					"type": "uint256"
				}
			],
			"name": "Approval",
			"type": "event"
		},
		{
			"anonymous": false,
			"inputs": [
				{
					"indexed": true,
					"internalType": "address",
					"name": "owner",
					"type": "address"
				},
				{
					"indexed": true,
					"internalType": "address",
					"name": "operator",
					"type": "address"
				},
				{
					"indexed": false,
					"internalType": "bool",
					"name": "approved",
					"type": "bool"
				}
			],
			"name": "ApprovalForAll",
			"type": "event"
		},
		{
			"anonymous": false,
			"inputs": [
				{
					"indexed": false,
					"internalType": "uint256",
					"name": "_fromTokenId",
					"type": "uint256"
				},
				{
					"indexed": false,
					"internalType": "uint256",
					"name": "_toTokenId",
					"type": "uint256"
				}
			],
			"name": "BatchMetadataUpdate",
			"type": "event"
		},
		{
			"anonymous": false,
			"inputs": [
				{
					"indexed": false,
					"internalType": "uint256",
					"name": "_tokenId",
					"type": "uint256"
				}
			],
			"name": "MetadataUpdate",
			"type": "event"
		},
		{
			"anonymous": false,
			"inputs": [
				{
					"indexed": true,
					"internalType": "address",
					"name": "previousOwner",
					"type": "address"
				},
				{
					"indexed": true,
					"internalType": "address",
					"name": "newOwner",
					"type": "address"
				}
			],
			"name": "OwnershipTransferred",
			"type": "event"
		},
		{
			"anonymous": false,
			"inputs": [
				{
					"indexed": true,
					"internalType": "bytes32",
					"name": "id",
					"type": "bytes32"
				}
			],
			"name": "RequestFulfilled",
			"type": "event"
		},
		{
			"anonymous": false,
			"inputs": [
				{
					"indexed": true,
					"internalType": "bytes32",
					"name": "id",
					"type": "bytes32"
				}
			],
			"name": "RequestSent",
			"type": "event"
		},
		{
			"anonymous": false,
			"inputs": [
				{
					"indexed": true,
					"internalType": "uint256",
					"name": "tokenId",
					"type": "uint256"
				},
				{
					"indexed": false,
					"internalType": "uint256",
					"name": "newGames",
					"type": "uint256"
				},
				{
					"indexed": false,
					"internalType": "uint256",
					"name": "newKda",
					"type": "uint256"
				}
			],
			"name": "StatsUpdated",
			"type": "event"
		},
		{
			"anonymous": false,
			"inputs": [
				{
					"indexed": true,
					"internalType": "address",
					"name": "from",
					"type": "address"
				},
				{
					"indexed": true,
					"internalType": "address",
					"name": "to",
					"type": "address"
				},
				{
					"indexed": true,
					"internalType": "uint256",
					"name": "tokenId",
					"type": "uint256"
				}
			],
			"name": "Transfer",
			"type": "event"
		},
		{
			"anonymous": false,
			"inputs": [
				{
					"indexed": true,
					"internalType": "bytes32",
					"name": "requestId",
					"type": "bytes32"
				},
				{
					"indexed": true,
					"internalType": "uint256",
					"name": "tokenId",
					"type": "uint256"
				}
			],
			"name": "UpdateRequested",
			"type": "event"
		},
		{
			"inputs": [
				{
					"internalType": "address",
					"name": "to",
					"type": "address"
				},
				{
					"internalType": "uint256",
					"name": "tokenId",
					"type": "uint256"
				}
			],
			"name": "approve",
			"outputs": [],
			"stateMutability": "nonpayable",
			"type": "function"
		},
		{
			"inputs": [
				{
					"internalType": "address",
					"name": "owner",
					"type": "address"
				}
			],
			"name": "balanceOf",
			"outputs": [
				{
					"internalType": "uint256",
					"name": "",
					"type": "uint256"
				}
			],
			"stateMutability": "view",
			"type": "function"
		},
		{
			"inputs": [
				{
					"internalType": "uint256",
					"name": "_kda",
					"type": "uint256"
				}
			],
			"name": "formatKda",
			"outputs": [
				{
					"internalType": "string",
					"name": "",
					"type": "string"
				}
			],
			"stateMutability": "pure",
			"type": "function"
		},
		{
			"inputs": [
				{
					"internalType": "uint256",
					"name": "tokenId",
					"type": "uint256"
				}
			],
			"name": "generateSVG",
			"outputs": [
				{
					"internalType": "string",
					"name": "",
					"type": "string"
				}
			],
			"stateMutability": "view",
			"type": "function"
		},
		{
			"inputs": [
				{
					"internalType": "uint256",
					"name": "tokenId",
					"type": "uint256"
				}
			],
			"name": "getApproved",
			"outputs": [
				{
					"internalType": "address",
					"name": "",
					"type": "address"
				}
			],
			"stateMutability": "view",
			"type": "function"
		},
		{
			"inputs": [
				{
					"internalType": "bytes32",
					"name": "requestId",
					"type": "bytes32"
				},
				{
					"internalType": "bytes",
					"name": "response",
					"type": "bytes"
				},
				{
					"internalType": "bytes",
					"name": "err",
					"type": "bytes"
				}
			],
			"name": "handleOracleFulfillment",
			"outputs": [],
			"stateMutability": "nonpayable",
			"type": "function"
		},
		{
			"inputs": [
				{
					"internalType": "address",
					"name": "owner",
					"type": "address"
				},
				{
					"internalType": "address",
					"name": "operator",
					"type": "address"
				}
			],
			"name": "isApprovedForAll",
			"outputs": [
				{
					"internalType": "bool",
					"name": "",
					"type": "bool"
				}
			],
			"stateMutability": "view",
			"type": "function"
		},
		{
			"inputs": [],
			"name": "name",
			"outputs": [
				{
					"internalType": "string",
					"name": "",
					"type": "string"
				}
			],
			"stateMutability": "view",
			"type": "function"
		},
		{
			"inputs": [],
			"name": "owner",
			"outputs": [
				{
					"internalType": "address",
					"name": "",
					"type": "address"
				}
			],
			"stateMutability": "view",
			"type": "function"
		},
		{
			"inputs": [
				{
					"internalType": "uint256",
					"name": "tokenId",
					"type": "uint256"
				}
			],
			"name": "ownerOf",
			"outputs": [
				{
					"internalType": "address",
					"name": "",
					"type": "address"
				}
			],
			"stateMutability": "view",
			"type": "function"
		},
		{
			"inputs": [],
			"name": "renounceOwnership",
			"outputs": [],
			"stateMutability": "nonpayable",
			"type": "function"
		},
		{
			"inputs": [
				{
					"internalType": "uint256",
					"name": "tokenId",
					"type": "uint256"
				},
				{
					"internalType": "string",
					"name": "nickname",
					"type": "string"
				}
			],
			"name": "requestStatsUpdate",
			"outputs": [
				{
					"internalType": "bytes32",
					"name": "requestId",
					"type": "bytes32"
				}
			],
			"stateMutability": "nonpayable",
			"type": "function"
		},
		{
			"inputs": [
				{
					"internalType": "uint256",
					"name": "",
					"type": "uint256"
				}
			],
			"name": "s_playerData",
			"outputs": [
				{
					"internalType": "string",
					"name": "name",
					"type": "string"
				},
				{
					"internalType": "string",
					"name": "lane",
					"type": "string"
				},
				{
					"internalType": "uint256",
					"name": "totalGames",
					"type": "uint256"
				},
				{
					"internalType": "uint256",
					"name": "avgKda",
					"type": "uint256"
				}
			],
			"stateMutability": "view",
			"type": "function"
		},
		{
			"inputs": [
				{
					"internalType": "bytes32",
					"name": "",
					"type": "bytes32"
				}
			],
			"name": "s_requestToTokenId",
			"outputs": [
				{
					"internalType": "uint256",
					"name": "",
					"type": "uint256"
				}
			],
			"stateMutability": "view",
			"type": "function"
		},
		{
			"inputs": [
				{
					"internalType": "address",
					"name": "to",
					"type": "address"
				},
				{
					"internalType": "string",
					"name": "_name",
					"type": "string"
				},
				{
					"internalType": "string",
					"name": "_lane",
					"type": "string"
				},
				{
					"internalType": "uint256",
					"name": "_games",
					"type": "uint256"
				},
				{
					"internalType": "uint256",
					"name": "_kda",
					"type": "uint256"
				}
			],
			"name": "safeMint",
			"outputs": [],
			"stateMutability": "nonpayable",
			"type": "function"
		},
		{
			"inputs": [
				{
					"internalType": "address",
					"name": "from",
					"type": "address"
				},
				{
					"internalType": "address",
					"name": "to",
					"type": "address"
				},
				{
					"internalType": "uint256",
					"name": "tokenId",
					"type": "uint256"
				}
			],
			"name": "safeTransferFrom",
			"outputs": [],
			"stateMutability": "nonpayable",
			"type": "function"
		},
		{
			"inputs": [
				{
					"internalType": "address",
					"name": "from",
					"type": "address"
				},
				{
					"internalType": "address",
					"name": "to",
					"type": "address"
				},
				{
					"internalType": "uint256",
					"name": "tokenId",
					"type": "uint256"
				},
				{
					"internalType": "bytes",
					"name": "data",
					"type": "bytes"
				}
			],
			"name": "safeTransferFrom",
			"outputs": [],
			"stateMutability": "nonpayable",
			"type": "function"
		},
		{
			"inputs": [
				{
					"internalType": "address",
					"name": "operator",
					"type": "address"
				},
				{
					"internalType": "bool",
					"name": "approved",
					"type": "bool"
				}
			],
			"name": "setApprovalForAll",
			"outputs": [],
			"stateMutability": "nonpayable",
			"type": "function"
		},
		{
			"inputs": [
				{
					"internalType": "string",
					"name": "_sourceCode",
					"type": "string"
				}
			],
			"name": "setSourceCode",
			"outputs": [],
			"stateMutability": "nonpayable",
			"type": "function"
		},
		{
			"inputs": [],
			"name": "sourceCode",
			"outputs": [
				{
					"internalType": "string",
					"name": "",
					"type": "string"
				}
			],
			"stateMutability": "view",
			"type": "function"
		},
		{
			"inputs": [],
			"name": "subscriptionId",
			"outputs": [
				{
					"internalType": "uint64",
					"name": "",
					"type": "uint64"
				}
			],
			"stateMutability": "view",
			"type": "function"
		},
		{
			"inputs": [
				{
					"internalType": "bytes4",
					"name": "interfaceId",
					"type": "bytes4"
				}
			],
			"name": "supportsInterface",
			"outputs": [
				{
					"internalType": "bool",
					"name": "",
					"type": "bool"
				}
			],
			"stateMutability": "view",
			"type": "function"
		},
		{
			"inputs": [],
			"name": "symbol",
			"outputs": [
				{
					"internalType": "string",
					"name": "",
					"type": "string"
				}
			],
			"stateMutability": "view",
			"type": "function"
		},
		{
			"inputs": [
				{
					"internalType": "uint256",
					"name": "tokenId",
					"type": "uint256"
				}
			],
			"name": "tokenURI",
			"outputs": [
				{
					"internalType": "string",
					"name": "",
					"type": "string"
				}
			],
			"stateMutability": "view",
			"type": "function"
		},
		{
			"inputs": [
				{
					"internalType": "address",
					"name": "from",
					"type": "address"
				},
				{
					"internalType": "address",
					"name": "to",
					"type": "address"
				},
				{
					"internalType": "uint256",
					"name": "tokenId",
					"type": "uint256"
				}
			],
			"name": "transferFrom",
			"outputs": [],
			"stateMutability": "nonpayable",
			"type": "function"
		},
		{
			"inputs": [
				{
					"internalType": "address",
					"name": "newOwner",
					"type": "address"
				}
			],
			"name": "transferOwnership",
			"outputs": [],
			"stateMutability": "nonpayable",
			"type": "function"
		}
	]
}