{
	"data": {
		"bytecode": {
			"linkReferences": {},
			"object": "60a0604052600980546001600160a01b03191673b83e47c2bc239b3bf370bc41e1459a34b41238d01790557f66756e2d657468657265756d2d7365706f6c69612d3100000000000000000000600a5562015180600e55348015610060575f5ffd5b5060405161421d38038061421d83398101604081905261007f916101a9565b600954604080518082018252600e81526d26a8261026b7b232b61021102b1960911b6020808301919091528251808401909352600583526426a826211960d91b908301526001600160a01b039092169133915f6100dc8382610279565b5060016100e98282610279565b5050506001600160a01b03811661011957604051631e4fbdf760e01b81525f600482015260240160405180910390fd5b61012281610158565b506001600160a01b0316608052600b80546001600160401b0319166001600160401b039290921691909117905542600d55610337565b600780546001600160a01b038381166001600160a01b0319831681179093556040519116919082907f8be0079c531659141344cd1fd0a4f28419497f9722a3daafe3b4186f6b6457e0905f90a35050565b5f602082840312156101b9575f5ffd5b81516001600160401b03811681146101cf575f5ffd5b9392505050565b634e487b7160e01b5f52604160045260245ffd5b600181811c908216806101fe57607f821691505b60208210810361021c57634e487b7160e01b5f52602260045260245ffd5b50919050565b601f821115610274578282111561027457805f5260205f20601f840160051c602085101561024d57505f5b90810190601f840160051c035f5b81811015610270575f8382015560010161025b565b5050505b505050565b81516001600160401b03811115610292576102926101d6565b6102a6816102a084546101ea565b84610222565b6020601f8211600181146102d8575f83156102c15750848201515b5f19600385901b1c1916600184901b178455610330565b5f84815260208120601f198516915b8281101561030757878501518255602094850194600190920191016102e7565b508482101561032457868401515f19600387901b60f8161c191681555b505060018360011b0184555b5050505050565b608051613ec76103565f395f818161055e0152611a700152613ec75ff3fe608060405234801561000f575f5ffd5b50600436106101d0575f3560e01c80636dcee4ca116100fe57806395d89b411161009e578063c87b56dd1161006e578063c87b56dd14610404578063e985e9c514610417578063eca81d421461042a578063f2fde38b1461043d575f5ffd5b806395d89b41146103b1578063a22cb465146103b9578063b4cfae44146103cc578063b88d4fde146103f1575f5ffd5b8063715018a6116100d9578063715018a6146103865780638da5cb5b1461038e578063947a36fb1461039f57806394881476146103a8575f5ffd5b80636dcee4ca1461033f5780636e04ff0d1461035257806370a0823114610373575f5ffd5b806313c601771161017457806342842e0e1161014457806342842e0e146102e75780634585e33b146102fa5780636352211e1461030d57806368015a4b14610320575f5ffd5b806313c60177146102a257806322e817e2146102aa57806323b872dd146102bd5780633f3b3b27146102d0575f5ffd5b8063081812fc116101af578063081812fc14610226578063095ea7b31461025157806309c1ba2e146102645780630ca761751461028f575f5ffd5b8062b46767146101d457806301ffc9a7146101e957806306fdde0314610211575b5f5ffd5b6101e76101e2366004612416565b610450565b005b6101fc6101f736600461245c565b610468565b60405190151581526020015b60405180910390f35b610219610492565b60405161020891906124a5565b6102396102343660046124b7565b610521565b6040516001600160a01b039091168152602001610208565b6101e761025f3660046124e9565b610548565b600b54610277906001600160401b031681565b6040516001600160401b039091168152602001610208565b6101e761029d366004612511565b610553565b6102196105d6565b6101e76102b836600461257c565b610662565b6101e76102cb36600461259c565b610675565b6102d9600d5481565b604051908152602001610208565b6101e76102f536600461259c565b610703565b6101e76103083660046125d6565b610722565b61023961031b3660046124b7565b6107de565b6102d961032e3660046124b7565b60116020525f908152604090205481565b61021961034d3660046124b7565b6107e8565b6103656103603660046125d6565b610a4f565b604051610208929190612642565b6102d961038136600461265c565b610a8d565b6101e7610ad2565b6007546001600160a01b0316610239565b6102d9600e5481565b6102d9600f5481565b610219610ae5565b6101e76103c7366004612675565b610af4565b6103df6103da3660046124b7565b610aff565b604051610208969594939291906126ae565b6101e76103ff366004612706565b610c54565b6102196104123660046124b7565b610c6c565b6101fc610425366004612769565b610ce0565b6101e761043836600461279a565b610d0d565b6101e761044b36600461265c565b610e10565b610458610e4d565b600c6104648282612855565b5050565b5f6001600160e01b03198216632483248360e11b148061048c575061048c82610e7a565b92915050565b60605f80546104a0906127cf565b80601f01602080910402602001604051908101604052809291908181526020018280546104cc906127cf565b80156105175780601f106104ee57610100808354040283529160200191610517565b820191905f5260205f20905b8154815290600101906020018083116104fa57829003601f168201915b5050505050905090565b5f61052b82610ec9565b505f828152600460205260409020546001600160a01b031661048c565b610464828233610f01565b336001600160a01b037f0000000000000000000000000000000000000000000000000000000000000000161461059c5760405163c6829f8360e01b815260040160405180910390fd5b6105a7838383610f0e565b60405183907f85e1543bf2f84fe80c6badbce3648c8539ad1df4d2b3d822938ca0538be727e6905f90a2505050565b600c80546105e3906127cf565b80601f016020809104026020016040519081016040528092919081815260200182805461060f906127cf565b801561065a5780601f106106315761010080835404028352916020019161065a565b820191905f5260205f20905b81548152906001019060200180831161063d57829003601f168201915b505050505081565b61066a610e4d565b600e91909155600f55565b6001600160a01b0382166106a357604051633250574960e11b81525f60048201526024015b60405180910390fd5b5f6106af838333611000565b9050836001600160a01b0316816001600160a01b0316146106fd576040516364283d7b60e01b81526001600160a01b038086166004830152602482018490528216604482015260640161069a565b50505050565b61071d83838360405180602001604052805f815250610c54565b505050565b600e54600d546107329042612923565b11156104645742600d55600f545f818152601060205260409020805461071d92919061075d906127cf565b80601f0160208091040260200160405190810160405280929190818152602001828054610789906127cf565b80156107d45780601f106107ab576101008083540402835291602001916107d4565b820191905f5260205f20905b8154815290600101906020018083116107b757829003601f168201915b50505050506110f2565b5f61048c82610ec9565b60605f60105f8481526020019081526020015f206040518060c00160405290815f82018054610816906127cf565b80601f0160208091040260200160405190810160405280929190818152602001828054610842906127cf565b801561088d5780601f106108645761010080835404028352916020019161088d565b820191905f5260205f20905b81548152906001019060200180831161087057829003601f168201915b505050505081526020016001820180546108a6906127cf565b80601f01602080910402602001604051908101604052809291908181526020018280546108d2906127cf565b801561091d5780601f106108f45761010080835404028352916020019161091d565b820191905f5260205f20905b81548152906001019060200180831161090057829003601f168201915b5050509183525050600291909101546001600160401b038082166020840152600160401b820481166040840152600160801b820481166060840152600160c01b9091048116608092830152908201519192505f911615610981578160800151610984565b60015b90505f816001600160401b03168360a001516001600160401b031684606001516001600160401b03166109b79190612936565b6109c2906064612949565b6109cc9190612974565b90505f6109e26109dd606484612974565b611263565b6109f06109dd606485612987565b604051602001610a019291906129b1565b6040516020818303038152906040529050610a1a6112f2565b610a248583611315565b604051602001610a359291906129d9565b604051602081830303815290604052945050505050919050565b5f6060600e54600d5442610a639190612923565b118015610a735750600854600f54105b915060405180602001604052805f81525090509250929050565b5f6001600160a01b038216610ab7576040516322718ad960e21b81525f600482015260240161069a565b506001600160a01b03165f9081526003602052604090205490565b610ada610e4d565b610ae35f6113a6565b565b6060600180546104a0906127cf565b6104643383836113f7565b60106020525f9081526040902080548190610b19906127cf565b80601f0160208091040260200160405190810160405280929190818152602001828054610b45906127cf565b8015610b905780601f10610b6757610100808354040283529160200191610b90565b820191905f5260205f20905b815481529060010190602001808311610b7357829003601f168201915b505050505090806001018054610ba5906127cf565b80601f0160208091040260200160405190810160405280929190818152602001828054610bd1906127cf565b8015610c1c5780601f10610bf357610100808354040283529160200191610c1c565b820191905f5260205f20905b815481529060010190602001808311610bff57829003601f168201915b505050600290930154919250506001600160401b0380821691600160401b8104821691600160801b8204811691600160c01b90041686565b610c5f848484610675565b6106fd33858585856114be565b60605f610c80610c7b846107e8565b6115e6565b90505f610cb5610c8f85611263565b83604051602001610ca1929190612c12565b6040516020818303038152906040526115e6565b905080604051602001610cc89190612d38565b60405160208183030381529060405292505050919050565b6001600160a01b039182165f90815260056020908152604080832093909416825291909152205460ff1690565b610d15610e4d565b6008546040805160c08101825284815260208082018590525f828401819052606083018190526080830181905260a0830181905284815260109091529190912081518190610d639082612855565b5060208201516001820190610d789082612855565b506040820151600290910180546060840151608085015160a0909501516001600160401b03908116600160c01b026001600160c01b03968216600160801b02969096166001600160801b03928216600160401b026001600160801b03199094169190951617919091171691909117919091179055610df684826115f2565b60088054905f610e0583612d69565b919050555050505050565b610e18610e4d565b6001600160a01b038116610e4157604051631e4fbdf760e01b81525f600482015260240161069a565b610e4a816113a6565b50565b6007546001600160a01b03163314610ae35760405163118cdaa760e01b815233600482015260240161069a565b5f6001600160e01b031982166380ac58cd60e01b1480610eaa57506001600160e01b03198216635b5e139f60e01b145b8061048c57506301ffc9a760e01b6001600160e01b031983161461048c565b5f818152600260205260408120546001600160a01b03168061048c57604051637e27328960e01b81526004810184905260240161069a565b61071d838383600161160b565b805115610f4c5760405162461bcd60e51b815260206004820152600c60248201526b27b930b1b6329022b93937b960a11b604482015260640161069a565b5f8381526011602090815260408220548451909291610f719186018101908601612d81565b5f9283526010602052604092839020600201805467ffffffffffffffff19608084901c6001600160401b03908116600160401b02919091166001600160801b03199685901c8216600160801b0267ffffffffffffffff60801b19928616600160c01b02929092166001600160801b039093169290921717949094169390931760c09190911c1790915550505050565b5f828152600260205260408120546001600160a01b039081169083161561102c5761102c81848661170f565b6001600160a01b03811615611066576110475f855f5f61160b565b6001600160a01b0381165f90815260036020526040902080545f190190555b6001600160a01b03851615611094576001600160a01b0385165f908152600360205260409020805460010190555b5f8481526002602052604080822080546001600160a01b0319166001600160a01b0389811691821790925591518793918516917fddf252ad1be2c89b69c2b068fc378daa952ba7f163c4a11628f55a4df523b3ef91a4949350505050565b5f6111316040805160e08101909152805f81526020015f81526020015f8152602001606081526020016060815260200160608152602001606081525090565b6111cc600c8054611141906127cf565b80601f016020809104026020016040519081016040528092919081815260200182805461116d906127cf565b80156111b85780601f1061118f576101008083540402835291602001916111b8565b820191905f5260205f20905b81548152906001019060200180831161119b57829003601f168201915b50505050508261177390919063ffffffff16565b6040805160018082528183019092525f91816020015b60608152602001906001900390816111e257905050905083815f8151811061120c5761120c612d98565b6020908102919091010152611221828261177f565b61124961122d836117a8565b600b54600a546001600160401b0390911690620493e090611a6c565b5f8181526011602052604090209590955550929392505050565b60605f61126f83611b39565b60010190505f816001600160401b0381111561128d5761128d612373565b6040519080825280601f01601f1916602001820160405280156112b7576020820181803683370190505b5090508181016020015b5f19016f181899199a1a9b1b9c1cb0b131b232b360811b600a86061a8153600a85049450846112c157509392505050565b6060604051806108c0016040528061089481526020016135fe6108949139905090565b6060825f0151836020015161133685604001516001600160401b0316611263565b61134c86606001516001600160401b0316611263565b61136287608001516001600160401b0316611263565b6113788860a001516001600160401b0316611263565b8760405160200161138f9796959493929190612dac565b604051602081830303815290604052905092915050565b600780546001600160a01b038381166001600160a01b0319831681179093556040519116919082907f8be0079c531659141344cd1fd0a4f28419497f9722a3daafe3b4186f6b6457e0905f90a35050565b6001600160a01b0383166114205760405163a9fbf51f60e01b81525f600482015260240161069a565b6001600160a01b03821661145257604051630b61174360e31b81526001600160a01b038316600482015260240161069a565b6001600160a01b038381165f81815260056020908152604080832094871680845294825291829020805460ff191686151590811790915591519182527f17307eab39ab6107e8899845ad3d59bd9653f200f220920489ca2b5937696c31910160405180910390a3505050565b6001600160a01b0383163b156115df57604051630a85bd0160e11b81526001600160a01b0384169063150b7a029061150090889088908790879060040161345c565b6020604051808303815f875af192505050801561153a575060408051601f3d908101601f1916820190925261153791810190613498565b60015b6115a1573d808015611567576040519150601f19603f3d011682016040523d82523d5f602084013e61156c565b606091505b5080515f0361159957604051633250574960e11b81526001600160a01b038516600482015260240161069a565b805160208201fd5b6001600160e01b03198116630a85bd0160e11b146115dd57604051633250574960e11b81526001600160a01b038516600482015260240161069a565b505b5050505050565b606061048c825f611c10565b610464828260405180602001604052805f815250611d8f565b808061161f57506001600160a01b03821615155b156116e0575f61162e84610ec9565b90506001600160a01b0383161580159061165a5750826001600160a01b0316816001600160a01b031614155b801561166d575061166b8184610ce0565b155b156116965760405163a9fbf51f60e01b81526001600160a01b038416600482015260240161069a565b81156116de5783856001600160a01b0316826001600160a01b03167f8c5be1e5ebec7d5bd14f71427d1e84f3dd0314c0f7b2291e5b200ac8c7c3b92560405160405180910390a45b505b50505f90815260046020526040902080546001600160a01b0319166001600160a01b0392909216919091179055565b61171a838383611da6565b61071d576001600160a01b03831661174857604051637e27328960e01b81526004810182905260240161069a565b60405163177e802f60e01b81526001600160a01b03831660048201526024810182905260440161069a565b610464825f5f84611e0a565b80515f036117a05760405163fe936cb760e01b815260040160405180910390fd5b60a090910152565b60605f6117b6610100611e87565b90506117ef6040518060400160405280600c81526020016b31b7b232a637b1b0ba34b7b760a11b81525082611ea790919063ffffffff16565b825161180d906002811115611806576118066134b3565b8290611ec0565b6040805180820190915260088152676c616e677561676560c01b6020820152611837908290611ea7565b604083015161184e908015611806576118066134b3565b604080518082019091526006815265736f7572636560d01b6020820152611876908290611ea7565b6060830151611886908290611ea7565b60a08301515115611911576040805180820190915260048152636172677360e01b60208201526118b7908290611ea7565b6118c081611ef9565b5f5b8360a0015151811015611907576118ff8460a0015182815181106118e8576118e8612d98565b602002602001015183611ea790919063ffffffff16565b6001016118c2565b5061191181611f1d565b608083015151156119d4575f83602001516002811115611933576119336134b3565b036119515760405163a80d31f760e01b815260040160405180910390fd5b60408051808201909152600f81526e39b2b1b932ba39a637b1b0ba34b7b760891b6020820152611982908290611ea7565b61199b83602001516002811115611806576118066134b3565b6040805180820190915260078152667365637265747360c81b60208201526119c4908290611ea7565b60808301516119d4908290611f3b565b60c08301515115611a645760408051808201909152600981526862797465734172677360b81b6020820152611a0a908290611ea7565b611a1381611ef9565b5f5b8360c0015151811015611a5a57611a528460c001518281518110611a3b57611a3b612d98565b602002602001015183611f3b90919063ffffffff16565b600101611a15565b50611a6481611f1d565b515192915050565b5f5f7f00000000000000000000000000000000000000000000000000000000000000006001600160a01b031663461d27628688600188886040518663ffffffff1660e01b8152600401611ac39594939291906134c7565b6020604051808303815f875af1158015611adf573d5f5f3e3d5ffd5b505050506040513d601f19601f82011682018060405250810190611b039190612d81565b60405190915081907f1131472297a800fee664d1d89cfa8f7676ff07189ecc53f80bbb5f4969099db8905f90a295945050505050565b5f8072184f03e93ff9f4daa797ed6e38ed64bf6a1f0160401b8310611b775772184f03e93ff9f4daa797ed6e38ed64bf6a1f0160401b830492506040015b6d04ee2d6d415b85acef81000000008310611ba3576d04ee2d6d415b85acef8100000000830492506020015b662386f26fc100008310611bc157662386f26fc10000830492506010015b6305f5e1008310611bd9576305f5e100830492506008015b6127108310611bed57612710830492506004015b60648310611bff576064830492506002015b600a831061048c5760010192915050565b606082515f03611c2e575060408051602081019091525f815261048c565b5f82611c5e57600384516002611c449190612936565b611c4e9190612974565b611c59906004612949565b611c83565b600384516004611c6e9190612949565b611c79906002612936565b611c839190612974565b905060405191507f4142434445464748494a4b4c4d4e4f505152535455565758595a616263646566601f5261067083027f6768696a6b6c6d6e6f707172737475767778797a303132333435363738392b2f18603f526020820181810185865187016020810180515f82525b82841015611d41576003840193508351603f8160121c16518753600187019650603f81600c1c16518753600187019650603f8160061c16518753600187019650603f811651875350600186019550611cee565b905250859050611d8257600386510660018114611d655760028114611d7857611d80565b603d6001840353603d6002840353611d80565b603d60018403535b505b9183525060405292915050565b611d998383611f48565b61071d335f8585856114be565b5f6001600160a01b03831615801590611e025750826001600160a01b0316846001600160a01b03161480611ddf5750611ddf8484610ce0565b80611e0257505f828152600460205260409020546001600160a01b038481169116145b949350505050565b80515f03611e2b576040516322ce3edd60e01b815260040160405180910390fd5b83836002811115611e3e57611e3e6134b3565b90816002811115611e5157611e516134b3565b90525060408401828015611e6757611e676134b3565b90818015611e7757611e776134b3565b9052506060909301929092525050565b611e8f612340565b8051611e9b9083611fa9565b505f6020820152919050565b611eb4826003835161201d565b815161071d9082612136565b8151611ecd9060c261215d565b506104648282604051602001611ee591815260200190565b604051602081830303815290604052611f3b565b611f048160046121c4565b600181602001818151611f179190612936565b90525050565b611f288160076121c4565b600181602001818151611f179190612923565b611eb4826002835161201d565b6001600160a01b038216611f7157604051633250574960e11b81525f600482015260240161069a565b5f611f7d83835f611000565b90506001600160a01b0381161561071d576040516339e3563760e11b81525f600482015260240161069a565b60408051808201909152606081525f6020820152611fc8602083612987565b15611ff057611fd8602083612987565b611fe3906020612923565b611fed9083612936565b91505b60208084018390526040518085525f8152908184010181811015612012575f5ffd5b604052509192915050565b6017816001600160401b0316116120435782516106fd9060e0600585901b16831761215d565b60ff816001600160401b03161161208357825161206b906018611fe0600586901b161761215d565b5082516106fd906001600160401b03831660016121db565b61ffff816001600160401b0316116120c45782516120ac906019611fe0600586901b161761215d565b5082516106fd906001600160401b03831660026121db565b63ffffffff816001600160401b0316116121075782516120ef90601a611fe0600586901b161761215d565b5082516106fd906001600160401b03831660046121db565b825161211e90601b611fe0600586901b161761215d565b5082516106fd906001600160401b03831660086121db565b60408051808201909152606081525f60208201526121568383845161225d565b9392505050565b60408051808201909152606081525f60208201528251515f612180826001612936565b9050846020015182106121a1576121a18561219c836002612949565b612329565b84516020838201018581535080518211156121ba578181525b5093949350505050565b815161071d90601f611fe0600585901b161761215d565b60408051808201909152606081525f60208201528351515f6121fd8285612936565b9050856020015181111561221a5761221a8661219c836002612949565b5f6001612229866101006135f2565b6122339190612923565b90508651828101878319825116178152508051831115612251578281525b50959695505050505050565b60408051808201909152606081525f6020820152825182111561227e575f5ffd5b8351515f61228c8483612936565b905085602001518111156122a9576122a98661219c836002612949565b85518051838201602001915f91808511156122c2578482525b505050602086015b6020861061230257805182526122e1602083612936565b91506122ee602082612936565b90506122fb602087612923565b95506122ca565b5181515f1960208890036101000a0190811690199190911617905250849150509392505050565b81516123358383611fa9565b506106fd8382612136565b60405180604001604052806123676040518060400160405280606081526020015f81525090565b81526020015f81525090565b634e487b7160e01b5f52604160045260245ffd5b5f82601f830112612396575f5ffd5b8135602083015f5f6001600160401b038411156123b5576123b5612373565b50604051601f19601f85018116603f011681018181106001600160401b03821117156123e3576123e3612373565b6040528381529050808284018710156123fa575f5ffd5b838360208301375f602085830101528094505050505092915050565b5f60208284031215612426575f5ffd5b81356001600160401b0381111561243b575f5ffd5b611e0284828501612387565b6001600160e01b031981168114610e4a575f5ffd5b5f6020828403121561246c575f5ffd5b813561215681612447565b5f81518084528060208401602086015e5f602082860101526020601f19601f83011685010191505092915050565b602081525f6121566020830184612477565b5f602082840312156124c7575f5ffd5b5035919050565b80356001600160a01b03811681146124e4575f5ffd5b919050565b5f5f604083850312156124fa575f5ffd5b612503836124ce565b946020939093013593505050565b5f5f5f60608486031215612523575f5ffd5b8335925060208401356001600160401b0381111561253f575f5ffd5b61254b86828701612387565b92505060408401356001600160401b03811115612566575f5ffd5b61257286828701612387565b9150509250925092565b5f5f6040838503121561258d575f5ffd5b50508035926020909101359150565b5f5f5f606084860312156125ae575f5ffd5b6125b7846124ce565b92506125c5602085016124ce565b929592945050506040919091013590565b5f5f602083850312156125e7575f5ffd5b82356001600160401b038111156125fc575f5ffd5b8301601f8101851361260c575f5ffd5b80356001600160401b03811115612621575f5ffd5b856020828401011115612632575f5ffd5b6020919091019590945092505050565b8215158152604060208201525f611e026040830184612477565b5f6020828403121561266c575f5ffd5b612156826124ce565b5f5f60408385031215612686575f5ffd5b61268f836124ce565b9150602083013580151581146126a3575f5ffd5b809150509250929050565b60c081525f6126c060c0830189612477565b82810360208401526126d28189612477565b6001600160401b03978816604085015295871660608401525050918416608083015290921660a09092019190915292915050565b5f5f5f5f60808587031215612719575f5ffd5b612722856124ce565b9350612730602086016124ce565b92506040850135915060608501356001600160401b03811115612751575f5ffd5b61275d87828801612387565b91505092959194509250565b5f5f6040838503121561277a575f5ffd5b612783836124ce565b9150612791602084016124ce565b90509250929050565b5f5f5f606084860312156127ac575f5ffd5b6127b5846124ce565b925060208401356001600160401b0381111561253f575f5ffd5b600181811c908216806127e357607f821691505b60208210810361280157634e487b7160e01b5f52602260045260245ffd5b50919050565b601f82111561071d578282111561071d57805f5260205f20601f840160051c602085101561283257505f5b90810190601f840160051c035f5b818110156115dd575f83820155600101612840565b81516001600160401b0381111561286e5761286e612373565b6128828161287c84546127cf565b84612807565b6020601f8211600181146128b4575f831561289d5750848201515b5f19600385901b1c1916600184901b1784556115df565b5f84815260208120601f198516915b828110156128e357878501518255602094850194600190920191016128c3565b508482101561290057868401515f19600387901b60f8161c191681555b50505050600190811b01905550565b634e487b7160e01b5f52601160045260245ffd5b8181038181111561048c5761048c61290f565b8082018082111561048c5761048c61290f565b808202811582820484141761048c5761048c61290f565b634e487b7160e01b5f52601260045260245ffd5b5f8261298257612982612960565b500490565b5f8261299557612995612960565b500690565b5f81518060208401855e5f93019283525090919050565b5f6129bc828561299a565b601760f91b81526129d0600182018561299a565b95945050505050565b7f3c7376672077696474683d2233323022206865696768743d223430302220766981527f6577426f783d2230203020333230203430302220786d6c6e733d22687474703a60208201527f2f2f7777772e77332e6f72672f323030302f737667223e00000000000000000060408201527f3c672073686170652d72656e646572696e673d2263726973704564676573223e60578201527f3c7265637420783d22302220793d2230222077696474683d223332302220686560778201527f696768743d22343030222066696c6c3d2223313531353135222f3e3c7265637460978201527f20783d22382220793d2238222077696474683d2233303422206865696768743d60b78201527f22333834222066696c6c3d2223303232663532222f3e3c7465787420783d223160d78201527f36302220793d223430222066696c6c3d22236563663066312220666f6e742d7360f78201527f697a653d2232302220746578742d616e63686f723d226d6964646c652220666f6101178201527f6e742d7765696768743d22626f6c64223e504c4159455220434152443c2f74656101378201527f78743e3c6c696e652078313d223230222079313d223535222078323d223330306101578201527f222079323d22353522207374726f6b653d222365636630663122207374726f6b610177820152703296bbb4b23a341e911a11179f1e17b39f60791b6101978201525f612bfb612bf56101a884018661299a565b8461299a565b651e17b9bb339f60d11b8152600601949350505050565b7f7b226e616d65223a20224b617274752050656d61696e204d504c20494420230081525f612c43601f83018561299a565b6201116160ed1b81527f226465736372697074696f6e223a20224b6172747520644e4654204d504c204960038201527f6e646f6e657369612e2053746174697374696b2070656d61696e20646970657260238201527f626172756920736563617261207265616c2d74696d652064617269204150492060438201527f6d656c616c756920436861696e6c696e6b2046756e6374696f6e732e222c200060638201527f22696d616765223a2022646174613a696d6167652f7376672b786d6c3b626173608282015263194d8d0b60e21b60a2820152612d2460a682018561299a565b61227d60f01b815260020195945050505050565b7f646174613a6170706c69636174696f6e2f6a736f6e3b6261736536342c00000081525f612156601d83018461299a565b5f60018201612d7a57612d7a61290f565b5060010190565b5f60208284031215612d91575f5ffd5b5051919050565b634e487b7160e01b5f52603260045260245ffd5b7f3c67207472616e73666f726d3d227472616e736c617465283138302c2031303081527f29222073686170652d72656e646572696e673d2263726973704564676573223e60208201527f3c7465787420783d222d33302220793d223230222066696c6c3d22233334393860408201527f64622220666f6e742d73697a653d223134223e504c41594552204e414d453a3c60608201527f2f746578743e3c7465787420783d222d33302220793d223530222066696c6c3d60808201527f22236563663066312220666f6e742d73697a653d2232342220666f6e742d776560a08201526b34b3b43a1e913137b632111f60a11b60c08201525f612fed612fe7612f3d612eb960cc86018d61299a565b7f3c2f746578743e3c6c696e652078313d222d3235222079313d2237352220783281527f3d22313230222079323d22373522207374726f6b653d2223353535222073747260208201527f6f6b652d77696474683d223422207374726f6b652d6461736861727261793d226040820152651c161b11179f60d11b606082015260660190565b7f3c7465787420783d222d33302220793d22313030222066696c6c3d222365636681527f3066312220666f6e742d73697a653d223134223e4c414e453a3c2f746578743e60208201527f3c7465787420783d223132302220793d22313030222066696c6c3d222365636660408201527f3066312220666f6e742d73697a653d2231342220746578742d616e63686f723d6060820152651132b732111f60d11b608082015260860190565b8961299a565b661e17ba32bc3a1f60c91b81527f3c7465787420783d222d33302220793d22313235222066696c6c3d222365636660078201527f3066312220666f6e742d73697a653d223134223e47414d453a3c2f746578743e60278201527f3c7465787420783d223132302220793d22313235222066696c6c3d222365636660478201527f3066312220666f6e742d73697a653d2231342220746578742d616e63686f723d6067820152651132b732111f60d11b60878201526130ad608d8201612fe7565b661e17ba32bc3a1f60c91b815290507f3c7465787420783d222d33302220793d22313530222066696c6c3d222365636660078201527f3066312220666f6e742d73697a653d223134223e4b494c4c533a3c2f7465787460278201527f3e3c7465787420783d223132302220793d22313530222066696c6c3d2223656360478201527f663066312220666f6e742d73697a653d2231342220746578742d616e63686f726067820152661e9132b732111f60c91b6087820152613171608e82018861299a565b661e17ba32bc3a1f60c91b815290507f3c7465787420783d222d33302220793d22313735222066696c6c3d222365636660078201527f3066312220666f6e742d73697a653d223134223e4445415448533a3c2f74657860278201527f743e3c7465787420783d223132302220793d22313735222066696c6c3d22236560478201527f63663066312220666f6e742d73697a653d2231342220746578742d616e63686f606782015267391e9132b732111f60c11b6087820152613236608f82018761299a565b661e17ba32bc3a1f60c91b815290507f3c7465787420783d222d33302220793d22323030222066696c6c3d222365636660078201527f3066312220666f6e742d73697a653d223134223e415353495354533a3c2f746560278201527f78743e3c7465787420783d223132302220793d22323030222066696c6c3d222360478201527f6563663066312220666f6e742d73697a653d2231342220746578742d616e636860678201526837b91e9132b732111f60b91b60878201526132fc609082018661299a565b661e17ba32bc3a1f60c91b815290507f3c7465787420783d222d33302220793d22323235222066696c6c3d222365636660078201527f3066312220666f6e742d73697a653d223134223e4b44413a3c2f746578743e3c60278201527f7465787420783d223132302220793d22323235222066696c6c3d22236563663060478201527f66312220666f6e742d73697a653d2231342220746578742d616e63686f723d2260678201526432b732111f60d91b60878201526133be608c82018561299a565b661e17ba32bc3a1f60c91b81527f3c6c696e652078313d222d3330222079313d22323430222078323d223132302260078201527f2079323d2232343022207374726f6b653d222335353522207374726f6b652d7760278201527f696474683d223422207374726f6b652d6461736861727261793d22382c36222f6047820152641f1e17b39f60d91b6067820152606c019a9950505050505050505050565b6001600160a01b03858116825284166020820152604081018390526080606082018190525f9061348e90830184612477565b9695505050505050565b5f602082840312156134a8575f5ffd5b815161215681612447565b634e487b7160e01b5f52602160045260245ffd5b6001600160401b038616815260a060208201525f6134e860a0830187612477565b61ffff9590951660408301525063ffffffff92909216606083015260809091015292915050565b6001815b600184111561354a5780850481111561352e5761352e61290f565b600184161561353c57908102905b60019390931c928002613513565b935093915050565b5f826135605750600161048c565b8161356c57505f61048c565b8160018114613582576002811461358c576135a8565b600191505061048c565b60ff84111561359d5761359d61290f565b50506001821b61048c565b5060208310610133831016604e8410600b84101617156135cb575081810a61048c565b6135d75f19848461350f565b805f19048211156135ea576135ea61290f565b029392505050565b5f612156838361355256fe3c73766720783d2231302220793d223330222077696474683d2231343022206865696768743d22333830222076696577426f783d22302030203332203332222073686170652d72656e646572696e673d2263726973704564676573223e3c67207472616e73666f726d3d227472616e736c6174652833322c203029207363616c65282d312c203129223e3c706174682066696c6c3d22233030303030302220643d224d3131203268313076314831317a204d3920336832763148397a204d32312033683276314832317a204d3820346831763148387a204d32332034683176314832337a204d3820356831763148387a204d32342035683176314832347a204d3820366831763148387a204d32342036683176314832347a204d3820376831763148387a204d32342037683176314832347a204d3820386831763148387a204d32342038683176314832347a204d3920396831763148397a204d32342039683176314832347a204d392031306831763148397a204d3233203130683176314832337a204d392031316831763148397a204d3132203131683276314831327a204d3138203131683276314831387a204d3233203131683176314832337a204d392031326831763148397a204d3233203132683176314832337a204d3130203133683176314831307a204d3232203133683176314832327a204d3130203134683176314831307a204d3232203134683176314832327a204d3130203135683176314831307a204d3232203135683176314832327a204d3131203136683176314831317a204d3231203136683176314832317a204d3131203137683176314831317a204d3231203137683176314832317a204d3132203138683176314831327a204d3230203138683176314832307a204d3132203139683176314831327a204d3230203139683176314832307a204d3131203230683176314831317a204d3231203230683176314832317a204d392032316832763148397a204d3232203231683276314832327a204d372032326832763148377a204d3234203232683276314832347a204d362032336831763148367a204d3236203233683176314832367a204d352032346831763148357a204d3237203234683176314832377a204d342032356831763148347a204d3238203235683176314832387a204d332032366831763148337a204d3239203236683176314832397a204d332032376831763148337a204d3239203237683176314832397a204d332032386831763148337a204d3239203238683176314832397a204d332032396831763148337a204d3239203239683176314832397a204d332033306831763148337a204d3239203330683176314832397a204d33203331683237763148337a22202f3e3c706174682066696c6c3d22233030303030302220643d224d3131203368313076314831317a204d392034683134763148397a204d392035683135763148397a204d392036683135763148397a204d392037683135763148397a204d3920386833763148397a204d32302038683476314832307a204d31302039683276314831307a204d32322039683276314832327a204d3130203130683176314831307a204d3232203130683176314832327a22202f3e3c706174682066696c6c3d22236534623539302220643d224d31322038683876314831327a204d3132203968313076314831327a204d313120313068313176314831317a204d3130203131683276314831307a204d3134203131683476314831347a204d3230203131683376314832307a204d313020313268313376314831307a204d3131203133683476314831317a204d3137203133683576314831377a204d313120313468313176314831317a204d3131203135683376314831317a204d3138203135683476314831387a204d3132203136683976314831327a204d3132203137683976314831327a204d3133203138683776314831337a22202f3e3c706174682066696c6c3d22236335393437332220643d224d3135203133683276314831357a204d3133203139683776314831337a204d3134203230683576314831347a22202f3e3c706174682066696c6c3d22236264366134662220643d224d3134203135683476314831347a22202f3e3c706174682066696c6c3d22236666666666662220643d224d3132203230683276314831327a204d3139203230683276314831397a204d3131203231683376314831317a204d3139203231683376314831397a204d392032326834763148397a204d3230203232683476314832307a204d372032336835763148377a204d3231203233683576314832317a204d362032346835763148367a204d3232203234683576314832327a204d352032356835763148357a204d3133203235683276314831337a204d3136203235683276314831367a204d3139203235683276314831397a204d3233203235683576314832337a204d342032366835763148347a204d3234203236683576314832347a204d342032376834763148347a204d3235203237683476314832357a204d342032386834763148347a204d3235203238683476314832357a204d342032396834763148347a204d3235203239683476314832357a204d362033306832763148367a204d3235203330683276314832357a22202f3e3c706174682066696c6c3d22236566383131352220643d224d3134203231683576314831347a204d3133203232683776314831337a204d3132203233683976314831327a204d313120323468313176314831317a204d3130203235683376314831307a204d3135203235683176314831357a204d3138203235683176314831387a204d3231203235683276314832317a204d39203236683135763148397a204d38203237683137763148387a204d38203238683137763148387a204d38203239683137763148387a204d342033306832763148347a204d38203330683137763148387a204d3237203330683276314832377a22202f3e3c2f673e3c2f7376673ea2646970667358221220f0b89f1b32cf56c631777275cc920d650efa9d05015dca3d306c06f4e72ab69e64736f6c63430008220033",
			"opcodes": "PUSH1 0xA0 PUSH1 0x40 MSTORE PUSH1 0x9 DUP1 SLOAD PUSH1 0x1 PUSH1 0x1 PUSH1 0xA0 SHL SUB NOT AND PUSH20 0xB83E47C2BC239B3BF370BC41E1459A34B41238D0 OR SWAP1 SSTORE PUSH32 0x66756E2D657468657265756D2D7365706F6C69612D3100000000000000000000 PUSH1 0xA SSTORE PUSH3 0x15180 PUSH1 0xE SSTORE CALLVALUE DUP1 ISZERO PUSH2 0x60 JUMPI PUSH0 PUSH0 REVERT JUMPDEST POP PUSH1 0x40 MLOAD PUSH2 0x421D CODESIZE SUB DUP1 PUSH2 0x421D DUP4 CODECOPY DUP2 ADD PUSH1 0x40 DUP2 SWAP1 MSTORE PUSH2 0x7F SWAP2 PUSH2 0x1A9 JUMP JUMPDEST PUSH1 0x9 SLOAD PUSH1 0x40 DUP1 MLOAD DUP1 DUP3 ADD DUP3 MSTORE PUSH1 0xE DUP2 MSTORE PUSH14 0x26A8261026B7B232B61021102B19 PUSH1 0x91 SHL PUSH1 0x20 DUP1 DUP4 ADD SWAP2 SWAP1 SWAP2 MSTORE DUP3 MLOAD DUP1 DUP5 ADD SWAP1 SWAP4 MSTORE PUSH1 0x5 DUP4 MSTORE PUSH5 0x26A8262119 PUSH1 0xD9 SHL SWAP1 DUP4 ADD MSTORE PUSH1 0x1 PUSH1 0x1 PUSH1 0xA0 SHL SUB SWAP1 SWAP3 AND SWAP2 CALLER SWAP2 PUSH0 PUSH2 0xDC DUP4 DUP3 PUSH2 0x279 JUMP JUMPDEST POP PUSH1 0x1 PUSH2 0xE9 DUP3 DUP3 PUSH2 0x279 JUMP JUMPDEST POP POP POP PUSH1 0x1 PUSH1 0x1 PUSH1 0xA0 SHL SUB DUP2 AND PUSH2 0x119 JUMPI PUSH1 0x40 MLOAD PUSH4 0x1E4FBDF7 PUSH1 0xE0 SHL DUP2 MSTORE PUSH0 PUSH1 0x4 DUP3 ADD MSTORE PUSH1 0x24 ADD PUSH1 0x40 MLOAD DUP1 SWAP2 SUB SWAP1 REVERT JUMPDEST PUSH2 0x122 DUP2 PUSH2 0x158 JUMP JUMPDEST POP PUSH1 0x1 PUSH1 0x1 PUSH1 0xA0 SHL SUB AND PUSH1 0x80 MSTORE PUSH1 0xB DUP1 SLOAD PUSH1 0x1 PUSH1 0x1 PUSH1 0x40 SHL SUB NOT AND PUSH1 0x1 PUSH1 0x1 PUSH1 0x40 SHL SUB SWAP3 SWAP1 SWAP3 AND SWAP2 SWAP1 SWAP2 OR SWAP1 SSTORE TIMESTAMP PUSH1 0xD SSTORE PUSH2 0x337 JUMP JUMPDEST PUSH1 0x7 DUP1 SLOAD PUSH1 0x1 PUSH1 0x1 PUSH1 0xA0 SHL SUB DUP4 DUP2 AND PUSH1 0x1 PUSH1 0x1 PUSH1 0xA0 SHL SUB NOT DUP4 AND DUP2 OR SWAP1 SWAP4 SSTORE PUSH1 0x40 MLOAD SWAP2 AND SWAP2 SWAP1 DUP3 SWAP1 PUSH32 0x8BE0079C531659141344CD1FD0A4F28419497F9722A3DAAFE3B4186F6B6457E0 SWAP1 PUSH0 SWAP1 LOG3 POP POP JUMP JUMPDEST PUSH0 PUSH1 0x20 DUP3 DUP5 SUB SLT ISZERO PUSH2 0x1B9 JUMPI PUSH0 PUSH0 REVERT JUMPDEST DUP2 MLOAD PUSH1 0x1 PUSH1 0x1 PUSH1 0x40 SHL SUB DUP2 AND DUP2 EQ PUSH2 0x1CF JUMPI PUSH0 PUSH0 REVERT JUMPDEST SWAP4 SWAP3 POP POP POP JUMP JUMPDEST PUSH4 0x4E487B71 PUSH1 0xE0 SHL PUSH0 MSTORE PUSH1 0x41 PUSH1 0x4 MSTORE PUSH1 0x24 PUSH0 REVERT JUMPDEST PUSH1 0x1 DUP2 DUP2 SHR SWAP1 DUP3 AND DUP1 PUSH2 0x1FE JUMPI PUSH1 0x7F DUP3 AND SWAP2 POP JUMPDEST PUSH1 0x20 DUP3 LT DUP2 SUB PUSH2 0x21C JUMPI PUSH4 0x4E487B71 PUSH1 0xE0 SHL PUSH0 MSTORE PUSH1 0x22 PUSH1 0x4 MSTORE PUSH1 0x24 PUSH0 REVERT JUMPDEST POP SWAP2 SWAP1 POP JUMP JUMPDEST PUSH1 0x1F DUP3 GT ISZERO PUSH2 0x274 JUMPI DUP3 DUP3 GT ISZERO PUSH2 0x274 JUMPI DUP1 PUSH0 MSTORE PUSH1 0x20 PUSH0 KECCAK256 PUSH1 0x1F DUP5 ADD PUSH1 0x5 SHR PUSH1 0x20 DUP6 LT ISZERO PUSH2 0x24D JUMPI POP PUSH0 JUMPDEST SWAP1 DUP2 ADD SWAP1 PUSH1 0x1F DUP5 ADD PUSH1 0x5 SHR SUB PUSH0 JUMPDEST DUP2 DUP2 LT ISZERO PUSH2 0x270 JUMPI PUSH0 DUP4 DUP3 ADD SSTORE PUSH1 0x1 ADD PUSH2 0x25B JUMP JUMPDEST POP POP POP JUMPDEST POP POP POP JUMP JUMPDEST DUP2 MLOAD PUSH1 0x1 PUSH1 0x1 PUSH1 0x40 SHL SUB DUP2 GT ISZERO PUSH2 0x292 JUMPI PUSH2 0x292 PUSH2 0x1D6 JUMP JUMPDEST PUSH2 0x2A6 DUP2 PUSH2 0x2A0 DUP5 SLOAD PUSH2 0x1EA JUMP JUMPDEST DUP5 PUSH2 0x222 JUMP JUMPDEST PUSH1 0x20 PUSH1 0x1F DUP3 GT PUSH1 0x1 DUP2 EQ PUSH2 0x2D8 JUMPI PUSH0 DUP4 ISZERO PUSH2 0x2C1 JUMPI POP DUP5 DUP3 ADD MLOAD JUMPDEST PUSH0 NOT PUSH1 0x3 DUP6 SWAP1 SHL SHR NOT AND PUSH1 0x1 DUP5 SWAP1 SHL OR DUP5 SSTORE PUSH2 0x330 JUMP JUMPDEST PUSH0 DUP5 DUP2 MSTORE PUSH1 0x20 DUP2 KECCAK256 PUSH1 0x1F NOT DUP6 AND SWAP2 JUMPDEST DUP3 DUP2 LT ISZERO PUSH2 0x307 JUMPI DUP8 DUP6 ADD MLOAD DUP3 SSTORE PUSH1 0x20 SWAP5 DUP6 ADD SWAP5 PUSH1 0x1 SWAP1 SWAP3 ADD SWAP2 ADD PUSH2 0x2E7 JUMP JUMPDEST POP DUP5 DUP3 LT ISZERO PUSH2 0x324 JUMPI DUP7 DUP5 ADD MLOAD PUSH0 NOT PUSH1 0x3 DUP8 SWAP1 SHL PUSH1 0xF8 AND SHR NOT AND DUP2 SSTORE JUMPDEST POP POP PUSH1 0x1 DUP4 PUSH1 0x1 SHL ADD DUP5 SSTORE JUMPDEST POP POP POP POP POP JUMP JUMPDEST PUSH1 0x80 MLOAD PUSH2 0x3EC7 PUSH2 0x356 PUSH0 CODECOPY PUSH0 DUP2 DUP2 PUSH2 0x55E ADD MSTORE PUSH2 0x1A70 ADD MSTORE PUSH2 0x3EC7 PUSH0 RETURN INVALID PUSH1 0x80 PUSH1 0x40 MSTORE CALLVALUE DUP1 ISZERO PUSH2 0xF JUMPI PUSH0 PUSH0 REVERT JUMPDEST POP PUSH1 0x4 CALLDATASIZE LT PUSH2 0x1D0 JUMPI PUSH0 CALLDATALOAD PUSH1 0xE0 SHR DUP1 PUSH4 0x6DCEE4CA GT PUSH2 0xFE JUMPI DUP1 PUSH4 0x95D89B41 GT PUSH2 0x9E JUMPI DUP1 PUSH4 0xC87B56DD GT PUSH2 0x6E JUMPI DUP1 PUSH4 0xC87B56DD EQ PUSH2 0x404 JUMPI DUP1 PUSH4 0xE985E9C5 EQ PUSH2 0x417 JUMPI DUP1 PUSH4 0xECA81D42 EQ PUSH2 0x42A JUMPI DUP1 PUSH4 0xF2FDE38B EQ PUSH2 0x43D JUMPI PUSH0 PUSH0 REVERT JUMPDEST DUP1 PUSH4 0x95D89B41 EQ PUSH2 0x3B1 JUMPI DUP1 PUSH4 0xA22CB465 EQ PUSH2 0x3B9 JUMPI DUP1 PUSH4 0xB4CFAE44 EQ PUSH2 0x3CC JUMPI DUP1 PUSH4 0xB88D4FDE EQ PUSH2 0x3F1 JUMPI PUSH0 PUSH0 REVERT JUMPDEST DUP1 PUSH4 0x715018A6 GT PUSH2 0xD9 JUMPI DUP1 PUSH4 0x715018A6 EQ PUSH2 0x386 JUMPI DUP1 PUSH4 0x8DA5CB5B EQ PUSH2 0x38E JUMPI DUP1 PUSH4 0x947A36FB EQ PUSH2 0x39F JUMPI DUP1 PUSH4 0x94881476 EQ PUSH2 0x3A8 JUMPI PUSH0 PUSH0 REVERT JUMPDEST DUP1 PUSH4 0x6DCEE4CA EQ PUSH2 0x33F JUMPI DUP1 PUSH4 0x6E04FF0D EQ PUSH2 0x352 JUMPI DUP1 PUSH4 0x70A08231 EQ PUSH2 0x373 JUMPI PUSH0 PUSH0 REVERT JUMPDEST DUP1 PUSH4 0x13C60177 GT PUSH2 0x174 JUMPI DUP1 PUSH4 0x42842E0E GT PUSH2 0x144 JUMPI DUP1 PUSH4 0x42842E0E EQ PUSH2 0x2E7 JUMPI DUP1 PUSH4 0x4585E33B EQ PUSH2 0x2FA JUMPI DUP1 PUSH4 0x6352211E EQ PUSH2 0x30D JUMPI DUP1 PUSH4 0x68015A4B EQ PUSH2 0x320 JUMPI PUSH0 PUSH0 REVERT JUMPDEST DUP1 PUSH4 0x13C60177 EQ PUSH2 0x2A2 JUMPI DUP1 PUSH4 0x22E817E2 EQ PUSH2 0x2AA JUMPI DUP1 PUSH4 0x23B872DD EQ PUSH2 0x2BD JUMPI DUP1 PUSH4 0x3F3B3B27 EQ PUSH2 0x2D0 JUMPI PUSH0 PUSH0 REVERT JUMPDEST DUP1 PUSH4 0x81812FC GT PUSH2 0x1AF JUMPI DUP1 PUSH4 0x81812FC EQ PUSH2 0x226 JUMPI DUP1 PUSH4 0x95EA7B3 EQ PUSH2 0x251 JUMPI DUP1 PUSH4 0x9C1BA2E EQ PUSH2 0x264 JUMPI DUP1 PUSH4 0xCA76175 EQ PUSH2 0x28F JUMPI PUSH0 PUSH0 REVERT JUMPDEST DUP1 PUSH3 0xB46767 EQ PUSH2 0x1D4 JUMPI DUP1 PUSH4 0x1FFC9A7 EQ PUSH2 0x1E9 JUMPI DUP1 PUSH4 0x6FDDE03 EQ PUSH2 0x211 JUMPI JUMPDEST PUSH0 PUSH0 REVERT JUMPDEST PUSH2 0x1E7 PUSH2 0x1E2 CALLDATASIZE PUSH1 0x4 PUSH2 0x2416 JUMP JUMPDEST PUSH2 0x450 JUMP JUMPDEST STOP JUMPDEST PUSH2 0x1FC PUSH2 0x1F7 CALLDATASIZE PUSH1 0x4 PUSH2 0x245C JUMP JUMPDEST PUSH2 0x468 JUMP JUMPDEST PUSH1 0x40 MLOAD SWAP1 ISZERO ISZERO DUP2 MSTORE PUSH1 0x20 ADD JUMPDEST PUSH1 0x40 MLOAD DUP1 SWAP2 SUB SWAP1 RETURN JUMPDEST PUSH2 0x219 PUSH2 0x492 JUMP JUMPDEST PUSH1 0x40 MLOAD PUSH2 0x208 SWAP2 SWAP1 PUSH2 0x24A5 JUMP JUMPDEST PUSH2 0x239 PUSH2 0x234 CALLDATASIZE PUSH1 0x4 PUSH2 0x24B7 JUMP JUMPDEST PUSH2 0x521 JUMP JUMPDEST PUSH1 0x40 MLOAD PUSH1 0x1 PUSH1 0x1 PUSH1 0xA0 SHL SUB SWAP1 SWAP2 AND DUP2 MSTORE PUSH1 0x20 ADD PUSH2 0x208 JUMP JUMPDEST PUSH2 0x1E7 PUSH2 0x25F CALLDATASIZE PUSH1 0x4 PUSH2 0x24E9 JUMP JUMPDEST PUSH2 0x548 JUMP JUMPDEST PUSH1 0xB SLOAD PUSH2 0x277 SWAP1 PUSH1 0x1 PUSH1 0x1 PUSH1 0x40 SHL SUB AND DUP2 JUMP JUMPDEST PUSH1 0x40 MLOAD PUSH1 0x1 PUSH1 0x1 PUSH1 0x40 SHL SUB SWAP1 SWAP2 AND DUP2 MSTORE PUSH1 0x20 ADD PUSH2 0x208 JUMP JUMPDEST PUSH2 0x1E7 PUSH2 0x29D CALLDATASIZE PUSH1 0x4 PUSH2 0x2511 JUMP JUMPDEST PUSH2 0x553 JUMP JUMPDEST PUSH2 0x219 PUSH2 0x5D6 JUMP JUMPDEST PUSH2 0x1E7 PUSH2 0x2B8 CALLDATASIZE PUSH1 0x4 PUSH2 0x257C JUMP JUMPDEST PUSH2 0x662 JUMP JUMPDEST PUSH2 0x1E7 PUSH2 0x2CB CALLDATASIZE PUSH1 0x4 PUSH2 0x259C JUMP JUMPDEST PUSH2 0x675 JUMP JUMPDEST PUSH2 0x2D9 PUSH1 0xD SLOAD DUP2 JUMP JUMPDEST PUSH1 0x40 MLOAD SWAP1 DUP2 MSTORE PUSH1 0x20 ADD PUSH2 0x208 JUMP JUMPDEST PUSH2 0x1E7 PUSH2 0x2F5 CALLDATASIZE PUSH1 0x4 PUSH2 0x259C JUMP JUMPDEST PUSH2 0x703 JUMP JUMPDEST PUSH2 0x1E7 PUSH2 0x308 CALLDATASIZE PUSH1 0x4 PUSH2 0x25D6 JUMP JUMPDEST PUSH2 0x722 JUMP JUMPDEST PUSH2 0x239 PUSH2 0x31B CALLDATASIZE PUSH1 0x4 PUSH2 0x24B7 JUMP JUMPDEST PUSH2 0x7DE JUMP JUMPDEST PUSH2 0x2D9 PUSH2 0x32E CALLDATASIZE PUSH1 0x4 PUSH2 0x24B7 JUMP JUMPDEST PUSH1 0x11 PUSH1 0x20 MSTORE PUSH0 SWAP1 DUP2 MSTORE PUSH1 0x40 SWAP1 KECCAK256 SLOAD DUP2 JUMP JUMPDEST PUSH2 0x219 PUSH2 0x34D CALLDATASIZE PUSH1 0x4 PUSH2 0x24B7 JUMP JUMPDEST PUSH2 0x7E8 JUMP JUMPDEST PUSH2 0x365 PUSH2 0x360 CALLDATASIZE PUSH1 0x4 PUSH2 0x25D6 JUMP JUMPDEST PUSH2 0xA4F JUMP JUMPDEST PUSH1 0x40 MLOAD PUSH2 0x208 SWAP3 SWAP2 SWAP1 PUSH2 0x2642 JUMP JUMPDEST PUSH2 0x2D9 PUSH2 0x381 CALLDATASIZE PUSH1 0x4 PUSH2 0x265C JUMP JUMPDEST PUSH2 0xA8D JUMP JUMPDEST PUSH2 0x1E7 PUSH2 0xAD2 JUMP JUMPDEST PUSH1 0x7 SLOAD PUSH1 0x1 PUSH1 0x1 PUSH1 0xA0 SHL SUB AND PUSH2 0x239 JUMP JUMPDEST PUSH2 0x2D9 PUSH1 0xE SLOAD DUP2 JUMP JUMPDEST PUSH2 0x2D9 PUSH1 0xF SLOAD DUP2 JUMP JUMPDEST PUSH2 0x219 PUSH2 0xAE5 JUMP JUMPDEST PUSH2 0x1E7 PUSH2 0x3C7 CALLDATASIZE PUSH1 0x4 PUSH2 0x2675 JUMP JUMPDEST PUSH2 0xAF4 JUMP JUMPDEST PUSH2 0x3DF PUSH2 0x3DA CALLDATASIZE PUSH1 0x4 PUSH2 0x24B7 JUMP JUMPDEST PUSH2 0xAFF JUMP JUMPDEST PUSH1 0x40 MLOAD PUSH2 0x208 SWAP7 SWAP6 SWAP5 SWAP4 SWAP3 SWAP2 SWAP1 PUSH2 0x26AE JUMP JUMPDEST PUSH2 0x1E7 PUSH2 0x3FF CALLDATASIZE PUSH1 0x4 PUSH2 0x2706 JUMP JUMPDEST PUSH2 0xC54 JUMP JUMPDEST PUSH2 0x219 PUSH2 0x412 CALLDATASIZE PUSH1 0x4 PUSH2 0x24B7 JUMP JUMPDEST PUSH2 0xC6C JUMP JUMPDEST PUSH2 0x1FC PUSH2 0x425 CALLDATASIZE PUSH1 0x4 PUSH2 0x2769 JUMP JUMPDEST PUSH2 0xCE0 JUMP JUMPDEST PUSH2 0x1E7 PUSH2 0x438 CALLDATASIZE PUSH1 0x4 PUSH2 0x279A JUMP JUMPDEST PUSH2 0xD0D JUMP JUMPDEST PUSH2 0x1E7 PUSH2 0x44B CALLDATASIZE PUSH1 0x4 PUSH2 0x265C JUMP JUMPDEST PUSH2 0xE10 JUMP JUMPDEST PUSH2 0x458 PUSH2 0xE4D JUMP JUMPDEST PUSH1 0xC PUSH2 0x464 DUP3 DUP3 PUSH2 0x2855 JUMP JUMPDEST POP POP JUMP JUMPDEST PUSH0 PUSH1 0x1 PUSH1 0x1 PUSH1 0xE0 SHL SUB NOT DUP3 AND PUSH4 0x24832483 PUSH1 0xE1 SHL EQ DUP1 PUSH2 0x48C JUMPI POP PUSH2 0x48C DUP3 PUSH2 0xE7A JUMP JUMPDEST SWAP3 SWAP2 POP POP JUMP JUMPDEST PUSH1 0x60 PUSH0 DUP1 SLOAD PUSH2 0x4A0 SWAP1 PUSH2 0x27CF JUMP JUMPDEST DUP1 PUSH1 0x1F ADD PUSH1 0x20 DUP1 SWAP2 DIV MUL PUSH1 0x20 ADD PUSH1 0x40 MLOAD SWAP1 DUP2 ADD PUSH1 0x40 MSTORE DUP1 SWAP3 SWAP2 SWAP1 DUP2 DUP2 MSTORE PUSH1 0x20 ADD DUP3 DUP1 SLOAD PUSH2 0x4CC SWAP1 PUSH2 0x27CF JUMP JUMPDEST DUP1 ISZERO PUSH2 0x517 JUMPI DUP1 PUSH1 0x1F LT PUSH2 0x4EE JUMPI PUSH2 0x100 DUP1 DUP4 SLOAD DIV MUL DUP4 MSTORE SWAP2 PUSH1 0x20 ADD SWAP2 PUSH2 0x517 JUMP JUMPDEST DUP3 ADD SWAP2 SWAP1 PUSH0 MSTORE PUSH1 0x20 PUSH0 KECCAK256 SWAP1 JUMPDEST DUP2 SLOAD DUP2 MSTORE SWAP1 PUSH1 0x1 ADD SWAP1 PUSH1 0x20 ADD DUP1 DUP4 GT PUSH2 0x4FA JUMPI DUP3 SWAP1 SUB PUSH1 0x1F AND DUP3 ADD SWAP2 JUMPDEST POP POP POP POP POP SWAP1 POP SWAP1 JUMP JUMPDEST PUSH0 PUSH2 0x52B DUP3 PUSH2 0xEC9 JUMP JUMPDEST POP PUSH0 DUP3 DUP2 MSTORE PUSH1 0x4 PUSH1 0x20 MSTORE PUSH1 0x40 SWAP1 KECCAK256 SLOAD PUSH1 0x1 PUSH1 0x1 PUSH1 0xA0 SHL SUB AND PUSH2 0x48C JUMP JUMPDEST PUSH2 0x464 DUP3 DUP3 CALLER PUSH2 0xF01 JUMP JUMPDEST CALLER PUSH1 0x1 PUSH1 0x1 PUSH1 0xA0 SHL SUB PUSH32 0x0 AND EQ PUSH2 0x59C JUMPI PUSH1 0x40 MLOAD PUSH4 0xC6829F83 PUSH1 0xE0 SHL DUP2 MSTORE PUSH1 0x4 ADD PUSH1 0x40 MLOAD DUP1 SWAP2 SUB SWAP1 REVERT JUMPDEST PUSH2 0x5A7 DUP4 DUP4 DUP4 PUSH2 0xF0E JUMP JUMPDEST PUSH1 0x40 MLOAD DUP4 SWAP1 PUSH32 0x85E1543BF2F84FE80C6BADBCE3648C8539AD1DF4D2B3D822938CA0538BE727E6 SWAP1 PUSH0 SWAP1 LOG2 POP POP POP JUMP JUMPDEST PUSH1 0xC DUP1 SLOAD PUSH2 0x5E3 SWAP1 PUSH2 0x27CF JUMP JUMPDEST DUP1 PUSH1 0x1F ADD PUSH1 0x20 DUP1 SWAP2 DIV MUL PUSH1 0x20 ADD PUSH1 0x40 MLOAD SWAP1 DUP2 ADD PUSH1 0x40 MSTORE DUP1 SWAP3 SWAP2 SWAP1 DUP2 DUP2 MSTORE PUSH1 0x20 ADD DUP3 DUP1 SLOAD PUSH2 0x60F SWAP1 PUSH2 0x27CF JUMP JUMPDEST DUP1 ISZERO PUSH2 0x65A JUMPI DUP1 PUSH1 0x1F LT PUSH2 0x631 JUMPI PUSH2 0x100 DUP1 DUP4 SLOAD DIV MUL DUP4 MSTORE SWAP2 PUSH1 0x20 ADD SWAP2 PUSH2 0x65A JUMP JUMPDEST DUP3 ADD SWAP2 SWAP1 PUSH0 MSTORE PUSH1 0x20 PUSH0 KECCAK256 SWAP1 JUMPDEST DUP2 SLOAD DUP2 MSTORE SWAP1 PUSH1 0x1 ADD SWAP1 PUSH1 0x20 ADD DUP1 DUP4 GT PUSH2 0x63D JUMPI DUP3 SWAP1 SUB PUSH1 0x1F AND DUP3 ADD SWAP2 JUMPDEST POP POP POP POP POP DUP2 JUMP JUMPDEST PUSH2 0x66A PUSH2 0xE4D JUMP JUMPDEST PUSH1 0xE SWAP2 SWAP1 SWAP2 SSTORE PUSH1 0xF SSTORE JUMP JUMPDEST PUSH1 0x1 PUSH1 0x1 PUSH1 0xA0 SHL SUB DUP3 AND PUSH2 0x6A3 JUMPI PUSH1 0x40 MLOAD PUSH4 0x32505749 PUSH1 0xE1 SHL DUP2 MSTORE PUSH0 PUSH1 0x4 DUP3 ADD MSTORE PUSH1 0x24 ADD JUMPDEST PUSH1 0x40 MLOAD DUP1 SWAP2 SUB SWAP1 REVERT JUMPDEST PUSH0 PUSH2 0x6AF DUP4 DUP4 CALLER PUSH2 0x1000 JUMP JUMPDEST SWAP1 POP DUP4 PUSH1 0x1 PUSH1 0x1 PUSH1 0xA0 SHL SUB AND DUP2 PUSH1 0x1 PUSH1 0x1 PUSH1 0xA0 SHL SUB AND EQ PUSH2 0x6FD JUMPI PUSH1 0x40 MLOAD PUSH4 0x64283D7B PUSH1 0xE0 SHL DUP2 MSTORE PUSH1 0x1 PUSH1 0x1 PUSH1 0xA0 SHL SUB DUP1 DUP7 AND PUSH1 0x4 DUP4 ADD MSTORE PUSH1 0x24 DUP3 ADD DUP5 SWAP1 MSTORE DUP3 AND PUSH1 0x44 DUP3 ADD MSTORE PUSH1 0x64 ADD PUSH2 0x69A JUMP JUMPDEST POP POP POP POP JUMP JUMPDEST PUSH2 0x71D DUP4 DUP4 DUP4 PUSH1 0x40 MLOAD DUP1 PUSH1 0x20 ADD PUSH1 0x40 MSTORE DUP1 PUSH0 DUP2 MSTORE POP PUSH2 0xC54 JUMP JUMPDEST POP POP POP JUMP JUMPDEST PUSH1 0xE SLOAD PUSH1 0xD SLOAD PUSH2 0x732 SWAP1 TIMESTAMP PUSH2 0x2923 JUMP JUMPDEST GT ISZERO PUSH2 0x464 JUMPI TIMESTAMP PUSH1 0xD SSTORE PUSH1 0xF SLOAD PUSH0 DUP2 DUP2 MSTORE PUSH1 0x10 PUSH1 0x20 MSTORE PUSH1 0x40 SWAP1 KECCAK256 DUP1 SLOAD PUSH2 0x71D SWAP3 SWAP2 SWAP1 PUSH2 0x75D SWAP1 PUSH2 0x27CF JUMP JUMPDEST DUP1 PUSH1 0x1F ADD PUSH1 0x20 DUP1 SWAP2 DIV MUL PUSH1 0x20 ADD PUSH1 0x40 MLOAD SWAP1 DUP2 ADD PUSH1 0x40 MSTORE DUP1 SWAP3 SWAP2 SWAP1 DUP2 DUP2 MSTORE PUSH1 0x20 ADD DUP3 DUP1 SLOAD PUSH2 0x789 SWAP1 PUSH2 0x27CF JUMP JUMPDEST DUP1 ISZERO PUSH2 0x7D4 JUMPI DUP1 PUSH1 0x1F LT PUSH2 0x7AB JUMPI PUSH2 0x100 DUP1 DUP4 SLOAD DIV MUL DUP4 MSTORE SWAP2 PUSH1 0x20 ADD SWAP2 PUSH2 0x7D4 JUMP JUMPDEST DUP3 ADD SWAP2 SWAP1 PUSH0 MSTORE PUSH1 0x20 PUSH0 KECCAK256 SWAP1 JUMPDEST DUP2 SLOAD DUP2 MSTORE SWAP1 PUSH1 0x1 ADD SWAP1 PUSH1 0x20 ADD DUP1 DUP4 GT PUSH2 0x7B7 JUMPI DUP3 SWAP1 SUB PUSH1 0x1F AND DUP3 ADD SWAP2 JUMPDEST POP POP POP POP POP PUSH2 0x10F2 JUMP JUMPDEST PUSH0 PUSH2 0x48C DUP3 PUSH2 0xEC9 JUMP JUMPDEST PUSH1 0x60 PUSH0 PUSH1 0x10 PUSH0 DUP5 DUP2 MSTORE PUSH1 0x20 ADD SWAP1 DUP2 MSTORE PUSH1 0x20 ADD PUSH0 KECCAK256 PUSH1 0x40 MLOAD DUP1 PUSH1 0xC0 ADD PUSH1 0x40 MSTORE SWAP1 DUP2 PUSH0 DUP3 ADD DUP1 SLOAD PUSH2 0x816 SWAP1 PUSH2 0x27CF JUMP JUMPDEST DUP1 PUSH1 0x1F ADD PUSH1 0x20 DUP1 SWAP2 DIV MUL PUSH1 0x20 ADD PUSH1 0x40 MLOAD SWAP1 DUP2 ADD PUSH1 0x40 MSTORE DUP1 SWAP3 SWAP2 SWAP1 DUP2 DUP2 MSTORE PUSH1 0x20 ADD DUP3 DUP1 SLOAD PUSH2 0x842 SWAP1 PUSH2 0x27CF JUMP JUMPDEST DUP1 ISZERO PUSH2 0x88D JUMPI DUP1 PUSH1 0x1F LT PUSH2 0x864 JUMPI PUSH2 0x100 DUP1 DUP4 SLOAD DIV MUL DUP4 MSTORE SWAP2 PUSH1 0x20 ADD SWAP2 PUSH2 0x88D JUMP JUMPDEST DUP3 ADD SWAP2 SWAP1 PUSH0 MSTORE PUSH1 0x20 PUSH0 KECCAK256 SWAP1 JUMPDEST DUP2 SLOAD DUP2 MSTORE SWAP1 PUSH1 0x1 ADD SWAP1 PUSH1 0x20 ADD DUP1 DUP4 GT PUSH2 0x870 JUMPI DUP3 SWAP1 SUB PUSH1 0x1F AND DUP3 ADD SWAP2 JUMPDEST POP POP POP POP POP DUP2 MSTORE PUSH1 0x20 ADD PUSH1 0x1 DUP3 ADD DUP1 SLOAD PUSH2 0x8A6 SWAP1 PUSH2 0x27CF JUMP JUMPDEST DUP1 PUSH1 0x1F ADD PUSH1 0x20 DUP1 SWAP2 DIV MUL PUSH1 0x20 ADD PUSH1 0x40 MLOAD SWAP1 DUP2 ADD PUSH1 0x40 MSTORE DUP1 SWAP3 SWAP2 SWAP1 DUP2 DUP2 MSTORE PUSH1 0x20 ADD DUP3 DUP1 SLOAD PUSH2 0x8D2 SWAP1 PUSH2 0x27CF JUMP JUMPDEST DUP1 ISZERO PUSH2 0x91D JUMPI DUP1 PUSH1 0x1F LT PUSH2 0x8F4 JUMPI PUSH2 0x100 DUP1 DUP4 SLOAD DIV MUL DUP4 MSTORE SWAP2 PUSH1 0x20 ADD SWAP2 PUSH2 0x91D JUMP JUMPDEST DUP3 ADD SWAP2 SWAP1 PUSH0 MSTORE PUSH1 0x20 PUSH0 KECCAK256 SWAP1 JUMPDEST DUP2 SLOAD DUP2 MSTORE SWAP1 PUSH1 0x1 ADD SWAP1 PUSH1 0x20 ADD DUP1 DUP4 GT PUSH2 0x900 JUMPI DUP3 SWAP1 SUB PUSH1 0x1F AND DUP3 ADD SWAP2 JUMPDEST POP POP POP SWAP2 DUP4 MSTORE POP POP PUSH1 0x2 SWAP2 SWAP1 SWAP2 ADD SLOAD PUSH1 0x1 PUSH1 0x1 PUSH1 0x40 SHL SUB DUP1 DUP3 AND PUSH1 0x20 DUP5 ADD MSTORE PUSH1 0x1 PUSH1 0x40 SHL DUP3 DIV DUP2 AND PUSH1 0x40 DUP5 ADD MSTORE PUSH1 0x1 PUSH1 0x80 SHL DUP3 DIV DUP2 AND PUSH1 0x60 DUP5 ADD MSTORE PUSH1 0x1 PUSH1 0xC0 SHL SWAP1 SWAP2 DIV DUP2 AND PUSH1 0x80 SWAP3 DUP4 ADD MSTORE SWAP1 DUP3 ADD MLOAD SWAP2 SWAP3 POP PUSH0 SWAP2 AND ISZERO PUSH2 0x981 JUMPI DUP2 PUSH1 0x80 ADD MLOAD PUSH2 0x984 JUMP JUMPDEST PUSH1 0x1 JUMPDEST SWAP1 POP PUSH0 DUP2 PUSH1 0x1 PUSH1 0x1 PUSH1 0x40 SHL SUB AND DUP4 PUSH1 0xA0 ADD MLOAD PUSH1 0x1 PUSH1 0x1 PUSH1 0x40 SHL SUB AND DUP5 PUSH1 0x60 ADD MLOAD PUSH1 0x1 PUSH1 0x1 PUSH1 0x40 SHL SUB AND PUSH2 0x9B7 SWAP2 SWAP1 PUSH2 0x2936 JUMP JUMPDEST PUSH2 0x9C2 SWAP1 PUSH1 0x64 PUSH2 0x2949 JUMP JUMPDEST PUSH2 0x9CC SWAP2 SWAP1 PUSH2 0x2974 JUMP JUMPDEST SWAP1 POP PUSH0 PUSH2 0x9E2 PUSH2 0x9DD PUSH1 0x64 DUP5 PUSH2 0x2974 JUMP JUMPDEST PUSH2 0x1263 JUMP JUMPDEST PUSH2 0x9F0 PUSH2 0x9DD PUSH1 0x64 DUP6 PUSH2 0x2987 JUMP JUMPDEST PUSH1 0x40 MLOAD PUSH1 0x20 ADD PUSH2 0xA01 SWAP3 SWAP2 SWAP1 PUSH2 0x29B1 JUMP JUMPDEST PUSH1 0x40 MLOAD PUSH1 0x20 DUP2 DUP4 SUB SUB DUP2 MSTORE SWAP1 PUSH1 0x40 MSTORE SWAP1 POP PUSH2 0xA1A PUSH2 0x12F2 JUMP JUMPDEST PUSH2 0xA24 DUP6 DUP4 PUSH2 0x1315 JUMP JUMPDEST PUSH1 0x40 MLOAD PUSH1 0x20 ADD PUSH2 0xA35 SWAP3 SWAP2 SWAP1 PUSH2 0x29D9 JUMP JUMPDEST PUSH1 0x40 MLOAD PUSH1 0x20 DUP2 DUP4 SUB SUB DUP2 MSTORE SWAP1 PUSH1 0x40 MSTORE SWAP5 POP POP POP POP POP SWAP2 SWAP1 POP JUMP JUMPDEST PUSH0 PUSH1 0x60 PUSH1 0xE SLOAD PUSH1 0xD SLOAD TIMESTAMP PUSH2 0xA63 SWAP2 SWAP1 PUSH2 0x2923 JUMP JUMPDEST GT DUP1 ISZERO PUSH2 0xA73 JUMPI POP PUSH1 0x8 SLOAD PUSH1 0xF SLOAD LT JUMPDEST SWAP2 POP PUSH1 0x40 MLOAD DUP1 PUSH1 0x20 ADD PUSH1 0x40 MSTORE DUP1 PUSH0 DUP2 MSTORE POP SWAP1 POP SWAP3 POP SWAP3 SWAP1 POP JUMP JUMPDEST PUSH0 PUSH1 0x1 PUSH1 0x1 PUSH1 0xA0 SHL SUB DUP3 AND PUSH2 0xAB7 JUMPI PUSH1 0x40 MLOAD PUSH4 0x22718AD9 PUSH1 0xE2 SHL DUP2 MSTORE PUSH0 PUSH1 0x4 DUP3 ADD MSTORE PUSH1 0x24 ADD PUSH2 0x69A JUMP JUMPDEST POP PUSH1 0x1 PUSH1 0x1 PUSH1 0xA0 SHL SUB AND PUSH0 SWAP1 DUP2 MSTORE PUSH1 0x3 PUSH1 0x20 MSTORE PUSH1 0x40 SWAP1 KECCAK256 SLOAD SWAP1 JUMP JUMPDEST PUSH2 0xADA PUSH2 0xE4D JUMP JUMPDEST PUSH2 0xAE3 PUSH0 PUSH2 0x13A6 JUMP JUMPDEST JUMP JUMPDEST PUSH1 0x60 PUSH1 0x1 DUP1 SLOAD PUSH2 0x4A0 SWAP1 PUSH2 0x27CF JUMP JUMPDEST PUSH2 0x464 CALLER DUP4 DUP4 PUSH2 0x13F7 JUMP JUMPDEST PUSH1 0x10 PUSH1 0x20 MSTORE PUSH0 SWAP1 DUP2 MSTORE PUSH1 0x40 SWAP1 KECCAK256 DUP1 SLOAD DUP2 SWAP1 PUSH2 0xB19 SWAP1 PUSH2 0x27CF JUMP JUMPDEST DUP1 PUSH1 0x1F ADD PUSH1 0x20 DUP1 SWAP2 DIV MUL PUSH1 0x20 ADD PUSH1 0x40 MLOAD SWAP1 DUP2 ADD PUSH1 0x40 MSTORE DUP1 SWAP3 SWAP2 SWAP1 DUP2 DUP2 MSTORE PUSH1 0x20 ADD DUP3 DUP1 SLOAD PUSH2 0xB45 SWAP1 PUSH2 0x27CF JUMP JUMPDEST DUP1 ISZERO PUSH2 0xB90 JUMPI DUP1 PUSH1 0x1F LT PUSH2 0xB67 JUMPI PUSH2 0x100 DUP1 DUP4 SLOAD DIV MUL DUP4 MSTORE SWAP2 PUSH1 0x20 ADD SWAP2 PUSH2 0xB90 JUMP JUMPDEST DUP3 ADD SWAP2 SWAP1 PUSH0 MSTORE PUSH1 0x20 PUSH0 KECCAK256 SWAP1 JUMPDEST DUP2 SLOAD DUP2 MSTORE SWAP1 PUSH1 0x1 ADD SWAP1 PUSH1 0x20 ADD DUP1 DUP4 GT PUSH2 0xB73 JUMPI DUP3 SWAP1 SUB PUSH1 0x1F AND DUP3 ADD SWAP2 JUMPDEST POP POP POP POP POP SWAP1 DUP1 PUSH1 0x1 ADD DUP1 SLOAD PUSH2 0xBA5 SWAP1 PUSH2 0x27CF JUMP JUMPDEST DUP1 PUSH1 0x1F ADD PUSH1 0x20 DUP1 SWAP2 DIV MUL PUSH1 0x20 ADD PUSH1 0x40 MLOAD SWAP1 DUP2 ADD PUSH1 0x40 MSTORE DUP1 SWAP3 SWAP2 SWAP1 DUP2 DUP2 MSTORE PUSH1 0x20 ADD DUP3 DUP1 SLOAD PUSH2 0xBD1 SWAP1 PUSH2 0x27CF JUMP JUMPDEST DUP1 ISZERO PUSH2 0xC1C JUMPI DUP1 PUSH1 0x1F LT PUSH2 0xBF3 JUMPI PUSH2 0x100 DUP1 DUP4 SLOAD DIV MUL DUP4 MSTORE SWAP2 PUSH1 0x20 ADD SWAP2 PUSH2 0xC1C JUMP JUMPDEST DUP3 ADD SWAP2 SWAP1 PUSH0 MSTORE PUSH1 0x20 PUSH0 KECCAK256 SWAP1 JUMPDEST DUP2 SLOAD DUP2 MSTORE SWAP1 PUSH1 0x1 ADD SWAP1 PUSH1 0x20 ADD DUP1 DUP4 GT PUSH2 0xBFF JUMPI DUP3 SWAP1 SUB PUSH1 0x1F AND DUP3 ADD SWAP2 JUMPDEST POP POP POP PUSH1 0x2 SWAP1 SWAP4 ADD SLOAD SWAP2 SWAP3 POP POP PUSH1 0x1 PUSH1 0x1 PUSH1 0x40 SHL SUB DUP1 DUP3 AND SWAP2 PUSH1 0x1 PUSH1 0x40 SHL DUP2 DIV DUP3 AND SWAP2 PUSH1 0x1 PUSH1 0x80 SHL DUP3 DIV DUP2 AND SWAP2 PUSH1 0x1 PUSH1 0xC0 SHL SWAP1 DIV AND DUP7 JUMP JUMPDEST PUSH2 0xC5F DUP5 DUP5 DUP5 PUSH2 0x675 JUMP JUMPDEST PUSH2 0x6FD CALLER DUP6 DUP6 DUP6 DUP6 PUSH2 0x14BE JUMP JUMPDEST PUSH1 0x60 PUSH0 PUSH2 0xC80 PUSH2 0xC7B DUP5 PUSH2 0x7E8 JUMP JUMPDEST PUSH2 0x15E6 JUMP JUMPDEST SWAP1 POP PUSH0 PUSH2 0xCB5 PUSH2 0xC8F DUP6 PUSH2 0x1263 JUMP JUMPDEST DUP4 PUSH1 0x40 MLOAD PUSH1 0x20 ADD PUSH2 0xCA1 SWAP3 SWAP2 SWAP1 PUSH2 0x2C12 JUMP JUMPDEST PUSH1 0x40 MLOAD PUSH1 0x20 DUP2 DUP4 SUB SUB DUP2 MSTORE SWAP1 PUSH1 0x40 MSTORE PUSH2 0x15E6 JUMP JUMPDEST SWAP1 POP DUP1 PUSH1 0x40 MLOAD PUSH1 0x20 ADD PUSH2 0xCC8 SWAP2 SWAP1 PUSH2 0x2D38 JUMP JUMPDEST PUSH1 0x40 MLOAD PUSH1 0x20 DUP2 DUP4 SUB SUB DUP2 MSTORE SWAP1 PUSH1 0x40 MSTORE SWAP3 POP POP POP SWAP2 SWAP1 POP JUMP JUMPDEST PUSH1 0x1 PUSH1 0x1 PUSH1 0xA0 SHL SUB SWAP2 DUP3 AND PUSH0 SWAP1 DUP2 MSTORE PUSH1 0x5 PUSH1 0x20 SWAP1 DUP2 MSTORE PUSH1 0x40 DUP1 DUP4 KECCAK256 SWAP4 SWAP1 SWAP5 AND DUP3 MSTORE SWAP2 SWAP1 SWAP2 MSTORE KECCAK256 SLOAD PUSH1 0xFF AND SWAP1 JUMP JUMPDEST PUSH2 0xD15 PUSH2 0xE4D JUMP JUMPDEST PUSH1 0x8 SLOAD PUSH1 0x40 DUP1 MLOAD PUSH1 0xC0 DUP2 ADD DUP3 MSTORE DUP5 DUP2 MSTORE PUSH1 0x20 DUP1 DUP3 ADD DUP6 SWAP1 MSTORE PUSH0 DUP3 DUP5 ADD DUP2 SWAP1 MSTORE PUSH1 0x60 DUP4 ADD DUP2 SWAP1 MSTORE PUSH1 0x80 DUP4 ADD DUP2 SWAP1 MSTORE PUSH1 0xA0 DUP4 ADD DUP2 SWAP1 MSTORE DUP5 DUP2 MSTORE PUSH1 0x10 SWAP1 SWAP2 MSTORE SWAP2 SWAP1 SWAP2 KECCAK256 DUP2 MLOAD DUP2 SWAP1 PUSH2 0xD63 SWAP1 DUP3 PUSH2 0x2855 JUMP JUMPDEST POP PUSH1 0x20 DUP3 ADD MLOAD PUSH1 0x1 DUP3 ADD SWAP1 PUSH2 0xD78 SWAP1 DUP3 PUSH2 0x2855 JUMP JUMPDEST POP PUSH1 0x40 DUP3 ADD MLOAD PUSH1 0x2 SWAP1 SWAP2 ADD DUP1 SLOAD PUSH1 0x60 DUP5 ADD MLOAD PUSH1 0x80 DUP6 ADD MLOAD PUSH1 0xA0 SWAP1 SWAP6 ADD MLOAD PUSH1 0x1 PUSH1 0x1 PUSH1 0x40 SHL SUB SWAP1 DUP2 AND PUSH1 0x1 PUSH1 0xC0 SHL MUL PUSH1 0x1 PUSH1 0x1 PUSH1 0xC0 SHL SUB SWAP7 DUP3 AND PUSH1 0x1 PUSH1 0x80 SHL MUL SWAP7 SWAP1 SWAP7 AND PUSH1 0x1 PUSH1 0x1 PUSH1 0x80 SHL SUB SWAP3 DUP3 AND PUSH1 0x1 PUSH1 0x40 SHL MUL PUSH1 0x1 PUSH1 0x1 PUSH1 0x80 SHL SUB NOT SWAP1 SWAP5 AND SWAP2 SWAP1 SWAP6 AND OR SWAP2 SWAP1 SWAP2 OR AND SWAP2 SWAP1 SWAP2 OR SWAP2 SWAP1 SWAP2 OR SWAP1 SSTORE PUSH2 0xDF6 DUP5 DUP3 PUSH2 0x15F2 JUMP JUMPDEST PUSH1 0x8 DUP1 SLOAD SWAP1 PUSH0 PUSH2 0xE05 DUP4 PUSH2 0x2D69 JUMP JUMPDEST SWAP2 SWAP1 POP SSTORE POP POP POP POP POP JUMP JUMPDEST PUSH2 0xE18 PUSH2 0xE4D JUMP JUMPDEST PUSH1 0x1 PUSH1 0x1 PUSH1 0xA0 SHL SUB DUP2 AND PUSH2 0xE41 JUMPI PUSH1 0x40 MLOAD PUSH4 0x1E4FBDF7 PUSH1 0xE0 SHL DUP2 MSTORE PUSH0 PUSH1 0x4 DUP3 ADD MSTORE PUSH1 0x24 ADD PUSH2 0x69A JUMP JUMPDEST PUSH2 0xE4A DUP2 PUSH2 0x13A6 JUMP JUMPDEST POP JUMP JUMPDEST PUSH1 0x7 SLOAD PUSH1 0x1 PUSH1 0x1 PUSH1 0xA0 SHL SUB AND CALLER EQ PUSH2 0xAE3 JUMPI PUSH1 0x40 MLOAD PUSH4 0x118CDAA7 PUSH1 0xE0 SHL DUP2 MSTORE CALLER PUSH1 0x4 DUP3 ADD MSTORE PUSH1 0x24 ADD PUSH2 0x69A JUMP JUMPDEST PUSH0 PUSH1 0x1 PUSH1 0x1 PUSH1 0xE0 SHL SUB NOT DUP3 AND PUSH4 0x80AC58CD PUSH1 0xE0 SHL EQ DUP1 PUSH2 0xEAA JUMPI POP PUSH1 0x1 PUSH1 0x1 PUSH1 0xE0 SHL SUB NOT DUP3 AND PUSH4 0x5B5E139F PUSH1 0xE0 SHL EQ JUMPDEST DUP1 PUSH2 0x48C JUMPI POP PUSH4 0x1FFC9A7 PUSH1 0xE0 SHL PUSH1 0x1 PUSH1 0x1 PUSH1 0xE0 SHL SUB NOT DUP4 AND EQ PUSH2 0x48C JUMP JUMPDEST PUSH0 DUP2 DUP2 MSTORE PUSH1 0x2 PUSH1 0x20 MSTORE PUSH1 0x40 DUP2 KECCAK256 SLOAD PUSH1 0x1 PUSH1 0x1 PUSH1 0xA0 SHL SUB AND DUP1 PUSH2 0x48C JUMPI PUSH1 0x40 MLOAD PUSH4 0x7E273289 PUSH1 0xE0 SHL DUP2 MSTORE PUSH1 0x4 DUP2 ADD DUP5 SWAP1 MSTORE PUSH1 0x24 ADD PUSH2 0x69A JUMP JUMPDEST PUSH2 0x71D DUP4 DUP4 DUP4 PUSH1 0x1 PUSH2 0x160B JUMP JUMPDEST DUP1 MLOAD ISZERO PUSH2 0xF4C JUMPI PUSH1 0x40 MLOAD PUSH3 0x461BCD PUSH1 0xE5 SHL DUP2 MSTORE PUSH1 0x20 PUSH1 0x4 DUP3 ADD MSTORE PUSH1 0xC PUSH1 0x24 DUP3 ADD MSTORE PUSH12 0x27B930B1B6329022B93937B9 PUSH1 0xA1 SHL PUSH1 0x44 DUP3 ADD MSTORE PUSH1 0x64 ADD PUSH2 0x69A JUMP JUMPDEST PUSH0 DUP4 DUP2 MSTORE PUSH1 0x11 PUSH1 0x20 SWAP1 DUP2 MSTORE PUSH1 0x40 DUP3 KECCAK256 SLOAD DUP5 MLOAD SWAP1 SWAP3 SWAP2 PUSH2 0xF71 SWAP2 DUP7 ADD DUP2 ADD SWAP1 DUP7 ADD PUSH2 0x2D81 JUMP JUMPDEST PUSH0 SWAP3 DUP4 MSTORE PUSH1 0x10 PUSH1 0x20 MSTORE PUSH1 0x40 SWAP3 DUP4 SWAP1 KECCAK256 PUSH1 0x2 ADD DUP1 SLOAD PUSH8 0xFFFFFFFFFFFFFFFF NOT PUSH1 0x80 DUP5 SWAP1 SHR PUSH1 0x1 PUSH1 0x1 PUSH1 0x40 SHL SUB SWAP1 DUP2 AND PUSH1 0x1 PUSH1 0x40 SHL MUL SWAP2 SWAP1 SWAP2 AND PUSH1 0x1 PUSH1 0x1 PUSH1 0x80 SHL SUB NOT SWAP7 DUP6 SWAP1 SHR DUP3 AND PUSH1 0x1 PUSH1 0x80 SHL MUL PUSH8 0xFFFFFFFFFFFFFFFF PUSH1 0x80 SHL NOT SWAP3 DUP7 AND PUSH1 0x1 PUSH1 0xC0 SHL MUL SWAP3 SWAP1 SWAP3 AND PUSH1 0x1 PUSH1 0x1 PUSH1 0x80 SHL SUB SWAP1 SWAP4 AND SWAP3 SWAP1 SWAP3 OR OR SWAP5 SWAP1 SWAP5 AND SWAP4 SWAP1 SWAP4 OR PUSH1 0xC0 SWAP2 SWAP1 SWAP2 SHR OR SWAP1 SWAP2 SSTORE POP POP POP POP JUMP JUMPDEST PUSH0 DUP3 DUP2 MSTORE PUSH1 0x2 PUSH1 0x20 MSTORE PUSH1 0x40 DUP2 KECCAK256 SLOAD PUSH1 0x1 PUSH1 0x1 PUSH1 0xA0 SHL SUB SWAP1 DUP2 AND SWAP1 DUP4 AND ISZERO PUSH2 0x102C JUMPI PUSH2 0x102C DUP2 DUP5 DUP7 PUSH2 0x170F JUMP JUMPDEST PUSH1 0x1 PUSH1 0x1 PUSH1 0xA0 SHL SUB DUP2 AND ISZERO PUSH2 0x1066 JUMPI PUSH2 0x1047 PUSH0 DUP6 PUSH0 PUSH0 PUSH2 0x160B JUMP JUMPDEST PUSH1 0x1 PUSH1 0x1 PUSH1 0xA0 SHL SUB DUP2 AND PUSH0 SWAP1 DUP2 MSTORE PUSH1 0x3 PUSH1 0x20 MSTORE PUSH1 0x40 SWAP1 KECCAK256 DUP1 SLOAD PUSH0 NOT ADD SWAP1 SSTORE JUMPDEST PUSH1 0x1 PUSH1 0x1 PUSH1 0xA0 SHL SUB DUP6 AND ISZERO PUSH2 0x1094 JUMPI PUSH1 0x1 PUSH1 0x1 PUSH1 0xA0 SHL SUB DUP6 AND PUSH0 SWAP1 DUP2 MSTORE PUSH1 0x3 PUSH1 0x20 MSTORE PUSH1 0x40 SWAP1 KECCAK256 DUP1 SLOAD PUSH1 0x1 ADD SWAP1 SSTORE JUMPDEST PUSH0 DUP5 DUP2 MSTORE PUSH1 0x2 PUSH1 0x20 MSTORE PUSH1 0x40 DUP1 DUP3 KECCAK256 DUP1 SLOAD PUSH1 0x1 PUSH1 0x1 PUSH1 0xA0 SHL SUB NOT AND PUSH1 0x1 PUSH1 0x1 PUSH1 0xA0 SHL SUB DUP10 DUP2 AND SWAP2 DUP3 OR SWAP1 SWAP3 SSTORE SWAP2 MLOAD DUP8 SWAP4 SWAP2 DUP6 AND SWAP2 PUSH32 0xDDF252AD1BE2C89B69C2B068FC378DAA952BA7F163C4A11628F55A4DF523B3EF SWAP2 LOG4 SWAP5 SWAP4 POP POP POP POP JUMP JUMPDEST PUSH0 PUSH2 0x1131 PUSH1 0x40 DUP1 MLOAD PUSH1 0xE0 DUP2 ADD SWAP1 SWAP2 MSTORE DUP1 PUSH0 DUP2 MSTORE PUSH1 0x20 ADD PUSH0 DUP2 MSTORE PUSH1 0x20 ADD PUSH0 DUP2 MSTORE PUSH1 0x20 ADD PUSH1 0x60 DUP2 MSTORE PUSH1 0x20 ADD PUSH1 0x60 DUP2 MSTORE PUSH1 0x20 ADD PUSH1 0x60 DUP2 MSTORE PUSH1 0x20 ADD PUSH1 0x60 DUP2 MSTORE POP SWAP1 JUMP JUMPDEST PUSH2 0x11CC PUSH1 0xC DUP1 SLOAD PUSH2 0x1141 SWAP1 PUSH2 0x27CF JUMP JUMPDEST DUP1 PUSH1 0x1F ADD PUSH1 0x20 DUP1 SWAP2 DIV MUL PUSH1 0x20 ADD PUSH1 0x40 MLOAD SWAP1 DUP2 ADD PUSH1 0x40 MSTORE DUP1 SWAP3 SWAP2 SWAP1 DUP2 DUP2 MSTORE PUSH1 0x20 ADD DUP3 DUP1 SLOAD PUSH2 0x116D SWAP1 PUSH2 0x27CF JUMP JUMPDEST DUP1 ISZERO PUSH2 0x11B8 JUMPI DUP1 PUSH1 0x1F LT PUSH2 0x118F JUMPI PUSH2 0x100 DUP1 DUP4 SLOAD DIV MUL DUP4 MSTORE SWAP2 PUSH1 0x20 ADD SWAP2 PUSH2 0x11B8 JUMP JUMPDEST DUP3 ADD SWAP2 SWAP1 PUSH0 MSTORE PUSH1 0x20 PUSH0 KECCAK256 SWAP1 JUMPDEST DUP2 SLOAD DUP2 MSTORE SWAP1 PUSH1 0x1 ADD SWAP1 PUSH1 0x20 ADD DUP1 DUP4 GT PUSH2 0x119B JUMPI DUP3 SWAP1 SUB PUSH1 0x1F AND DUP3 ADD SWAP2 JUMPDEST POP POP POP POP POP DUP3 PUSH2 0x1773 SWAP1 SWAP2 SWAP1 PUSH4 0xFFFFFFFF AND JUMP JUMPDEST PUSH1 0x40 DUP1 MLOAD PUSH1 0x1 DUP1 DUP3 MSTORE DUP2 DUP4 ADD SWAP1 SWAP3 MSTORE PUSH0 SWAP2 DUP2 PUSH1 0x20 ADD JUMPDEST PUSH1 0x60 DUP2 MSTORE PUSH1 0x20 ADD SWAP1 PUSH1 0x1 SWAP1 SUB SWAP1 DUP2 PUSH2 0x11E2 JUMPI SWAP1 POP POP SWAP1 POP DUP4 DUP2 PUSH0 DUP2 MLOAD DUP2 LT PUSH2 0x120C JUMPI PUSH2 0x120C PUSH2 0x2D98 JUMP JUMPDEST PUSH1 0x20 SWAP1 DUP2 MUL SWAP2 SWAP1 SWAP2 ADD ADD MSTORE PUSH2 0x1221 DUP3 DUP3 PUSH2 0x177F JUMP JUMPDEST PUSH2 0x1249 PUSH2 0x122D DUP4 PUSH2 0x17A8 JUMP JUMPDEST PUSH1 0xB SLOAD PUSH1 0xA SLOAD PUSH1 0x1 PUSH1 0x1 PUSH1 0x40 SHL SUB SWAP1 SWAP2 AND SWAP1 PUSH3 0x493E0 SWAP1 PUSH2 0x1A6C JUMP JUMPDEST PUSH0 DUP2 DUP2 MSTORE PUSH1 0x11 PUSH1 0x20 MSTORE PUSH1 0x40 SWAP1 KECCAK256 SWAP6 SWAP1 SWAP6 SSTORE POP SWAP3 SWAP4 SWAP3 POP POP POP JUMP JUMPDEST PUSH1 0x60 PUSH0 PUSH2 0x126F DUP4 PUSH2 0x1B39 JUMP JUMPDEST PUSH1 0x1 ADD SWAP1 POP PUSH0 DUP2 PUSH1 0x1 PUSH1 0x1 PUSH1 0x40 SHL SUB DUP2 GT ISZERO PUSH2 0x128D JUMPI PUSH2 0x128D PUSH2 0x2373 JUMP JUMPDEST PUSH1 0x40 MLOAD SWAP1 DUP1 DUP3 MSTORE DUP1 PUSH1 0x1F ADD PUSH1 0x1F NOT AND PUSH1 0x20 ADD DUP3 ADD PUSH1 0x40 MSTORE DUP1 ISZERO PUSH2 0x12B7 JUMPI PUSH1 0x20 DUP3 ADD DUP2 DUP1 CALLDATASIZE DUP4 CALLDATACOPY ADD SWAP1 POP JUMPDEST POP SWAP1 POP DUP2 DUP2 ADD PUSH1 0x20 ADD JUMPDEST PUSH0 NOT ADD PUSH16 0x181899199A1A9B1B9C1CB0B131B232B3 PUSH1 0x81 SHL PUSH1 0xA DUP7 MOD BYTE DUP2 MSTORE8 PUSH1 0xA DUP6 DIV SWAP5 POP DUP5 PUSH2 0x12C1 JUMPI POP SWAP4 SWAP3 POP POP POP JUMP JUMPDEST PUSH1 0x60 PUSH1 0x40 MLOAD DUP1 PUSH2 0x8C0 ADD PUSH1 0x40 MSTORE DUP1 PUSH2 0x894 DUP2 MSTORE PUSH1 0x20 ADD PUSH2 0x35FE PUSH2 0x894 SWAP2 CODECOPY SWAP1 POP SWAP1 JUMP JUMPDEST PUSH1 0x60 DUP3 PUSH0 ADD MLOAD DUP4 PUSH1 0x20 ADD MLOAD PUSH2 0x1336 DUP6 PUSH1 0x40 ADD MLOAD PUSH1 0x1 PUSH1 0x1 PUSH1 0x40 SHL SUB AND PUSH2 0x1263 JUMP JUMPDEST PUSH2 0x134C DUP7 PUSH1 0x60 ADD MLOAD PUSH1 0x1 PUSH1 0x1 PUSH1 0x40 SHL SUB AND PUSH2 0x1263 JUMP JUMPDEST PUSH2 0x1362 DUP8 PUSH1 0x80 ADD MLOAD PUSH1 0x1 PUSH1 0x1 PUSH1 0x40 SHL SUB AND PUSH2 0x1263 JUMP JUMPDEST PUSH2 0x1378 DUP9 PUSH1 0xA0 ADD MLOAD PUSH1 0x1 PUSH1 0x1 PUSH1 0x40 SHL SUB AND PUSH2 0x1263 JUMP JUMPDEST DUP8 PUSH1 0x40 MLOAD PUSH1 0x20 ADD PUSH2 0x138F SWAP8 SWAP7 SWAP6 SWAP5 SWAP4 SWAP3 SWAP2 SWAP1 PUSH2 0x2DAC JUMP JUMPDEST PUSH1 0x40 MLOAD PUSH1 0x20 DUP2 DUP4 SUB SUB DUP2 MSTORE SWAP1 PUSH1 0x40 MSTORE SWAP1 POP SWAP3 SWAP2 POP POP JUMP JUMPDEST PUSH1 0x7 DUP1 SLOAD PUSH1 0x1 PUSH1 0x1 PUSH1 0xA0 SHL SUB DUP4 DUP2 AND PUSH1 0x1 PUSH1 0x1 PUSH1 0xA0 SHL SUB NOT DUP4 AND DUP2 OR SWAP1 SWAP4 SSTORE PUSH1 0x40 MLOAD SWAP2 AND SWAP2 SWAP1 DUP3 SWAP1 PUSH32 0x8BE0079C531659141344CD1FD0A4F28419497F9722A3DAAFE3B4186F6B6457E0 SWAP1 PUSH0 SWAP1 LOG3 POP POP JUMP JUMPDEST PUSH1 0x1 PUSH1 0x1 PUSH1 0xA0 SHL SUB DUP4 AND PUSH2 0x1420 JUMPI PUSH1 0x40 MLOAD PUSH4 0xA9FBF51F PUSH1 0xE0 SHL DUP2 MSTORE PUSH0 PUSH1 0x4 DUP3 ADD MSTORE PUSH1 0x24 ADD PUSH2 0x69A JUMP JUMPDEST PUSH1 0x1 PUSH1 0x1 PUSH1 0xA0 SHL SUB DUP3 AND PUSH2 0x1452 JUMPI PUSH1 0x40 MLOAD PUSH4 0xB611743 PUSH1 0xE3 SHL DUP2 MSTORE PUSH1 0x1 PUSH1 0x1 PUSH1 0xA0 SHL SUB DUP4 AND PUSH1 0x4 DUP3 ADD MSTORE PUSH1 0x24 ADD PUSH2 0x69A JUMP JUMPDEST PUSH1 0x1 PUSH1 0x1 PUSH1 0xA0 SHL SUB DUP4 DUP2 AND PUSH0 DUP2 DUP2 MSTORE PUSH1 0x5 PUSH1 0x20 SWAP1 DUP2 MSTORE PUSH1 0x40 DUP1 DUP4 KECCAK256 SWAP5 DUP8 AND DUP1 DUP5 MSTORE SWAP5 DUP3 MSTORE SWAP2 DUP3 SWAP1 KECCAK256 DUP1 SLOAD PUSH1 0xFF NOT AND DUP7 ISZERO ISZERO SWAP1 DUP2 OR SWAP1 SWAP2 SSTORE SWAP2 MLOAD SWAP2 DUP3 MSTORE PUSH32 0x17307EAB39AB6107E8899845AD3D59BD9653F200F220920489CA2B5937696C31 SWAP2 ADD PUSH1 0x40 MLOAD DUP1 SWAP2 SUB SWAP1 LOG3 POP POP POP JUMP JUMPDEST PUSH1 0x1 PUSH1 0x1 PUSH1 0xA0 SHL SUB DUP4 AND EXTCODESIZE ISZERO PUSH2 0x15DF JUMPI PUSH1 0x40 MLOAD PUSH4 0xA85BD01 PUSH1 0xE1 SHL DUP2 MSTORE PUSH1 0x1 PUSH1 0x1 PUSH1 0xA0 SHL SUB DUP5 AND SWAP1 PUSH4 0x150B7A02 SWAP1 PUSH2 0x1500 SWAP1 DUP9 SWAP1 DUP9 SWAP1 DUP8 SWAP1 DUP8 SWAP1 PUSH1 0x4 ADD PUSH2 0x345C JUMP JUMPDEST PUSH1 0x20 PUSH1 0x40 MLOAD DUP1 DUP4 SUB DUP2 PUSH0 DUP8 GAS CALL SWAP3 POP POP POP DUP1 ISZERO PUSH2 0x153A JUMPI POP PUSH1 0x40 DUP1 MLOAD PUSH1 0x1F RETURNDATASIZE SWAP1 DUP2 ADD PUSH1 0x1F NOT AND DUP3 ADD SWAP1 SWAP3 MSTORE PUSH2 0x1537 SWAP2 DUP2 ADD SWAP1 PUSH2 0x3498 JUMP JUMPDEST PUSH1 0x1 JUMPDEST PUSH2 0x15A1 JUMPI RETURNDATASIZE DUP1 DUP1 ISZERO PUSH2 0x1567 JUMPI PUSH1 0x40 MLOAD SWAP2 POP PUSH1 0x1F NOT PUSH1 0x3F RETURNDATASIZE ADD AND DUP3 ADD PUSH1 0x40 MSTORE RETURNDATASIZE DUP3 MSTORE RETURNDATASIZE PUSH0 PUSH1 0x20 DUP5 ADD RETURNDATACOPY PUSH2 0x156C JUMP JUMPDEST PUSH1 0x60 SWAP2 POP JUMPDEST POP DUP1 MLOAD PUSH0 SUB PUSH2 0x1599 JUMPI PUSH1 0x40 MLOAD PUSH4 0x32505749 PUSH1 0xE1 SHL DUP2 MSTORE PUSH1 0x1 PUSH1 0x1 PUSH1 0xA0 SHL SUB DUP6 AND PUSH1 0x4 DUP3 ADD MSTORE PUSH1 0x24 ADD PUSH2 0x69A JUMP JUMPDEST DUP1 MLOAD PUSH1 0x20 DUP3 ADD REVERT JUMPDEST PUSH1 0x1 PUSH1 0x1 PUSH1 0xE0 SHL SUB NOT DUP2 AND PUSH4 0xA85BD01 PUSH1 0xE1 SHL EQ PUSH2 0x15DD JUMPI PUSH1 0x40 MLOAD PUSH4 0x32505749 PUSH1 0xE1 SHL DUP2 MSTORE PUSH1 0x1 PUSH1 0x1 PUSH1 0xA0 SHL SUB DUP6 AND PUSH1 0x4 DUP3 ADD MSTORE PUSH1 0x24 ADD PUSH2 0x69A JUMP JUMPDEST POP JUMPDEST POP POP POP POP POP JUMP JUMPDEST PUSH1 0x60 PUSH2 0x48C DUP3 PUSH0 PUSH2 0x1C10 JUMP JUMPDEST PUSH2 0x464 DUP3 DUP3 PUSH1 0x40 MLOAD DUP1 PUSH1 0x20 ADD PUSH1 0x40 MSTORE DUP1 PUSH0 DUP2 MSTORE POP PUSH2 0x1D8F JUMP JUMPDEST DUP1 DUP1 PUSH2 0x161F JUMPI POP PUSH1 0x1 PUSH1 0x1 PUSH1 0xA0 SHL SUB DUP3 AND ISZERO ISZERO JUMPDEST ISZERO PUSH2 0x16E0 JUMPI PUSH0 PUSH2 0x162E DUP5 PUSH2 0xEC9 JUMP JUMPDEST SWAP1 POP PUSH1 0x1 PUSH1 0x1 PUSH1 0xA0 SHL SUB DUP4 AND ISZERO DUP1 ISZERO SWAP1 PUSH2 0x165A JUMPI POP DUP3 PUSH1 0x1 PUSH1 0x1 PUSH1 0xA0 SHL SUB AND DUP2 PUSH1 0x1 PUSH1 0x1 PUSH1 0xA0 SHL SUB AND EQ ISZERO JUMPDEST DUP1 ISZERO PUSH2 0x166D JUMPI POP PUSH2 0x166B DUP2 DUP5 PUSH2 0xCE0 JUMP JUMPDEST ISZERO JUMPDEST ISZERO PUSH2 0x1696 JUMPI PUSH1 0x40 MLOAD PUSH4 0xA9FBF51F PUSH1 0xE0 SHL DUP2 MSTORE PUSH1 0x1 PUSH1 0x1 PUSH1 0xA0 SHL SUB DUP5 AND PUSH1 0x4 DUP3 ADD MSTORE PUSH1 0x24 ADD PUSH2 0x69A JUMP JUMPDEST DUP2 ISZERO PUSH2 0x16DE JUMPI DUP4 DUP6 PUSH1 0x1 PUSH1 0x1 PUSH1 0xA0 SHL SUB AND DUP3 PUSH1 0x1 PUSH1 0x1 PUSH1 0xA0 SHL SUB AND PUSH32 0x8C5BE1E5EBEC7D5BD14F71427D1E84F3DD0314C0F7B2291E5B200AC8C7C3B925 PUSH1 0x40 MLOAD PUSH1 0x40 MLOAD DUP1 SWAP2 SUB SWAP1 LOG4 JUMPDEST POP JUMPDEST POP POP PUSH0 SWAP1 DUP2 MSTORE PUSH1 0x4 PUSH1 0x20 MSTORE PUSH1 0x40 SWAP1 KECCAK256 DUP1 SLOAD PUSH1 0x1 PUSH1 0x1 PUSH1 0xA0 SHL SUB NOT AND PUSH1 0x1 PUSH1 0x1 PUSH1 0xA0 SHL SUB SWAP3 SWAP1 SWAP3 AND SWAP2 SWAP1 SWAP2 OR SWAP1 SSTORE JUMP JUMPDEST PUSH2 0x171A DUP4 DUP4 DUP4 PUSH2 0x1DA6 JUMP JUMPDEST PUSH2 0x71D JUMPI PUSH1 0x1 PUSH1 0x1 PUSH1 0xA0 SHL SUB DUP4 AND PUSH2 0x1748 JUMPI PUSH1 0x40 MLOAD PUSH4 0x7E273289 PUSH1 0xE0 SHL DUP2 MSTORE PUSH1 0x4 DUP2 ADD DUP3 SWAP1 MSTORE PUSH1 0x24 ADD PUSH2 0x69A JUMP JUMPDEST PUSH1 0x40 MLOAD PUSH4 0x177E802F PUSH1 0xE0 SHL DUP2 MSTORE PUSH1 0x1 PUSH1 0x1 PUSH1 0xA0 SHL SUB DUP4 AND PUSH1 0x4 DUP3 ADD MSTORE PUSH1 0x24 DUP2 ADD DUP3 SWAP1 MSTORE PUSH1 0x44 ADD PUSH2 0x69A JUMP JUMPDEST PUSH2 0x464 DUP3 PUSH0 PUSH0 DUP5 PUSH2 0x1E0A JUMP JUMPDEST DUP1 MLOAD PUSH0 SUB PUSH2 0x17A0 JUMPI PUSH1 0x40 MLOAD PUSH4 0xFE936CB7 PUSH1 0xE0 SHL DUP2 MSTORE PUSH1 0x4 ADD PUSH1 0x40 MLOAD DUP1 SWAP2 SUB SWAP1 REVERT JUMPDEST PUSH1 0xA0 SWAP1 SWAP2 ADD MSTORE JUMP JUMPDEST PUSH1 0x60 PUSH0 PUSH2 0x17B6 PUSH2 0x100 PUSH2 0x1E87 JUMP JUMPDEST SWAP1 POP PUSH2 0x17EF PUSH1 0x40 MLOAD DUP1 PUSH1 0x40 ADD PUSH1 0x40 MSTORE DUP1 PUSH1 0xC DUP2 MSTORE PUSH1 0x20 ADD PUSH12 0x31B7B232A637B1B0BA34B7B7 PUSH1 0xA1 SHL DUP2 MSTORE POP DUP3 PUSH2 0x1EA7 SWAP1 SWAP2 SWAP1 PUSH4 0xFFFFFFFF AND JUMP JUMPDEST DUP3 MLOAD PUSH2 0x180D SWAP1 PUSH1 0x2 DUP2 GT ISZERO PUSH2 0x1806 JUMPI PUSH2 0x1806 PUSH2 0x34B3 JUMP JUMPDEST DUP3 SWAP1 PUSH2 0x1EC0 JUMP JUMPDEST PUSH1 0x40 DUP1 MLOAD DUP1 DUP3 ADD SWAP1 SWAP2 MSTORE PUSH1 0x8 DUP2 MSTORE PUSH8 0x6C616E6775616765 PUSH1 0xC0 SHL PUSH1 0x20 DUP3 ADD MSTORE PUSH2 0x1837 SWAP1 DUP3 SWAP1 PUSH2 0x1EA7 JUMP JUMPDEST PUSH1 0x40 DUP4 ADD MLOAD PUSH2 0x184E SWAP1 DUP1 ISZERO PUSH2 0x1806 JUMPI PUSH2 0x1806 PUSH2 0x34B3 JUMP JUMPDEST PUSH1 0x40 DUP1 MLOAD DUP1 DUP3 ADD SWAP1 SWAP2 MSTORE PUSH1 0x6 DUP2 MSTORE PUSH6 0x736F75726365 PUSH1 0xD0 SHL PUSH1 0x20 DUP3 ADD MSTORE PUSH2 0x1876 SWAP1 DUP3 SWAP1 PUSH2 0x1EA7 JUMP JUMPDEST PUSH1 0x60 DUP4 ADD MLOAD PUSH2 0x1886 SWAP1 DUP3 SWAP1 PUSH2 0x1EA7 JUMP JUMPDEST PUSH1 0xA0 DUP4 ADD MLOAD MLOAD ISZERO PUSH2 0x1911 JUMPI PUSH1 0x40 DUP1 MLOAD DUP1 DUP3 ADD SWAP1 SWAP2 MSTORE PUSH1 0x4 DUP2 MSTORE PUSH4 0x61726773 PUSH1 0xE0 SHL PUSH1 0x20 DUP3 ADD MSTORE PUSH2 0x18B7 SWAP1 DUP3 SWAP1 PUSH2 0x1EA7 JUMP JUMPDEST PUSH2 0x18C0 DUP2 PUSH2 0x1EF9 JUMP JUMPDEST PUSH0 JUMPDEST DUP4 PUSH1 0xA0 ADD MLOAD MLOAD DUP2 LT ISZERO PUSH2 0x1907 JUMPI PUSH2 0x18FF DUP5 PUSH1 0xA0 ADD MLOAD DUP3 DUP2 MLOAD DUP2 LT PUSH2 0x18E8 JUMPI PUSH2 0x18E8 PUSH2 0x2D98 JUMP JUMPDEST PUSH1 0x20 MUL PUSH1 0x20 ADD ADD MLOAD DUP4 PUSH2 0x1EA7 SWAP1 SWAP2 SWAP1 PUSH4 0xFFFFFFFF AND JUMP JUMPDEST PUSH1 0x1 ADD PUSH2 0x18C2 JUMP JUMPDEST POP PUSH2 0x1911 DUP2 PUSH2 0x1F1D JUMP JUMPDEST PUSH1 0x80 DUP4 ADD MLOAD MLOAD ISZERO PUSH2 0x19D4 JUMPI PUSH0 DUP4 PUSH1 0x20 ADD MLOAD PUSH1 0x2 DUP2 GT ISZERO PUSH2 0x1933 JUMPI PUSH2 0x1933 PUSH2 0x34B3 JUMP JUMPDEST SUB PUSH2 0x1951 JUMPI PUSH1 0x40 MLOAD PUSH4 0xA80D31F7 PUSH1 0xE0 SHL DUP2 MSTORE PUSH1 0x4 ADD PUSH1 0x40 MLOAD DUP1 SWAP2 SUB SWAP1 REVERT JUMPDEST PUSH1 0x40 DUP1 MLOAD DUP1 DUP3 ADD SWAP1 SWAP2 MSTORE PUSH1 0xF DUP2 MSTORE PUSH15 0x39B2B1B932BA39A637B1B0BA34B7B7 PUSH1 0x89 SHL PUSH1 0x20 DUP3 ADD MSTORE PUSH2 0x1982 SWAP1 DUP3 SWAP1 PUSH2 0x1EA7 JUMP JUMPDEST PUSH2 0x199B DUP4 PUSH1 0x20 ADD MLOAD PUSH1 0x2 DUP2 GT ISZERO PUSH2 0x1806 JUMPI PUSH2 0x1806 PUSH2 0x34B3 JUMP JUMPDEST PUSH1 0x40 DUP1 MLOAD DUP1 DUP3 ADD SWAP1 SWAP2 MSTORE PUSH1 0x7 DUP2 MSTORE PUSH7 0x73656372657473 PUSH1 0xC8 SHL PUSH1 0x20 DUP3 ADD MSTORE PUSH2 0x19C4 SWAP1 DUP3 SWAP1 PUSH2 0x1EA7 JUMP JUMPDEST PUSH1 0x80 DUP4 ADD MLOAD PUSH2 0x19D4 SWAP1 DUP3 SWAP1 PUSH2 0x1F3B JUMP JUMPDEST PUSH1 0xC0 DUP4 ADD MLOAD MLOAD ISZERO PUSH2 0x1A64 JUMPI PUSH1 0x40 DUP1 MLOAD DUP1 DUP3 ADD SWAP1 SWAP2 MSTORE PUSH1 0x9 DUP2 MSTORE PUSH9 0x627974657341726773 PUSH1 0xB8 SHL PUSH1 0x20 DUP3 ADD MSTORE PUSH2 0x1A0A SWAP1 DUP3 SWAP1 PUSH2 0x1EA7 JUMP JUMPDEST PUSH2 0x1A13 DUP2 PUSH2 0x1EF9 JUMP JUMPDEST PUSH0 JUMPDEST DUP4 PUSH1 0xC0 ADD MLOAD MLOAD DUP2 LT ISZERO PUSH2 0x1A5A JUMPI PUSH2 0x1A52 DUP5 PUSH1 0xC0 ADD MLOAD DUP3 DUP2 MLOAD DUP2 LT PUSH2 0x1A3B JUMPI PUSH2 0x1A3B PUSH2 0x2D98 JUMP JUMPDEST PUSH1 0x20 MUL PUSH1 0x20 ADD ADD MLOAD DUP4 PUSH2 0x1F3B SWAP1 SWAP2 SWAP1 PUSH4 0xFFFFFFFF AND JUMP JUMPDEST PUSH1 0x1 ADD PUSH2 0x1A15 JUMP JUMPDEST POP PUSH2 0x1A64 DUP2 PUSH2 0x1F1D JUMP JUMPDEST MLOAD MLOAD SWAP3 SWAP2 POP POP JUMP JUMPDEST PUSH0 PUSH0 PUSH32 0x0 PUSH1 0x1 PUSH1 0x1 PUSH1 0xA0 SHL SUB AND PUSH4 0x461D2762 DUP7 DUP9 PUSH1 0x1 DUP9 DUP9 PUSH1 0x40 MLOAD DUP7 PUSH4 0xFFFFFFFF AND PUSH1 0xE0 SHL DUP2 MSTORE PUSH1 0x4 ADD PUSH2 0x1AC3 SWAP6 SWAP5 SWAP4 SWAP3 SWAP2 SWAP1 PUSH2 0x34C7 JUMP JUMPDEST PUSH1 0x20 PUSH1 0x40 MLOAD DUP1 DUP4 SUB DUP2 PUSH0 DUP8 GAS CALL ISZERO DUP1 ISZERO PUSH2 0x1ADF JUMPI RETURNDATASIZE PUSH0 PUSH0 RETURNDATACOPY RETURNDATASIZE PUSH0 REVERT JUMPDEST POP POP POP POP PUSH1 0x40 MLOAD RETURNDATASIZE PUSH1 0x1F NOT PUSH1 0x1F DUP3 ADD AND DUP3 ADD DUP1 PUSH1 0x40 MSTORE POP DUP2 ADD SWAP1 PUSH2 0x1B03 SWAP2 SWAP1 PUSH2 0x2D81 JUMP JUMPDEST PUSH1 0x40 MLOAD SWAP1 SWAP2 POP DUP2 SWAP1 PUSH32 0x1131472297A800FEE664D1D89CFA8F7676FF07189ECC53F80BBB5F4969099DB8 SWAP1 PUSH0 SWAP1 LOG2 SWAP6 SWAP5 POP POP POP POP POP JUMP JUMPDEST PUSH0 DUP1 PUSH19 0x184F03E93FF9F4DAA797ED6E38ED64BF6A1F01 PUSH1 0x40 SHL DUP4 LT PUSH2 0x1B77 JUMPI PUSH19 0x184F03E93FF9F4DAA797ED6E38ED64BF6A1F01 PUSH1 0x40 SHL DUP4 DIV SWAP3 POP PUSH1 0x40 ADD JUMPDEST PUSH14 0x4EE2D6D415B85ACEF8100000000 DUP4 LT PUSH2 0x1BA3 JUMPI PUSH14 0x4EE2D6D415B85ACEF8100000000 DUP4 DIV SWAP3 POP PUSH1 0x20 ADD JUMPDEST PUSH7 0x2386F26FC10000 DUP4 LT PUSH2 0x1BC1 JUMPI PUSH7 0x2386F26FC10000 DUP4 DIV SWAP3 POP PUSH1 0x10 ADD JUMPDEST PUSH4 0x5F5E100 DUP4 LT PUSH2 0x1BD9 JUMPI PUSH4 0x5F5E100 DUP4 DIV SWAP3 POP PUSH1 0x8 ADD JUMPDEST PUSH2 0x2710 DUP4 LT PUSH2 0x1BED JUMPI PUSH2 0x2710 DUP4 DIV SWAP3 POP PUSH1 0x4 ADD JUMPDEST PUSH1 0x64 DUP4 LT PUSH2 0x1BFF JUMPI PUSH1 0x64 DUP4 DIV SWAP3 POP PUSH1 0x2 ADD JUMPDEST PUSH1 0xA DUP4 LT PUSH2 0x48C JUMPI PUSH1 0x1 ADD SWAP3 SWAP2 POP POP JUMP JUMPDEST PUSH1 0x60 DUP3 MLOAD PUSH0 SUB PUSH2 0x1C2E JUMPI POP PUSH1 0x40 DUP1 MLOAD PUSH1 0x20 DUP2 ADD SWAP1 SWAP2 MSTORE PUSH0 DUP2 MSTORE PUSH2 0x48C JUMP JUMPDEST PUSH0 DUP3 PUSH2 0x1C5E JUMPI PUSH1 0x3 DUP5 MLOAD PUSH1 0x2 PUSH2 0x1C44 SWAP2 SWAP1 PUSH2 0x2936 JUMP JUMPDEST PUSH2 0x1C4E SWAP2 SWAP1 PUSH2 0x2974 JUMP JUMPDEST PUSH2 0x1C59 SWAP1 PUSH1 0x4 PUSH2 0x2949 JUMP JUMPDEST PUSH2 0x1C83 JUMP JUMPDEST PUSH1 0x3 DUP5 MLOAD PUSH1 0x4 PUSH2 0x1C6E SWAP2 SWAP1 PUSH2 0x2949 JUMP JUMPDEST PUSH2 0x1C79 SWAP1 PUSH1 0x2 PUSH2 0x2936 JUMP JUMPDEST PUSH2 0x1C83 SWAP2 SWAP1 PUSH2 0x2974 JUMP JUMPDEST SWAP1 POP PUSH1 0x40 MLOAD SWAP2 POP PUSH32 0x4142434445464748494A4B4C4D4E4F505152535455565758595A616263646566 PUSH1 0x1F MSTORE PUSH2 0x670 DUP4 MUL PUSH32 0x6768696A6B6C6D6E6F707172737475767778797A303132333435363738392B2F XOR PUSH1 0x3F MSTORE PUSH1 0x20 DUP3 ADD DUP2 DUP2 ADD DUP6 DUP7 MLOAD DUP8 ADD PUSH1 0x20 DUP2 ADD DUP1 MLOAD PUSH0 DUP3 MSTORE JUMPDEST DUP3 DUP5 LT ISZERO PUSH2 0x1D41 JUMPI PUSH1 0x3 DUP5 ADD SWAP4 POP DUP4 MLOAD PUSH1 0x3F DUP2 PUSH1 0x12 SHR AND MLOAD DUP8 MSTORE8 PUSH1 0x1 DUP8 ADD SWAP7 POP PUSH1 0x3F DUP2 PUSH1 0xC SHR AND MLOAD DUP8 MSTORE8 PUSH1 0x1 DUP8 ADD SWAP7 POP PUSH1 0x3F DUP2 PUSH1 0x6 SHR AND MLOAD DUP8 MSTORE8 PUSH1 0x1 DUP8 ADD SWAP7 POP PUSH1 0x3F DUP2 AND MLOAD DUP8 MSTORE8 POP PUSH1 0x1 DUP7 ADD SWAP6 POP PUSH2 0x1CEE JUMP JUMPDEST SWAP1 MSTORE POP DUP6 SWAP1 POP PUSH2 0x1D82 JUMPI PUSH1 0x3 DUP7 MLOAD MOD PUSH1 0x1 DUP2 EQ PUSH2 0x1D65 JUMPI PUSH1 0x2 DUP2 EQ PUSH2 0x1D78 JUMPI PUSH2 0x1D80 JUMP JUMPDEST PUSH1 0x3D PUSH1 0x1 DUP5 SUB MSTORE8 PUSH1 0x3D PUSH1 0x2 DUP5 SUB MSTORE8 PUSH2 0x1D80 JUMP JUMPDEST PUSH1 0x3D PUSH1 0x1 DUP5 SUB MSTORE8 JUMPDEST POP JUMPDEST SWAP2 DUP4 MSTORE POP PUSH1 0x40 MSTORE SWAP3 SWAP2 POP POP JUMP JUMPDEST PUSH2 0x1D99 DUP4 DUP4 PUSH2 0x1F48 JUMP JUMPDEST PUSH2 0x71D CALLER PUSH0 DUP6 DUP6 DUP6 PUSH2 0x14BE JUMP JUMPDEST PUSH0 PUSH1 0x1 PUSH1 0x1 PUSH1 0xA0 SHL SUB DUP4 AND ISZERO DUP1 ISZERO SWAP1 PUSH2 0x1E02 JUMPI POP DUP3 PUSH1 0x1 PUSH1 0x1 PUSH1 0xA0 SHL SUB AND DUP5 PUSH1 0x1 PUSH1 0x1 PUSH1 0xA0 SHL SUB AND EQ DUP1 PUSH2 0x1DDF JUMPI POP PUSH2 0x1DDF DUP5 DUP5 PUSH2 0xCE0 JUMP JUMPDEST DUP1 PUSH2 0x1E02 JUMPI POP PUSH0 DUP3 DUP2 MSTORE PUSH1 0x4 PUSH1 0x20 MSTORE PUSH1 0x40 SWAP1 KECCAK256 SLOAD PUSH1 0x1 PUSH1 0x1 PUSH1 0xA0 SHL SUB DUP5 DUP2 AND SWAP2 AND EQ JUMPDEST SWAP5 SWAP4 POP POP POP POP JUMP JUMPDEST DUP1 MLOAD PUSH0 SUB PUSH2 0x1E2B JUMPI PUSH1 0x40 MLOAD PUSH4 0x22CE3EDD PUSH1 0xE0 SHL DUP2 MSTORE PUSH1 0x4 ADD PUSH1 0x40 MLOAD DUP1 SWAP2 SUB SWAP1 REVERT JUMPDEST DUP4 DUP4 PUSH1 0x2 DUP2 GT ISZERO PUSH2 0x1E3E JUMPI PUSH2 0x1E3E PUSH2 0x34B3 JUMP JUMPDEST SWAP1 DUP2 PUSH1 0x2 DUP2 GT ISZERO PUSH2 0x1E51 JUMPI PUSH2 0x1E51 PUSH2 0x34B3 JUMP JUMPDEST SWAP1 MSTORE POP PUSH1 0x40 DUP5 ADD DUP3 DUP1 ISZERO PUSH2 0x1E67 JUMPI PUSH2 0x1E67 PUSH2 0x34B3 JUMP JUMPDEST SWAP1 DUP2 DUP1 ISZERO PUSH2 0x1E77 JUMPI PUSH2 0x1E77 PUSH2 0x34B3 JUMP JUMPDEST SWAP1 MSTORE POP PUSH1 0x60 SWAP1 SWAP4 ADD SWAP3 SWAP1 SWAP3 MSTORE POP POP JUMP JUMPDEST PUSH2 0x1E8F PUSH2 0x2340 JUMP JUMPDEST DUP1 MLOAD PUSH2 0x1E9B SWAP1 DUP4 PUSH2 0x1FA9 JUMP JUMPDEST POP PUSH0 PUSH1 0x20 DUP3 ADD MSTORE SWAP2 SWAP1 POP JUMP JUMPDEST PUSH2 0x1EB4 DUP3 PUSH1 0x3 DUP4 MLOAD PUSH2 0x201D JUMP JUMPDEST DUP2 MLOAD PUSH2 0x71D SWAP1 DUP3 PUSH2 0x2136 JUMP JUMPDEST DUP2 MLOAD PUSH2 0x1ECD SWAP1 PUSH1 0xC2 PUSH2 0x215D JUMP JUMPDEST POP PUSH2 0x464 DUP3 DUP3 PUSH1 0x40 MLOAD PUSH1 0x20 ADD PUSH2 0x1EE5 SWAP2 DUP2 MSTORE PUSH1 0x20 ADD SWAP1 JUMP JUMPDEST PUSH1 0x40 MLOAD PUSH1 0x20 DUP2 DUP4 SUB SUB DUP2 MSTORE SWAP1 PUSH1 0x40 MSTORE PUSH2 0x1F3B JUMP JUMPDEST PUSH2 0x1F04 DUP2 PUSH1 0x4 PUSH2 0x21C4 JUMP JUMPDEST PUSH1 0x1 DUP2 PUSH1 0x20 ADD DUP2 DUP2 MLOAD PUSH2 0x1F17 SWAP2 SWAP1 PUSH2 0x2936 JUMP JUMPDEST SWAP1 MSTORE POP POP JUMP JUMPDEST PUSH2 0x1F28 DUP2 PUSH1 0x7 PUSH2 0x21C4 JUMP JUMPDEST PUSH1 0x1 DUP2 PUSH1 0x20 ADD DUP2 DUP2 MLOAD PUSH2 0x1F17 SWAP2 SWAP1 PUSH2 0x2923 JUMP JUMPDEST PUSH2 0x1EB4 DUP3 PUSH1 0x2 DUP4 MLOAD PUSH2 0x201D JUMP JUMPDEST PUSH1 0x1 PUSH1 0x1 PUSH1 0xA0 SHL SUB DUP3 AND PUSH2 0x1F71 JUMPI PUSH1 0x40 MLOAD PUSH4 0x32505749 PUSH1 0xE1 SHL DUP2 MSTORE PUSH0 PUSH1 0x4 DUP3 ADD MSTORE PUSH1 0x24 ADD PUSH2 0x69A JUMP JUMPDEST PUSH0 PUSH2 0x1F7D DUP4 DUP4 PUSH0 PUSH2 0x1000 JUMP JUMPDEST SWAP1 POP PUSH1 0x1 PUSH1 0x1 PUSH1 0xA0 SHL SUB DUP2 AND ISZERO PUSH2 0x71D JUMPI PUSH1 0x40 MLOAD PUSH4 0x39E35637 PUSH1 0xE1 SHL DUP2 MSTORE PUSH0 PUSH1 0x4 DUP3 ADD MSTORE PUSH1 0x24 ADD PUSH2 0x69A JUMP JUMPDEST PUSH1 0x40 DUP1 MLOAD DUP1 DUP3 ADD SWAP1 SWAP2 MSTORE PUSH1 0x60 DUP2 MSTORE PUSH0 PUSH1 0x20 DUP3 ADD MSTORE PUSH2 0x1FC8 PUSH1 0x20 DUP4 PUSH2 0x2987 JUMP JUMPDEST ISZERO PUSH2 0x1FF0 JUMPI PUSH2 0x1FD8 PUSH1 0x20 DUP4 PUSH2 0x2987 JUMP JUMPDEST PUSH2 0x1FE3 SWAP1 PUSH1 0x20 PUSH2 0x2923 JUMP JUMPDEST PUSH2 0x1FED SWAP1 DUP4 PUSH2 0x2936 JUMP JUMPDEST SWAP2 POP JUMPDEST PUSH1 0x20 DUP1 DUP5 ADD DUP4 SWAP1 MSTORE PUSH1 0x40 MLOAD DUP1 DUP6 MSTORE PUSH0 DUP2 MSTORE SWAP1 DUP2 DUP5 ADD ADD DUP2 DUP2 LT ISZERO PUSH2 0x2012 JUMPI PUSH0 PUSH0 REVERT JUMPDEST PUSH1 0x40 MSTORE POP SWAP2 SWAP3 SWAP2 POP POP JUMP JUMPDEST PUSH1 0x17 DUP2 PUSH1 0x1 PUSH1 0x1 PUSH1 0x40 SHL SUB AND GT PUSH2 0x2043 JUMPI DUP3 MLOAD PUSH2 0x6FD SWAP1 PUSH1 0xE0 PUSH1 0x5 DUP6 SWAP1 SHL AND DUP4 OR PUSH2 0x215D JUMP JUMPDEST PUSH1 0xFF DUP2 PUSH1 0x1 PUSH1 0x1 PUSH1 0x40 SHL SUB AND GT PUSH2 0x2083 JUMPI DUP3 MLOAD PUSH2 0x206B SWAP1 PUSH1 0x18 PUSH2 0x1FE0 PUSH1 0x5 DUP7 SWAP1 SHL AND OR PUSH2 0x215D JUMP JUMPDEST POP DUP3 MLOAD PUSH2 0x6FD SWAP1 PUSH1 0x1 PUSH1 0x1 PUSH1 0x40 SHL SUB DUP4 AND PUSH1 0x1 PUSH2 0x21DB JUMP JUMPDEST PUSH2 0xFFFF DUP2 PUSH1 0x1 PUSH1 0x1 PUSH1 0x40 SHL SUB AND GT PUSH2 0x20C4 JUMPI DUP3 MLOAD PUSH2 0x20AC SWAP1 PUSH1 0x19 PUSH2 0x1FE0 PUSH1 0x5 DUP7 SWAP1 SHL AND OR PUSH2 0x215D JUMP JUMPDEST POP DUP3 MLOAD PUSH2 0x6FD SWAP1 PUSH1 0x1 PUSH1 0x1 PUSH1 0x40 SHL SUB DUP4 AND PUSH1 0x2 PUSH2 0x21DB JUMP JUMPDEST PUSH4 0xFFFFFFFF DUP2 PUSH1 0x1 PUSH1 0x1 PUSH1 0x40 SHL SUB AND GT PUSH2 0x2107 JUMPI DUP3 MLOAD PUSH2 0x20EF SWAP1 PUSH1 0x1A PUSH2 0x1FE0 PUSH1 0x5 DUP7 SWAP1 SHL AND OR PUSH2 0x215D JUMP JUMPDEST POP DUP3 MLOAD PUSH2 0x6FD SWAP1 PUSH1 0x1 PUSH1 0x1 PUSH1 0x40 SHL SUB DUP4 AND PUSH1 0x4 PUSH2 0x21DB JUMP JUMPDEST DUP3 MLOAD PUSH2 0x211E SWAP1 PUSH1 0x1B PUSH2 0x1FE0 PUSH1 0x5 DUP7 SWAP1 SHL AND OR PUSH2 0x215D JUMP JUMPDEST POP DUP3 MLOAD PUSH2 0x6FD SWAP1 PUSH1 0x1 PUSH1 0x1 PUSH1 0x40 SHL SUB DUP4 AND PUSH1 0x8 PUSH2 0x21DB JUMP JUMPDEST PUSH1 0x40 DUP1 MLOAD DUP1 DUP3 ADD SWAP1 SWAP2 MSTORE PUSH1 0x60 DUP2 MSTORE PUSH0 PUSH1 0x20 DUP3 ADD MSTORE PUSH2 0x2156 DUP4 DUP4 DUP5 MLOAD PUSH2 0x225D JUMP JUMPDEST SWAP4 SWAP3 POP POP POP JUMP JUMPDEST PUSH1 0x40 DUP1 MLOAD DUP1 DUP3 ADD SWAP1 SWAP2 MSTORE PUSH1 0x60 DUP2 MSTORE PUSH0 PUSH1 0x20 DUP3 ADD MSTORE DUP3 MLOAD MLOAD PUSH0 PUSH2 0x2180 DUP3 PUSH1 0x1 PUSH2 0x2936 JUMP JUMPDEST SWAP1 POP DUP5 PUSH1 0x20 ADD MLOAD DUP3 LT PUSH2 0x21A1 JUMPI PUSH2 0x21A1 DUP6 PUSH2 0x219C DUP4 PUSH1 0x2 PUSH2 0x2949 JUMP JUMPDEST PUSH2 0x2329 JUMP JUMPDEST DUP5 MLOAD PUSH1 0x20 DUP4 DUP3 ADD ADD DUP6 DUP2 MSTORE8 POP DUP1 MLOAD DUP3 GT ISZERO PUSH2 0x21BA JUMPI DUP2 DUP2 MSTORE JUMPDEST POP SWAP4 SWAP5 SWAP4 POP POP POP POP JUMP JUMPDEST DUP2 MLOAD PUSH2 0x71D SWAP1 PUSH1 0x1F PUSH2 0x1FE0 PUSH1 0x5 DUP6 SWAP1 SHL AND OR PUSH2 0x215D JUMP JUMPDEST PUSH1 0x40 DUP1 MLOAD DUP1 DUP3 ADD SWAP1 SWAP2 MSTORE PUSH1 0x60 DUP2 MSTORE PUSH0 PUSH1 0x20 DUP3 ADD MSTORE DUP4 MLOAD MLOAD PUSH0 PUSH2 0x21FD DUP3 DUP6 PUSH2 0x2936 JUMP JUMPDEST SWAP1 POP DUP6 PUSH1 0x20 ADD MLOAD DUP2 GT ISZERO PUSH2 0x221A JUMPI PUSH2 0x221A DUP7 PUSH2 0x219C DUP4 PUSH1 0x2 PUSH2 0x2949 JUMP JUMPDEST PUSH0 PUSH1 0x1 PUSH2 0x2229 DUP7 PUSH2 0x100 PUSH2 0x35F2 JUMP JUMPDEST PUSH2 0x2233 SWAP2 SWAP1 PUSH2 0x2923 JUMP JUMPDEST SWAP1 POP DUP7 MLOAD DUP3 DUP2 ADD DUP8 DUP4 NOT DUP3 MLOAD AND OR DUP2 MSTORE POP DUP1 MLOAD DUP4 GT ISZERO PUSH2 0x2251 JUMPI DUP3 DUP2 MSTORE JUMPDEST POP SWAP6 SWAP7 SWAP6 POP POP POP POP POP POP JUMP JUMPDEST PUSH1 0x40 DUP1 MLOAD DUP1 DUP3 ADD SWAP1 SWAP2 MSTORE PUSH1 0x60 DUP2 MSTORE PUSH0 PUSH1 0x20 DUP3 ADD MSTORE DUP3 MLOAD DUP3 GT ISZERO PUSH2 0x227E JUMPI PUSH0 PUSH0 REVERT JUMPDEST DUP4 MLOAD MLOAD PUSH0 PUSH2 0x228C DUP5 DUP4 PUSH2 0x2936 JUMP JUMPDEST SWAP1 POP DUP6 PUSH1 0x20 ADD MLOAD DUP2 GT ISZERO PUSH2 0x22A9 JUMPI PUSH2 0x22A9 DUP7 PUSH2 0x219C DUP4 PUSH1 0x2 PUSH2 0x2949 JUMP JUMPDEST DUP6 MLOAD DUP1 MLOAD DUP4 DUP3 ADD PUSH1 0x20 ADD SWAP2 PUSH0 SWAP2 DUP1 DUP6 GT ISZERO PUSH2 0x22C2 JUMPI DUP5 DUP3 MSTORE JUMPDEST POP POP POP PUSH1 0x20 DUP7 ADD JUMPDEST PUSH1 0x20 DUP7 LT PUSH2 0x2302 JUMPI DUP1 MLOAD DUP3 MSTORE PUSH2 0x22E1 PUSH1 0x20 DUP4 PUSH2 0x2936 JUMP JUMPDEST SWAP2 POP PUSH2 0x22EE PUSH1 0x20 DUP3 PUSH2 0x2936 JUMP JUMPDEST SWAP1 POP PUSH2 0x22FB PUSH1 0x20 DUP8 PUSH2 0x2923 JUMP JUMPDEST SWAP6 POP PUSH2 0x22CA JUMP JUMPDEST MLOAD DUP2 MLOAD PUSH0 NOT PUSH1 0x20 DUP9 SWAP1 SUB PUSH2 0x100 EXP ADD SWAP1 DUP2 AND SWAP1 NOT SWAP2 SWAP1 SWAP2 AND OR SWAP1 MSTORE POP DUP5 SWAP2 POP POP SWAP4 SWAP3 POP POP POP JUMP JUMPDEST DUP2 MLOAD PUSH2 0x2335 DUP4 DUP4 PUSH2 0x1FA9 JUMP JUMPDEST POP PUSH2 0x6FD DUP4 DUP3 PUSH2 0x2136 JUMP JUMPDEST PUSH1 0x40 MLOAD DUP1 PUSH1 0x40 ADD PUSH1 0x40 MSTORE DUP1 PUSH2 0x2367 PUSH1 0x40 MLOAD DUP1 PUSH1 0x40 ADD PUSH1 0x40 MSTORE DUP1 PUSH1 0x60 DUP2 MSTORE PUSH1 0x20 ADD PUSH0 DUP2 MSTORE POP SWAP1 JUMP JUMPDEST DUP2 MSTORE PUSH1 0x20 ADD PUSH0 DUP2 MSTORE POP SWAP1 JUMP JUMPDEST PUSH4 0x4E487B71 PUSH1 0xE0 SHL PUSH0 MSTORE PUSH1 0x41 PUSH1 0x4 MSTORE PUSH1 0x24 PUSH0 REVERT JUMPDEST PUSH0 DUP3 PUSH1 0x1F DUP4 ADD SLT PUSH2 0x2396 JUMPI PUSH0 PUSH0 REVERT JUMPDEST DUP2 CALLDATALOAD PUSH1 0x20 DUP4 ADD PUSH0 PUSH0 PUSH1 0x1 PUSH1 0x1 PUSH1 0x40 SHL SUB DUP5 GT ISZERO PUSH2 0x23B5 JUMPI PUSH2 0x23B5 PUSH2 0x2373 JUMP JUMPDEST POP PUSH1 0x40 MLOAD PUSH1 0x1F NOT PUSH1 0x1F DUP6 ADD DUP2 AND PUSH1 0x3F ADD AND DUP2 ADD DUP2 DUP2 LT PUSH1 0x1 PUSH1 0x1 PUSH1 0x40 SHL SUB DUP3 GT OR ISZERO PUSH2 0x23E3 JUMPI PUSH2 0x23E3 PUSH2 0x2373 JUMP JUMPDEST PUSH1 0x40 MSTORE DUP4 DUP2 MSTORE SWAP1 POP DUP1 DUP3 DUP5 ADD DUP8 LT ISZERO PUSH2 0x23FA JUMPI PUSH0 PUSH0 REVERT JUMPDEST DUP4 DUP4 PUSH1 0x20 DUP4 ADD CALLDATACOPY PUSH0 PUSH1 0x20 DUP6 DUP4 ADD ADD MSTORE DUP1 SWAP5 POP POP POP POP POP SWAP3 SWAP2 POP POP JUMP JUMPDEST PUSH0 PUSH1 0x20 DUP3 DUP5 SUB SLT ISZERO PUSH2 0x2426 JUMPI PUSH0 PUSH0 REVERT JUMPDEST DUP2 CALLDATALOAD PUSH1 0x1 PUSH1 0x1 PUSH1 0x40 SHL SUB DUP2 GT ISZERO PUSH2 0x243B JUMPI PUSH0 PUSH0 REVERT JUMPDEST PUSH2 0x1E02 DUP5 DUP3 DUP6 ADD PUSH2 0x2387 JUMP JUMPDEST PUSH1 0x1 PUSH1 0x1 PUSH1 0xE0 SHL SUB NOT DUP2 AND DUP2 EQ PUSH2 0xE4A JUMPI PUSH0 PUSH0 REVERT JUMPDEST PUSH0 PUSH1 0x20 DUP3 DUP5 SUB SLT ISZERO PUSH2 0x246C JUMPI PUSH0 PUSH0 REVERT JUMPDEST DUP2 CALLDATALOAD PUSH2 0x2156 DUP2 PUSH2 0x2447 JUMP JUMPDEST PUSH0 DUP2 MLOAD DUP1 DUP5 MSTORE DUP1 PUSH1 0x20 DUP5 ADD PUSH1 0x20 DUP7 ADD MCOPY PUSH0 PUSH1 0x20 DUP3 DUP7 ADD ADD MSTORE PUSH1 0x20 PUSH1 0x1F NOT PUSH1 0x1F DUP4 ADD AND DUP6 ADD ADD SWAP2 POP POP SWAP3 SWAP2 POP POP JUMP JUMPDEST PUSH1 0x20 DUP2 MSTORE PUSH0 PUSH2 0x2156 PUSH1 0x20 DUP4 ADD DUP5 PUSH2 0x2477 JUMP JUMPDEST PUSH0 PUSH1 0x20 DUP3 DUP5 SUB SLT ISZERO PUSH2 0x24C7 JUMPI PUSH0 PUSH0 REVERT JUMPDEST POP CALLDATALOAD SWAP2 SWAP1 POP JUMP JUMPDEST DUP1 CALLDATALOAD PUSH1 0x1 PUSH1 0x1 PUSH1 0xA0 SHL SUB DUP2 AND DUP2 EQ PUSH2 0x24E4 JUMPI PUSH0 PUSH0 REVERT JUMPDEST SWAP2 SWAP1 POP JUMP JUMPDEST PUSH0 PUSH0 PUSH1 0x40 DUP4 DUP6 SUB SLT ISZERO PUSH2 0x24FA JUMPI PUSH0 PUSH0 REVERT JUMPDEST PUSH2 0x2503 DUP4 PUSH2 0x24CE JUMP JUMPDEST SWAP5 PUSH1 0x20 SWAP4 SWAP1 SWAP4 ADD CALLDATALOAD SWAP4 POP POP POP JUMP JUMPDEST PUSH0 PUSH0 PUSH0 PUSH1 0x60 DUP5 DUP7 SUB SLT ISZERO PUSH2 0x2523 JUMPI PUSH0 PUSH0 REVERT JUMPDEST DUP4 CALLDATALOAD SWAP3 POP PUSH1 0x20 DUP5 ADD CALLDATALOAD PUSH1 0x1 PUSH1 0x1 PUSH1 0x40 SHL SUB DUP2 GT ISZERO PUSH2 0x253F JUMPI PUSH0 PUSH0 REVERT JUMPDEST PUSH2 0x254B DUP7 DUP3 DUP8 ADD PUSH2 0x2387 JUMP JUMPDEST SWAP3 POP POP PUSH1 0x40 DUP5 ADD CALLDATALOAD PUSH1 0x1 PUSH1 0x1 PUSH1 0x40 SHL SUB DUP2 GT ISZERO PUSH2 0x2566 JUMPI PUSH0 PUSH0 REVERT JUMPDEST PUSH2 0x2572 DUP7 DUP3 DUP8 ADD PUSH2 0x2387 JUMP JUMPDEST SWAP2 POP POP SWAP3 POP SWAP3 POP SWAP3 JUMP JUMPDEST PUSH0 PUSH0 PUSH1 0x40 DUP4 DUP6 SUB SLT ISZERO PUSH2 0x258D JUMPI PUSH0 PUSH0 REVERT JUMPDEST POP POP DUP1 CALLDATALOAD SWAP3 PUSH1 0x20 SWAP1 SWAP2 ADD CALLDATALOAD SWAP2 POP JUMP JUMPDEST PUSH0 PUSH0 PUSH0 PUSH1 0x60 DUP5 DUP7 SUB SLT ISZERO PUSH2 0x25AE JUMPI PUSH0 PUSH0 REVERT JUMPDEST PUSH2 0x25B7 DUP5 PUSH2 0x24CE JUMP JUMPDEST SWAP3 POP PUSH2 0x25C5 PUSH1 0x20 DUP6 ADD PUSH2 0x24CE JUMP JUMPDEST SWAP3 SWAP6 SWAP3 SWAP5 POP POP POP PUSH1 0x40 SWAP2 SWAP1 SWAP2 ADD CALLDATALOAD SWAP1 JUMP JUMPDEST PUSH0 PUSH0 PUSH1 0x20 DUP4 DUP6 SUB SLT ISZERO PUSH2 0x25E7 JUMPI PUSH0 PUSH0 REVERT JUMPDEST DUP3 CALLDATALOAD PUSH1 0x1 PUSH1 0x1 PUSH1 0x40 SHL SUB DUP2 GT ISZERO PUSH2 0x25FC JUMPI PUSH0 PUSH0 REVERT JUMPDEST DUP4 ADD PUSH1 0x1F DUP2 ADD DUP6 SGT PUSH2 0x260C JUMPI PUSH0 PUSH0 REVERT JUMPDEST DUP1 CALLDATALOAD PUSH1 0x1 PUSH1 0x1 PUSH1 0x40 SHL SUB DUP2 GT ISZERO PUSH2 0x2621 JUMPI PUSH0 PUSH0 REVERT JUMPDEST DUP6 PUSH1 0x20 DUP3 DUP5 ADD ADD GT ISZERO PUSH2 0x2632 JUMPI PUSH0 PUSH0 REVERT JUMPDEST PUSH1 0x20 SWAP2 SWAP1 SWAP2 ADD SWAP6 SWAP1 SWAP5 POP SWAP3 POP POP POP JUMP JUMPDEST DUP3 ISZERO ISZERO DUP2 MSTORE PUSH1 0x40 PUSH1 0x20 DUP3 ADD MSTORE PUSH0 PUSH2 0x1E02 PUSH1 0x40 DUP4 ADD DUP5 PUSH2 0x2477 JUMP JUMPDEST PUSH0 PUSH1 0x20 DUP3 DUP5 SUB SLT ISZERO PUSH2 0x266C JUMPI PUSH0 PUSH0 REVERT JUMPDEST PUSH2 0x2156 DUP3 PUSH2 0x24CE JUMP JUMPDEST PUSH0 PUSH0 PUSH1 0x40 DUP4 DUP6 SUB SLT ISZERO PUSH2 0x2686 JUMPI PUSH0 PUSH0 REVERT JUMPDEST PUSH2 0x268F DUP4 PUSH2 0x24CE JUMP JUMPDEST SWAP2 POP PUSH1 0x20 DUP4 ADD CALLDATALOAD DUP1 ISZERO ISZERO DUP2 EQ PUSH2 0x26A3 JUMPI PUSH0 PUSH0 REVERT JUMPDEST DUP1 SWAP2 POP POP SWAP3 POP SWAP3 SWAP1 POP JUMP JUMPDEST PUSH1 0xC0 DUP2 MSTORE PUSH0 PUSH2 0x26C0 PUSH1 0xC0 DUP4 ADD DUP10 PUSH2 0x2477 JUMP JUMPDEST DUP3 DUP2 SUB PUSH1 0x20 DUP5 ADD MSTORE PUSH2 0x26D2 DUP2 DUP10 PUSH2 0x2477 JUMP JUMPDEST PUSH1 0x1 PUSH1 0x1 PUSH1 0x40 SHL SUB SWAP8 DUP9 AND PUSH1 0x40 DUP6 ADD MSTORE SWAP6 DUP8 AND PUSH1 0x60 DUP5 ADD MSTORE POP POP SWAP2 DUP5 AND PUSH1 0x80 DUP4 ADD MSTORE SWAP1 SWAP3 AND PUSH1 0xA0 SWAP1 SWAP3 ADD SWAP2 SWAP1 SWAP2 MSTORE SWAP3 SWAP2 POP POP JUMP JUMPDEST PUSH0 PUSH0 PUSH0 PUSH0 PUSH1 0x80 DUP6 DUP8 SUB SLT ISZERO PUSH2 0x2719 JUMPI PUSH0 PUSH0 REVERT JUMPDEST PUSH2 0x2722 DUP6 PUSH2 0x24CE JUMP JUMPDEST SWAP4 POP PUSH2 0x2730 PUSH1 0x20 DUP7 ADD PUSH2 0x24CE JUMP JUMPDEST SWAP3 POP PUSH1 0x40 DUP6 ADD CALLDATALOAD SWAP2 POP PUSH1 0x60 DUP6 ADD CALLDATALOAD PUSH1 0x1 PUSH1 0x1 PUSH1 0x40 SHL SUB DUP2 GT ISZERO PUSH2 0x2751 JUMPI PUSH0 PUSH0 REVERT JUMPDEST PUSH2 0x275D DUP8 DUP3 DUP9 ADD PUSH2 0x2387 JUMP JUMPDEST SWAP2 POP POP SWAP3 SWAP6 SWAP2 SWAP5 POP SWAP3 POP JUMP JUMPDEST PUSH0 PUSH0 PUSH1 0x40 DUP4 DUP6 SUB SLT ISZERO PUSH2 0x277A JUMPI PUSH0 PUSH0 REVERT JUMPDEST PUSH2 0x2783 DUP4 PUSH2 0x24CE JUMP JUMPDEST SWAP2 POP PUSH2 0x2791 PUSH1 0x20 DUP5 ADD PUSH2 0x24CE JUMP JUMPDEST SWAP1 POP SWAP3 POP SWAP3 SWAP1 POP JUMP JUMPDEST PUSH0 PUSH0 PUSH0 PUSH1 0x60 DUP5 DUP7 SUB SLT ISZERO PUSH2 0x27AC JUMPI PUSH0 PUSH0 REVERT JUMPDEST PUSH2 0x27B5 DUP5 PUSH2 0x24CE JUMP JUMPDEST SWAP3 POP PUSH1 0x20 DUP5 ADD CALLDATALOAD PUSH1 0x1 PUSH1 0x1 PUSH1 0x40 SHL SUB DUP2 GT ISZERO PUSH2 0x253F JUMPI PUSH0 PUSH0 REVERT JUMPDEST PUSH1 0x1 DUP2 DUP2 SHR SWAP1 DUP3 AND DUP1 PUSH2 0x27E3 JUMPI PUSH1 0x7F DUP3 AND SWAP2 POP JUMPDEST PUSH1 0x20 DUP3 LT DUP2 SUB PUSH2 0x2801 JUMPI PUSH4 0x4E487B71 PUSH1 0xE0 SHL PUSH0 MSTORE PUSH1 0x22 PUSH1 0x4 MSTORE PUSH1 0x24 PUSH0 REVERT JUMPDEST POP SWAP2 SWAP1 POP JUMP JUMPDEST PUSH1 0x1F DUP3 GT ISZERO PUSH2 0x71D JUMPI DUP3 DUP3 GT ISZERO PUSH2 0x71D JUMPI DUP1 PUSH0 MSTORE PUSH1 0x20 PUSH0 KECCAK256 PUSH1 0x1F DUP5 ADD PUSH1 0x5 SHR PUSH1 0x20 DUP6 LT ISZERO PUSH2 0x2832 JUMPI POP PUSH0 JUMPDEST SWAP1 DUP2 ADD SWAP1 PUSH1 0x1F DUP5 ADD PUSH1 0x5 SHR SUB PUSH0 JUMPDEST DUP2 DUP2 LT ISZERO PUSH2 0x15DD JUMPI PUSH0 DUP4 DUP3 ADD SSTORE PUSH1 0x1 ADD PUSH2 0x2840 JUMP JUMPDEST DUP2 MLOAD PUSH1 0x1 PUSH1 0x1 PUSH1 0x40 SHL SUB DUP2 GT ISZERO PUSH2 0x286E JUMPI PUSH2 0x286E PUSH2 0x2373 JUMP JUMPDEST PUSH2 0x2882 DUP2 PUSH2 0x287C DUP5 SLOAD PUSH2 0x27CF JUMP JUMPDEST DUP5 PUSH2 0x2807 JUMP JUMPDEST PUSH1 0x20 PUSH1 0x1F DUP3 GT PUSH1 0x1 DUP2 EQ PUSH2 0x28B4 JUMPI PUSH0 DUP4 ISZERO PUSH2 0x289D JUMPI POP DUP5 DUP3 ADD MLOAD JUMPDEST PUSH0 NOT PUSH1 0x3 DUP6 SWAP1 SHL SHR NOT AND PUSH1 0x1 DUP5 SWAP1 SHL OR DUP5 SSTORE PUSH2 0x15DF JUMP JUMPDEST PUSH0 DUP5 DUP2 MSTORE PUSH1 0x20 DUP2 KECCAK256 PUSH1 0x1F NOT DUP6 AND SWAP2 JUMPDEST DUP3 DUP2 LT ISZERO PUSH2 0x28E3 JUMPI DUP8 DUP6 ADD MLOAD DUP3 SSTORE PUSH1 0x20 SWAP5 DUP6 ADD SWAP5 PUSH1 0x1 SWAP1 SWAP3 ADD SWAP2 ADD PUSH2 0x28C3 JUMP JUMPDEST POP DUP5 DUP3 LT ISZERO PUSH2 0x2900 JUMPI DUP7 DUP5 ADD MLOAD PUSH0 NOT PUSH1 0x3 DUP8 SWAP1 SHL PUSH1 0xF8 AND SHR NOT AND DUP2 SSTORE JUMPDEST POP POP POP POP PUSH1 0x1 SWAP1 DUP2 SHL ADD SWAP1 SSTORE POP JUMP JUMPDEST PUSH4 0x4E487B71 PUSH1 0xE0 SHL PUSH0 MSTORE PUSH1 0x11 PUSH1 0x4 MSTORE PUSH1 0x24 PUSH0 REVERT JUMPDEST DUP2 DUP2 SUB DUP2 DUP2 GT ISZERO PUSH2 0x48C JUMPI PUSH2 0x48C PUSH2 0x290F JUMP JUMPDEST DUP1 DUP3 ADD DUP1 DUP3 GT ISZERO PUSH2 0x48C JUMPI PUSH2 0x48C PUSH2 0x290F JUMP JUMPDEST DUP1 DUP3 MUL DUP2 ISZERO DUP3 DUP3 DIV DUP5 EQ OR PUSH2 0x48C JUMPI PUSH2 0x48C PUSH2 0x290F JUMP JUMPDEST PUSH4 0x4E487B71 PUSH1 0xE0 SHL PUSH0 MSTORE PUSH1 0x12 PUSH1 0x4 MSTORE PUSH1 0x24 PUSH0 REVERT JUMPDEST PUSH0 DUP3 PUSH2 0x2982 JUMPI PUSH2 0x2982 PUSH2 0x2960 JUMP JUMPDEST POP DIV SWAP1 JUMP JUMPDEST PUSH0 DUP3 PUSH2 0x2995 JUMPI PUSH2 0x2995 PUSH2 0x2960 JUMP JUMPDEST POP MOD SWAP1 JUMP JUMPDEST PUSH0 DUP2 MLOAD DUP1 PUSH1 0x20 DUP5 ADD DUP6 MCOPY PUSH0 SWAP4 ADD SWAP3 DUP4 MSTORE POP SWAP1 SWAP2 SWAP1 POP JUMP JUMPDEST PUSH0 PUSH2 0x29BC DUP3 DUP6 PUSH2 0x299A JUMP JUMPDEST PUSH1 0x17 PUSH1 0xF9 SHL DUP2 MSTORE PUSH2 0x29D0 PUSH1 0x1 DUP3 ADD DUP6 PUSH2 0x299A JUMP JUMPDEST SWAP6 SWAP5 POP POP POP POP POP JUMP JUMPDEST PUSH32 0x3C7376672077696474683D2233323022206865696768743D2234303022207669 DUP2 MSTORE PUSH32 0x6577426F783D2230203020333230203430302220786D6C6E733D22687474703A PUSH1 0x20 DUP3 ADD MSTORE PUSH32 0x2F2F7777772E77332E6F72672F323030302F737667223E000000000000000000 PUSH1 0x40 DUP3 ADD MSTORE PUSH32 0x3C672073686170652D72656E646572696E673D2263726973704564676573223E PUSH1 0x57 DUP3 ADD MSTORE PUSH32 0x3C7265637420783D22302220793D2230222077696474683D2233323022206865 PUSH1 0x77 DUP3 ADD MSTORE PUSH32 0x696768743D22343030222066696C6C3D2223313531353135222F3E3C72656374 PUSH1 0x97 DUP3 ADD MSTORE PUSH32 0x20783D22382220793D2238222077696474683D2233303422206865696768743D PUSH1 0xB7 DUP3 ADD MSTORE PUSH32 0x22333834222066696C6C3D2223303232663532222F3E3C7465787420783D2231 PUSH1 0xD7 DUP3 ADD MSTORE PUSH32 0x36302220793D223430222066696C6C3D22236563663066312220666F6E742D73 PUSH1 0xF7 DUP3 ADD MSTORE PUSH32 0x697A653D2232302220746578742D616E63686F723D226D6964646C652220666F PUSH2 0x117 DUP3 ADD MSTORE PUSH32 0x6E742D7765696768743D22626F6C64223E504C4159455220434152443C2F7465 PUSH2 0x137 DUP3 ADD MSTORE PUSH32 0x78743E3C6C696E652078313D223230222079313D223535222078323D22333030 PUSH2 0x157 DUP3 ADD MSTORE PUSH32 0x222079323D22353522207374726F6B653D222365636630663122207374726F6B PUSH2 0x177 DUP3 ADD MSTORE PUSH17 0x3296BBB4B23A341E911A11179F1E17B39F PUSH1 0x79 SHL PUSH2 0x197 DUP3 ADD MSTORE PUSH0 PUSH2 0x2BFB PUSH2 0x2BF5 PUSH2 0x1A8 DUP5 ADD DUP7 PUSH2 0x299A JUMP JUMPDEST DUP5 PUSH2 0x299A JUMP JUMPDEST PUSH6 0x1E17B9BB339F PUSH1 0xD1 SHL DUP2 MSTORE PUSH1 0x6 ADD SWAP5 SWAP4 POP POP POP POP JUMP JUMPDEST PUSH32 0x7B226E616D65223A20224B617274752050656D61696E204D504C204944202300 DUP2 MSTORE PUSH0 PUSH2 0x2C43 PUSH1 0x1F DUP4 ADD DUP6 PUSH2 0x299A JUMP JUMPDEST PUSH3 0x11161 PUSH1 0xED SHL DUP2 MSTORE PUSH32 0x226465736372697074696F6E223A20224B6172747520644E4654204D504C2049 PUSH1 0x3 DUP3 ADD MSTORE PUSH32 0x6E646F6E657369612E2053746174697374696B2070656D61696E206469706572 PUSH1 0x23 DUP3 ADD MSTORE PUSH32 0x626172756920736563617261207265616C2D74696D6520646172692041504920 PUSH1 0x43 DUP3 ADD MSTORE PUSH32 0x6D656C616C756920436861696E6C696E6B2046756E6374696F6E732E222C2000 PUSH1 0x63 DUP3 ADD MSTORE PUSH32 0x22696D616765223A2022646174613A696D6167652F7376672B786D6C3B626173 PUSH1 0x82 DUP3 ADD MSTORE PUSH4 0x194D8D0B PUSH1 0xE2 SHL PUSH1 0xA2 DUP3 ADD MSTORE PUSH2 0x2D24 PUSH1 0xA6 DUP3 ADD DUP6 PUSH2 0x299A JUMP JUMPDEST PUSH2 0x227D PUSH1 0xF0 SHL DUP2 MSTORE PUSH1 0x2 ADD SWAP6 SWAP5 POP POP POP POP POP JUMP JUMPDEST PUSH32 0x646174613A6170706C69636174696F6E2F6A736F6E3B6261736536342C000000 DUP2 MSTORE PUSH0 PUSH2 0x2156 PUSH1 0x1D DUP4 ADD DUP5 PUSH2 0x299A JUMP JUMPDEST PUSH0 PUSH1 0x1 DUP3 ADD PUSH2 0x2D7A JUMPI PUSH2 0x2D7A PUSH2 0x290F JUMP JUMPDEST POP PUSH1 0x1 ADD SWAP1 JUMP JUMPDEST PUSH0 PUSH1 0x20 DUP3 DUP5 SUB SLT ISZERO PUSH2 0x2D91 JUMPI PUSH0 PUSH0 REVERT JUMPDEST POP MLOAD SWAP2 SWAP1 POP JUMP JUMPDEST PUSH4 0x4E487B71 PUSH1 0xE0 SHL PUSH0 MSTORE PUSH1 0x32 PUSH1 0x4 MSTORE PUSH1 0x24 PUSH0 REVERT JUMPDEST PUSH32 0x3C67207472616E73666F726D3D227472616E736C617465283138302C20313030 DUP2 MSTORE PUSH32 0x29222073686170652D72656E646572696E673D2263726973704564676573223E PUSH1 0x20 DUP3 ADD MSTORE PUSH32 0x3C7465787420783D222D33302220793D223230222066696C6C3D222333343938 PUSH1 0x40 DUP3 ADD MSTORE PUSH32 0x64622220666F6E742D73697A653D223134223E504C41594552204E414D453A3C PUSH1 0x60 DUP3 ADD MSTORE PUSH32 0x2F746578743E3C7465787420783D222D33302220793D223530222066696C6C3D PUSH1 0x80 DUP3 ADD MSTORE PUSH32 0x22236563663066312220666F6E742D73697A653D2232342220666F6E742D7765 PUSH1 0xA0 DUP3 ADD MSTORE PUSH12 0x34B3B43A1E913137B632111F PUSH1 0xA1 SHL PUSH1 0xC0 DUP3 ADD MSTORE PUSH0 PUSH2 0x2FED PUSH2 0x2FE7 PUSH2 0x2F3D PUSH2 0x2EB9 PUSH1 0xCC DUP7 ADD DUP14 PUSH2 0x299A JUMP JUMPDEST PUSH32 0x3C2F746578743E3C6C696E652078313D222D3235222079313D22373522207832 DUP2 MSTORE PUSH32 0x3D22313230222079323D22373522207374726F6B653D22233535352220737472 PUSH1 0x20 DUP3 ADD MSTORE PUSH32 0x6F6B652D77696474683D223422207374726F6B652D6461736861727261793D22 PUSH1 0x40 DUP3 ADD MSTORE PUSH6 0x1C161B11179F PUSH1 0xD1 SHL PUSH1 0x60 DUP3 ADD MSTORE PUSH1 0x66 ADD SWAP1 JUMP JUMPDEST PUSH32 0x3C7465787420783D222D33302220793D22313030222066696C6C3D2223656366 DUP2 MSTORE PUSH32 0x3066312220666F6E742D73697A653D223134223E4C414E453A3C2F746578743E PUSH1 0x20 DUP3 ADD MSTORE PUSH32 0x3C7465787420783D223132302220793D22313030222066696C6C3D2223656366 PUSH1 0x40 DUP3 ADD MSTORE PUSH32 0x3066312220666F6E742D73697A653D2231342220746578742D616E63686F723D PUSH1 0x60 DUP3 ADD MSTORE PUSH6 0x1132B732111F PUSH1 0xD1 SHL PUSH1 0x80 DUP3 ADD MSTORE PUSH1 0x86 ADD SWAP1 JUMP JUMPDEST DUP10 PUSH2 0x299A JUMP JUMPDEST PUSH7 0x1E17BA32BC3A1F PUSH1 0xC9 SHL DUP2 MSTORE PUSH32 0x3C7465787420783D222D33302220793D22313235222066696C6C3D2223656366 PUSH1 0x7 DUP3 ADD MSTORE PUSH32 0x3066312220666F6E742D73697A653D223134223E47414D453A3C2F746578743E PUSH1 0x27 DUP3 ADD MSTORE PUSH32 0x3C7465787420783D223132302220793D22313235222066696C6C3D2223656366 PUSH1 0x47 DUP3 ADD MSTORE PUSH32 0x3066312220666F6E742D73697A653D2231342220746578742D616E63686F723D PUSH1 0x67 DUP3 ADD MSTORE PUSH6 0x1132B732111F PUSH1 0xD1 SHL PUSH1 0x87 DUP3 ADD MSTORE PUSH2 0x30AD PUSH1 0x8D DUP3 ADD PUSH2 0x2FE7 JUMP JUMPDEST PUSH7 0x1E17BA32BC3A1F PUSH1 0xC9 SHL DUP2 MSTORE SWAP1 POP PUSH32 0x3C7465787420783D222D33302220793D22313530222066696C6C3D2223656366 PUSH1 0x7 DUP3 ADD MSTORE PUSH32 0x3066312220666F6E742D73697A653D223134223E4B494C4C533A3C2F74657874 PUSH1 0x27 DUP3 ADD MSTORE PUSH32 0x3E3C7465787420783D223132302220793D22313530222066696C6C3D22236563 PUSH1 0x47 DUP3 ADD MSTORE PUSH32 0x663066312220666F6E742D73697A653D2231342220746578742D616E63686F72 PUSH1 0x67 DUP3 ADD MSTORE PUSH7 0x1E9132B732111F PUSH1 0xC9 SHL PUSH1 0x87 DUP3 ADD MSTORE PUSH2 0x3171 PUSH1 0x8E DUP3 ADD DUP9 PUSH2 0x299A JUMP JUMPDEST PUSH7 0x1E17BA32BC3A1F PUSH1 0xC9 SHL DUP2 MSTORE SWAP1 POP PUSH32 0x3C7465787420783D222D33302220793D22313735222066696C6C3D2223656366 PUSH1 0x7 DUP3 ADD MSTORE PUSH32 0x3066312220666F6E742D73697A653D223134223E4445415448533A3C2F746578 PUSH1 0x27 DUP3 ADD MSTORE PUSH32 0x743E3C7465787420783D223132302220793D22313735222066696C6C3D222365 PUSH1 0x47 DUP3 ADD MSTORE PUSH32 0x63663066312220666F6E742D73697A653D2231342220746578742D616E63686F PUSH1 0x67 DUP3 ADD MSTORE PUSH8 0x391E9132B732111F PUSH1 0xC1 SHL PUSH1 0x87 DUP3 ADD MSTORE PUSH2 0x3236 PUSH1 0x8F DUP3 ADD DUP8 PUSH2 0x299A JUMP JUMPDEST PUSH7 0x1E17BA32BC3A1F PUSH1 0xC9 SHL DUP2 MSTORE SWAP1 POP PUSH32 0x3C7465787420783D222D33302220793D22323030222066696C6C3D2223656366 PUSH1 0x7 DUP3 ADD MSTORE PUSH32 0x3066312220666F6E742D73697A653D223134223E415353495354533A3C2F7465 PUSH1 0x27 DUP3 ADD MSTORE PUSH32 0x78743E3C7465787420783D223132302220793D22323030222066696C6C3D2223 PUSH1 0x47 DUP3 ADD MSTORE PUSH32 0x6563663066312220666F6E742D73697A653D2231342220746578742D616E6368 PUSH1 0x67 DUP3 ADD MSTORE PUSH9 0x37B91E9132B732111F PUSH1 0xB9 SHL PUSH1 0x87 DUP3 ADD MSTORE PUSH2 0x32FC PUSH1 0x90 DUP3 ADD DUP7 PUSH2 0x299A JUMP JUMPDEST PUSH7 0x1E17BA32BC3A1F PUSH1 0xC9 SHL DUP2 MSTORE SWAP1 POP PUSH32 0x3C7465787420783D222D33302220793D22323235222066696C6C3D2223656366 PUSH1 0x7 DUP3 ADD MSTORE PUSH32 0x3066312220666F6E742D73697A653D223134223E4B44413A3C2F746578743E3C PUSH1 0x27 DUP3 ADD MSTORE PUSH32 0x7465787420783D223132302220793D22323235222066696C6C3D222365636630 PUSH1 0x47 DUP3 ADD MSTORE PUSH32 0x66312220666F6E742D73697A653D2231342220746578742D616E63686F723D22 PUSH1 0x67 DUP3 ADD MSTORE PUSH5 0x32B732111F PUSH1 0xD9 SHL PUSH1 0x87 DUP3 ADD MSTORE PUSH2 0x33BE PUSH1 0x8C DUP3 ADD DUP6 PUSH2 0x299A JUMP JUMPDEST PUSH7 0x1E17BA32BC3A1F PUSH1 0xC9 SHL DUP2 MSTORE PUSH32 0x3C6C696E652078313D222D3330222079313D22323430222078323D2231323022 PUSH1 0x7 DUP3 ADD MSTORE PUSH32 0x2079323D2232343022207374726F6B653D222335353522207374726F6B652D77 PUSH1 0x27 DUP3 ADD MSTORE PUSH32 0x696474683D223422207374726F6B652D6461736861727261793D22382C36222F PUSH1 0x47 DUP3 ADD MSTORE PUSH5 0x1F1E17B39F PUSH1 0xD9 SHL PUSH1 0x67 DUP3 ADD MSTORE PUSH1 0x6C ADD SWAP11 SWAP10 POP POP POP POP POP POP POP POP POP POP JUMP JUMPDEST PUSH1 0x1 PUSH1 0x1 PUSH1 0xA0 SHL SUB DUP6 DUP2 AND DUP3 MSTORE DUP5 AND PUSH1 0x20 DUP3 ADD MSTORE PUSH1 0x40 DUP2 ADD DUP4 SWAP1 MSTORE PUSH1 0x80 PUSH1 0x60 DUP3 ADD DUP2 SWAP1 MSTORE PUSH0 SWAP1 PUSH2 0x348E SWAP1 DUP4 ADD DUP5 PUSH2 0x2477 JUMP JUMPDEST SWAP7 SWAP6 POP POP POP POP POP POP JUMP JUMPDEST PUSH0 PUSH1 0x20 DUP3 DUP5 SUB SLT ISZERO PUSH2 0x34A8 JUMPI PUSH0 PUSH0 REVERT JUMPDEST DUP2 MLOAD PUSH2 0x2156 DUP2 PUSH2 0x2447 JUMP JUMPDEST PUSH4 0x4E487B71 PUSH1 0xE0 SHL PUSH0 MSTORE PUSH1 0x21 PUSH1 0x4 MSTORE PUSH1 0x24 PUSH0 REVERT JUMPDEST PUSH1 0x1 PUSH1 0x1 PUSH1 0x40 SHL SUB DUP7 AND DUP2 MSTORE PUSH1 0xA0 PUSH1 0x20 DUP3 ADD MSTORE PUSH0 PUSH2 0x34E8 PUSH1 0xA0 DUP4 ADD DUP8 PUSH2 0x2477 JUMP JUMPDEST PUSH2 0xFFFF SWAP6 SWAP1 SWAP6 AND PUSH1 0x40 DUP4 ADD MSTORE POP PUSH4 0xFFFFFFFF SWAP3 SWAP1 SWAP3 AND PUSH1 0x60 DUP4 ADD MSTORE PUSH1 0x80 SWAP1 SWAP2 ADD MSTORE SWAP3 SWAP2 POP POP JUMP JUMPDEST PUSH1 0x1 DUP2 JUMPDEST PUSH1 0x1 DUP5 GT ISZERO PUSH2 0x354A JUMPI DUP1 DUP6 DIV DUP2 GT ISZERO PUSH2 0x352E JUMPI PUSH2 0x352E PUSH2 0x290F JUMP JUMPDEST PUSH1 0x1 DUP5 AND ISZERO PUSH2 0x353C JUMPI SWAP1 DUP2 MUL SWAP1 JUMPDEST PUSH1 0x1 SWAP4 SWAP1 SWAP4 SHR SWAP3 DUP1 MUL PUSH2 0x3513 JUMP JUMPDEST SWAP4 POP SWAP4 SWAP2 POP POP JUMP JUMPDEST PUSH0 DUP3 PUSH2 0x3560 JUMPI POP PUSH1 0x1 PUSH2 0x48C JUMP JUMPDEST DUP2 PUSH2 0x356C JUMPI POP PUSH0 PUSH2 0x48C JUMP JUMPDEST DUP2 PUSH1 0x1 DUP2 EQ PUSH2 0x3582 JUMPI PUSH1 0x2 DUP2 EQ PUSH2 0x358C JUMPI PUSH2 0x35A8 JUMP JUMPDEST PUSH1 0x1 SWAP2 POP POP PUSH2 0x48C JUMP JUMPDEST PUSH1 0xFF DUP5 GT ISZERO PUSH2 0x359D JUMPI PUSH2 0x359D PUSH2 0x290F JUMP JUMPDEST POP POP PUSH1 0x1 DUP3 SHL PUSH2 0x48C JUMP JUMPDEST POP PUSH1 0x20 DUP4 LT PUSH2 0x133 DUP4 LT AND PUSH1 0x4E DUP5 LT PUSH1 0xB DUP5 LT AND OR ISZERO PUSH2 0x35CB JUMPI POP DUP2 DUP2 EXP PUSH2 0x48C JUMP JUMPDEST PUSH2 0x35D7 PUSH0 NOT DUP5 DUP5 PUSH2 0x350F JUMP JUMPDEST DUP1 PUSH0 NOT DIV DUP3 GT ISZERO PUSH2 0x35EA JUMPI PUSH2 0x35EA PUSH2 0x290F JUMP JUMPDEST MUL SWAP4 SWAP3 POP POP POP JUMP JUMPDEST PUSH0 PUSH2 0x2156 DUP4 DUP4 PUSH2 0x3552 JUMP INVALID EXTCODECOPY PUSH20 0x766720783D2231302220793D2233302220776964 PUSH21 0x683D2231343022206865696768743D223338302220 PUSH23 0x696577426F783D22302030203332203332222073686170 PUSH6 0x2D72656E6465 PUSH19 0x696E673D2263726973704564676573223E3C67 KECCAK256 PUSH21 0x72616E73666F726D3D227472616E736C6174652833 ORIGIN 0x2C KECCAK256 ADDRESS 0x29 KECCAK256 PUSH20 0x63616C65282D312C203129223E3C706174682066 PUSH10 0x6C6C3D22233030303030 ADDRESS 0x22 KECCAK256 PUSH5 0x3D224D3131 KECCAK256 ORIGIN PUSH9 0x313076314831317A20 0x4D CODECOPY KECCAK256 CALLER PUSH9 0x32763148397A204D32 BALANCE KECCAK256 CALLER PUSH9 0x3276314832317A204D CODESIZE KECCAK256 CALLVALUE PUSH9 0x31763148387A204D32 CALLER KECCAK256 CALLVALUE PUSH9 0x3176314832337A204D CODESIZE KECCAK256 CALLDATALOAD PUSH9 0x31763148387A204D32 CALLVALUE KECCAK256 CALLDATALOAD PUSH9 0x3176314832347A204D CODESIZE KECCAK256 CALLDATASIZE PUSH9 0x31763148387A204D32 CALLVALUE KECCAK256 CALLDATASIZE PUSH9 0x3176314832347A204D CODESIZE KECCAK256 CALLDATACOPY PUSH9 0x31763148387A204D32 CALLVALUE KECCAK256 CALLDATACOPY PUSH9 0x3176314832347A204D CODESIZE KECCAK256 CODESIZE PUSH9 0x31763148387A204D32 CALLVALUE KECCAK256 CODESIZE PUSH9 0x3176314832347A204D CODECOPY KECCAK256 CODECOPY PUSH9 0x31763148397A204D32 CALLVALUE KECCAK256 CODECOPY PUSH9 0x3176314832347A204D CODECOPY KECCAK256 BALANCE ADDRESS PUSH9 0x31763148397A204D32 CALLER KECCAK256 BALANCE ADDRESS PUSH9 0x3176314832337A204D CODECOPY KECCAK256 BALANCE BALANCE PUSH9 0x31763148397A204D31 ORIGIN KECCAK256 BALANCE BALANCE PUSH9 0x3276314831327A204D BALANCE CODESIZE KECCAK256 BALANCE BALANCE PUSH9 0x3276314831387A204D ORIGIN CALLER KECCAK256 BALANCE BALANCE PUSH9 0x3176314832337A204D CODECOPY KECCAK256 BALANCE ORIGIN PUSH9 0x31763148397A204D32 CALLER KECCAK256 BALANCE ORIGIN PUSH9 0x3176314832337A204D BALANCE ADDRESS KECCAK256 BALANCE CALLER PUSH9 0x3176314831307A204D ORIGIN ORIGIN KECCAK256 BALANCE CALLER PUSH9 0x3176314832327A204D BALANCE ADDRESS KECCAK256 BALANCE CALLVALUE PUSH9 0x3176314831307A204D ORIGIN ORIGIN KECCAK256 BALANCE CALLVALUE PUSH9 0x3176314832327A204D BALANCE ADDRESS KECCAK256 BALANCE CALLDATALOAD PUSH9 0x3176314831307A204D ORIGIN ORIGIN KECCAK256 BALANCE CALLDATALOAD PUSH9 0x3176314832327A204D BALANCE BALANCE KECCAK256 BALANCE CALLDATASIZE PUSH9 0x3176314831317A204D ORIGIN BALANCE KECCAK256 BALANCE CALLDATASIZE PUSH9 0x3176314832317A204D BALANCE BALANCE KECCAK256 BALANCE CALLDATACOPY PUSH9 0x3176314831317A204D ORIGIN BALANCE KECCAK256 BALANCE CALLDATACOPY PUSH9 0x3176314832317A204D BALANCE ORIGIN KECCAK256 BALANCE CODESIZE PUSH9 0x3176314831327A204D ORIGIN ADDRESS KECCAK256 BALANCE CODESIZE PUSH9 0x3176314832307A204D BALANCE ORIGIN KECCAK256 BALANCE CODECOPY PUSH9 0x3176314831327A204D ORIGIN ADDRESS KECCAK256 BALANCE CODECOPY PUSH9 0x3176314832307A204D BALANCE BALANCE KECCAK256 ORIGIN ADDRESS PUSH9 0x3176314831317A204D ORIGIN BALANCE KECCAK256 ORIGIN ADDRESS PUSH9 0x3176314832317A204D CODECOPY KECCAK256 ORIGIN BALANCE PUSH9 0x32763148397A204D32 ORIGIN KECCAK256 ORIGIN BALANCE PUSH9 0x3276314832327A204D CALLDATACOPY KECCAK256 ORIGIN ORIGIN PUSH9 0x32763148377A204D32 CALLVALUE KECCAK256 ORIGIN ORIGIN PUSH9 0x3276314832347A204D CALLDATASIZE KECCAK256 ORIGIN CALLER PUSH9 0x31763148367A204D32 CALLDATASIZE KECCAK256 ORIGIN CALLER PUSH9 0x3176314832367A204D CALLDATALOAD KECCAK256 ORIGIN CALLVALUE PUSH9 0x31763148357A204D32 CALLDATACOPY KECCAK256 ORIGIN CALLVALUE PUSH9 0x3176314832377A204D CALLVALUE KECCAK256 ORIGIN CALLDATALOAD PUSH9 0x31763148347A204D32 CODESIZE KECCAK256 ORIGIN CALLDATALOAD PUSH9 0x3176314832387A204D CALLER KECCAK256 ORIGIN CALLDATASIZE PUSH9 0x31763148337A204D32 CODECOPY KECCAK256 ORIGIN CALLDATASIZE PUSH9 0x3176314832397A204D CALLER KECCAK256 ORIGIN CALLDATACOPY PUSH9 0x31763148337A204D32 CODECOPY KECCAK256 ORIGIN CALLDATACOPY PUSH9 0x3176314832397A204D CALLER KECCAK256 ORIGIN CODESIZE PUSH9 0x31763148337A204D32 CODECOPY KECCAK256 ORIGIN CODESIZE PUSH9 0x3176314832397A204D CALLER KECCAK256 ORIGIN CODECOPY PUSH9 0x31763148337A204D32 CODECOPY KECCAK256 ORIGIN CODECOPY PUSH9 0x3176314832397A204D CALLER KECCAK256 CALLER ADDRESS PUSH9 0x31763148337A204D32 CODECOPY KECCAK256 CALLER ADDRESS PUSH9 0x3176314832397A204D CALLER KECCAK256 CALLER BALANCE PUSH9 0x3237763148337A2220 0x2F RETURNDATACOPY EXTCODECOPY PUSH17 0x6174682066696C6C3D2223303030303030 0x22 KECCAK256 PUSH5 0x3D224D3131 KECCAK256 CALLER PUSH9 0x313076314831317A20 0x4D CODECOPY KECCAK256 CALLVALUE PUSH9 0x3134763148397A204D CODECOPY KECCAK256 CALLDATALOAD PUSH9 0x3135763148397A204D CODECOPY KECCAK256 CALLDATASIZE PUSH9 0x3135763148397A204D CODECOPY KECCAK256 CALLDATACOPY PUSH9 0x3135763148397A204D CODECOPY KECCAK256 CODESIZE PUSH9 0x33763148397A204D32 ADDRESS KECCAK256 CODESIZE PUSH9 0x3476314832307A204D BALANCE ADDRESS KECCAK256 CODECOPY PUSH9 0x3276314831307A204D ORIGIN ORIGIN KECCAK256 CODECOPY PUSH9 0x3276314832327A204D BALANCE ADDRESS KECCAK256 BALANCE ADDRESS PUSH9 0x3176314831307A204D ORIGIN ORIGIN KECCAK256 BALANCE ADDRESS PUSH9 0x3176314832327A2220 0x2F RETURNDATACOPY EXTCODECOPY PUSH17 0x6174682066696C6C3D2223653462353930 0x22 KECCAK256 PUSH5 0x3D224D3132 KECCAK256 CODESIZE PUSH9 0x3876314831327A204D BALANCE ORIGIN KECCAK256 CODECOPY PUSH9 0x313076314831327A20 0x4D BALANCE BALANCE KECCAK256 BALANCE ADDRESS PUSH9 0x313176314831317A20 0x4D BALANCE ADDRESS KECCAK256 BALANCE BALANCE PUSH9 0x3276314831307A204D BALANCE CALLVALUE KECCAK256 BALANCE BALANCE PUSH9 0x3476314831347A204D ORIGIN ADDRESS KECCAK256 BALANCE BALANCE PUSH9 0x3376314832307A204D BALANCE ADDRESS KECCAK256 BALANCE ORIGIN PUSH9 0x313376314831307A20 0x4D BALANCE BALANCE KECCAK256 BALANCE CALLER PUSH9 0x3476314831317A204D BALANCE CALLDATACOPY KECCAK256 BALANCE CALLER PUSH9 0x3576314831377A204D BALANCE BALANCE KECCAK256 BALANCE CALLVALUE PUSH9 0x313176314831317A20 0x4D BALANCE BALANCE KECCAK256 BALANCE CALLDATALOAD PUSH9 0x3376314831317A204D BALANCE CODESIZE KECCAK256 BALANCE CALLDATALOAD PUSH9 0x3476314831387A204D BALANCE ORIGIN KECCAK256 BALANCE CALLDATASIZE PUSH9 0x3976314831327A204D BALANCE ORIGIN KECCAK256 BALANCE CALLDATACOPY PUSH9 0x3976314831327A204D BALANCE CALLER KECCAK256 BALANCE CODESIZE PUSH9 0x3776314831337A2220 0x2F RETURNDATACOPY EXTCODECOPY PUSH17 0x6174682066696C6C3D2223633539343733 0x22 KECCAK256 PUSH5 0x3D224D3135 KECCAK256 BALANCE CALLER PUSH9 0x3276314831357A204D BALANCE CALLER KECCAK256 BALANCE CODECOPY PUSH9 0x3776314831337A204D BALANCE CALLVALUE KECCAK256 ORIGIN ADDRESS PUSH9 0x3576314831347A2220 0x2F RETURNDATACOPY EXTCODECOPY PUSH17 0x6174682066696C6C3D2223626436613466 0x22 KECCAK256 PUSH5 0x3D224D3134 KECCAK256 BALANCE CALLDATALOAD PUSH9 0x3476314831347A2220 0x2F RETURNDATACOPY EXTCODECOPY PUSH17 0x6174682066696C6C3D2223666666666666 0x22 KECCAK256 PUSH5 0x3D224D3132 KECCAK256 ORIGIN ADDRESS PUSH9 0x3276314831327A204D BALANCE CODECOPY KECCAK256 ORIGIN ADDRESS PUSH9 0x3276314831397A204D BALANCE BALANCE KECCAK256 ORIGIN BALANCE PUSH9 0x3376314831317A204D BALANCE CODECOPY KECCAK256 ORIGIN BALANCE PUSH9 0x3376314831397A204D CODECOPY KECCAK256 ORIGIN ORIGIN PUSH9 0x34763148397A204D32 ADDRESS KECCAK256 ORIGIN ORIGIN PUSH9 0x3476314832307A204D CALLDATACOPY KECCAK256 ORIGIN CALLER PUSH9 0x35763148377A204D32 BALANCE KECCAK256 ORIGIN CALLER PUSH9 0x3576314832317A204D CALLDATASIZE KECCAK256 ORIGIN CALLVALUE PUSH9 0x35763148367A204D32 ORIGIN KECCAK256 ORIGIN CALLVALUE PUSH9 0x3576314832327A204D CALLDATALOAD KECCAK256 ORIGIN CALLDATALOAD PUSH9 0x35763148357A204D31 CALLER KECCAK256 ORIGIN CALLDATALOAD PUSH9 0x3276314831337A204D BALANCE CALLDATASIZE KECCAK256 ORIGIN CALLDATALOAD PUSH9 0x3276314831367A204D BALANCE CODECOPY KECCAK256 ORIGIN CALLDATALOAD PUSH9 0x3276314831397A204D ORIGIN CALLER KECCAK256 ORIGIN CALLDATALOAD PUSH9 0x3576314832337A204D CALLVALUE KECCAK256 ORIGIN CALLDATASIZE PUSH9 0x35763148347A204D32 CALLVALUE KECCAK256 ORIGIN CALLDATASIZE PUSH9 0x3576314832347A204D CALLVALUE KECCAK256 ORIGIN CALLDATACOPY PUSH9 0x34763148347A204D32 CALLDATALOAD KECCAK256 ORIGIN CALLDATACOPY PUSH9 0x3476314832357A204D CALLVALUE KECCAK256 ORIGIN CODESIZE PUSH9 0x34763148347A204D32 CALLDATALOAD KECCAK256 ORIGIN CODESIZE PUSH9 0x3476314832357A204D CALLVALUE KECCAK256 ORIGIN CODECOPY PUSH9 0x34763148347A204D32 CALLDATALOAD KECCAK256 ORIGIN CODECOPY PUSH9 0x3476314832357A204D CALLDATASIZE KECCAK256 CALLER ADDRESS PUSH9 0x32763148367A204D32 CALLDATALOAD KECCAK256 CALLER ADDRESS PUSH9 0x3276314832357A2220 0x2F RETURNDATACOPY EXTCODECOPY PUSH17 0x6174682066696C6C3D2223656638313135 0x22 KECCAK256 PUSH5 0x3D224D3134 KECCAK256 ORIGIN BALANCE PUSH9 0x3576314831347A204D BALANCE CALLER KECCAK256 ORIGIN ORIGIN PUSH9 0x3776314831337A204D BALANCE ORIGIN KECCAK256 ORIGIN CALLER PUSH9 0x3976314831327A204D BALANCE BALANCE KECCAK256 ORIGIN CALLVALUE PUSH9 0x313176314831317A20 0x4D BALANCE ADDRESS KECCAK256 ORIGIN CALLDATALOAD PUSH9 0x3376314831307A204D BALANCE CALLDATALOAD KECCAK256 ORIGIN CALLDATALOAD PUSH9 0x3176314831357A204D BALANCE CODESIZE KECCAK256 ORIGIN CALLDATALOAD PUSH9 0x3176314831387A204D ORIGIN BALANCE KECCAK256 ORIGIN CALLDATALOAD PUSH9 0x3276314832317A204D CODECOPY KECCAK256 ORIGIN CALLDATASIZE PUSH9 0x3135763148397A204D CODESIZE KECCAK256 ORIGIN CALLDATACOPY PUSH9 0x3137763148387A204D CODESIZE KECCAK256 ORIGIN CODESIZE PUSH9 0x3137763148387A204D CODESIZE KECCAK256 ORIGIN CODECOPY PUSH9 0x3137763148387A204D CALLVALUE KECCAK256 CALLER ADDRESS PUSH9 0x32763148347A204D38 KECCAK256 CALLER ADDRESS PUSH9 0x3137763148387A204D ORIGIN CALLDATACOPY KECCAK256 CALLER ADDRESS PUSH9 0x3276314832377A2220 0x2F RETURNDATACOPY EXTCODECOPY 0x2F PUSH8 0x3E3C2F7376673EA2 PUSH5 0x6970667358 0x22 SLT KECCAK256 CREATE 0xB8 SWAP16 SHL ORIGIN 0xCF JUMP 0xC6 BALANCE PUSH24 0x7275CC920D650EFA9D05015DCA3D306C06F4E72AB69E6473 PUSH16 0x6C634300082200330000000000000000 "
		},
		"gasEstimates": {
			"creation": {
				"codeDepositCost": "3214200",
				"executionCost": "infinite",
				"totalCost": "infinite"
			},
			"external": {
				"approve(address,uint256)": "31508",
				"balanceOf(address)": "2675",
				"checkUpkeep(bytes)": "infinite",
				"generateSVG(uint256)": "infinite",
				"getApproved(uint256)": "infinite",
				"handleOracleFulfillment(bytes32,bytes,bytes)": "infinite",
				"interval()": "2383",
				"isApprovedForAll(address,address)": "infinite",
				"lastTimeStamp()": "2406",
				"name()": "infinite",
				"owner()": "2397",
				"ownerOf(uint256)": "infinite",
				"performUpkeep(bytes)": "infinite",
				"renounceOwnership()": "infinite",
				"s_playerData(uint256)": "infinite",
				"s_requestToTokenId(bytes32)": "2546",
				"safeMint(address,string,string)": "infinite",
				"safeTransferFrom(address,address,uint256)": "infinite",
				"safeTransferFrom(address,address,uint256,bytes)": "infinite",
				"setApprovalForAll(address,bool)": "26757",
				"setAutomationSettings(uint256,uint256)": "46688",
				"setSourceCode(string)": "infinite",
				"sourceCode()": "infinite",
				"subscriptionId()": "2426",
				"supportsInterface(bytes4)": "infinite",
				"symbol()": "infinite",
				"targetTokenIdToUpdate()": "2405",
				"tokenURI(uint256)": "infinite",
				"transferFrom(address,address,uint256)": "infinite",
				"transferOwnership(address)": "28443"
			},
			"internal": {
				"_getPixelArtSVG()": "infinite",
				"_getStatsSVG(struct MplPlayerCard.PlayerData memory,string memory)": "infinite",
				"_requestStatsInternal(uint256,string memory)": "infinite",
				"fulfillRequest(bytes32,bytes memory,bytes memory)": "infinite"
			}
		},
		"methodIdentifiers": {
			"approve(address,uint256)": "095ea7b3",
			"balanceOf(address)": "70a08231",
			"checkUpkeep(bytes)": "6e04ff0d",
			"generateSVG(uint256)": "6dcee4ca",
			"getApproved(uint256)": "081812fc",
			"handleOracleFulfillment(bytes32,bytes,bytes)": "0ca76175",
			"interval()": "947a36fb",
			"isApprovedForAll(address,address)": "e985e9c5",
			"lastTimeStamp()": "3f3b3b27",
			"name()": "06fdde03",
			"owner()": "8da5cb5b",
			"ownerOf(uint256)": "6352211e",
			"performUpkeep(bytes)": "4585e33b",
			"renounceOwnership()": "715018a6",
			"s_playerData(uint256)": "b4cfae44",
			"s_requestToTokenId(bytes32)": "68015a4b",
			"safeMint(address,string,string)": "eca81d42",
			"safeTransferFrom(address,address,uint256)": "42842e0e",
			"safeTransferFrom(address,address,uint256,bytes)": "b88d4fde",
			"setApprovalForAll(address,bool)": "a22cb465",
			"setAutomationSettings(uint256,uint256)": "22e817e2",
			"setSourceCode(string)": "00b46767",
			"sourceCode()": "13c60177",
			"subscriptionId()": "09c1ba2e",
			"supportsInterface(bytes4)": "01ffc9a7",
			"symbol()": "95d89b41",
			"targetTokenIdToUpdate()": "94881476",
			"tokenURI(uint256)": "c87b56dd",
			"transferFrom(address,address,uint256)": "23b872dd",
			"transferOwnership(address)": "f2fde38b"
		}
	},
	"abi": [
		{
			"inputs": [
				{
					"internalType": "uint64",
					"name": "_subscriptionId",
					"type": "uint64"
				}
			],
			"stateMutability": "nonpayable",
			"type": "constructor"
		},
		{
			"inputs": [
				{
					"internalType": "address",
					"name": "sender",
					"type": "address"
				},
				{
					"internalType": "uint256",
					"name": "tokenId",
					"type": "uint256"
				},
				{
					"internalType": "address",
					"name": "owner",
					"type": "address"
				}
			],
			"name": "ERC721IncorrectOwner",
			"type": "error"
		},
		{
			"inputs": [
				{
					"internalType": "address",
					"name": "operator",
					"type": "address"
				},
				{
					"internalType": "uint256",
					"name": "tokenId",
					"type": "uint256"
				}
			],
			"name": "ERC721InsufficientApproval",
			"type": "error"
		},
		{
			"inputs": [
				{
					"internalType": "address",
					"name": "approver",
					"type": "address"
				}
			],
			"name": "ERC721InvalidApprover",
			"type": "error"
		},
		{
			"inputs": [
				{
					"internalType": "address",
					"name": "operator",
					"type": "address"
				}
			],
			"name": "ERC721InvalidOperator",
			"type": "error"
		},
		{
			"inputs": [
				{
					"internalType": "address",
					"name": "owner",
					"type": "address"
				}
			],
			"name": "ERC721InvalidOwner",
			"type": "error"
		},
		{
			"inputs": [
				{
					"internalType": "address",
					"name": "receiver",
					"type": "address"
				}
			],
			"name": "ERC721InvalidReceiver",
			"type": "error"
		},
		{
			"inputs": [
				{
					"internalType": "address",
					"name": "sender",
					"type": "address"
				}
			],
			"name": "ERC721InvalidSender",
			"type": "error"
		},
		{
			"inputs": [
				{
					"internalType": "uint256",
					"name": "tokenId",
					"type": "uint256"
				}
			],
			"name": "ERC721NonexistentToken",
			"type": "error"
		},
		{
			"inputs": [],
			"name": "EmptyArgs",
			"type": "error"
		},
		{
			"inputs": [],
			"name": "EmptySource",
			"type": "error"
		},
		{
			"inputs": [],
			"name": "NoInlineSecrets",
			"type": "error"
		},
		{
			"inputs": [],
			"name": "OnlyRouterCanFulfill",
			"type": "error"
		},
		{
			"inputs": [
				{
					"internalType": "address",
					"name": "owner",
					"type": "address"
				}
			],
			"name": "OwnableInvalidOwner",
			"type": "error"
		},
		{
			"inputs": [
				{
					"internalType": "address",
					"name": "account",
					"type": "address"
				}
			],
			"name": "OwnableUnauthorizedAccount",
			"type": "error"
		},
		{
			"anonymous": false,
			"inputs": [
				{
					"indexed": true,
					"internalType": "address",
					"name": "owner",
					"type": "address"
				},
				{
					"indexed": true,
					"internalType": "address",
					"name": "approved",
					"type": "address"
				},
				{
					"indexed": true,
					"internalType": "uint256",
					"name": "tokenId",
					"type": "uint256"
				}
			],
			"name": "Approval",
			"type": "event"
		},
		{
			"anonymous": false,
			"inputs": [
				{
					"indexed": true,
					"internalType": "address",
					"name": "owner",
					"type": "address"
				},
				{
					"indexed": true,
					"internalType": "address",
					"name": "operator",
					"type": "address"
				},
				{
					"indexed": false,
					"internalType": "bool",
					"name": "approved",
					"type": "bool"
				}
			],
			"name": "ApprovalForAll",
			"type": "event"
		},
		{
			"anonymous": false,
			"inputs": [
				{
					"indexed": false,
					"internalType": "uint256",
					"name": "_fromTokenId",
					"type": "uint256"
				},
				{
					"indexed": false,
					"internalType": "uint256",
					"name": "_toTokenId",
					"type": "uint256"
				}
			],
			"name": "BatchMetadataUpdate",
			"type": "event"
		},
		{
			"anonymous": false,
			"inputs": [
				{
					"indexed": false,
					"internalType": "uint256",
					"name": "_tokenId",
					"type": "uint256"
				}
			],
			"name": "MetadataUpdate",
			"type": "event"
		},
		{
			"anonymous": false,
			"inputs": [
				{
					"indexed": true,
					"internalType": "address",
					"name": "previousOwner",
					"type": "address"
				},
				{
					"indexed": true,
					"internalType": "address",
					"name": "newOwner",
					"type": "address"
				}
			],
			"name": "OwnershipTransferred",
			"type": "event"
		},
		{
			"anonymous": false,
			"inputs": [
				{
					"indexed": true,
					"internalType": "bytes32",
					"name": "id",
					"type": "bytes32"
				}
			],
			"name": "RequestFulfilled",
			"type": "event"
		},
		{
			"anonymous": false,
			"inputs": [
				{
					"indexed": true,
					"internalType": "bytes32",
					"name": "id",
					"type": "bytes32"
				}
			],
			"name": "RequestSent",
			"type": "event"
		},
		{
			"anonymous": false,
			"inputs": [
				{
					"indexed": true,
					"internalType": "address",
					"name": "from",
					"type": "address"
				},
				{
					"indexed": true,
					"internalType": "address",
					"name": "to",
					"type": "address"
				},
				{
					"indexed": true,
					"internalType": "uint256",
					"name": "tokenId",
					"type": "uint256"
				}
			],
			"name": "Transfer",
			"type": "event"
		},
		{
			"inputs": [
				{
					"internalType": "address",
					"name": "to",
					"type": "address"
				},
				{
					"internalType": "uint256",
					"name": "tokenId",
					"type": "uint256"
				}
			],
			"name": "approve",
			"outputs": [],
			"stateMutability": "nonpayable",
			"type": "function"
		},
		{
			"inputs": [
				{
					"internalType": "address",
					"name": "owner",
					"type": "address"
				}
			],
			"name": "balanceOf",
			"outputs": [
				{
					"internalType": "uint256",
					"name": "",
					"type": "uint256"
				}
			],
			"stateMutability": "view",
			"type": "function"
		},
		{
			"inputs": [
				{
					"internalType": "bytes",
					"name": "",
					"type": "bytes"
				}
			],
			"name": "checkUpkeep",
			"outputs": [
				{
					"internalType": "bool",
					"name": "upkeepNeeded",
					"type": "bool"
				},
				{
					"internalType": "bytes",
					"name": "performData",
					"type": "bytes"
				}
			],
			"stateMutability": "view",
			"type": "function"
		},
		{
			"inputs": [
				{
					"internalType": "uint256",
					"name": "tokenId",
					"type": "uint256"
				}
			],
			"name": "generateSVG",
			"outputs": [
				{
					"internalType": "string",
					"name": "",
					"type": "string"
				}
			],
			"stateMutability": "view",
			"type": "function"
		},
		{
			"inputs": [
				{
					"internalType": "uint256",
					"name": "tokenId",
					"type": "uint256"
				}
			],
			"name": "getApproved",
			"outputs": [
				{
					"internalType": "address",
					"name": "",
					"type": "address"
				}
			],
			"stateMutability": "view",
			"type": "function"
		},
		{
			"inputs": [
				{
					"internalType": "bytes32",
					"name": "requestId",
					"type": "bytes32"
				},
				{
					"internalType": "bytes",
					"name": "response",
					"type": "bytes"
				},
				{
					"internalType": "bytes",
					"name": "err",
					"type": "bytes"
				}
			],
			"name": "handleOracleFulfillment",
			"outputs": [],
			"stateMutability": "nonpayable",
			"type": "function"
		},
		{
			"inputs": [],
			"name": "interval",
			"outputs": [
				{
					"internalType": "uint256",
					"name": "",
					"type": "uint256"
				}
			],
			"stateMutability": "view",
			"type": "function"
		},
		{
			"inputs": [
				{
					"internalType": "address",
					"name": "owner",
					"type": "address"
				},
				{
					"internalType": "address",
					"name": "operator",
					"type": "address"
				}
			],
			"name": "isApprovedForAll",
			"outputs": [
				{
					"internalType": "bool",
					"name": "",
					"type": "bool"
				}
			],
			"stateMutability": "view",
			"type": "function"
		},
		{
			"inputs": [],
			"name": "lastTimeStamp",
			"outputs": [
				{
					"internalType": "uint256",
					"name": "",
					"type": "uint256"
				}
			],
			"stateMutability": "view",
			"type": "function"
		},
		{
			"inputs": [],
			"name": "name",
			"outputs": [
				{
					"internalType": "string",
					"name": "",
					"type": "string"
				}
			],
			"stateMutability": "view",
			"type": "function"
		},
		{
			"inputs": [],
			"name": "owner",
			"outputs": [
				{
					"internalType": "address",
					"name": "",
					"type": "address"
				}
			],
			"stateMutability": "view",
			"type": "function"
		},
		{
			"inputs": [
				{
					"internalType": "uint256",
					"name": "tokenId",
					"type": "uint256"
				}
			],
			"name": "ownerOf",
			"outputs": [
				{
					"internalType": "address",
					"name": "",
					"type": "address"
				}
			],
			"stateMutability": "view",
			"type": "function"
		},
		{
			"inputs": [
				{
					"internalType": "bytes",
					"name": "",
					"type": "bytes"
				}
			],
			"name": "performUpkeep",
			"outputs": [],
			"stateMutability": "nonpayable",
			"type": "function"
		},
		{
			"inputs": [],
			"name": "renounceOwnership",
			"outputs": [],
			"stateMutability": "nonpayable",
			"type": "function"
		},
		{
			"inputs": [
				{
					"internalType": "uint256",
					"name": "",
					"type": "uint256"
				}
			],
			"name": "s_playerData",
			"outputs": [
				{
					"internalType": "string",
					"name": "name",
					"type": "string"
				},
				{
					"internalType": "string",
					"name": "lane",
					"type": "string"
				},
				{
					"internalType": "uint64",
					"name": "games",
					"type": "uint64"
				},
				{
					"internalType": "uint64",
					"name": "kills",
					"type": "uint64"
				},
				{
					"internalType": "uint64",
					"name": "deaths",
					"type": "uint64"
				},
				{
					"internalType": "uint64",
					"name": "assists",
					"type": "uint64"
				}
			],
			"stateMutability": "view",
			"type": "function"
		},
		{
			"inputs": [
				{
					"internalType": "bytes32",
					"name": "",
					"type": "bytes32"
				}
			],
			"name": "s_requestToTokenId",
			"outputs": [
				{
					"internalType": "uint256",
					"name": "",
					"type": "uint256"
				}
			],
			"stateMutability": "view",
			"type": "function"
		},
		{
			"inputs": [
				{
					"internalType": "address",
					"name": "to",
					"type": "address"
				},
				{
					"internalType": "string",
					"name": "_name",
					"type": "string"
				},
				{
					"internalType": "string",
					"name": "_lane",
					"type": "string"
				}
			],
			"name": "safeMint",
			"outputs": [],
			"stateMutability": "nonpayable",
			"type": "function"
		},
		{
			"inputs": [
				{
					"internalType": "address",
					"name": "from",
					"type": "address"
				},
				{
					"internalType": "address",
					"name": "to",
					"type": "address"
				},
				{
					"internalType": "uint256",
					"name": "tokenId",
					"type": "uint256"
				}
			],
			"name": "safeTransferFrom",
			"outputs": [],
			"stateMutability": "nonpayable",
			"type": "function"
		},
		{
			"inputs": [
				{
					"internalType": "address",
					"name": "from",
					"type": "address"
				},
				{
					"internalType": "address",
					"name": "to",
					"type": "address"
				},
				{
					"internalType": "uint256",
					"name": "tokenId",
					"type": "uint256"
				},
				{
					"internalType": "bytes",
					"name": "data",
					"type": "bytes"
				}
			],
			"name": "safeTransferFrom",
			"outputs": [],
			"stateMutability": "nonpayable",
			"type": "function"
		},
		{
			"inputs": [
				{
					"internalType": "address",
					"name": "operator",
					"type": "address"
				},
				{
					"internalType": "bool",
					"name": "approved",
					"type": "bool"
				}
			],
			"name": "setApprovalForAll",
			"outputs": [],
			"stateMutability": "nonpayable",
			"type": "function"
		},
		{
			"inputs": [
				{
					"internalType": "uint256",
					"name": "_intervalSeconds",
					"type": "uint256"
				},
				{
					"internalType": "uint256",
					"name": "_targetTokenId",
					"type": "uint256"
				}
			],
			"name": "setAutomationSettings",
			"outputs": [],
			"stateMutability": "nonpayable",
			"type": "function"
		},
		{
			"inputs": [
				{
					"internalType": "string",
					"name": "_sourceCode",
					"type": "string"
				}
			],
			"name": "setSourceCode",
			"outputs": [],
			"stateMutability": "nonpayable",
			"type": "function"
		},
		{
			"inputs": [],
			"name": "sourceCode",
			"outputs": [
				{
					"internalType": "string",
					"name": "",
					"type": "string"
				}
			],
			"stateMutability": "view",
			"type": "function"
		},
		{
			"inputs": [],
			"name": "subscriptionId",
			"outputs": [
				{
					"internalType": "uint64",
					"name": "",
					"type": "uint64"
				}
			],
			"stateMutability": "view",
			"type": "function"
		},
		{
			"inputs": [
				{
					"internalType": "bytes4",
					"name": "interfaceId",
					"type": "bytes4"
				}
			],
			"name": "supportsInterface",
			"outputs": [
				{
					"internalType": "bool",
					"name": "",
					"type": "bool"
				}
			],
			"stateMutability": "view",
			"type": "function"
		},
		{
			"inputs": [],
			"name": "symbol",
			"outputs": [
				{
					"internalType": "string",
					"name": "",
					"type": "string"
				}
			],
			"stateMutability": "view",
			"type": "function"
		},
		{
			"inputs": [],
			"name": "targetTokenIdToUpdate",
			"outputs": [
				{
					"internalType": "uint256",
					"name": "",
					"type": "uint256"
				}
			],
			"stateMutability": "view",
			"type": "function"
		},
		{
			"inputs": [
				{
					"internalType": "uint256",
					"name": "tokenId",
					"type": "uint256"
				}
			],
			"name": "tokenURI",
			"outputs": [
				{
					"internalType": "string",
					"name": "",
					"type": "string"
				}
			],
			"stateMutability": "view",
			"type": "function"
		},
		{
			"inputs": [
				{
					"internalType": "address",
					"name": "from",
					"type": "address"
				},
				{
					"internalType": "address",
					"name": "to",
					"type": "address"
				},
				{
					"internalType": "uint256",
					"name": "tokenId",
					"type": "uint256"
				}
			],
			"name": "transferFrom",
			"outputs": [],
			"stateMutability": "nonpayable",
			"type": "function"
		},
		{
			"inputs": [
				{
					"internalType": "address",
					"name": "newOwner",
					"type": "address"
				}
			],
			"name": "transferOwnership",
			"outputs": [],
			"stateMutability": "nonpayable",
			"type": "function"
		}
	]
}