{
	"data": {
		"bytecode": {
			"linkReferences": {},
			"object": "6080604052348015600e575f5ffd5b5061116d8061001c5f395ff3fe608060405234801561000f575f5ffd5b5060043610610034575f3560e01c80635dab7f7714610038578063a22e38db14610068575b5f5ffd5b610052600480360381019061004d9190610572565b610098565b60405161005f919061066e565b60405180910390f35b610082600480360381019061007d919061068e565b61013f565b60405161008f919061066e565b60405180910390f35b60605f604051806101e001604052806101a88152602001610eda6101a8913990505f6040518060e0016040528060b6815260200161108260b6913990505f87876100e1886101d7565b6100ea8861013f565b6040516020016100fd9493929190610c83565b604051602081830303815290604052905082828260405160200161012393929190610d79565b6040516020818303038152906040529350505050949350505050565b60605f60648361014f9190610dd6565b90505f60648461015f9190610e06565b90505f600a821061017857610173826101d7565b6101a1565b610181826101d7565b6040516020016101919190610e5c565b6040516020818303038152906040525b90506101ac836101d7565b816040516020016101be929190610ea7565b6040516020818303038152906040529350505050919050565b60605f60016101e5846102a1565b0190505f8167ffffffffffffffff8111156102035761020261041b565b5b6040519080825280601f01601f1916602001820160405280156102355781602001600182028036833780820191505090505b5090505f82602083010190505b600115610296578080600190039150507f3031323334353637383961626364656600000000000000000000000000000000600a86061a8153600a858161028b5761028a610da9565b5b0494505f8503610242575b819350505050919050565b5f5f5f90507a184f03e93ff9f4daa797ed6e38ed64bf6a1f01000000000000000083106102fd577a184f03e93ff9f4daa797ed6e38ed64bf6a1f01000000000000000083816102f3576102f2610da9565b5b0492506040810190505b6d04ee2d6d415b85acef8100000000831061033a576d04ee2d6d415b85acef810000000083816103305761032f610da9565b5b0492506020810190505b662386f26fc10000831061036957662386f26fc10000838161035f5761035e610da9565b5b0492506010810190505b6305f5e1008310610392576305f5e100838161038857610387610da9565b5b0492506008810190505b61271083106103b75761271083816103ad576103ac610da9565b5b0492506004810190505b606483106103da57606483816103d0576103cf610da9565b5b0492506002810190505b600a83106103e9576001810190505b80915050919050565b5f604051905090565b5f5ffd5b5f5ffd5b5f5ffd5b5f5ffd5b5f601f19601f8301169050919050565b7f4e487b71000000000000000000000000000000000000000000000000000000005f52604160045260245ffd5b6104518261040b565b810181811067ffffffffffffffff821117156104705761046f61041b565b5b80604052505050565b5f6104826103f2565b905061048e8282610448565b919050565b5f67ffffffffffffffff8211156104ad576104ac61041b565b5b6104b68261040b565b9050602081019050919050565b828183375f83830152505050565b5f6104e36104de84610493565b610479565b9050828152602081018484840111156104ff576104fe610407565b5b61050a8482856104c3565b509392505050565b5f82601f83011261052657610525610403565b5b81356105368482602086016104d1565b91505092915050565b5f819050919050565b6105518161053f565b811461055b575f5ffd5b50565b5f8135905061056c81610548565b92915050565b5f5f5f5f6080858703121561058a576105896103fb565b5b5f85013567ffffffffffffffff8111156105a7576105a66103ff565b5b6105b387828801610512565b945050602085013567ffffffffffffffff8111156105d4576105d36103ff565b5b6105e087828801610512565b93505060406105f18782880161055e565b92505060606106028782880161055e565b91505092959194509250565b5f81519050919050565b5f82825260208201905092915050565b8281835e5f83830152505050565b5f6106408261060e565b61064a8185610618565b935061065a818560208601610628565b6106638161040b565b840191505092915050565b5f6020820190508181035f8301526106868184610636565b905092915050565b5f602082840312156106a3576106a26103fb565b5b5f6106b08482850161055e565b91505092915050565b5f81905092915050565b7f3c67207472616e73666f726d3d227472616e736c617465283138302c203130305f8201527f29222073686170652d72656e646572696e673d2263726973704564676573223e602082015250565b5f61071d6040836106b9565b9150610728826106c3565b604082019050919050565b7f3c7465787420783d222d33302220793d223230222066696c6c3d2223333439385f8201527f64622220666f6e742d73697a653d223134223e504c41594552204e414d453a3c60208201527f2f746578743e0000000000000000000000000000000000000000000000000000604082015250565b5f6107b36046836106b9565b91506107be82610733565b604682019050919050565b7f3c7465787420783d222d33302220793d223530222066696c6c3d2223656366305f8201527f66312220666f6e742d73697a653d2232342220666f6e742d7765696768743d2260208201527f626f6c64223e0000000000000000000000000000000000000000000000000000604082015250565b5f6108496046836106b9565b9150610854826107c9565b604682019050919050565b5f6108698261060e565b61087381856106b9565b9350610883818560208601610628565b80840191505092915050565b7f3c2f746578743e00000000000000000000000000000000000000000000000000815250565b7f3c6c696e652078313d222d3235222079313d223735222078323d2231323022205f8201527f79323d22373522207374726f6b653d222335353522207374726f6b652d77696460208201527f74683d223422207374726f6b652d6461736861727261793d22382c36222f3e00604082015250565b5f610935605f836106b9565b9150610940826108b5565b605f82019050919050565b7f3c7465787420783d222d33302220793d22313135222066696c6c3d22236537345f8201527f6333632220666f6e742d73697a653d223134223e4c414e453a3c2f746578743e602082015250565b5f6109a56040836106b9565b91506109b08261094b565b604082019050919050565b7f3c7465787420783d223132302220793d22313135222066696c6c3d22236563665f8201527f3066312220666f6e742d73697a653d2231342220746578742d616e63686f723d60208201527f22656e64223e0000000000000000000000000000000000000000000000000000604082015250565b5f610a3b6046836106b9565b9150610a46826109bb565b604682019050919050565b7f3c7465787420783d222d33302220793d22313535222066696c6c3d22233935615f8201527f3561362220666f6e742d73697a653d223134223e47414d453a3c2f746578743e602082015250565b5f610aab6040836106b9565b9150610ab682610a51565b604082019050919050565b7f3c7465787420783d223132302220793d22313535222066696c6c3d22236563665f8201527f3066312220666f6e742d73697a653d2231342220746578742d616e63686f723d60208201527f22656e64223e0000000000000000000000000000000000000000000000000000604082015250565b5f610b416046836106b9565b9150610b4c82610ac1565b604682019050919050565b7f3c7465787420783d222d33302220793d22313935222066696c6c3d22233265635f8201527f6337312220666f6e742d73697a653d223134223e4b44413a3c2f746578743e00602082015250565b5f610bb1603f836106b9565b9150610bbc82610b57565b603f82019050919050565b7f3c7465787420783d223132302220793d22313935222066696c6c3d22236563665f8201527f3066312220666f6e742d73697a653d2231342220746578742d616e63686f723d60208201527f22656e64223e0000000000000000000000000000000000000000000000000000604082015250565b5f610c476046836106b9565b9150610c5282610bc7565b604682019050919050565b7f3c2f673e3c2f7376673e00000000000000000000000000000000000000000000815250565b5f610c8d82610711565b9150610c98826107a7565b9150610ca38261083d565b9150610caf828761085f565b9150610cba8261088f565b600782019150610cc982610929565b9150610cd482610999565b9150610cdf82610a2f565b9150610ceb828661085f565b9150610cf68261088f565b600782019150610d0582610a9f565b9150610d1082610b35565b9150610d1c828561085f565b9150610d278261088f565b600782019150610d3682610ba5565b9150610d4182610c3b565b9150610d4d828461085f565b9150610d588261088f565b600782019150610d6782610c5d565b600a8201915081905095945050505050565b5f610d84828661085f565b9150610d90828561085f565b9150610d9c828461085f565b9150819050949350505050565b7f4e487b71000000000000000000000000000000000000000000000000000000005f52601260045260245ffd5b5f610de08261053f565b9150610deb8361053f565b925082610dfb57610dfa610da9565b5b828204905092915050565b5f610e108261053f565b9150610e1b8361053f565b925082610e2b57610e2a610da9565b5b828206905092915050565b7f3000000000000000000000000000000000000000000000000000000000000000815250565b5f610e6682610e36565b600182019150610e76828461085f565b915081905092915050565b7f2e00000000000000000000000000000000000000000000000000000000000000815250565b5f610eb2828561085f565b9150610ebd82610e81565b600182019150610ecd828461085f565b9150819050939250505056fe3c7376672077696474683d2233323022206865696768743d22343030222076696577426f783d2230203020333230203430302220786d6c6e733d22687474703a2f2f7777772e77332e6f72672f323030302f737667223e3c672073686170652d72656e646572696e673d2263726973704564676573223e3c7265637420783d22302220793d2230222077696474683d2233323022206865696768743d22343030222066696c6c3d2223656366306631222f3e3c7265637420783d22382220793d2238222077696474683d2233303422206865696768743d22333834222066696c6c3d2223303232663532222f3e3c7465787420783d223136302220793d223430222066696c6c3d22236563663066312220666f6e742d73697a653d2232302220746578742d616e63686f723d226d6964646c652220666f6e742d7765696768743d22626f6c64223e504c4159455220434152443c2f746578743e3c6c696e652078313d223230222079313d223535222078323d22333030222079323d22353522207374726f6b653d222365636630663122207374726f6b652d77696474683d2234222f3e3c2f673e3c73766720783d22302220793d223330222077696474683d2231353022206865696768743d22333830222076696577426f783d22302030203332203332222073686170652d72656e646572696e673d2263726973704564676573223e3c706174682066696c6c3d22233030303030302220643d224d3131203268313076314831317a204d3920336832763148397a2e2e2e5b4b4f44452050415448204c454e474b415020414e44415d2e2e2e22202f3e3c2f7376673ea2646970667358221220f7e25920d958fac0ceb10c1d768e5b220994e2cd2b032dce62c1e6d4f291f2b764736f6c63430008220033",
			"opcodes": "PUSH1 0x80 PUSH1 0x40 MSTORE CALLVALUE DUP1 ISZERO PUSH1 0xE JUMPI PUSH0 PUSH0 REVERT JUMPDEST POP PUSH2 0x116D DUP1 PUSH2 0x1C PUSH0 CODECOPY PUSH0 RETURN INVALID PUSH1 0x80 PUSH1 0x40 MSTORE CALLVALUE DUP1 ISZERO PUSH2 0xF JUMPI PUSH0 PUSH0 REVERT JUMPDEST POP PUSH1 0x4 CALLDATASIZE LT PUSH2 0x34 JUMPI PUSH0 CALLDATALOAD PUSH1 0xE0 SHR DUP1 PUSH4 0x5DAB7F77 EQ PUSH2 0x38 JUMPI DUP1 PUSH4 0xA22E38DB EQ PUSH2 0x68 JUMPI JUMPDEST PUSH0 PUSH0 REVERT JUMPDEST PUSH2 0x52 PUSH1 0x4 DUP1 CALLDATASIZE SUB DUP2 ADD SWAP1 PUSH2 0x4D SWAP2 SWAP1 PUSH2 0x572 JUMP JUMPDEST PUSH2 0x98 JUMP JUMPDEST PUSH1 0x40 MLOAD PUSH2 0x5F SWAP2 SWAP1 PUSH2 0x66E JUMP JUMPDEST PUSH1 0x40 MLOAD DUP1 SWAP2 SUB SWAP1 RETURN JUMPDEST PUSH2 0x82 PUSH1 0x4 DUP1 CALLDATASIZE SUB DUP2 ADD SWAP1 PUSH2 0x7D SWAP2 SWAP1 PUSH2 0x68E JUMP JUMPDEST PUSH2 0x13F JUMP JUMPDEST PUSH1 0x40 MLOAD PUSH2 0x8F SWAP2 SWAP1 PUSH2 0x66E JUMP JUMPDEST PUSH1 0x40 MLOAD DUP1 SWAP2 SUB SWAP1 RETURN JUMPDEST PUSH1 0x60 PUSH0 PUSH1 0x40 MLOAD DUP1 PUSH2 0x1E0 ADD PUSH1 0x40 MSTORE DUP1 PUSH2 0x1A8 DUP2 MSTORE PUSH1 0x20 ADD PUSH2 0xEDA PUSH2 0x1A8 SWAP2 CODECOPY SWAP1 POP PUSH0 PUSH1 0x40 MLOAD DUP1 PUSH1 0xE0 ADD PUSH1 0x40 MSTORE DUP1 PUSH1 0xB6 DUP2 MSTORE PUSH1 0x20 ADD PUSH2 0x1082 PUSH1 0xB6 SWAP2 CODECOPY SWAP1 POP PUSH0 DUP8 DUP8 PUSH2 0xE1 DUP9 PUSH2 0x1D7 JUMP JUMPDEST PUSH2 0xEA DUP9 PUSH2 0x13F JUMP JUMPDEST PUSH1 0x40 MLOAD PUSH1 0x20 ADD PUSH2 0xFD SWAP5 SWAP4 SWAP3 SWAP2 SWAP1 PUSH2 0xC83 JUMP JUMPDEST PUSH1 0x40 MLOAD PUSH1 0x20 DUP2 DUP4 SUB SUB DUP2 MSTORE SWAP1 PUSH1 0x40 MSTORE SWAP1 POP DUP3 DUP3 DUP3 PUSH1 0x40 MLOAD PUSH1 0x20 ADD PUSH2 0x123 SWAP4 SWAP3 SWAP2 SWAP1 PUSH2 0xD79 JUMP JUMPDEST PUSH1 0x40 MLOAD PUSH1 0x20 DUP2 DUP4 SUB SUB DUP2 MSTORE SWAP1 PUSH1 0x40 MSTORE SWAP4 POP POP POP POP SWAP5 SWAP4 POP POP POP POP JUMP JUMPDEST PUSH1 0x60 PUSH0 PUSH1 0x64 DUP4 PUSH2 0x14F SWAP2 SWAP1 PUSH2 0xDD6 JUMP JUMPDEST SWAP1 POP PUSH0 PUSH1 0x64 DUP5 PUSH2 0x15F SWAP2 SWAP1 PUSH2 0xE06 JUMP JUMPDEST SWAP1 POP PUSH0 PUSH1 0xA DUP3 LT PUSH2 0x178 JUMPI PUSH2 0x173 DUP3 PUSH2 0x1D7 JUMP JUMPDEST PUSH2 0x1A1 JUMP JUMPDEST PUSH2 0x181 DUP3 PUSH2 0x1D7 JUMP JUMPDEST PUSH1 0x40 MLOAD PUSH1 0x20 ADD PUSH2 0x191 SWAP2 SWAP1 PUSH2 0xE5C JUMP JUMPDEST PUSH1 0x40 MLOAD PUSH1 0x20 DUP2 DUP4 SUB SUB DUP2 MSTORE SWAP1 PUSH1 0x40 MSTORE JUMPDEST SWAP1 POP PUSH2 0x1AC DUP4 PUSH2 0x1D7 JUMP JUMPDEST DUP2 PUSH1 0x40 MLOAD PUSH1 0x20 ADD PUSH2 0x1BE SWAP3 SWAP2 SWAP1 PUSH2 0xEA7 JUMP JUMPDEST PUSH1 0x40 MLOAD PUSH1 0x20 DUP2 DUP4 SUB SUB DUP2 MSTORE SWAP1 PUSH1 0x40 MSTORE SWAP4 POP POP POP POP SWAP2 SWAP1 POP JUMP JUMPDEST PUSH1 0x60 PUSH0 PUSH1 0x1 PUSH2 0x1E5 DUP5 PUSH2 0x2A1 JUMP JUMPDEST ADD SWAP1 POP PUSH0 DUP2 PUSH8 0xFFFFFFFFFFFFFFFF DUP2 GT ISZERO PUSH2 0x203 JUMPI PUSH2 0x202 PUSH2 0x41B JUMP JUMPDEST JUMPDEST PUSH1 0x40 MLOAD SWAP1 DUP1 DUP3 MSTORE DUP1 PUSH1 0x1F ADD PUSH1 0x1F NOT AND PUSH1 0x20 ADD DUP3 ADD PUSH1 0x40 MSTORE DUP1 ISZERO PUSH2 0x235 JUMPI DUP2 PUSH1 0x20 ADD PUSH1 0x1 DUP3 MUL DUP1 CALLDATASIZE DUP4 CALLDATACOPY DUP1 DUP3 ADD SWAP2 POP POP SWAP1 POP JUMPDEST POP SWAP1 POP PUSH0 DUP3 PUSH1 0x20 DUP4 ADD ADD SWAP1 POP JUMPDEST PUSH1 0x1 ISZERO PUSH2 0x296 JUMPI DUP1 DUP1 PUSH1 0x1 SWAP1 SUB SWAP2 POP POP PUSH32 0x3031323334353637383961626364656600000000000000000000000000000000 PUSH1 0xA DUP7 MOD BYTE DUP2 MSTORE8 PUSH1 0xA DUP6 DUP2 PUSH2 0x28B JUMPI PUSH2 0x28A PUSH2 0xDA9 JUMP JUMPDEST JUMPDEST DIV SWAP5 POP PUSH0 DUP6 SUB PUSH2 0x242 JUMPI JUMPDEST DUP2 SWAP4 POP POP POP POP SWAP2 SWAP1 POP JUMP JUMPDEST PUSH0 PUSH0 PUSH0 SWAP1 POP PUSH27 0x184F03E93FF9F4DAA797ED6E38ED64BF6A1F010000000000000000 DUP4 LT PUSH2 0x2FD JUMPI PUSH27 0x184F03E93FF9F4DAA797ED6E38ED64BF6A1F010000000000000000 DUP4 DUP2 PUSH2 0x2F3 JUMPI PUSH2 0x2F2 PUSH2 0xDA9 JUMP JUMPDEST JUMPDEST DIV SWAP3 POP PUSH1 0x40 DUP2 ADD SWAP1 POP JUMPDEST PUSH14 0x4EE2D6D415B85ACEF8100000000 DUP4 LT PUSH2 0x33A JUMPI PUSH14 0x4EE2D6D415B85ACEF8100000000 DUP4 DUP2 PUSH2 0x330 JUMPI PUSH2 0x32F PUSH2 0xDA9 JUMP JUMPDEST JUMPDEST DIV SWAP3 POP PUSH1 0x20 DUP2 ADD SWAP1 POP JUMPDEST PUSH7 0x2386F26FC10000 DUP4 LT PUSH2 0x369 JUMPI PUSH7 0x2386F26FC10000 DUP4 DUP2 PUSH2 0x35F JUMPI PUSH2 0x35E PUSH2 0xDA9 JUMP JUMPDEST JUMPDEST DIV SWAP3 POP PUSH1 0x10 DUP2 ADD SWAP1 POP JUMPDEST PUSH4 0x5F5E100 DUP4 LT PUSH2 0x392 JUMPI PUSH4 0x5F5E100 DUP4 DUP2 PUSH2 0x388 JUMPI PUSH2 0x387 PUSH2 0xDA9 JUMP JUMPDEST JUMPDEST DIV SWAP3 POP PUSH1 0x8 DUP2 ADD SWAP1 POP JUMPDEST PUSH2 0x2710 DUP4 LT PUSH2 0x3B7 JUMPI PUSH2 0x2710 DUP4 DUP2 PUSH2 0x3AD JUMPI PUSH2 0x3AC PUSH2 0xDA9 JUMP JUMPDEST JUMPDEST DIV SWAP3 POP PUSH1 0x4 DUP2 ADD SWAP1 POP JUMPDEST PUSH1 0x64 DUP4 LT PUSH2 0x3DA JUMPI PUSH1 0x64 DUP4 DUP2 PUSH2 0x3D0 JUMPI PUSH2 0x3CF PUSH2 0xDA9 JUMP JUMPDEST JUMPDEST DIV SWAP3 POP PUSH1 0x2 DUP2 ADD SWAP1 POP JUMPDEST PUSH1 0xA DUP4 LT PUSH2 0x3E9 JUMPI PUSH1 0x1 DUP2 ADD SWAP1 POP JUMPDEST DUP1 SWAP2 POP POP SWAP2 SWAP1 POP JUMP JUMPDEST PUSH0 PUSH1 0x40 MLOAD SWAP1 POP SWAP1 JUMP JUMPDEST PUSH0 PUSH0 REVERT JUMPDEST PUSH0 PUSH0 REVERT JUMPDEST PUSH0 PUSH0 REVERT JUMPDEST PUSH0 PUSH0 REVERT JUMPDEST PUSH0 PUSH1 0x1F NOT PUSH1 0x1F DUP4 ADD AND SWAP1 POP SWAP2 SWAP1 POP JUMP JUMPDEST PUSH32 0x4E487B7100000000000000000000000000000000000000000000000000000000 PUSH0 MSTORE PUSH1 0x41 PUSH1 0x4 MSTORE PUSH1 0x24 PUSH0 REVERT JUMPDEST PUSH2 0x451 DUP3 PUSH2 0x40B JUMP JUMPDEST DUP2 ADD DUP2 DUP2 LT PUSH8 0xFFFFFFFFFFFFFFFF DUP3 GT OR ISZERO PUSH2 0x470 JUMPI PUSH2 0x46F PUSH2 0x41B JUMP JUMPDEST JUMPDEST DUP1 PUSH1 0x40 MSTORE POP POP POP JUMP JUMPDEST PUSH0 PUSH2 0x482 PUSH2 0x3F2 JUMP JUMPDEST SWAP1 POP PUSH2 0x48E DUP3 DUP3 PUSH2 0x448 JUMP JUMPDEST SWAP2 SWAP1 POP JUMP JUMPDEST PUSH0 PUSH8 0xFFFFFFFFFFFFFFFF DUP3 GT ISZERO PUSH2 0x4AD JUMPI PUSH2 0x4AC PUSH2 0x41B JUMP JUMPDEST JUMPDEST PUSH2 0x4B6 DUP3 PUSH2 0x40B JUMP JUMPDEST SWAP1 POP PUSH1 0x20 DUP2 ADD SWAP1 POP SWAP2 SWAP1 POP JUMP JUMPDEST DUP3 DUP2 DUP4 CALLDATACOPY PUSH0 DUP4 DUP4 ADD MSTORE POP POP POP JUMP JUMPDEST PUSH0 PUSH2 0x4E3 PUSH2 0x4DE DUP5 PUSH2 0x493 JUMP JUMPDEST PUSH2 0x479 JUMP JUMPDEST SWAP1 POP DUP3 DUP2 MSTORE PUSH1 0x20 DUP2 ADD DUP5 DUP5 DUP5 ADD GT ISZERO PUSH2 0x4FF JUMPI PUSH2 0x4FE PUSH2 0x407 JUMP JUMPDEST JUMPDEST PUSH2 0x50A DUP5 DUP3 DUP6 PUSH2 0x4C3 JUMP JUMPDEST POP SWAP4 SWAP3 POP POP POP JUMP JUMPDEST PUSH0 DUP3 PUSH1 0x1F DUP4 ADD SLT PUSH2 0x526 JUMPI PUSH2 0x525 PUSH2 0x403 JUMP JUMPDEST JUMPDEST DUP2 CALLDATALOAD PUSH2 0x536 DUP5 DUP3 PUSH1 0x20 DUP7 ADD PUSH2 0x4D1 JUMP JUMPDEST SWAP2 POP POP SWAP3 SWAP2 POP POP JUMP JUMPDEST PUSH0 DUP2 SWAP1 POP SWAP2 SWAP1 POP JUMP JUMPDEST PUSH2 0x551 DUP2 PUSH2 0x53F JUMP JUMPDEST DUP2 EQ PUSH2 0x55B JUMPI PUSH0 PUSH0 REVERT JUMPDEST POP JUMP JUMPDEST PUSH0 DUP2 CALLDATALOAD SWAP1 POP PUSH2 0x56C DUP2 PUSH2 0x548 JUMP JUMPDEST SWAP3 SWAP2 POP POP JUMP JUMPDEST PUSH0 PUSH0 PUSH0 PUSH0 PUSH1 0x80 DUP6 DUP8 SUB SLT ISZERO PUSH2 0x58A JUMPI PUSH2 0x589 PUSH2 0x3FB JUMP JUMPDEST JUMPDEST PUSH0 DUP6 ADD CALLDATALOAD PUSH8 0xFFFFFFFFFFFFFFFF DUP2 GT ISZERO PUSH2 0x5A7 JUMPI PUSH2 0x5A6 PUSH2 0x3FF JUMP JUMPDEST JUMPDEST PUSH2 0x5B3 DUP8 DUP3 DUP9 ADD PUSH2 0x512 JUMP JUMPDEST SWAP5 POP POP PUSH1 0x20 DUP6 ADD CALLDATALOAD PUSH8 0xFFFFFFFFFFFFFFFF DUP2 GT ISZERO PUSH2 0x5D4 JUMPI PUSH2 0x5D3 PUSH2 0x3FF JUMP JUMPDEST JUMPDEST PUSH2 0x5E0 DUP8 DUP3 DUP9 ADD PUSH2 0x512 JUMP JUMPDEST SWAP4 POP POP PUSH1 0x40 PUSH2 0x5F1 DUP8 DUP3 DUP9 ADD PUSH2 0x55E JUMP JUMPDEST SWAP3 POP POP PUSH1 0x60 PUSH2 0x602 DUP8 DUP3 DUP9 ADD PUSH2 0x55E JUMP JUMPDEST SWAP2 POP POP SWAP3 SWAP6 SWAP2 SWAP5 POP SWAP3 POP JUMP JUMPDEST PUSH0 DUP2 MLOAD SWAP1 POP SWAP2 SWAP1 POP JUMP JUMPDEST PUSH0 DUP3 DUP3 MSTORE PUSH1 0x20 DUP3 ADD SWAP1 POP SWAP3 SWAP2 POP POP JUMP JUMPDEST DUP3 DUP2 DUP4 MCOPY PUSH0 DUP4 DUP4 ADD MSTORE POP POP POP JUMP JUMPDEST PUSH0 PUSH2 0x640 DUP3 PUSH2 0x60E JUMP JUMPDEST PUSH2 0x64A DUP2 DUP6 PUSH2 0x618 JUMP JUMPDEST SWAP4 POP PUSH2 0x65A DUP2 DUP6 PUSH1 0x20 DUP7 ADD PUSH2 0x628 JUMP JUMPDEST PUSH2 0x663 DUP2 PUSH2 0x40B JUMP JUMPDEST DUP5 ADD SWAP2 POP POP SWAP3 SWAP2 POP POP JUMP JUMPDEST PUSH0 PUSH1 0x20 DUP3 ADD SWAP1 POP DUP2 DUP2 SUB PUSH0 DUP4 ADD MSTORE PUSH2 0x686 DUP2 DUP5 PUSH2 0x636 JUMP JUMPDEST SWAP1 POP SWAP3 SWAP2 POP POP JUMP JUMPDEST PUSH0 PUSH1 0x20 DUP3 DUP5 SUB SLT ISZERO PUSH2 0x6A3 JUMPI PUSH2 0x6A2 PUSH2 0x3FB JUMP JUMPDEST JUMPDEST PUSH0 PUSH2 0x6B0 DUP5 DUP3 DUP6 ADD PUSH2 0x55E JUMP JUMPDEST SWAP2 POP POP SWAP3 SWAP2 POP POP JUMP JUMPDEST PUSH0 DUP2 SWAP1 POP SWAP3 SWAP2 POP POP JUMP JUMPDEST PUSH32 0x3C67207472616E73666F726D3D227472616E736C617465283138302C20313030 PUSH0 DUP3 ADD MSTORE PUSH32 0x29222073686170652D72656E646572696E673D2263726973704564676573223E PUSH1 0x20 DUP3 ADD MSTORE POP JUMP JUMPDEST PUSH0 PUSH2 0x71D PUSH1 0x40 DUP4 PUSH2 0x6B9 JUMP JUMPDEST SWAP2 POP PUSH2 0x728 DUP3 PUSH2 0x6C3 JUMP JUMPDEST PUSH1 0x40 DUP3 ADD SWAP1 POP SWAP2 SWAP1 POP JUMP JUMPDEST PUSH32 0x3C7465787420783D222D33302220793D223230222066696C6C3D222333343938 PUSH0 DUP3 ADD MSTORE PUSH32 0x64622220666F6E742D73697A653D223134223E504C41594552204E414D453A3C PUSH1 0x20 DUP3 ADD MSTORE PUSH32 0x2F746578743E0000000000000000000000000000000000000000000000000000 PUSH1 0x40 DUP3 ADD MSTORE POP JUMP JUMPDEST PUSH0 PUSH2 0x7B3 PUSH1 0x46 DUP4 PUSH2 0x6B9 JUMP JUMPDEST SWAP2 POP PUSH2 0x7BE DUP3 PUSH2 0x733 JUMP JUMPDEST PUSH1 0x46 DUP3 ADD SWAP1 POP SWAP2 SWAP1 POP JUMP JUMPDEST PUSH32 0x3C7465787420783D222D33302220793D223530222066696C6C3D222365636630 PUSH0 DUP3 ADD MSTORE PUSH32 0x66312220666F6E742D73697A653D2232342220666F6E742D7765696768743D22 PUSH1 0x20 DUP3 ADD MSTORE PUSH32 0x626F6C64223E0000000000000000000000000000000000000000000000000000 PUSH1 0x40 DUP3 ADD MSTORE POP JUMP JUMPDEST PUSH0 PUSH2 0x849 PUSH1 0x46 DUP4 PUSH2 0x6B9 JUMP JUMPDEST SWAP2 POP PUSH2 0x854 DUP3 PUSH2 0x7C9 JUMP JUMPDEST PUSH1 0x46 DUP3 ADD SWAP1 POP SWAP2 SWAP1 POP JUMP JUMPDEST PUSH0 PUSH2 0x869 DUP3 PUSH2 0x60E JUMP JUMPDEST PUSH2 0x873 DUP2 DUP6 PUSH2 0x6B9 JUMP JUMPDEST SWAP4 POP PUSH2 0x883 DUP2 DUP6 PUSH1 0x20 DUP7 ADD PUSH2 0x628 JUMP JUMPDEST DUP1 DUP5 ADD SWAP2 POP POP SWAP3 SWAP2 POP POP JUMP JUMPDEST PUSH32 0x3C2F746578743E00000000000000000000000000000000000000000000000000 DUP2 MSTORE POP JUMP JUMPDEST PUSH32 0x3C6C696E652078313D222D3235222079313D223735222078323D223132302220 PUSH0 DUP3 ADD MSTORE PUSH32 0x79323D22373522207374726F6B653D222335353522207374726F6B652D776964 PUSH1 0x20 DUP3 ADD MSTORE PUSH32 0x74683D223422207374726F6B652D6461736861727261793D22382C36222F3E00 PUSH1 0x40 DUP3 ADD MSTORE POP JUMP JUMPDEST PUSH0 PUSH2 0x935 PUSH1 0x5F DUP4 PUSH2 0x6B9 JUMP JUMPDEST SWAP2 POP PUSH2 0x940 DUP3 PUSH2 0x8B5 JUMP JUMPDEST PUSH1 0x5F DUP3 ADD SWAP1 POP SWAP2 SWAP1 POP JUMP JUMPDEST PUSH32 0x3C7465787420783D222D33302220793D22313135222066696C6C3D2223653734 PUSH0 DUP3 ADD MSTORE PUSH32 0x6333632220666F6E742D73697A653D223134223E4C414E453A3C2F746578743E PUSH1 0x20 DUP3 ADD MSTORE POP JUMP JUMPDEST PUSH0 PUSH2 0x9A5 PUSH1 0x40 DUP4 PUSH2 0x6B9 JUMP JUMPDEST SWAP2 POP PUSH2 0x9B0 DUP3 PUSH2 0x94B JUMP JUMPDEST PUSH1 0x40 DUP3 ADD SWAP1 POP SWAP2 SWAP1 POP JUMP JUMPDEST PUSH32 0x3C7465787420783D223132302220793D22313135222066696C6C3D2223656366 PUSH0 DUP3 ADD MSTORE PUSH32 0x3066312220666F6E742D73697A653D2231342220746578742D616E63686F723D PUSH1 0x20 DUP3 ADD MSTORE PUSH32 0x22656E64223E0000000000000000000000000000000000000000000000000000 PUSH1 0x40 DUP3 ADD MSTORE POP JUMP JUMPDEST PUSH0 PUSH2 0xA3B PUSH1 0x46 DUP4 PUSH2 0x6B9 JUMP JUMPDEST SWAP2 POP PUSH2 0xA46 DUP3 PUSH2 0x9BB JUMP JUMPDEST PUSH1 0x46 DUP3 ADD SWAP1 POP SWAP2 SWAP1 POP JUMP JUMPDEST PUSH32 0x3C7465787420783D222D33302220793D22313535222066696C6C3D2223393561 PUSH0 DUP3 ADD MSTORE PUSH32 0x3561362220666F6E742D73697A653D223134223E47414D453A3C2F746578743E PUSH1 0x20 DUP3 ADD MSTORE POP JUMP JUMPDEST PUSH0 PUSH2 0xAAB PUSH1 0x40 DUP4 PUSH2 0x6B9 JUMP JUMPDEST SWAP2 POP PUSH2 0xAB6 DUP3 PUSH2 0xA51 JUMP JUMPDEST PUSH1 0x40 DUP3 ADD SWAP1 POP SWAP2 SWAP1 POP JUMP JUMPDEST PUSH32 0x3C7465787420783D223132302220793D22313535222066696C6C3D2223656366 PUSH0 DUP3 ADD MSTORE PUSH32 0x3066312220666F6E742D73697A653D2231342220746578742D616E63686F723D PUSH1 0x20 DUP3 ADD MSTORE PUSH32 0x22656E64223E0000000000000000000000000000000000000000000000000000 PUSH1 0x40 DUP3 ADD MSTORE POP JUMP JUMPDEST PUSH0 PUSH2 0xB41 PUSH1 0x46 DUP4 PUSH2 0x6B9 JUMP JUMPDEST SWAP2 POP PUSH2 0xB4C DUP3 PUSH2 0xAC1 JUMP JUMPDEST PUSH1 0x46 DUP3 ADD SWAP1 POP SWAP2 SWAP1 POP JUMP JUMPDEST PUSH32 0x3C7465787420783D222D33302220793D22313935222066696C6C3D2223326563 PUSH0 DUP3 ADD MSTORE PUSH32 0x6337312220666F6E742D73697A653D223134223E4B44413A3C2F746578743E00 PUSH1 0x20 DUP3 ADD MSTORE POP JUMP JUMPDEST PUSH0 PUSH2 0xBB1 PUSH1 0x3F DUP4 PUSH2 0x6B9 JUMP JUMPDEST SWAP2 POP PUSH2 0xBBC DUP3 PUSH2 0xB57 JUMP JUMPDEST PUSH1 0x3F DUP3 ADD SWAP1 POP SWAP2 SWAP1 POP JUMP JUMPDEST PUSH32 0x3C7465787420783D223132302220793D22313935222066696C6C3D2223656366 PUSH0 DUP3 ADD MSTORE PUSH32 0x3066312220666F6E742D73697A653D2231342220746578742D616E63686F723D PUSH1 0x20 DUP3 ADD MSTORE PUSH32 0x22656E64223E0000000000000000000000000000000000000000000000000000 PUSH1 0x40 DUP3 ADD MSTORE POP JUMP JUMPDEST PUSH0 PUSH2 0xC47 PUSH1 0x46 DUP4 PUSH2 0x6B9 JUMP JUMPDEST SWAP2 POP PUSH2 0xC52 DUP3 PUSH2 0xBC7 JUMP JUMPDEST PUSH1 0x46 DUP3 ADD SWAP1 POP SWAP2 SWAP1 POP JUMP JUMPDEST PUSH32 0x3C2F673E3C2F7376673E00000000000000000000000000000000000000000000 DUP2 MSTORE POP JUMP JUMPDEST PUSH0 PUSH2 0xC8D DUP3 PUSH2 0x711 JUMP JUMPDEST SWAP2 POP PUSH2 0xC98 DUP3 PUSH2 0x7A7 JUMP JUMPDEST SWAP2 POP PUSH2 0xCA3 DUP3 PUSH2 0x83D JUMP JUMPDEST SWAP2 POP PUSH2 0xCAF DUP3 DUP8 PUSH2 0x85F JUMP JUMPDEST SWAP2 POP PUSH2 0xCBA DUP3 PUSH2 0x88F JUMP JUMPDEST PUSH1 0x7 DUP3 ADD SWAP2 POP PUSH2 0xCC9 DUP3 PUSH2 0x929 JUMP JUMPDEST SWAP2 POP PUSH2 0xCD4 DUP3 PUSH2 0x999 JUMP JUMPDEST SWAP2 POP PUSH2 0xCDF DUP3 PUSH2 0xA2F JUMP JUMPDEST SWAP2 POP PUSH2 0xCEB DUP3 DUP7 PUSH2 0x85F JUMP JUMPDEST SWAP2 POP PUSH2 0xCF6 DUP3 PUSH2 0x88F JUMP JUMPDEST PUSH1 0x7 DUP3 ADD SWAP2 POP PUSH2 0xD05 DUP3 PUSH2 0xA9F JUMP JUMPDEST SWAP2 POP PUSH2 0xD10 DUP3 PUSH2 0xB35 JUMP JUMPDEST SWAP2 POP PUSH2 0xD1C DUP3 DUP6 PUSH2 0x85F JUMP JUMPDEST SWAP2 POP PUSH2 0xD27 DUP3 PUSH2 0x88F JUMP JUMPDEST PUSH1 0x7 DUP3 ADD SWAP2 POP PUSH2 0xD36 DUP3 PUSH2 0xBA5 JUMP JUMPDEST SWAP2 POP PUSH2 0xD41 DUP3 PUSH2 0xC3B JUMP JUMPDEST SWAP2 POP PUSH2 0xD4D DUP3 DUP5 PUSH2 0x85F JUMP JUMPDEST SWAP2 POP PUSH2 0xD58 DUP3 PUSH2 0x88F JUMP JUMPDEST PUSH1 0x7 DUP3 ADD SWAP2 POP PUSH2 0xD67 DUP3 PUSH2 0xC5D JUMP JUMPDEST PUSH1 0xA DUP3 ADD SWAP2 POP DUP2 SWAP1 POP SWAP6 SWAP5 POP POP POP POP POP JUMP JUMPDEST PUSH0 PUSH2 0xD84 DUP3 DUP7 PUSH2 0x85F JUMP JUMPDEST SWAP2 POP PUSH2 0xD90 DUP3 DUP6 PUSH2 0x85F JUMP JUMPDEST SWAP2 POP PUSH2 0xD9C DUP3 DUP5 PUSH2 0x85F JUMP JUMPDEST SWAP2 POP DUP2 SWAP1 POP SWAP5 SWAP4 POP POP POP POP JUMP JUMPDEST PUSH32 0x4E487B7100000000000000000000000000000000000000000000000000000000 PUSH0 MSTORE PUSH1 0x12 PUSH1 0x4 MSTORE PUSH1 0x24 PUSH0 REVERT JUMPDEST PUSH0 PUSH2 0xDE0 DUP3 PUSH2 0x53F JUMP JUMPDEST SWAP2 POP PUSH2 0xDEB DUP4 PUSH2 0x53F JUMP JUMPDEST SWAP3 POP DUP3 PUSH2 0xDFB JUMPI PUSH2 0xDFA PUSH2 0xDA9 JUMP JUMPDEST JUMPDEST DUP3 DUP3 DIV SWAP1 POP SWAP3 SWAP2 POP POP JUMP JUMPDEST PUSH0 PUSH2 0xE10 DUP3 PUSH2 0x53F JUMP JUMPDEST SWAP2 POP PUSH2 0xE1B DUP4 PUSH2 0x53F JUMP JUMPDEST SWAP3 POP DUP3 PUSH2 0xE2B JUMPI PUSH2 0xE2A PUSH2 0xDA9 JUMP JUMPDEST JUMPDEST DUP3 DUP3 MOD SWAP1 POP SWAP3 SWAP2 POP POP JUMP JUMPDEST PUSH32 0x3000000000000000000000000000000000000000000000000000000000000000 DUP2 MSTORE POP JUMP JUMPDEST PUSH0 PUSH2 0xE66 DUP3 PUSH2 0xE36 JUMP JUMPDEST PUSH1 0x1 DUP3 ADD SWAP2 POP PUSH2 0xE76 DUP3 DUP5 PUSH2 0x85F JUMP JUMPDEST SWAP2 POP DUP2 SWAP1 POP SWAP3 SWAP2 POP POP JUMP JUMPDEST PUSH32 0x2E00000000000000000000000000000000000000000000000000000000000000 DUP2 MSTORE POP JUMP JUMPDEST PUSH0 PUSH2 0xEB2 DUP3 DUP6 PUSH2 0x85F JUMP JUMPDEST SWAP2 POP PUSH2 0xEBD DUP3 PUSH2 0xE81 JUMP JUMPDEST PUSH1 0x1 DUP3 ADD SWAP2 POP PUSH2 0xECD DUP3 DUP5 PUSH2 0x85F JUMP JUMPDEST SWAP2 POP DUP2 SWAP1 POP SWAP4 SWAP3 POP POP POP JUMP INVALID EXTCODECOPY PUSH20 0x76672077696474683D2233323022206865696768 PUSH21 0x3D22343030222076696577426F783D223020302033 ORIGIN ADDRESS KECCAK256 CALLVALUE ADDRESS ADDRESS 0x22 KECCAK256 PUSH25 0x6D6C6E733D22687474703A2F2F7777772E77332E6F72672F32 ADDRESS ADDRESS ADDRESS 0x2F PUSH20 0x7667223E3C672073686170652D72656E64657269 PUSH15 0x673D2263726973704564676573223E EXTCODECOPY PUSH19 0x65637420783D22302220793D22302220776964 PUSH21 0x683D2233323022206865696768743D223430302220 PUSH7 0x696C6C3D222365 PUSH4 0x66306631 0x22 0x2F RETURNDATACOPY EXTCODECOPY PUSH19 0x65637420783D22382220793D22382220776964 PUSH21 0x683D2233303422206865696768743D223338342220 PUSH7 0x696C6C3D222330 ORIGIN ORIGIN PUSH7 0x3532222F3E3C74 PUSH6 0x787420783D22 BALANCE CALLDATASIZE ADDRESS 0x22 KECCAK256 PUSH26 0x3D223430222066696C6C3D22236563663066312220666F6E742D PUSH20 0x697A653D2232302220746578742D616E63686F72 RETURNDATASIZE 0x22 PUSH14 0x6964646C652220666F6E742D7765 PUSH10 0x6768743D22626F6C6422 RETURNDATACOPY POP 0x4C COINBASE MSIZE GASLIMIT MSTORE KECCAK256 NUMBER COINBASE MSTORE PREVRANDAO EXTCODECOPY 0x2F PUSH21 0x6578743E3C6C696E652078313D223230222079313D 0x22 CALLDATALOAD CALLDATALOAD 0x22 KECCAK256 PUSH25 0x323D22333030222079323D22353522207374726F6B653D2223 PUSH6 0x636630663122 KECCAK256 PUSH20 0x74726F6B652D77696474683D2234222F3E3C2F67 RETURNDATACOPY EXTCODECOPY PUSH20 0x766720783D22302220793D223330222077696474 PUSH9 0x3D2231353022206865 PUSH10 0x6768743D223338302220 PUSH23 0x696577426F783D22302030203332203332222073686170 PUSH6 0x2D72656E6465 PUSH19 0x696E673D2263726973704564676573223E3C70 PUSH2 0x7468 KECCAK256 PUSH7 0x696C6C3D222330 ADDRESS ADDRESS ADDRESS ADDRESS ADDRESS 0x22 KECCAK256 PUSH5 0x3D224D3131 KECCAK256 ORIGIN PUSH9 0x313076314831317A20 0x4D CODECOPY KECCAK256 CALLER PUSH9 0x32763148397A2E2E2E JUMPDEST 0x4B 0x4F PREVRANDAO GASLIMIT KECCAK256 POP COINBASE SLOAD BASEFEE KECCAK256 0x4C GASLIMIT 0x4E SELFBALANCE 0x4B COINBASE POP KECCAK256 COINBASE 0x4E PREVRANDAO COINBASE TSTORE 0x2E 0x2E 0x2E 0x22 KECCAK256 0x2F RETURNDATACOPY EXTCODECOPY 0x2F PUSH20 0x76673EA2646970667358221220F7E25920D958FA 0xC0 0xCE 0xB1 0xC SAR PUSH23 0x8E5B220994E2CD2B032DCE62C1E6D4F291F2B764736F6C PUSH4 0x43000822 STOP CALLER "
		},
		"gasEstimates": {
			"creation": {
				"codeDepositCost": "892200",
				"executionCost": "927",
				"totalCost": "893127"
			},
			"external": {
				"formatKda(uint256)": "infinite",
				"generateSVG(string,string,uint256,uint256)": "infinite"
			}
		},
		"methodIdentifiers": {
			"formatKda(uint256)": "a22e38db",
			"generateSVG(string,string,uint256,uint256)": "5dab7f77"
		}
	},
	"abi": [
		{
			"inputs": [
				{
					"internalType": "uint256",
					"name": "_kda",
					"type": "uint256"
				}
			],
			"name": "formatKda",
			"outputs": [
				{
					"internalType": "string",
					"name": "",
					"type": "string"
				}
			],
			"stateMutability": "pure",
			"type": "function"
		},
		{
			"inputs": [
				{
					"internalType": "string",
					"name": "_name",
					"type": "string"
				},
				{
					"internalType": "string",
					"name": "_lane",
					"type": "string"
				},
				{
					"internalType": "uint256",
					"name": "_games",
					"type": "uint256"
				},
				{
					"internalType": "uint256",
					"name": "_kda",
					"type": "uint256"
				}
			],
			"name": "generateSVG",
			"outputs": [
				{
					"internalType": "string",
					"name": "",
					"type": "string"
				}
			],
			"stateMutability": "pure",
			"type": "function"
		}
	]
}